{"abi":[{"type":"constructor","inputs":[{"name":"_dusd","type":"address","internalType":"address"}],"stateMutability":"nonpayable"},{"type":"function","name":"combineShorts","inputs":[{"name":"asset","type":"address","internalType":"address"},{"name":"ids","type":"uint8[]","internalType":"uint8[]"},{"name":"shortOrderIds","type":"uint16[]","internalType":"uint16[]"}],"outputs":[],"stateMutability":"nonpayable"},{"type":"function","name":"decreaseCollateral","inputs":[{"name":"asset","type":"address","internalType":"address"},{"name":"id","type":"uint8","internalType":"uint8"},{"name":"amount","type":"uint88","internalType":"uint88"}],"outputs":[],"stateMutability":"nonpayable"},{"type":"function","name":"increaseCollateral","inputs":[{"name":"asset","type":"address","internalType":"address"},{"name":"id","type":"uint8","internalType":"uint8"},{"name":"amount","type":"uint88","internalType":"uint88"}],"outputs":[],"stateMutability":"nonpayable"},{"type":"event","name":"CancelOrder","inputs":[{"name":"asset","type":"address","indexed":true,"internalType":"address"},{"name":"orderId","type":"uint16","indexed":false,"internalType":"uint16"},{"name":"orderType","type":"uint8","indexed":true,"internalType":"enum O"}],"anonymous":false},{"type":"event","name":"CombineShorts","inputs":[{"name":"asset","type":"address","indexed":true,"internalType":"address"},{"name":"user","type":"address","indexed":true,"internalType":"address"},{"name":"srIds","type":"uint8[]","indexed":false,"internalType":"uint8[]"}],"anonymous":false},{"type":"event","name":"DecreaseCollateral","inputs":[{"name":"asset","type":"address","indexed":true,"internalType":"address"},{"name":"user","type":"address","indexed":true,"internalType":"address"},{"name":"srId","type":"uint8","indexed":false,"internalType":"uint8"},{"name":"amount","type":"uint256","indexed":false,"internalType":"uint256"}],"anonymous":false},{"type":"event","name":"DeleteShortRecord","inputs":[{"name":"asset","type":"address","indexed":true,"internalType":"address"},{"name":"user","type":"address","indexed":true,"internalType":"address"},{"name":"srId","type":"uint16","indexed":false,"internalType":"uint16"}],"anonymous":false},{"type":"event","name":"IncreaseCollateral","inputs":[{"name":"asset","type":"address","indexed":true,"internalType":"address"},{"name":"user","type":"address","indexed":true,"internalType":"address"},{"name":"srId","type":"uint8","indexed":false,"internalType":"uint8"},{"name":"amount","type":"uint256","indexed":false,"internalType":"uint256"}],"anonymous":false},{"type":"error","name":"AssetIsFrozen","inputs":[]},{"type":"error","name":"BelowRecoveryModeCR","inputs":[]},{"type":"error","name":"CRLowerThanMin","inputs":[]},{"type":"error","name":"CollateralHigherThanMax","inputs":[]},{"type":"error","name":"FirstShortDeleted","inputs":[]},{"type":"error","name":"FirstShortMustBeNFT","inputs":[]},{"type":"error","name":"InsufficientCollateral","inputs":[]},{"type":"error","name":"InsufficientETHEscrowed","inputs":[]},{"type":"error","name":"InsufficientEthInLiquidityPool","inputs":[]},{"type":"error","name":"InsufficientNumberOfShorts","inputs":[]},{"type":"error","name":"InvalidAmount","inputs":[]},{"type":"error","name":"InvalidAsset","inputs":[]},{"type":"error","name":"InvalidNumberOfShortOrderIds","inputs":[]},{"type":"error","name":"InvalidPrice","inputs":[]},{"type":"error","name":"InvalidShortId","inputs":[]},{"type":"error","name":"InvalidShortOrder","inputs":[]},{"type":"error","name":"InvalidTwapPrice","inputs":[]},{"type":"error","name":"NotActiveOrder","inputs":[]},{"type":"error","name":"PRBMath_MulDiv18_Overflow","inputs":[{"name":"x","type":"uint256","internalType":"uint256"},{"name":"y","type":"uint256","internalType":"uint256"}]},{"type":"error","name":"PRBMath_MulDiv_Overflow","inputs":[{"name":"x","type":"uint256","internalType":"uint256"},{"name":"y","type":"uint256","internalType":"uint256"},{"name":"denominator","type":"uint256","internalType":"uint256"}]},{"type":"error","name":"ReentrantCall","inputs":[]}],"bytecode":{"object":"0x60a060405234801562000010575f80fd5b50604051620056e4380380620056e48339818101604052810190620000369190620000d6565b8073ffffffffffffffffffffffffffffffffffffffff1660808173ffffffffffffffffffffffffffffffffffffffff16815250505062000106565b5f80fd5b5f73ffffffffffffffffffffffffffffffffffffffff82169050919050565b5f620000a08262000075565b9050919050565b620000b28162000094565b8114620000bd575f80fd5b50565b5f81519050620000d081620000a7565b92915050565b5f60208284031215620000ee57620000ed62000071565b5b5f620000fd84828501620000c0565b91505092915050565b6080516155c86200011c5f395f50506155c85ff3fe608060405234801561000f575f80fd5b506004361061003f575f3560e01c80634671a8e114610043578063804c24d81461005f578063f1562f121461007b575b5f80fd5b61005d60048036038101906100589190614ca2565b610097565b005b61007960048036038101906100749190614d6a565b6107a3565b005b61009560048036038101906100909190614d6a565b610fe7565b005b825f60018111156100ab576100aa614dba565b5b5f6008015f8373ffffffffffffffffffffffffffffffffffffffff1673ffffffffffffffffffffffffffffffffffffffff1681526020019081526020015f205f01601e9054906101000a900460ff16600181111561010c5761010b614dba565b5b14610143576040517f0e27a3f700000000000000000000000000000000000000000000000000000000815260040160405180910390fd5b600260ff165f600201601c9054906101000a900460ff1660ff1603610194576040517f37ed32e800000000000000000000000000000000000000000000000000000000815260040160405180910390fd5b60025f600201601c6101000a81548160ff021916908360ff1602179055508333845f815181106101c7576101c6614de7565b5b60200260200101516101da8383836116b3565b508551855114610216576040517fea54718300000000000000000000000000000000000000000000000000000000815260040160405180910390fd5b600286511015610252576040517fb036b62c00000000000000000000000000000000000000000000000000000000815260040160405180910390fd5b5f80600d015f8973ffffffffffffffffffffffffffffffffffffffff1673ffffffffffffffffffffffffffffffffffffffff1681526020019081526020015f205f3373ffffffffffffffffffffffffffffffffffffffff1673ffffffffffffffffffffffffffffffffffffffff1681526020019081526020015f205f885f815181106102e1576102e0614de7565b5b602002602001015160ff1660ff1681526020019081526020015f209050610306614954565b88815f019073ffffffffffffffffffffffffffffffffffffffff16908173ffffffffffffffffffffffffffffffffffffffff168152505081600101600c9054906101000a900463ffffffff16816020019063ffffffff16908163ffffffff16815250505f600189516103789190614e4a565b90505b5f81111561065f575f89828151811061039757610396614de7565b5b602002602001015190505f6103b0845f015133846116b3565b90505f816001015f9054906101000a900460ff169050846020015163ffffffff1682600101600c9054906101000a900463ffffffff1663ffffffff16111561041f5781600101600c9054906101000a900463ffffffff16856020019063ffffffff16908163ffffffff16815250505b5f825f015f9054906101000a90046affffffffffffffffffffff1690505f835f01600b9054906101000a90046affffffffffffffffffffff169050818760400181815161046c9190614e7d565b9150906affffffffffffffffffffff1690816affffffffffffffffffffff168152505080876060018181516104a19190614e7d565b9150906affffffffffffffffffffff1690816affffffffffffffffffffff1681525050610509845f0160169054906101000a900469ffffffffffffffffffff1669ffffffffffffffffffff16836affffffffffffffffffffff166117eb90919063ffffffff16565b8760800181815161051a9190614ebb565b915081815250506105638460010160049054906101000a900467ffffffffffffffff1667ffffffffffffffff16826affffffffffffffffffffff166117eb90919063ffffffff16565b8760a0018181516105749190614ebb565b9150818152505050505f8260010160109054906101000a900464ffffffffff1664ffffffffff16146105f6575f8660010160109054906101000a900464ffffffffff1664ffffffffff16036105f5576040517f3087406300000000000000000000000000000000000000000000000000000000815260040160405180910390fd5b5b610604855f0151338561180b565b610648855f0151828d878151811061061f5761061e614de7565b5b60200260200101518f888151811061063a57610639614de7565b5b602002602001015133611cd7565b50505050808061065790614eee565b91505061037b565b5060028081111561067357610672614dba565b5b826001015f9054906101000a900460ff16600281111561069657610695614dba565b5b036106cd576040517f84597ef700000000000000000000000000000000000000000000000000000000815260040160405180910390fd5b6106fc81606001518260a0015183604001518460800151856020015187611f8d9095949392919063ffffffff16565b610712815f0151836121ff90919063ffffffff16565b3373ffffffffffffffffffffffffffffffffffffffff16815f015173ffffffffffffffffffffffffffffffffffffffff167f7d4b6efcc2825da50822a71402587fb2899cc673e289e6caa8f3cb25994fd8b18a6040516107729190614fcc565b60405180910390a3505050505060015f600201601c6101000a81548160ff021916908360ff16021790555050505050565b825f60018111156107b7576107b6614dba565b5b5f6008015f8373ffffffffffffffffffffffffffffffffffffffff1673ffffffffffffffffffffffffffffffffffffffff1681526020019081526020015f205f01601e9054906101000a900460ff16600181111561081857610817614dba565b5b1461084f576040517f0e27a3f700000000000000000000000000000000000000000000000000000000815260040160405180910390fd5b600260ff165f600201601c9054906101000a900460ff1660ff16036108a0576040517f37ed32e800000000000000000000000000000000000000000000000000000000815260040160405180910390fd5b60025f600201601c6101000a81548160ff021916908360ff1602179055508333846108cc8383836116b3565b505f806008015f8973ffffffffffffffffffffffffffffffffffffffff1673ffffffffffffffffffffffffffffffffffffffff1681526020019081526020015f2090505f815f01601f9054906101000a900460ff1660ff1690505f806005015f8381526020019081526020015f2090505f806007015f8481526020019081526020015f205f3373ffffffffffffffffffffffffffffffffffffffff1673ffffffffffffffffffffffffffffffffffffffff1681526020019081526020015f209050886affffffffffffffffffffff16815f015f9054906101000a90046affffffffffffffffffffff166affffffffffffffffffffff1610156109fa576040517f7d243a2c00000000000000000000000000000000000000000000000000000000815260040160405180910390fd5b5f80600d015f8d73ffffffffffffffffffffffffffffffffffffffff1673ffffffffffffffffffffffffffffffffffffffff1681526020019081526020015f205f3373ffffffffffffffffffffffffffffffffffffffff1673ffffffffffffffffffffffffffffffffffffffff1681526020019081526020015f205f8c60ff1660ff1681526020019081526020015f209050610a9f8c826121ff90919063ffffffff16565b5f610afe825f0160169054906101000a900469ffffffffffffffffffff1669ffffffffffffffffffff16835f015f9054906101000a90046affffffffffffffffffffff166affffffffffffffffffffff166117eb90919063ffffffff16565b90508a825f015f8282829054906101000a90046affffffffffffffffffffff16610b289190614e7d565b92506101000a8154816affffffffffffffffffffff02191690836affffffffffffffffffffff1602179055505f610d308e84604051806101400160405290815f82015f9054906101000a90046affffffffffffffffffffff166affffffffffffffffffffff166affffffffffffffffffffff1681526020015f8201600b9054906101000a90046affffffffffffffffffffff166affffffffffffffffffffff166affffffffffffffffffffff1681526020015f820160169054906101000a900469ffffffffffffffffffff1669ffffffffffffffffffff1669ffffffffffffffffffff168152602001600182015f9054906101000a900460ff166002811115610c3457610c33614dba565b5b6002811115610c4657610c45614dba565b5b81526020016001820160019054906101000a900460ff1660ff1660ff1681526020016001820160029054906101000a900460ff1660ff1660ff1681526020016001820160039054906101000a900460ff1660ff1660ff1681526020016001820160049054906101000a900467ffffffffffffffff1667ffffffffffffffff1667ffffffffffffffff16815260200160018201600c9054906101000a900463ffffffff1663ffffffff1663ffffffff1681526020016001820160109054906101000a900464ffffffffff1664ffffffffff1664ffffffffff168152505061236b90919063ffffffff16565b905067d02ab486cedc00008110610d73576040517fb985764600000000000000000000000000000000000000000000000000000000815260040160405180910390fd5b610d7b6123c2565b83600101600c6101000a81548163ffffffff021916908363ffffffff160217905550610de2855f0160169054906101000a900469ffffffffffffffffffff1669ffffffffffffffffffff168d6affffffffffffffffffffff166117eb90919063ffffffff16565b82610ded9190614ebb565b9150610e28835f015f9054906101000a90046affffffffffffffffffffff166affffffffffffffffffffff16836123d890919063ffffffff16565b835f0160166101000a81548169ffffffffffffffffffff021916908369ffffffffffffffffffff1602179055508b845f015f8282829054906101000a90046affffffffffffffffffffff16610e7d9190614fec565b92506101000a8154816affffffffffffffffffffff02191690836affffffffffffffffffffff1602179055508b855f015f8282829054906101000a90046affffffffffffffffffffff16610ed19190614e7d565b92506101000a8154816affffffffffffffffffffff02191690836affffffffffffffffffffff1602179055508b875f01600d8282829054906101000a90046affffffffffffffffffffff16610f269190614e7d565b92506101000a8154816affffffffffffffffffffff02191690836affffffffffffffffffffff1602179055503373ffffffffffffffffffffffffffffffffffffffff168e73ffffffffffffffffffffffffffffffffffffffff167f13a9fcfbd071fe67eb7abae9bf41ff027bb388ae4ce8b8e5c0989b77d8957ccd8f8f604051610fb1929190615072565b60405180910390a35050505050505050505060015f600201601c6101000a81548160ff021916908360ff16021790555050505050565b825f6001811115610ffb57610ffa614dba565b5b5f6008015f8373ffffffffffffffffffffffffffffffffffffffff1673ffffffffffffffffffffffffffffffffffffffff1681526020019081526020015f205f01601e9054906101000a900460ff16600181111561105c5761105b614dba565b5b14611093576040517f0e27a3f700000000000000000000000000000000000000000000000000000000815260040160405180910390fd5b600260ff165f600201601c9054906101000a900460ff1660ff16036110e4576040517f37ed32e800000000000000000000000000000000000000000000000000000000815260040160405180910390fd5b60025f600201601c6101000a81548160ff021916908360ff1602179055508333846111108383836116b3565b505f80600d015f8973ffffffffffffffffffffffffffffffffffffffff1673ffffffffffffffffffffffffffffffffffffffff1681526020019081526020015f205f3373ffffffffffffffffffffffffffffffffffffffff1673ffffffffffffffffffffffffffffffffffffffff1681526020019081526020015f205f8860ff1660ff1681526020019081526020015f2090506111b688826121ff90919063ffffffff16565b805f015f9054906101000a90046affffffffffffffffffffff166affffffffffffffffffffff16866affffffffffffffffffffff161115611223576040517f3a23d82500000000000000000000000000000000000000000000000000000000815260040160405180910390fd5b85815f015f8282829054906101000a90046affffffffffffffffffffff1661124b9190614fec565b92506101000a8154816affffffffffffffffffffff02191690836affffffffffffffffffffff1602179055505f6112818961243f565b90505f61145f8284604051806101400160405290815f82015f9054906101000a90046affffffffffffffffffffff166affffffffffffffffffffff166affffffffffffffffffffff1681526020015f8201600b9054906101000a90046affffffffffffffffffffff166affffffffffffffffffffff166affffffffffffffffffffff1681526020015f820160169054906101000a900469ffffffffffffffffffff1669ffffffffffffffffffff1669ffffffffffffffffffff168152602001600182015f9054906101000a900460ff16600281111561136357611362614dba565b5b600281111561137557611374614dba565b5b81526020016001820160019054906101000a900460ff1660ff1660ff1681526020016001820160029054906101000a900460ff1660ff1660ff1681526020016001820160039054906101000a900460ff1660ff1660ff1681526020016001820160049054906101000a900467ffffffffffffffff1667ffffffffffffffff1667ffffffffffffffff16815260200160018201600c9054906101000a900463ffffffff1663ffffffff1663ffffffff1681526020016001820160109054906101000a900464ffffffffff1664ffffffffff1664ffffffffff168152505061249790919063ffffffff16565b905061146a8a6124e6565b8110156114a3576040517f5a26389900000000000000000000000000000000000000000000000000000000815260040160405180910390fd5b6114ae8a828461256d565b156114e5576040517ffe983b6700000000000000000000000000000000000000000000000000000000815260040160405180910390fd5b5f806008015f8c73ffffffffffffffffffffffffffffffffffffffff1673ffffffffffffffffffffffffffffffffffffffff1681526020019081526020015f205f01601f9054906101000a900460ff1660ff169050885f6007015f8381526020019081526020015f205f3373ffffffffffffffffffffffffffffffffffffffff1673ffffffffffffffffffffffffffffffffffffffff1681526020019081526020015f205f015f8282829054906101000a90046affffffffffffffffffffff166115af9190614e7d565b92506101000a8154816affffffffffffffffffffff02191690836affffffffffffffffffffff1602179055506116218b338b875f0160169054906101000a900469ffffffffffffffffffff1669ffffffffffffffffffff1688600101600c9054906101000a900463ffffffff1661269d565b3373ffffffffffffffffffffffffffffffffffffffff168b73ffffffffffffffffffffffffffffffffffffffff167fd343aa6a6f5898e16702b965b53eb62aad7a2a7cf148a28ee5c9f0710090da078c8c604051611680929190615072565b60405180910390a35050505050505060015f600201601c6101000a81548160ff021916908360ff16021790555050505050565b5f80600d015f8573ffffffffffffffffffffffffffffffffffffffff1673ffffffffffffffffffffffffffffffffffffffff1681526020019081526020015f205f8473ffffffffffffffffffffffffffffffffffffffff1673ffffffffffffffffffffffffffffffffffffffff1681526020019081526020015f205f8360ff1660ff1681526020019081526020015f20905060028081111561175857611757614dba565b5b816001015f9054906101000a900460ff16600281111561177b5761177a614dba565b5b14806117ad57505f815f01600b9054906101000a90046affffffffffffffffffffff166affffffffffffffffffffff16145b156117e4576040517fff472cb600000000000000000000000000000000000000000000000000000000815260040160405180910390fd5b9392505050565b5f611803836affffffffffffffffffffff16836129a3565b905092915050565b5f611814612a88565b90505f81600d015f8673ffffffffffffffffffffffffffffffffffffffff1673ffffffffffffffffffffffffffffffffffffffff1681526020019081526020015f205f8573ffffffffffffffffffffffffffffffffffffffff1673ffffffffffffffffffffffffffffffffffffffff1681526020019081526020015f205f8460ff1660ff1681526020019081526020015f2090505f60028111156118bb576118ba614dba565b5b816001015f9054906101000a900460ff1660028111156118de576118dd614dba565b5b14611ca4578060010160039054906101000a900460ff1682600d015f8773ffffffffffffffffffffffffffffffffffffffff1673ffffffffffffffffffffffffffffffffffffffff1681526020019081526020015f205f8673ffffffffffffffffffffffffffffffffffffffff1673ffffffffffffffffffffffffffffffffffffffff1681526020019081526020015f205f8360010160019054906101000a900460ff1660ff1660ff1681526020019081526020015f2060010160036101000a81548160ff021916908360ff160217905550600160ff168160010160039054906101000a900460ff1660ff1614611a9d578060010160019054906101000a900460ff1682600d015f8773ffffffffffffffffffffffffffffffffffffffff1673ffffffffffffffffffffffffffffffffffffffff1681526020019081526020015f205f8673ffffffffffffffffffffffffffffffffffffffff1673ffffffffffffffffffffffffffffffffffffffff1681526020019081526020015f205f8360010160039054906101000a900460ff1660ff1660ff1681526020019081526020015f2060010160016101000a81548160ff021916908360ff1602179055505b5f82600d015f8773ffffffffffffffffffffffffffffffffffffffff1673ffffffffffffffffffffffffffffffffffffffff1681526020019081526020015f205f8673ffffffffffffffffffffffffffffffffffffffff1673ffffffffffffffffffffffffffffffffffffffff1681526020019081526020015f205f600160ff1660ff1681526020019081526020015f2060010160019054906101000a900460ff1690508383600d015f8873ffffffffffffffffffffffffffffffffffffffff1673ffffffffffffffffffffffffffffffffffffffff1681526020019081526020015f205f8773ffffffffffffffffffffffffffffffffffffffff1673ffffffffffffffffffffffffffffffffffffffff1681526020019081526020015f205f600160ff1660ff1681526020019081526020015f2060010160016101000a81548160ff021916908360ff160217905550600160ff168160ff161115611c1e57808260010160016101000a81548160ff021916908360ff160217905550611c3d565b60018260010160016101000a81548160ff021916908360ff1602179055505b8473ffffffffffffffffffffffffffffffffffffffff168673ffffffffffffffffffffffffffffffffffffffff167f308fabf328a16a122870d17bc942c7d1030c9f3f3eb3bd0d0139bbc75e705a3586604051611c9a91906150c9565b60405180910390a3505b6002816001015f6101000a81548160ff02191690836002811115611ccb57611cca614dba565b5b02179055505050505050565b5f80611ce1612a88565b90505f6002811115611cf657611cf5614dba565b5b866002811115611d0957611d08614dba565b5b03611f82575f81600c015f8973ffffffffffffffffffffffffffffffffffffffff1673ffffffffffffffffffffffffffffffffffffffff1681526020019081526020015f205f8761ffff1661ffff1681526020019081526020015f2090505f82600d015f8a73ffffffffffffffffffffffffffffffffffffffff1673ffffffffffffffffffffffffffffffffffffffff1681526020019081526020015f205f8673ffffffffffffffffffffffffffffffffffffffff1673ffffffffffffffffffffffffffffffffffffffff1681526020019081526020015f205f8760ff1660ff1681526020019081526020015f2090508560ff168260010160179054906101000a900460ff1660ff16141580611e6e57508473ffffffffffffffffffffffffffffffffffffffff16826001015f9054906101000a900473ffffffffffffffffffffffffffffffffffffffff1673ffffffffffffffffffffffffffffffffffffffff1614155b15611ea5576040517f67b262cb00000000000000000000000000000000000000000000000000000000815260040160405180910390fd5b3373ffffffffffffffffffffffffffffffffffffffff168573ffffffffffffffffffffffffffffffffffffffff1603611f3257611ee28988612a8c565b5f6002811115611ef557611ef4614dba565b5b816001015f9054906101000a900460ff166002811115611f1857611f17614dba565b5b03611f2657611f256150e2565b5b60019350505050611f84565b611f3b8961330d565b815f01600b9054906101000a90046affffffffffffffffffffff166affffffffffffffffffffff161015611f7f57611f738988612a8c565b60019350505050611f84565b50505b505b95945050505050565b611fe98660010160049054906101000a900467ffffffffffffffff1667ffffffffffffffff16875f01600b9054906101000a90046affffffffffffffffffffff166affffffffffffffffffffff166117eb90919063ffffffff16565b84611ff49190614ebb565b935084865f01600b8282829054906101000a90046affffffffffffffffffffff1661201f9190614e7d565b92506101000a8154816affffffffffffffffffffff02191690836affffffffffffffffffffff160217905550612085865f01600b9054906101000a90046affffffffffffffffffffff166affffffffffffffffffffff168561338990919063ffffffff16565b8660010160046101000a81548167ffffffffffffffff021916908367ffffffffffffffff16021790555061210d865f0160169054906101000a900469ffffffffffffffffffff1669ffffffffffffffffffff16875f015f9054906101000a90046affffffffffffffffffffff166affffffffffffffffffffff166117eb90919063ffffffff16565b826121189190614ebb565b915082865f015f8282829054906101000a90046affffffffffffffffffffff166121429190614e7d565b92506101000a8154816affffffffffffffffffffff02191690836affffffffffffffffffffff1602179055506121a7865f015f9054906101000a90046affffffffffffffffffffff166affffffffffffffffffffff16836123d890919063ffffffff16565b865f0160166101000a81548169ffffffffffffffffffff021916908369ffffffffffffffffffff1602179055508086600101600c6101000a81548163ffffffff021916908363ffffffff160217905550505050505050565b5f612208612a88565b90505f816008015f8473ffffffffffffffffffffffffffffffffffffffff1673ffffffffffffffffffffffffffffffffffffffff1681526020019081526020015f2060010160099054906101000a900467ffffffffffffffff1690505f6122cc8560010160049054906101000a900467ffffffffffffffff168361228c9190615122565b67ffffffffffffffff16865f01600b9054906101000a90046affffffffffffffffffffff166affffffffffffffffffffff166133ee90919063ffffffff16565b90505f816affffffffffffffffffffff1611156123645780855f01600b8282829054906101000a90046affffffffffffffffffffff1661230c9190614e7d565b92506101000a8154816affffffffffffffffffffff02191690836affffffffffffffffffffff160217905550818560010160046101000a81548167ffffffffffffffff021916908367ffffffffffffffff1602179055505b5050505050565b5f6123ba61239b61237b8461243f565b85602001516affffffffffffffffffffff166117eb90919063ffffffff16565b845f01516affffffffffffffffffffff1661345a90919063ffffffff16565b905092915050565b5f6362f6fc65426123d39190614e4a565b905090565b5f806123ed84670de0b6b3a764000085613483565b905069ffffffffffffffffffff8016811115612435576040517f2c5211c600000000000000000000000000000000000000000000000000000000815260040160405180910390fd5b8091505092915050565b5f61038461244c83613595565b6124546123c2565b63ffffffff166124649190614e4a565b10156124865761247382613618565b69ffffffffffffffffffff169050612492565b61248f8261369b565b90505b919050565b5f6124de6124bf8385602001516affffffffffffffffffffff166117eb90919063ffffffff16565b845f01516affffffffffffffffffffff1661345a90919063ffffffff16565b905092915050565b5f806124f0612a88565b90506064670de0b6b3a7640000826008015f8673ffffffffffffffffffffffffffffffffffffffff1673ffffffffffffffffffffffffffffffffffffffff1681526020019081526020015f205f01601c9054906101000a900461ffff1661ffff1661255b919061515d565b61256591906151cb565b915050919050565b5f80612577612a88565b90505f61258386613aa5565b905080851015612693575f826008015f8873ffffffffffffffffffffffffffffffffffffffff1673ffffffffffffffffffffffffffffffffffffffff1681526020019081526020015f2090505f815f015f9054906101000a90046cffffffffffffffffffffffffff166cffffffffffffffffffffffffff161115612691575f612678612642835f015f9054906101000a90046cffffffffffffffffffffffffff166cffffffffffffffffffffffffff1688613b2b90919063ffffffff16565b835f01600d9054906101000a90046affffffffffffffffffffff166affffffffffffffffffffff1661345a90919063ffffffff16565b90508281101561268f576001945050505050612696565b505b505b50505b9392505050565b5f6126a6612a88565b90505f816008015f8873ffffffffffffffffffffffffffffffffffffffff1673ffffffffffffffffffffffffffffffffffffffff1681526020019081526020015f2090505f815f01601f9054906101000a900460ff1660ff1690505f836005015f8381526020019081526020015f20905086815f015f8282829054906101000a90046affffffffffffffffffffff1661273f9190614fec565b92506101000a8154816affffffffffffffffffffff02191690836affffffffffffffffffffff16021790555086835f01600d8282829054906101000a90046affffffffffffffffffffff166127949190614fec565b92506101000a8154816affffffffffffffffffffff02191690836affffffffffffffffffffff1602179055505f61281187835f0160169054906101000a900469ffffffffffffffffffff1669ffffffffffffffffffff166127f59190614e4a565b896affffffffffffffffffffff166133ee90919063ffffffff16565b90505f816affffffffffffffffffffff161115612997575f603c876128346123c2565b61283e919061520a565b63ffffffff1611905080156128f35781866007015f8681526020019081526020015f205f8c73ffffffffffffffffffffffffffffffffffffffff1673ffffffffffffffffffffffffffffffffffffffff1681526020019081526020015f205f015f8282829054906101000a90046affffffffffffffffffffff166128c29190614e7d565b92506101000a8154816affffffffffffffffffffff02191690836affffffffffffffffffffff160217905550612995565b81866007015f8681526020019081526020015f205f3073ffffffffffffffffffffffffffffffffffffffff1673ffffffffffffffffffffffffffffffffffffffff1681526020019081526020015f205f015f8282829054906101000a90046affffffffffffffffffffff166129689190614e7d565b92506101000a8154816affffffffffffffffffffff02191690836affffffffffffffffffffff1602179055505b505b50505050505050505050565b5f805f80198486098486029250828110838203039150505f81036129e357670de0b6b3a764000082816129d9576129d861519e565b5b0492505050612a82565b670de0b6b3a76400008110612a315784846040517f5173648d000000000000000000000000000000000000000000000000000000008152600401612a28929190615250565b60405180910390fd5b5f670de0b6b3a764000085870990507faccb18165bd6fe31ae1cf318dc5b51eee0e1ba569b88cd74c1773b91fac10669600162040000805f0304018483118403026204000083860304170293505050505b92915050565b5f90565b5f612a95612a88565b90505f81600c015f8573ffffffffffffffffffffffffffffffffffffffff1673ffffffffffffffffffffffffffffffffffffffff1681526020019081526020015f205f8461ffff1661ffff1681526020019081526020015f2090505f815f01601b9054906101000a900460ff16905060066007811115612b1857612b17614dba565b5b816007811115612b2b57612b2a614dba565b5b1480612b5a5750600780811115612b4557612b44614dba565b5b816007811115612b5857612b57614dba565b5b145b15612b91576040517f03f7cd9200000000000000000000000000000000000000000000000000000000815260040160405180910390fd5b5f612c29612bb08460010160159054906101000a900461ffff16613b3e565b612c0e855f01600b9054906101000a900469ffffffffffffffffffff1669ffffffffffffffffffff16865f015f9054906101000a90046affffffffffffffffffffff166affffffffffffffffffffff166133ee90919063ffffffff16565b6affffffffffffffffffffff166133ee90919063ffffffff16565b90505f846008015f8873ffffffffffffffffffffffffffffffffffffffff1673ffffffffffffffffffffffffffffffffffffffff1681526020019081526020015f2090505f815f01601f9054906101000a900460ff1660ff1690505f8560010160179054906101000a900460ff1690505f866001015f9054906101000a900473ffffffffffffffffffffffffffffffffffffffff1690505f88600d015f8c73ffffffffffffffffffffffffffffffffffffffff1673ffffffffffffffffffffffffffffffffffffffff1681526020019081526020015f205f8373ffffffffffffffffffffffffffffffffffffffff1673ffffffffffffffffffffffffffffffffffffffff1681526020019081526020015f205f8460ff1660ff1681526020019081526020015f209050600280811115612d6557612d64614dba565b5b816001015f9054906101000a900460ff166002811115612d8857612d87614dba565b5b03612d9d57612d988b838561180b565b61311c565b5f612da78c61330d565b9050806affffffffffffffffffffff16825f01600b9054906101000a90046affffffffffffffffffffff166affffffffffffffffffffff1610156130ed575f825f01600b9054906101000a90046affffffffffffffffffffff1682612e0c9190614fec565b90505f8b6005015f8881526020019081526020015f2090505f612ea3612e438d60010160159054906101000a900461ffff16613b3e565b612e88856affffffffffffffffffffff168f5f01600b9054906101000a900469ffffffffffffffffffff1669ffffffffffffffffffff16613b6a90919063ffffffff16565b6affffffffffffffffffffff166133ee90919063ffffffff16565b9050612ee78f8789600185888f60010160099054906101000a900467ffffffffffffffff16895f0160169054906101000a900469ffffffffffffffffffff16613bd3565b80825f015f8282829054906101000a90046affffffffffffffffffffff16612f0f9190614e7d565b92506101000a8154816affffffffffffffffffffff02191690836affffffffffffffffffffff16021790555080895f01600d8282829054906101000a90046affffffffffffffffffffff16612f649190614e7d565b92506101000a8154816affffffffffffffffffffff02191690836affffffffffffffffffffff160217905550826affffffffffffffffffffff16895f015f8282829054906101000a90046cffffffffffffffffffffffffff16612fc7919061528f565b92506101000a8154816cffffffffffffffffffffffffff02191690836cffffffffffffffffffffffffff160217905550808a6130039190614fec565b99505050806affffffffffffffffffffff168b6009015f8f73ffffffffffffffffffffffffffffffffffffffff1673ffffffffffffffffffffffffffffffffffffffff1681526020019081526020015f205f8673ffffffffffffffffffffffffffffffffffffffff1673ffffffffffffffffffffffffffffffffffffffff1681526020019081526020015f205f015f8282829054906101000a90046cffffffffffffffffffffffffff166130b7919061528f565b92506101000a8154816cffffffffffffffffffffffffff02191690836cffffffffffffffffffffffffff1602179055505061311a565b6001826001015f6101000a81548160ff0219169083600281111561311457613113614dba565b5b02179055505b505b85896007015f8681526020019081526020015f205f8473ffffffffffffffffffffffffffffffffffffffff1673ffffffffffffffffffffffffffffffffffffffff1681526020019081526020015f205f015f8282829054906101000a90046affffffffffffffffffffff166131919190614e7d565b92506101000a8154816affffffffffffffffffffff02191690836affffffffffffffffffffff160217905550845f0160189054906101000a900461ffff1661ffff168a61ffff16036132f2575f6131e78c613618565b69ffffffffffffffffffff1690505f8a600c015f8e73ffffffffffffffffffffffffffffffffffffffff1673ffffffffffffffffffffffffffffffffffffffff1681526020019081526020015f205f8b5f0160159054906101000a900461ffff1661ffff1661ffff1681526020019081526020015f205f01600b9054906101000a900469ffffffffffffffffffff1669ffffffffffffffffffff1690508181106132bf57895f0160159054906101000a900461ffff16875f0160186101000a81548161ffff021916908361ffff1602179055506132ef565b895f0160199054906101000a900461ffff16875f0160186101000a81548161ffff021916908361ffff1602179055505b50505b61330089600c018c8c613e3d565b5050505050505050505050565b5f80613317612a88565b9050670de0b6b3a7640000816008015f8573ffffffffffffffffffffffffffffffffffffffff1673ffffffffffffffffffffffffffffffffffffffff1681526020019081526020015f2060010160029054906101000a900461ffff1661ffff16613381919061515d565b915050919050565b5f8061339e84670de0b6b3a764000085613483565b905067ffffffffffffffff80168111156133e4576040517f2c5211c600000000000000000000000000000000000000000000000000000000815260040160405180910390fd5b8091505092915050565b5f80613407846affffffffffffffffffffff16846129a3565b90506affffffffffffffffffffff8016811115613450576040517f2c5211c600000000000000000000000000000000000000000000000000000000815260040160405180910390fd5b8091505092915050565b5f61347b836affffffffffffffffffffff16670de0b6b3a764000084613483565b905092915050565b5f805f80198587098587029250828110838203039150505f81036134bb578382816134b1576134b061519e565b5b049250505061358e565b838110613503578585856040517f63a057780000000000000000000000000000000000000000000000000000000081526004016134fa939291906152cf565b60405180910390fd5b5f8486880990508281118203915080830392505f6001861901861690505f81870496508185049450600182835f0304019050808402851794505f60028860030218905080880260020381029050808802600203810290508088026002038102905080880260020381029050808802600203810290508088026002038102905080860296505050505050505b9392505050565b5f8061359f612a88565b905080600a015f8473ffffffffffffffffffffffffffffffffffffffff1673ffffffffffffffffffffffffffffffffffffffff1681526020019081526020015f205f600160ff1661ffff1681526020019081526020015f205f01601c9054906101000a900463ffffffff1663ffffffff16915050919050565b5f80613622612a88565b905080600a015f8473ffffffffffffffffffffffffffffffffffffffff1673ffffffffffffffffffffffffffffffffffffffff1681526020019081526020015f205f600160ff1661ffff1681526020019081526020015f205f015f9054906101000a90046affffffffffffffffffffff16915050919050565b5f806136a5612a88565b90505f816002015f9054906101000a900473ffffffffffffffffffffffffffffffffffffffff1690505f6136d885613618565b69ffffffffffffffffffff1690505f836008015f8773ffffffffffffffffffffffffffffffffffffffff1673ffffffffffffffffffffffffffffffffffffffff1681526020019081526020015f206002015f9054906101000a900473ffffffffffffffffffffffffffffffffffffffff1690505f73ffffffffffffffffffffffffffffffffffffffff168173ffffffffffffffffffffffffffffffffffffffff16036137b0576040517fc891add200000000000000000000000000000000000000000000000000000000815260040160405180910390fd5b8273ffffffffffffffffffffffffffffffffffffffff1663feaf968c6040518163ffffffff1660e01b815260040160a060405180830381865afa92505050801561381857506040513d601f19601f8201168201806040525081019061381591906153a0565b60015b613975578273ffffffffffffffffffffffffffffffffffffffff168173ffffffffffffffffffffffffffffffffffffffff1603613862576138576141e7565b945050505050613aa0565b5f805f8373ffffffffffffffffffffffffffffffffffffffff1663feaf968c6040518163ffffffff1660e01b815260040160a060405180830381865afa1580156138ae573d5f803e3d5ffd5b505050506040513d601f19601f820116820180604052508101906138d291906153a0565b50935050925092505f8369ffffffffffffffffffff1614806138f357505f82145b806138fd57504281115b15613933576040517ebfc92100000000000000000000000000000000000000000000000000000000815260040160405180910390fd5b5f61393c6141e7565b90505f613962826402540be400866139549190615417565b613b2b90919063ffffffff16565b9050809950505050505050505050613aa0565b8773ffffffffffffffffffffffffffffffffffffffff168673ffffffffffffffffffffffffffffffffffffffff16036139f3575f8085136139b6575f6139d0565b6139cf6402540be400866139ca9190615417565b6143c9565b5b90506139df88878786856143f1565b9050809a5050505050505050505050613aa0565b5f805f8873ffffffffffffffffffffffffffffffffffffffff1663feaf968c6040518163ffffffff1660e01b815260040160a060405180830381865afa158015613a3f573d5f803e3d5ffd5b505050506040513d601f19601f82011682018060405250810190613a6391906153a0565b50935050925092505f613a7f88846146a590919063ffffffff16565b9050613a8f848a858b868b6146c1565b809d50505050505050505050505050505b919050565b5f80613aaf612a88565b90506064670de0b6b3a7640000826008015f8673ffffffffffffffffffffffffffffffffffffffff1673ffffffffffffffffffffffffffffffffffffffff1681526020019081526020015f2060010160139054906101000a900460ff1660ff16613b19919061515d565b613b2391906151cb565b915050919050565b5f613b3683836129a3565b905092915050565b5f6064670de0b6b3a76400008361ffff16613b59919061515d565b613b6391906151cb565b9050919050565b5f80613b828469ffffffffffffffffffff16846129a3565b905069ffffffffffffffffffff8016811115613bc9576040517ebfc92100000000000000000000000000000000000000000000000000000000815260040160405180910390fd5b8091505092915050565b5f613bdc612a88565b90505f81600d015f8b73ffffffffffffffffffffffffffffffffffffffff1673ffffffffffffffffffffffffffffffffffffffff1681526020019081526020015f205f8a73ffffffffffffffffffffffffffffffffffffffff1673ffffffffffffffffffffffffffffffffffffffff1681526020019081526020015f205f8960ff1660ff1681526020019081526020015f209050600280811115613c8357613c82614dba565b5b816001015f9054906101000a900460ff166002811115613ca657613ca5614dba565b5b03613d925784815f01600b6101000a8154816affffffffffffffffffffff02191690836affffffffffffffffffffff160217905550838160010160046101000a81548167ffffffffffffffff021916908367ffffffffffffffff16021790555085815f015f6101000a8154816affffffffffffffffffffff02191690836affffffffffffffffffffff16021790555082815f0160166101000a81548169ffffffffffffffffffff021916908369ffffffffffffffffffff160217905550613d6b6123c2565b81600101600c6101000a81548163ffffffff021916908363ffffffff160217905550613e06565b5f613dbd8567ffffffffffffffff16876affffffffffffffffffffff166117eb90919063ffffffff16565b90505f613dec8569ffffffffffffffffffff16896affffffffffffffffffffff166117eb90919063ffffffff16565b9050613e038388848b85613dfe6123c2565b611f8d565b50505b86816001015f6101000a81548160ff02191690836002811115613e2c57613e2b614dba565b5b021790555050505050505050505050565b5f835f8473ffffffffffffffffffffffffffffffffffffffff1673ffffffffffffffffffffffffffffffffffffffff1681526020019081526020015f205f600160ff1661ffff1681526020019081526020015f205f0160159054906101000a900461ffff169050835f8473ffffffffffffffffffffffffffffffffffffffff1673ffffffffffffffffffffffffffffffffffffffff1681526020019081526020015f205f8361ffff1661ffff1681526020019081526020015f205f0160159054906101000a900461ffff16845f8573ffffffffffffffffffffffffffffffffffffffff1673ffffffffffffffffffffffffffffffffffffffff1681526020019081526020015f205f865f8773ffffffffffffffffffffffffffffffffffffffff1673ffffffffffffffffffffffffffffffffffffffff1681526020019081526020015f205f8661ffff1661ffff1681526020019081526020015f205f0160199054906101000a900461ffff1661ffff1661ffff1681526020019081526020015f205f0160156101000a81548161ffff021916908361ffff160217905550835f8473ffffffffffffffffffffffffffffffffffffffff1673ffffffffffffffffffffffffffffffffffffffff1681526020019081526020015f205f8361ffff1661ffff1681526020019081526020015f205f0160199054906101000a900461ffff16845f8573ffffffffffffffffffffffffffffffffffffffff1673ffffffffffffffffffffffffffffffffffffffff1681526020019081526020015f205f865f8773ffffffffffffffffffffffffffffffffffffffff1673ffffffffffffffffffffffffffffffffffffffff1681526020019081526020015f205f8661ffff1661ffff1681526020019081526020015f205f0160159054906101000a900461ffff1661ffff1661ffff1681526020019081526020015f205f0160196101000a81548161ffff021916908361ffff160217905550835f8473ffffffffffffffffffffffffffffffffffffffff1673ffffffffffffffffffffffffffffffffffffffff1681526020019081526020015f205f8361ffff1661ffff1681526020019081526020015f205f01601b9054906101000a900460ff16600781111561418557614184614dba565b5b8373ffffffffffffffffffffffffffffffffffffffff167f2097d5c49cf7ba09a2520b6b807629746c2527783ac92cac69d88e846c7f33f5846040516141cb919061549c565b60405180910390a36141e1848484846006614767565b50505050565b5f803073ffffffffffffffffffffffffffffffffffffffff16630b545214670de0b6b3a76400006107086040518363ffffffff1660e01b815260040161422e929190615518565b602060405180830381865afa158015614249573d5f803e3d5ffd5b505050506040513d601f19601f8201168201806040525081019061426d919061553f565b90505f81036142a8576040517fca91730a00000000000000000000000000000000000000000000000000000000815260040160405180910390fd5b5f73c02aaa39b223fe8d0a0e5c4f27ead9083c756cc290505f8173ffffffffffffffffffffffffffffffffffffffff166370a082317388e6a0c2ddd26feeb64f039a2c41296fcb3f56406040518263ffffffff1660e01b815260040161430e9190615579565b602060405180830381865afa158015614329573d5f803e3d5ffd5b505050506040513d601f19601f8201168201806040525081019061434d919061553f565b905068056bc75e2d63100000811015614392576040517f05f4eec200000000000000000000000000000000000000000000000000000000815260040160405180910390fd5b5f620f4240670de0b6b3a76400006143aa91906151cb565b846143b5919061515d565b90506143c0816143c9565b94505050505090565b5f816ec097ce7bc90715b34b9f1000000000816143e9576143e861519e565b5b049050919050565b5f805f8669ffffffffffffffffffff16148061440c57505f84145b8061441657504284115b8061442157505f8513155b80614438575083611c206144359190614ebb565b42115b90505f87841161445357838861444e9190614e4a565b614460565b878461445f9190614e4a565b5b90505f808911801561448b57506706f05b59d3b200006144898a846146a590919063ffffffff16565b115b905082156144a55761449b6141e7565b935050505061469c565b8015614695573073ffffffffffffffffffffffffffffffffffffffff16630b545214670de0b6b3a76400006107086040518363ffffffff1660e01b81526004016144f0929190615518565b602060405180830381865afa92505050801561452a57506040513d601f19601f82011682018060405250810190614527919061553f565b60015b6145395784935050505061469c565b5f810361454c578594505050505061469c565b5f620f4240670de0b6b3a764000061456491906151cb565b8261456f919061515d565b90505f61457b826143c9565b90505f8c821161459657818d6145919190614e4a565b6145a3565b8c826145a29190614e4a565b5b90508086116145bb578897505050505050505061469c565b5f73c02aaa39b223fe8d0a0e5c4f27ead9083c756cc290505f8173ffffffffffffffffffffffffffffffffffffffff166370a082317388e6a0c2ddd26feeb64f039a2c41296fcb3f56406040518263ffffffff1660e01b81526004016146219190615579565b602060405180830381865afa15801561463c573d5f803e3d5ffd5b505050506040513d601f19601f82011682018060405250810190614660919061553f565b905068056bc75e2d63100000811015614684578a995050505050505050505061469c565b83995050505050505050505061469c565b8493505050505b95945050505050565b5f6146b983670de0b6b3a764000084613483565b905092915050565b5f808769ffffffffffffffffffff1614806146db57505f83145b806146e557504283115b806146f057505f8513155b8061470657505f8669ffffffffffffffffffff16145b8061471057505f82145b8061471a57504282115b8061472557505f8413155b9050801561475e576040517ebfc92100000000000000000000000000000000000000000000000000000000815260040160405180910390fd5b50505050505050565b80855f8673ffffffffffffffffffffffffffffffffffffffff1673ffffffffffffffffffffffffffffffffffffffff1681526020019081526020015f205f8561ffff1661ffff1681526020019081526020015f205f01601b6101000a81548160ff021916908360078111156147df576147de614dba565b5b021790555082855f8673ffffffffffffffffffffffffffffffffffffffff1673ffffffffffffffffffffffffffffffffffffffff1681526020019081526020015f205f600160ff1661ffff1681526020019081526020015f205f0160156101000a81548161ffff021916908361ffff160217905550600160ff168261ffff16146148d85781855f8673ffffffffffffffffffffffffffffffffffffffff1673ffffffffffffffffffffffffffffffffffffffff1681526020019081526020015f205f8561ffff1661ffff1681526020019081526020015f205f0160156101000a81548161ffff021916908361ffff16021790555061494d565b600160ff16855f8673ffffffffffffffffffffffffffffffffffffffff1673ffffffffffffffffffffffffffffffffffffffff1681526020019081526020015f205f8561ffff1661ffff1681526020019081526020015f205f0160156101000a81548161ffff021916908361ffff1602179055505b5050505050565b6040518060c001604052805f73ffffffffffffffffffffffffffffffffffffffff1681526020015f63ffffffff1681526020015f6affffffffffffffffffffff1681526020015f6affffffffffffffffffffff1681526020015f81526020015f81525090565b5f604051905090565b5f80fd5b5f80fd5b5f73ffffffffffffffffffffffffffffffffffffffff82169050919050565b5f6149f4826149cb565b9050919050565b614a04816149ea565b8114614a0e575f80fd5b50565b5f81359050614a1f816149fb565b92915050565b5f80fd5b5f601f19601f8301169050919050565b7f4e487b71000000000000000000000000000000000000000000000000000000005f52604160045260245ffd5b614a6f82614a29565b810181811067ffffffffffffffff82111715614a8e57614a8d614a39565b5b80604052505050565b5f614aa06149ba565b9050614aac8282614a66565b919050565b5f67ffffffffffffffff821115614acb57614aca614a39565b5b602082029050602081019050919050565b5f80fd5b5f60ff82169050919050565b614af581614ae0565b8114614aff575f80fd5b50565b5f81359050614b1081614aec565b92915050565b5f614b28614b2384614ab1565b614a97565b90508083825260208201905060208402830185811115614b4b57614b4a614adc565b5b835b81811015614b745780614b608882614b02565b845260208401935050602081019050614b4d565b5050509392505050565b5f82601f830112614b9257614b91614a25565b5b8135614ba2848260208601614b16565b91505092915050565b5f67ffffffffffffffff821115614bc557614bc4614a39565b5b602082029050602081019050919050565b5f61ffff82169050919050565b614bec81614bd6565b8114614bf6575f80fd5b50565b5f81359050614c0781614be3565b92915050565b5f614c1f614c1a84614bab565b614a97565b90508083825260208201905060208402830185811115614c4257614c41614adc565b5b835b81811015614c6b5780614c578882614bf9565b845260208401935050602081019050614c44565b5050509392505050565b5f82601f830112614c8957614c88614a25565b5b8135614c99848260208601614c0d565b91505092915050565b5f805f60608486031215614cb957614cb86149c3565b5b5f614cc686828701614a11565b935050602084013567ffffffffffffffff811115614ce757614ce66149c7565b5b614cf386828701614b7e565b925050604084013567ffffffffffffffff811115614d1457614d136149c7565b5b614d2086828701614c75565b9150509250925092565b5f6affffffffffffffffffffff82169050919050565b614d4981614d2a565b8114614d53575f80fd5b50565b5f81359050614d6481614d40565b92915050565b5f805f60608486031215614d8157614d806149c3565b5b5f614d8e86828701614a11565b9350506020614d9f86828701614b02565b9250506040614db086828701614d56565b9150509250925092565b7f4e487b71000000000000000000000000000000000000000000000000000000005f52602160045260245ffd5b7f4e487b71000000000000000000000000000000000000000000000000000000005f52603260045260245ffd5b5f819050919050565b7f4e487b71000000000000000000000000000000000000000000000000000000005f52601160045260245ffd5b5f614e5482614e14565b9150614e5f83614e14565b9250828203905081811115614e7757614e76614e1d565b5b92915050565b5f614e8782614d2a565b9150614e9283614d2a565b925082820190506affffffffffffffffffffff811115614eb557614eb4614e1d565b5b92915050565b5f614ec582614e14565b9150614ed083614e14565b9250828201905080821115614ee857614ee7614e1d565b5b92915050565b5f614ef882614e14565b91505f8203614f0a57614f09614e1d565b5b600182039050919050565b5f81519050919050565b5f82825260208201905092915050565b5f819050602082019050919050565b614f4781614ae0565b82525050565b5f614f588383614f3e565b60208301905092915050565b5f602082019050919050565b5f614f7a82614f15565b614f848185614f1f565b9350614f8f83614f2f565b805f5b83811015614fbf578151614fa68882614f4d565b9750614fb183614f64565b925050600181019050614f92565b5085935050505092915050565b5f6020820190508181035f830152614fe48184614f70565b905092915050565b5f614ff682614d2a565b915061500183614d2a565b925082820390506affffffffffffffffffffff81111561502457615023614e1d565b5b92915050565b61503381614ae0565b82525050565b5f819050919050565b5f61505c61505761505284614d2a565b615039565b614e14565b9050919050565b61506c81615042565b82525050565b5f6040820190506150855f83018561502a565b6150926020830184615063565b9392505050565b5f6150b36150ae6150a984614ae0565b615039565b614bd6565b9050919050565b6150c381615099565b82525050565b5f6020820190506150dc5f8301846150ba565b92915050565b7f4e487b71000000000000000000000000000000000000000000000000000000005f52600160045260245ffd5b5f67ffffffffffffffff82169050919050565b5f61512c8261510f565b91506151378361510f565b9250828203905067ffffffffffffffff81111561515757615156614e1d565b5b92915050565b5f61516782614e14565b915061517283614e14565b925082820261518081614e14565b9150828204841483151761519757615196614e1d565b5b5092915050565b7f4e487b71000000000000000000000000000000000000000000000000000000005f52601260045260245ffd5b5f6151d582614e14565b91506151e083614e14565b9250826151f0576151ef61519e565b5b828204905092915050565b5f63ffffffff82169050919050565b5f615214826151fb565b915061521f836151fb565b9250828203905063ffffffff81111561523b5761523a614e1d565b5b92915050565b61524a81614e14565b82525050565b5f6040820190506152635f830185615241565b6152706020830184615241565b9392505050565b5f6cffffffffffffffffffffffffff82169050919050565b5f61529982615277565b91506152a483615277565b925082820190506cffffffffffffffffffffffffff8111156152c9576152c8614e1d565b5b92915050565b5f6060820190506152e25f830186615241565b6152ef6020830185615241565b6152fc6040830184615241565b949350505050565b5f69ffffffffffffffffffff82169050919050565b61532281615304565b811461532c575f80fd5b50565b5f8151905061533d81615319565b92915050565b5f819050919050565b61535581615343565b811461535f575f80fd5b50565b5f815190506153708161534c565b92915050565b61537f81614e14565b8114615389575f80fd5b50565b5f8151905061539a81615376565b92915050565b5f805f805f60a086880312156153b9576153b86149c3565b5b5f6153c68882890161532f565b95505060206153d788828901615362565b94505060406153e88882890161538c565b93505060606153f98882890161538c565b925050608061540a8882890161532f565b9150509295509295909350565b5f61542182615343565b915061542c83615343565b925082820261543a81615343565b91507f800000000000000000000000000000000000000000000000000000000000000084145f8412161561547157615470614e1d565b5b828205841483151761548657615485614e1d565b5b5092915050565b61549681614bd6565b82525050565b5f6020820190506154af5f83018461548d565b92915050565b5f6fffffffffffffffffffffffffffffffff82169050919050565b6154d9816154b5565b82525050565b5f819050919050565b5f6155026154fd6154f8846154df565b615039565b6151fb565b9050919050565b615512816154e8565b82525050565b5f60408201905061552b5f8301856154d0565b6155386020830184615509565b9392505050565b5f60208284031215615554576155536149c3565b5b5f6155618482850161538c565b91505092915050565b615573816149ea565b82525050565b5f60208201905061558c5f83018461556a565b9291505056fea26469706673582212203dd4e152c68161a738e541cfcf4969d541571003774985f839835d07b82a06aa64736f6c63430008150033","linkReferences":{}},"methodIdentifiers":{"combineShorts(address,uint8[],uint16[])":"4671a8e1","decreaseCollateral(address,uint8,uint88)":"f1562f12","increaseCollateral(address,uint8,uint88)":"804c24d8"},"id":19}