{"abi":[{"type":"function","name":"liquidateSecondary","inputs":[{"name":"asset","type":"address","internalType":"address"},{"name":"batches","type":"tuple[]","internalType":"struct MTypes.BatchLiquidation[]","components":[{"name":"shorter","type":"address","internalType":"address"},{"name":"shortId","type":"uint8","internalType":"uint8"},{"name":"shortOrderId","type":"uint16","internalType":"uint16"}]},{"name":"liquidateAmount","type":"uint88","internalType":"uint88"},{"name":"isWallet","type":"bool","internalType":"bool"}],"outputs":[],"stateMutability":"nonpayable"},{"type":"event","name":"CancelOrder","inputs":[{"name":"asset","type":"address","indexed":true,"internalType":"address"},{"name":"orderId","type":"uint16","indexed":false,"internalType":"uint16"},{"name":"orderType","type":"uint8","indexed":true,"internalType":"enum O"}],"anonymous":false},{"type":"event","name":"DeleteShortRecord","inputs":[{"name":"asset","type":"address","indexed":true,"internalType":"address"},{"name":"user","type":"address","indexed":true,"internalType":"address"},{"name":"srId","type":"uint16","indexed":false,"internalType":"uint16"}],"anonymous":false},{"type":"event","name":"LiquidateSecondary","inputs":[{"name":"asset","type":"address","indexed":true,"internalType":"address"},{"name":"batches","type":"tuple[]","indexed":false,"internalType":"struct MTypes.BatchLiquidation[]","components":[{"name":"shorter","type":"address","internalType":"address"},{"name":"shortId","type":"uint8","internalType":"uint8"},{"name":"shortOrderId","type":"uint16","internalType":"uint16"}]},{"name":"caller","type":"address","indexed":true,"internalType":"address"},{"name":"isWallet","type":"bool","indexed":false,"internalType":"bool"}],"anonymous":false},{"type":"error","name":"AssetIsFrozen","inputs":[]},{"type":"error","name":"InsufficientEthInLiquidityPool","inputs":[]},{"type":"error","name":"InvalidAmount","inputs":[]},{"type":"error","name":"InvalidAsset","inputs":[]},{"type":"error","name":"InvalidPrice","inputs":[]},{"type":"error","name":"InvalidTwapPrice","inputs":[]},{"type":"error","name":"NotActiveOrder","inputs":[]},{"type":"error","name":"PRBMath_MulDiv18_Overflow","inputs":[{"name":"x","type":"uint256","internalType":"uint256"},{"name":"y","type":"uint256","internalType":"uint256"}]},{"type":"error","name":"PRBMath_MulDiv_Overflow","inputs":[{"name":"x","type":"uint256","internalType":"uint256"},{"name":"y","type":"uint256","internalType":"uint256"},{"name":"denominator","type":"uint256","internalType":"uint256"}]},{"type":"error","name":"ReentrantCall","inputs":[]},{"type":"error","name":"SecondaryLiquidationNoValidShorts","inputs":[]}],"bytecode":{"object":"0x608060405234801561000f575f80fd5b50614e028061001d5f395ff3fe608060405234801561000f575f80fd5b5060043610610029575f3560e01c8063d96e8cae1461002d575b5f80fd5b610047600480360381019061004291906144ef565b610049565b005b835f806008015f8373ffffffffffffffffffffffffffffffffffffffff1673ffffffffffffffffffffffffffffffffffffffff1681526020019081526020015f205f01601f9054906101000a900460ff1660ff16036100d4576040517fc891add200000000000000000000000000000000000000000000000000000000815260040160405180910390fd5b845f60018111156100e8576100e761456f565b5b5f6008015f8373ffffffffffffffffffffffffffffffffffffffff1673ffffffffffffffffffffffffffffffffffffffff1681526020019081526020015f205f01601e9054906101000a900460ff1660018111156101495761014861456f565b5b14610180576040517f0e27a3f700000000000000000000000000000000000000000000000000000000815260040160405180910390fd5b600260ff165f600201601c9054906101000a900460ff1660ff16036101d1576040517f37ed32e800000000000000000000000000000000000000000000000000000000815260040160405180910390fd5b60025f600201601c6101000a81548160ff021916908360ff1602179055505f806009015f8873ffffffffffffffffffffffffffffffffffffffff1673ffffffffffffffffffffffffffffffffffffffff1681526020019081526020015f205f3373ffffffffffffffffffffffffffffffffffffffff1673ffffffffffffffffffffffffffffffffffffffff1681526020019081526020015f2090506102746140c3565b5f61027e89610aee565b90505f61028a8a610b74565b90505f6102968b610bcc565b90505f6102a28c610c54565b90505f808b90505f5b8d51811015610899576102da8f8f83815181106102cb576102ca61459c565b5b60200260200101518989610cd0565b97508060010190503373ffffffffffffffffffffffffffffffffffffffff16886080015173ffffffffffffffffffffffffffffffffffffffff1614806103235750848860c00151115b80610359575060028081111561033c5761033b61456f565b5b88602001516060015160028111156103575761035661456f565b5b145b8061037857505f8860200151602001516affffffffffffffffffffff16145b806103e057503073ffffffffffffffffffffffffffffffffffffffff16886080015173ffffffffffffffffffffffffffffffffffffffff16141580156103df57508760200151602001516affffffffffffffffffffff16826affffffffffffffffffffff16105b5b610894575f88606001511561051d575f80600c015f8b5f015173ffffffffffffffffffffffffffffffffffffffff1673ffffffffffffffffffffffffffffffffffffffff1681526020019081526020015f205f8b6040015161ffff1661ffff1681526020019081526020015f209050856affffffffffffffffffffff16815f015f9054906101000a90046affffffffffffffffffffff166affffffffffffffffffffff16109150811561051b57896020015160a0015160ff168160010160179054906101000a900460ff1660ff1614158061050e5750896080015173ffffffffffffffffffffffffffffffffffffffff16816001015f9054906101000a900473ffffffffffffffffffffffffffffffffffffffff1673ffffffffffffffffffffffffffffffffffffffff1614155b1561051a575050610894565b5b505b5f3073ffffffffffffffffffffffffffffffffffffffff168a6080015173ffffffffffffffffffffffffffffffffffffffff16036105ae578960200151602001516affffffffffffffffffffff16846affffffffffffffffffffff1610905080156105ad57838a60200151602001906affffffffffffffffffffff1690816affffffffffffffffffffff16815250505b5b8d1561075a575f8a5f015190505f8173ffffffffffffffffffffffffffffffffffffffff166370a08231336040518263ffffffff1660e01b81526004016105f591906145d8565b602060405180830381865afa158015610610573d5f803e3d5ffd5b505050506040513d601f19601f820116820180604052508101906106349190614624565b90508b60200151602001516affffffffffffffffffffff1681101561065c5750505050610894565b8173ffffffffffffffffffffffffffffffffffffffff166379cc6790338e60200151602001516040518363ffffffff1660e01b815260040161069f929190614688565b5f604051808303815f87803b1580156106b6575f80fd5b505af11580156106c8573d5f803e3d5ffd5b50505050808273ffffffffffffffffffffffffffffffffffffffff166370a08231336040518263ffffffff1660e01b815260040161070691906145d8565b602060405180830381865afa158015610721573d5f803e3d5ffd5b505050506040513d601f19601f820116820180604052508101906107459190614624565b10610753576107526146af565b5b5050610818565b8960200151602001516affffffffffffffffffffff168b5f015f9054906101000a90046cffffffffffffffffffffffffff166cffffffffffffffffffffffffff1610156107a8575050610894565b8960200151602001516affffffffffffffffffffff168b5f015f8282829054906101000a90046cffffffffffffffffffffffffff166107e79190614721565b92506101000a8154816cffffffffffffffffffffffffff02191690836cffffffffffffffffffffffffff1602179055505b801561082c576108278a611073565b610836565b6108358a611260565b5b811561084e5761084d8a5f01518b60400151611478565b5b8960a001518561085e9190614761565b945089602001516020015184610874919061479f565b93505f846affffffffffffffffffffff1603610891575050610899565b50505b6102ab565b50806affffffffffffffffffffff168c6affffffffffffffffffffff16036108ed576040517f45f6d04900000000000000000000000000000000000000000000000000000000815260040160405180910390fd5b5f806008015f895f015173ffffffffffffffffffffffffffffffffffffffff1673ffffffffffffffffffffffffffffffffffffffff1681526020019081526020015f209050818d61093e919061479f565b6affffffffffffffffffffff16815f015f8282829054906101000a90046cffffffffffffffffffffffffff166109749190614721565b92506101000a8154816cffffffffffffffffffffffffff02191690836cffffffffffffffffffffffffff160217905550825f6007015f835f01601f9054906101000a900460ff1660ff1681526020019081526020015f205f3373ffffffffffffffffffffffffffffffffffffffff1673ffffffffffffffffffffffffffffffffffffffff1681526020019081526020015f205f015f8282829054906101000a90046affffffffffffffffffffff16610a2c9190614761565b92506101000a8154816affffffffffffffffffffff02191690836affffffffffffffffffffff160217905550503373ffffffffffffffffffffffffffffffffffffffff168e73ffffffffffffffffffffffffffffffffffffffff167f153ea6f2b1b6913a8989f167a589714f18723a294fe9c6cf8bd237e50ddc8f918f8e604051610ab8929190614901565b60405180910390a3505050505050505060015f600201601c6101000a81548160ff021916908360ff160217905550505050505050565b5f80610af8611cf9565b90506064670de0b6b3a7640000826008015f8673ffffffffffffffffffffffffffffffffffffffff1673ffffffffffffffffffffffffffffffffffffffff1681526020019081526020015f2060010160049054906101000a900460ff1660ff16610b62919061492f565b610b6c919061499d565b915050919050565b5f610384610b8183611cfd565b610b89611d80565b63ffffffff16610b9991906149cd565b1015610bbb57610ba882611d96565b69ffffffffffffffffffff169050610bc7565b610bc482611e19565b90505b919050565b5f80610bd6611cf9565b90506064670de0b6b3a7640000826008015f8673ffffffffffffffffffffffffffffffffffffffff1673ffffffffffffffffffffffffffffffffffffffff1681526020019081526020015f2060010160119054906101000a900461ffff1661ffff16610c42919061492f565b610c4c919061499d565b915050919050565b5f80610c5e611cf9565b9050670de0b6b3a7640000816008015f8573ffffffffffffffffffffffffffffffffffffffff1673ffffffffffffffffffffffffffffffffffffffff1681526020019081526020015f2060010160029054906101000a900461ffff1661ffff16610cc8919061492f565b915050919050565b610cd86140c3565b610cea85855f01518660200151612223565b5f600d015f8673ffffffffffffffffffffffffffffffffffffffff1673ffffffffffffffffffffffffffffffffffffffff1681526020019081526020015f205f855f015173ffffffffffffffffffffffffffffffffffffffff1673ffffffffffffffffffffffffffffffffffffffff1681526020019081526020015f205f856020015160ff1660ff1681526020019081526020015f20604051806101400160405290815f82015f9054906101000a90046affffffffffffffffffffff166affffffffffffffffffffff166affffffffffffffffffffff1681526020015f8201600b9054906101000a90046affffffffffffffffffffff166affffffffffffffffffffff166affffffffffffffffffffff1681526020015f820160169054906101000a900469ffffffffffffffffffff1669ffffffffffffffffffff1669ffffffffffffffffffff168152602001600182015f9054906101000a900460ff166002811115610e5a57610e5961456f565b5b6002811115610e6c57610e6b61456f565b5b81526020016001820160019054906101000a900460ff1660ff1660ff1681526020016001820160029054906101000a900460ff1660ff1660ff1681526020016001820160039054906101000a900460ff1660ff1660ff1681526020016001820160049054906101000a900467ffffffffffffffff1667ffffffffffffffff1667ffffffffffffffff16815260200160018201600c9054906101000a900463ffffffff1663ffffffff1663ffffffff1681526020016001820160109054906101000a900464ffffffffff1664ffffffffff1664ffffffffff168152505081602001819052505f8160200151602001516affffffffffffffffffffff16031561106b5784815f019073ffffffffffffffffffffffffffffffffffffffff16908173ffffffffffffffffffffffffffffffffffffffff1681525050835f0151816080019073ffffffffffffffffffffffffffffffffffffffff16908173ffffffffffffffffffffffffffffffffffffffff1681525050828160e001818152505061100082826020015161242390919063ffffffff16565b8160c001818152505081816101000181815250508360400151816040019061ffff16908161ffff16815250505f600281111561103f5761103e61456f565b5b816020015160600151600281111561105a5761105961456f565b5b148160600190151590811515815250505b949350505050565b5f80600d015f835f015173ffffffffffffffffffffffffffffffffffffffff1673ffffffffffffffffffffffffffffffffffffffff1681526020019081526020015f205f3073ffffffffffffffffffffffffffffffffffffffff1673ffffffffffffffffffffffffffffffffffffffff1681526020019081526020015f205f836020015160a0015160ff1660ff1681526020019081526020015f209050816020015160200151815f01600b8282829054906101000a90046affffffffffffffffffffff16611141919061479f565b92506101000a8154816affffffffffffffffffffff02191690836affffffffffffffffffffff1602179055506111aa61119d8361010001518460200151602001516affffffffffffffffffffff1661247290919063ffffffff16565b83602001515f0151612492565b8260a001906affffffffffffffffffffff1690816affffffffffffffffffffff16815250508160a00151815f015f8282829054906101000a90046affffffffffffffffffffff166111fb919061479f565b92506101000a8154816affffffffffffffffffffff02191690836affffffffffffffffffffff16021790555061125c825f015183608001518460a0015185602001516040015169ffffffffffffffffffff16866020015161010001516124fe565b5050565b670de0b6b3a76400008160c0015111156113f5576112a18161010001518260200151602001516affffffffffffffffffffff1661280490919063ffffffff16565b8160a001906affffffffffffffffffffff1690816affffffffffffffffffffff16815250505f8160e001518260c00151116112dc57306112e2565b81608001515b90508160a0015182602001515f01516112fb919061479f565b5f6007015f806008015f865f015173ffffffffffffffffffffffffffffffffffffffff1673ffffffffffffffffffffffffffffffffffffffff1681526020019081526020015f205f01601f9054906101000a900460ff1660ff1681526020019081526020015f205f8373ffffffffffffffffffffffffffffffffffffffff1673ffffffffffffffffffffffffffffffffffffffff1681526020019081526020015f205f015f8282829054906101000a90046affffffffffffffffffffff166113c39190614761565b92506101000a8154816affffffffffffffffffffff02191690836affffffffffffffffffffff16021790555050611423565b80602001515f01518160a001906affffffffffffffffffffff1690816affffffffffffffffffffff16815250505b61145b815f0151826080015183602001515f015184602001516040015169ffffffffffffffffffff16856020015161010001516124fe565b611475815f01518260800151836020015160a00151612870565b50565b5f611481611cf9565b90505f81600c015f8573ffffffffffffffffffffffffffffffffffffffff1673ffffffffffffffffffffffffffffffffffffffff1681526020019081526020015f205f8461ffff1661ffff1681526020019081526020015f2090505f815f01601b9054906101000a900460ff169050600660078111156115045761150361456f565b5b8160078111156115175761151661456f565b5b148061154657506007808111156115315761153061456f565b5b8160078111156115445761154361456f565b5b145b1561157d576040517f03f7cd9200000000000000000000000000000000000000000000000000000000815260040160405180910390fd5b5f61161561159c8460010160159054906101000a900461ffff16612d3c565b6115fa855f01600b9054906101000a900469ffffffffffffffffffff1669ffffffffffffffffffff16865f015f9054906101000a90046affffffffffffffffffffff166affffffffffffffffffffff1661280490919063ffffffff16565b6affffffffffffffffffffff1661280490919063ffffffff16565b90505f846008015f8873ffffffffffffffffffffffffffffffffffffffff1673ffffffffffffffffffffffffffffffffffffffff1681526020019081526020015f2090505f815f01601f9054906101000a900460ff1660ff1690505f8560010160179054906101000a900460ff1690505f866001015f9054906101000a900473ffffffffffffffffffffffffffffffffffffffff1690505f88600d015f8c73ffffffffffffffffffffffffffffffffffffffff1673ffffffffffffffffffffffffffffffffffffffff1681526020019081526020015f205f8373ffffffffffffffffffffffffffffffffffffffff1673ffffffffffffffffffffffffffffffffffffffff1681526020019081526020015f205f8460ff1660ff1681526020019081526020015f2090506002808111156117515761175061456f565b5b816001015f9054906101000a900460ff1660028111156117745761177361456f565b5b03611789576117848b8385612870565b611b08565b5f6117938c610c54565b9050806affffffffffffffffffffff16825f01600b9054906101000a90046affffffffffffffffffffff166affffffffffffffffffffff161015611ad9575f825f01600b9054906101000a90046affffffffffffffffffffff16826117f8919061479f565b90505f8b6005015f8881526020019081526020015f2090505f61188f61182f8d60010160159054906101000a900461ffff16612d3c565b611874856affffffffffffffffffffff168f5f01600b9054906101000a900469ffffffffffffffffffff1669ffffffffffffffffffff16612d6890919063ffffffff16565b6affffffffffffffffffffff1661280490919063ffffffff16565b90506118d38f8789600185888f60010160099054906101000a900467ffffffffffffffff16895f0160169054906101000a900469ffffffffffffffffffff16612dd1565b80825f015f8282829054906101000a90046affffffffffffffffffffff166118fb9190614761565b92506101000a8154816affffffffffffffffffffff02191690836affffffffffffffffffffff16021790555080895f01600d8282829054906101000a90046affffffffffffffffffffff166119509190614761565b92506101000a8154816affffffffffffffffffffff02191690836affffffffffffffffffffff160217905550826affffffffffffffffffffff16895f015f8282829054906101000a90046cffffffffffffffffffffffffff166119b39190614a00565b92506101000a8154816cffffffffffffffffffffffffff02191690836cffffffffffffffffffffffffff160217905550808a6119ef919061479f565b99505050806affffffffffffffffffffff168b6009015f8f73ffffffffffffffffffffffffffffffffffffffff1673ffffffffffffffffffffffffffffffffffffffff1681526020019081526020015f205f8673ffffffffffffffffffffffffffffffffffffffff1673ffffffffffffffffffffffffffffffffffffffff1681526020019081526020015f205f015f8282829054906101000a90046cffffffffffffffffffffffffff16611aa39190614a00565b92506101000a8154816cffffffffffffffffffffffffff02191690836cffffffffffffffffffffffffff16021790555050611b06565b6001826001015f6101000a81548160ff02191690836002811115611b0057611aff61456f565b5b02179055505b505b85896007015f8681526020019081526020015f205f8473ffffffffffffffffffffffffffffffffffffffff1673ffffffffffffffffffffffffffffffffffffffff1681526020019081526020015f205f015f8282829054906101000a90046affffffffffffffffffffff16611b7d9190614761565b92506101000a8154816affffffffffffffffffffff02191690836affffffffffffffffffffff160217905550845f0160189054906101000a900461ffff1661ffff168a61ffff1603611cde575f611bd38c611d96565b69ffffffffffffffffffff1690505f8a600c015f8e73ffffffffffffffffffffffffffffffffffffffff1673ffffffffffffffffffffffffffffffffffffffff1681526020019081526020015f205f8b5f0160159054906101000a900461ffff1661ffff1661ffff1681526020019081526020015f205f01600b9054906101000a900469ffffffffffffffffffff1669ffffffffffffffffffff169050818110611cab57895f0160159054906101000a900461ffff16875f0160186101000a81548161ffff021916908361ffff160217905550611cdb565b895f0160199054906101000a900461ffff16875f0160186101000a81548161ffff021916908361ffff1602179055505b50505b611cec89600c018c8c61303b565b5050505050505050505050565b5f90565b5f80611d07611cf9565b905080600a015f8473ffffffffffffffffffffffffffffffffffffffff1673ffffffffffffffffffffffffffffffffffffffff1681526020019081526020015f205f600160ff1661ffff1681526020019081526020015f205f01601c9054906101000a900463ffffffff1663ffffffff16915050919050565b5f6362f6fc6542611d9191906149cd565b905090565b5f80611da0611cf9565b905080600a015f8473ffffffffffffffffffffffffffffffffffffffff1673ffffffffffffffffffffffffffffffffffffffff1681526020019081526020015f205f600160ff1661ffff1681526020019081526020015f205f015f9054906101000a90046affffffffffffffffffffff16915050919050565b5f80611e23611cf9565b90505f816002015f9054906101000a900473ffffffffffffffffffffffffffffffffffffffff1690505f611e5685611d96565b69ffffffffffffffffffff1690505f836008015f8773ffffffffffffffffffffffffffffffffffffffff1673ffffffffffffffffffffffffffffffffffffffff1681526020019081526020015f206002015f9054906101000a900473ffffffffffffffffffffffffffffffffffffffff1690505f73ffffffffffffffffffffffffffffffffffffffff168173ffffffffffffffffffffffffffffffffffffffff1603611f2e576040517fc891add200000000000000000000000000000000000000000000000000000000815260040160405180910390fd5b8273ffffffffffffffffffffffffffffffffffffffff1663feaf968c6040518163ffffffff1660e01b815260040160a060405180830381865afa925050508015611f9657506040513d601f19601f82011682018060405250810190611f939190614ab2565b60015b6120f3578273ffffffffffffffffffffffffffffffffffffffff168173ffffffffffffffffffffffffffffffffffffffff1603611fe057611fd56133e5565b94505050505061221e565b5f805f8373ffffffffffffffffffffffffffffffffffffffff1663feaf968c6040518163ffffffff1660e01b815260040160a060405180830381865afa15801561202c573d5f803e3d5ffd5b505050506040513d601f19601f820116820180604052508101906120509190614ab2565b50935050925092505f8369ffffffffffffffffffff16148061207157505f82145b8061207b57504281115b156120b1576040517ebfc92100000000000000000000000000000000000000000000000000000000815260040160405180910390fd5b5f6120ba6133e5565b90505f6120e0826402540be400866120d29190614b29565b6135c790919063ffffffff16565b905080995050505050505050505061221e565b8773ffffffffffffffffffffffffffffffffffffffff168673ffffffffffffffffffffffffffffffffffffffff1603612171575f808513612134575f61214e565b61214d6402540be400866121489190614b29565b6135da565b5b905061215d8887878685613602565b9050809a505050505050505050505061221e565b5f805f8873ffffffffffffffffffffffffffffffffffffffff1663feaf968c6040518163ffffffff1660e01b815260040160a060405180830381865afa1580156121bd573d5f803e3d5ffd5b505050506040513d601f19601f820116820180604052508101906121e19190614ab2565b50935050925092505f6121fd88846138b690919063ffffffff16565b905061220d848a858b868b6138d2565b809d50505050505050505050505050505b919050565b5f61222c611cf9565b90505f81600d015f8673ffffffffffffffffffffffffffffffffffffffff1673ffffffffffffffffffffffffffffffffffffffff1681526020019081526020015f205f8573ffffffffffffffffffffffffffffffffffffffff1673ffffffffffffffffffffffffffffffffffffffff1681526020019081526020015f205f8460ff1660ff1681526020019081526020015f2090505f826008015f8773ffffffffffffffffffffffffffffffffffffffff1673ffffffffffffffffffffffffffffffffffffffff1681526020019081526020015f2060010160099054906101000a900467ffffffffffffffff1690505f6123828360010160049054906101000a900467ffffffffffffffff16836123429190614bb2565b67ffffffffffffffff16845f01600b9054906101000a90046affffffffffffffffffffff166affffffffffffffffffffff1661280490919063ffffffff16565b90505f816affffffffffffffffffffff16111561241a5780835f01600b8282829054906101000a90046affffffffffffffffffffff166123c29190614761565b92506101000a8154816affffffffffffffffffffff02191690836affffffffffffffffffffff160217905550818360010160046101000a81548167ffffffffffffffff021916908367ffffffffffffffff1602179055505b50505050505050565b5f61246a61244b8385602001516affffffffffffffffffffff1661247290919063ffffffff16565b845f01516affffffffffffffffffffff1661397890919063ffffffff16565b905092915050565b5f61248a836affffffffffffffffffffff16836139a1565b905092915050565b5f6affffffffffffffffffffff80168311156124da576040517f2c5211c600000000000000000000000000000000000000000000000000000000815260040160405180910390fd5b816affffffffffffffffffffff1683106124f457816124f6565b825b905092915050565b5f612507611cf9565b90505f816008015f8873ffffffffffffffffffffffffffffffffffffffff1673ffffffffffffffffffffffffffffffffffffffff1681526020019081526020015f2090505f815f01601f9054906101000a900460ff1660ff1690505f836005015f8381526020019081526020015f20905086815f015f8282829054906101000a90046affffffffffffffffffffff166125a0919061479f565b92506101000a8154816affffffffffffffffffffff02191690836affffffffffffffffffffff16021790555086835f01600d8282829054906101000a90046affffffffffffffffffffff166125f5919061479f565b92506101000a8154816affffffffffffffffffffff02191690836affffffffffffffffffffff1602179055505f61267287835f0160169054906101000a900469ffffffffffffffffffff1669ffffffffffffffffffff1661265691906149cd565b896affffffffffffffffffffff1661280490919063ffffffff16565b90505f816affffffffffffffffffffff1611156127f8575f603c87612695611d80565b61269f9190614bfc565b63ffffffff1611905080156127545781866007015f8681526020019081526020015f205f8c73ffffffffffffffffffffffffffffffffffffffff1673ffffffffffffffffffffffffffffffffffffffff1681526020019081526020015f205f015f8282829054906101000a90046affffffffffffffffffffff166127239190614761565b92506101000a8154816affffffffffffffffffffff02191690836affffffffffffffffffffff1602179055506127f6565b81866007015f8681526020019081526020015f205f3073ffffffffffffffffffffffffffffffffffffffff1673ffffffffffffffffffffffffffffffffffffffff1681526020019081526020015f205f015f8282829054906101000a90046affffffffffffffffffffff166127c99190614761565b92506101000a8154816affffffffffffffffffffff02191690836affffffffffffffffffffff1602179055505b505b50505050505050505050565b5f8061281d846affffffffffffffffffffff16846139a1565b90506affffffffffffffffffffff8016811115612866576040517f2c5211c600000000000000000000000000000000000000000000000000000000815260040160405180910390fd5b8091505092915050565b5f612879611cf9565b90505f81600d015f8673ffffffffffffffffffffffffffffffffffffffff1673ffffffffffffffffffffffffffffffffffffffff1681526020019081526020015f205f8573ffffffffffffffffffffffffffffffffffffffff1673ffffffffffffffffffffffffffffffffffffffff1681526020019081526020015f205f8460ff1660ff1681526020019081526020015f2090505f60028111156129205761291f61456f565b5b816001015f9054906101000a900460ff1660028111156129435761294261456f565b5b14612d09578060010160039054906101000a900460ff1682600d015f8773ffffffffffffffffffffffffffffffffffffffff1673ffffffffffffffffffffffffffffffffffffffff1681526020019081526020015f205f8673ffffffffffffffffffffffffffffffffffffffff1673ffffffffffffffffffffffffffffffffffffffff1681526020019081526020015f205f8360010160019054906101000a900460ff1660ff1660ff1681526020019081526020015f2060010160036101000a81548160ff021916908360ff160217905550600160ff168160010160039054906101000a900460ff1660ff1614612b02578060010160019054906101000a900460ff1682600d015f8773ffffffffffffffffffffffffffffffffffffffff1673ffffffffffffffffffffffffffffffffffffffff1681526020019081526020015f205f8673ffffffffffffffffffffffffffffffffffffffff1673ffffffffffffffffffffffffffffffffffffffff1681526020019081526020015f205f8360010160039054906101000a900460ff1660ff1660ff1681526020019081526020015f2060010160016101000a81548160ff021916908360ff1602179055505b5f82600d015f8773ffffffffffffffffffffffffffffffffffffffff1673ffffffffffffffffffffffffffffffffffffffff1681526020019081526020015f205f8673ffffffffffffffffffffffffffffffffffffffff1673ffffffffffffffffffffffffffffffffffffffff1681526020019081526020015f205f600160ff1660ff1681526020019081526020015f2060010160019054906101000a900460ff1690508383600d015f8873ffffffffffffffffffffffffffffffffffffffff1673ffffffffffffffffffffffffffffffffffffffff1681526020019081526020015f205f8773ffffffffffffffffffffffffffffffffffffffff1673ffffffffffffffffffffffffffffffffffffffff1681526020019081526020015f205f600160ff1660ff1681526020019081526020015f2060010160016101000a81548160ff021916908360ff160217905550600160ff168160ff161115612c8357808260010160016101000a81548160ff021916908360ff160217905550612ca2565b60018260010160016101000a81548160ff021916908360ff1602179055505b8473ffffffffffffffffffffffffffffffffffffffff168673ffffffffffffffffffffffffffffffffffffffff167f308fabf328a16a122870d17bc942c7d1030c9f3f3eb3bd0d0139bbc75e705a3586604051612cff9190614c63565b60405180910390a3505b6002816001015f6101000a81548160ff02191690836002811115612d3057612d2f61456f565b5b02179055505050505050565b5f6064670de0b6b3a76400008361ffff16612d57919061492f565b612d61919061499d565b9050919050565b5f80612d808469ffffffffffffffffffff16846139a1565b905069ffffffffffffffffffff8016811115612dc7576040517ebfc92100000000000000000000000000000000000000000000000000000000815260040160405180910390fd5b8091505092915050565b5f612dda611cf9565b90505f81600d015f8b73ffffffffffffffffffffffffffffffffffffffff1673ffffffffffffffffffffffffffffffffffffffff1681526020019081526020015f205f8a73ffffffffffffffffffffffffffffffffffffffff1673ffffffffffffffffffffffffffffffffffffffff1681526020019081526020015f205f8960ff1660ff1681526020019081526020015f209050600280811115612e8157612e8061456f565b5b816001015f9054906101000a900460ff166002811115612ea457612ea361456f565b5b03612f905784815f01600b6101000a8154816affffffffffffffffffffff02191690836affffffffffffffffffffff160217905550838160010160046101000a81548167ffffffffffffffff021916908367ffffffffffffffff16021790555085815f015f6101000a8154816affffffffffffffffffffff02191690836affffffffffffffffffffff16021790555082815f0160166101000a81548169ffffffffffffffffffff021916908369ffffffffffffffffffff160217905550612f69611d80565b81600101600c6101000a81548163ffffffff021916908363ffffffff160217905550613004565b5f612fbb8567ffffffffffffffff16876affffffffffffffffffffff1661247290919063ffffffff16565b90505f612fea8569ffffffffffffffffffff16896affffffffffffffffffffff1661247290919063ffffffff16565b90506130018388848b85612ffc611d80565b613a86565b50505b86816001015f6101000a81548160ff0219169083600281111561302a5761302961456f565b5b021790555050505050505050505050565b5f835f8473ffffffffffffffffffffffffffffffffffffffff1673ffffffffffffffffffffffffffffffffffffffff1681526020019081526020015f205f600160ff1661ffff1681526020019081526020015f205f0160159054906101000a900461ffff169050835f8473ffffffffffffffffffffffffffffffffffffffff1673ffffffffffffffffffffffffffffffffffffffff1681526020019081526020015f205f8361ffff1661ffff1681526020019081526020015f205f0160159054906101000a900461ffff16845f8573ffffffffffffffffffffffffffffffffffffffff1673ffffffffffffffffffffffffffffffffffffffff1681526020019081526020015f205f865f8773ffffffffffffffffffffffffffffffffffffffff1673ffffffffffffffffffffffffffffffffffffffff1681526020019081526020015f205f8661ffff1661ffff1681526020019081526020015f205f0160199054906101000a900461ffff1661ffff1661ffff1681526020019081526020015f205f0160156101000a81548161ffff021916908361ffff160217905550835f8473ffffffffffffffffffffffffffffffffffffffff1673ffffffffffffffffffffffffffffffffffffffff1681526020019081526020015f205f8361ffff1661ffff1681526020019081526020015f205f0160199054906101000a900461ffff16845f8573ffffffffffffffffffffffffffffffffffffffff1673ffffffffffffffffffffffffffffffffffffffff1681526020019081526020015f205f865f8773ffffffffffffffffffffffffffffffffffffffff1673ffffffffffffffffffffffffffffffffffffffff1681526020019081526020015f205f8661ffff1661ffff1681526020019081526020015f205f0160159054906101000a900461ffff1661ffff1661ffff1681526020019081526020015f205f0160196101000a81548161ffff021916908361ffff160217905550835f8473ffffffffffffffffffffffffffffffffffffffff1673ffffffffffffffffffffffffffffffffffffffff1681526020019081526020015f205f8361ffff1661ffff1681526020019081526020015f205f01601b9054906101000a900460ff1660078111156133835761338261456f565b5b8373ffffffffffffffffffffffffffffffffffffffff167f2097d5c49cf7ba09a2520b6b807629746c2527783ac92cac69d88e846c7f33f5846040516133c99190614c8b565b60405180910390a36133df848484846006613cf8565b50505050565b5f803073ffffffffffffffffffffffffffffffffffffffff16630b545214670de0b6b3a76400006107086040518363ffffffff1660e01b815260040161342c929190614d07565b602060405180830381865afa158015613447573d5f803e3d5ffd5b505050506040513d601f19601f8201168201806040525081019061346b9190614624565b90505f81036134a6576040517fca91730a00000000000000000000000000000000000000000000000000000000815260040160405180910390fd5b5f73c02aaa39b223fe8d0a0e5c4f27ead9083c756cc290505f8173ffffffffffffffffffffffffffffffffffffffff166370a082317388e6a0c2ddd26feeb64f039a2c41296fcb3f56406040518263ffffffff1660e01b815260040161350c91906145d8565b602060405180830381865afa158015613527573d5f803e3d5ffd5b505050506040513d601f19601f8201168201806040525081019061354b9190614624565b905068056bc75e2d63100000811015613590576040517f05f4eec200000000000000000000000000000000000000000000000000000000815260040160405180910390fd5b5f620f4240670de0b6b3a76400006135a8919061499d565b846135b3919061492f565b90506135be816135da565b94505050505090565b5f6135d283836139a1565b905092915050565b5f816ec097ce7bc90715b34b9f1000000000816135fa576135f9614970565b5b049050919050565b5f805f8669ffffffffffffffffffff16148061361d57505f84145b8061362757504284115b8061363257505f8513155b80613649575083611c206136469190614d2e565b42115b90505f87841161366457838861365f91906149cd565b613671565b878461367091906149cd565b5b90505f808911801561369c57506706f05b59d3b2000061369a8a846138b690919063ffffffff16565b115b905082156136b6576136ac6133e5565b93505050506138ad565b80156138a6573073ffffffffffffffffffffffffffffffffffffffff16630b545214670de0b6b3a76400006107086040518363ffffffff1660e01b8152600401613701929190614d07565b602060405180830381865afa92505050801561373b57506040513d601f19601f820116820180604052508101906137389190614624565b60015b61374a578493505050506138ad565b5f810361375d57859450505050506138ad565b5f620f4240670de0b6b3a7640000613775919061499d565b82613780919061492f565b90505f61378c826135da565b90505f8c82116137a757818d6137a291906149cd565b6137b4565b8c826137b391906149cd565b5b90508086116137cc57889750505050505050506138ad565b5f73c02aaa39b223fe8d0a0e5c4f27ead9083c756cc290505f8173ffffffffffffffffffffffffffffffffffffffff166370a082317388e6a0c2ddd26feeb64f039a2c41296fcb3f56406040518263ffffffff1660e01b815260040161383291906145d8565b602060405180830381865afa15801561384d573d5f803e3d5ffd5b505050506040513d601f19601f820116820180604052508101906138719190614624565b905068056bc75e2d63100000811015613895578a99505050505050505050506138ad565b8399505050505050505050506138ad565b8493505050505b95945050505050565b5f6138ca83670de0b6b3a764000084613ee5565b905092915050565b5f808769ffffffffffffffffffff1614806138ec57505f83145b806138f657504283115b8061390157505f8513155b8061391757505f8669ffffffffffffffffffff16145b8061392157505f82145b8061392b57504282115b8061393657505f8413155b9050801561396f576040517ebfc92100000000000000000000000000000000000000000000000000000000815260040160405180910390fd5b50505050505050565b5f613999836affffffffffffffffffffff16670de0b6b3a764000084613ee5565b905092915050565b5f805f80198486098486029250828110838203039150505f81036139e157670de0b6b3a764000082816139d7576139d6614970565b5b0492505050613a80565b670de0b6b3a76400008110613a2f5784846040517f5173648d000000000000000000000000000000000000000000000000000000008152600401613a26929190614d70565b60405180910390fd5b5f670de0b6b3a764000085870990507faccb18165bd6fe31ae1cf318dc5b51eee0e1ba569b88cd74c1773b91fac10669600162040000805f0304018483118403026204000083860304170293505050505b92915050565b613ae28660010160049054906101000a900467ffffffffffffffff1667ffffffffffffffff16875f01600b9054906101000a90046affffffffffffffffffffff166affffffffffffffffffffff1661247290919063ffffffff16565b84613aed9190614d2e565b935084865f01600b8282829054906101000a90046affffffffffffffffffffff16613b189190614761565b92506101000a8154816affffffffffffffffffffff02191690836affffffffffffffffffffff160217905550613b7e865f01600b9054906101000a90046affffffffffffffffffffff166affffffffffffffffffffff1685613ff790919063ffffffff16565b8660010160046101000a81548167ffffffffffffffff021916908367ffffffffffffffff160217905550613c06865f0160169054906101000a900469ffffffffffffffffffff1669ffffffffffffffffffff16875f015f9054906101000a90046affffffffffffffffffffff166affffffffffffffffffffff1661247290919063ffffffff16565b82613c119190614d2e565b915082865f015f8282829054906101000a90046affffffffffffffffffffff16613c3b9190614761565b92506101000a8154816affffffffffffffffffffff02191690836affffffffffffffffffffff160217905550613ca0865f015f9054906101000a90046affffffffffffffffffffff166affffffffffffffffffffff168361405c90919063ffffffff16565b865f0160166101000a81548169ffffffffffffffffffff021916908369ffffffffffffffffffff1602179055508086600101600c6101000a81548163ffffffff021916908363ffffffff160217905550505050505050565b80855f8673ffffffffffffffffffffffffffffffffffffffff1673ffffffffffffffffffffffffffffffffffffffff1681526020019081526020015f205f8561ffff1661ffff1681526020019081526020015f205f01601b6101000a81548160ff02191690836007811115613d7057613d6f61456f565b5b021790555082855f8673ffffffffffffffffffffffffffffffffffffffff1673ffffffffffffffffffffffffffffffffffffffff1681526020019081526020015f205f600160ff1661ffff1681526020019081526020015f205f0160156101000a81548161ffff021916908361ffff160217905550600160ff168261ffff1614613e695781855f8673ffffffffffffffffffffffffffffffffffffffff1673ffffffffffffffffffffffffffffffffffffffff1681526020019081526020015f205f8561ffff1661ffff1681526020019081526020015f205f0160156101000a81548161ffff021916908361ffff160217905550613ede565b600160ff16855f8673ffffffffffffffffffffffffffffffffffffffff1673ffffffffffffffffffffffffffffffffffffffff1681526020019081526020015f205f8561ffff1661ffff1681526020019081526020015f205f0160156101000a81548161ffff021916908361ffff1602179055505b5050505050565b5f805f80198587098587029250828110838203039150505f8103613f1d57838281613f1357613f12614970565b5b0492505050613ff0565b838110613f65578585856040517f63a05778000000000000000000000000000000000000000000000000000000008152600401613f5c93929190614d97565b60405180910390fd5b5f8486880990508281118203915080830392505f6001861901861690505f81870496508185049450600182835f0304019050808402851794505f60028860030218905080880260020381029050808802600203810290508088026002038102905080880260020381029050808802600203810290508088026002038102905080860296505050505050505b9392505050565b5f8061400c84670de0b6b3a764000085613ee5565b905067ffffffffffffffff8016811115614052576040517f2c5211c600000000000000000000000000000000000000000000000000000000815260040160405180910390fd5b8091505092915050565b5f8061407184670de0b6b3a764000085613ee5565b905069ffffffffffffffffffff80168111156140b9576040517f2c5211c600000000000000000000000000000000000000000000000000000000815260040160405180910390fd5b8091505092915050565b6040518061012001604052805f73ffffffffffffffffffffffffffffffffffffffff1681526020016140f361414c565b81526020015f61ffff1681526020015f151581526020015f73ffffffffffffffffffffffffffffffffffffffff1681526020015f6affffffffffffffffffffff1681526020015f81526020015f81526020015f81525090565b6040518061014001604052805f6affffffffffffffffffffff1681526020015f6affffffffffffffffffffff1681526020015f69ffffffffffffffffffff1681526020015f60028111156141a3576141a261456f565b5b81526020015f60ff1681526020015f60ff1681526020015f60ff1681526020015f67ffffffffffffffff1681526020015f63ffffffff1681526020015f64ffffffffff1681525090565b5f604051905090565b5f80fd5b5f80fd5b5f73ffffffffffffffffffffffffffffffffffffffff82169050919050565b5f614227826141fe565b9050919050565b6142378161421d565b8114614241575f80fd5b50565b5f813590506142528161422e565b92915050565b5f80fd5b5f601f19601f8301169050919050565b7f4e487b71000000000000000000000000000000000000000000000000000000005f52604160045260245ffd5b6142a28261425c565b810181811067ffffffffffffffff821117156142c1576142c061426c565b5b80604052505050565b5f6142d36141ed565b90506142df8282614299565b919050565b5f67ffffffffffffffff8211156142fe576142fd61426c565b5b602082029050602081019050919050565b5f80fd5b5f80fd5b5f60ff82169050919050565b61432c81614317565b8114614336575f80fd5b50565b5f8135905061434781614323565b92915050565b5f61ffff82169050919050565b6143638161434d565b811461436d575f80fd5b50565b5f8135905061437e8161435a565b92915050565b5f6060828403121561439957614398614313565b5b6143a360606142ca565b90505f6143b284828501614244565b5f8301525060206143c584828501614339565b60208301525060406143d984828501614370565b60408301525092915050565b5f6143f76143f2846142e4565b6142ca565b9050808382526020820190506060840283018581111561441a5761441961430f565b5b835b81811015614443578061442f8882614384565b84526020840193505060608101905061441c565b5050509392505050565b5f82601f83011261446157614460614258565b5b81356144718482602086016143e5565b91505092915050565b5f6affffffffffffffffffffff82169050919050565b6144998161447a565b81146144a3575f80fd5b50565b5f813590506144b481614490565b92915050565b5f8115159050919050565b6144ce816144ba565b81146144d8575f80fd5b50565b5f813590506144e9816144c5565b92915050565b5f805f8060808587031215614507576145066141f6565b5b5f61451487828801614244565b945050602085013567ffffffffffffffff811115614535576145346141fa565b5b6145418782880161444d565b9350506040614552878288016144a6565b9250506060614563878288016144db565b91505092959194509250565b7f4e487b71000000000000000000000000000000000000000000000000000000005f52602160045260245ffd5b7f4e487b71000000000000000000000000000000000000000000000000000000005f52603260045260245ffd5b6145d28161421d565b82525050565b5f6020820190506145eb5f8301846145c9565b92915050565b5f819050919050565b614603816145f1565b811461460d575f80fd5b50565b5f8151905061461e816145fa565b92915050565b5f60208284031215614639576146386141f6565b5b5f61464684828501614610565b91505092915050565b5f819050919050565b5f61467261466d6146688461447a565b61464f565b6145f1565b9050919050565b61468281614658565b82525050565b5f60408201905061469b5f8301856145c9565b6146a86020830184614679565b9392505050565b7f4e487b71000000000000000000000000000000000000000000000000000000005f52600160045260245ffd5b5f6cffffffffffffffffffffffffff82169050919050565b7f4e487b71000000000000000000000000000000000000000000000000000000005f52601160045260245ffd5b5f61472b826146dc565b9150614736836146dc565b925082820390506cffffffffffffffffffffffffff81111561475b5761475a6146f4565b5b92915050565b5f61476b8261447a565b91506147768361447a565b925082820190506affffffffffffffffffffff811115614799576147986146f4565b5b92915050565b5f6147a98261447a565b91506147b48361447a565b925082820390506affffffffffffffffffffff8111156147d7576147d66146f4565b5b92915050565b5f81519050919050565b5f82825260208201905092915050565b5f819050602082019050919050565b61480f8161421d565b82525050565b61481e81614317565b82525050565b61482d8161434d565b82525050565b606082015f8201516148475f850182614806565b50602082015161485a6020850182614815565b50604082015161486d6040850182614824565b50505050565b5f61487e8383614833565b60608301905092915050565b5f602082019050919050565b5f6148a0826147dd565b6148aa81856147e7565b93506148b5836147f7565b805f5b838110156148e55781516148cc8882614873565b97506148d78361488a565b9250506001810190506148b8565b5085935050505092915050565b6148fb816144ba565b82525050565b5f6040820190508181035f8301526149198185614896565b905061492860208301846148f2565b9392505050565b5f614939826145f1565b9150614944836145f1565b9250828202614952816145f1565b91508282048414831517614969576149686146f4565b5b5092915050565b7f4e487b71000000000000000000000000000000000000000000000000000000005f52601260045260245ffd5b5f6149a7826145f1565b91506149b2836145f1565b9250826149c2576149c1614970565b5b828204905092915050565b5f6149d7826145f1565b91506149e2836145f1565b92508282039050818111156149fa576149f96146f4565b5b92915050565b5f614a0a826146dc565b9150614a15836146dc565b925082820190506cffffffffffffffffffffffffff811115614a3a57614a396146f4565b5b92915050565b5f69ffffffffffffffffffff82169050919050565b614a5e81614a40565b8114614a68575f80fd5b50565b5f81519050614a7981614a55565b92915050565b5f819050919050565b614a9181614a7f565b8114614a9b575f80fd5b50565b5f81519050614aac81614a88565b92915050565b5f805f805f60a08688031215614acb57614aca6141f6565b5b5f614ad888828901614a6b565b9550506020614ae988828901614a9e565b9450506040614afa88828901614610565b9350506060614b0b88828901614610565b9250506080614b1c88828901614a6b565b9150509295509295909350565b5f614b3382614a7f565b9150614b3e83614a7f565b9250828202614b4c81614a7f565b91507f800000000000000000000000000000000000000000000000000000000000000084145f84121615614b8357614b826146f4565b5b8282058414831517614b9857614b976146f4565b5b5092915050565b5f67ffffffffffffffff82169050919050565b5f614bbc82614b9f565b9150614bc783614b9f565b9250828203905067ffffffffffffffff811115614be757614be66146f4565b5b92915050565b5f63ffffffff82169050919050565b5f614c0682614bed565b9150614c1183614bed565b9250828203905063ffffffff811115614c2d57614c2c6146f4565b5b92915050565b5f614c4d614c48614c4384614317565b61464f565b61434d565b9050919050565b614c5d81614c33565b82525050565b5f602082019050614c765f830184614c54565b92915050565b614c858161434d565b82525050565b5f602082019050614c9e5f830184614c7c565b92915050565b5f6fffffffffffffffffffffffffffffffff82169050919050565b614cc881614ca4565b82525050565b5f819050919050565b5f614cf1614cec614ce784614cce565b61464f565b614bed565b9050919050565b614d0181614cd7565b82525050565b5f604082019050614d1a5f830185614cbf565b614d276020830184614cf8565b9392505050565b5f614d38826145f1565b9150614d43836145f1565b9250828201905080821115614d5b57614d5a6146f4565b5b92915050565b614d6a816145f1565b82525050565b5f604082019050614d835f830185614d61565b614d906020830184614d61565b9392505050565b5f606082019050614daa5f830186614d61565b614db76020830185614d61565b614dc46040830184614d61565b94935050505056fea2646970667358221220614408346bf4a3f72f5ae8cd5f32f9be4291b535375143fae3716085e15af9ff64736f6c63430008150033","linkReferences":{}},"methodIdentifiers":{"liquidateSecondary(address,(address,uint8,uint16)[],uint88,bool)":"d96e8cae"},"id":17}