{"abi":[{"type":"function","name":"admin","inputs":[],"outputs":[{"name":"","type":"address","internalType":"address"}],"stateMutability":"view"},{"type":"function","name":"claimOwnership","inputs":[],"outputs":[],"stateMutability":"nonpayable"},{"type":"function","name":"createBridge","inputs":[{"name":"bridge","type":"address","internalType":"address"},{"name":"vault","type":"uint256","internalType":"uint256"},{"name":"withdrawalFee","type":"uint16","internalType":"uint16"}],"outputs":[],"stateMutability":"nonpayable"},{"type":"function","name":"createMarket","inputs":[{"name":"asset","type":"address","internalType":"address"},{"name":"a","type":"tuple","internalType":"struct STypes.Asset","components":[{"name":"ercDebt","type":"uint104","internalType":"uint104"},{"name":"dethCollateral","type":"uint88","internalType":"uint88"},{"name":"startingShortId","type":"uint16","internalType":"uint16"},{"name":"orderIdCounter","type":"uint16","internalType":"uint16"},{"name":"initialCR","type":"uint16","internalType":"uint16"},{"name":"frozen","type":"uint8","internalType":"enum F"},{"name":"vault","type":"uint8","internalType":"uint8"},{"name":"minBidEth","type":"uint8","internalType":"uint8"},{"name":"minAskEth","type":"uint8","internalType":"uint8"},{"name":"minShortErc","type":"uint16","internalType":"uint16"},{"name":"penaltyCR","type":"uint8","internalType":"uint8"},{"name":"tappFeePct","type":"uint8","internalType":"uint8"},{"name":"callerFeePct","type":"uint8","internalType":"uint8"},{"name":"forcedBidPriceBuffer","type":"uint8","internalType":"uint8"},{"name":"assetId","type":"uint8","internalType":"uint8"},{"name":"ercDebtRate","type":"uint64","internalType":"uint64"},{"name":"liquidationCR","type":"uint16","internalType":"uint16"},{"name":"recoveryCR","type":"uint8","internalType":"uint8"},{"name":"lastRedemptionTime","type":"uint32","internalType":"uint32"},{"name":"baseRate","type":"uint64","internalType":"uint64"},{"name":"oracle","type":"address","internalType":"address"},{"name":"filler1","type":"uint96","internalType":"uint96"}]}],"outputs":[],"stateMutability":"nonpayable"},{"type":"function","name":"createVault","inputs":[{"name":"deth","type":"address","internalType":"address"},{"name":"vault","type":"uint256","internalType":"uint256"},{"name":"params","type":"tuple","internalType":"struct MTypes.CreateVaultParams","components":[{"name":"dethTithePercent","type":"uint16","internalType":"uint16"},{"name":"dittoMatchedRate","type":"uint16","internalType":"uint16"},{"name":"dittoShorterRate","type":"uint16","internalType":"uint16"}]}],"outputs":[],"stateMutability":"nonpayable"},{"type":"function","name":"owner","inputs":[],"outputs":[{"name":"","type":"address","internalType":"address"}],"stateMutability":"view"},{"type":"function","name":"ownerCandidate","inputs":[],"outputs":[{"name":"","type":"address","internalType":"address"}],"stateMutability":"view"},{"type":"function","name":"setCallerFeePct","inputs":[{"name":"asset","type":"address","internalType":"address"},{"name":"value","type":"uint8","internalType":"uint8"}],"outputs":[],"stateMutability":"nonpayable"},{"type":"function","name":"setDittoMatchedRate","inputs":[{"name":"vault","type":"uint256","internalType":"uint256"},{"name":"rewardRate","type":"uint16","internalType":"uint16"}],"outputs":[],"stateMutability":"nonpayable"},{"type":"function","name":"setDittoShorterRate","inputs":[{"name":"vault","type":"uint256","internalType":"uint256"},{"name":"rewardRate","type":"uint16","internalType":"uint16"}],"outputs":[],"stateMutability":"nonpayable"},{"type":"function","name":"setForcedBidPriceBuffer","inputs":[{"name":"asset","type":"address","internalType":"address"},{"name":"value","type":"uint8","internalType":"uint8"}],"outputs":[],"stateMutability":"nonpayable"},{"type":"function","name":"setInitialCR","inputs":[{"name":"asset","type":"address","internalType":"address"},{"name":"value","type":"uint16","internalType":"uint16"}],"outputs":[],"stateMutability":"nonpayable"},{"type":"function","name":"setLiquidationCR","inputs":[{"name":"asset","type":"address","internalType":"address"},{"name":"value","type":"uint16","internalType":"uint16"}],"outputs":[],"stateMutability":"nonpayable"},{"type":"function","name":"setMinAskEth","inputs":[{"name":"asset","type":"address","internalType":"address"},{"name":"value","type":"uint8","internalType":"uint8"}],"outputs":[],"stateMutability":"nonpayable"},{"type":"function","name":"setMinBidEth","inputs":[{"name":"asset","type":"address","internalType":"address"},{"name":"value","type":"uint8","internalType":"uint8"}],"outputs":[],"stateMutability":"nonpayable"},{"type":"function","name":"setMinShortErc","inputs":[{"name":"asset","type":"address","internalType":"address"},{"name":"value","type":"uint16","internalType":"uint16"}],"outputs":[],"stateMutability":"nonpayable"},{"type":"function","name":"setPenaltyCR","inputs":[{"name":"asset","type":"address","internalType":"address"},{"name":"value","type":"uint8","internalType":"uint8"}],"outputs":[],"stateMutability":"nonpayable"},{"type":"function","name":"setRecoveryCR","inputs":[{"name":"asset","type":"address","internalType":"address"},{"name":"value","type":"uint8","internalType":"uint8"}],"outputs":[],"stateMutability":"nonpayable"},{"type":"function","name":"setTappFeePct","inputs":[{"name":"asset","type":"address","internalType":"address"},{"name":"value","type":"uint8","internalType":"uint8"}],"outputs":[],"stateMutability":"nonpayable"},{"type":"function","name":"setTithe","inputs":[{"name":"vault","type":"uint256","internalType":"uint256"},{"name":"dethTithePercent","type":"uint16","internalType":"uint16"}],"outputs":[],"stateMutability":"nonpayable"},{"type":"function","name":"setWithdrawalFee","inputs":[{"name":"bridge","type":"address","internalType":"address"},{"name":"withdrawalFee","type":"uint16","internalType":"uint16"}],"outputs":[],"stateMutability":"nonpayable"},{"type":"function","name":"transferAdminship","inputs":[{"name":"newAdmin","type":"address","internalType":"address"}],"outputs":[],"stateMutability":"nonpayable"},{"type":"function","name":"transferOwnership","inputs":[{"name":"newOwner","type":"address","internalType":"address"}],"outputs":[],"stateMutability":"nonpayable"},{"type":"event","name":"ChangeBridgeSetting","inputs":[{"name":"bridge","type":"address","indexed":true,"internalType":"address"}],"anonymous":false},{"type":"event","name":"ChangeMarketSetting","inputs":[{"name":"asset","type":"address","indexed":true,"internalType":"address"}],"anonymous":false},{"type":"event","name":"ChangeVaultSetting","inputs":[{"name":"vault","type":"uint256","indexed":true,"internalType":"uint256"}],"anonymous":false},{"type":"event","name":"CreateBridge","inputs":[{"name":"bridge","type":"address","indexed":true,"internalType":"address"},{"name":"bridgeStruct","type":"tuple","indexed":false,"internalType":"struct STypes.Bridge","components":[{"name":"vault","type":"uint8","internalType":"uint8"},{"name":"withdrawalFee","type":"uint16","internalType":"uint16"}]}],"anonymous":false},{"type":"event","name":"CreateMarket","inputs":[{"name":"asset","type":"address","indexed":true,"internalType":"address"},{"name":"assetStruct","type":"tuple","indexed":false,"internalType":"struct STypes.Asset","components":[{"name":"ercDebt","type":"uint104","internalType":"uint104"},{"name":"dethCollateral","type":"uint88","internalType":"uint88"},{"name":"startingShortId","type":"uint16","internalType":"uint16"},{"name":"orderIdCounter","type":"uint16","internalType":"uint16"},{"name":"initialCR","type":"uint16","internalType":"uint16"},{"name":"frozen","type":"uint8","internalType":"enum F"},{"name":"vault","type":"uint8","internalType":"uint8"},{"name":"minBidEth","type":"uint8","internalType":"uint8"},{"name":"minAskEth","type":"uint8","internalType":"uint8"},{"name":"minShortErc","type":"uint16","internalType":"uint16"},{"name":"penaltyCR","type":"uint8","internalType":"uint8"},{"name":"tappFeePct","type":"uint8","internalType":"uint8"},{"name":"callerFeePct","type":"uint8","internalType":"uint8"},{"name":"forcedBidPriceBuffer","type":"uint8","internalType":"uint8"},{"name":"assetId","type":"uint8","internalType":"uint8"},{"name":"ercDebtRate","type":"uint64","internalType":"uint64"},{"name":"liquidationCR","type":"uint16","internalType":"uint16"},{"name":"recoveryCR","type":"uint8","internalType":"uint8"},{"name":"lastRedemptionTime","type":"uint32","internalType":"uint32"},{"name":"baseRate","type":"uint64","internalType":"uint64"},{"name":"oracle","type":"address","internalType":"address"},{"name":"filler1","type":"uint96","internalType":"uint96"}]}],"anonymous":false},{"type":"event","name":"CreateVault","inputs":[{"name":"deth","type":"address","indexed":true,"internalType":"address"},{"name":"vault","type":"uint256","indexed":true,"internalType":"uint256"}],"anonymous":false},{"type":"event","name":"NewAdmin","inputs":[{"name":"newAdmin","type":"address","indexed":false,"internalType":"address"}],"anonymous":false},{"type":"event","name":"NewOwnerCandidate","inputs":[{"name":"newOwnerCandidate","type":"address","indexed":false,"internalType":"address"}],"anonymous":false},{"type":"event","name":"OwnershipTransferred","inputs":[{"name":"previousOwner","type":"address","indexed":true,"internalType":"address"},{"name":"newOwner","type":"address","indexed":true,"internalType":"address"}],"anonymous":false},{"type":"error","name":"BridgeAlreadyCreated","inputs":[]},{"type":"error","name":"InsufficientEthInLiquidityPool","inputs":[]},{"type":"error","name":"InvalidAsset","inputs":[]},{"type":"error","name":"InvalidPrice","inputs":[]},{"type":"error","name":"InvalidTithe","inputs":[]},{"type":"error","name":"InvalidTwapPrice","inputs":[]},{"type":"error","name":"InvalidVault","inputs":[]},{"type":"error","name":"MarketAlreadyCreated","inputs":[]},{"type":"error","name":"NotOwnerCandidate","inputs":[]},{"type":"error","name":"NotOwnerOrAdmin","inputs":[]},{"type":"error","name":"PRBMath_MulDiv18_Overflow","inputs":[{"name":"x","type":"uint256","internalType":"uint256"},{"name":"y","type":"uint256","internalType":"uint256"}]},{"type":"error","name":"PRBMath_MulDiv_Overflow","inputs":[{"name":"x","type":"uint256","internalType":"uint256"},{"name":"y","type":"uint256","internalType":"uint256"},{"name":"denominator","type":"uint256","internalType":"uint256"}]},{"type":"error","name":"ParameterIsZero","inputs":[]},{"type":"error","name":"VaultAlreadyCreated","inputs":[]}],"bytecode":{"object":"0x608060405234801561000f575f80fd5b50615d33806200001e5f395ff3fe608060405234801561000f575f80fd5b506004361061014b575f3560e01c80635f504a82116100c1578063920ed6f41161007a578063920ed6f41461031d578063ca144c7114610339578063cbee05bf14610355578063f2fde38b14610371578063f62f37051461038d578063f851a440146103a95761014b565b80635f504a82146102715780636301727b1461028f5780636cca492b146102ab5780636f864baf146102c75780638da5cb5b146102e3578063912bed06146103015761014b565b806331f1f1491161011357806331f1f149146101db5780633824d852146101f75780633ba254f1146102135780634e71e0c81461022f57806354ea9f35146102395780635be7cc16146102555761014b565b806303bf6bec1461014f5780630c3819861461016b5780630c6c91b4146101875780631839ce54146101a357806328a08f1c146101bf575b5f80fd5b6101696004803603810190610164919061461c565b6103c7565b005b61018560048036038101906101809190614691565b6104e0565b005b6101a1600480360381019061019c919061461c565b6105f9565b005b6101bd60048036038101906101b89190614691565b610712565b005b6101d960048036038101906101d4919061461c565b6108c3565b005b6101f560048036038101906101f09190614691565b6109dc565b005b610211600480360381019061020c9190614702565b610af5565b005b61022d60048036038101906102289190614762565b610bf8565b005b610237610d58565b005b610253600480360381019061024e919061461c565b610e11565b005b61026f600480360381019061026a91906147b2565b610f2a565b005b61027961106d565b60405161028691906147ec565b60405180910390f35b6102a960048036038101906102a49190614691565b611097565b005b6102c560048036038101906102c09190614805565b6111b0565b005b6102e160048036038101906102dc919061461c565b611368565b005b6102eb611481565b6040516102f891906147ec565b60405180910390f35b61031b60048036038101906103169190614c38565b61148f565b005b6103376004803603810190610332919061461c565b612012565b005b610353600480360381019061034e919061461c565b61212b565b005b61036f600480360381019061036a9190614702565b612244565b005b61038b600480360381019061038691906147b2565b612347565b005b6103a760048036038101906103a29190614702565b6123cb565b005b6103b16124ce565b6040516103be91906147ec565b60405180910390f35b6103cf6124f7565b73ffffffffffffffffffffffffffffffffffffffff163373ffffffffffffffffffffffffffffffffffffffff161415801561045857505f80015f9054906101000a900473ffffffffffffffffffffffffffffffffffffffff1673ffffffffffffffffffffffffffffffffffffffff163373ffffffffffffffffffffffffffffffffffffffff1614155b1561048f576040517fdce3812500000000000000000000000000000000000000000000000000000000815260040160405180910390fd5b6104998282612529565b8173ffffffffffffffffffffffffffffffffffffffff167f176c9a97fca1fd92bc74be87c70d2a5c973281e710f0d22f44b613523046f3f560405160405180910390a25050565b6104e86124f7565b73ffffffffffffffffffffffffffffffffffffffff163373ffffffffffffffffffffffffffffffffffffffff161415801561057157505f80015f9054906101000a900473ffffffffffffffffffffffffffffffffffffffff1673ffffffffffffffffffffffffffffffffffffffff163373ffffffffffffffffffffffffffffffffffffffff1614155b156105a8576040517fdce3812500000000000000000000000000000000000000000000000000000000815260040160405180910390fd5b6105b28282612614565b8173ffffffffffffffffffffffffffffffffffffffff167f176c9a97fca1fd92bc74be87c70d2a5c973281e710f0d22f44b613523046f3f560405160405180910390a25050565b6106016124f7565b73ffffffffffffffffffffffffffffffffffffffff163373ffffffffffffffffffffffffffffffffffffffff161415801561068a57505f80015f9054906101000a900473ffffffffffffffffffffffffffffffffffffffff1673ffffffffffffffffffffffffffffffffffffffff163373ffffffffffffffffffffffffffffffffffffffff1614155b156106c1576040517fdce3812500000000000000000000000000000000000000000000000000000000815260040160405180910390fd5b6106cb82826126c6565b8173ffffffffffffffffffffffffffffffffffffffff167f176c9a97fca1fd92bc74be87c70d2a5c973281e710f0d22f44b613523046f3f560405160405180910390a25050565b61071a6124f7565b73ffffffffffffffffffffffffffffffffffffffff163373ffffffffffffffffffffffffffffffffffffffff16141580156107a357505f80015f9054906101000a900473ffffffffffffffffffffffffffffffffffffffff1673ffffffffffffffffffffffffffffffffffffffff163373ffffffffffffffffffffffffffffffffffffffff1614155b156107da576040517fdce3812500000000000000000000000000000000000000000000000000000000815260040160405180910390fd5b5f6008015f8373ffffffffffffffffffffffffffffffffffffffff1673ffffffffffffffffffffffffffffffffffffffff1681526020019081526020015f2060010160049054906101000a900460ff1660ff168161ffff1611610872576040517f08c379a000000000000000000000000000000000000000000000000000000000815260040161086990614cd1565b60405180910390fd5b61087c8282612805565b8173ffffffffffffffffffffffffffffffffffffffff167f176c9a97fca1fd92bc74be87c70d2a5c973281e710f0d22f44b613523046f3f560405160405180910390a25050565b6108cb6124f7565b73ffffffffffffffffffffffffffffffffffffffff163373ffffffffffffffffffffffffffffffffffffffff161415801561095457505f80015f9054906101000a900473ffffffffffffffffffffffffffffffffffffffff1673ffffffffffffffffffffffffffffffffffffffff163373ffffffffffffffffffffffffffffffffffffffff1614155b1561098b576040517fdce3812500000000000000000000000000000000000000000000000000000000815260040160405180910390fd5b61099582826128f6565b8173ffffffffffffffffffffffffffffffffffffffff167f176c9a97fca1fd92bc74be87c70d2a5c973281e710f0d22f44b613523046f3f560405160405180910390a25050565b6109e46124f7565b73ffffffffffffffffffffffffffffffffffffffff163373ffffffffffffffffffffffffffffffffffffffff1614158015610a6d57505f80015f9054906101000a900473ffffffffffffffffffffffffffffffffffffffff1673ffffffffffffffffffffffffffffffffffffffff163373ffffffffffffffffffffffffffffffffffffffff1614155b15610aa4576040517fdce3812500000000000000000000000000000000000000000000000000000000815260040160405180910390fd5b610aae828261299a565b8173ffffffffffffffffffffffffffffffffffffffff167f176c9a97fca1fd92bc74be87c70d2a5c973281e710f0d22f44b613523046f3f560405160405180910390a25050565b610afd6124f7565b73ffffffffffffffffffffffffffffffffffffffff163373ffffffffffffffffffffffffffffffffffffffff1614158015610b8657505f80015f9054906101000a900473ffffffffffffffffffffffffffffffffffffffff1673ffffffffffffffffffffffffffffffffffffffff163373ffffffffffffffffffffffffffffffffffffffff1614155b15610bbd576040517fdce3812500000000000000000000000000000000000000000000000000000000815260040160405180910390fd5b610bc78282612a41565b817fb38f3ea9dfbc88b1e2d3254953019184a51acf58bdb975272d74570ed3f547ed60405160405180910390a25050565b610c00612ab6565b5f806003015f8573ffffffffffffffffffffffffffffffffffffffff1673ffffffffffffffffffffffffffffffffffffffff1681526020019081526020015f205414610c78576040517f9cbc0b2e00000000000000000000000000000000000000000000000000000000815260040160405180910390fd5b815f6003015f8573ffffffffffffffffffffffffffffffffffffffff1673ffffffffffffffffffffffffffffffffffffffff1681526020019081526020015f2081905550610cd782825f016020810190610cd29190614cef565b612a41565b610cf382826020016020810190610cee9190614cef565b612b51565b610d0f82826040016020810190610d0a9190614cef565b612bce565b818373ffffffffffffffffffffffffffffffffffffffff167f31f3334dc9bd026d54d245a1e186015d00b5f7f75102fb9ac3f682dcc72d6ff660405160405180910390a3505050565b3373ffffffffffffffffffffffffffffffffffffffff165f6001015f9054906101000a900473ffffffffffffffffffffffffffffffffffffffff1673ffffffffffffffffffffffffffffffffffffffff1614610de0576040517ff74d2cb000000000000000000000000000000000000000000000000000000000815260040160405180910390fd5b610de933612c4b565b5f6001015f6101000a81549073ffffffffffffffffffffffffffffffffffffffff0219169055565b610e196124f7565b73ffffffffffffffffffffffffffffffffffffffff163373ffffffffffffffffffffffffffffffffffffffff1614158015610ea257505f80015f9054906101000a900473ffffffffffffffffffffffffffffffffffffffff1673ffffffffffffffffffffffffffffffffffffffff163373ffffffffffffffffffffffffffffffffffffffff1614155b15610ed9576040517fdce3812500000000000000000000000000000000000000000000000000000000815260040160405180910390fd5b610ee38282612d20565b8173ffffffffffffffffffffffffffffffffffffffff167f176c9a97fca1fd92bc74be87c70d2a5c973281e710f0d22f44b613523046f3f560405160405180910390a25050565b610f326124f7565b73ffffffffffffffffffffffffffffffffffffffff163373ffffffffffffffffffffffffffffffffffffffff1614158015610fbb57505f80015f9054906101000a900473ffffffffffffffffffffffffffffffffffffffff1673ffffffffffffffffffffffffffffffffffffffff163373ffffffffffffffffffffffffffffffffffffffff1614155b15610ff2576040517fdce3812500000000000000000000000000000000000000000000000000000000815260040160405180910390fd5b805f80015f6101000a81548173ffffffffffffffffffffffffffffffffffffffff021916908373ffffffffffffffffffffffffffffffffffffffff1602179055507f71614071b88dee5e0b2ae578a9dd7b2ebbe9ae832ba419dc0242cd065a290b6c8160405161106291906147ec565b60405180910390a150565b5f806001015f9054906101000a900473ffffffffffffffffffffffffffffffffffffffff16905090565b61109f6124f7565b73ffffffffffffffffffffffffffffffffffffffff163373ffffffffffffffffffffffffffffffffffffffff161415801561112857505f80015f9054906101000a900473ffffffffffffffffffffffffffffffffffffffff1673ffffffffffffffffffffffffffffffffffffffff163373ffffffffffffffffffffffffffffffffffffffff1614155b1561115f576040517fdce3812500000000000000000000000000000000000000000000000000000000815260040160405180910390fd5b6111698282612e0b565b8173ffffffffffffffffffffffffffffffffffffffff167f6a6f407da4fdc0bf2293bd6cecdf052dbdf30c15140e12cd16fb3ce8c8540a5260405160405180910390a25050565b6111b8612ab6565b5f82036111f1576040517fd03a632000000000000000000000000000000000000000000000000000000000815260040160405180910390fd5b5f806004015f8573ffffffffffffffffffffffffffffffffffffffff1673ffffffffffffffffffffffffffffffffffffffff1681526020019081526020015f2090505f815f015f9054906101000a900460ff1660ff161461127e576040517fa101b31300000000000000000000000000000000000000000000000000000000815260040160405180910390fd5b5f6006015f8481526020019081526020015f2084908060018154018082558091505060019003905f5260205f20015f9091909190916101000a81548173ffffffffffffffffffffffffffffffffffffffff021916908373ffffffffffffffffffffffffffffffffffffffff16021790555082815f015f6101000a81548160ff021916908360ff1602179055506113148483612e0b565b8373ffffffffffffffffffffffffffffffffffffffff167f94a711809df088b4e1631ac7c0cc8f81793db2cb6a2de9c79d102dbd3d2d5a768260405161135a9190614dd8565b60405180910390a250505050565b6113706124f7565b73ffffffffffffffffffffffffffffffffffffffff163373ffffffffffffffffffffffffffffffffffffffff16141580156113f957505f80015f9054906101000a900473ffffffffffffffffffffffffffffffffffffffff1673ffffffffffffffffffffffffffffffffffffffff163373ffffffffffffffffffffffffffffffffffffffff1614155b15611430576040517fdce3812500000000000000000000000000000000000000000000000000000000815260040160405180910390fd5b61143a8282612eb3565b8173ffffffffffffffffffffffffffffffffffffffff167f176c9a97fca1fd92bc74be87c70d2a5c973281e710f0d22f44b613523046f3f560405160405180910390a25050565b5f61148a6124f7565b905090565b611497612ab6565b5f806008015f8473ffffffffffffffffffffffffffffffffffffffff1673ffffffffffffffffffffffffffffffffffffffff1681526020019081526020015f2090505f815f01601a9054906101000a900461ffff1661ffff1614611527576040517fd7d82e5800000000000000000000000000000000000000000000000000000000815260040160405180910390fd5b8160c00151815f01601f6101000a81548160ff021916908360ff16021790555061155683836102800151612fa0565b5f601201805490508160010160086101000a81548160ff021916908360ff160217905550825f6013015f8360010160089054906101000a900460ff1660ff1681526020019081526020015f205f6101000a81548173ffffffffffffffffffffffffffffffffffffffff021916908373ffffffffffffffffffffffffffffffffffffffff1602179055505f60120183908060018154018082558091505060019003905f5260205f20015f9091909190916101000a81548173ffffffffffffffffffffffffffffffffffffffff021916908373ffffffffffffffffffffffffffffffffffffffff1602179055506116496144b4565b600160ff16816040019061ffff16908161ffff1681525050600160ff16816060019061ffff16908161ffff1681525050600160ff16816080019061ffff16908161ffff1681525050805f600c015f8673ffffffffffffffffffffffffffffffffffffffff1673ffffffffffffffffffffffffffffffffffffffff1681526020019081526020015f205f600160ff1661ffff1681526020019081526020015f205f820151815f015f6101000a8154816affffffffffffffffffffff02191690836affffffffffffffffffffff1602179055506020820151815f01600b6101000a81548169ffffffffffffffffffff021916908369ffffffffffffffffffff1602179055506040820151815f0160156101000a81548161ffff021916908361ffff1602179055506060820151815f0160176101000a81548161ffff021916908361ffff1602179055506080820151815f0160196101000a81548161ffff021916908361ffff16021790555060a0820151815f01601b6101000a81548160ff021916908360078111156117dc576117db614df1565b5b021790555060c0820151815f01601c6101000a81548163ffffffff021916908363ffffffff16021790555060e0820151816001015f6101000a81548173ffffffffffffffffffffffffffffffffffffffff021916908373ffffffffffffffffffffffffffffffffffffffff1602179055506101008201518160010160146101000a81548160ff0219169083600781111561187957611878614df1565b5b02179055506101208201518160010160156101000a81548161ffff021916908361ffff1602179055506101408201518160010160176101000a81548160ff021916908360ff1602179055506101608201518160010160186101000a81548167ffffffffffffffff021916908367ffffffffffffffff16021790555090505f600b015f8673ffffffffffffffffffffffffffffffffffffffff1673ffffffffffffffffffffffffffffffffffffffff1681526020019081526020015f205f600160ff1661ffff1681526020019081526020015f205f82015f9054906101000a90046affffffffffffffffffffff16815f015f6101000a8154816affffffffffffffffffffff02191690836affffffffffffffffffffff1602179055505f8201600b9054906101000a900469ffffffffffffffffffff16815f01600b6101000a81548169ffffffffffffffffffff021916908369ffffffffffffffffffff1602179055505f820160159054906101000a900461ffff16815f0160156101000a81548161ffff021916908361ffff1602179055505f820160179054906101000a900461ffff16815f0160176101000a81548161ffff021916908361ffff1602179055505f820160199054906101000a900461ffff16815f0160196101000a81548161ffff021916908361ffff1602179055505f8201601b9054906101000a900460ff16815f01601b6101000a81548160ff02191690836007811115611a9e57611a9d614df1565b5b02179055505f8201601c9054906101000a900463ffffffff16815f01601c6101000a81548163ffffffff021916908363ffffffff160217905550600182015f9054906101000a900473ffffffffffffffffffffffffffffffffffffffff16816001015f6101000a81548173ffffffffffffffffffffffffffffffffffffffff021916908373ffffffffffffffffffffffffffffffffffffffff1602179055506001820160149054906101000a900460ff168160010160146101000a81548160ff02191690836007811115611b7557611b74614df1565b5b02179055506001820160159054906101000a900461ffff168160010160156101000a81548161ffff021916908361ffff1602179055506001820160179054906101000a900460ff168160010160176101000a81548160ff021916908360ff1602179055506001820160189054906101000a900467ffffffffffffffff168160010160186101000a81548167ffffffffffffffff021916908367ffffffffffffffff160217905550905050611c276130c0565b8160c0019063ffffffff16908163ffffffff1681525050611c47846130d6565b69ffffffffffffffffffff16815f01906affffffffffffffffffffff1690816affffffffffffffffffffff1681525050805f600a015f8673ffffffffffffffffffffffffffffffffffffffff1673ffffffffffffffffffffffffffffffffffffffff1681526020019081526020015f205f600160ff1661ffff1681526020019081526020015f205f820151815f015f6101000a8154816affffffffffffffffffffff02191690836affffffffffffffffffffff1602179055506020820151815f01600b6101000a81548169ffffffffffffffffffff021916908369ffffffffffffffffffff1602179055506040820151815f0160156101000a81548161ffff021916908361ffff1602179055506060820151815f0160176101000a81548161ffff021916908361ffff1602179055506080820151815f0160196101000a81548161ffff021916908361ffff16021790555060a0820151815f01601b6101000a81548160ff02191690836007811115611dc257611dc1614df1565b5b021790555060c0820151815f01601c6101000a81548163ffffffff021916908363ffffffff16021790555060e0820151816001015f6101000a81548173ffffffffffffffffffffffffffffffffffffffff021916908373ffffffffffffffffffffffffffffffffffffffff1602179055506101008201518160010160146101000a81548160ff02191690836007811115611e5f57611e5e614df1565b5b02179055506101208201518160010160156101000a81548161ffff021916908361ffff1602179055506101408201518160010160176101000a81548160ff021916908360ff1602179055506101608201518160010160186101000a81548167ffffffffffffffff021916908367ffffffffffffffff160217905550905050606460ff16825f01601a6101000a81548161ffff021916908361ffff160217905550600160ff16825f0160186101000a81548161ffff021916908361ffff160217905550611f2f848460800151612614565b611f3e84846102000151612805565b611f4d84846101a00151612eb3565b611f5c848461014001516126c6565b611f6b84846101600151612529565b611f7a84846101800151612d20565b611f88848460e001516134e0565b611f97848461010001516128f6565b611fa68484610120015161299a565b611fb584846102200151613583565b611fbe84613670565b8373ffffffffffffffffffffffffffffffffffffffff167f3e05ba8abcf1c1d57018e0586c1b17e80ef0a23ce2b8ee025f8f0bad03601710836040516120049190615444565b60405180910390a250505050565b61201a6124f7565b73ffffffffffffffffffffffffffffffffffffffff163373ffffffffffffffffffffffffffffffffffffffff16141580156120a357505f80015f9054906101000a900473ffffffffffffffffffffffffffffffffffffffff1673ffffffffffffffffffffffffffffffffffffffff163373ffffffffffffffffffffffffffffffffffffffff1614155b156120da576040517fdce3812500000000000000000000000000000000000000000000000000000000815260040160405180910390fd5b6120e482826134e0565b8173ffffffffffffffffffffffffffffffffffffffff167f176c9a97fca1fd92bc74be87c70d2a5c973281e710f0d22f44b613523046f3f560405160405180910390a25050565b6121336124f7565b73ffffffffffffffffffffffffffffffffffffffff163373ffffffffffffffffffffffffffffffffffffffff16141580156121bc57505f80015f9054906101000a900473ffffffffffffffffffffffffffffffffffffffff1673ffffffffffffffffffffffffffffffffffffffff163373ffffffffffffffffffffffffffffffffffffffff1614155b156121f3576040517fdce3812500000000000000000000000000000000000000000000000000000000815260040160405180910390fd5b6121fd8282613583565b8173ffffffffffffffffffffffffffffffffffffffff167f176c9a97fca1fd92bc74be87c70d2a5c973281e710f0d22f44b613523046f3f560405160405180910390a25050565b61224c6124f7565b73ffffffffffffffffffffffffffffffffffffffff163373ffffffffffffffffffffffffffffffffffffffff16141580156122d557505f80015f9054906101000a900473ffffffffffffffffffffffffffffffffffffffff1673ffffffffffffffffffffffffffffffffffffffff163373ffffffffffffffffffffffffffffffffffffffff1614155b1561230c576040517fdce3812500000000000000000000000000000000000000000000000000000000815260040160405180910390fd5b6123168282612b51565b817fb38f3ea9dfbc88b1e2d3254953019184a51acf58bdb975272d74570ed3f547ed60405160405180910390a25050565b61234f612ab6565b805f6001015f6101000a81548173ffffffffffffffffffffffffffffffffffffffff021916908373ffffffffffffffffffffffffffffffffffffffff1602179055507fc1e5791742d47e3e0d710cd0917c5cb15319ebc3392b3ba5a77d9b530bdc3b3a816040516123c091906147ec565b60405180910390a150565b6123d36124f7565b73ffffffffffffffffffffffffffffffffffffffff163373ffffffffffffffffffffffffffffffffffffffff161415801561245c57505f80015f9054906101000a900473ffffffffffffffffffffffffffffffffffffffff1673ffffffffffffffffffffffffffffffffffffffff163373ffffffffffffffffffffffffffffffffffffffff1614155b15612493576040517fdce3812500000000000000000000000000000000000000000000000000000000815260040160405180910390fd5b61249d8282612bce565b817fb38f3ea9dfbc88b1e2d3254953019184a51acf58bdb975272d74570ed3f547ed60405160405180910390a25050565b5f805f015f9054906101000a900473ffffffffffffffffffffffffffffffffffffffff16905090565b5f612500613ae2565b60030160029054906101000a900473ffffffffffffffffffffffffffffffffffffffff16905090565b5f8160ff161161256e576040517f08c379a0000000000000000000000000000000000000000000000000000000008152600401612565906154a8565b60405180910390fd5b60fa8160ff1611156125b5576040517f08c379a00000000000000000000000000000000000000000000000000000000081526004016125ac90615510565b60405180910390fd5b805f6008015f8473ffffffffffffffffffffffffffffffffffffffff1673ffffffffffffffffffffffffffffffffffffffff1681526020019081526020015f2060010160056101000a81548160ff021916908360ff1602179055505050565b805f6008015f8473ffffffffffffffffffffffffffffffffffffffff1673ffffffffffffffffffffffffffffffffffffffff1681526020019081526020015f205f01601c6101000a81548161ffff021916908361ffff16021790555067d02ab486cedc000061268283613b0e565b106126c2576040517f08c379a00000000000000000000000000000000000000000000000000000000081526004016126b990615578565b60405180910390fd5b5050565b60648160ff16101561270d576040517f08c379a0000000000000000000000000000000000000000000000000000000008152600401612704906155e0565b60405180910390fd5b60788160ff161115612754576040517f08c379a000000000000000000000000000000000000000000000000000000000815260040161274b90615648565b60405180910390fd5b805f6008015f8473ffffffffffffffffffffffffffffffffffffffff1673ffffffffffffffffffffffffffffffffffffffff1681526020019081526020015f2060010160046101000a81548160ff021916908360ff1602179055506127b882613b95565b6127c183613c1d565b10612801576040517f08c379a00000000000000000000000000000000000000000000000000000000081526004016127f8906156b0565b60405180910390fd5b5050565b60648161ffff161161284c576040517f08c379a0000000000000000000000000000000000000000000000000000000008152600401612843906155e0565b60405180910390fd5b6101f48161ffff161115612895576040517f08c379a000000000000000000000000000000000000000000000000000000000815260040161288c90615718565b60405180910390fd5b805f6008015f8473ffffffffffffffffffffffffffffffffffffffff1673ffffffffffffffffffffffffffffffffffffffff1681526020019081526020015f2060010160116101000a81548161ffff021916908361ffff1602179055505050565b5f8160ff161161293b576040517f08c379a0000000000000000000000000000000000000000000000000000000008152600401612932906154a8565b60405180910390fd5b805f6008015f8473ffffffffffffffffffffffffffffffffffffffff1673ffffffffffffffffffffffffffffffffffffffff1681526020019081526020015f2060010160016101000a81548160ff021916908360ff1602179055505050565b5f8161ffff16116129e0576040517f08c379a00000000000000000000000000000000000000000000000000000000081526004016129d7906154a8565b60405180910390fd5b805f6008015f8473ffffffffffffffffffffffffffffffffffffffff1673ffffffffffffffffffffffffffffffffffffffff1681526020019081526020015f2060010160026101000a81548161ffff021916908361ffff1602179055505050565b610d058161ffff161115612a81576040517f8051e78200000000000000000000000000000000000000000000000000000000815260040160405180910390fd5b805f6005015f8481526020019081526020015f20600101600b6101000a81548161ffff021916908361ffff1602179055505050565b612abe613ae2565b60030160029054906101000a900473ffffffffffffffffffffffffffffffffffffffff1673ffffffffffffffffffffffffffffffffffffffff163373ffffffffffffffffffffffffffffffffffffffff1614612b4f576040517f08c379a0000000000000000000000000000000000000000000000000000000008152600401612b46906157a6565b60405180910390fd5b565b60648161ffff161115612b99576040517f08c379a0000000000000000000000000000000000000000000000000000000008152600401612b909061580e565b60405180910390fd5b805f6005015f8481526020019081526020015f20600201601c6101000a81548161ffff021916908361ffff1602179055505050565b60648161ffff161115612c16576040517f08c379a0000000000000000000000000000000000000000000000000000000008152600401612c0d9061580e565b60405180910390fd5b805f6005015f8481526020019081526020015f20600101600d6101000a81548161ffff021916908361ffff1602179055505050565b5f612c54613ae2565b90505f8160030160029054906101000a900473ffffffffffffffffffffffffffffffffffffffff169050828260030160026101000a81548173ffffffffffffffffffffffffffffffffffffffff021916908373ffffffffffffffffffffffffffffffffffffffff1602179055508273ffffffffffffffffffffffffffffffffffffffff168173ffffffffffffffffffffffffffffffffffffffff167f8be0079c531659141344cd1fd0a4f28419497f9722a3daafe3b4186f6b6457e060405160405180910390a3505050565b5f8160ff1611612d65576040517f08c379a0000000000000000000000000000000000000000000000000000000008152600401612d5c906154a8565b60405180910390fd5b60fa8160ff161115612dac576040517f08c379a0000000000000000000000000000000000000000000000000000000008152600401612da390615510565b60405180910390fd5b805f6008015f8473ffffffffffffffffffffffffffffffffffffffff1673ffffffffffffffffffffffffffffffffffffffff1681526020019081526020015f2060010160066101000a81548160ff021916908360ff1602179055505050565b60c88161ffff161115612e53576040517f08c379a0000000000000000000000000000000000000000000000000000000008152600401612e4a90615876565b60405180910390fd5b805f6004015f8473ffffffffffffffffffffffffffffffffffffffff1673ffffffffffffffffffffffffffffffffffffffff1681526020019081526020015f205f0160016101000a81548161ffff021916908361ffff1602179055505050565b60648160ff161015612efa576040517f08c379a0000000000000000000000000000000000000000000000000000000008152600401612ef1906155e0565b60405180910390fd5b60c88160ff161115612f41576040517f08c379a0000000000000000000000000000000000000000000000000000000008152600401612f38906158de565b60405180910390fd5b805f6008015f8473ffffffffffffffffffffffffffffffffffffffff1673ffffffffffffffffffffffffffffffffffffffff1681526020019081526020015f2060010160076101000a81548160ff021916908360ff1602179055505050565b5f73ffffffffffffffffffffffffffffffffffffffff168273ffffffffffffffffffffffffffffffffffffffff16148061300557505f73ffffffffffffffffffffffffffffffffffffffff168173ffffffffffffffffffffffffffffffffffffffff16145b1561303c576040517f699f989700000000000000000000000000000000000000000000000000000000815260040160405180910390fd5b805f6008015f8473ffffffffffffffffffffffffffffffffffffffff1673ffffffffffffffffffffffffffffffffffffffff1681526020019081526020015f206002015f6101000a81548173ffffffffffffffffffffffffffffffffffffffff021916908373ffffffffffffffffffffffffffffffffffffffff1602179055505050565b5f6362f6fc65426130d19190615929565b905090565b5f806130e0613ca3565b90505f816002015f9054906101000a900473ffffffffffffffffffffffffffffffffffffffff1690505f61311385613ca7565b69ffffffffffffffffffff1690505f836008015f8773ffffffffffffffffffffffffffffffffffffffff1673ffffffffffffffffffffffffffffffffffffffff1681526020019081526020015f206002015f9054906101000a900473ffffffffffffffffffffffffffffffffffffffff1690505f73ffffffffffffffffffffffffffffffffffffffff168173ffffffffffffffffffffffffffffffffffffffff16036131eb576040517fc891add200000000000000000000000000000000000000000000000000000000815260040160405180910390fd5b8273ffffffffffffffffffffffffffffffffffffffff1663feaf968c6040518163ffffffff1660e01b815260040160a060405180830381865afa92505050801561325357506040513d601f19601f8201168201806040525081019061325091906159e2565b60015b6133b0578273ffffffffffffffffffffffffffffffffffffffff168173ffffffffffffffffffffffffffffffffffffffff160361329d57613292613d2a565b9450505050506134db565b5f805f8373ffffffffffffffffffffffffffffffffffffffff1663feaf968c6040518163ffffffff1660e01b815260040160a060405180830381865afa1580156132e9573d5f803e3d5ffd5b505050506040513d601f19601f8201168201806040525081019061330d91906159e2565b50935050925092505f8369ffffffffffffffffffff16148061332e57505f82145b8061333857504281115b1561336e576040517ebfc92100000000000000000000000000000000000000000000000000000000815260040160405180910390fd5b5f613377613d2a565b90505f61339d826402540be4008661338f9190615a59565b613f0c90919063ffffffff16565b90508099505050505050505050506134db565b8773ffffffffffffffffffffffffffffffffffffffff168673ffffffffffffffffffffffffffffffffffffffff160361342e575f8085136133f1575f61340b565b61340a6402540be400866134059190615a59565b613f1f565b5b905061341a8887878685613f47565b9050809a50505050505050505050506134db565b5f805f8873ffffffffffffffffffffffffffffffffffffffff1663feaf968c6040518163ffffffff1660e01b815260040160a060405180830381865afa15801561347a573d5f803e3d5ffd5b505050506040513d601f19601f8201168201806040525081019061349e91906159e2565b50935050925092505f6134ba88846141fb90919063ffffffff16565b90506134ca848a858b868b614217565b809d50505050505050505050505050505b919050565b5f8160ff1611613525576040517f08c379a000000000000000000000000000000000000000000000000000000000815260040161351c906154a8565b60405180910390fd5b805f6008015f8473ffffffffffffffffffffffffffffffffffffffff1673ffffffffffffffffffffffffffffffffffffffff1681526020019081526020015f206001015f6101000a81548160ff021916908360ff1602179055505050565b60648160ff1610156135ca576040517f08c379a00000000000000000000000000000000000000000000000000000000081526004016135c1906155e0565b60405180910390fd5b60c88160ff161115613611576040517f08c379a0000000000000000000000000000000000000000000000000000000008152600401613608906158de565b60405180910390fd5b805f6008015f8473ffffffffffffffffffffffffffffffffffffffff1673ffffffffffffffffffffffffffffffffffffffff1681526020019081526020015f2060010160136101000a81548160ff021916908360ff1602179055505050565b5f613679613ca3565b90505f3090505f82600d015f8573ffffffffffffffffffffffffffffffffffffffff1673ffffffffffffffffffffffffffffffffffffffff1681526020019081526020015f205f8373ffffffffffffffffffffffffffffffffffffffff1673ffffffffffffffffffffffffffffffffffffffff1681526020019081526020015f205f600160ff1660ff1681526020019081526020015f20905060018160010160016101000a81548160ff021916908360ff16021790555060028160010160036101000a81548160ff021916908360ff1602179055505f836009015f8673ffffffffffffffffffffffffffffffffffffffff1673ffffffffffffffffffffffffffffffffffffffff1681526020019081526020015f205f8473ffffffffffffffffffffffffffffffffffffffff1673ffffffffffffffffffffffffffffffffffffffff1681526020019081526020015f209050600160026137d99190615acf565b815f0160146101000a81548160ff021916908360ff1602179055506040518061014001604052805f6affffffffffffffffffffff1681526020015f6affffffffffffffffffffff1681526020015f69ffffffffffffffffffff1681526020016001600281111561384c5761384b614df1565b5b8152602001600160ff168152602001600260ff168152602001600160ff1681526020015f67ffffffffffffffff1681526020016138876130c0565b63ffffffff1681526020015f64ffffffffff1681525084600d015f8773ffffffffffffffffffffffffffffffffffffffff1673ffffffffffffffffffffffffffffffffffffffff1681526020019081526020015f205f8573ffffffffffffffffffffffffffffffffffffffff1673ffffffffffffffffffffffffffffffffffffffff1681526020019081526020015f205f600260ff1660ff1681526020019081526020015f205f820151815f015f6101000a8154816affffffffffffffffffffff02191690836affffffffffffffffffffff1602179055506020820151815f01600b6101000a8154816affffffffffffffffffffff02191690836affffffffffffffffffffff1602179055506040820151815f0160166101000a81548169ffffffffffffffffffff021916908369ffffffffffffffffffff1602179055506060820151816001015f6101000a81548160ff021916908360028111156139ef576139ee614df1565b5b021790555060808201518160010160016101000a81548160ff021916908360ff16021790555060a08201518160010160026101000a81548160ff021916908360ff16021790555060c08201518160010160036101000a81548160ff021916908360ff16021790555060e08201518160010160046101000a81548167ffffffffffffffff021916908367ffffffffffffffff16021790555061010082015181600101600c6101000a81548163ffffffff021916908363ffffffff1602179055506101208201518160010160106101000a81548164ffffffffff021916908364ffffffffff1602179055509050505050505050565b5f807fc8fcad8db84d3cc18b4c41d551ea0ee66dd599cde068d998e57d5e09332c131c90508091505090565b5f80613b18613ca3565b90506064670de0b6b3a7640000826008015f8673ffffffffffffffffffffffffffffffffffffffff1673ffffffffffffffffffffffffffffffffffffffff1681526020019081526020015f205f01601c9054906101000a900461ffff1661ffff16613b839190615b03565b613b8d9190615b71565b915050919050565b5f80613b9f613ca3565b90506064670de0b6b3a7640000826008015f8673ffffffffffffffffffffffffffffffffffffffff1673ffffffffffffffffffffffffffffffffffffffff1681526020019081526020015f2060010160119054906101000a900461ffff1661ffff16613c0b9190615b03565b613c159190615b71565b915050919050565b5f80613c27613ca3565b90506064670de0b6b3a7640000826008015f8673ffffffffffffffffffffffffffffffffffffffff1673ffffffffffffffffffffffffffffffffffffffff1681526020019081526020015f2060010160049054906101000a900460ff1660ff16613c919190615b03565b613c9b9190615b71565b915050919050565b5f90565b5f80613cb1613ca3565b905080600a015f8473ffffffffffffffffffffffffffffffffffffffff1673ffffffffffffffffffffffffffffffffffffffff1681526020019081526020015f205f600160ff1661ffff1681526020019081526020015f205f015f9054906101000a90046affffffffffffffffffffff16915050919050565b5f803073ffffffffffffffffffffffffffffffffffffffff16630b545214670de0b6b3a76400006107086040518363ffffffff1660e01b8152600401613d71929190615c0d565b602060405180830381865afa158015613d8c573d5f803e3d5ffd5b505050506040513d601f19601f82011682018060405250810190613db09190615c34565b90505f8103613deb576040517fca91730a00000000000000000000000000000000000000000000000000000000815260040160405180910390fd5b5f73c02aaa39b223fe8d0a0e5c4f27ead9083c756cc290505f8173ffffffffffffffffffffffffffffffffffffffff166370a082317388e6a0c2ddd26feeb64f039a2c41296fcb3f56406040518263ffffffff1660e01b8152600401613e5191906147ec565b602060405180830381865afa158015613e6c573d5f803e3d5ffd5b505050506040513d601f19601f82011682018060405250810190613e909190615c34565b905068056bc75e2d63100000811015613ed5576040517f05f4eec200000000000000000000000000000000000000000000000000000000815260040160405180910390fd5b5f620f4240670de0b6b3a7640000613eed9190615b71565b84613ef89190615b03565b9050613f0381613f1f565b94505050505090565b5f613f1783836142bd565b905092915050565b5f816ec097ce7bc90715b34b9f100000000081613f3f57613f3e615b44565b5b049050919050565b5f805f8669ffffffffffffffffffff161480613f6257505f84145b80613f6c57504284115b80613f7757505f8513155b80613f8e575083611c20613f8b9190615c5f565b42115b90505f878411613fa9578388613fa49190615929565b613fb6565b8784613fb59190615929565b5b90505f8089118015613fe157506706f05b59d3b20000613fdf8a846141fb90919063ffffffff16565b115b90508215613ffb57613ff1613d2a565b93505050506141f2565b80156141eb573073ffffffffffffffffffffffffffffffffffffffff16630b545214670de0b6b3a76400006107086040518363ffffffff1660e01b8152600401614046929190615c0d565b602060405180830381865afa92505050801561408057506040513d601f19601f8201168201806040525081019061407d9190615c34565b60015b61408f578493505050506141f2565b5f81036140a257859450505050506141f2565b5f620f4240670de0b6b3a76400006140ba9190615b71565b826140c59190615b03565b90505f6140d182613f1f565b90505f8c82116140ec57818d6140e79190615929565b6140f9565b8c826140f89190615929565b5b905080861161411157889750505050505050506141f2565b5f73c02aaa39b223fe8d0a0e5c4f27ead9083c756cc290505f8173ffffffffffffffffffffffffffffffffffffffff166370a082317388e6a0c2ddd26feeb64f039a2c41296fcb3f56406040518263ffffffff1660e01b815260040161417791906147ec565b602060405180830381865afa158015614192573d5f803e3d5ffd5b505050506040513d601f19601f820116820180604052508101906141b69190615c34565b905068056bc75e2d631000008110156141da578a99505050505050505050506141f2565b8399505050505050505050506141f2565b8493505050505b95945050505050565b5f61420f83670de0b6b3a7640000846143a2565b905092915050565b5f808769ffffffffffffffffffff16148061423157505f83145b8061423b57504283115b8061424657505f8513155b8061425c57505f8669ffffffffffffffffffff16145b8061426657505f82145b8061427057504282115b8061427b57505f8413155b905080156142b4576040517ebfc92100000000000000000000000000000000000000000000000000000000815260040160405180910390fd5b50505050505050565b5f805f80198486098486029250828110838203039150505f81036142fd57670de0b6b3a764000082816142f3576142f2615b44565b5b049250505061439c565b670de0b6b3a7640000811061434b5784846040517f5173648d000000000000000000000000000000000000000000000000000000008152600401614342929190615ca1565b60405180910390fd5b5f670de0b6b3a764000085870990507faccb18165bd6fe31ae1cf318dc5b51eee0e1ba569b88cd74c1773b91fac10669600162040000805f0304018483118403026204000083860304170293505050505b92915050565b5f805f80198587098587029250828110838203039150505f81036143da578382816143d0576143cf615b44565b5b04925050506144ad565b838110614422578585856040517f63a0577800000000000000000000000000000000000000000000000000000000815260040161441993929190615cc8565b60405180910390fd5b5f8486880990508281118203915080830392505f6001861901861690505f81870496508185049450600182835f0304019050808402851794505f60028860030218905080880260020381029050808802600203810290508088026002038102905080880260020381029050808802600203810290508088026002038102905080860296505050505050505b9392505050565b6040518061018001604052805f6affffffffffffffffffffff1681526020015f69ffffffffffffffffffff1681526020015f61ffff1681526020015f61ffff1681526020015f61ffff1681526020015f600781111561451657614515614df1565b5b81526020015f63ffffffff1681526020015f73ffffffffffffffffffffffffffffffffffffffff1681526020015f600781111561455657614555614df1565b5b81526020015f61ffff1681526020015f60ff1681526020015f67ffffffffffffffff1681525090565b5f604051905090565b5f80fd5b5f73ffffffffffffffffffffffffffffffffffffffff82169050919050565b5f6145b58261458c565b9050919050565b6145c5816145ab565b81146145cf575f80fd5b50565b5f813590506145e0816145bc565b92915050565b5f60ff82169050919050565b6145fb816145e6565b8114614605575f80fd5b50565b5f81359050614616816145f2565b92915050565b5f806040838503121561463257614631614588565b5b5f61463f858286016145d2565b925050602061465085828601614608565b9150509250929050565b5f61ffff82169050919050565b6146708161465a565b811461467a575f80fd5b50565b5f8135905061468b81614667565b92915050565b5f80604083850312156146a7576146a6614588565b5b5f6146b4858286016145d2565b92505060206146c58582860161467d565b9150509250929050565b5f819050919050565b6146e1816146cf565b81146146eb575f80fd5b50565b5f813590506146fc816146d8565b92915050565b5f806040838503121561471857614717614588565b5b5f614725858286016146ee565b92505060206147368582860161467d565b9150509250929050565b5f80fd5b5f6060828403121561475957614758614740565b5b81905092915050565b5f805f60a0848603121561477957614778614588565b5b5f614786868287016145d2565b9350506020614797868287016146ee565b92505060406147a886828701614744565b9150509250925092565b5f602082840312156147c7576147c6614588565b5b5f6147d4848285016145d2565b91505092915050565b6147e6816145ab565b82525050565b5f6020820190506147ff5f8301846147dd565b92915050565b5f805f6060848603121561481c5761481b614588565b5b5f614829868287016145d2565b935050602061483a868287016146ee565b925050604061484b8682870161467d565b9150509250925092565b5f80fd5b5f601f19601f8301169050919050565b7f4e487b71000000000000000000000000000000000000000000000000000000005f52604160045260245ffd5b61489f82614859565b810181811067ffffffffffffffff821117156148be576148bd614869565b5b80604052505050565b5f6148d061457f565b90506148dc8282614896565b919050565b5f6cffffffffffffffffffffffffff82169050919050565b614902816148e1565b811461490c575f80fd5b50565b5f8135905061491d816148f9565b92915050565b5f6affffffffffffffffffffff82169050919050565b61494281614923565b811461494c575f80fd5b50565b5f8135905061495d81614939565b92915050565b6002811061496f575f80fd5b50565b5f8135905061498081614963565b92915050565b5f67ffffffffffffffff82169050919050565b6149a281614986565b81146149ac575f80fd5b50565b5f813590506149bd81614999565b92915050565b5f63ffffffff82169050919050565b6149db816149c3565b81146149e5575f80fd5b50565b5f813590506149f6816149d2565b92915050565b5f6bffffffffffffffffffffffff82169050919050565b614a1c816149fc565b8114614a26575f80fd5b50565b5f81359050614a3781614a13565b92915050565b5f6102c08284031215614a5357614a52614855565b5b614a5e6102c06148c7565b90505f614a6d8482850161490f565b5f830152506020614a808482850161494f565b6020830152506040614a948482850161467d565b6040830152506060614aa88482850161467d565b6060830152506080614abc8482850161467d565b60808301525060a0614ad084828501614972565b60a08301525060c0614ae484828501614608565b60c08301525060e0614af884828501614608565b60e083015250610100614b0d84828501614608565b61010083015250610120614b238482850161467d565b61012083015250610140614b3984828501614608565b61014083015250610160614b4f84828501614608565b61016083015250610180614b6584828501614608565b610180830152506101a0614b7b84828501614608565b6101a0830152506101c0614b9184828501614608565b6101c0830152506101e0614ba7848285016149af565b6101e083015250610200614bbd8482850161467d565b61020083015250610220614bd384828501614608565b61022083015250610240614be9848285016149e8565b61024083015250610260614bff848285016149af565b61026083015250610280614c15848285016145d2565b610280830152506102a0614c2b84828501614a29565b6102a08301525092915050565b5f806102e08385031215614c4f57614c4e614588565b5b5f614c5c858286016145d2565b9250506020614c6d85828601614a3d565b9150509250929050565b5f82825260208201905092915050565b7f62656c6f772070656e616c7479204352000000000000000000000000000000005f82015250565b5f614cbb601083614c77565b9150614cc682614c87565b602082019050919050565b5f6020820190508181035f830152614ce881614caf565b9050919050565b5f60208284031215614d0457614d03614588565b5b5f614d118482850161467d565b91505092915050565b5f815f1c9050919050565b5f60ff82169050919050565b5f614d43614d3e83614d1a565b614d25565b9050919050565b614d53816145e6565b82525050565b5f8160081c9050919050565b5f61ffff82169050919050565b5f614d84614d7f83614d59565b614d65565b9050919050565b614d948161465a565b82525050565b604082015f808301549050614dae81614d31565b614dba5f860182614d4a565b50614dc481614d72565b614dd16020860182614d8b565b5050505050565b5f604082019050614deb5f830184614d9a565b92915050565b7f4e487b71000000000000000000000000000000000000000000000000000000005f52602160045260245ffd5b5f6cffffffffffffffffffffffffff82169050919050565b5f614e48614e4383614d1a565b614e1e565b9050919050565b614e58816148e1565b82525050565b5f8160681c9050919050565b5f6affffffffffffffffffffff82169050919050565b5f614e92614e8d83614e5e565b614e6a565b9050919050565b614ea281614923565b82525050565b5f8160c01c9050919050565b5f614ec6614ec183614ea8565b614d65565b9050919050565b5f8160d01c9050919050565b5f614eeb614ee683614ecd565b614d65565b9050919050565b5f8160e01c9050919050565b5f614f10614f0b83614ef2565b614d65565b9050919050565b5f8160f01c9050919050565b5f60ff82169050919050565b5f614f41614f3c83614f17565b614f23565b9050919050565b60028110614f5957614f58614df1565b5b50565b5f819050614f6982614f48565b919050565b5f614f7882614f5c565b9050919050565b614f8881614f6e565b82525050565b5f8160f81c9050919050565b5f614fac614fa783614f8e565b614d25565b9050919050565b5f614fc5614fc083614d59565b614d25565b9050919050565b5f8160101c9050919050565b5f614fea614fe583614fcc565b614d65565b9050919050565b5f8160201c9050919050565b5f61500f61500a83614ff1565b614d25565b9050919050565b5f8160281c9050919050565b5f61503461502f83615016565b614d25565b9050919050565b5f8160301c9050919050565b5f6150596150548361503b565b614d25565b9050919050565b5f8160381c9050919050565b5f61507e61507983615060565b614d25565b9050919050565b5f8160401c9050919050565b5f6150a361509e83615085565b614d25565b9050919050565b5f8160481c9050919050565b5f67ffffffffffffffff82169050919050565b5f6150db6150d6836150aa565b6150b6565b9050919050565b6150eb81614986565b82525050565b5f8160881c9050919050565b5f61510f61510a836150f1565b614d65565b9050919050565b5f8160981c9050919050565b5f61513461512f83615116565b614d25565b9050919050565b5f8160a01c9050919050565b5f63ffffffff82169050919050565b5f6151686151638361513b565b615147565b9050919050565b615178816149c3565b82525050565b5f61519061518b83614ea8565b6150b6565b9050919050565b5f73ffffffffffffffffffffffffffffffffffffffff82169050919050565b5f6151c86151c383614d1a565b615197565b9050919050565b6151d8816145ab565b82525050565b5f6bffffffffffffffffffffffff82169050919050565b5f6152076152028361513b565b6151de565b9050919050565b615217816149fc565b82525050565b6102c082015f80830154905061523281614e36565b61523e5f860182614e4f565b5061524881614e80565b6152556020860182614e99565b5061525f81614eb4565b61526c6040860182614d8b565b5061527681614ed9565b6152836060860182614d8b565b5061528d81614efe565b61529a6080860182614d8b565b506152a481614f2f565b6152b160a0860182614f7f565b506152bb81614f9a565b6152c860c0860182614d4a565b50600183015490506152d981614d31565b6152e660e0860182614d4a565b506152f081614fb3565b6152fe610100860182614d4a565b5061530881614fd8565b615316610120860182614d8b565b5061532081614ffd565b61532e610140860182614d4a565b5061533881615022565b615346610160860182614d4a565b5061535081615047565b61535e610180860182614d4a565b506153688161506c565b6153766101a0860182614d4a565b5061538081615091565b61538e6101c0860182614d4a565b50615398816150c9565b6153a66101e08601826150e2565b506153b0816150fd565b6153be610200860182614d8b565b506153c881615122565b6153d6610220860182614d4a565b506153e081615156565b6153ee61024086018261516f565b506153f88161517e565b6154066102608601826150e2565b5060028301549050615417816151b6565b6154256102808601826151cf565b5061542f816151f5565b61543d6102a086018261520e565b5050505050565b5f6102c0820190506154585f83018461521d565b92915050565b7f43616e2774206265207a65726f000000000000000000000000000000000000005f82015250565b5f615492600d83614c77565b915061549d8261545e565b602082019050919050565b5f6020820190508181035f8301526154bf81615486565b9050919050565b7f61626f76652032353000000000000000000000000000000000000000000000005f82015250565b5f6154fa600983614c77565b9150615505826154c6565b602082019050919050565b5f6020820190508181035f830152615527816154ee565b9050919050565b7f61626f7665206d617820435200000000000000000000000000000000000000005f82015250565b5f615562600c83614c77565b915061556d8261552e565b602082019050919050565b5f6020820190508181035f83015261558f81615556565b9050919050565b7f62656c6f7720312e3000000000000000000000000000000000000000000000005f82015250565b5f6155ca600983614c77565b91506155d582615596565b602082019050919050565b5f6020820190508181035f8301526155f7816155be565b9050919050565b7f61626f766520312e3200000000000000000000000000000000000000000000005f82015250565b5f615632600983614c77565b915061563d826155fe565b602082019050919050565b5f6020820190508181035f83015261565f81615626565b9050919050565b7f61626f7665206c69717569646174696f6e2043520000000000000000000000005f82015250565b5f61569a601483614c77565b91506156a582615666565b602082019050919050565b5f6020820190508181035f8301526156c78161568e565b9050919050565b7f61626f766520352e3000000000000000000000000000000000000000000000005f82015250565b5f615702600983614c77565b915061570d826156ce565b602082019050919050565b5f6020820190508181035f83015261572f816156f6565b9050919050565b7f4c69624469616d6f6e643a204d75737420626520636f6e7472616374206f776e5f8201527f6572000000000000000000000000000000000000000000000000000000000000602082015250565b5f615790602283614c77565b915061579b82615736565b604082019050919050565b5f6020820190508181035f8301526157bd81615784565b9050919050565b7f61626f76652031303000000000000000000000000000000000000000000000005f82015250565b5f6157f8600983614c77565b9150615803826157c4565b602082019050919050565b5f6020820190508181035f830152615825816157ec565b9050919050565b7f61626f766520322e3030250000000000000000000000000000000000000000005f82015250565b5f615860600b83614c77565b915061586b8261582c565b602082019050919050565b5f6020820190508181035f83015261588d81615854565b9050919050565b7f61626f766520322e3000000000000000000000000000000000000000000000005f82015250565b5f6158c8600983614c77565b91506158d382615894565b602082019050919050565b5f6020820190508181035f8301526158f5816158bc565b9050919050565b7f4e487b71000000000000000000000000000000000000000000000000000000005f52601160045260245ffd5b5f615933826146cf565b915061593e836146cf565b9250828203905081811115615956576159556158fc565b5b92915050565b5f69ffffffffffffffffffff82169050919050565b61597a8161595c565b8114615984575f80fd5b50565b5f8151905061599581615971565b92915050565b5f819050919050565b6159ad8161599b565b81146159b7575f80fd5b50565b5f815190506159c8816159a4565b92915050565b5f815190506159dc816146d8565b92915050565b5f805f805f60a086880312156159fb576159fa614588565b5b5f615a0888828901615987565b9550506020615a19888289016159ba565b9450506040615a2a888289016159ce565b9350506060615a3b888289016159ce565b9250506080615a4c88828901615987565b9150509295509295909350565b5f615a638261599b565b9150615a6e8361599b565b9250828202615a7c8161599b565b91507f800000000000000000000000000000000000000000000000000000000000000084145f84121615615ab357615ab26158fc565b5b8282058414831517615ac857615ac76158fc565b5b5092915050565b5f615ad9826145e6565b9150615ae4836145e6565b9250828201905060ff811115615afd57615afc6158fc565b5b92915050565b5f615b0d826146cf565b9150615b18836146cf565b9250828202615b26816146cf565b91508282048414831517615b3d57615b3c6158fc565b5b5092915050565b7f4e487b71000000000000000000000000000000000000000000000000000000005f52601260045260245ffd5b5f615b7b826146cf565b9150615b86836146cf565b925082615b9657615b95615b44565b5b828204905092915050565b5f6fffffffffffffffffffffffffffffffff82169050919050565b615bc581615ba1565b82525050565b5f819050919050565b5f819050919050565b5f615bf7615bf2615bed84615bcb565b615bd4565b6149c3565b9050919050565b615c0781615bdd565b82525050565b5f604082019050615c205f830185615bbc565b615c2d6020830184615bfe565b9392505050565b5f60208284031215615c4957615c48614588565b5b5f615c56848285016159ce565b91505092915050565b5f615c69826146cf565b9150615c74836146cf565b9250828201905080821115615c8c57615c8b6158fc565b5b92915050565b615c9b816146cf565b82525050565b5f604082019050615cb45f830185615c92565b615cc16020830184615c92565b9392505050565b5f606082019050615cdb5f830186615c92565b615ce86020830185615c92565b615cf56040830184615c92565b94935050505056fea2646970667358221220e33a308f7b82f72353dfcbc23c04815d49a299569f0b38e327e8d16967183b8b64736f6c63430008150033","linkReferences":{}},"methodIdentifiers":{"admin()":"f851a440","claimOwnership()":"4e71e0c8","createBridge(address,uint256,uint16)":"6cca492b","createMarket(address,(uint104,uint88,uint16,uint16,uint16,uint8,uint8,uint8,uint8,uint16,uint8,uint8,uint8,uint8,uint8,uint64,uint16,uint8,uint32,uint64,address,uint96))":"912bed06","createVault(address,uint256,(uint16,uint16,uint16))":"3ba254f1","owner()":"8da5cb5b","ownerCandidate()":"5f504a82","setCallerFeePct(address,uint8)":"54ea9f35","setDittoMatchedRate(uint256,uint16)":"cbee05bf","setDittoShorterRate(uint256,uint16)":"f62f3705","setForcedBidPriceBuffer(address,uint8)":"6f864baf","setInitialCR(address,uint16)":"0c381986","setLiquidationCR(address,uint16)":"1839ce54","setMinAskEth(address,uint8)":"28a08f1c","setMinBidEth(address,uint8)":"920ed6f4","setMinShortErc(address,uint16)":"31f1f149","setPenaltyCR(address,uint8)":"0c6c91b4","setRecoveryCR(address,uint8)":"ca144c71","setTappFeePct(address,uint8)":"03bf6bec","setTithe(uint256,uint16)":"3824d852","setWithdrawalFee(address,uint16)":"6301727b","transferAdminship(address)":"5be7cc16","transferOwnership(address)":"f2fde38b"},"id":14}