{"abi":[{"type":"constructor","inputs":[{"name":"_dusd","type":"address","internalType":"address"}],"stateMutability":"nonpayable"},{"type":"function","name":"exitShort","inputs":[{"name":"asset","type":"address","internalType":"address"},{"name":"id","type":"uint8","internalType":"uint8"},{"name":"buybackAmount","type":"uint88","internalType":"uint88"},{"name":"price","type":"uint80","internalType":"uint80"},{"name":"shortHintArray","type":"uint16[]","internalType":"uint16[]"},{"name":"shortOrderId","type":"uint16","internalType":"uint16"}],"outputs":[],"stateMutability":"nonpayable"},{"type":"function","name":"exitShortErcEscrowed","inputs":[{"name":"asset","type":"address","internalType":"address"},{"name":"id","type":"uint8","internalType":"uint8"},{"name":"buybackAmount","type":"uint88","internalType":"uint88"},{"name":"shortOrderId","type":"uint16","internalType":"uint16"}],"outputs":[],"stateMutability":"nonpayable"},{"type":"function","name":"exitShortWallet","inputs":[{"name":"asset","type":"address","internalType":"address"},{"name":"id","type":"uint8","internalType":"uint8"},{"name":"buybackAmount","type":"uint88","internalType":"uint88"},{"name":"shortOrderId","type":"uint16","internalType":"uint16"}],"outputs":[],"stateMutability":"nonpayable"},{"type":"event","name":"CancelOrder","inputs":[{"name":"asset","type":"address","indexed":true,"internalType":"address"},{"name":"orderId","type":"uint16","indexed":false,"internalType":"uint16"},{"name":"orderType","type":"uint8","indexed":true,"internalType":"enum O"}],"anonymous":false},{"type":"event","name":"DeleteShortRecord","inputs":[{"name":"asset","type":"address","indexed":true,"internalType":"address"},{"name":"user","type":"address","indexed":true,"internalType":"address"},{"name":"srId","type":"uint16","indexed":false,"internalType":"uint16"}],"anonymous":false},{"type":"event","name":"ExitShort","inputs":[{"name":"asset","type":"address","indexed":true,"internalType":"address"},{"name":"user","type":"address","indexed":true,"internalType":"address"},{"name":"srId","type":"uint8","indexed":false,"internalType":"uint8"},{"name":"amount","type":"uint256","indexed":false,"internalType":"uint256"}],"anonymous":false},{"type":"event","name":"ExitShortErcEscrowed","inputs":[{"name":"asset","type":"address","indexed":true,"internalType":"address"},{"name":"user","type":"address","indexed":true,"internalType":"address"},{"name":"srId","type":"uint8","indexed":false,"internalType":"uint8"},{"name":"amount","type":"uint256","indexed":false,"internalType":"uint256"}],"anonymous":false},{"type":"event","name":"ExitShortWallet","inputs":[{"name":"asset","type":"address","indexed":true,"internalType":"address"},{"name":"user","type":"address","indexed":true,"internalType":"address"},{"name":"srId","type":"uint8","indexed":false,"internalType":"uint8"},{"name":"amount","type":"uint256","indexed":false,"internalType":"uint256"}],"anonymous":false},{"type":"error","name":"AssetIsFrozen","inputs":[]},{"type":"error","name":"BadShortHint","inputs":[]},{"type":"error","name":"CannotLeaveDustAmount","inputs":[]},{"type":"error","name":"ExitShortPriceTooLow","inputs":[]},{"type":"error","name":"InsufficientCollateral","inputs":[]},{"type":"error","name":"InsufficientERCEscrowed","inputs":[]},{"type":"error","name":"InsufficientEthInLiquidityPool","inputs":[]},{"type":"error","name":"InsufficientWalletBalance","inputs":[]},{"type":"error","name":"InvalidAmount","inputs":[]},{"type":"error","name":"InvalidAsset","inputs":[]},{"type":"error","name":"InvalidBuyback","inputs":[]},{"type":"error","name":"InvalidPrice","inputs":[]},{"type":"error","name":"InvalidShortId","inputs":[]},{"type":"error","name":"InvalidShortOrder","inputs":[]},{"type":"error","name":"InvalidTwapPrice","inputs":[]},{"type":"error","name":"NotActiveOrder","inputs":[]},{"type":"error","name":"PRBMath_MulDiv18_Overflow","inputs":[{"name":"x","type":"uint256","internalType":"uint256"},{"name":"y","type":"uint256","internalType":"uint256"}]},{"type":"error","name":"PRBMath_MulDiv_Overflow","inputs":[{"name":"x","type":"uint256","internalType":"uint256"},{"name":"y","type":"uint256","internalType":"uint256"},{"name":"denominator","type":"uint256","internalType":"uint256"}]},{"type":"error","name":"PostExitCRLtPreExitCR","inputs":[]},{"type":"error","name":"ReentrantCall","inputs":[]}],"bytecode":{"object":"0x60a060405234801562000010575f80fd5b5060405162006113380380620061138339818101604052810190620000369190620000d6565b8073ffffffffffffffffffffffffffffffffffffffff1660808173ffffffffffffffffffffffffffffffffffffffff16815250505062000106565b5f80fd5b5f73ffffffffffffffffffffffffffffffffffffffff82169050919050565b5f620000a08262000075565b9050919050565b620000b28162000094565b8114620000bd575f80fd5b50565b5f81519050620000d081620000a7565b92915050565b5f60208284031215620000ee57620000ed62000071565b5b5f620000fd84828501620000c0565b91505092915050565b608051615ff76200011c5f395f5050615ff75ff3fe608060405234801561000f575f80fd5b506004361061003f575f3560e01c806313314368146100435780635f87616b1461005f578063f824a1831461007b575b5f80fd5b61005d60048036038101906100589190615623565b610097565b005b610079600480360381019061007491906156c8565b610b6e565b005b610095600480360381019061009091906156c8565b6110df565b005b855f60018111156100ab576100aa61572c565b5b5f6008015f8373ffffffffffffffffffffffffffffffffffffffff1673ffffffffffffffffffffffffffffffffffffffff1681526020019081526020015f205f01601e9054906101000a900460ff16600181111561010c5761010b61572c565b5b14610143576040517f0e27a3f700000000000000000000000000000000000000000000000000000000815260040160405180910390fd5b600260ff165f600201601c9054906101000a900460ff1660ff1603610194576040517f37ed32e800000000000000000000000000000000000000000000000000000000815260040160405180910390fd5b60025f600201601c6101000a81548160ff021916908360ff1602179055508633876101c083838361177d565b506101c96152e0565b8a815f019073ffffffffffffffffffffffffffffffffffffffff16908173ffffffffffffffffffffffffffffffffffffffff168152505061020d815f0151886118b5565b5f806008015f835f015173ffffffffffffffffffffffffffffffffffffffff1673ffffffffffffffffffffffffffffffffffffffff1681526020019081526020015f2090505f80600d015f845f015173ffffffffffffffffffffffffffffffffffffffff1673ffffffffffffffffffffffffffffffffffffffff1681526020019081526020015f205f3373ffffffffffffffffffffffffffffffffffffffff1673ffffffffffffffffffffffffffffffffffffffff1681526020019081526020015f205f8d60ff1660ff1681526020019081526020015f2090506103048d826001015f9054906101000a900460ff168a8f336118f2565b8361010001901515908115158152505061032a835f015182611ba890919063ffffffff16565b82610100015161033a578a610356565b805f01600b9054906101000a90046affffffffffffffffffffff165b8360e001906affffffffffffffffffffff1690816affffffffffffffffffffff168152505061038481611d14565b8360c0018181525050805f01600b9054906101000a90046affffffffffffffffffffff166affffffffffffffffffffff16836020018181525050805f015f9054906101000a90046affffffffffffffffffffff1683604001906affffffffffffffffffffff1690816affffffffffffffffffffff16815250505f8360e001516affffffffffffffffffffff161480610430575082602001518360e001516affffffffffffffffffffff16115b15610467576040517f4ffc55bb00000000000000000000000000000000000000000000000000000000815260040160405180910390fd5b5f6104988460e001516affffffffffffffffffffff168c69ffffffffffffffffffff16611d7c90919063ffffffff16565b905083604001516affffffffffffffffffffff168111156104e5576040517f3a23d82500000000000000000000000000000000000000000000000000000000815260040160405180910390fd5b505f806007015f845f01601f9054906101000a900460ff1660ff1681526020019081526020015f205f3373ffffffffffffffffffffffffffffffffffffffff1673ffffffffffffffffffffffffffffffffffffffff1681526020019081526020015f2090508360400151815f015f8282829054906101000a90046affffffffffffffffffffff166105769190615786565b92506101000a8154816affffffffffffffffffffff02191690836affffffffffffffffffffff1602179055503073ffffffffffffffffffffffffffffffffffffffff1663269010c533865f01518e8860e001518f6040518663ffffffff1660e01b81526004016105ea9594939291906158a8565b60408051808303815f875af1158015610605573d5f803e3d5ffd5b505050506040513d601f19601f820116820180604052508101906106299190615914565b8560600186608001826affffffffffffffffffffff166affffffffffffffffffffff16815250826affffffffffffffffffffff166affffffffffffffffffffff1681525050505f84606001516affffffffffffffffffffff16036106b9576040517f0ef49ff100000000000000000000000000000000000000000000000000000000815260040160405180910390fd5b83608001518460e001516106cd9190615952565b8460a001906affffffffffffffffffffff1690816affffffffffffffffffffff16815250508360a001516affffffffffffffffffffff16835f015f8282829054906101000a90046cffffffffffffffffffffffffff1661072d91906159a8565b92506101000a8154816cffffffffffffffffffffffffff02191690836cffffffffffffffffffffffffff1602179055508360a001516affffffffffffffffffffff165f6009015f865f015173ffffffffffffffffffffffffffffffffffffffff1673ffffffffffffffffffffffffffffffffffffffff1681526020019081526020015f205f3373ffffffffffffffffffffffffffffffffffffffff1673ffffffffffffffffffffffffffffffffffffffff1681526020019081526020015f205f015f8282829054906101000a90046cffffffffffffffffffffffffff1661081491906159a8565b92506101000a8154816cffffffffffffffffffffffffff02191690836cffffffffffffffffffffffffff1602179055508360a001516affffffffffffffffffffff168460200151036108c0576108ad845f0151338660400151855f0160169054906101000a900469ffffffffffffffffffff1669ffffffffffffffffffff1686600101600c9054906101000a900463ffffffff16611d9b565b6108bb845f0151338f6120a1565b610ad5565b8360600151825f015f8282829054906101000a90046affffffffffffffffffffff166108ec9190615952565b92506101000a8154816affffffffffffffffffffff02191690836affffffffffffffffffffff1602179055508360a00151825f01600b8282829054906101000a90046affffffffffffffffffffff166109459190615952565b92506101000a8154816affffffffffffffffffffff02191690836affffffffffffffffffffff16021790555061097a8e61256d565b825f01600b9054906101000a90046affffffffffffffffffffff166affffffffffffffffffffff1610156109da576040517f0960d7a200000000000000000000000000000000000000000000000000000000815260040160405180910390fd5b8360c001516109e883611d14565b1015610a20576040517fc415722d00000000000000000000000000000000000000000000000000000000815260040160405180910390fd5b83606001518460400151610a349190615952565b815f015f8282829054906101000a90046affffffffffffffffffffff16610a5b9190615952565b92506101000a8154816affffffffffffffffffffff02191690836affffffffffffffffffffff160217905550610ad4845f0151338660600151855f0160169054906101000a900469ffffffffffffffffffff1669ffffffffffffffffffff1686600101600c9054906101000a900463ffffffff16611d9b565b5b3373ffffffffffffffffffffffffffffffffffffffff168e73ffffffffffffffffffffffffffffffffffffffff167f1277d363a2f5e455a13a703c62f2ebca395b3c161d0282a5a83b8fd0a3ae11c88f8760a00151604051610b38929190615a39565b60405180910390a35050505050505060015f600201601c6101000a81548160ff021916908360ff16021790555050505050505050565b835f6001811115610b8257610b8161572c565b5b5f6008015f8373ffffffffffffffffffffffffffffffffffffffff1673ffffffffffffffffffffffffffffffffffffffff1681526020019081526020015f205f01601e9054906101000a900460ff166001811115610be357610be261572c565b5b14610c1a576040517f0e27a3f700000000000000000000000000000000000000000000000000000000815260040160405180910390fd5b600260ff165f600201601c9054906101000a900460ff1660ff1603610c6b576040517f37ed32e800000000000000000000000000000000000000000000000000000000815260040160405180910390fd5b60025f600201601c6101000a81548160ff021916908360ff160217905550843385610c9783838361177d565b505f806008015f8a73ffffffffffffffffffffffffffffffffffffffff1673ffffffffffffffffffffffffffffffffffffffff1681526020019081526020015f2090505f80600d015f8b73ffffffffffffffffffffffffffffffffffffffff1673ffffffffffffffffffffffffffffffffffffffff1681526020019081526020015f205f3373ffffffffffffffffffffffffffffffffffffffff1673ffffffffffffffffffffffffffffffffffffffff1681526020019081526020015f205f8a60ff1660ff1681526020019081526020015f2090505f816001015f9054906101000a900460ff169050610d938b83611ba890919063ffffffff16565b5f825f01600b9054906101000a90046affffffffffffffffffffff166affffffffffffffffffffff169050808a6affffffffffffffffffffff161180610de557505f8a6affffffffffffffffffffff16145b15610e1c576040517f4ffc55bb00000000000000000000000000000000000000000000000000000000815260040160405180910390fd5b610e458a8d73ffffffffffffffffffffffffffffffffffffffff166125e990919063ffffffff16565b896affffffffffffffffffffff16845f015f8282829054906101000a90046cffffffffffffffffffffffffff16610e7c91906159a8565b92506101000a8154816cffffffffffffffffffffffffff02191690836cffffffffffffffffffffffffff160217905550808a6affffffffffffffffffffff1603610fe8575f835f015f9054906101000a90046affffffffffffffffffffff169050805f6007015f875f01601f9054906101000a900460ff1660ff1681526020019081526020015f205f3373ffffffffffffffffffffffffffffffffffffffff1673ffffffffffffffffffffffffffffffffffffffff1681526020019081526020015f205f015f8282829054906101000a90046affffffffffffffffffffff16610f659190615786565b92506101000a8154816affffffffffffffffffffff02191690836affffffffffffffffffffff160217905550610fd78d3383875f0160169054906101000a900469ffffffffffffffffffff1669ffffffffffffffffffff1688600101600c9054906101000a900463ffffffff16611d9b565b610fe28d338e6120a1565b5061103e565b89835f01600b8282829054906101000a90046affffffffffffffffffffff166110119190615952565b92506101000a8154816affffffffffffffffffffff02191690836affffffffffffffffffffff1602179055505b61104b8c838b8e336127a4565b503373ffffffffffffffffffffffffffffffffffffffff168c73ffffffffffffffffffffffffffffffffffffffff167f9c4d727b13377cb626668f18a0a82b2bd1cc686bdd8f188f07193772f4a50a548d8d6040516110ab929190615a39565b60405180910390a35050505050505060015f600201601c6101000a81548160ff021916908360ff1602179055505050505050565b835f60018111156110f3576110f261572c565b5b5f6008015f8373ffffffffffffffffffffffffffffffffffffffff1673ffffffffffffffffffffffffffffffffffffffff1681526020019081526020015f205f01601e9054906101000a900460ff1660018111156111545761115361572c565b5b1461118b576040517f0e27a3f700000000000000000000000000000000000000000000000000000000815260040160405180910390fd5b600260ff165f600201601c9054906101000a900460ff1660ff16036111dc576040517f37ed32e800000000000000000000000000000000000000000000000000000000815260040160405180910390fd5b60025f600201601c6101000a81548160ff021916908360ff16021790555084338561120883838361177d565b505f806008015f8a73ffffffffffffffffffffffffffffffffffffffff1673ffffffffffffffffffffffffffffffffffffffff1681526020019081526020015f2090505f80600d015f8b73ffffffffffffffffffffffffffffffffffffffff1673ffffffffffffffffffffffffffffffffffffffff1681526020019081526020015f205f3373ffffffffffffffffffffffffffffffffffffffff1673ffffffffffffffffffffffffffffffffffffffff1681526020019081526020015f205f8a60ff1660ff1681526020019081526020015f2090505f816001015f9054906101000a900460ff1690506113048b83611ba890919063ffffffff16565b5f825f01600b9054906101000a90046affffffffffffffffffffff166affffffffffffffffffffff1690505f8a6affffffffffffffffffffff1614806113565750808a6affffffffffffffffffffff16115b1561138d576040517f4ffc55bb00000000000000000000000000000000000000000000000000000000815260040160405180910390fd5b5f806009015f8e73ffffffffffffffffffffffffffffffffffffffff1673ffffffffffffffffffffffffffffffffffffffff1681526020019081526020015f205f3373ffffffffffffffffffffffffffffffffffffffff1673ffffffffffffffffffffffffffffffffffffffff1681526020019081526020015f2090508a6affffffffffffffffffffff16815f015f9054906101000a90046cffffffffffffffffffffffffff166cffffffffffffffffffffffffff16101561147b576040517f4bf8161700000000000000000000000000000000000000000000000000000000815260040160405180910390fd5b8a6affffffffffffffffffffff16815f015f8282829054906101000a90046cffffffffffffffffffffffffff166114b291906159a8565b92506101000a8154816cffffffffffffffffffffffffff02191690836cffffffffffffffffffffffffff16021790555050896affffffffffffffffffffff16845f015f8282829054906101000a90046cffffffffffffffffffffffffff1661151a91906159a8565b92506101000a8154816cffffffffffffffffffffffffff02191690836cffffffffffffffffffffffffff160217905550896affffffffffffffffffffff168103611686575f835f015f9054906101000a90046affffffffffffffffffffff169050805f6007015f875f01601f9054906101000a900460ff1660ff1681526020019081526020015f205f3373ffffffffffffffffffffffffffffffffffffffff1673ffffffffffffffffffffffffffffffffffffffff1681526020019081526020015f205f015f8282829054906101000a90046affffffffffffffffffffff166116039190615786565b92506101000a8154816affffffffffffffffffffff02191690836affffffffffffffffffffff1602179055506116758d3383875f0160169054906101000a900469ffffffffffffffffffff1669ffffffffffffffffffff1688600101600c9054906101000a900463ffffffff16611d9b565b6116808d338e6120a1565b506116dc565b89835f01600b8282829054906101000a90046affffffffffffffffffffff166116af9190615952565b92506101000a8154816affffffffffffffffffffff02191690836affffffffffffffffffffff1602179055505b6116e98c838b8e336127a4565b503373ffffffffffffffffffffffffffffffffffffffff168c73ffffffffffffffffffffffffffffffffffffffff167ffc80b5802cc918b5acb75f4e7609b240b3f67e31446ad0f835da400e91340b1b8d8d604051611749929190615a39565b60405180910390a35050505050505060015f600201601c6101000a81548160ff021916908360ff1602179055505050505050565b5f80600d015f8573ffffffffffffffffffffffffffffffffffffffff1673ffffffffffffffffffffffffffffffffffffffff1681526020019081526020015f205f8473ffffffffffffffffffffffffffffffffffffffff1673ffffffffffffffffffffffffffffffffffffffff1681526020019081526020015f205f8360ff1660ff1681526020019081526020015f2090506002808111156118225761182161572c565b5b816001015f9054906101000a900460ff1660028111156118455761184461572c565b5b148061187757505f815f01600b9054906101000a90046affffffffffffffffffffff166affffffffffffffffffffff16145b156118ae576040517fff472cb600000000000000000000000000000000000000000000000000000000815260040160405180910390fd5b9392505050565b5f6118bf83612b35565b6118c7612bb8565b63ffffffff166118d79190615a60565b905061038481106118ed576118ec8383612bce565b5b505050565b5f806118fc6130a3565b90505f60028111156119115761191061572c565b5b8660028111156119245761192361572c565b5b03611b9d575f81600c015f8973ffffffffffffffffffffffffffffffffffffffff1673ffffffffffffffffffffffffffffffffffffffff1681526020019081526020015f205f8761ffff1661ffff1681526020019081526020015f2090505f82600d015f8a73ffffffffffffffffffffffffffffffffffffffff1673ffffffffffffffffffffffffffffffffffffffff1681526020019081526020015f205f8673ffffffffffffffffffffffffffffffffffffffff1673ffffffffffffffffffffffffffffffffffffffff1681526020019081526020015f205f8760ff1660ff1681526020019081526020015f2090508560ff168260010160179054906101000a900460ff1660ff16141580611a8957508473ffffffffffffffffffffffffffffffffffffffff16826001015f9054906101000a900473ffffffffffffffffffffffffffffffffffffffff1673ffffffffffffffffffffffffffffffffffffffff1614155b15611ac0576040517f67b262cb00000000000000000000000000000000000000000000000000000000815260040160405180910390fd5b3373ffffffffffffffffffffffffffffffffffffffff168573ffffffffffffffffffffffffffffffffffffffff1603611b4d57611afd89886130a7565b5f6002811115611b1057611b0f61572c565b5b816001015f9054906101000a900460ff166002811115611b3357611b3261572c565b5b03611b4157611b40615a93565b5b60019350505050611b9f565b611b568961256d565b815f01600b9054906101000a90046affffffffffffffffffffff166affffffffffffffffffffff161015611b9a57611b8e89886130a7565b60019350505050611b9f565b50505b505b95945050505050565b5f611bb16130a3565b90505f816008015f8473ffffffffffffffffffffffffffffffffffffffff1673ffffffffffffffffffffffffffffffffffffffff1681526020019081526020015f2060010160099054906101000a900467ffffffffffffffff1690505f611c758560010160049054906101000a900467ffffffffffffffff1683611c359190615ad3565b67ffffffffffffffff16865f01600b9054906101000a90046affffffffffffffffffffff166affffffffffffffffffffff1661392890919063ffffffff16565b90505f816affffffffffffffffffffff161115611d0d5780855f01600b8282829054906101000a90046affffffffffffffffffffff16611cb59190615786565b92506101000a8154816affffffffffffffffffffff02191690836affffffffffffffffffffff160217905550818560010160046101000a81548167ffffffffffffffff021916908367ffffffffffffffff1602179055505b5050505050565b5f611d75825f01600b9054906101000a90046affffffffffffffffffffff166affffffffffffffffffffff16835f015f9054906101000a90046affffffffffffffffffffff166affffffffffffffffffffff1661399490919063ffffffff16565b9050919050565b5f611d938369ffffffffffffffffffff16836139bd565b905092915050565b5f611da46130a3565b90505f816008015f8873ffffffffffffffffffffffffffffffffffffffff1673ffffffffffffffffffffffffffffffffffffffff1681526020019081526020015f2090505f815f01601f9054906101000a900460ff1660ff1690505f836005015f8381526020019081526020015f20905086815f015f8282829054906101000a90046affffffffffffffffffffff16611e3d9190615952565b92506101000a8154816affffffffffffffffffffff02191690836affffffffffffffffffffff16021790555086835f01600d8282829054906101000a90046affffffffffffffffffffff16611e929190615952565b92506101000a8154816affffffffffffffffffffff02191690836affffffffffffffffffffff1602179055505f611f0f87835f0160169054906101000a900469ffffffffffffffffffff1669ffffffffffffffffffff16611ef39190615a60565b896affffffffffffffffffffff1661392890919063ffffffff16565b90505f816affffffffffffffffffffff161115612095575f603c87611f32612bb8565b611f3c9190615b1d565b63ffffffff161190508015611ff15781866007015f8681526020019081526020015f205f8c73ffffffffffffffffffffffffffffffffffffffff1673ffffffffffffffffffffffffffffffffffffffff1681526020019081526020015f205f015f8282829054906101000a90046affffffffffffffffffffff16611fc09190615786565b92506101000a8154816affffffffffffffffffffff02191690836affffffffffffffffffffff160217905550612093565b81866007015f8681526020019081526020015f205f3073ffffffffffffffffffffffffffffffffffffffff1673ffffffffffffffffffffffffffffffffffffffff1681526020019081526020015f205f015f8282829054906101000a90046affffffffffffffffffffff166120669190615786565b92506101000a8154816affffffffffffffffffffff02191690836affffffffffffffffffffff1602179055505b505b50505050505050505050565b5f6120aa6130a3565b90505f81600d015f8673ffffffffffffffffffffffffffffffffffffffff1673ffffffffffffffffffffffffffffffffffffffff1681526020019081526020015f205f8573ffffffffffffffffffffffffffffffffffffffff1673ffffffffffffffffffffffffffffffffffffffff1681526020019081526020015f205f8460ff1660ff1681526020019081526020015f2090505f60028111156121515761215061572c565b5b816001015f9054906101000a900460ff1660028111156121745761217361572c565b5b1461253a578060010160039054906101000a900460ff1682600d015f8773ffffffffffffffffffffffffffffffffffffffff1673ffffffffffffffffffffffffffffffffffffffff1681526020019081526020015f205f8673ffffffffffffffffffffffffffffffffffffffff1673ffffffffffffffffffffffffffffffffffffffff1681526020019081526020015f205f8360010160019054906101000a900460ff1660ff1660ff1681526020019081526020015f2060010160036101000a81548160ff021916908360ff160217905550600160ff168160010160039054906101000a900460ff1660ff1614612333578060010160019054906101000a900460ff1682600d015f8773ffffffffffffffffffffffffffffffffffffffff1673ffffffffffffffffffffffffffffffffffffffff1681526020019081526020015f205f8673ffffffffffffffffffffffffffffffffffffffff1673ffffffffffffffffffffffffffffffffffffffff1681526020019081526020015f205f8360010160039054906101000a900460ff1660ff1660ff1681526020019081526020015f2060010160016101000a81548160ff021916908360ff1602179055505b5f82600d015f8773ffffffffffffffffffffffffffffffffffffffff1673ffffffffffffffffffffffffffffffffffffffff1681526020019081526020015f205f8673ffffffffffffffffffffffffffffffffffffffff1673ffffffffffffffffffffffffffffffffffffffff1681526020019081526020015f205f600160ff1660ff1681526020019081526020015f2060010160019054906101000a900460ff1690508383600d015f8873ffffffffffffffffffffffffffffffffffffffff1673ffffffffffffffffffffffffffffffffffffffff1681526020019081526020015f205f8773ffffffffffffffffffffffffffffffffffffffff1673ffffffffffffffffffffffffffffffffffffffff1681526020019081526020015f205f600160ff1660ff1681526020019081526020015f2060010160016101000a81548160ff021916908360ff160217905550600160ff168160ff1611156124b457808260010160016101000a81548160ff021916908360ff1602179055506124d3565b60018260010160016101000a81548160ff021916908360ff1602179055505b8473ffffffffffffffffffffffffffffffffffffffff168673ffffffffffffffffffffffffffffffffffffffff167f308fabf328a16a122870d17bc942c7d1030c9f3f3eb3bd0d0139bbc75e705a35866040516125309190615b84565b60405180910390a3505b6002816001015f6101000a81548160ff021916908360028111156125615761256061572c565b5b02179055505050505050565b5f806125776130a3565b9050670de0b6b3a7640000816008015f8573ffffffffffffffffffffffffffffffffffffffff1673ffffffffffffffffffffffffffffffffffffffff1681526020019081526020015f2060010160029054906101000a900461ffff1661ffff166125e19190615b9d565b915050919050565b5f8290505f8173ffffffffffffffffffffffffffffffffffffffff166370a08231336040518263ffffffff1660e01b81526004016126279190615bde565b602060405180830381865afa158015612642573d5f803e3d5ffd5b505050506040513d601f19601f820116820180604052508101906126669190615c21565b9050826affffffffffffffffffffff168110156126af576040517f7db3adca00000000000000000000000000000000000000000000000000000000815260040160405180910390fd5b8173ffffffffffffffffffffffffffffffffffffffff166379cc679033856040518363ffffffff1660e01b81526004016126ea929190615c4c565b5f604051808303815f87803b158015612701575f80fd5b505af1158015612713573d5f803e3d5ffd5b50505050808273ffffffffffffffffffffffffffffffffffffffff166370a08231336040518263ffffffff1660e01b81526004016127519190615bde565b602060405180830381865afa15801561276c573d5f803e3d5ffd5b505050506040513d601f19601f820116820180604052508101906127909190615c21565b1061279e5761279d615a93565b5b50505050565b5f806127ae6130a3565b90505f81600d015f8973ffffffffffffffffffffffffffffffffffffffff1673ffffffffffffffffffffffffffffffffffffffff1681526020019081526020015f205f8573ffffffffffffffffffffffffffffffffffffffff1673ffffffffffffffffffffffffffffffffffffffff1681526020019081526020015f205f8660ff1660ff1681526020019081526020015f2090505f61284c8961256d565b90505f60028111156128615761286061572c565b5b8860028111156128745761287361572c565b5b03612a87575f83600c015f8b73ffffffffffffffffffffffffffffffffffffffff1673ffffffffffffffffffffffffffffffffffffffff1681526020019081526020015f205f8961ffff1661ffff1681526020019081526020015f2090508660ff168160010160179054906101000a900460ff1660ff1614158061294757508573ffffffffffffffffffffffffffffffffffffffff16816001015f9054906101000a900473ffffffffffffffffffffffffffffffffffffffff1673ffffffffffffffffffffffffffffffffffffffff1614155b1561297e576040517f67b262cb00000000000000000000000000000000000000000000000000000000815260040160405180910390fd5b6002808111156129915761299061572c565b5b836001015f9054906101000a900460ff1660028111156129b4576129b361572c565b5b036129fb5781815f015f9054906101000a90046affffffffffffffffffffff166affffffffffffffffffffff1610156129f6576129f18a896130a7565b600194505b612a81565b81835f01600b9054906101000a90046affffffffffffffffffffff16825f015f9054906101000a90046affffffffffffffffffffff16612a3b9190615786565b6affffffffffffffffffffff161015612a80576040517f0960d7a200000000000000000000000000000000000000000000000000000000815260040160405180910390fd5b5b50612b29565b600280811115612a9a57612a9961572c565b5b826001015f9054906101000a900460ff166002811115612abd57612abc61572c565b5b14158015612af1575080825f01600b9054906101000a90046affffffffffffffffffffff166affffffffffffffffffffff16105b15612b28576040517f0960d7a200000000000000000000000000000000000000000000000000000000815260040160405180910390fd5b5b50505095945050505050565b5f80612b3f6130a3565b905080600a015f8473ffffffffffffffffffffffffffffffffffffffff1673ffffffffffffffffffffffffffffffffffffffff1681526020019081526020015f205f600160ff1661ffff1681526020019081526020015f205f01601c9054906101000a900463ffffffff1663ffffffff16915050919050565b5f6362f6fc6542612bc99190615a60565b905090565b5f612bd76130a3565b90505f612be384613aa2565b90505f612c058573ffffffffffffffffffffffffffffffffffffffff16613eac565b69ffffffffffffffffffff169050612c4582612c1f612bb8565b8773ffffffffffffffffffffffffffffffffffffffff16613f2f9092919063ffffffff16565b808203612c545750505061309f565b5f836008015f8773ffffffffffffffffffffffffffffffffffffffff1673ffffffffffffffffffffffffffffffffffffffff1681526020019081526020015f2090505f600160ff1685600c015f8973ffffffffffffffffffffffffffffffffffffffff1673ffffffffffffffffffffffffffffffffffffffff1681526020019081526020015f205f600160ff1661ffff1681526020019081526020015f205f0160199054906101000a900461ffff1661ffff161490508015612d3757600160ff16825f0160186101000a81548161ffff021916908361ffff160217905550613099565b5f805f90505b875181101561306657878181518110612d5957612d58615c73565b5b602002602001015191508060010190505f87600c015f8b73ffffffffffffffffffffffffffffffffffffffff1673ffffffffffffffffffffffffffffffffffffffff1681526020019081526020015f205f8461ffff1661ffff1681526020019081526020015f2090505f815f01601b9054906101000a900460ff16905060066007811115612dea57612de961572c565b5b816007811115612dfd57612dfc61572c565b5b1480612e2c5750600780811115612e1757612e1661572c565b5b816007811115612e2a57612e2961572c565b5b145b80612e5a57505f6007811115612e4557612e4461572c565b5b816007811115612e5857612e5761572c565b5b145b15612e66575050613061565b505f815f01600b9054906101000a900469ffffffffffffffffffff1690505f825f0160159054906101000a900461ffff1690505f8a600c015f8e73ffffffffffffffffffffffffffffffffffffffff1673ffffffffffffffffffffffffffffffffffffffff1681526020019081526020015f205f8361ffff1661ffff1681526020019081526020015f205f01600b9054906101000a900469ffffffffffffffffffff1690505f612f27670df27a2cdf4480008c61404790919063ffffffff16565b8469ffffffffffffffffffff1611158015612f4e57508a8269ffffffffffffffffffff1610155b90505f8b8569ffffffffffffffffffff1610158015612f7857508b8369ffffffffffffffffffff16105b90505f8c8669ffffffffffffffffffff16108015612fae5750600160ff16875f0160199054906101000a900461ffff1661ffff16145b90508115612fe757888b5f0160186101000a81548161ffff021916908361ffff160217905550505050505050505050505050505061309f565b821561301e57848b5f0160186101000a81548161ffff021916908361ffff160217905550505050505050505050505050505061309f565b801561305957600160ff168b5f0160186101000a81548161ffff021916908361ffff160217905550505050505050505050505050505061309f565b505050505050505b612d3d565b506040517f053c10c300000000000000000000000000000000000000000000000000000000815260040160405180910390fd5b50505050505b5050565b5f90565b5f6130b06130a3565b90505f81600c015f8573ffffffffffffffffffffffffffffffffffffffff1673ffffffffffffffffffffffffffffffffffffffff1681526020019081526020015f205f8461ffff1661ffff1681526020019081526020015f2090505f815f01601b9054906101000a900460ff169050600660078111156131335761313261572c565b5b8160078111156131465761314561572c565b5b148061317557506007808111156131605761315f61572c565b5b8160078111156131735761317261572c565b5b145b156131ac576040517f03f7cd9200000000000000000000000000000000000000000000000000000000815260040160405180910390fd5b5f6132446131cb8460010160159054906101000a900461ffff1661405a565b613229855f01600b9054906101000a900469ffffffffffffffffffff1669ffffffffffffffffffff16865f015f9054906101000a90046affffffffffffffffffffff166affffffffffffffffffffff1661392890919063ffffffff16565b6affffffffffffffffffffff1661392890919063ffffffff16565b90505f846008015f8873ffffffffffffffffffffffffffffffffffffffff1673ffffffffffffffffffffffffffffffffffffffff1681526020019081526020015f2090505f815f01601f9054906101000a900460ff1660ff1690505f8560010160179054906101000a900460ff1690505f866001015f9054906101000a900473ffffffffffffffffffffffffffffffffffffffff1690505f88600d015f8c73ffffffffffffffffffffffffffffffffffffffff1673ffffffffffffffffffffffffffffffffffffffff1681526020019081526020015f205f8373ffffffffffffffffffffffffffffffffffffffff1673ffffffffffffffffffffffffffffffffffffffff1681526020019081526020015f205f8460ff1660ff1681526020019081526020015f2090506002808111156133805761337f61572c565b5b816001015f9054906101000a900460ff1660028111156133a3576133a261572c565b5b036133b8576133b38b83856120a1565b613737565b5f6133c28c61256d565b9050806affffffffffffffffffffff16825f01600b9054906101000a90046affffffffffffffffffffff166affffffffffffffffffffff161015613708575f825f01600b9054906101000a90046affffffffffffffffffffff16826134279190615952565b90505f8b6005015f8881526020019081526020015f2090505f6134be61345e8d60010160159054906101000a900461ffff1661405a565b6134a3856affffffffffffffffffffff168f5f01600b9054906101000a900469ffffffffffffffffffff1669ffffffffffffffffffff1661408690919063ffffffff16565b6affffffffffffffffffffff1661392890919063ffffffff16565b90506135028f8789600185888f60010160099054906101000a900467ffffffffffffffff16895f0160169054906101000a900469ffffffffffffffffffff166140ef565b80825f015f8282829054906101000a90046affffffffffffffffffffff1661352a9190615786565b92506101000a8154816affffffffffffffffffffff02191690836affffffffffffffffffffff16021790555080895f01600d8282829054906101000a90046affffffffffffffffffffff1661357f9190615786565b92506101000a8154816affffffffffffffffffffff02191690836affffffffffffffffffffff160217905550826affffffffffffffffffffff16895f015f8282829054906101000a90046cffffffffffffffffffffffffff166135e29190615ca0565b92506101000a8154816cffffffffffffffffffffffffff02191690836cffffffffffffffffffffffffff160217905550808a61361e9190615952565b99505050806affffffffffffffffffffff168b6009015f8f73ffffffffffffffffffffffffffffffffffffffff1673ffffffffffffffffffffffffffffffffffffffff1681526020019081526020015f205f8673ffffffffffffffffffffffffffffffffffffffff1673ffffffffffffffffffffffffffffffffffffffff1681526020019081526020015f205f015f8282829054906101000a90046cffffffffffffffffffffffffff166136d29190615ca0565b92506101000a8154816cffffffffffffffffffffffffff02191690836cffffffffffffffffffffffffff16021790555050613735565b6001826001015f6101000a81548160ff0219169083600281111561372f5761372e61572c565b5b02179055505b505b85896007015f8681526020019081526020015f205f8473ffffffffffffffffffffffffffffffffffffffff1673ffffffffffffffffffffffffffffffffffffffff1681526020019081526020015f205f015f8282829054906101000a90046affffffffffffffffffffff166137ac9190615786565b92506101000a8154816affffffffffffffffffffff02191690836affffffffffffffffffffff160217905550845f0160189054906101000a900461ffff1661ffff168a61ffff160361390d575f6138028c613eac565b69ffffffffffffffffffff1690505f8a600c015f8e73ffffffffffffffffffffffffffffffffffffffff1673ffffffffffffffffffffffffffffffffffffffff1681526020019081526020015f205f8b5f0160159054906101000a900461ffff1661ffff1661ffff1681526020019081526020015f205f01600b9054906101000a900469ffffffffffffffffffff1669ffffffffffffffffffff1690508181106138da57895f0160159054906101000a900461ffff16875f0160186101000a81548161ffff021916908361ffff16021790555061390a565b895f0160199054906101000a900461ffff16875f0160186101000a81548161ffff021916908361ffff1602179055505b50505b61391b89600c018c8c614359565b5050505050505050505050565b5f80613941846affffffffffffffffffffff16846139bd565b90506affffffffffffffffffffff801681111561398a576040517f2c5211c600000000000000000000000000000000000000000000000000000000815260040160405180910390fd5b8091505092915050565b5f6139b5836affffffffffffffffffffff16670de0b6b3a764000084614703565b905092915050565b5f805f80198486098486029250828110838203039150505f81036139fd57670de0b6b3a764000082816139f3576139f2615ce0565b5b0492505050613a9c565b670de0b6b3a76400008110613a4b5784846040517f5173648d000000000000000000000000000000000000000000000000000000008152600401613a42929190615d1c565b60405180910390fd5b5f670de0b6b3a764000085870990507faccb18165bd6fe31ae1cf318dc5b51eee0e1ba569b88cd74c1773b91fac10669600162040000805f0304018483118403026204000083860304170293505050505b92915050565b5f80613aac6130a3565b90505f816002015f9054906101000a900473ffffffffffffffffffffffffffffffffffffffff1690505f613adf85613eac565b69ffffffffffffffffffff1690505f836008015f8773ffffffffffffffffffffffffffffffffffffffff1673ffffffffffffffffffffffffffffffffffffffff1681526020019081526020015f206002015f9054906101000a900473ffffffffffffffffffffffffffffffffffffffff1690505f73ffffffffffffffffffffffffffffffffffffffff168173ffffffffffffffffffffffffffffffffffffffff1603613bb7576040517fc891add200000000000000000000000000000000000000000000000000000000815260040160405180910390fd5b8273ffffffffffffffffffffffffffffffffffffffff1663feaf968c6040518163ffffffff1660e01b815260040160a060405180830381865afa925050508015613c1f57506040513d601f19601f82011682018060405250810190613c1c9190615d8a565b60015b613d7c578273ffffffffffffffffffffffffffffffffffffffff168173ffffffffffffffffffffffffffffffffffffffff1603613c6957613c5e614815565b945050505050613ea7565b5f805f8373ffffffffffffffffffffffffffffffffffffffff1663feaf968c6040518163ffffffff1660e01b815260040160a060405180830381865afa158015613cb5573d5f803e3d5ffd5b505050506040513d601f19601f82011682018060405250810190613cd99190615d8a565b50935050925092505f8369ffffffffffffffffffff161480613cfa57505f82145b80613d0457504281115b15613d3a576040517ebfc92100000000000000000000000000000000000000000000000000000000815260040160405180910390fd5b5f613d43614815565b90505f613d69826402540be40086613d5b9190615e01565b61404790919063ffffffff16565b9050809950505050505050505050613ea7565b8773ffffffffffffffffffffffffffffffffffffffff168673ffffffffffffffffffffffffffffffffffffffff1603613dfa575f808513613dbd575f613dd7565b613dd66402540be40086613dd19190615e01565b6149f7565b5b9050613de68887878685614a1f565b9050809a5050505050505050505050613ea7565b5f805f8873ffffffffffffffffffffffffffffffffffffffff1663feaf968c6040518163ffffffff1660e01b815260040160a060405180830381865afa158015613e46573d5f803e3d5ffd5b505050506040513d601f19601f82011682018060405250810190613e6a9190615d8a565b50935050925092505f613e868884614cd390919063ffffffff16565b9050613e96848a858b868b614cef565b809d50505050505050505050505050505b919050565b5f80613eb66130a3565b905080600a015f8473ffffffffffffffffffffffffffffffffffffffff1673ffffffffffffffffffffffffffffffffffffffff1681526020019081526020015f205f600160ff1661ffff1681526020019081526020015f205f015f9054906101000a90046affffffffffffffffffffff16915050919050565b5f613f386130a3565b90508269ffffffffffffffffffff1681600a015f8673ffffffffffffffffffffffffffffffffffffffff1673ffffffffffffffffffffffffffffffffffffffff1681526020019081526020015f205f600160ff1661ffff1681526020019081526020015f205f015f6101000a8154816affffffffffffffffffffff02191690836affffffffffffffffffffff1602179055508181600a015f8673ffffffffffffffffffffffffffffffffffffffff1673ffffffffffffffffffffffffffffffffffffffff1681526020019081526020015f205f600160ff1661ffff1681526020019081526020015f205f01601c6101000a81548163ffffffff021916908363ffffffff16021790555050505050565b5f61405283836139bd565b905092915050565b5f6064670de0b6b3a76400008361ffff166140759190615b9d565b61407f9190615e77565b9050919050565b5f8061409e8469ffffffffffffffffffff16846139bd565b905069ffffffffffffffffffff80168111156140e5576040517ebfc92100000000000000000000000000000000000000000000000000000000815260040160405180910390fd5b8091505092915050565b5f6140f86130a3565b90505f81600d015f8b73ffffffffffffffffffffffffffffffffffffffff1673ffffffffffffffffffffffffffffffffffffffff1681526020019081526020015f205f8a73ffffffffffffffffffffffffffffffffffffffff1673ffffffffffffffffffffffffffffffffffffffff1681526020019081526020015f205f8960ff1660ff1681526020019081526020015f20905060028081111561419f5761419e61572c565b5b816001015f9054906101000a900460ff1660028111156141c2576141c161572c565b5b036142ae5784815f01600b6101000a8154816affffffffffffffffffffff02191690836affffffffffffffffffffff160217905550838160010160046101000a81548167ffffffffffffffff021916908367ffffffffffffffff16021790555085815f015f6101000a8154816affffffffffffffffffffff02191690836affffffffffffffffffffff16021790555082815f0160166101000a81548169ffffffffffffffffffff021916908369ffffffffffffffffffff160217905550614287612bb8565b81600101600c6101000a81548163ffffffff021916908363ffffffff160217905550614322565b5f6142d98567ffffffffffffffff16876affffffffffffffffffffff16614d9590919063ffffffff16565b90505f6143088569ffffffffffffffffffff16896affffffffffffffffffffff16614d9590919063ffffffff16565b905061431f8388848b8561431a612bb8565b614db5565b50505b86816001015f6101000a81548160ff021916908360028111156143485761434761572c565b5b021790555050505050505050505050565b5f835f8473ffffffffffffffffffffffffffffffffffffffff1673ffffffffffffffffffffffffffffffffffffffff1681526020019081526020015f205f600160ff1661ffff1681526020019081526020015f205f0160159054906101000a900461ffff169050835f8473ffffffffffffffffffffffffffffffffffffffff1673ffffffffffffffffffffffffffffffffffffffff1681526020019081526020015f205f8361ffff1661ffff1681526020019081526020015f205f0160159054906101000a900461ffff16845f8573ffffffffffffffffffffffffffffffffffffffff1673ffffffffffffffffffffffffffffffffffffffff1681526020019081526020015f205f865f8773ffffffffffffffffffffffffffffffffffffffff1673ffffffffffffffffffffffffffffffffffffffff1681526020019081526020015f205f8661ffff1661ffff1681526020019081526020015f205f0160199054906101000a900461ffff1661ffff1661ffff1681526020019081526020015f205f0160156101000a81548161ffff021916908361ffff160217905550835f8473ffffffffffffffffffffffffffffffffffffffff1673ffffffffffffffffffffffffffffffffffffffff1681526020019081526020015f205f8361ffff1661ffff1681526020019081526020015f205f0160199054906101000a900461ffff16845f8573ffffffffffffffffffffffffffffffffffffffff1673ffffffffffffffffffffffffffffffffffffffff1681526020019081526020015f205f865f8773ffffffffffffffffffffffffffffffffffffffff1673ffffffffffffffffffffffffffffffffffffffff1681526020019081526020015f205f8661ffff1661ffff1681526020019081526020015f205f0160159054906101000a900461ffff1661ffff1661ffff1681526020019081526020015f205f0160196101000a81548161ffff021916908361ffff160217905550835f8473ffffffffffffffffffffffffffffffffffffffff1673ffffffffffffffffffffffffffffffffffffffff1681526020019081526020015f205f8361ffff1661ffff1681526020019081526020015f205f01601b9054906101000a900460ff1660078111156146a1576146a061572c565b5b8373ffffffffffffffffffffffffffffffffffffffff167f2097d5c49cf7ba09a2520b6b807629746c2527783ac92cac69d88e846c7f33f5846040516146e79190615eb6565b60405180910390a36146fd848484846006615027565b50505050565b5f805f80198587098587029250828110838203039150505f810361473b5783828161473157614730615ce0565b5b049250505061480e565b838110614783578585856040517f63a0577800000000000000000000000000000000000000000000000000000000815260040161477a93929190615ecf565b60405180910390fd5b5f8486880990508281118203915080830392505f6001861901861690505f81870496508185049450600182835f0304019050808402851794505f60028860030218905080880260020381029050808802600203810290508088026002038102905080880260020381029050808802600203810290508088026002038102905080860296505050505050505b9392505050565b5f803073ffffffffffffffffffffffffffffffffffffffff16630b545214670de0b6b3a76400006107086040518363ffffffff1660e01b815260040161485c929190615f67565b602060405180830381865afa158015614877573d5f803e3d5ffd5b505050506040513d601f19601f8201168201806040525081019061489b9190615c21565b90505f81036148d6576040517fca91730a00000000000000000000000000000000000000000000000000000000815260040160405180910390fd5b5f73c02aaa39b223fe8d0a0e5c4f27ead9083c756cc290505f8173ffffffffffffffffffffffffffffffffffffffff166370a082317388e6a0c2ddd26feeb64f039a2c41296fcb3f56406040518263ffffffff1660e01b815260040161493c9190615bde565b602060405180830381865afa158015614957573d5f803e3d5ffd5b505050506040513d601f19601f8201168201806040525081019061497b9190615c21565b905068056bc75e2d631000008110156149c0576040517f05f4eec200000000000000000000000000000000000000000000000000000000815260040160405180910390fd5b5f620f4240670de0b6b3a76400006149d89190615e77565b846149e39190615b9d565b90506149ee816149f7565b94505050505090565b5f816ec097ce7bc90715b34b9f100000000081614a1757614a16615ce0565b5b049050919050565b5f805f8669ffffffffffffffffffff161480614a3a57505f84145b80614a4457504284115b80614a4f57505f8513155b80614a66575083611c20614a639190615f8e565b42115b90505f878411614a81578388614a7c9190615a60565b614a8e565b8784614a8d9190615a60565b5b90505f8089118015614ab957506706f05b59d3b20000614ab78a84614cd390919063ffffffff16565b115b90508215614ad357614ac9614815565b9350505050614cca565b8015614cc3573073ffffffffffffffffffffffffffffffffffffffff16630b545214670de0b6b3a76400006107086040518363ffffffff1660e01b8152600401614b1e929190615f67565b602060405180830381865afa925050508015614b5857506040513d601f19601f82011682018060405250810190614b559190615c21565b60015b614b6757849350505050614cca565b5f8103614b7a5785945050505050614cca565b5f620f4240670de0b6b3a7640000614b929190615e77565b82614b9d9190615b9d565b90505f614ba9826149f7565b90505f8c8211614bc457818d614bbf9190615a60565b614bd1565b8c82614bd09190615a60565b5b9050808611614be95788975050505050505050614cca565b5f73c02aaa39b223fe8d0a0e5c4f27ead9083c756cc290505f8173ffffffffffffffffffffffffffffffffffffffff166370a082317388e6a0c2ddd26feeb64f039a2c41296fcb3f56406040518263ffffffff1660e01b8152600401614c4f9190615bde565b602060405180830381865afa158015614c6a573d5f803e3d5ffd5b505050506040513d601f19601f82011682018060405250810190614c8e9190615c21565b905068056bc75e2d63100000811015614cb2578a9950505050505050505050614cca565b839950505050505050505050614cca565b8493505050505b95945050505050565b5f614ce783670de0b6b3a764000084614703565b905092915050565b5f808769ffffffffffffffffffff161480614d0957505f83145b80614d1357504283115b80614d1e57505f8513155b80614d3457505f8669ffffffffffffffffffff16145b80614d3e57505f82145b80614d4857504282115b80614d5357505f8413155b90508015614d8c576040517ebfc92100000000000000000000000000000000000000000000000000000000815260040160405180910390fd5b50505050505050565b5f614dad836affffffffffffffffffffff16836139bd565b905092915050565b614e118660010160049054906101000a900467ffffffffffffffff1667ffffffffffffffff16875f01600b9054906101000a90046affffffffffffffffffffff166affffffffffffffffffffff16614d9590919063ffffffff16565b84614e1c9190615f8e565b935084865f01600b8282829054906101000a90046affffffffffffffffffffff16614e479190615786565b92506101000a8154816affffffffffffffffffffff02191690836affffffffffffffffffffff160217905550614ead865f01600b9054906101000a90046affffffffffffffffffffff166affffffffffffffffffffff168561521490919063ffffffff16565b8660010160046101000a81548167ffffffffffffffff021916908367ffffffffffffffff160217905550614f35865f0160169054906101000a900469ffffffffffffffffffff1669ffffffffffffffffffff16875f015f9054906101000a90046affffffffffffffffffffff166affffffffffffffffffffff16614d9590919063ffffffff16565b82614f409190615f8e565b915082865f015f8282829054906101000a90046affffffffffffffffffffff16614f6a9190615786565b92506101000a8154816affffffffffffffffffffff02191690836affffffffffffffffffffff160217905550614fcf865f015f9054906101000a90046affffffffffffffffffffff166affffffffffffffffffffff168361527990919063ffffffff16565b865f0160166101000a81548169ffffffffffffffffffff021916908369ffffffffffffffffffff1602179055508086600101600c6101000a81548163ffffffff021916908363ffffffff160217905550505050505050565b80855f8673ffffffffffffffffffffffffffffffffffffffff1673ffffffffffffffffffffffffffffffffffffffff1681526020019081526020015f205f8561ffff1661ffff1681526020019081526020015f205f01601b6101000a81548160ff0219169083600781111561509f5761509e61572c565b5b021790555082855f8673ffffffffffffffffffffffffffffffffffffffff1673ffffffffffffffffffffffffffffffffffffffff1681526020019081526020015f205f600160ff1661ffff1681526020019081526020015f205f0160156101000a81548161ffff021916908361ffff160217905550600160ff168261ffff16146151985781855f8673ffffffffffffffffffffffffffffffffffffffff1673ffffffffffffffffffffffffffffffffffffffff1681526020019081526020015f205f8561ffff1661ffff1681526020019081526020015f205f0160156101000a81548161ffff021916908361ffff16021790555061520d565b600160ff16855f8673ffffffffffffffffffffffffffffffffffffffff1673ffffffffffffffffffffffffffffffffffffffff1681526020019081526020015f205f8561ffff1661ffff1681526020019081526020015f205f0160156101000a81548161ffff021916908361ffff1602179055505b5050505050565b5f8061522984670de0b6b3a764000085614703565b905067ffffffffffffffff801681111561526f576040517f2c5211c600000000000000000000000000000000000000000000000000000000815260040160405180910390fd5b8091505092915050565b5f8061528e84670de0b6b3a764000085614703565b905069ffffffffffffffffffff80168111156152d6576040517f2c5211c600000000000000000000000000000000000000000000000000000000815260040160405180910390fd5b8091505092915050565b6040518061012001604052805f73ffffffffffffffffffffffffffffffffffffffff1681526020015f81526020015f6affffffffffffffffffffff1681526020015f6affffffffffffffffffffff1681526020015f6affffffffffffffffffffff1681526020015f6affffffffffffffffffffff1681526020015f81526020015f6affffffffffffffffffffff1681526020015f151581525090565b5f604051905090565b5f80fd5b5f80fd5b5f73ffffffffffffffffffffffffffffffffffffffff82169050919050565b5f6153b68261538d565b9050919050565b6153c6816153ac565b81146153d0575f80fd5b50565b5f813590506153e1816153bd565b92915050565b5f60ff82169050919050565b6153fc816153e7565b8114615406575f80fd5b50565b5f81359050615417816153f3565b92915050565b5f6affffffffffffffffffffff82169050919050565b61543c8161541d565b8114615446575f80fd5b50565b5f8135905061545781615433565b92915050565b5f69ffffffffffffffffffff82169050919050565b61547b8161545d565b8114615485575f80fd5b50565b5f8135905061549681615472565b92915050565b5f80fd5b5f601f19601f8301169050919050565b7f4e487b71000000000000000000000000000000000000000000000000000000005f52604160045260245ffd5b6154e6826154a0565b810181811067ffffffffffffffff82111715615505576155046154b0565b5b80604052505050565b5f61551761537c565b905061552382826154dd565b919050565b5f67ffffffffffffffff821115615542576155416154b0565b5b602082029050602081019050919050565b5f80fd5b5f61ffff82169050919050565b61556d81615557565b8114615577575f80fd5b50565b5f8135905061558881615564565b92915050565b5f6155a061559b84615528565b61550e565b905080838252602082019050602084028301858111156155c3576155c2615553565b5b835b818110156155ec57806155d8888261557a565b8452602084019350506020810190506155c5565b5050509392505050565b5f82601f83011261560a5761560961549c565b5b813561561a84826020860161558e565b91505092915050565b5f805f805f8060c0878903121561563d5761563c615385565b5b5f61564a89828a016153d3565b965050602061565b89828a01615409565b955050604061566c89828a01615449565b945050606061567d89828a01615488565b935050608087013567ffffffffffffffff81111561569e5761569d615389565b5b6156aa89828a016155f6565b92505060a06156bb89828a0161557a565b9150509295509295509295565b5f805f80608085870312156156e0576156df615385565b5b5f6156ed878288016153d3565b94505060206156fe87828801615409565b935050604061570f87828801615449565b92505060606157208782880161557a565b91505092959194509250565b7f4e487b71000000000000000000000000000000000000000000000000000000005f52602160045260245ffd5b7f4e487b71000000000000000000000000000000000000000000000000000000005f52601160045260245ffd5b5f6157908261541d565b915061579b8361541d565b925082820190506affffffffffffffffffffff8111156157be576157bd615759565b5b92915050565b6157cd816153ac565b82525050565b6157dc8161545d565b82525050565b6157eb8161541d565b82525050565b5f81519050919050565b5f82825260208201905092915050565b5f819050602082019050919050565b61582381615557565b82525050565b5f615834838361581a565b60208301905092915050565b5f602082019050919050565b5f615856826157f1565b61586081856157fb565b935061586b8361580b565b805f5b8381101561589b5781516158828882615829565b975061588d83615840565b92505060018101905061586e565b5085935050505092915050565b5f60a0820190506158bb5f8301886157c4565b6158c860208301876157c4565b6158d560408301866157d3565b6158e260608301856157e2565b81810360808301526158f4818461584c565b90509695505050505050565b5f8151905061590e81615433565b92915050565b5f806040838503121561592a57615929615385565b5b5f61593785828601615900565b925050602061594885828601615900565b9150509250929050565b5f61595c8261541d565b91506159678361541d565b925082820390506affffffffffffffffffffff81111561598a57615989615759565b5b92915050565b5f6cffffffffffffffffffffffffff82169050919050565b5f6159b282615990565b91506159bd83615990565b925082820390506cffffffffffffffffffffffffff8111156159e2576159e1615759565b5b92915050565b6159f1816153e7565b82525050565b5f819050919050565b5f819050919050565b5f615a23615a1e615a198461541d565b615a00565b6159f7565b9050919050565b615a3381615a09565b82525050565b5f604082019050615a4c5f8301856159e8565b615a596020830184615a2a565b9392505050565b5f615a6a826159f7565b9150615a75836159f7565b9250828203905081811115615a8d57615a8c615759565b5b92915050565b7f4e487b71000000000000000000000000000000000000000000000000000000005f52600160045260245ffd5b5f67ffffffffffffffff82169050919050565b5f615add82615ac0565b9150615ae883615ac0565b9250828203905067ffffffffffffffff811115615b0857615b07615759565b5b92915050565b5f63ffffffff82169050919050565b5f615b2782615b0e565b9150615b3283615b0e565b9250828203905063ffffffff811115615b4e57615b4d615759565b5b92915050565b5f615b6e615b69615b64846153e7565b615a00565b615557565b9050919050565b615b7e81615b54565b82525050565b5f602082019050615b975f830184615b75565b92915050565b5f615ba7826159f7565b9150615bb2836159f7565b9250828202615bc0816159f7565b91508282048414831517615bd757615bd6615759565b5b5092915050565b5f602082019050615bf15f8301846157c4565b92915050565b615c00816159f7565b8114615c0a575f80fd5b50565b5f81519050615c1b81615bf7565b92915050565b5f60208284031215615c3657615c35615385565b5b5f615c4384828501615c0d565b91505092915050565b5f604082019050615c5f5f8301856157c4565b615c6c6020830184615a2a565b9392505050565b7f4e487b71000000000000000000000000000000000000000000000000000000005f52603260045260245ffd5b5f615caa82615990565b9150615cb583615990565b925082820190506cffffffffffffffffffffffffff811115615cda57615cd9615759565b5b92915050565b7f4e487b71000000000000000000000000000000000000000000000000000000005f52601260045260245ffd5b615d16816159f7565b82525050565b5f604082019050615d2f5f830185615d0d565b615d3c6020830184615d0d565b9392505050565b5f81519050615d5181615472565b92915050565b5f819050919050565b615d6981615d57565b8114615d73575f80fd5b50565b5f81519050615d8481615d60565b92915050565b5f805f805f60a08688031215615da357615da2615385565b5b5f615db088828901615d43565b9550506020615dc188828901615d76565b9450506040615dd288828901615c0d565b9350506060615de388828901615c0d565b9250506080615df488828901615d43565b9150509295509295909350565b5f615e0b82615d57565b9150615e1683615d57565b9250828202615e2481615d57565b91507f800000000000000000000000000000000000000000000000000000000000000084145f84121615615e5b57615e5a615759565b5b8282058414831517615e7057615e6f615759565b5b5092915050565b5f615e81826159f7565b9150615e8c836159f7565b925082615e9c57615e9b615ce0565b5b828204905092915050565b615eb081615557565b82525050565b5f602082019050615ec95f830184615ea7565b92915050565b5f606082019050615ee25f830186615d0d565b615eef6020830185615d0d565b615efc6040830184615d0d565b949350505050565b5f6fffffffffffffffffffffffffffffffff82169050919050565b615f2881615f04565b82525050565b5f819050919050565b5f615f51615f4c615f4784615f2e565b615a00565b615b0e565b9050919050565b615f6181615f37565b82525050565b5f604082019050615f7a5f830185615f1f565b615f876020830184615f58565b9392505050565b5f615f98826159f7565b9150615fa3836159f7565b9250828201905080821115615fbb57615fba615759565b5b9291505056fea264697066735822122078474ca9f2071cae64602710a8fa3d0225c3a4ef3578f06579cf58934831c97c64736f6c63430008150033","linkReferences":{}},"methodIdentifiers":{"exitShort(address,uint8,uint88,uint80,uint16[],uint16)":"13314368","exitShortErcEscrowed(address,uint8,uint88,uint16)":"f824a183","exitShortWallet(address,uint8,uint88,uint16)":"5f87616b"},"id":11}