{"abi":[{"type":"function","name":"claimRedemption","inputs":[{"name":"asset","type":"address","internalType":"address"}],"outputs":[],"stateMutability":"nonpayable"},{"type":"function","name":"claimRemainingCollateral","inputs":[{"name":"asset","type":"address","internalType":"address"},{"name":"redeemer","type":"address","internalType":"address"},{"name":"claimIndex","type":"uint8","internalType":"uint8"},{"name":"id","type":"uint8","internalType":"uint8"}],"outputs":[],"stateMutability":"nonpayable"},{"type":"function","name":"disputeRedemption","inputs":[{"name":"asset","type":"address","internalType":"address"},{"name":"redeemer","type":"address","internalType":"address"},{"name":"incorrectIndex","type":"uint8","internalType":"uint8"},{"name":"disputeShorter","type":"address","internalType":"address"},{"name":"disputeShortId","type":"uint8","internalType":"uint8"}],"outputs":[],"stateMutability":"nonpayable"},{"type":"function","name":"proposeRedemption","inputs":[{"name":"asset","type":"address","internalType":"address"},{"name":"proposalInput","type":"tuple[]","internalType":"struct MTypes.ProposalInput[]","components":[{"name":"shorter","type":"address","internalType":"address"},{"name":"shortId","type":"uint8","internalType":"uint8"},{"name":"shortOrderId","type":"uint16","internalType":"uint16"}]},{"name":"redemptionAmount","type":"uint88","internalType":"uint88"},{"name":"maxRedemptionFee","type":"uint88","internalType":"uint88"}],"outputs":[],"stateMutability":"nonpayable"},{"type":"event","name":"CancelOrder","inputs":[{"name":"asset","type":"address","indexed":true,"internalType":"address"},{"name":"orderId","type":"uint16","indexed":false,"internalType":"uint16"},{"name":"orderType","type":"uint8","indexed":true,"internalType":"enum O"}],"anonymous":false},{"type":"event","name":"ClaimRedemption","inputs":[{"name":"asset","type":"address","indexed":true,"internalType":"address"},{"name":"redeemer","type":"address","indexed":true,"internalType":"address"}],"anonymous":false},{"type":"event","name":"DeleteShortRecord","inputs":[{"name":"asset","type":"address","indexed":true,"internalType":"address"},{"name":"user","type":"address","indexed":true,"internalType":"address"},{"name":"srId","type":"uint16","indexed":false,"internalType":"uint16"}],"anonymous":false},{"type":"event","name":"DisputeRedemptionAll","inputs":[{"name":"asset","type":"address","indexed":true,"internalType":"address"},{"name":"redeemer","type":"address","indexed":true,"internalType":"address"}],"anonymous":false},{"type":"event","name":"ProposeRedemption","inputs":[{"name":"asset","type":"address","indexed":true,"internalType":"address"},{"name":"redeemer","type":"address","indexed":true,"internalType":"address"}],"anonymous":false},{"type":"error","name":"AssetIsFrozen","inputs":[]},{"type":"error","name":"CanOnlyClaimYourShort","inputs":[]},{"type":"error","name":"CannotDisputeWithRedeemerProposal","inputs":[]},{"type":"error","name":"CannotDisputeYourself","inputs":[]},{"type":"error","name":"ExistingProposedRedemptions","inputs":[]},{"type":"error","name":"InsufficientERCEscrowed","inputs":[]},{"type":"error","name":"InsufficientETHEscrowed","inputs":[]},{"type":"error","name":"InvalidAmount","inputs":[]},{"type":"error","name":"InvalidPrice","inputs":[]},{"type":"error","name":"InvalidRedemption","inputs":[]},{"type":"error","name":"InvalidRedemptionDispute","inputs":[]},{"type":"error","name":"InvalidShortOrder","inputs":[]},{"type":"error","name":"NotActiveOrder","inputs":[]},{"type":"error","name":"PRBMath_MulDiv18_Overflow","inputs":[{"name":"x","type":"uint256","internalType":"uint256"},{"name":"y","type":"uint256","internalType":"uint256"}]},{"type":"error","name":"PRBMath_MulDiv_Overflow","inputs":[{"name":"x","type":"uint256","internalType":"uint256"},{"name":"y","type":"uint256","internalType":"uint256"},{"name":"denominator","type":"uint256","internalType":"uint256"}]},{"type":"error","name":"PRBMath_UD60x18_Exp2_InputTooBig","inputs":[{"name":"x","type":"uint256","internalType":"UD60x18"}]},{"type":"error","name":"PRBMath_UD60x18_Log_InputTooSmall","inputs":[{"name":"x","type":"uint256","internalType":"UD60x18"}]},{"type":"error","name":"RedemptionFeeTooHigh","inputs":[]},{"type":"error","name":"RedemptionUnderMinShortErc","inputs":[]},{"type":"error","name":"ReentrantCall","inputs":[]},{"type":"error","name":"TimeToDisputeHasElapsed","inputs":[]},{"type":"error","name":"TimeToDisputeHasNotElapsed","inputs":[]},{"type":"error","name":"TooManyProposals","inputs":[]}],"bytecode":{"object":"0x608060405234801561000f575f80fd5b5061752b806200001e5f395ff3fe608060405234801561000f575f80fd5b5060043610610049575f3560e01c806281e6061461004d57806316cb255d14610069578063517b669e14610085578063c0598b0d146100a1575b5f80fd5b61006760048036038101906100629190616891565b6100bd565b005b610083600480360381019061007e9190616908565b610f2e565b005b61009f600480360381019061009a9190616a0d565b611316565b005b6100bb60048036038101906100b69190616a91565b6128c2565b005b845f60018111156100d1576100d0616abc565b5b5f6008015f8373ffffffffffffffffffffffffffffffffffffffff1673ffffffffffffffffffffffffffffffffffffffff1681526020019081526020015f205f01601e9054906101000a900460ff16600181111561013257610131616abc565b5b14610169576040517f0e27a3f700000000000000000000000000000000000000000000000000000000815260040160405180910390fd5b600260ff165f600201601c9054906101000a900460ff1660ff16036101ba576040517f37ed32e800000000000000000000000000000000000000000000000000000000815260040160405180910390fd5b60025f600201601c6101000a81548160ff021916908360ff1602179055503373ffffffffffffffffffffffffffffffffffffffff168573ffffffffffffffffffffffffffffffffffffffff160361023d576040517fc330640300000000000000000000000000000000000000000000000000000000815260040160405180910390fd5b61024561665d565b86815f019073ffffffffffffffffffffffffffffffffffffffff16908173ffffffffffffffffffffffffffffffffffffffff168152505085816020019073ffffffffffffffffffffffffffffffffffffffff16908173ffffffffffffffffffffffffffffffffffffffff16815250505f806009015f835f015173ffffffffffffffffffffffffffffffffffffffff1673ffffffffffffffffffffffffffffffffffffffff1681526020019081526020015f205f836020015173ffffffffffffffffffffffffffffffffffffffff1673ffffffffffffffffffffffffffffffffffffffff1681526020019081526020015f2090505f73ffffffffffffffffffffffffffffffffffffffff16816001015f9054906101000a900473ffffffffffffffffffffffffffffffffffffffff1673ffffffffffffffffffffffffffffffffffffffff16036103c0576040517ffec96f5800000000000000000000000000000000000000000000000000000000815260040160405180910390fd5b8060010160189054906101000a900463ffffffff1663ffffffff166103e3612d8c565b63ffffffff1610610420576040517fd4bddb8000000000000000000000000000000000000000000000000000000000815260040160405180910390fd5b5f61045f826001015f9054906101000a900473ffffffffffffffffffffffffffffffffffffffff1683600101601c9054906101000a900460ff16612da2565b90505f5b8151811015610531578673ffffffffffffffffffffffffffffffffffffffff1682828151811061049657610495616ae9565b5b60200260200101515f015173ffffffffffffffffffffffffffffffffffffffff161480156104e757508560ff168282815181106104d6576104d5616ae9565b5b60200260200101516020015160ff16145b1561051e576040517ffe839fd800000000000000000000000000000000000000000000000000000000815260040160405180910390fd5b808061052990616b4c565b915050610463565b505f80600d015f855f015173ffffffffffffffffffffffffffffffffffffffff1673ffffffffffffffffffffffffffffffffffffffff1681526020019081526020015f205f8873ffffffffffffffffffffffffffffffffffffffff1673ffffffffffffffffffffffffffffffffffffffff1681526020019081526020015f205f8760ff1660ff1681526020019081526020015f2090505f6105d4855f0151612f74565b90506105e68286602001518a84612ff0565b61061c576040517ffec96f5800000000000000000000000000000000000000000000000000000000815260040160405180910390fd5b5f838a60ff168151811061063357610632616ae9565b5b602002602001015190506106456166c7565b5f806008015f895f015173ffffffffffffffffffffffffffffffffffffffff1673ffffffffffffffffffffffffffffffffffffffff1681526020019081526020015f2090505f61088b885f0160159054906101000a900469ffffffffffffffffffff1669ffffffffffffffffffff1687604051806101400160405290815f82015f9054906101000a90046affffffffffffffffffffff166affffffffffffffffffffff166affffffffffffffffffffff1681526020015f8201600b9054906101000a90046affffffffffffffffffffff166affffffffffffffffffffff166affffffffffffffffffffff1681526020015f820160169054906101000a900469ffffffffffffffffffff1669ffffffffffffffffffff1669ffffffffffffffffffff168152602001600182015f9054906101000a900460ff16600281111561078f5761078e616abc565b5b60028111156107a1576107a0616abc565b5b81526020016001820160019054906101000a900460ff1660ff1660ff1681526020016001820160029054906101000a900460ff1660ff1660ff1681526020016001820160039054906101000a900460ff1660ff1660ff1681526020016001820160049054906101000a900467ffffffffffffffff1667ffffffffffffffff1667ffffffffffffffff16815260200160018201600c9054906101000a900463ffffffff1663ffffffff1663ffffffff1681526020016001820160109054906101000a900464ffffffffff1664ffffffffff1664ffffffffff16815250506130a990919063ffffffff16565b9050836040015167ffffffffffffffff16811080156108eb57508760010160149054906101000a900463ffffffff1663ffffffff16610e1087600101600c9054906101000a900463ffffffff1663ffffffff166108e89190616b93565b11155b15610ecd575f8d60ff1690505b8751811015610af15787818151811061091457610913616ae9565b5b602002602001015193505f80600d015f8c5f015173ffffffffffffffffffffffffffffffffffffffff1673ffffffffffffffffffffffffffffffffffffffff1681526020019081526020015f205f865f015173ffffffffffffffffffffffffffffffffffffffff1673ffffffffffffffffffffffffffffffffffffffff1681526020019081526020015f205f866020015160ff1660ff1681526020019081526020015f2090508460800151815f015f8282829054906101000a90046affffffffffffffffffffff166109e69190616bc6565b92506101000a8154816affffffffffffffffffffff02191690836affffffffffffffffffffff1602179055508460600151815f01600b8282829054906101000a90046affffffffffffffffffffff16610a3f9190616bc6565b92506101000a8154816affffffffffffffffffffff02191690836affffffffffffffffffffff16021790555084608001518b604001818151610a819190616bc6565b9150906affffffffffffffffffffff1690816affffffffffffffffffffff168152505084606001518b606001818151610aba9190616bc6565b9150906affffffffffffffffffffff1690816affffffffffffffffffffff1681525050508080610ae990616b4c565b9150506108f8565b5088604001515f6005015f845f01601f9054906101000a900460ff1660ff1681526020019081526020015f205f015f8282829054906101000a90046affffffffffffffffffffff16610b439190616bc6565b92506101000a8154816affffffffffffffffffffff02191690836affffffffffffffffffffff1602179055508860400151825f01600d8282829054906101000a90046affffffffffffffffffffff16610b9c9190616bc6565b92506101000a8154816affffffffffffffffffffff02191690836affffffffffffffffffffff16021790555088606001516affffffffffffffffffffff16825f015f8282829054906101000a90046cffffffffffffffffffffffffff16610c039190616c1c565b92506101000a8154816cffffffffffffffffffffffffff02191690836cffffffffffffffffffffffffff1602179055505f8d60ff161115610c60578c88600101601c6101000a81548160ff021916908360ff160217905550610ce4565b876001015f6101000a81549073ffffffffffffffffffffffffffffffffffffffff02191690558d73ffffffffffffffffffffffffffffffffffffffff16895f015173ffffffffffffffffffffffffffffffffffffffff167fd65abbd42b9f87a2ae56fd9eda55aeaba5c845d9bf82deb710820ffd7d7a9caf60405160405180910390a35b5f610d44610d36610cf78c5f01516130f8565b610d31876040015167ffffffffffffffff1686896040015167ffffffffffffffff16610d239190616c5c565b61317f90919063ffffffff16565b61319b565b670494654067e100006131b3565b90505f610d6b828c606001516affffffffffffffffffffff166131cb90919063ffffffff16565b9050808b60600151610d7d9190616c8f565b6affffffffffffffffffffff168a5f015f8282829054906101000a90046cffffffffffffffffffffffffff16610db39190616c1c565b92506101000a8154816cffffffffffffffffffffffffff02191690836cffffffffffffffffffffffffff160217905550806affffffffffffffffffffff165f6009015f8d5f015173ffffffffffffffffffffffffffffffffffffffff1673ffffffffffffffffffffffffffffffffffffffff1681526020019081526020015f205f3373ffffffffffffffffffffffffffffffffffffffff1673ffffffffffffffffffffffffffffffffffffffff1681526020019081526020015f205f015f8282829054906101000a90046cffffffffffffffffffffffffff16610e969190616c1c565b92506101000a8154816cffffffffffffffffffffffffff02191690836cffffffffffffffffffffffffff1602179055505050610eff565b6040517f33a8fb7b00000000000000000000000000000000000000000000000000000000815260040160405180910390fd5b50505050505050505060015f600201601c6101000a81548160ff021916908360ff160217905550505050505050565b835f6001811115610f4257610f41616abc565b5b5f6008015f8373ffffffffffffffffffffffffffffffffffffffff1673ffffffffffffffffffffffffffffffffffffffff1681526020019081526020015f205f01601e9054906101000a900460ff166001811115610fa357610fa2616abc565b5b14610fda576040517f0e27a3f700000000000000000000000000000000000000000000000000000000815260040160405180910390fd5b600260ff165f600201601c9054906101000a900460ff1660ff160361102b576040517f37ed32e800000000000000000000000000000000000000000000000000000000815260040160405180910390fd5b60025f600201601c6101000a81548160ff021916908360ff1602179055505f806009015f8773ffffffffffffffffffffffffffffffffffffffff1673ffffffffffffffffffffffffffffffffffffffff1681526020019081526020015f205f8673ffffffffffffffffffffffffffffffffffffffff1673ffffffffffffffffffffffffffffffffffffffff1681526020019081526020015f2090505f73ffffffffffffffffffffffffffffffffffffffff16816001015f9054906101000a900473ffffffffffffffffffffffffffffffffffffffff1673ffffffffffffffffffffffffffffffffffffffff160361114e576040517ffec96f5800000000000000000000000000000000000000000000000000000000815260040160405180910390fd5b611156612d8c565b63ffffffff168160010160189054906101000a900463ffffffff1663ffffffff1611156111af576040517f8ba3ddb300000000000000000000000000000000000000000000000000000000815260040160405180910390fd5b5f6111e9826001015f9054906101000a900473ffffffffffffffffffffffffffffffffffffffff166001876111e49190616ccd565b612da2565b90505f818660ff168151811061120257611201616ae9565b5b602002602001015190503373ffffffffffffffffffffffffffffffffffffffff16815f015173ffffffffffffffffffffffffffffffffffffffff161415801561125557508460ff16816020015160ff1614155b1561128c576040517f957c137e00000000000000000000000000000000000000000000000000000000815260040160405180910390fd5b5f806008015f8a73ffffffffffffffffffffffffffffffffffffffff1673ffffffffffffffffffffffffffffffffffffffff1681526020019081526020015f2090506112ed89825f01601f9054906101000a900460ff1660ff163389613237565b5050505060015f600201601c6101000a81548160ff021916908360ff1602179055505050505050565b845f600181111561132a57611329616abc565b5b5f6008015f8373ffffffffffffffffffffffffffffffffffffffff1673ffffffffffffffffffffffffffffffffffffffff1681526020019081526020015f205f01601e9054906101000a900460ff16600181111561138b5761138a616abc565b5b146113c2576040517f0e27a3f700000000000000000000000000000000000000000000000000000000815260040160405180910390fd5b600260ff165f600201601c9054906101000a900460ff1660ff1603611413576040517f37ed32e800000000000000000000000000000000000000000000000000000000815260040160405180910390fd5b60025f600201601c6101000a81548160ff021916908360ff16021790555060ff8016858590501115611471576040517f188f201e00000000000000000000000000000000000000000000000000000000815260040160405180910390fd5b61147961672e565b86815f019073ffffffffffffffffffffffffffffffffffffffff16908173ffffffffffffffffffffffffffffffffffffffff16815250505f806009015f835f015173ffffffffffffffffffffffffffffffffffffffff1673ffffffffffffffffffffffffffffffffffffffff1681526020019081526020015f205f3373ffffffffffffffffffffffffffffffffffffffff1673ffffffffffffffffffffffffffffffffffffffff1681526020019081526020015f2090505f61153d835f0151612f74565b905080866affffffffffffffffffffff161015611586576040517f8983250000000000000000000000000000000000000000000000000000000000815260040160405180910390fd5b856affffffffffffffffffffff16825f015f9054906101000a90046cffffffffffffffffffffffffff166cffffffffffffffffffffffffff1610156115f7576040517f4bf8161700000000000000000000000000000000000000000000000000000000815260040160405180910390fd5b5f73ffffffffffffffffffffffffffffffffffffffff16826001015f9054906101000a900473ffffffffffffffffffffffffffffffffffffffff1673ffffffffffffffffffffffffffffffffffffffff161461167f576040517fdf610cf400000000000000000000000000000000000000000000000000000000815260040160405180910390fd5b61168b835f0151613450565b83610120019069ffffffffffffffffffff16908169ffffffffffffffffffff168152505060605f5b898990508160ff1610156120405789898260ff168181106116d7576116d6616ae9565b5b9050606002015f0160208101906116ee9190616a91565b856020019073ffffffffffffffffffffffffffffffffffffffff16908173ffffffffffffffffffffffffffffffffffffffff168152505089898260ff1681811061173b5761173a616ae9565b5b90506060020160200160208101906117539190616d01565b856040019060ff16908160ff168152505089898260ff1681811061177a57611779616ae9565b5b90506060020160400160208101906117929190616d63565b856060019061ffff16908161ffff16815250505f80600d015f875f015173ffffffffffffffffffffffffffffffffffffffff1673ffffffffffffffffffffffffffffffffffffffff1681526020019081526020015f205f876020015173ffffffffffffffffffffffffffffffffffffffff1673ffffffffffffffffffffffffffffffffffffffff1681526020019081526020015f205f876040015160ff1660ff1681526020019081526020015f2090506118528133886020015187612ff0565b61185c575061202d565b611872865f0151826134d390919063ffffffff16565b611a5e86610120015169ffffffffffffffffffff1682604051806101400160405290815f82015f9054906101000a90046affffffffffffffffffffff166affffffffffffffffffffff166affffffffffffffffffffff1681526020015f8201600b9054906101000a90046affffffffffffffffffffff166affffffffffffffffffffff166affffffffffffffffffffff1681526020015f820160169054906101000a900469ffffffffffffffffffff1669ffffffffffffffffffff1669ffffffffffffffffffff168152602001600182015f9054906101000a900460ff16600281111561196257611961616abc565b5b600281111561197457611973616abc565b5b81526020016001820160019054906101000a900460ff1660ff1660ff1681526020016001820160029054906101000a900460ff1660ff1660ff1681526020016001820160039054906101000a900460ff1660ff1660ff1681526020016001820160049054906101000a900467ffffffffffffffff1667ffffffffffffffff1667ffffffffffffffff16815260200160018201600c9054906101000a900463ffffffff1663ffffffff1663ffffffff1681526020016001820160109054906101000a900464ffffffffff1664ffffffffff1664ffffffffff16815250506130a990919063ffffffff16565b8660c00181815250508560c001518660e001511180611a895750671bc16d674ec800008660c0015110155b15611a94575061202d565b886affffffffffffffffffffff16815f01600b9054906101000a90046affffffffffffffffffffff168760800151611acc9190616bc6565b6affffffffffffffffffffff1611611b2457805f01600b9054906101000a90046affffffffffffffffffffff168661014001906affffffffffffffffffffff1690816affffffffffffffffffffff1681525050611ba0565b856080015189611b349190616c8f565b8661014001906affffffffffffffffffffff1690816affffffffffffffffffffff168152505083866101400151825f01600b9054906101000a90046affffffffffffffffffffff16611b869190616c8f565b6affffffffffffffffffffff161015611b9f5750612040565b5b8560c001518660e00181815250505f80600c015f8e73ffffffffffffffffffffffffffffffffffffffff1673ffffffffffffffffffffffffffffffffffffffff1681526020019081526020015f205f886060015161ffff1661ffff1681526020019081526020015f2090505f6002811115611c1e57611c1d616abc565b5b826001015f9054906101000a900460ff166002811115611c4157611c40616abc565b5b148015611c73575084815f015f9054906101000a90046affffffffffffffffffffff166affffffffffffffffffffff16105b15611d3b57866040015160ff168160010160179054906101000a900460ff1660ff16141580611cf55750866020015173ffffffffffffffffffffffffffffffffffffffff16816001015f9054906101000a900473ffffffffffffffffffffffffffffffffffffffff1673ffffffffffffffffffffffffffffffffffffffff1614155b15611d2c576040517f67b262cb00000000000000000000000000000000000000000000000000000000815260040160405180910390fd5b611d3a8d886060015161363f565b5b611d718761014001516affffffffffffffffffffff1688610120015169ffffffffffffffffffff16613ec090919063ffffffff16565b8761016001906affffffffffffffffffffff1690816affffffffffffffffffffff1681525050815f015f9054906101000a90046affffffffffffffffffffff166affffffffffffffffffffff168761016001516affffffffffffffffffffff161115611e1857815f015f9054906101000a90046affffffffffffffffffffff168761016001906affffffffffffffffffffff1690816affffffffffffffffffffff16815250505b866101600151825f015f8282829054906101000a90046affffffffffffffffffffff16611e459190616c8f565b92506101000a8154816affffffffffffffffffffff02191690836affffffffffffffffffffff160217905550866101400151825f01600b8282829054906101000a90046affffffffffffffffffffff16611e9f9190616c8f565b92506101000a8154816affffffffffffffffffffff02191690836affffffffffffffffffffff16021790555086610140015187608001818151611ee29190616bc6565b9150906affffffffffffffffffffff1690816affffffffffffffffffffff16815250508661016001518760a001818151611f1c9190616bc6565b9150906affffffffffffffffffffff1690816affffffffffffffffffffff168152505083876020015160601b886040015160f81b8960c0015160c01b8a610140015160a81b8b610160015160a81b604051602001611f7f96959493929190616f26565b6040516020818303038152906040529350611fe2875f01518860200151896101600151855f0160169054906101000a900469ffffffffffffffffffff1669ffffffffffffffffffff1686600101600c9054906101000a900463ffffffff16613f29565b86610100018051809190611ff590616f91565b60ff1660ff16815250508487608001518b6120109190616c8f565b6affffffffffffffffffffff16101561202a575050612040565b50505b808061203890616f91565b9150506116b3565b508184608001516affffffffffffffffffffff16101561208c576040517f8983250000000000000000000000000000000000000000000000000000000000815260040160405180910390fd5b6120958161422f565b836001015f6101000a81548173ffffffffffffffffffffffffffffffffffffffff021916908373ffffffffffffffffffffffffffffffffffffffff16021790555083610100015183600101601c6101000a81548160ff021916908360ff160217905550836101200151835f0160156101000a81548169ffffffffffffffffffff021916908369ffffffffffffffffffff16021790555083608001516affffffffffffffffffffff16835f015f8282829054906101000a90046cffffffffffffffffffffffffff166121669190616fb9565b92506101000a8154816cffffffffffffffffffffffffff02191690836cffffffffffffffffffffffffff1602179055505f806008015f865f015173ffffffffffffffffffffffffffffffffffffffff1673ffffffffffffffffffffffffffffffffffffffff1681526020019081526020015f20905084608001516affffffffffffffffffffff16815f015f8282829054906101000a90046cffffffffffffffffffffffffff166122169190616fb9565b92506101000a8154816cffffffffffffffffffffffffff02191690836cffffffffffffffffffffffffff1602179055505f61224f612d8c565b9050808560010160146101000a81548163ffffffff021916908363ffffffff1602179055505f6717979cfe362a00008760c00151111561233d576122ac670429d069189e00006729a2241af62c000061317f90919063ffffffff16565b9050670de0b6b3a7640000610e106729a2241af62c00006122ed6717979cfe362a00008b60c001516122de9190616c5c565b856142f590919063ffffffff16565b6122f79190616b93565b6123019190616ff9565b61230b9190617067565b8261231691906170a6565b8660010160186101000a81548163ffffffff021916908363ffffffff16021790555061264a565b6714d1120d7b1600008760c001511115612405576123746702c68af0bb1400006714d1120d7b16000061317f90919063ffffffff16565b9050670de0b6b3a7640000610e106714d1120d7b1600006123b56714d1120d7b1600008b60c001516123a69190616c5c565b856142f590919063ffffffff16565b6123bf9190616b93565b6123c99190616ff9565b6123d39190617067565b826123de91906170a6565b8660010160186101000a81548163ffffffff021916908363ffffffff160217905550612649565b67120a871cc00200008760c0015111156124cd5761243c6702c68af0bb140000670a688906bd8b000061317f90919063ffffffff16565b9050670de0b6b3a7640000610e10670a688906bd8b000061247d67120a871cc00200008b60c0015161246e9190616c5c565b856142f590919063ffffffff16565b6124879190616b93565b6124919190616ff9565b61249b9190617067565b826124a691906170a6565b8660010160186101000a81548163ffffffff021916908363ffffffff160217905550612648565b6710a741a4627800008760c0015111156125955761250467016345785d8a00006705c97b4a6756800061317f90919063ffffffff16565b9050670de0b6b3a7640000610e106704a03ce68d2155556125456710a741a4627800008b60c001516125369190616c5c565b856142f590919063ffffffff16565b61254f9190616b93565b6125599190616ff9565b6125639190617067565b8261256e91906170a6565b8660010160186101000a81548163ffffffff021916908363ffffffff160217905550612647565b670f43fc2c04ee00008760c001511115612646576125cc67016345785d8a00006704a03ce68d21555561317f90919063ffffffff16565b9050670de0b6b3a7640000610e10612604670f43fc2c04ee00008a60c001516125f59190616c5c565b846142f590919063ffffffff16565b61260e9190616ff9565b6126189190617067565b8261262391906170a6565b8660010160186101000a81548163ffffffff021916908363ffffffff1602179055505b5b5b5b5b866101200151865f0160156101000a81548169ffffffffffffffffffff021916908369ffffffffffffffffffff160217905550612685612d8c565b8660010160146101000a81548163ffffffff021916908363ffffffff1602179055505f6126bb8e8960a001518a60800151614308565b9050896affffffffffffffffffffff16816affffffffffffffffffffff161115612711576040517f52efede900000000000000000000000000000000000000000000000000000000815260040160405180910390fd5b5f806007015f865f01601f9054906101000a900460ff1660ff1681526020019081526020015f205f3373ffffffffffffffffffffffffffffffffffffffff1673ffffffffffffffffffffffffffffffffffffffff1681526020019081526020015f209050816affffffffffffffffffffff16815f015f9054906101000a90046affffffffffffffffffffff166affffffffffffffffffffff1610156127e2576040517f7d243a2c00000000000000000000000000000000000000000000000000000000815260040160405180910390fd5b81815f015f8282829054906101000a90046affffffffffffffffffffff1661280a9190616c8f565b92506101000a8154816affffffffffffffffffffff02191690836affffffffffffffffffffff1602179055503373ffffffffffffffffffffffffffffffffffffffff16895f015173ffffffffffffffffffffffffffffffffffffffff167ff33d7cb52f3995cdf8fd91ea38990b00739e91ef413713d508c7eb48dce5d1ca60405160405180910390a350505050505050505060015f600201601c6101000a81548160ff021916908360ff160217905550505050505050565b805f60018111156128d6576128d5616abc565b5b5f6008015f8373ffffffffffffffffffffffffffffffffffffffff1673ffffffffffffffffffffffffffffffffffffffff1681526020019081526020015f205f01601e9054906101000a900460ff16600181111561293757612936616abc565b5b1461296e576040517f0e27a3f700000000000000000000000000000000000000000000000000000000815260040160405180910390fd5b600260ff165f600201601c9054906101000a900460ff1660ff16036129bf576040517f37ed32e800000000000000000000000000000000000000000000000000000000815260040160405180910390fd5b60025f600201601c6101000a81548160ff021916908360ff1602179055505f806008015f8473ffffffffffffffffffffffffffffffffffffffff1673ffffffffffffffffffffffffffffffffffffffff1681526020019081526020015f205f01601f9054906101000a900460ff1660ff1690505f806009015f8573ffffffffffffffffffffffffffffffffffffffff1673ffffffffffffffffffffffffffffffffffffffff1681526020019081526020015f205f3373ffffffffffffffffffffffffffffffffffffffff1673ffffffffffffffffffffffffffffffffffffffff1681526020019081526020015f2090505f806007015f8481526020019081526020015f205f3373ffffffffffffffffffffffffffffffffffffffff1673ffffffffffffffffffffffffffffffffffffffff1681526020019081526020015f2090505f73ffffffffffffffffffffffffffffffffffffffff16826001015f9054906101000a900473ffffffffffffffffffffffffffffffffffffffff1673ffffffffffffffffffffffffffffffffffffffff1603612b88576040517ffec96f5800000000000000000000000000000000000000000000000000000000815260040160405180910390fd5b8160010160189054906101000a900463ffffffff1663ffffffff16612bab612d8c565b63ffffffff161015612be9576040517f8ba3ddb300000000000000000000000000000000000000000000000000000000815260040160405180910390fd5b5f612c28836001015f9054906101000a900473ffffffffffffffffffffffffffffffffffffffff1684600101601c9054906101000a900460ff16612da2565b90505f805f90505b8251811015612c90575f838281518110612c4d57612c4c616ae9565b5b60200260200101519050806080015183612c679190616bc6565b9250612c7c8988835f01518460200151613237565b508080612c8890616b4c565b915050612c30565b5080835f015f8282829054906101000a90046affffffffffffffffffffff16612cb99190616bc6565b92506101000a8154816affffffffffffffffffffff02191690836affffffffffffffffffffff160217905550836001015f6101000a81549073ffffffffffffffffffffffffffffffffffffffff02191690553373ffffffffffffffffffffffffffffffffffffffff168773ffffffffffffffffffffffffffffffffffffffff167f87818824f7bcf3a7954dca9a0412da99dc08e932b71ce334a72cc0ab9c1ef4cd60405160405180910390a3505050505060015f600201601c6101000a81548160ff021916908360ff1602179055505050565b5f6362f6fc6542612d9d9190616c5c565b905090565b60605f612dae84614580565b90505f60338251612dbf91906170dd565b14612dff576040517f08c379a0000000000000000000000000000000000000000000000000000000008152600401612df690617167565b60405180910390fd5b5f8360ff1667ffffffffffffffff811115612e1d57612e1c617185565b5b604051908082528060200260200182016040528015612e5657816020015b612e436166c7565b815260200190600190039081612e3b5790505b5090505f5b8460ff16811015612f68575f6020603383612e769190616ff9565b612e809190616b93565b90505f805f805f858901518060601c95508060581c60ff1694508060181c67ffffffffffffffff169350601d87018a015190508060a81c92508060501c6affffffffffffffffffffff019150506040518060a001604052808673ffffffffffffffffffffffffffffffffffffffff1681526020018560ff1681526020018467ffffffffffffffff168152602001836affffffffffffffffffffff168152602001826affffffffffffffffffffff16815250888881518110612f4457612f43616ae9565b5b60200260200101819052505050505050508080612f6090616b4c565b915050612e5b565b50809250505092915050565b5f80612f7e6145b7565b9050670de0b6b3a7640000816008015f8573ffffffffffffffffffffffffffffffffffffffff1673ffffffffffffffffffffffffffffffffffffffff1681526020019081526020015f2060010160029054906101000a900461ffff1661ffff16612fe89190616ff9565b915050919050565b5f60028081111561300457613003616abc565b5b856001015f9054906101000a900460ff16600281111561302757613026616abc565b5b1480613059575081855f01600b9054906101000a90046affffffffffffffffffffff166affffffffffffffffffffff16105b8061308f57508273ffffffffffffffffffffffffffffffffffffffff168473ffffffffffffffffffffffffffffffffffffffff16145b1561309c575f90506130a1565b600190505b949350505050565b5f6130f06130d18385602001516affffffffffffffffffffff166145bb90919063ffffffff16565b845f01516affffffffffffffffffffff166145db90919063ffffffff16565b905092915050565b5f806131026145b7565b90506103e8670de0b6b3a7640000826008015f8673ffffffffffffffffffffffffffffffffffffffff1673ffffffffffffffffffffffffffffffffffffffff1681526020019081526020015f2060010160069054906101000a900460ff1660ff1661316d9190616ff9565b6131779190617067565b915050919050565b5f61319383670de0b6b3a764000084614604565b905092915050565b5f8183116131a957816131ab565b825b905092915050565b5f8183106131c157816131c3565b825b905092915050565b5f806131e4846affffffffffffffffffffff1684614716565b90506affffffffffffffffffffff801681111561322d576040517f2c5211c600000000000000000000000000000000000000000000000000000000815260040160405180910390fd5b8091505092915050565b5f80600d015f8673ffffffffffffffffffffffffffffffffffffffff1673ffffffffffffffffffffffffffffffffffffffff1681526020019081526020015f205f8473ffffffffffffffffffffffffffffffffffffffff1673ffffffffffffffffffffffffffffffffffffffff1681526020019081526020015f205f8360ff1660ff1681526020019081526020015f2090505f815f01600b9054906101000a90046affffffffffffffffffffff166affffffffffffffffffffff1614801561333357506001600281111561330e5761330d616abc565b5b816001015f9054906101000a900460ff16600281111561333157613330616abc565b5b145b15613449575f815f015f9054906101000a90046affffffffffffffffffffff169050805f6007015f8781526020019081526020015f205f8673ffffffffffffffffffffffffffffffffffffffff1673ffffffffffffffffffffffffffffffffffffffff1681526020019081526020015f205f015f8282829054906101000a90046affffffffffffffffffffff166133ca9190616bc6565b92506101000a8154816affffffffffffffffffffff02191690836affffffffffffffffffffff16021790555061343c868583855f0160169054906101000a900469ffffffffffffffffffff1669ffffffffffffffffffff1686600101600c9054906101000a900463ffffffff16613f29565b6134478685856147fb565b505b5050505050565b5f8061345a6145b7565b905080600a015f8473ffffffffffffffffffffffffffffffffffffffff1673ffffffffffffffffffffffffffffffffffffffff1681526020019081526020015f205f600160ff1661ffff1681526020019081526020015f205f015f9054906101000a90046affffffffffffffffffffff16915050919050565b5f6134dc6145b7565b90505f816008015f8473ffffffffffffffffffffffffffffffffffffffff1673ffffffffffffffffffffffffffffffffffffffff1681526020019081526020015f2060010160099054906101000a900467ffffffffffffffff1690505f6135a08560010160049054906101000a900467ffffffffffffffff168361356091906171c5565b67ffffffffffffffff16865f01600b9054906101000a90046affffffffffffffffffffff166affffffffffffffffffffff166131cb90919063ffffffff16565b90505f816affffffffffffffffffffff1611156136385780855f01600b8282829054906101000a90046affffffffffffffffffffff166135e09190616bc6565b92506101000a8154816affffffffffffffffffffff02191690836affffffffffffffffffffff160217905550818560010160046101000a81548167ffffffffffffffff021916908367ffffffffffffffff1602179055505b5050505050565b5f6136486145b7565b90505f81600c015f8573ffffffffffffffffffffffffffffffffffffffff1673ffffffffffffffffffffffffffffffffffffffff1681526020019081526020015f205f8461ffff1661ffff1681526020019081526020015f2090505f815f01601b9054906101000a900460ff169050600660078111156136cb576136ca616abc565b5b8160078111156136de576136dd616abc565b5b148061370d57506007808111156136f8576136f7616abc565b5b81600781111561370b5761370a616abc565b5b145b15613744576040517f03f7cd9200000000000000000000000000000000000000000000000000000000815260040160405180910390fd5b5f6137dc6137638460010160159054906101000a900461ffff16614cc7565b6137c1855f01600b9054906101000a900469ffffffffffffffffffff1669ffffffffffffffffffff16865f015f9054906101000a90046affffffffffffffffffffff166affffffffffffffffffffff166131cb90919063ffffffff16565b6affffffffffffffffffffff166131cb90919063ffffffff16565b90505f846008015f8873ffffffffffffffffffffffffffffffffffffffff1673ffffffffffffffffffffffffffffffffffffffff1681526020019081526020015f2090505f815f01601f9054906101000a900460ff1660ff1690505f8560010160179054906101000a900460ff1690505f866001015f9054906101000a900473ffffffffffffffffffffffffffffffffffffffff1690505f88600d015f8c73ffffffffffffffffffffffffffffffffffffffff1673ffffffffffffffffffffffffffffffffffffffff1681526020019081526020015f205f8373ffffffffffffffffffffffffffffffffffffffff1673ffffffffffffffffffffffffffffffffffffffff1681526020019081526020015f205f8460ff1660ff1681526020019081526020015f20905060028081111561391857613917616abc565b5b816001015f9054906101000a900460ff16600281111561393b5761393a616abc565b5b036139505761394b8b83856147fb565b613ccf565b5f61395a8c612f74565b9050806affffffffffffffffffffff16825f01600b9054906101000a90046affffffffffffffffffffff166affffffffffffffffffffff161015613ca0575f825f01600b9054906101000a90046affffffffffffffffffffff16826139bf9190616c8f565b90505f8b6005015f8881526020019081526020015f2090505f613a566139f68d60010160159054906101000a900461ffff16614cc7565b613a3b856affffffffffffffffffffff168f5f01600b9054906101000a900469ffffffffffffffffffff1669ffffffffffffffffffff16613ec090919063ffffffff16565b6affffffffffffffffffffff166131cb90919063ffffffff16565b9050613a9a8f8789600185888f60010160099054906101000a900467ffffffffffffffff16895f0160169054906101000a900469ffffffffffffffffffff16614cf3565b80825f015f8282829054906101000a90046affffffffffffffffffffff16613ac29190616bc6565b92506101000a8154816affffffffffffffffffffff02191690836affffffffffffffffffffff16021790555080895f01600d8282829054906101000a90046affffffffffffffffffffff16613b179190616bc6565b92506101000a8154816affffffffffffffffffffff02191690836affffffffffffffffffffff160217905550826affffffffffffffffffffff16895f015f8282829054906101000a90046cffffffffffffffffffffffffff16613b7a9190616c1c565b92506101000a8154816cffffffffffffffffffffffffff02191690836cffffffffffffffffffffffffff160217905550808a613bb69190616c8f565b99505050806affffffffffffffffffffff168b6009015f8f73ffffffffffffffffffffffffffffffffffffffff1673ffffffffffffffffffffffffffffffffffffffff1681526020019081526020015f205f8673ffffffffffffffffffffffffffffffffffffffff1673ffffffffffffffffffffffffffffffffffffffff1681526020019081526020015f205f015f8282829054906101000a90046cffffffffffffffffffffffffff16613c6a9190616c1c565b92506101000a8154816cffffffffffffffffffffffffff02191690836cffffffffffffffffffffffffff16021790555050613ccd565b6001826001015f6101000a81548160ff02191690836002811115613cc757613cc6616abc565b5b02179055505b505b85896007015f8681526020019081526020015f205f8473ffffffffffffffffffffffffffffffffffffffff1673ffffffffffffffffffffffffffffffffffffffff1681526020019081526020015f205f015f8282829054906101000a90046affffffffffffffffffffff16613d449190616bc6565b92506101000a8154816affffffffffffffffffffff02191690836affffffffffffffffffffff160217905550845f0160189054906101000a900461ffff1661ffff168a61ffff1603613ea5575f613d9a8c613450565b69ffffffffffffffffffff1690505f8a600c015f8e73ffffffffffffffffffffffffffffffffffffffff1673ffffffffffffffffffffffffffffffffffffffff1681526020019081526020015f205f8b5f0160159054906101000a900461ffff1661ffff1661ffff1681526020019081526020015f205f01600b9054906101000a900469ffffffffffffffffffff1669ffffffffffffffffffff169050818110613e7257895f0160159054906101000a900461ffff16875f0160186101000a81548161ffff021916908361ffff160217905550613ea2565b895f0160199054906101000a900461ffff16875f0160186101000a81548161ffff021916908361ffff1602179055505b50505b613eb389600c018c8c614f5d565b5050505050505050505050565b5f80613ed88469ffffffffffffffffffff1684614716565b905069ffffffffffffffffffff8016811115613f1f576040517ebfc92100000000000000000000000000000000000000000000000000000000815260040160405180910390fd5b8091505092915050565b5f613f326145b7565b90505f816008015f8873ffffffffffffffffffffffffffffffffffffffff1673ffffffffffffffffffffffffffffffffffffffff1681526020019081526020015f2090505f815f01601f9054906101000a900460ff1660ff1690505f836005015f8381526020019081526020015f20905086815f015f8282829054906101000a90046affffffffffffffffffffff16613fcb9190616c8f565b92506101000a8154816affffffffffffffffffffff02191690836affffffffffffffffffffff16021790555086835f01600d8282829054906101000a90046affffffffffffffffffffff166140209190616c8f565b92506101000a8154816affffffffffffffffffffff02191690836affffffffffffffffffffff1602179055505f61409d87835f0160169054906101000a900469ffffffffffffffffffff1669ffffffffffffffffffff166140819190616c5c565b896affffffffffffffffffffff166131cb90919063ffffffff16565b90505f816affffffffffffffffffffff161115614223575f603c876140c0612d8c565b6140ca9190617200565b63ffffffff16119050801561417f5781866007015f8681526020019081526020015f205f8c73ffffffffffffffffffffffffffffffffffffffff1673ffffffffffffffffffffffffffffffffffffffff1681526020019081526020015f205f015f8282829054906101000a90046affffffffffffffffffffff1661414e9190616bc6565b92506101000a8154816affffffffffffffffffffff02191690836affffffffffffffffffffff160217905550614221565b81866007015f8681526020019081526020015f205f3073ffffffffffffffffffffffffffffffffffffffff1673ffffffffffffffffffffffffffffffffffffffff1681526020019081526020015f205f015f8282829054906101000a90046affffffffffffffffffffff166141f49190616bc6565b92506101000a8154816affffffffffffffffffffff02191690836affffffffffffffffffffff1602179055505b505b50505050505050505050565b5f8082604051602001614242919061726b565b60405160208183030381529060405290505f8160405160200161426591906172d6565b60405160208183030381529060405290508051602082015ff092505f73ffffffffffffffffffffffffffffffffffffffff168373ffffffffffffffffffffffffffffffffffffffff16036142ee576040517f08c379a00000000000000000000000000000000000000000000000000000000081526004016142e590617341565b60405180910390fd5b5050919050565b5f6143008383614716565b905092915050565b5f805f6008015f8673ffffffffffffffffffffffffffffffffffffffff1673ffffffffffffffffffffffffffffffffffffffff1681526020019081526020015f2090505f614354612d8c565b90505f670de0b6b3a76400008360010160149054906101000a900463ffffffff16836143809190617200565b63ffffffff166143909190616ff9565b90505f6143ae82670de0a81be626406061530790919063ffffffff16565b90505f6143e6828660010160189054906101000a900467ffffffffffffffff1667ffffffffffffffff1661533c90919063ffffffff16565b67ffffffffffffffff1690505f614450671bc16d674ec80000875f015f9054906101000a90046cffffffffffffffffffffffffff168a6affffffffffffffffffffff166144339190616c1c565b6cffffffffffffffffffffffffff166153a290919063ffffffff16565b90505f614482826cffffffffffffffffffffffffff168a6affffffffffffffffffffff166145db90919063ffffffff16565b90505f81846144919190616b93565b90506144a581670de0b6b3a76400006131b3565b90505f81116144b7576144b661735f565b5b808860010160186101000a81548167ffffffffffffffff021916908367ffffffffffffffff160217905550868860010160146101000a81548163ffffffff021916908363ffffffff1602179055505f61454c6611c37937e080008a60010160189054906101000a900467ffffffffffffffff16614534919061738c565b67ffffffffffffffff16670de0b6b3a76400006131b3565b905061456e8c6affffffffffffffffffffff16826142f590919063ffffffff16565b99505050505050505050509392505050565b60606145b0826001808573ffffffffffffffffffffffffffffffffffffffff163b6145ab9190616c5c565b615412565b9050919050565b5f90565b5f6145d3836affffffffffffffffffffff1683614716565b905092915050565b5f6145fc836affffffffffffffffffffff16670de0b6b3a764000084614604565b905092915050565b5f805f80198587098587029250828110838203039150505f810361463c578382816146325761463161703a565b5b049250505061470f565b838110614684578585856040517f63a0577800000000000000000000000000000000000000000000000000000000815260040161467b939291906173d6565b60405180910390fd5b5f8486880990508281118203915080830392505f6001861901861690505f81870496508185049450600182835f0304019050808402851794505f60028860030218905080880260020381029050808802600203810290508088026002038102905080880260020381029050808802600203810290508088026002038102905080860296505050505050505b9392505050565b5f805f80198486098486029250828110838203039150505f810361475657670de0b6b3a7640000828161474c5761474b61703a565b5b04925050506147f5565b670de0b6b3a764000081106147a45784846040517f5173648d00000000000000000000000000000000000000000000000000000000815260040161479b92919061740b565b60405180910390fd5b5f670de0b6b3a764000085870990507faccb18165bd6fe31ae1cf318dc5b51eee0e1ba569b88cd74c1773b91fac10669600162040000805f0304018483118403026204000083860304170293505050505b92915050565b5f6148046145b7565b90505f81600d015f8673ffffffffffffffffffffffffffffffffffffffff1673ffffffffffffffffffffffffffffffffffffffff1681526020019081526020015f205f8573ffffffffffffffffffffffffffffffffffffffff1673ffffffffffffffffffffffffffffffffffffffff1681526020019081526020015f205f8460ff1660ff1681526020019081526020015f2090505f60028111156148ab576148aa616abc565b5b816001015f9054906101000a900460ff1660028111156148ce576148cd616abc565b5b14614c94578060010160039054906101000a900460ff1682600d015f8773ffffffffffffffffffffffffffffffffffffffff1673ffffffffffffffffffffffffffffffffffffffff1681526020019081526020015f205f8673ffffffffffffffffffffffffffffffffffffffff1673ffffffffffffffffffffffffffffffffffffffff1681526020019081526020015f205f8360010160019054906101000a900460ff1660ff1660ff1681526020019081526020015f2060010160036101000a81548160ff021916908360ff160217905550600160ff168160010160039054906101000a900460ff1660ff1614614a8d578060010160019054906101000a900460ff1682600d015f8773ffffffffffffffffffffffffffffffffffffffff1673ffffffffffffffffffffffffffffffffffffffff1681526020019081526020015f205f8673ffffffffffffffffffffffffffffffffffffffff1673ffffffffffffffffffffffffffffffffffffffff1681526020019081526020015f205f8360010160039054906101000a900460ff1660ff1660ff1681526020019081526020015f2060010160016101000a81548160ff021916908360ff1602179055505b5f82600d015f8773ffffffffffffffffffffffffffffffffffffffff1673ffffffffffffffffffffffffffffffffffffffff1681526020019081526020015f205f8673ffffffffffffffffffffffffffffffffffffffff1673ffffffffffffffffffffffffffffffffffffffff1681526020019081526020015f205f600160ff1660ff1681526020019081526020015f2060010160019054906101000a900460ff1690508383600d015f8873ffffffffffffffffffffffffffffffffffffffff1673ffffffffffffffffffffffffffffffffffffffff1681526020019081526020015f205f8773ffffffffffffffffffffffffffffffffffffffff1673ffffffffffffffffffffffffffffffffffffffff1681526020019081526020015f205f600160ff1660ff1681526020019081526020015f2060010160016101000a81548160ff021916908360ff160217905550600160ff168160ff161115614c0e57808260010160016101000a81548160ff021916908360ff160217905550614c2d565b60018260010160016101000a81548160ff021916908360ff1602179055505b8473ffffffffffffffffffffffffffffffffffffffff168673ffffffffffffffffffffffffffffffffffffffff167f308fabf328a16a122870d17bc942c7d1030c9f3f3eb3bd0d0139bbc75e705a3586604051614c8a919061746b565b60405180910390a3505b6002816001015f6101000a81548160ff02191690836002811115614cbb57614cba616abc565b5b02179055505050505050565b5f6064670de0b6b3a76400008361ffff16614ce29190616ff9565b614cec9190617067565b9050919050565b5f614cfc6145b7565b90505f81600d015f8b73ffffffffffffffffffffffffffffffffffffffff1673ffffffffffffffffffffffffffffffffffffffff1681526020019081526020015f205f8a73ffffffffffffffffffffffffffffffffffffffff1673ffffffffffffffffffffffffffffffffffffffff1681526020019081526020015f205f8960ff1660ff1681526020019081526020015f209050600280811115614da357614da2616abc565b5b816001015f9054906101000a900460ff166002811115614dc657614dc5616abc565b5b03614eb25784815f01600b6101000a8154816affffffffffffffffffffff02191690836affffffffffffffffffffff160217905550838160010160046101000a81548167ffffffffffffffff021916908367ffffffffffffffff16021790555085815f015f6101000a8154816affffffffffffffffffffff02191690836affffffffffffffffffffff16021790555082815f0160166101000a81548169ffffffffffffffffffff021916908369ffffffffffffffffffff160217905550614e8b612d8c565b81600101600c6101000a81548163ffffffff021916908363ffffffff160217905550614f26565b5f614edd8567ffffffffffffffff16876affffffffffffffffffffff166145bb90919063ffffffff16565b90505f614f0c8569ffffffffffffffffffff16896affffffffffffffffffffff166145bb90919063ffffffff16565b9050614f238388848b85614f1e612d8c565b61543b565b50505b86816001015f6101000a81548160ff02191690836002811115614f4c57614f4b616abc565b5b021790555050505050505050505050565b5f835f8473ffffffffffffffffffffffffffffffffffffffff1673ffffffffffffffffffffffffffffffffffffffff1681526020019081526020015f205f600160ff1661ffff1681526020019081526020015f205f0160159054906101000a900461ffff169050835f8473ffffffffffffffffffffffffffffffffffffffff1673ffffffffffffffffffffffffffffffffffffffff1681526020019081526020015f205f8361ffff1661ffff1681526020019081526020015f205f0160159054906101000a900461ffff16845f8573ffffffffffffffffffffffffffffffffffffffff1673ffffffffffffffffffffffffffffffffffffffff1681526020019081526020015f205f865f8773ffffffffffffffffffffffffffffffffffffffff1673ffffffffffffffffffffffffffffffffffffffff1681526020019081526020015f205f8661ffff1661ffff1681526020019081526020015f205f0160199054906101000a900461ffff1661ffff1661ffff1681526020019081526020015f205f0160156101000a81548161ffff021916908361ffff160217905550835f8473ffffffffffffffffffffffffffffffffffffffff1673ffffffffffffffffffffffffffffffffffffffff1681526020019081526020015f205f8361ffff1661ffff1681526020019081526020015f205f0160199054906101000a900461ffff16845f8573ffffffffffffffffffffffffffffffffffffffff1673ffffffffffffffffffffffffffffffffffffffff1681526020019081526020015f205f865f8773ffffffffffffffffffffffffffffffffffffffff1673ffffffffffffffffffffffffffffffffffffffff1681526020019081526020015f205f8661ffff1661ffff1681526020019081526020015f205f0160159054906101000a900461ffff1661ffff1661ffff1681526020019081526020015f205f0160196101000a81548161ffff021916908361ffff160217905550835f8473ffffffffffffffffffffffffffffffffffffffff1673ffffffffffffffffffffffffffffffffffffffff1681526020019081526020015f205f8361ffff1661ffff1681526020019081526020015f205f01601b9054906101000a900460ff1660078111156152a5576152a4616abc565b5b8373ffffffffffffffffffffffffffffffffffffffff167f2097d5c49cf7ba09a2520b6b807629746c2527783ac92cac69d88e846c7f33f5846040516152eb9190617493565b60405180910390a36153018484848460066156ad565b50505050565b5f806153128461589a565b90505f61531e8461589a565b905061533261532d83836158a3565b6159e3565b9250505092915050565b5f806153528467ffffffffffffffff1684614716565b905067ffffffffffffffff8016811115615398576040517f2c5211c600000000000000000000000000000000000000000000000000000000815260040160405180910390fd5b8091505092915050565b5f806153bd846cffffffffffffffffffffffffff1684614716565b90506cffffffffffffffffffffffffff8016811115615408576040517f2c5211c600000000000000000000000000000000000000000000000000000000815260040160405180910390fd5b8091505092915050565b60606040519050601f19601f6020840101168101604052818152818360208301863c9392505050565b6154978660010160049054906101000a900467ffffffffffffffff1667ffffffffffffffff16875f01600b9054906101000a90046affffffffffffffffffffff166affffffffffffffffffffff166145bb90919063ffffffff16565b846154a29190616b93565b935084865f01600b8282829054906101000a90046affffffffffffffffffffff166154cd9190616bc6565b92506101000a8154816affffffffffffffffffffff02191690836affffffffffffffffffffff160217905550615533865f01600b9054906101000a90046affffffffffffffffffffff166affffffffffffffffffffff16856159ec90919063ffffffff16565b8660010160046101000a81548167ffffffffffffffff021916908367ffffffffffffffff1602179055506155bb865f0160169054906101000a900469ffffffffffffffffffff1669ffffffffffffffffffff16875f015f9054906101000a90046affffffffffffffffffffff166affffffffffffffffffffff166145bb90919063ffffffff16565b826155c69190616b93565b915082865f015f8282829054906101000a90046affffffffffffffffffffff166155f09190616bc6565b92506101000a8154816affffffffffffffffffffff02191690836affffffffffffffffffffff160217905550615655865f015f9054906101000a90046affffffffffffffffffffff166affffffffffffffffffffff1683615a5190919063ffffffff16565b865f0160166101000a81548169ffffffffffffffffffff021916908369ffffffffffffffffffff1602179055508086600101600c6101000a81548163ffffffff021916908363ffffffff160217905550505050505050565b80855f8673ffffffffffffffffffffffffffffffffffffffff1673ffffffffffffffffffffffffffffffffffffffff1681526020019081526020015f205f8561ffff1661ffff1681526020019081526020015f205f01601b6101000a81548160ff0219169083600781111561572557615724616abc565b5b021790555082855f8673ffffffffffffffffffffffffffffffffffffffff1673ffffffffffffffffffffffffffffffffffffffff1681526020019081526020015f205f600160ff1661ffff1681526020019081526020015f205f0160156101000a81548161ffff021916908361ffff160217905550600160ff168261ffff161461581e5781855f8673ffffffffffffffffffffffffffffffffffffffff1673ffffffffffffffffffffffffffffffffffffffff1681526020019081526020015f205f8561ffff1661ffff1681526020019081526020015f205f0160156101000a81548161ffff021916908361ffff160217905550615893565b600160ff16855f8673ffffffffffffffffffffffffffffffffffffffff1673ffffffffffffffffffffffffffffffffffffffff1681526020019081526020015f205f8561ffff1661ffff1681526020019081526020015f205f0160156101000a81548161ffff021916908361ffff1602179055505b5050505050565b5f819050919050565b5f806158ae846159e3565b90505f6158ba846159e3565b90505f82036158e3575f81146158d0575f6158da565b670de0b6b3a76400005b925050506159dd565b670de0b6b3a7640000820361590457670de0b6b3a7640000925050506159dd565b5f810361591d57670de0b6b3a7640000925050506159dd565b670de0b6b3a764000081036159365784925050506159dd565b670de0b6b3a76400008211156159675761596061595b61595587615ab8565b86615be3565b615c0e565b92506159da565b5f61598b836ec097ce7bc90715b34b9f10000000006159869190617067565b61589a565b90505f6159a86159a361599d84615ab8565b88615be3565b615c0e565b90506159d56159b6826159e3565b6ec097ce7bc90715b34b9f10000000006159d09190617067565b61589a565b945050505b50505b92915050565b5f819050919050565b5f80615a0184670de0b6b3a764000085614604565b905067ffffffffffffffff8016811115615a47576040517f2c5211c600000000000000000000000000000000000000000000000000000000815260040160405180910390fd5b8091505092915050565b5f80615a6684670de0b6b3a764000085614604565b905069ffffffffffffffffffff8016811115615aae576040517f2c5211c600000000000000000000000000000000000000000000000000000000815260040160405180910390fd5b8091505092915050565b5f80615ac3836159e3565b9050670de0b6b3a7640000811015615b1257826040517f36d32ef0000000000000000000000000000000000000000000000000000000008152600401615b0991906174dc565b60405180910390fd5b5f615b34670de0b6b3a76400008381615b2e57615b2d61703a565b5b04615c9e565b90505f670de0b6b3a7640000820290505f8284901c9050670de0b6b3a76400008103615b6e57615b638261589a565b945050505050615bde565b5f671bc16d674ec8000090505f6706f05b59d3b2000090505b5f811115615bcc57670de0b6b3a764000083840281615ba957615ba861703a565b5b049250818310615bc0578084019350600183901c92505b600181901c9050615b87565b50615bd68361589a565b955050505050505b919050565b5f615c06615c01615bf3856159e3565b615bfc856159e3565b614716565b61589a565b905092915050565b5f80615c19836159e3565b9050680a688906bd8affffff811115615c6957826040517fb3b6ba1f000000000000000000000000000000000000000000000000000000008152600401615c6091906174dc565b60405180910390fd5b5f670de0b6b3a7640000604083901b615c829190617067565b9050615c95615c9082615d46565b61589a565b92505050919050565b5f6fffffffffffffffffffffffffffffffff821160071b82811c925080821791505067ffffffffffffffff821160061b82811c925080821791505063ffffffff821160051b82811c925080821791505061ffff821160041b82811c925080821791505060ff821160031b82811c9250808217915050600f821160021b82811c92508082179150506003821160011b82811c925080821791505060018211808217915050919050565b5f7780000000000000000000000000000000000000000000000090505f67ff0000000000000083161115615e9d575f67800000000000000083161115615d9957604068016a09e667f3bcc9098202901c90505b5f67400000000000000083161115615dbe5760406801306fe0a31b7152df8202901c90505b5f67200000000000000083161115615de35760406801172b83c7d517adce8202901c90505b5f67100000000000000083161115615e0857604068010b5586cf9890f62a8202901c90505b5f67080000000000000083161115615e2d5760406801059b0d31585743ae8202901c90505b5f67040000000000000083161115615e52576040680102c9a3e778060ee78202901c90505b5f67020000000000000083161115615e7757604068010163da9fb33356d88202901c90505b5f67010000000000000083161115615e9c576040680100b1afa5abcbed618202901c90505b5b5f66ff00000000000083161115615fcf575f668000000000000083161115615ed257604068010058c86da1c09ea28202901c90505b5f664000000000000083161115615ef65760406801002c605e2e8cec508202901c90505b5f662000000000000083161115615f1a576040680100162f3904051fa18202901c90505b5f661000000000000083161115615f3e5760406801000b175effdc76ba8202901c90505b5f660800000000000083161115615f62576040680100058ba01fb9f96d8202901c90505b5f660400000000000083161115615f8657604068010002c5cc37da94928202901c90505b5f660200000000000083161115615faa5760406801000162e525ee05478202901c90505b5f660100000000000083161115615fce57604068010000b17255775c048202901c90505b5b5f65ff0000000000831611156160f8575f65800000000000831611156160025760406801000058b91b5bc9ae8202901c90505b5f6540000000000083161115616025576040680100002c5c89d5ec6d8202901c90505b5f652000000000008316111561604857604068010000162e43f4f8318202901c90505b5f651000000000008316111561606b576040680100000b1721bcfc9a8202901c90505b5f650800000000008316111561608e57604068010000058b90cf1e6e8202901c90505b5f65040000000000831611156160b15760406801000002c5c863b73f8202901c90505b5f65020000000000831611156160d4576040680100000162e430e5a28202901c90505b5f65010000000000831611156160f75760406801000000b1721835518202901c90505b5b5f64ff0000000083161115616218575f64800000000083161115616129576040680100000058b90c0b498202901c90505b5f6440000000008316111561614b57604068010000002c5c8601cc8202901c90505b5f6420000000008316111561616d5760406801000000162e42fff08202901c90505b5f6410000000008316111561618f57604068010000000b17217fbb8202901c90505b5f640800000000831611156161b15760406801000000058b90bfce8202901c90505b5f640400000000831611156161d3576040680100000002c5c85fe38202901c90505b5f640200000000831611156161f557604068010000000162e42ff18202901c90505b5f64010000000083161115616217576040680100000000b17217f88202901c90505b5b5f63ff0000008316111561632f575f63800000008316111561624757604068010000000058b90bfc8202901c90505b5f6340000000831611156162685760406801000000002c5c85fe8202901c90505b5f632000000083161115616289576040680100000000162e42ff8202901c90505b5f6310000000831611156162aa5760406801000000000b17217f8202901c90505b5f6308000000831611156162cb576040680100000000058b90c08202901c90505b5f6304000000831611156162ec57604068010000000002c5c8608202901c90505b5f63020000008316111561630d5760406801000000000162e4308202901c90505b5f63010000008316111561632e57604068010000000000b172188202901c90505b5b5f62ff00008316111561643d575f628000008316111561635c5760406801000000000058b90c8202901c90505b5f624000008316111561637c576040680100000000002c5c868202901c90505b5f622000008316111561639c57604068010000000000162e438202901c90505b5f62100000831611156163bc576040680100000000000b17218202901c90505b5f62080000831611156163dc57604068010000000000058b918202901c90505b5f62040000831611156163fc5760406801000000000002c5c88202901c90505b5f620200008316111561641c576040680100000000000162e48202901c90505b5f620100008316111561643c5760406801000000000000b1728202901c90505b5b5f61ff0083161115616542575f61800083161115616468576040680100000000000058b98202901c90505b5f6140008316111561648757604068010000000000002c5d8202901c90505b5f612000831611156164a65760406801000000000000162e8202901c90505b5f611000831611156164c557604068010000000000000b178202901c90505b5f610800831611156164e45760406801000000000000058c8202901c90505b5f61040083161115616503576040680100000000000002c68202901c90505b5f61020083161115616522576040680100000000000001638202901c90505b5f61010083161115616541576040680100000000000000b18202901c90505b5b5f60ff8316111561663e575f60808316111561656b576040680100000000000000598202901c90505b5f6040831611156165895760406801000000000000002c8202901c90505b5f6020831611156165a7576040680100000000000000168202901c90505b5f6010831611156165c55760406801000000000000000b8202901c90505b5f6008831611156165e3576040680100000000000000068202901c90505b5f600483161115616601576040680100000000000000038202901c90505b5f60028316111561661f576040680100000000000000018202901c90505b5f60018316111561663d576040680100000000000000018202901c90505b5b670de0b6b3a764000081029050604082901c60bf0381901c9050919050565b60405180608001604052805f73ffffffffffffffffffffffffffffffffffffffff1681526020015f73ffffffffffffffffffffffffffffffffffffffff1681526020015f6affffffffffffffffffffff1681526020015f6affffffffffffffffffffff1681525090565b6040518060a001604052805f73ffffffffffffffffffffffffffffffffffffffff1681526020015f60ff1681526020015f67ffffffffffffffff1681526020015f6affffffffffffffffffffff1681526020015f6affffffffffffffffffffff1681525090565b6040518061018001604052805f73ffffffffffffffffffffffffffffffffffffffff1681526020015f73ffffffffffffffffffffffffffffffffffffffff1681526020015f60ff1681526020015f61ffff1681526020015f6affffffffffffffffffffff1681526020015f6affffffffffffffffffffff1681526020015f81526020015f81526020015f60ff1681526020015f69ffffffffffffffffffff1681526020015f6affffffffffffffffffffff1681526020015f6affffffffffffffffffffff1681525090565b5f80fd5b5f80fd5b5f73ffffffffffffffffffffffffffffffffffffffff82169050919050565b5f61682a82616801565b9050919050565b61683a81616820565b8114616844575f80fd5b50565b5f8135905061685581616831565b92915050565b5f60ff82169050919050565b6168708161685b565b811461687a575f80fd5b50565b5f8135905061688b81616867565b92915050565b5f805f805f60a086880312156168aa576168a96167f9565b5b5f6168b788828901616847565b95505060206168c888828901616847565b94505060406168d98882890161687d565b93505060606168ea88828901616847565b92505060806168fb8882890161687d565b9150509295509295909350565b5f805f80608085870312156169205761691f6167f9565b5b5f61692d87828801616847565b945050602061693e87828801616847565b935050604061694f8782880161687d565b92505060606169608782880161687d565b91505092959194509250565b5f80fd5b5f80fd5b5f80fd5b5f8083601f84011261698d5761698c61696c565b5b8235905067ffffffffffffffff8111156169aa576169a9616970565b5b6020830191508360608202830111156169c6576169c5616974565b5b9250929050565b5f6affffffffffffffffffffff82169050919050565b6169ec816169cd565b81146169f6575f80fd5b50565b5f81359050616a07816169e3565b92915050565b5f805f805f60808688031215616a2657616a256167f9565b5b5f616a3388828901616847565b955050602086013567ffffffffffffffff811115616a5457616a536167fd565b5b616a6088828901616978565b94509450506040616a73888289016169f9565b9250506060616a84888289016169f9565b9150509295509295909350565b5f60208284031215616aa657616aa56167f9565b5b5f616ab384828501616847565b91505092915050565b7f4e487b71000000000000000000000000000000000000000000000000000000005f52602160045260245ffd5b7f4e487b71000000000000000000000000000000000000000000000000000000005f52603260045260245ffd5b7f4e487b71000000000000000000000000000000000000000000000000000000005f52601160045260245ffd5b5f819050919050565b5f616b5682616b43565b91507fffffffffffffffffffffffffffffffffffffffffffffffffffffffffffffffff8203616b8857616b87616b16565b5b600182019050919050565b5f616b9d82616b43565b9150616ba883616b43565b9250828201905080821115616bc057616bbf616b16565b5b92915050565b5f616bd0826169cd565b9150616bdb836169cd565b925082820190506affffffffffffffffffffff811115616bfe57616bfd616b16565b5b92915050565b5f6cffffffffffffffffffffffffff82169050919050565b5f616c2682616c04565b9150616c3183616c04565b925082820190506cffffffffffffffffffffffffff811115616c5657616c55616b16565b5b92915050565b5f616c6682616b43565b9150616c7183616b43565b9250828203905081811115616c8957616c88616b16565b5b92915050565b5f616c99826169cd565b9150616ca4836169cd565b925082820390506affffffffffffffffffffff811115616cc757616cc6616b16565b5b92915050565b5f616cd78261685b565b9150616ce28361685b565b9250828201905060ff811115616cfb57616cfa616b16565b5b92915050565b5f60208284031215616d1657616d156167f9565b5b5f616d238482850161687d565b91505092915050565b5f61ffff82169050919050565b616d4281616d2c565b8114616d4c575f80fd5b50565b5f81359050616d5d81616d39565b92915050565b5f60208284031215616d7857616d776167f9565b5b5f616d8584828501616d4f565b91505092915050565b5f81519050919050565b5f81905092915050565b5f5b83811015616dbf578082015181840152602081019050616da4565b5f8484015250505050565b5f616dd482616d8e565b616dde8185616d98565b9350616dee818560208601616da2565b80840191505092915050565b5f7fffffffffffffffffffffffffffffffffffffffff00000000000000000000000082169050919050565b5f819050919050565b616e3f616e3a82616dfa565b616e25565b82525050565b5f7fff0000000000000000000000000000000000000000000000000000000000000082169050919050565b5f819050919050565b616e8a616e8582616e45565b616e70565b82525050565b5f7fffffffffffffffff00000000000000000000000000000000000000000000000082169050919050565b5f819050919050565b616ed5616ed082616e90565b616ebb565b82525050565b5f7fffffffffffffffffffffff00000000000000000000000000000000000000000082169050919050565b5f819050919050565b616f20616f1b82616edb565b616f06565b82525050565b5f616f318289616dca565b9150616f3d8288616e2e565b601482019150616f4d8287616e79565b600182019150616f5d8286616ec4565b600882019150616f6d8285616f0f565b600b82019150616f7d8284616f0f565b600b82019150819050979650505050505050565b5f616f9b8261685b565b915060ff8203616fae57616fad616b16565b5b600182019050919050565b5f616fc382616c04565b9150616fce83616c04565b925082820390506cffffffffffffffffffffffffff811115616ff357616ff2616b16565b5b92915050565b5f61700382616b43565b915061700e83616b43565b925082820261701c81616b43565b9150828204841483151761703357617032616b16565b5b5092915050565b7f4e487b71000000000000000000000000000000000000000000000000000000005f52601260045260245ffd5b5f61707182616b43565b915061707c83616b43565b92508261708c5761708b61703a565b5b828204905092915050565b5f63ffffffff82169050919050565b5f6170b082617097565b91506170bb83617097565b9250828201905063ffffffff8111156170d7576170d6616b16565b5b92915050565b5f6170e782616b43565b91506170f283616b43565b9250826171025761710161703a565b5b828206905092915050565b5f82825260208201905092915050565b7f496e76616c69642064617461206c656e677468000000000000000000000000005f82015250565b5f61715160138361710d565b915061715c8261711d565b602082019050919050565b5f6020820190508181035f83015261717e81617145565b9050919050565b7f4e487b71000000000000000000000000000000000000000000000000000000005f52604160045260245ffd5b5f67ffffffffffffffff82169050919050565b5f6171cf826171b2565b91506171da836171b2565b9250828203905067ffffffffffffffff8111156171fa576171f9616b16565b5b92915050565b5f61720a82617097565b915061721583617097565b9250828203905063ffffffff81111561723157617230616b16565b5b92915050565b5f81905092915050565b5f8082015250565b5f617255600183617237565b915061726082617241565b600182019050919050565b5f61727582617249565b91506172818284616dca565b915081905092915050565b7f600b5981380380925939f30000000000000000000000000000000000000000005f82015250565b5f6172c0600b83617237565b91506172cb8261728c565b600b82019050919050565b5f6172e0826172b4565b91506172ec8284616dca565b915081905092915050565b7f4445504c4f594d454e545f4641494c45440000000000000000000000000000005f82015250565b5f61732b60118361710d565b9150617336826172f7565b602082019050919050565b5f6020820190508181035f8301526173588161731f565b9050919050565b7f4e487b71000000000000000000000000000000000000000000000000000000005f52600160045260245ffd5b5f617396826171b2565b91506173a1836171b2565b9250828201905067ffffffffffffffff8111156173c1576173c0616b16565b5b92915050565b6173d081616b43565b82525050565b5f6060820190506173e95f8301866173c7565b6173f660208301856173c7565b61740360408301846173c7565b949350505050565b5f60408201905061741e5f8301856173c7565b61742b60208301846173c7565b9392505050565b5f819050919050565b5f61745561745061744b8461685b565b617432565b616d2c565b9050919050565b6174658161743b565b82525050565b5f60208201905061747e5f83018461745c565b92915050565b61748d81616d2c565b82525050565b5f6020820190506174a65f830184617484565b92915050565b5f6174c66174c16174bc84616b43565b617432565b616b43565b9050919050565b6174d6816174ac565b82525050565b5f6020820190506174ef5f8301846174cd565b9291505056fea26469706673582212204407ef47cfdaf72d6f4e221618d074f408d88edb3ab1538d9900ff95d471038c64736f6c63430008150033","linkReferences":{}},"methodIdentifiers":{"claimRedemption(address)":"c0598b0d","claimRemainingCollateral(address,address,uint8,uint8)":"16cb255d","disputeRedemption(address,address,uint8,address,uint8)":"0081e606","proposeRedemption(address,(address,uint8,uint16)[],uint88,uint88)":"517b669e"},"id":16}