{"abi":[{"type":"function","name":"_cancelAsk","inputs":[{"name":"asset","type":"address","internalType":"address"},{"name":"id","type":"uint16","internalType":"uint16"}],"outputs":[],"stateMutability":"nonpayable"},{"type":"function","name":"_cancelShort","inputs":[{"name":"asset","type":"address","internalType":"address"},{"name":"id","type":"uint16","internalType":"uint16"}],"outputs":[],"stateMutability":"nonpayable"},{"type":"function","name":"admin","inputs":[],"outputs":[{"name":"","type":"address","internalType":"address"}],"stateMutability":"view"},{"type":"function","name":"approve","inputs":[{"name":"to","type":"address","internalType":"address"},{"name":"tokenId","type":"uint256","internalType":"uint256"}],"outputs":[],"stateMutability":"nonpayable"},{"type":"function","name":"balanceOf","inputs":[{"name":"_owner","type":"address","internalType":"address"}],"outputs":[{"name":"balance","type":"uint256","internalType":"uint256"}],"stateMutability":"view"},{"type":"function","name":"cancelAsk","inputs":[{"name":"asset","type":"address","internalType":"address"},{"name":"id","type":"uint16","internalType":"uint16"}],"outputs":[],"stateMutability":"nonpayable"},{"type":"function","name":"cancelBid","inputs":[{"name":"asset","type":"address","internalType":"address"},{"name":"id","type":"uint16","internalType":"uint16"}],"outputs":[],"stateMutability":"nonpayable"},{"type":"function","name":"cancelOrderFarFromOracle","inputs":[{"name":"asset","type":"address","internalType":"address"},{"name":"orderType","type":"uint8","internalType":"uint8"},{"name":"lastOrderId","type":"uint16","internalType":"uint16"},{"name":"numOrdersToCancel","type":"uint16","internalType":"uint16"}],"outputs":[],"stateMutability":"nonpayable"},{"type":"function","name":"cancelShort","inputs":[{"name":"asset","type":"address","internalType":"address"},{"name":"id","type":"uint16","internalType":"uint16"}],"outputs":[],"stateMutability":"nonpayable"},{"type":"function","name":"claimDittoMatchedReward","inputs":[{"name":"vault","type":"uint256","internalType":"uint256"}],"outputs":[],"stateMutability":"nonpayable"},{"type":"function","name":"claimOwnership","inputs":[],"outputs":[],"stateMutability":"nonpayable"},{"type":"function","name":"combineShorts","inputs":[{"name":"asset","type":"address","internalType":"address"},{"name":"ids","type":"uint8[]","internalType":"uint8[]"}],"outputs":[],"stateMutability":"nonpayable"},{"type":"function","name":"createAsk","inputs":[{"name":"asset","type":"address","internalType":"address"},{"name":"price","type":"uint80","internalType":"uint80"},{"name":"ercAmount","type":"uint88","internalType":"uint88"},{"name":"isMarketOrder","type":"bool","internalType":"bool"},{"name":"orderHintArray","type":"tuple[]","internalType":"struct EtherscanDiamondImpl.OrderHint[]","components":[{"name":"hintId","type":"uint16","internalType":"uint16"},{"name":"creationTime","type":"uint256","internalType":"uint256"}]}],"outputs":[],"stateMutability":"nonpayable"},{"type":"function","name":"createBid","inputs":[{"name":"asset","type":"address","internalType":"address"},{"name":"price","type":"uint80","internalType":"uint80"},{"name":"ercAmount","type":"uint88","internalType":"uint88"},{"name":"isMarketOrder","type":"bool","internalType":"bool"},{"name":"orderHintArray","type":"tuple[]","internalType":"struct EtherscanDiamondImpl.OrderHint[]","components":[{"name":"hintId","type":"uint16","internalType":"uint16"},{"name":"creationTime","type":"uint256","internalType":"uint256"}]},{"name":"shortHintArray","type":"uint16[]","internalType":"uint16[]"}],"outputs":[{"name":"ethFilled","type":"uint88","internalType":"uint88"},{"name":"ercAmountLeft","type":"uint88","internalType":"uint88"}],"stateMutability":"nonpayable"},{"type":"function","name":"createBridge","inputs":[{"name":"bridge","type":"address","internalType":"address"},{"name":"vault","type":"uint256","internalType":"uint256"},{"name":"withdrawalFee","type":"uint16","internalType":"uint16"},{"name":"unstakeFee","type":"uint8","internalType":"uint8"}],"outputs":[],"stateMutability":"nonpayable"},{"type":"function","name":"createForcedBid","inputs":[{"name":"sender","type":"address","internalType":"address"},{"name":"asset","type":"address","internalType":"address"},{"name":"price","type":"uint80","internalType":"uint80"},{"name":"ercAmount","type":"uint88","internalType":"uint88"},{"name":"shortHintArray","type":"uint16[]","internalType":"uint16[]"}],"outputs":[{"name":"ethFilled","type":"uint88","internalType":"uint88"},{"name":"ercAmountLeft","type":"uint88","internalType":"uint88"}],"stateMutability":"pure"},{"type":"function","name":"createLimitShort","inputs":[{"name":"asset","type":"address","internalType":"address"},{"name":"price","type":"uint80","internalType":"uint80"},{"name":"ercAmount","type":"uint88","internalType":"uint88"},{"name":"orderHintArray","type":"tuple[]","internalType":"struct EtherscanDiamondImpl.OrderHint[]","components":[{"name":"hintId","type":"uint16","internalType":"uint16"},{"name":"creationTime","type":"uint256","internalType":"uint256"}]},{"name":"shortHintArray","type":"uint16[]","internalType":"uint16[]"},{"name":"initialCR","type":"uint16","internalType":"uint16"}],"outputs":[],"stateMutability":"nonpayable"},{"type":"function","name":"createMarket","inputs":[{"name":"asset","type":"address","internalType":"address"},{"name":"a","type":"tuple","internalType":"struct STypes.Asset","components":[{"name":"ercDebt","type":"uint104","internalType":"uint104"},{"name":"dethCollateral","type":"uint88","internalType":"uint88"},{"name":"startingShortId","type":"uint16","internalType":"uint16"},{"name":"orderIdCounter","type":"uint16","internalType":"uint16"},{"name":"initialCR","type":"uint16","internalType":"uint16"},{"name":"frozen","type":"uint8","internalType":"enum F"},{"name":"vault","type":"uint8","internalType":"uint8"},{"name":"minBidEth","type":"uint8","internalType":"uint8"},{"name":"minAskEth","type":"uint8","internalType":"uint8"},{"name":"minShortErc","type":"uint16","internalType":"uint16"},{"name":"penaltyCR","type":"uint8","internalType":"uint8"},{"name":"tappFeePct","type":"uint8","internalType":"uint8"},{"name":"callerFeePct","type":"uint8","internalType":"uint8"},{"name":"forcedBidPriceBuffer","type":"uint8","internalType":"uint8"},{"name":"assetId","type":"uint8","internalType":"uint8"},{"name":"ercDebtRate","type":"uint64","internalType":"uint64"},{"name":"liquidationCR","type":"uint16","internalType":"uint16"},{"name":"recoveryCR","type":"uint8","internalType":"uint8"},{"name":"lastRedemptionTime","type":"uint32","internalType":"uint32"},{"name":"baseRate","type":"uint64","internalType":"uint64"},{"name":"oracle","type":"address","internalType":"address"},{"name":"filler1","type":"uint96","internalType":"uint96"}]}],"outputs":[],"stateMutability":"nonpayable"},{"type":"function","name":"createVault","inputs":[{"name":"deth","type":"address","internalType":"address"},{"name":"vault","type":"uint256","internalType":"uint256"},{"name":"params","type":"tuple","internalType":"struct MTypes.CreateVaultParams","components":[{"name":"dethTithePercent","type":"uint16","internalType":"uint16"},{"name":"dittoMatchedRate","type":"uint16","internalType":"uint16"},{"name":"dittoShorterRate","type":"uint16","internalType":"uint16"}]}],"outputs":[],"stateMutability":"nonpayable"},{"type":"function","name":"decreaseCollateral","inputs":[{"name":"asset","type":"address","internalType":"address"},{"name":"id","type":"uint8","internalType":"uint8"},{"name":"amount","type":"uint88","internalType":"uint88"}],"outputs":[],"stateMutability":"nonpayable"},{"type":"function","name":"deposit","inputs":[{"name":"bridge","type":"address","internalType":"address"},{"name":"amount","type":"uint88","internalType":"uint88"}],"outputs":[],"stateMutability":"nonpayable"},{"type":"function","name":"depositAsset","inputs":[{"name":"asset","type":"address","internalType":"address"},{"name":"amount","type":"uint104","internalType":"uint104"}],"outputs":[],"stateMutability":"nonpayable"},{"type":"function","name":"depositEth","inputs":[{"name":"bridge","type":"address","internalType":"address"}],"outputs":[],"stateMutability":"payable"},{"type":"function","name":"diamondCut","inputs":[{"name":"_diamondCut","type":"tuple[]","internalType":"struct EtherscanDiamondImpl.FacetCut[]","components":[{"name":"facetAddress","type":"address","internalType":"address"},{"name":"action","type":"uint8","internalType":"uint8"},{"name":"functionSelectors","type":"bytes4[]","internalType":"bytes4[]"}]},{"name":"_init","type":"address","internalType":"address"},{"name":"_calldata","type":"bytes","internalType":"bytes"}],"outputs":[],"stateMutability":"nonpayable"},{"type":"function","name":"distributeYield","inputs":[{"name":"assets","type":"address[]","internalType":"address[]"}],"outputs":[],"stateMutability":"nonpayable"},{"type":"function","name":"estimateWETHInUSDC","inputs":[{"name":"amountIn","type":"uint128","internalType":"uint128"},{"name":"secondsAgo","type":"uint32","internalType":"uint32"}],"outputs":[{"name":"amountOut","type":"uint256","internalType":"uint256"}],"stateMutability":"view"},{"type":"function","name":"exitShort","inputs":[{"name":"asset","type":"address","internalType":"address"},{"name":"id","type":"uint8","internalType":"uint8"},{"name":"buyBackAmount","type":"uint88","internalType":"uint88"},{"name":"price","type":"uint80","internalType":"uint80"},{"name":"shortHintArray","type":"uint16[]","internalType":"uint16[]"}],"outputs":[],"stateMutability":"nonpayable"},{"type":"function","name":"exitShortErcEscrowed","inputs":[{"name":"asset","type":"address","internalType":"address"},{"name":"id","type":"uint8","internalType":"uint8"},{"name":"buyBackAmount","type":"uint88","internalType":"uint88"}],"outputs":[],"stateMutability":"nonpayable"},{"type":"function","name":"exitShortWallet","inputs":[{"name":"asset","type":"address","internalType":"address"},{"name":"id","type":"uint8","internalType":"uint8"},{"name":"buyBackAmount","type":"uint88","internalType":"uint88"}],"outputs":[],"stateMutability":"nonpayable"},{"type":"function","name":"facetAddress","inputs":[{"name":"_functionSelector","type":"bytes4","internalType":"bytes4"}],"outputs":[{"name":"facetAddress_","type":"address","internalType":"address"}],"stateMutability":"view"},{"type":"function","name":"facetAddresses","inputs":[],"outputs":[{"name":"facetAddresses_","type":"address[]","internalType":"address[]"}],"stateMutability":"view"},{"type":"function","name":"facetFunctionSelectors","inputs":[{"name":"_facet","type":"address","internalType":"address"}],"outputs":[{"name":"_facetFunctionSelectors","type":"bytes4[]","internalType":"bytes4[]"}],"stateMutability":"view"},{"type":"function","name":"facets","inputs":[],"outputs":[{"name":"facets_","type":"tuple[]","internalType":"struct EtherscanDiamondImpl.Facet[]","components":[{"name":"facetAddress","type":"address","internalType":"address"},{"name":"functionSelectors","type":"bytes4[]","internalType":"bytes4[]"}]}],"stateMutability":"view"},{"type":"function","name":"flagShort","inputs":[{"name":"asset","type":"address","internalType":"address"},{"name":"shorter","type":"address","internalType":"address"},{"name":"id","type":"uint8","internalType":"uint8"},{"name":"flaggerHint","type":"uint16","internalType":"uint16"}],"outputs":[],"stateMutability":"nonpayable"},{"type":"function","name":"getApproved","inputs":[{"name":"tokenId","type":"uint256","internalType":"uint256"}],"outputs":[{"name":"operator","type":"address","internalType":"address"}],"stateMutability":"view"},{"type":"function","name":"getAskHintId","inputs":[{"name":"asset","type":"address","internalType":"address"},{"name":"price","type":"uint256","internalType":"uint256"}],"outputs":[{"name":"hintId","type":"uint16","internalType":"uint16"}],"stateMutability":"view"},{"type":"function","name":"getAsks","inputs":[{"name":"asset","type":"address","internalType":"address"}],"outputs":[{"name":"","type":"tuple[]","internalType":"struct EtherscanDiamondImpl.Order[]","components":[{"name":"ercAmount","type":"uint88","internalType":"uint88"},{"name":"price","type":"uint80","internalType":"uint80"},{"name":"prevId","type":"uint16","internalType":"uint16"},{"name":"id","type":"uint16","internalType":"uint16"},{"name":"nextId","type":"uint16","internalType":"uint16"},{"name":"orderType","type":"uint8","internalType":"uint8"},{"name":"creationTime","type":"uint32","internalType":"uint32"},{"name":"addr","type":"address","internalType":"address"},{"name":"prevOrderType","type":"uint8","internalType":"uint8"},{"name":"initialCR","type":"uint16","internalType":"uint16"},{"name":"shortRecordId","type":"uint8","internalType":"uint8"},{"name":"filler","type":"uint64","internalType":"uint64"}]}],"stateMutability":"view"},{"type":"function","name":"getAssetBalance","inputs":[{"name":"asset","type":"address","internalType":"address"},{"name":"user","type":"address","internalType":"address"}],"outputs":[{"name":"","type":"uint256","internalType":"uint256"}],"stateMutability":"view"},{"type":"function","name":"getAssetCollateralRatio","inputs":[{"name":"asset","type":"address","internalType":"address"}],"outputs":[{"name":"cRatio","type":"uint256","internalType":"uint256"}],"stateMutability":"view"},{"type":"function","name":"getAssetStruct","inputs":[{"name":"asset","type":"address","internalType":"address"}],"outputs":[{"name":"","type":"tuple","internalType":"struct STypes.Asset","components":[{"name":"ercDebt","type":"uint104","internalType":"uint104"},{"name":"dethCollateral","type":"uint88","internalType":"uint88"},{"name":"startingShortId","type":"uint16","internalType":"uint16"},{"name":"orderIdCounter","type":"uint16","internalType":"uint16"},{"name":"initialCR","type":"uint16","internalType":"uint16"},{"name":"frozen","type":"uint8","internalType":"enum F"},{"name":"vault","type":"uint8","internalType":"uint8"},{"name":"minBidEth","type":"uint8","internalType":"uint8"},{"name":"minAskEth","type":"uint8","internalType":"uint8"},{"name":"minShortErc","type":"uint16","internalType":"uint16"},{"name":"penaltyCR","type":"uint8","internalType":"uint8"},{"name":"tappFeePct","type":"uint8","internalType":"uint8"},{"name":"callerFeePct","type":"uint8","internalType":"uint8"},{"name":"forcedBidPriceBuffer","type":"uint8","internalType":"uint8"},{"name":"assetId","type":"uint8","internalType":"uint8"},{"name":"ercDebtRate","type":"uint64","internalType":"uint64"},{"name":"liquidationCR","type":"uint16","internalType":"uint16"},{"name":"recoveryCR","type":"uint8","internalType":"uint8"},{"name":"lastRedemptionTime","type":"uint32","internalType":"uint32"},{"name":"baseRate","type":"uint64","internalType":"uint64"},{"name":"oracle","type":"address","internalType":"address"},{"name":"filler1","type":"uint96","internalType":"uint96"}]}],"stateMutability":"view"},{"type":"function","name":"getAssetUserStruct","inputs":[{"name":"asset","type":"address","internalType":"address"},{"name":"user","type":"address","internalType":"address"}],"outputs":[{"name":"","type":"tuple","internalType":"struct EtherscanDiamondImpl.AssetUser","components":[{"name":"ercEscrowed","type":"uint104","internalType":"uint104"},{"name":"g_flaggerId","type":"uint24","internalType":"uint24"},{"name":"g_flaggedAt","type":"uint32","internalType":"uint32"},{"name":"shortRecordIdCounter","type":"uint8","internalType":"uint8"},{"name":"filler","type":"uint96","internalType":"uint96"}]}],"stateMutability":"view"},{"type":"function","name":"getBidHintId","inputs":[{"name":"asset","type":"address","internalType":"address"},{"name":"price","type":"uint256","internalType":"uint256"}],"outputs":[{"name":"hintId","type":"uint16","internalType":"uint16"}],"stateMutability":"view"},{"type":"function","name":"getBids","inputs":[{"name":"asset","type":"address","internalType":"address"}],"outputs":[{"name":"","type":"tuple[]","internalType":"struct EtherscanDiamondImpl.Order[]","components":[{"name":"ercAmount","type":"uint88","internalType":"uint88"},{"name":"price","type":"uint80","internalType":"uint80"},{"name":"prevId","type":"uint16","internalType":"uint16"},{"name":"id","type":"uint16","internalType":"uint16"},{"name":"nextId","type":"uint16","internalType":"uint16"},{"name":"orderType","type":"uint8","internalType":"uint8"},{"name":"creationTime","type":"uint32","internalType":"uint32"},{"name":"addr","type":"address","internalType":"address"},{"name":"prevOrderType","type":"uint8","internalType":"uint8"},{"name":"initialCR","type":"uint16","internalType":"uint16"},{"name":"shortRecordId","type":"uint8","internalType":"uint8"},{"name":"filler","type":"uint64","internalType":"uint64"}]}],"stateMutability":"view"},{"type":"function","name":"getBridgeStruct","inputs":[{"name":"bridge","type":"address","internalType":"address"}],"outputs":[{"name":"","type":"tuple","internalType":"struct EtherscanDiamondImpl.Bridge","components":[{"name":"vault","type":"uint8","internalType":"uint8"},{"name":"withdrawalFee","type":"uint16","internalType":"uint16"},{"name":"unstakeFee","type":"uint8","internalType":"uint8"}]}],"stateMutability":"view"},{"type":"function","name":"getBridgeVault","inputs":[{"name":"bridge","type":"address","internalType":"address"}],"outputs":[{"name":"","type":"uint256","internalType":"uint256"}],"stateMutability":"view"},{"type":"function","name":"getBridges","inputs":[{"name":"vault","type":"uint256","internalType":"uint256"}],"outputs":[{"name":"","type":"address[]","internalType":"address[]"}],"stateMutability":"view"},{"type":"function","name":"getCollateralRatio","inputs":[{"name":"asset","type":"address","internalType":"address"},{"name":"short","type":"tuple","internalType":"struct EtherscanDiamondImpl.ShortRecord","components":[{"name":"collateral","type":"uint88","internalType":"uint88"},{"name":"ercDebt","type":"uint88","internalType":"uint88"},{"name":"dethYieldRate","type":"uint80","internalType":"uint80"},{"name":"status","type":"uint8","internalType":"uint8"},{"name":"prevId","type":"uint8","internalType":"uint8"},{"name":"id","type":"uint8","internalType":"uint8"},{"name":"nextId","type":"uint8","internalType":"uint8"},{"name":"ercDebtRate","type":"uint64","internalType":"uint64"},{"name":"updatedAt","type":"uint32","internalType":"uint32"},{"name":"flaggedAt","type":"uint32","internalType":"uint32"},{"name":"flaggerId","type":"uint24","internalType":"uint24"},{"name":"tokenId","type":"uint40","internalType":"uint40"}]}],"outputs":[{"name":"cRatio","type":"uint256","internalType":"uint256"}],"stateMutability":"view"},{"type":"function","name":"getCollateralRatioSpotPrice","inputs":[{"name":"asset","type":"address","internalType":"address"},{"name":"short","type":"tuple","internalType":"struct EtherscanDiamondImpl.ShortRecord","components":[{"name":"collateral","type":"uint88","internalType":"uint88"},{"name":"ercDebt","type":"uint88","internalType":"uint88"},{"name":"dethYieldRate","type":"uint80","internalType":"uint80"},{"name":"status","type":"uint8","internalType":"uint8"},{"name":"prevId","type":"uint8","internalType":"uint8"},{"name":"id","type":"uint8","internalType":"uint8"},{"name":"nextId","type":"uint8","internalType":"uint8"},{"name":"ercDebtRate","type":"uint64","internalType":"uint64"},{"name":"updatedAt","type":"uint32","internalType":"uint32"},{"name":"flaggedAt","type":"uint32","internalType":"uint32"},{"name":"flaggerId","type":"uint24","internalType":"uint24"},{"name":"tokenId","type":"uint40","internalType":"uint40"}]}],"outputs":[{"name":"cRatio","type":"uint256","internalType":"uint256"}],"stateMutability":"view"},{"type":"function","name":"getDethBalance","inputs":[{"name":"vault","type":"uint256","internalType":"uint256"},{"name":"user","type":"address","internalType":"address"}],"outputs":[{"name":"","type":"uint256","internalType":"uint256"}],"stateMutability":"view"},{"type":"function","name":"getDethTotal","inputs":[{"name":"vault","type":"uint256","internalType":"uint256"}],"outputs":[{"name":"","type":"uint256","internalType":"uint256"}],"stateMutability":"view"},{"type":"function","name":"getDethYieldRate","inputs":[{"name":"vault","type":"uint256","internalType":"uint256"}],"outputs":[{"name":"","type":"uint256","internalType":"uint256"}],"stateMutability":"view"},{"type":"function","name":"getDittoMatchedReward","inputs":[{"name":"vault","type":"uint256","internalType":"uint256"},{"name":"user","type":"address","internalType":"address"}],"outputs":[{"name":"","type":"uint256","internalType":"uint256"}],"stateMutability":"view"},{"type":"function","name":"getDittoReward","inputs":[{"name":"vault","type":"uint256","internalType":"uint256"},{"name":"user","type":"address","internalType":"address"}],"outputs":[{"name":"","type":"uint256","internalType":"uint256"}],"stateMutability":"view"},{"type":"function","name":"getFlaggerHint","inputs":[],"outputs":[{"name":"flaggerId","type":"uint24","internalType":"uint24"}],"stateMutability":"view"},{"type":"function","name":"getFlaggerId","inputs":[{"name":"asset","type":"address","internalType":"address"},{"name":"user","type":"address","internalType":"address"}],"outputs":[{"name":"flaggerId","type":"uint24","internalType":"uint24"}],"stateMutability":"view"},{"type":"function","name":"getHintArray","inputs":[{"name":"asset","type":"address","internalType":"address"},{"name":"price","type":"uint256","internalType":"uint256"},{"name":"orderType","type":"uint8","internalType":"uint8"},{"name":"numHints","type":"uint256","internalType":"uint256"}],"outputs":[{"name":"orderHintArray","type":"tuple[]","internalType":"struct EtherscanDiamondImpl.OrderHint[]","components":[{"name":"hintId","type":"uint16","internalType":"uint16"},{"name":"creationTime","type":"uint256","internalType":"uint256"}]}],"stateMutability":"view"},{"type":"function","name":"getOffsetTime","inputs":[],"outputs":[{"name":"","type":"uint256","internalType":"uint256"}],"stateMutability":"view"},{"type":"function","name":"getOracleAssetPrice","inputs":[{"name":"asset","type":"address","internalType":"address"}],"outputs":[{"name":"","type":"uint256","internalType":"uint256"}],"stateMutability":"view"},{"type":"function","name":"getProtocolAssetPrice","inputs":[{"name":"asset","type":"address","internalType":"address"}],"outputs":[{"name":"","type":"uint256","internalType":"uint256"}],"stateMutability":"view"},{"type":"function","name":"getProtocolAssetTime","inputs":[{"name":"asset","type":"address","internalType":"address"}],"outputs":[{"name":"","type":"uint256","internalType":"uint256"}],"stateMutability":"view"},{"type":"function","name":"getShortHintId","inputs":[{"name":"asset","type":"address","internalType":"address"},{"name":"price","type":"uint256","internalType":"uint256"}],"outputs":[{"name":"","type":"uint16","internalType":"uint16"}],"stateMutability":"view"},{"type":"function","name":"getShortIdAtOracle","inputs":[{"name":"asset","type":"address","internalType":"address"}],"outputs":[{"name":"shortHintId","type":"uint16","internalType":"uint16"}],"stateMutability":"view"},{"type":"function","name":"getShortRecord","inputs":[{"name":"asset","type":"address","internalType":"address"},{"name":"shorter","type":"address","internalType":"address"},{"name":"id","type":"uint8","internalType":"uint8"}],"outputs":[{"name":"shortRecord","type":"tuple","internalType":"struct EtherscanDiamondImpl.ShortRecord","components":[{"name":"collateral","type":"uint88","internalType":"uint88"},{"name":"ercDebt","type":"uint88","internalType":"uint88"},{"name":"dethYieldRate","type":"uint80","internalType":"uint80"},{"name":"status","type":"uint8","internalType":"uint8"},{"name":"prevId","type":"uint8","internalType":"uint8"},{"name":"id","type":"uint8","internalType":"uint8"},{"name":"nextId","type":"uint8","internalType":"uint8"},{"name":"ercDebtRate","type":"uint64","internalType":"uint64"},{"name":"updatedAt","type":"uint32","internalType":"uint32"},{"name":"flaggedAt","type":"uint32","internalType":"uint32"},{"name":"flaggerId","type":"uint24","internalType":"uint24"},{"name":"tokenId","type":"uint40","internalType":"uint40"}]}],"stateMutability":"view"},{"type":"function","name":"getShortRecordCount","inputs":[{"name":"asset","type":"address","internalType":"address"},{"name":"shorter","type":"address","internalType":"address"}],"outputs":[{"name":"shortRecordCount","type":"uint256","internalType":"uint256"}],"stateMutability":"view"},{"type":"function","name":"getShortRecords","inputs":[{"name":"asset","type":"address","internalType":"address"},{"name":"shorter","type":"address","internalType":"address"}],"outputs":[{"name":"shorts","type":"tuple[]","internalType":"struct EtherscanDiamondImpl.ShortRecord[]","components":[{"name":"collateral","type":"uint88","internalType":"uint88"},{"name":"ercDebt","type":"uint88","internalType":"uint88"},{"name":"dethYieldRate","type":"uint80","internalType":"uint80"},{"name":"status","type":"uint8","internalType":"uint8"},{"name":"prevId","type":"uint8","internalType":"uint8"},{"name":"id","type":"uint8","internalType":"uint8"},{"name":"nextId","type":"uint8","internalType":"uint8"},{"name":"ercDebtRate","type":"uint64","internalType":"uint64"},{"name":"updatedAt","type":"uint32","internalType":"uint32"},{"name":"flaggedAt","type":"uint32","internalType":"uint32"},{"name":"flaggerId","type":"uint24","internalType":"uint24"},{"name":"tokenId","type":"uint40","internalType":"uint40"}]}],"stateMutability":"view"},{"type":"function","name":"getShorts","inputs":[{"name":"asset","type":"address","internalType":"address"}],"outputs":[{"name":"","type":"tuple[]","internalType":"struct EtherscanDiamondImpl.Order[]","components":[{"name":"ercAmount","type":"uint88","internalType":"uint88"},{"name":"price","type":"uint80","internalType":"uint80"},{"name":"prevId","type":"uint16","internalType":"uint16"},{"name":"id","type":"uint16","internalType":"uint16"},{"name":"nextId","type":"uint16","internalType":"uint16"},{"name":"orderType","type":"uint8","internalType":"uint8"},{"name":"creationTime","type":"uint32","internalType":"uint32"},{"name":"addr","type":"address","internalType":"address"},{"name":"prevOrderType","type":"uint8","internalType":"uint8"},{"name":"initialCR","type":"uint16","internalType":"uint16"},{"name":"shortRecordId","type":"uint8","internalType":"uint8"},{"name":"filler","type":"uint64","internalType":"uint64"}]}],"stateMutability":"view"},{"type":"function","name":"getTithe","inputs":[{"name":"vault","type":"uint256","internalType":"uint256"}],"outputs":[{"name":"","type":"uint256","internalType":"uint256"}],"stateMutability":"view"},{"type":"function","name":"getUndistributedYield","inputs":[{"name":"vault","type":"uint256","internalType":"uint256"}],"outputs":[{"name":"","type":"uint256","internalType":"uint256"}],"stateMutability":"view"},{"type":"function","name":"getVault","inputs":[{"name":"asset","type":"address","internalType":"address"}],"outputs":[{"name":"","type":"uint256","internalType":"uint256"}],"stateMutability":"view"},{"type":"function","name":"getVaultStruct","inputs":[{"name":"vault","type":"uint256","internalType":"uint256"}],"outputs":[{"name":"","type":"tuple","internalType":"struct EtherscanDiamondImpl.Vault","components":[{"name":"dethCollateral","type":"uint88","internalType":"uint88"},{"name":"dethTotal","type":"uint88","internalType":"uint88"},{"name":"dethYieldRate","type":"uint80","internalType":"uint80"},{"name":"dethCollateralReward","type":"uint88","internalType":"uint88"},{"name":"dethTithePercent","type":"uint16","internalType":"uint16"},{"name":"dittoShorterRate","type":"uint16","internalType":"uint16"},{"name":"filler2","type":"uint128","internalType":"uint128"},{"name":"dittoMatchedShares","type":"uint128","internalType":"uint128"},{"name":"dittoMatchedReward","type":"uint96","internalType":"uint96"},{"name":"dittoMatchedRate","type":"uint16","internalType":"uint16"},{"name":"dittoMatchedTime","type":"uint16","internalType":"uint16"}]}],"stateMutability":"view"},{"type":"function","name":"getVaultUserStruct","inputs":[{"name":"vault","type":"uint256","internalType":"uint256"},{"name":"user","type":"address","internalType":"address"}],"outputs":[{"name":"","type":"tuple","internalType":"struct EtherscanDiamondImpl.VaultUser","components":[{"name":"ethEscrowed","type":"uint88","internalType":"uint88"},{"name":"dittoMatchedShares","type":"uint88","internalType":"uint88"},{"name":"dittoReward","type":"uint80","internalType":"uint80"}]}],"stateMutability":"view"},{"type":"function","name":"getYield","inputs":[{"name":"asset","type":"address","internalType":"address"},{"name":"user","type":"address","internalType":"address"}],"outputs":[{"name":"shorterYield","type":"uint256","internalType":"uint256"}],"stateMutability":"view"},{"type":"function","name":"increaseCollateral","inputs":[{"name":"asset","type":"address","internalType":"address"},{"name":"id","type":"uint8","internalType":"uint8"},{"name":"amount","type":"uint88","internalType":"uint88"}],"outputs":[],"stateMutability":"nonpayable"},{"type":"function","name":"isApprovedForAll","inputs":[{"name":"_owner","type":"address","internalType":"address"},{"name":"operator","type":"address","internalType":"address"}],"outputs":[{"name":"","type":"bool","internalType":"bool"}],"stateMutability":"view"},{"type":"function","name":"liquidate","inputs":[{"name":"asset","type":"address","internalType":"address"},{"name":"shorter","type":"address","internalType":"address"},{"name":"id","type":"uint8","internalType":"uint8"},{"name":"shortHintArray","type":"uint16[]","internalType":"uint16[]"}],"outputs":[{"name":"gasFee","type":"uint88","internalType":"uint88"},{"name":"ethFilled","type":"uint88","internalType":"uint88"}],"stateMutability":"nonpayable"},{"type":"function","name":"liquidateSecondary","inputs":[{"name":"asset","type":"address","internalType":"address"},{"name":"batches","type":"tuple[]","internalType":"struct EtherscanDiamondImpl.BatchLiquidation[]","components":[{"name":"shorter","type":"address","internalType":"address"},{"name":"shortId","type":"uint8","internalType":"uint8"}]},{"name":"liquidateAmount","type":"uint88","internalType":"uint88"},{"name":"isWallet","type":"bool","internalType":"bool"}],"outputs":[],"stateMutability":"nonpayable"},{"type":"function","name":"mintNFT","inputs":[{"name":"asset","type":"address","internalType":"address"},{"name":"shortRecordId","type":"uint8","internalType":"uint8"}],"outputs":[],"stateMutability":"nonpayable"},{"type":"function","name":"owner","inputs":[],"outputs":[{"name":"","type":"address","internalType":"address"}],"stateMutability":"view"},{"type":"function","name":"ownerCandidate","inputs":[],"outputs":[{"name":"","type":"address","internalType":"address"}],"stateMutability":"view"},{"type":"function","name":"ownerOf","inputs":[{"name":"tokenId","type":"uint256","internalType":"uint256"}],"outputs":[{"name":"","type":"address","internalType":"address"}],"stateMutability":"view"},{"type":"function","name":"redeemErc","inputs":[{"name":"asset","type":"address","internalType":"address"},{"name":"amtWallet","type":"uint88","internalType":"uint88"},{"name":"amtEscrow","type":"uint88","internalType":"uint88"}],"outputs":[],"stateMutability":"nonpayable"},{"type":"function","name":"safeTransferFrom","inputs":[{"name":"from","type":"address","internalType":"address"},{"name":"to","type":"address","internalType":"address"},{"name":"tokenId","type":"uint256","internalType":"uint256"}],"outputs":[],"stateMutability":"nonpayable"},{"type":"function","name":"safeTransferFrom","inputs":[{"name":"from","type":"address","internalType":"address"},{"name":"to","type":"address","internalType":"address"},{"name":"tokenId","type":"uint256","internalType":"uint256"},{"name":"data","type":"bytes","internalType":"bytes"}],"outputs":[],"stateMutability":"nonpayable"},{"type":"function","name":"setApprovalForAll","inputs":[{"name":"operator","type":"address","internalType":"address"},{"name":"approved","type":"bool","internalType":"bool"}],"outputs":[],"stateMutability":"nonpayable"},{"type":"function","name":"setCallerFeePct","inputs":[{"name":"asset","type":"address","internalType":"address"},{"name":"value","type":"uint8","internalType":"uint8"}],"outputs":[],"stateMutability":"nonpayable"},{"type":"function","name":"setDittoMatchedRate","inputs":[{"name":"vault","type":"uint256","internalType":"uint256"},{"name":"rewardRate","type":"uint16","internalType":"uint16"}],"outputs":[],"stateMutability":"nonpayable"},{"type":"function","name":"setDittoShorterRate","inputs":[{"name":"vault","type":"uint256","internalType":"uint256"},{"name":"rewardRate","type":"uint16","internalType":"uint16"}],"outputs":[],"stateMutability":"nonpayable"},{"type":"function","name":"setFirstLiquidationTime","inputs":[{"name":"asset","type":"address","internalType":"address"},{"name":"value","type":"uint8","internalType":"uint8"}],"outputs":[],"stateMutability":"nonpayable"},{"type":"function","name":"setForcedBidPriceBuffer","inputs":[{"name":"asset","type":"address","internalType":"address"},{"name":"value","type":"uint8","internalType":"uint8"}],"outputs":[],"stateMutability":"nonpayable"},{"type":"function","name":"setInitialCR","inputs":[{"name":"asset","type":"address","internalType":"address"},{"name":"value","type":"uint16","internalType":"uint16"}],"outputs":[],"stateMutability":"nonpayable"},{"type":"function","name":"setMinAskEth","inputs":[{"name":"asset","type":"address","internalType":"address"},{"name":"value","type":"uint8","internalType":"uint8"}],"outputs":[],"stateMutability":"nonpayable"},{"type":"function","name":"setMinBidEth","inputs":[{"name":"asset","type":"address","internalType":"address"},{"name":"value","type":"uint8","internalType":"uint8"}],"outputs":[],"stateMutability":"nonpayable"},{"type":"function","name":"setMinShortErc","inputs":[{"name":"asset","type":"address","internalType":"address"},{"name":"value","type":"uint16","internalType":"uint16"}],"outputs":[],"stateMutability":"nonpayable"},{"type":"function","name":"setMinimumCR","inputs":[{"name":"asset","type":"address","internalType":"address"},{"name":"value","type":"uint8","internalType":"uint8"}],"outputs":[],"stateMutability":"nonpayable"},{"type":"function","name":"setPrimaryLiquidationCR","inputs":[{"name":"asset","type":"address","internalType":"address"},{"name":"value","type":"uint16","internalType":"uint16"}],"outputs":[],"stateMutability":"nonpayable"},{"type":"function","name":"setResetLiquidationTime","inputs":[{"name":"asset","type":"address","internalType":"address"},{"name":"value","type":"uint8","internalType":"uint8"}],"outputs":[],"stateMutability":"nonpayable"},{"type":"function","name":"setSecondLiquidationTime","inputs":[{"name":"asset","type":"address","internalType":"address"},{"name":"value","type":"uint8","internalType":"uint8"}],"outputs":[],"stateMutability":"nonpayable"},{"type":"function","name":"setSecondaryLiquidationCR","inputs":[{"name":"asset","type":"address","internalType":"address"},{"name":"value","type":"uint16","internalType":"uint16"}],"outputs":[],"stateMutability":"nonpayable"},{"type":"function","name":"setTappFeePct","inputs":[{"name":"asset","type":"address","internalType":"address"},{"name":"value","type":"uint8","internalType":"uint8"}],"outputs":[],"stateMutability":"nonpayable"},{"type":"function","name":"setTithe","inputs":[{"name":"vault","type":"uint256","internalType":"uint256"},{"name":"dethTithePercent","type":"uint16","internalType":"uint16"}],"outputs":[],"stateMutability":"nonpayable"},{"type":"function","name":"setWithdrawalFee","inputs":[{"name":"bridge","type":"address","internalType":"address"},{"name":"withdrawalFee","type":"uint16","internalType":"uint16"}],"outputs":[],"stateMutability":"nonpayable"},{"type":"function","name":"shutdownMarket","inputs":[{"name":"asset","type":"address","internalType":"address"}],"outputs":[],"stateMutability":"nonpayable"},{"type":"function","name":"supportsInterface","inputs":[{"name":"_interfaceId","type":"bytes4","internalType":"bytes4"}],"outputs":[{"name":"","type":"bool","internalType":"bool"}],"stateMutability":"view"},{"type":"function","name":"tokenURI","inputs":[{"name":"id","type":"uint256","internalType":"uint256"}],"outputs":[{"name":"","type":"string","internalType":"string"}],"stateMutability":"view"},{"type":"function","name":"transferAdminship","inputs":[{"name":"newAdmin","type":"address","internalType":"address"}],"outputs":[],"stateMutability":"nonpayable"},{"type":"function","name":"transferFrom","inputs":[{"name":"from","type":"address","internalType":"address"},{"name":"to","type":"address","internalType":"address"},{"name":"tokenId","type":"uint256","internalType":"uint256"}],"outputs":[],"stateMutability":"nonpayable"},{"type":"function","name":"transferOwnership","inputs":[{"name":"newOwner","type":"address","internalType":"address"}],"outputs":[],"stateMutability":"nonpayable"},{"type":"function","name":"updateYield","inputs":[{"name":"vault","type":"uint256","internalType":"uint256"}],"outputs":[],"stateMutability":"nonpayable"},{"type":"function","name":"withdraw","inputs":[{"name":"bridge","type":"address","internalType":"address"},{"name":"dethAmount","type":"uint88","internalType":"uint88"}],"outputs":[],"stateMutability":"nonpayable"},{"type":"function","name":"withdrawAsset","inputs":[{"name":"asset","type":"address","internalType":"address"},{"name":"amount","type":"uint104","internalType":"uint104"}],"outputs":[],"stateMutability":"nonpayable"},{"type":"function","name":"withdrawDittoReward","inputs":[{"name":"vault","type":"uint256","internalType":"uint256"}],"outputs":[],"stateMutability":"nonpayable"},{"type":"function","name":"withdrawTapp","inputs":[{"name":"bridge","type":"address","internalType":"address"},{"name":"dethAmount","type":"uint88","internalType":"uint88"}],"outputs":[],"stateMutability":"nonpayable"},{"type":"event","name":"Approval","inputs":[{"name":"owner","type":"address","indexed":true,"internalType":"address"},{"name":"spender","type":"address","indexed":true,"internalType":"address"},{"name":"tokenId","type":"uint256","indexed":true,"internalType":"uint256"}],"anonymous":false},{"type":"event","name":"ApprovalForAll","inputs":[{"name":"owner","type":"address","indexed":true,"internalType":"address"},{"name":"operator","type":"address","indexed":true,"internalType":"address"},{"name":"approved","type":"bool","indexed":false,"internalType":"bool"}],"anonymous":false},{"type":"event","name":"CancelOrder","inputs":[{"name":"asset","type":"address","indexed":true,"internalType":"address"},{"name":"orderId","type":"uint16","indexed":false,"internalType":"uint16"},{"name":"orderType","type":"uint8","indexed":true,"internalType":"enum O"}],"anonymous":false},{"type":"event","name":"ChangeBridgeSetting","inputs":[{"name":"bridge","type":"address","indexed":true,"internalType":"address"}],"anonymous":false},{"type":"event","name":"ChangeMarketSetting","inputs":[{"name":"asset","type":"address","indexed":true,"internalType":"address"}],"anonymous":false},{"type":"event","name":"ChangeVaultSetting","inputs":[{"name":"vault","type":"uint256","indexed":true,"internalType":"uint256"}],"anonymous":false},{"type":"event","name":"ClaimDittoMatchedReward","inputs":[{"name":"vault","type":"uint256","indexed":true,"internalType":"uint256"},{"name":"user","type":"address","indexed":true,"internalType":"address"}],"anonymous":false},{"type":"event","name":"CombineShorts","inputs":[{"name":"asset","type":"address","indexed":true,"internalType":"address"},{"name":"user","type":"address","indexed":true,"internalType":"address"},{"name":"srIds","type":"uint8[]","indexed":false,"internalType":"uint8[]"}],"anonymous":false},{"type":"event","name":"CreateBridge","inputs":[{"name":"bridge","type":"address","indexed":true,"internalType":"address"},{"name":"bridgeStruct","type":"tuple","indexed":false,"internalType":"struct EtherscanDiamondImpl.Bridge","components":[{"name":"vault","type":"uint8","internalType":"uint8"},{"name":"withdrawalFee","type":"uint16","internalType":"uint16"},{"name":"unstakeFee","type":"uint8","internalType":"uint8"}]}],"anonymous":false},{"type":"event","name":"CreateMarket","inputs":[{"name":"asset","type":"address","indexed":true,"internalType":"address"},{"name":"assetStruct","type":"tuple","indexed":false,"internalType":"struct STypes.Asset","components":[{"name":"ercDebt","type":"uint104","internalType":"uint104"},{"name":"dethCollateral","type":"uint88","internalType":"uint88"},{"name":"startingShortId","type":"uint16","internalType":"uint16"},{"name":"orderIdCounter","type":"uint16","internalType":"uint16"},{"name":"initialCR","type":"uint16","internalType":"uint16"},{"name":"frozen","type":"uint8","internalType":"enum F"},{"name":"vault","type":"uint8","internalType":"uint8"},{"name":"minBidEth","type":"uint8","internalType":"uint8"},{"name":"minAskEth","type":"uint8","internalType":"uint8"},{"name":"minShortErc","type":"uint16","internalType":"uint16"},{"name":"penaltyCR","type":"uint8","internalType":"uint8"},{"name":"tappFeePct","type":"uint8","internalType":"uint8"},{"name":"callerFeePct","type":"uint8","internalType":"uint8"},{"name":"forcedBidPriceBuffer","type":"uint8","internalType":"uint8"},{"name":"assetId","type":"uint8","internalType":"uint8"},{"name":"ercDebtRate","type":"uint64","internalType":"uint64"},{"name":"liquidationCR","type":"uint16","internalType":"uint16"},{"name":"recoveryCR","type":"uint8","internalType":"uint8"},{"name":"lastRedemptionTime","type":"uint32","internalType":"uint32"},{"name":"baseRate","type":"uint64","internalType":"uint64"},{"name":"oracle","type":"address","internalType":"address"},{"name":"filler1","type":"uint96","internalType":"uint96"}]}],"anonymous":false},{"type":"event","name":"CreateOrder","inputs":[{"name":"asset","type":"address","indexed":true,"internalType":"address"},{"name":"user","type":"address","indexed":true,"internalType":"address"},{"name":"orderType","type":"uint8","indexed":true,"internalType":"enum O"},{"name":"orderId","type":"uint16","indexed":false,"internalType":"uint16"},{"name":"ercAmount","type":"uint88","indexed":false,"internalType":"uint88"}],"anonymous":false},{"type":"event","name":"CreateShortRecord","inputs":[{"name":"asset","type":"address","indexed":true,"internalType":"address"},{"name":"user","type":"address","indexed":true,"internalType":"address"},{"name":"srId","type":"uint16","indexed":false,"internalType":"uint16"}],"anonymous":false},{"type":"event","name":"CreateVault","inputs":[{"name":"deth","type":"address","indexed":true,"internalType":"address"},{"name":"vault","type":"uint256","indexed":true,"internalType":"uint256"}],"anonymous":false},{"type":"event","name":"DecreaseCollateral","inputs":[{"name":"asset","type":"address","indexed":true,"internalType":"address"},{"name":"user","type":"address","indexed":true,"internalType":"address"},{"name":"srId","type":"uint8","indexed":false,"internalType":"uint8"},{"name":"amount","type":"uint256","indexed":false,"internalType":"uint256"}],"anonymous":false},{"type":"event","name":"DeleteShortRecord","inputs":[{"name":"asset","type":"address","indexed":true,"internalType":"address"},{"name":"user","type":"address","indexed":true,"internalType":"address"},{"name":"srId","type":"uint16","indexed":false,"internalType":"uint16"}],"anonymous":false},{"type":"event","name":"Deposit","inputs":[{"name":"bridge","type":"address","indexed":true,"internalType":"address"},{"name":"user","type":"address","indexed":true,"internalType":"address"},{"name":"amount","type":"uint256","indexed":false,"internalType":"uint256"}],"anonymous":false},{"type":"event","name":"DepositEth","inputs":[{"name":"bridge","type":"address","indexed":true,"internalType":"address"},{"name":"user","type":"address","indexed":true,"internalType":"address"},{"name":"amount","type":"uint256","indexed":false,"internalType":"uint256"}],"anonymous":false},{"type":"event","name":"DiamondCut","inputs":[{"name":"_diamondCut","type":"tuple[]","indexed":false,"internalType":"struct EtherscanDiamondImpl.FacetCut[]","components":[{"name":"facetAddress","type":"address","internalType":"address"},{"name":"action","type":"uint8","internalType":"uint8"},{"name":"functionSelectors","type":"bytes4[]","internalType":"bytes4[]"}]},{"name":"_init","type":"address","indexed":false,"internalType":"address"},{"name":"_calldata","type":"bytes","indexed":false,"internalType":"bytes"}],"anonymous":false},{"type":"event","name":"DistributeYield","inputs":[{"name":"vault","type":"uint256","indexed":true,"internalType":"uint256"},{"name":"user","type":"address","indexed":true,"internalType":"address"},{"name":"yieldAmount","type":"uint256","indexed":false,"internalType":"uint256"},{"name":"dittoYieldShares","type":"uint256","indexed":false,"internalType":"uint256"}],"anonymous":false},{"type":"event","name":"ExitShort","inputs":[{"name":"asset","type":"address","indexed":true,"internalType":"address"},{"name":"user","type":"address","indexed":true,"internalType":"address"},{"name":"srId","type":"uint8","indexed":false,"internalType":"uint8"},{"name":"amount","type":"uint256","indexed":false,"internalType":"uint256"}],"anonymous":false},{"type":"event","name":"ExitShortErcEscrowed","inputs":[{"name":"asset","type":"address","indexed":true,"internalType":"address"},{"name":"user","type":"address","indexed":true,"internalType":"address"},{"name":"srId","type":"uint8","indexed":false,"internalType":"uint8"},{"name":"amount","type":"uint256","indexed":false,"internalType":"uint256"}],"anonymous":false},{"type":"event","name":"ExitShortWallet","inputs":[{"name":"asset","type":"address","indexed":true,"internalType":"address"},{"name":"user","type":"address","indexed":true,"internalType":"address"},{"name":"srId","type":"uint8","indexed":false,"internalType":"uint8"},{"name":"amount","type":"uint256","indexed":false,"internalType":"uint256"}],"anonymous":false},{"type":"event","name":"IncreaseCollateral","inputs":[{"name":"asset","type":"address","indexed":true,"internalType":"address"},{"name":"user","type":"address","indexed":true,"internalType":"address"},{"name":"srId","type":"uint8","indexed":false,"internalType":"uint8"},{"name":"amount","type":"uint256","indexed":false,"internalType":"uint256"}],"anonymous":false},{"type":"event","name":"Liquidate","inputs":[{"name":"asset","type":"address","indexed":true,"internalType":"address"},{"name":"shorter","type":"address","indexed":true,"internalType":"address"},{"name":"srId","type":"uint8","indexed":false,"internalType":"uint8"},{"name":"caller","type":"address","indexed":true,"internalType":"address"},{"name":"amount","type":"uint256","indexed":false,"internalType":"uint256"}],"anonymous":false},{"type":"event","name":"LiquidateSecondary","inputs":[{"name":"asset","type":"address","indexed":true,"internalType":"address"},{"name":"batches","type":"tuple[]","indexed":false,"internalType":"struct EtherscanDiamondImpl.BatchLiquidation[]","components":[{"name":"shorter","type":"address","internalType":"address"},{"name":"shortId","type":"uint8","internalType":"uint8"}]},{"name":"caller","type":"address","indexed":true,"internalType":"address"},{"name":"isWallet","type":"bool","indexed":false,"internalType":"bool"}],"anonymous":false},{"type":"event","name":"MatchOrder","inputs":[{"name":"asset","type":"address","indexed":true,"internalType":"address"},{"name":"user","type":"address","indexed":true,"internalType":"address"},{"name":"orderType","type":"uint8","indexed":true,"internalType":"enum O"},{"name":"orderId","type":"uint16","indexed":false,"internalType":"uint16"},{"name":"fillEth","type":"uint88","indexed":false,"internalType":"uint88"},{"name":"fillErc","type":"uint88","indexed":false,"internalType":"uint88"}],"anonymous":false},{"type":"event","name":"NewAdmin","inputs":[{"name":"newAdmin","type":"address","indexed":false,"internalType":"address"}],"anonymous":false},{"type":"event","name":"NewOwnerCandidate","inputs":[{"name":"newOwnerCandidate","type":"address","indexed":false,"internalType":"address"}],"anonymous":false},{"type":"event","name":"OwnershipTransferred","inputs":[{"name":"previousOwner","type":"address","indexed":true,"internalType":"address"},{"name":"newOwner","type":"address","indexed":true,"internalType":"address"}],"anonymous":false},{"type":"event","name":"RedeemErc","inputs":[{"name":"asset","type":"address","indexed":true,"internalType":"address"},{"name":"user","type":"address","indexed":true,"internalType":"address"},{"name":"amtWallet","type":"uint256","indexed":false,"internalType":"uint256"},{"name":"amtEscrow","type":"uint256","indexed":false,"internalType":"uint256"}],"anonymous":false},{"type":"event","name":"ShutdownMarket","inputs":[{"name":"asset","type":"address","indexed":true,"internalType":"address"}],"anonymous":false},{"type":"event","name":"Transfer","inputs":[{"name":"from","type":"address","indexed":true,"internalType":"address"},{"name":"to","type":"address","indexed":true,"internalType":"address"},{"name":"tokenId","type":"uint256","indexed":true,"internalType":"uint256"}],"anonymous":false},{"type":"event","name":"UpdateYield","inputs":[{"name":"vault","type":"uint256","indexed":true,"internalType":"uint256"}],"anonymous":false},{"type":"event","name":"Withdraw","inputs":[{"name":"bridge","type":"address","indexed":true,"internalType":"address"},{"name":"user","type":"address","indexed":true,"internalType":"address"},{"name":"amount","type":"uint256","indexed":false,"internalType":"uint256"},{"name":"fee","type":"uint256","indexed":false,"internalType":"uint256"}],"anonymous":false},{"type":"event","name":"WithdrawTapp","inputs":[{"name":"bridge","type":"address","indexed":true,"internalType":"address"},{"name":"recipient","type":"address","indexed":true,"internalType":"address"},{"name":"amount","type":"uint256","indexed":false,"internalType":"uint256"}],"anonymous":false}],"bytecode":{"object":"0x608060405234801561000f575f80fd5b50615e9d806200001e5f395ff3fe6080604052600436106106d1575f3560e01c80637db6eec911610379578063c87b56dd116101d0578063e9a2269b11610101578063f24f250b1161009f578063f851a44011610079578063f851a44014611b3e578063fb5c0a5914611b68578063fc8b8d6b14611ba4578063ff859c9514611bcc576106d1565b8063f24f250b14611ab2578063f2fde38b14611aee578063f62f370514611b16576106d1565b8063f0ac360b116100db578063f0ac360b146119fe578063f1562f1214611a3a578063f203185914611a62578063f23811cc14611a8a576106d1565b8063e9a2269b1461194a578063ec70a2f814611986578063ef9bdfdb146119c2576106d1565b8063d16683851161016e578063d88ee0dc11610148578063d88ee0dc14611882578063e2c068db146118aa578063e9468051146118d2578063e985e9c51461190e576106d1565b8063d1668385146117f4578063d53f44b114611830578063d7516a9014611858576106d1565b8063cdffacc6116101aa578063cdffacc614611740578063ce3d77f71461177c578063ce645d41146117a4578063cf254251146117cc576106d1565b8063c87b56dd146116b4578063cbee05bf146116f0578063ccf0850e14611718576106d1565b80639dccae82116102aa578063b7b7700311610248578063bc47cc0811610222578063bc47cc08146115d8578063bd6b8f0114611600578063c09b0d201461163c578063c1cf2e3014611678576106d1565b8063b7b7700314611560578063b88d4fde14611588578063b9bf5bf6146115b0576106d1565b8063adfca15e11610284578063adfca15e14611498578063ae18d6ce146114d4578063b22b4c87146114fc578063b4a9a0de14611524576106d1565b80639dccae8214611418578063a22cb46514611454578063ad9d4ba31461147c576106d1565b80638e16e1611161031757806393d7a51e116102f157806393d7a51e146113645780639421590b1461138c578063973cfb41146113b45780639d54ce78146113f0576106d1565b80638e16e161146112d8578063912bed0614611314578063920ed6f41461133c576106d1565b80638421b931116103535780638421b9311461120e57806385871317146112365780638d2bd5cd146112725780638da5cb5b146112ae576106d1565b80637db6eec91461116e5780637e89334f146111aa578063804c24d8146111e6576106d1565b8063350e0b3c1161052d57806354ea9f351161045e5780635f504a82116103fc5780636b23cb93116103d65780636b23cb93146110a45780636f864baf146110e057806370a08231146111085780637a0ed62714611144576106d1565b80635f504a82146110165780636301727b146110405780636352211e14611068576106d1565b806358ec79871161043857806358ec798714610f3a5780635a61aa1d14610f765780635be7cc1614610fb25780635cb1be9914610fda576106d1565b806354ea9f3514610e99578063564305d314610ec15780635681e38914610efe576106d1565b806344a8aa98116104cb5780634e71e0c8116104a55780634e71e0c814610df557806352ef6b2c14610e0b57806353105b4d14610e35578063539baa7314610e71576106d1565b806344a8aa9814610d69578063493a314f14610d915780634c87276e14610db9576106d1565b80633adc16fc116105075780633adc16fc14610cc75780633ba254f114610cef5780633f32ac3714610d1757806342842e0e14610d41576106d1565b8063350e0b3c14610c4f57806336cee7b914610c775780633824d85214610c9f576106d1565b80631f931c1c116106075780632af639cd116105a55780632ca47c6d1161057f5780632ca47c6d14610b9b5780632e9a1de114610bc35780632ee19f6a14610beb57806331f1f14914610c27576106d1565b80632af639cd14610b0e5780632ba8c92014610b365780632bf34f7914610b73576106d1565b8063254c5272116105e1578063254c527214610a31578063258119b314610a6d578063269010c514610aa957806328a08f1c14610ae6576106d1565b80631f931c1c146109a557806323b872dd146109cd57806324ddaf90146109f5576106d1565b806308186cb0116106745780630c3819861161064e5780630c381986146108dd5780630eb9af381461090557806312779fcd146109415780631798cd0e1461097d576106d1565b806308186cb01461083d578063095ea7b3146108795780630b545214146108a1576106d1565b8063024ef0dd116106b0578063024ef0dd1461076157806303bf6bec1461079d57806307ca4c70146107c5578063081812fc14610801576106d1565b80625b6317146106d557806301ffc9a7146106fd5780630201701114610739575b5f80fd5b3480156106e0575f80fd5b506106fb60048036038101906106f69190612e75565b611bf4565b005b348015610708575f80fd5b50610723600480360381019061071e9190612f1a565b611c60565b6040516107309190612f5f565b60405180910390f35b348015610744575f80fd5b5061075f600480360381019061075a9190612fae565b611c66565b005b34801561076c575f80fd5b5061078760048036038101906107829190612fec565b611c6a565b6040516107949190613033565b60405180910390f35b3480156107a8575f80fd5b506107c360048036038101906107be9190612fae565b611c70565b005b3480156107d0575f80fd5b506107eb60048036038101906107e6919061307f565b611c74565b6040516107f891906130cc565b60405180910390f35b34801561080c575f80fd5b50610827600480360381019061082291906130e5565b611c7b565b604051610834919061311f565b60405180910390f35b348015610848575f80fd5b50610863600480360381019061085e919061340e565b611c81565b60405161087091906130cc565b60405180910390f35b348015610884575f80fd5b5061089f600480360381019061089a919061344d565b611c88565b005b3480156108ac575f80fd5b506108c760048036038101906108c291906134d0565b611ce7565b6040516108d491906130cc565b60405180910390f35b3480156108e8575f80fd5b5061090360048036038101906108fe9190613538565b611cee565b005b348015610910575f80fd5b5061092b60048036038101906109269190612fec565b611d35565b60405161093891906130cc565b60405180910390f35b34801561094c575f80fd5b50610967600480360381019061096291906130e5565b611d3b565b60405161097491906130cc565b60405180910390f35b348015610988575f80fd5b506109a3600480360381019061099e9190613576565b611d41565b005b3480156109b0575f80fd5b506109cb60048036038101906109c69190613887565b611dac565b005b3480156109d8575f80fd5b506109f360048036038101906109ee919061390f565b611dec565b005b348015610a00575f80fd5b50610a1b6004803603810190610a169190612fec565b611e4c565b604051610a289190613c3f565b60405180910390f35b348015610a3c575f80fd5b50610a576004803603810190610a529190612fec565b611e59565b604051610a6491906130cc565b60405180910390f35b348015610a78575f80fd5b50610a936004803603810190610a8e919061344d565b611e5f565b604051610aa09190613033565b60405180910390f35b348015610ab4575f80fd5b50610acf6004803603810190610aca9190613d19565b611e66565b604051610add929190613dbb565b60405180910390f35b348015610af1575f80fd5b50610b0c6004803603810190610b079190612fae565b611e72565b005b348015610b19575f80fd5b50610b346004803603810190610b2f9190613538565b611e76565b005b348015610b41575f80fd5b50610b5c6004803603810190610b579190613f19565b611edf565b604051610b6a929190613dbb565b60405180910390f35b348015610b7e575f80fd5b50610b996004803603810190610b949190612fec565b611f69565b005b348015610ba6575f80fd5b50610bc16004803603810190610bbc9190612fae565b611faf565b005b348015610bce575f80fd5b50610be96004803603810190610be491906130e5565b611fb3565b005b348015610bf6575f80fd5b50610c116004803603810190610c0c9190612fec565b611fe3565b604051610c1e91906130cc565b60405180910390f35b348015610c32575f80fd5b50610c4d6004803603810190610c489190613538565b611fe9565b005b348015610c5a575f80fd5b50610c756004803603810190610c709190613538565b611fed565b005b348015610c82575f80fd5b50610c9d6004803603810190610c989190613538565b611ff1565b005b348015610caa575f80fd5b50610cc56004803603810190610cc09190613fda565b611ff5565b005b348015610cd2575f80fd5b50610ced6004803603810190610ce89190614042565b612026565b005b348015610cfa575f80fd5b50610d156004803603810190610d1091906140e1565b61202a565b005b348015610d22575f80fd5b50610d2b612073565b604051610d389190614140565b60405180910390f35b348015610d4c575f80fd5b50610d676004803603810190610d62919061390f565b612077565b005b348015610d74575f80fd5b50610d8f6004803603810190610d8a9190612fae565b61207c565b005b348015610d9c575f80fd5b50610db76004803603810190610db29190614266565b612080565b005b348015610dc4575f80fd5b50610ddf6004803603810190610dda9190612fec565b6120ed565b604051610dec91906130cc565b60405180910390f35b348015610e00575f80fd5b50610e096120f3565b005b348015610e16575f80fd5b50610e1f6120f5565b604051610e2c919061438e565b60405180910390f35b348015610e40575f80fd5b50610e5b6004803603810190610e56919061307f565b6120fa565b604051610e6891906130cc565b60405180910390f35b348015610e7c575f80fd5b50610e976004803603810190610e92919061446e565b612101565b005b348015610ea4575f80fd5b50610ebf6004803603810190610eba9190612fae565b612156565b005b348015610ecc575f80fd5b50610ee76004803603810190610ee291906144b5565b61215a565b604051610ef5929190613dbb565b60405180910390f35b348015610f09575f80fd5b50610f246004803603810190610f1f9190614535565b6121e3565b604051610f31919061473d565b60405180910390f35b348015610f45575f80fd5b50610f606004803603810190610f5b919061475d565b6121eb565b604051610f6d91906148a5565b60405180910390f35b348015610f81575f80fd5b50610f9c6004803603810190610f979190614535565b6121f5565b604051610fa991906130cc565b60405180910390f35b348015610fbd575f80fd5b50610fd86004803603810190610fd39190612fec565b6121fc565b005b348015610fe5575f80fd5b506110006004803603810190610ffb919061307f565b612236565b60405161100d9190614905565b60405180910390f35b348015611021575f80fd5b5061102a612244565b604051611037919061311f565b60405180910390f35b34801561104b575f80fd5b5061106660048036038101906110619190613538565b612248565b005b348015611073575f80fd5b5061108e600480360381019061108991906130e5565b61228f565b60405161109b919061311f565b60405180910390f35b3480156110af575f80fd5b506110ca60048036038101906110c591906130e5565b612295565b6040516110d7919061438e565b60405180910390f35b3480156110eb575f80fd5b5061110660048036038101906111019190612fae565b61229c565b005b348015611113575f80fd5b5061112e60048036038101906111299190612fec565b6122a0565b60405161113b91906130cc565b60405180910390f35b34801561114f575f80fd5b506111586122a6565b6040516111659190614aca565b60405180910390f35b348015611179575f80fd5b50611194600480360381019061118f9190612fec565b6122ab565b6040516111a191906130cc565b60405180910390f35b3480156111b5575f80fd5b506111d060048036038101906111cb9190614535565b6122b1565b6040516111dd91906130cc565b60405180910390f35b3480156111f1575f80fd5b5061120c60048036038101906112079190614aea565b6122b8565b005b348015611219575f80fd5b50611234600480360381019061122f9190614aea565b612324565b005b348015611241575f80fd5b5061125c60048036038101906112579190614535565b612390565b6040516112699190614140565b60405180910390f35b34801561127d575f80fd5b506112986004803603810190611293919061344d565b612397565b6040516112a59190613033565b60405180910390f35b3480156112b9575f80fd5b506112c261239e565b6040516112cf919061311f565b60405180910390f35b3480156112e3575f80fd5b506112fe60048036038101906112f9919061340e565b6123a2565b60405161130b91906130cc565b60405180910390f35b34801561131f575f80fd5b5061133a60048036038101906113359190614d82565b6123a9565b005b348015611347575f80fd5b50611362600480360381019061135d9190612fae565b6123fb565b005b34801561136f575f80fd5b5061138a600480360381019061138591906130e5565b6123ff565b005b348015611397575f80fd5b506113b260048036038101906113ad9190614dc1565b612402565b005b3480156113bf575f80fd5b506113da60048036038101906113d591906130e5565b612408565b6040516113e79190614f13565b60405180910390f35b3480156113fb575f80fd5b5061141660048036038101906114119190613538565b612415565b005b348015611423575f80fd5b5061143e60048036038101906114399190612fec565b612419565b60405161144b91906150ca565b60405180910390f35b34801561145f575f80fd5b5061147a600480360381019061147591906150ea565b612420565b005b61149660048036038101906114919190612fec565b612489565b005b3480156114a3575f80fd5b506114be60048036038101906114b99190612fec565b6124f1565b6040516114cb9190615194565b60405180910390f35b3480156114df575f80fd5b506114fa60048036038101906114f59190613538565b6124f8565b005b348015611507575f80fd5b50611522600480360381019061151d9190613576565b6124fc565b005b34801561152f575f80fd5b5061154a6004803603810190611545919061307f565b612565565b60405161155791906130cc565b60405180910390f35b34801561156b575f80fd5b5061158660048036038101906115819190612fae565b61256c565b005b348015611593575f80fd5b506115ae60048036038101906115a991906151b4565b612570565b005b3480156115bb575f80fd5b506115d660048036038101906115d19190615234565b612576565b005b3480156115e3575f80fd5b506115fe60048036038101906115f99190613538565b6125ee565b005b34801561160b575f80fd5b5061162660048036038101906116219190612fec565b6125f2565b60405161163391906150ca565b60405180910390f35b348015611647575f80fd5b50611662600480360381019061165d91906130e5565b6125f9565b60405161166f91906130cc565b60405180910390f35b348015611683575f80fd5b5061169e60048036038101906116999190614535565b6125ff565b6040516116ab91906130cc565b60405180910390f35b3480156116bf575f80fd5b506116da60048036038101906116d591906130e5565b612606565b6040516116e79190615312565b60405180910390f35b3480156116fb575f80fd5b5061171660048036038101906117119190613fda565b61260d565b005b348015611723575f80fd5b5061173e60048036038101906117399190614aea565b612611565b005b34801561174b575f80fd5b5061176660048036038101906117619190612f1a565b61267d565b604051611773919061311f565b60405180910390f35b348015611787575f80fd5b506117a2600480360381019061179d91906130e5565b612683565b005b3480156117af575f80fd5b506117ca60048036038101906117c591906153f2565b6126ca565b005b3480156117d7575f80fd5b506117f260048036038101906117ed9190613576565b612733565b005b3480156117ff575f80fd5b5061181a60048036038101906118159190614535565b61279c565b60405161182791906154b2565b60405180910390f35b34801561183b575f80fd5b50611856600480360381019061185191906154cb565b6127aa565b005b348015611863575f80fd5b5061186c61282c565b60405161187991906130cc565b60405180910390f35b34801561188d575f80fd5b506118a860048036038101906118a3919061555e565b612830565b005b3480156118b5575f80fd5b506118d060048036038101906118cb9190613538565b61289e565b005b3480156118dd575f80fd5b506118f860048036038101906118f391906130e5565b612904565b60405161190591906130cc565b60405180910390f35b348015611919575f80fd5b50611934600480360381019061192f9190614535565b61290a565b6040516119419190612f5f565b60405180910390f35b348015611955575f80fd5b50611970600480360381019061196b9190612fec565b612911565b60405161197d91906130cc565b60405180910390f35b348015611991575f80fd5b506119ac60048036038101906119a7919061344d565b612917565b6040516119b99190613033565b60405180910390f35b3480156119cd575f80fd5b506119e860048036038101906119e391906130e5565b61291e565b6040516119f591906130cc565b60405180910390f35b348015611a09575f80fd5b50611a246004803603810190611a1f9190612fec565b612924565b604051611a3191906150ca565b60405180910390f35b348015611a45575f80fd5b50611a606004803603810190611a5b9190614aea565b61292b565b005b348015611a6d575f80fd5b50611a886004803603810190611a839190612fae565b612997565b005b348015611a95575f80fd5b50611ab06004803603810190611aab91906155f1565b61299b565b005b348015611abd575f80fd5b50611ad86004803603810190611ad391906156b2565b612a08565b604051611ae591906157f6565b60405180910390f35b348015611af9575f80fd5b50611b146004803603810190611b0f9190612fec565b612a17565b005b348015611b21575f80fd5b50611b3c6004803603810190611b379190613fda565b612a51565b005b348015611b49575f80fd5b50611b52612a55565b604051611b5f919061311f565b60405180910390f35b348015611b73575f80fd5b50611b8e6004803603810190611b899190612fec565b612a59565b604051611b9b9190615850565b60405180910390f35b348015611baf575f80fd5b50611bca6004803603810190611bc59190614042565b612a66565b005b348015611bd7575f80fd5b50611bf26004803603810190611bed9190615869565b612a6a565b005b3373ffffffffffffffffffffffffffffffffffffffff168373ffffffffffffffffffffffffffffffffffffffff167f118ce4f1417652fabd622f39daf2b01dfc4b81b97a310404fb301be4eb1bfb4a8484604051611c53929190615906565b60405180910390a3505050565b5f919050565b5050565b5f919050565b5050565b5f92915050565b5f919050565b5f92915050565b808273ffffffffffffffffffffffffffffffffffffffff163373ffffffffffffffffffffffffffffffffffffffff167f8c5be1e5ebec7d5bd14f71427d1e84f3dd0314c0f7b2291e5b200ac8c7c3b92560405160405180910390a45050565b5f92915050565b8173ffffffffffffffffffffffffffffffffffffffff167f176c9a97fca1fd92bc74be87c70d2a5c973281e710f0d22f44b613523046f3f560405160405180910390a25050565b5f919050565b5f919050565b3373ffffffffffffffffffffffffffffffffffffffff168273ffffffffffffffffffffffffffffffffffffffff167ff341246adaac6f497bc2a656f546ab9e182111d630394f0c57c710a59a2cb567835f604051611da0929190615966565b60405180910390a35050565b7f8faa70878671ccd212d20771b795c50af8fd3ff6cf27f4bde57e5d4de0aeb673838383604051611ddf93929190615ae7565b60405180910390a1505050565b808273ffffffffffffffffffffffffffffffffffffffff168473ffffffffffffffffffffffffffffffffffffffff167fddf252ad1be2c89b69c2b068fc378daa952ba7f163c4a11628f55a4df523b3ef60405160405180910390a4505050565b611e54612a70565b919050565b5f919050565b5f92915050565b5f809550959350505050565b5050565b3373ffffffffffffffffffffffffffffffffffffffff168273ffffffffffffffffffffffffffffffffffffffff167f308fabf328a16a122870d17bc942c7d1030c9f3f3eb3bd0d0139bbc75e705a3583604051611ed39190613033565b60405180910390a35050565b5f8060016007811115611ef557611ef46139a4565b5b3373ffffffffffffffffffffffffffffffffffffffff168973ffffffffffffffffffffffffffffffffffffffff167f1140e445b15f25d17f29961cc427972f8a2fe6c255e4a15a370e17620206fb825f805f604051611f5693929190615b8a565b60405180910390a4965096945050505050565b8073ffffffffffffffffffffffffffffffffffffffff167f1b7c24f2ead81c62605e322c9fae410f0b635385a1102efc72915f0dbbfcaa1860405160405180910390a250565b5050565b807f9ab6b10346b6b8a9fabe0f99391f506eaa7d013773daabad99706638118ecdfc60405160405180910390a250565b5f919050565b5050565b5050565b5050565b817fb38f3ea9dfbc88b1e2d3254953019184a51acf58bdb975272d74570ed3f547ed60405160405180910390a25050565b5050565b818373ffffffffffffffffffffffffffffffffffffffff167f31f3334dc9bd026d54d245a1e186015d00b5f7f75102fb9ac3f682dcc72d6ff660405160405180910390a3505050565b5f90565b505050565b5050565b3373ffffffffffffffffffffffffffffffffffffffff168473ffffffffffffffffffffffffffffffffffffffff167fefa05be072297355172d8e610bf7e40522f1c4111c18288a9a19569be98d814585846040516120df929190615c94565b60405180910390a350505050565b5f919050565b565b606090565b5f92915050565b3373ffffffffffffffffffffffffffffffffffffffff1660017f0b610b2b11de71b9aaaf36911e0b529cd822aa5f73a5c3d567d998b11240a7785f8060405161214b929190615cc2565b60405180910390a350565b5050565b5f803373ffffffffffffffffffffffffffffffffffffffff168573ffffffffffffffffffffffffffffffffffffffff168773ffffffffffffffffffffffffffffffffffffffff167f722f38b9cea5a34d120f6e632ef23b3af26b672778f87a4af045dd65278eff1f875f6040516121d2929190615cf8565b60405180910390a494509492505050565b606092915050565b6060949350505050565b5f92915050565b7f71614071b88dee5e0b2ae578a9dd7b2ebbe9ae832ba419dc0242cd065a290b6c8160405161222b919061311f565b60405180910390a150565b61223e612b9c565b92915050565b5f90565b8173ffffffffffffffffffffffffffffffffffffffff167f6a6f407da4fdc0bf2293bd6cecdf052dbdf30c15140e12cd16fb3ce8c8540a5260405160405180910390a25050565b5f919050565b6060919050565b5050565b5f919050565b606090565b5f919050565b5f92915050565b3373ffffffffffffffffffffffffffffffffffffffff168373ffffffffffffffffffffffffffffffffffffffff167f13a9fcfbd071fe67eb7abae9bf41ff027bb388ae4ce8b8e5c0989b77d8957ccd8484604051612317929190615d1f565b60405180910390a3505050565b3373ffffffffffffffffffffffffffffffffffffffff168373ffffffffffffffffffffffffffffffffffffffff167ffc80b5802cc918b5acb75f4e7609b240b3f67e31446ad0f835da400e91340b1b8484604051612383929190615d1f565b60405180910390a3505050565b5f92915050565b5f92915050565b5f90565b5f92915050565b8173ffffffffffffffffffffffffffffffffffffffff167f3e05ba8abcf1c1d57018e0586c1b17e80ef0a23ce2b8ee025f8f0bad03601710826040516123ef9190613c3f565b60405180910390a25050565b5050565b50565b50505050565b612410612be0565b919050565b5050565b6060919050565b8173ffffffffffffffffffffffffffffffffffffffff163373ffffffffffffffffffffffffffffffffffffffff167f17307eab39ab6107e8899845ad3d59bd9653f200f220920489ca2b5937696c318360405161247d9190612f5f565b60405180910390a35050565b3373ffffffffffffffffffffffffffffffffffffffff168173ffffffffffffffffffffffffffffffffffffffff167fecd351ae13715d8d17a61da95116380847ff2cb8439b725b614d2ed19a8544bb346040516124e691906130cc565b60405180910390a350565b6060919050565b5050565b3373ffffffffffffffffffffffffffffffffffffffff168273ffffffffffffffffffffffffffffffffffffffff167f5548c837ab068cf56a2c2479df0882a4922fd203edb7517321831d95078c5f62836040516125599190615d46565b60405180910390a35050565b5f92915050565b5050565b50505050565b8373ffffffffffffffffffffffffffffffffffffffff167f7a4b8c303dc89141b0bed941be14be6c9327f32567f4f42b01670d4fc3b2532860405180606001604052808660ff1681526020018561ffff1681526020018460ff168152506040516125e09190615850565b60405180910390a250505050565b5050565b6060919050565b5f919050565b5f92915050565b6060919050565b5050565b3373ffffffffffffffffffffffffffffffffffffffff168373ffffffffffffffffffffffffffffffffffffffff167f9c4d727b13377cb626668f18a0a82b2bd1cc686bdd8f188f07193772f4a50a548484604051612670929190615d1f565b60405180910390a3505050565b5f919050565b3373ffffffffffffffffffffffffffffffffffffffff16817fbc0cb505b8ff606c33d3baf9f61b5bdc270fee0dfefe0a0efd55452109056ca760405160405180910390a350565b3373ffffffffffffffffffffffffffffffffffffffff168273ffffffffffffffffffffffffffffffffffffffff167f7d4b6efcc2825da50822a71402587fb2899cc673e289e6caa8f3cb25994fd8b1836040516127279190615e07565b60405180910390a35050565b3373ffffffffffffffffffffffffffffffffffffffff168273ffffffffffffffffffffffffffffffffffffffff167f0cb9e09e8d84d45d18c5f41ab0fc481c2d09373cce6d995742cfde5a93b469c1836040516127909190615d46565b60405180910390a35050565b6127a4612ca4565b92915050565b600260078111156127be576127bd6139a4565b5b3373ffffffffffffffffffffffffffffffffffffffff168673ffffffffffffffffffffffffffffffffffffffff167f464d814951bd2dcbcab73412ca99e1ec43435c5f9d3115eba8f8d475edf7dfcd5f8760405161281d929190615e27565b60405180910390a45050505050565b5f90565b3373ffffffffffffffffffffffffffffffffffffffff168573ffffffffffffffffffffffffffffffffffffffff167f1277d363a2f5e455a13a703c62f2ebca395b3c161d0282a5a83b8fd0a3ae11c8868660405161288f929190615d1f565b60405180910390a35050505050565b600260078111156128b2576128b16139a4565b5b8273ffffffffffffffffffffffffffffffffffffffff167f2097d5c49cf7ba09a2520b6b807629746c2527783ac92cac69d88e846c7f33f5836040516128f89190613033565b60405180910390a35050565b5f919050565b5f92915050565b5f919050565b5f92915050565b5f919050565b6060919050565b3373ffffffffffffffffffffffffffffffffffffffff168373ffffffffffffffffffffffffffffffffffffffff167fd343aa6a6f5898e16702b965b53eb62aad7a2a7cf148a28ee5c9f0710090da07848460405161298a929190615d1f565b60405180910390a3505050565b5050565b3373ffffffffffffffffffffffffffffffffffffffff168673ffffffffffffffffffffffffffffffffffffffff167f098ddd45c8c2cfd19dab7bc996da0fe871e07f039af4def6686bb3115d87e4285f6040516129f89190615e4e565b60405180910390a3505050505050565b612a10612cf9565b9392505050565b7fc1e5791742d47e3e0d710cd0917c5cb15319ebc3392b3ba5a77d9b530bdc3b3a81604051612a46919061311f565b60405180910390a150565b5050565b5f90565b612a61612da2565b919050565b5050565b50505050565b604051806102c001604052805f6cffffffffffffffffffffffffff1681526020015f6affffffffffffffffffffff1681526020015f61ffff1681526020015f61ffff1681526020015f61ffff1681526020015f6001811115612ad557612ad46139a4565b5b81526020015f60ff1681526020015f60ff1681526020015f60ff1681526020015f61ffff1681526020015f60ff1681526020015f60ff1681526020015f60ff1681526020015f60ff1681526020015f60ff1681526020015f67ffffffffffffffff1681526020015f61ffff1681526020015f60ff1681526020015f63ffffffff1681526020015f67ffffffffffffffff1681526020015f73ffffffffffffffffffffffffffffffffffffffff1681526020015f6bffffffffffffffffffffffff1681525090565b60405180606001604052805f6affffffffffffffffffffff1681526020015f6affffffffffffffffffffff1681526020015f69ffffffffffffffffffff1681525090565b6040518061016001604052805f6affffffffffffffffffffff1681526020015f6affffffffffffffffffffff1681526020015f69ffffffffffffffffffff1681526020015f6affffffffffffffffffffff1681526020015f61ffff1681526020015f61ffff1681526020015f6fffffffffffffffffffffffffffffffff1681526020015f6fffffffffffffffffffffffffffffffff1681526020015f6bffffffffffffffffffffffff1681526020015f61ffff1681526020015f61ffff1681525090565b6040518060a001604052805f6cffffffffffffffffffffffffff1681526020015f62ffffff1681526020015f63ffffffff1681526020015f60ff1681526020015f6bffffffffffffffffffffffff1681525090565b6040518061018001604052805f6affffffffffffffffffffff1681526020015f6affffffffffffffffffffff1681526020015f69ffffffffffffffffffff1681526020015f60ff1681526020015f60ff1681526020015f60ff1681526020015f60ff1681526020015f67ffffffffffffffff1681526020015f63ffffffff1681526020015f63ffffffff1681526020015f62ffffff1681526020015f64ffffffffff1681525090565b60405180606001604052805f60ff1681526020015f61ffff1681526020015f60ff1681525090565b5f604051905090565b5f80fd5b5f80fd5b5f73ffffffffffffffffffffffffffffffffffffffff82169050919050565b5f612e0482612ddb565b9050919050565b612e1481612dfa565b8114612e1e575f80fd5b50565b5f81359050612e2f81612e0b565b92915050565b5f6affffffffffffffffffffff82169050919050565b612e5481612e35565b8114612e5e575f80fd5b50565b5f81359050612e6f81612e4b565b92915050565b5f805f60608486031215612e8c57612e8b612dd3565b5b5f612e9986828701612e21565b9350506020612eaa86828701612e61565b9250506040612ebb86828701612e61565b9150509250925092565b5f7fffffffff0000000000000000000000000000000000000000000000000000000082169050919050565b612ef981612ec5565b8114612f03575f80fd5b50565b5f81359050612f1481612ef0565b92915050565b5f60208284031215612f2f57612f2e612dd3565b5b5f612f3c84828501612f06565b91505092915050565b5f8115159050919050565b612f5981612f45565b82525050565b5f602082019050612f725f830184612f50565b92915050565b5f60ff82169050919050565b612f8d81612f78565b8114612f97575f80fd5b50565b5f81359050612fa881612f84565b92915050565b5f8060408385031215612fc457612fc3612dd3565b5b5f612fd185828601612e21565b9250506020612fe285828601612f9a565b9150509250929050565b5f6020828403121561300157613000612dd3565b5b5f61300e84828501612e21565b91505092915050565b5f61ffff82169050919050565b61302d81613017565b82525050565b5f6020820190506130465f830184613024565b92915050565b5f819050919050565b61305e8161304c565b8114613068575f80fd5b50565b5f8135905061307981613055565b92915050565b5f806040838503121561309557613094612dd3565b5b5f6130a28582860161306b565b92505060206130b385828601612e21565b9150509250929050565b6130c68161304c565b82525050565b5f6020820190506130df5f8301846130bd565b92915050565b5f602082840312156130fa576130f9612dd3565b5b5f6131078482850161306b565b91505092915050565b61311981612dfa565b82525050565b5f6020820190506131325f830184613110565b92915050565b5f80fd5b5f601f19601f8301169050919050565b7f4e487b71000000000000000000000000000000000000000000000000000000005f52604160045260245ffd5b6131828261313c565b810181811067ffffffffffffffff821117156131a1576131a061314c565b5b80604052505050565b5f6131b3612dca565b90506131bf8282613179565b919050565b5f80fd5b5f69ffffffffffffffffffff82169050919050565b6131e6816131c8565b81146131f0575f80fd5b50565b5f81359050613201816131dd565b92915050565b5f67ffffffffffffffff82169050919050565b61322381613207565b811461322d575f80fd5b50565b5f8135905061323e8161321a565b92915050565b5f63ffffffff82169050919050565b61325c81613244565b8114613266575f80fd5b50565b5f8135905061327781613253565b92915050565b5f62ffffff82169050919050565b6132948161327d565b811461329e575f80fd5b50565b5f813590506132af8161328b565b92915050565b5f64ffffffffff82169050919050565b6132ce816132b5565b81146132d8575f80fd5b50565b5f813590506132e9816132c5565b92915050565b5f610180828403121561330557613304613138565b5b6133106101806131aa565b90505f61331f84828501612e61565b5f83015250602061333284828501612e61565b6020830152506040613346848285016131f3565b604083015250606061335a84828501612f9a565b606083015250608061336e84828501612f9a565b60808301525060a061338284828501612f9a565b60a08301525060c061339684828501612f9a565b60c08301525060e06133aa84828501613230565b60e0830152506101006133bf84828501613269565b610100830152506101206133d584828501613269565b610120830152506101406133eb848285016132a1565b61014083015250610160613401848285016132db565b6101608301525092915050565b5f806101a0838503121561342557613424612dd3565b5b5f61343285828601612e21565b9250506020613443858286016132ef565b9150509250929050565b5f806040838503121561346357613462612dd3565b5b5f61347085828601612e21565b92505060206134818582860161306b565b9150509250929050565b5f6fffffffffffffffffffffffffffffffff82169050919050565b6134af8161348b565b81146134b9575f80fd5b50565b5f813590506134ca816134a6565b92915050565b5f80604083850312156134e6576134e5612dd3565b5b5f6134f3858286016134bc565b925050602061350485828601613269565b9150509250929050565b61351781613017565b8114613521575f80fd5b50565b5f813590506135328161350e565b92915050565b5f806040838503121561354e5761354d612dd3565b5b5f61355b85828601612e21565b925050602061356c85828601613524565b9150509250929050565b5f806040838503121561358c5761358b612dd3565b5b5f61359985828601612e21565b92505060206135aa85828601612e61565b9150509250929050565b5f80fd5b5f67ffffffffffffffff8211156135d2576135d161314c565b5b602082029050602081019050919050565b5f80fd5b5f67ffffffffffffffff8211156136015761360061314c565b5b602082029050602081019050919050565b5f61362461361f846135e7565b6131aa565b90508083825260208201905060208402830185811115613647576136466135e3565b5b835b81811015613670578061365c8882612f06565b845260208401935050602081019050613649565b5050509392505050565b5f82601f83011261368e5761368d6135b4565b5b813561369e848260208601613612565b91505092915050565b5f606082840312156136bc576136bb613138565b5b6136c660606131aa565b90505f6136d584828501612e21565b5f8301525060206136e884828501612f9a565b602083015250604082013567ffffffffffffffff81111561370c5761370b6131c4565b5b6137188482850161367a565b60408301525092915050565b5f613736613731846135b8565b6131aa565b90508083825260208201905060208402830185811115613759576137586135e3565b5b835b818110156137a057803567ffffffffffffffff81111561377e5761377d6135b4565b5b80860161378b89826136a7565b8552602085019450505060208101905061375b565b5050509392505050565b5f82601f8301126137be576137bd6135b4565b5b81356137ce848260208601613724565b91505092915050565b5f80fd5b5f67ffffffffffffffff8211156137f5576137f461314c565b5b6137fe8261313c565b9050602081019050919050565b828183375f83830152505050565b5f61382b613826846137db565b6131aa565b905082815260208101848484011115613847576138466137d7565b5b61385284828561380b565b509392505050565b5f82601f83011261386e5761386d6135b4565b5b813561387e848260208601613819565b91505092915050565b5f805f6060848603121561389e5761389d612dd3565b5b5f84013567ffffffffffffffff8111156138bb576138ba612dd7565b5b6138c7868287016137aa565b93505060206138d886828701612e21565b925050604084013567ffffffffffffffff8111156138f9576138f8612dd7565b5b6139058682870161385a565b9150509250925092565b5f805f6060848603121561392657613925612dd3565b5b5f61393386828701612e21565b935050602061394486828701612e21565b92505060406139558682870161306b565b9150509250925092565b5f6cffffffffffffffffffffffffff82169050919050565b6139808161395f565b82525050565b61398f81612e35565b82525050565b61399e81613017565b82525050565b7f4e487b71000000000000000000000000000000000000000000000000000000005f52602160045260245ffd5b600281106139e2576139e16139a4565b5b50565b5f8190506139f2826139d1565b919050565b5f613a01826139e5565b9050919050565b613a11816139f7565b82525050565b613a2081612f78565b82525050565b613a2f81613207565b82525050565b613a3e81613244565b82525050565b613a4d81612dfa565b82525050565b5f6bffffffffffffffffffffffff82169050919050565b613a7381613a53565b82525050565b6102c082015f820151613a8e5f850182613977565b506020820151613aa16020850182613986565b506040820151613ab46040850182613995565b506060820151613ac76060850182613995565b506080820151613ada6080850182613995565b5060a0820151613aed60a0850182613a08565b5060c0820151613b0060c0850182613a17565b5060e0820151613b1360e0850182613a17565b50610100820151613b28610100850182613a17565b50610120820151613b3d610120850182613995565b50610140820151613b52610140850182613a17565b50610160820151613b67610160850182613a17565b50610180820151613b7c610180850182613a17565b506101a0820151613b916101a0850182613a17565b506101c0820151613ba66101c0850182613a17565b506101e0820151613bbb6101e0850182613a26565b50610200820151613bd0610200850182613995565b50610220820151613be5610220850182613a17565b50610240820151613bfa610240850182613a35565b50610260820151613c0f610260850182613a26565b50610280820151613c24610280850182613a44565b506102a0820151613c396102a0850182613a6a565b50505050565b5f6102c082019050613c535f830184613a79565b92915050565b5f67ffffffffffffffff821115613c7357613c7261314c565b5b602082029050602081019050919050565b5f613c96613c9184613c59565b6131aa565b90508083825260208201905060208402830185811115613cb957613cb86135e3565b5b835b81811015613ce25780613cce8882613524565b845260208401935050602081019050613cbb565b5050509392505050565b5f82601f830112613d0057613cff6135b4565b5b8135613d10848260208601613c84565b91505092915050565b5f805f805f60a08688031215613d3257613d31612dd3565b5b5f613d3f88828901612e21565b9550506020613d5088828901612e21565b9450506040613d61888289016131f3565b9350506060613d7288828901612e61565b925050608086013567ffffffffffffffff811115613d9357613d92612dd7565b5b613d9f88828901613cec565b9150509295509295909350565b613db581612e35565b82525050565b5f604082019050613dce5f830185613dac565b613ddb6020830184613dac565b9392505050565b613deb81612f45565b8114613df5575f80fd5b50565b5f81359050613e0681613de2565b92915050565b5f67ffffffffffffffff821115613e2657613e2561314c565b5b602082029050602081019050919050565b5f60408284031215613e4c57613e4b613138565b5b613e5660406131aa565b90505f613e6584828501613524565b5f830152506020613e788482850161306b565b60208301525092915050565b5f613e96613e9184613e0c565b6131aa565b90508083825260208201905060408402830185811115613eb957613eb86135e3565b5b835b81811015613ee25780613ece8882613e37565b845260208401935050604081019050613ebb565b5050509392505050565b5f82601f830112613f0057613eff6135b4565b5b8135613f10848260208601613e84565b91505092915050565b5f805f805f8060c08789031215613f3357613f32612dd3565b5b5f613f4089828a01612e21565b9650506020613f5189828a016131f3565b9550506040613f6289828a01612e61565b9450506060613f7389828a01613df8565b935050608087013567ffffffffffffffff811115613f9457613f93612dd7565b5b613fa089828a01613eec565b92505060a087013567ffffffffffffffff811115613fc157613fc0612dd7565b5b613fcd89828a01613cec565b9150509295509295509295565b5f8060408385031215613ff057613fef612dd3565b5b5f613ffd8582860161306b565b925050602061400e85828601613524565b9150509250929050565b6140218161395f565b811461402b575f80fd5b50565b5f8135905061403c81614018565b92915050565b5f806040838503121561405857614057612dd3565b5b5f61406585828601612e21565b92505060206140768582860161402e565b9150509250929050565b5f6060828403121561409557614094613138565b5b61409f60606131aa565b90505f6140ae84828501613524565b5f8301525060206140c184828501613524565b60208301525060406140d584828501613524565b60408301525092915050565b5f805f60a084860312156140f8576140f7612dd3565b5b5f61410586828701612e21565b93505060206141168682870161306b565b925050604061412786828701614080565b9150509250925092565b61413a8161327d565b82525050565b5f6020820190506141535f830184614131565b92915050565b5f67ffffffffffffffff8211156141735761417261314c565b5b602082029050602081019050919050565b5f6040828403121561419957614198613138565b5b6141a360406131aa565b90505f6141b284828501612e21565b5f8301525060206141c584828501612f9a565b60208301525092915050565b5f6141e36141de84614159565b6131aa565b90508083825260208201905060408402830185811115614206576142056135e3565b5b835b8181101561422f578061421b8882614184565b845260208401935050604081019050614208565b5050509392505050565b5f82601f83011261424d5761424c6135b4565b5b813561425d8482602086016141d1565b91505092915050565b5f805f806080858703121561427e5761427d612dd3565b5b5f61428b87828801612e21565b945050602085013567ffffffffffffffff8111156142ac576142ab612dd7565b5b6142b887828801614239565b93505060406142c987828801612e61565b92505060606142da87828801613df8565b91505092959194509250565b5f81519050919050565b5f82825260208201905092915050565b5f819050602082019050919050565b5f61431a8383613a44565b60208301905092915050565b5f602082019050919050565b5f61433c826142e6565b61434681856142f0565b935061435183614300565b805f5b83811015614381578151614368888261430f565b975061437383614326565b925050600181019050614354565b5085935050505092915050565b5f6020820190508181035f8301526143a68184614332565b905092915050565b5f67ffffffffffffffff8211156143c8576143c761314c565b5b602082029050602081019050919050565b5f6143eb6143e6846143ae565b6131aa565b9050808382526020820190506020840283018581111561440e5761440d6135e3565b5b835b8181101561443757806144238882612e21565b845260208401935050602081019050614410565b5050509392505050565b5f82601f830112614455576144546135b4565b5b81356144658482602086016143d9565b91505092915050565b5f6020828403121561448357614482612dd3565b5b5f82013567ffffffffffffffff8111156144a05761449f612dd7565b5b6144ac84828501614441565b91505092915050565b5f805f80608085870312156144cd576144cc612dd3565b5b5f6144da87828801612e21565b94505060206144eb87828801612e21565b93505060406144fc87828801612f9a565b925050606085013567ffffffffffffffff81111561451d5761451c612dd7565b5b61452987828801613cec565b91505092959194509250565b5f806040838503121561454b5761454a612dd3565b5b5f61455885828601612e21565b925050602061456985828601612e21565b9150509250929050565b5f81519050919050565b5f82825260208201905092915050565b5f819050602082019050919050565b6145a5816131c8565b82525050565b6145b48161327d565b82525050565b6145c3816132b5565b82525050565b61018082015f8201516145de5f850182613986565b5060208201516145f16020850182613986565b506040820151614604604085018261459c565b5060608201516146176060850182613a17565b50608082015161462a6080850182613a17565b5060a082015161463d60a0850182613a17565b5060c082015161465060c0850182613a17565b5060e082015161466360e0850182613a26565b50610100820151614678610100850182613a35565b5061012082015161468d610120850182613a35565b506101408201516146a26101408501826145ab565b506101608201516146b76101608501826145ba565b50505050565b5f6146c883836145c9565b6101808301905092915050565b5f602082019050919050565b5f6146eb82614573565b6146f5818561457d565b93506147008361458d565b805f5b8381101561473057815161471788826146bd565b9750614722836146d5565b925050600181019050614703565b5085935050505092915050565b5f6020820190508181035f83015261475581846146e1565b905092915050565b5f805f806080858703121561477557614774612dd3565b5b5f61478287828801612e21565b94505060206147938782880161306b565b93505060406147a487828801612f9a565b92505060606147b58782880161306b565b91505092959194509250565b5f81519050919050565b5f82825260208201905092915050565b5f819050602082019050919050565b6147f38161304c565b82525050565b604082015f82015161480d5f850182613995565b50602082015161482060208501826147ea565b50505050565b5f61483183836147f9565b60408301905092915050565b5f602082019050919050565b5f614853826147c1565b61485d81856147cb565b9350614868836147db565b805f5b8381101561489857815161487f8882614826565b975061488a8361483d565b92505060018101905061486b565b5085935050505092915050565b5f6020820190508181035f8301526148bd8184614849565b905092915050565b606082015f8201516148d95f850182613986565b5060208201516148ec6020850182613986565b5060408201516148ff604085018261459c565b50505050565b5f6060820190506149185f8301846148c5565b92915050565b5f81519050919050565b5f82825260208201905092915050565b5f819050602082019050919050565b5f81519050919050565b5f82825260208201905092915050565b5f819050602082019050919050565b61497981612ec5565b82525050565b5f61498a8383614970565b60208301905092915050565b5f602082019050919050565b5f6149ac82614947565b6149b68185614951565b93506149c183614961565b805f5b838110156149f15781516149d8888261497f565b97506149e383614996565b9250506001810190506149c4565b5085935050505092915050565b5f604083015f830151614a135f860182613a44565b5060208301518482036020860152614a2b82826149a2565b9150508091505092915050565b5f614a4383836149fe565b905092915050565b5f602082019050919050565b5f614a618261491e565b614a6b8185614928565b935083602082028501614a7d85614938565b805f5b85811015614ab85784840389528151614a998582614a38565b9450614aa483614a4b565b925060208a01995050600181019050614a80565b50829750879550505050505092915050565b5f6020820190508181035f830152614ae28184614a57565b905092915050565b5f805f60608486031215614b0157614b00612dd3565b5b5f614b0e86828701612e21565b9350506020614b1f86828701612f9a565b9250506040614b3086828701612e61565b9150509250925092565b60028110614b46575f80fd5b50565b5f81359050614b5781614b3a565b92915050565b614b6681613a53565b8114614b70575f80fd5b50565b5f81359050614b8181614b5d565b92915050565b5f6102c08284031215614b9d57614b9c613138565b5b614ba86102c06131aa565b90505f614bb78482850161402e565b5f830152506020614bca84828501612e61565b6020830152506040614bde84828501613524565b6040830152506060614bf284828501613524565b6060830152506080614c0684828501613524565b60808301525060a0614c1a84828501614b49565b60a08301525060c0614c2e84828501612f9a565b60c08301525060e0614c4284828501612f9a565b60e083015250610100614c5784828501612f9a565b61010083015250610120614c6d84828501613524565b61012083015250610140614c8384828501612f9a565b61014083015250610160614c9984828501612f9a565b61016083015250610180614caf84828501612f9a565b610180830152506101a0614cc584828501612f9a565b6101a0830152506101c0614cdb84828501612f9a565b6101c0830152506101e0614cf184828501613230565b6101e083015250610200614d0784828501613524565b61020083015250610220614d1d84828501612f9a565b61022083015250610240614d3384828501613269565b61024083015250610260614d4984828501613230565b61026083015250610280614d5f84828501612e21565b610280830152506102a0614d7584828501614b73565b6102a08301525092915050565b5f806102e08385031215614d9957614d98612dd3565b5b5f614da685828601612e21565b9250506020614db785828601614b87565b9150509250929050565b5f805f8060808587031215614dd957614dd8612dd3565b5b5f614de687828801612e21565b9450506020614df787828801612f9a565b9350506040614e0887828801613524565b9250506060614e1987828801613524565b91505092959194509250565b614e2e8161348b565b82525050565b61016082015f820151614e495f850182613986565b506020820151614e5c6020850182613986565b506040820151614e6f604085018261459c565b506060820151614e826060850182613986565b506080820151614e956080850182613995565b5060a0820151614ea860a0850182613995565b5060c0820151614ebb60c0850182614e25565b5060e0820151614ece60e0850182614e25565b50610100820151614ee3610100850182613a6a565b50610120820151614ef8610120850182613995565b50610140820151614f0d610140850182613995565b50505050565b5f61016082019050614f275f830184614e34565b92915050565b5f81519050919050565b5f82825260208201905092915050565b5f819050602082019050919050565b61018082015f820151614f6b5f850182613986565b506020820151614f7e602085018261459c565b506040820151614f916040850182613995565b506060820151614fa46060850182613995565b506080820151614fb76080850182613995565b5060a0820151614fca60a0850182613a17565b5060c0820151614fdd60c0850182613a35565b5060e0820151614ff060e0850182613a44565b50610100820151615005610100850182613a17565b5061012082015161501a610120850182613995565b5061014082015161502f610140850182613a17565b50610160820151615044610160850182613a26565b50505050565b5f6150558383614f56565b6101808301905092915050565b5f602082019050919050565b5f61507882614f2d565b6150828185614f37565b935061508d83614f47565b805f5b838110156150bd5781516150a4888261504a565b97506150af83615062565b925050600181019050615090565b5085935050505092915050565b5f6020820190508181035f8301526150e2818461506e565b905092915050565b5f8060408385031215615100576150ff612dd3565b5b5f61510d85828601612e21565b925050602061511e85828601613df8565b9150509250929050565b5f82825260208201905092915050565b5f61514282614947565b61514c8185615128565b935061515783614961565b805f5b8381101561518757815161516e888261497f565b975061517983614996565b92505060018101905061515a565b5085935050505092915050565b5f6020820190508181035f8301526151ac8184615138565b905092915050565b5f805f80608085870312156151cc576151cb612dd3565b5b5f6151d987828801612e21565b94505060206151ea87828801612e21565b93505060406151fb8782880161306b565b925050606085013567ffffffffffffffff81111561521c5761521b612dd7565b5b6152288782880161385a565b91505092959194509250565b5f805f806080858703121561524c5761524b612dd3565b5b5f61525987828801612e21565b945050602061526a8782880161306b565b935050604061527b87828801613524565b925050606061528c87828801612f9a565b91505092959194509250565b5f81519050919050565b5f82825260208201905092915050565b5f5b838110156152cf5780820151818401526020810190506152b4565b5f8484015250505050565b5f6152e482615298565b6152ee81856152a2565b93506152fe8185602086016152b2565b6153078161313c565b840191505092915050565b5f6020820190508181035f83015261532a81846152da565b905092915050565b5f67ffffffffffffffff82111561534c5761534b61314c565b5b602082029050602081019050919050565b5f61536f61536a84615332565b6131aa565b90508083825260208201905060208402830185811115615392576153916135e3565b5b835b818110156153bb57806153a78882612f9a565b845260208401935050602081019050615394565b5050509392505050565b5f82601f8301126153d9576153d86135b4565b5b81356153e984826020860161535d565b91505092915050565b5f806040838503121561540857615407612dd3565b5b5f61541585828601612e21565b925050602083013567ffffffffffffffff81111561543657615435612dd7565b5b615442858286016153c5565b9150509250929050565b60a082015f8201516154605f850182613977565b50602082015161547360208501826145ab565b5060408201516154866040850182613a35565b5060608201516154996060850182613a17565b5060808201516154ac6080850182613a6a565b50505050565b5f60a0820190506154c55f83018461544c565b92915050565b5f805f805f60a086880312156154e4576154e3612dd3565b5b5f6154f188828901612e21565b9550506020615502888289016131f3565b945050604061551388828901612e61565b935050606061552488828901613df8565b925050608086013567ffffffffffffffff81111561554557615544612dd7565b5b61555188828901613eec565b9150509295509295909350565b5f805f805f60a0868803121561557757615576612dd3565b5b5f61558488828901612e21565b955050602061559588828901612f9a565b94505060406155a688828901612e61565b93505060606155b7888289016131f3565b925050608086013567ffffffffffffffff8111156155d8576155d7612dd7565b5b6155e488828901613cec565b9150509295509295909350565b5f805f805f8060c0878903121561560b5761560a612dd3565b5b5f61561889828a01612e21565b965050602061562989828a016131f3565b955050604061563a89828a01612e61565b945050606087013567ffffffffffffffff81111561565b5761565a612dd7565b5b61566789828a01613eec565b935050608087013567ffffffffffffffff81111561568857615687612dd7565b5b61569489828a01613cec565b92505060a06156a589828a01613524565b9150509295509295509295565b5f805f606084860312156156c9576156c8612dd3565b5b5f6156d686828701612e21565b93505060206156e786828701612e21565b92505060406156f886828701612f9a565b9150509250925092565b61018082015f8201516157175f850182613986565b50602082015161572a6020850182613986565b50604082015161573d604085018261459c565b5060608201516157506060850182613a17565b5060808201516157636080850182613a17565b5060a082015161577660a0850182613a17565b5060c082015161578960c0850182613a17565b5060e082015161579c60e0850182613a26565b506101008201516157b1610100850182613a35565b506101208201516157c6610120850182613a35565b506101408201516157db6101408501826145ab565b506101608201516157f06101608501826145ba565b50505050565b5f6101808201905061580a5f830184615702565b92915050565b606082015f8201516158245f850182613a17565b5060208201516158376020850182613995565b50604082015161584a6040850182613a17565b50505050565b5f6060820190506158635f830184615810565b92915050565b5f805f806080858703121561588157615880612dd3565b5b5f61588e87828801612e21565b945050602061589f87828801612e21565b93505060406158b087828801612f9a565b92505060606158c187828801613524565b91505092959194509250565b5f819050919050565b5f6158f06158eb6158e684612e35565b6158cd565b61304c565b9050919050565b615900816158d6565b82525050565b5f6040820190506159195f8301856158f7565b61592660208301846158f7565b9392505050565b5f819050919050565b5f61595061594b6159468461592d565b6158cd565b61304c565b9050919050565b61596081615936565b82525050565b5f6040820190506159795f8301856158f7565b6159866020830184615957565b9392505050565b5f81519050919050565b5f82825260208201905092915050565b5f819050602082019050919050565b5f606083015f8301516159cb5f860182613a44565b5060208301516159de6020860182613a17565b50604083015184820360408601526159f682826149a2565b9150508091505092915050565b5f615a0e83836159b6565b905092915050565b5f602082019050919050565b5f615a2c8261598d565b615a368185615997565b935083602082028501615a48856159a7565b805f5b85811015615a835784840389528151615a648582615a03565b9450615a6f83615a16565b925060208a01995050600181019050615a4b565b50829750879550505050505092915050565b5f81519050919050565b5f82825260208201905092915050565b5f615ab982615a95565b615ac38185615a9f565b9350615ad38185602086016152b2565b615adc8161313c565b840191505092915050565b5f6060820190508181035f830152615aff8186615a22565b9050615b0e6020830185613110565b8181036040830152615b208184615aaf565b9050949350505050565b5f615b44615b3f615b3a8461592d565b6158cd565b613017565b9050919050565b615b5481615b2a565b82525050565b5f615b74615b6f615b6a8461592d565b6158cd565b612e35565b9050919050565b615b8481615b5a565b82525050565b5f606082019050615b9d5f830186615b4b565b615baa6020830185615b7b565b615bb76040830184615b7b565b949350505050565b5f81519050919050565b5f82825260208201905092915050565b5f819050602082019050919050565b604082015f820151615bfc5f850182613a44565b506020820151615c0f6020850182613a17565b50505050565b5f615c208383615be8565b60408301905092915050565b5f602082019050919050565b5f615c4282615bbf565b615c4c8185615bc9565b9350615c5783615bd9565b805f5b83811015615c87578151615c6e8882615c15565b9750615c7983615c2c565b925050600181019050615c5a565b5085935050505092915050565b5f6040820190508181035f830152615cac8185615c38565b9050615cbb6020830184612f50565b9392505050565b5f604082019050615cd55f830185615957565b615ce26020830184615957565b9392505050565b615cf281612f78565b82525050565b5f604082019050615d0b5f830185615ce9565b615d186020830184615957565b9392505050565b5f604082019050615d325f830185615ce9565b615d3f60208301846158f7565b9392505050565b5f602082019050615d595f8301846158f7565b92915050565b5f81519050919050565b5f82825260208201905092915050565b5f819050602082019050919050565b5f615d938383613a17565b60208301905092915050565b5f602082019050919050565b5f615db582615d5f565b615dbf8185615d69565b9350615dca83615d79565b805f5b83811015615dfa578151615de18882615d88565b9750615dec83615d9f565b925050600181019050615dcd565b5085935050505092915050565b5f6020820190508181035f830152615e1f8184615dab565b905092915050565b5f604082019050615e3a5f830185615b4b565b615e476020830184613dac565b9392505050565b5f602082019050615e615f830184615b4b565b9291505056fea2646970667358221220b8c8be39015c0cca5aab2d38c97bde5d576dcabb28471eb798f84dc1023eac0464736f6c63430008150033","linkReferences":{}},"methodIdentifiers":{"_cancelAsk(address,uint16)":"ae18d6ce","_cancelShort(address,uint16)":"bc47cc08","admin()":"f851a440","approve(address,uint256)":"095ea7b3","balanceOf(address)":"70a08231","cancelAsk(address,uint16)":"e2c068db","cancelBid(address,uint16)":"36cee7b9","cancelOrderFarFromOracle(address,uint8,uint16,uint16)":"9421590b","cancelShort(address,uint16)":"2af639cd","claimDittoMatchedReward(uint256)":"ce3d77f7","claimOwnership()":"4e71e0c8","combineShorts(address,uint8[])":"ce645d41","createAsk(address,uint80,uint88,bool,(uint16,uint256)[])":"d53f44b1","createBid(address,uint80,uint88,bool,(uint16,uint256)[],uint16[])":"2ba8c920","createBridge(address,uint256,uint16,uint8)":"b9bf5bf6","createForcedBid(address,address,uint80,uint88,uint16[])":"269010c5","createLimitShort(address,uint80,uint88,(uint16,uint256)[],uint16[],uint16)":"f23811cc","createMarket(address,(uint104,uint88,uint16,uint16,uint16,uint8,uint8,uint8,uint8,uint16,uint8,uint8,uint8,uint8,uint8,uint64,uint16,uint8,uint32,uint64,address,uint96))":"912bed06","createVault(address,uint256,(uint16,uint16,uint16))":"3ba254f1","decreaseCollateral(address,uint8,uint88)":"f1562f12","deposit(address,uint88)":"b22b4c87","depositAsset(address,uint104)":"fc8b8d6b","depositEth(address)":"ad9d4ba3","diamondCut((address,uint8,bytes4[])[],address,bytes)":"1f931c1c","distributeYield(address[])":"539baa73","estimateWETHInUSDC(uint128,uint32)":"0b545214","exitShort(address,uint8,uint88,uint80,uint16[])":"d88ee0dc","exitShortErcEscrowed(address,uint8,uint88)":"8421b931","exitShortWallet(address,uint8,uint88)":"ccf0850e","facetAddress(bytes4)":"cdffacc6","facetAddresses()":"52ef6b2c","facetFunctionSelectors(address)":"adfca15e","facets()":"7a0ed627","flagShort(address,address,uint8,uint16)":"ff859c95","getApproved(uint256)":"081812fc","getAskHintId(address,uint256)":"ec70a2f8","getAsks(address)":"f0ac360b","getAssetBalance(address,address)":"7e89334f","getAssetCollateralRatio(address)":"2ee19f6a","getAssetStruct(address)":"24ddaf90","getAssetUserStruct(address,address)":"d1668385","getBidHintId(address,uint256)":"8d2bd5cd","getBids(address)":"9dccae82","getBridgeStruct(address)":"fb5c0a59","getBridgeVault(address)":"4c87276e","getBridges(uint256)":"6b23cb93","getCollateralRatio(address,(uint88,uint88,uint80,uint8,uint8,uint8,uint8,uint64,uint32,uint32,uint24,uint40))":"8e16e161","getCollateralRatioSpotPrice(address,(uint88,uint88,uint80,uint8,uint8,uint8,uint8,uint64,uint32,uint32,uint24,uint40))":"08186cb0","getDethBalance(uint256,address)":"07ca4c70","getDethTotal(uint256)":"e9468051","getDethYieldRate(uint256)":"12779fcd","getDittoMatchedReward(uint256,address)":"b4a9a0de","getDittoReward(uint256,address)":"53105b4d","getFlaggerHint()":"3f32ac37","getFlaggerId(address,address)":"85871317","getHintArray(address,uint256,uint8,uint256)":"58ec7987","getOffsetTime()":"d7516a90","getOracleAssetPrice(address)":"7db6eec9","getProtocolAssetPrice(address)":"254c5272","getProtocolAssetTime(address)":"e9a2269b","getShortHintId(address,uint256)":"258119b3","getShortIdAtOracle(address)":"024ef0dd","getShortRecord(address,address,uint8)":"f24f250b","getShortRecordCount(address,address)":"c1cf2e30","getShortRecords(address,address)":"5681e389","getShorts(address)":"bd6b8f01","getTithe(uint256)":"ef9bdfdb","getUndistributedYield(uint256)":"c09b0d20","getVault(address)":"0eb9af38","getVaultStruct(uint256)":"973cfb41","getVaultUserStruct(uint256,address)":"5cb1be99","getYield(address,address)":"5a61aa1d","increaseCollateral(address,uint8,uint88)":"804c24d8","isApprovedForAll(address,address)":"e985e9c5","liquidate(address,address,uint8,uint16[])":"564305d3","liquidateSecondary(address,(address,uint8)[],uint88,bool)":"493a314f","mintNFT(address,uint8)":"2ca47c6d","owner()":"8da5cb5b","ownerCandidate()":"5f504a82","ownerOf(uint256)":"6352211e","redeemErc(address,uint88,uint88)":"005b6317","safeTransferFrom(address,address,uint256)":"42842e0e","safeTransferFrom(address,address,uint256,bytes)":"b88d4fde","setApprovalForAll(address,bool)":"a22cb465","setCallerFeePct(address,uint8)":"54ea9f35","setDittoMatchedRate(uint256,uint16)":"cbee05bf","setDittoShorterRate(uint256,uint16)":"f62f3705","setFirstLiquidationTime(address,uint8)":"02017011","setForcedBidPriceBuffer(address,uint8)":"6f864baf","setInitialCR(address,uint16)":"0c381986","setMinAskEth(address,uint8)":"28a08f1c","setMinBidEth(address,uint8)":"920ed6f4","setMinShortErc(address,uint16)":"31f1f149","setMinimumCR(address,uint8)":"f2031859","setPrimaryLiquidationCR(address,uint16)":"9d54ce78","setResetLiquidationTime(address,uint8)":"b7b77003","setSecondLiquidationTime(address,uint8)":"44a8aa98","setSecondaryLiquidationCR(address,uint16)":"350e0b3c","setTappFeePct(address,uint8)":"03bf6bec","setTithe(uint256,uint16)":"3824d852","setWithdrawalFee(address,uint16)":"6301727b","shutdownMarket(address)":"2bf34f79","supportsInterface(bytes4)":"01ffc9a7","tokenURI(uint256)":"c87b56dd","transferAdminship(address)":"5be7cc16","transferFrom(address,address,uint256)":"23b872dd","transferOwnership(address)":"f2fde38b","updateYield(uint256)":"2e9a1de1","withdraw(address,uint88)":"1798cd0e","withdrawAsset(address,uint104)":"3adc16fc","withdrawDittoReward(uint256)":"93d7a51e","withdrawTapp(address,uint88)":"cf254251"},"id":1}