{"abi":[{"type":"function","name":"cancelAsk","inputs":[{"name":"asset","type":"address","internalType":"address"},{"name":"id","type":"uint16","internalType":"uint16"}],"outputs":[],"stateMutability":"nonpayable"},{"type":"function","name":"cancelBid","inputs":[{"name":"asset","type":"address","internalType":"address"},{"name":"id","type":"uint16","internalType":"uint16"}],"outputs":[],"stateMutability":"nonpayable"},{"type":"function","name":"cancelOrderFarFromOracle","inputs":[{"name":"asset","type":"address","internalType":"address"},{"name":"orderType","type":"uint8","internalType":"enum O"},{"name":"lastOrderId","type":"uint16","internalType":"uint16"},{"name":"numOrdersToCancel","type":"uint16","internalType":"uint16"}],"outputs":[],"stateMutability":"nonpayable"},{"type":"function","name":"cancelShort","inputs":[{"name":"asset","type":"address","internalType":"address"},{"name":"id","type":"uint16","internalType":"uint16"}],"outputs":[],"stateMutability":"nonpayable"},{"type":"event","name":"CancelOrder","inputs":[{"name":"asset","type":"address","indexed":true,"internalType":"address"},{"name":"orderId","type":"uint16","indexed":false,"internalType":"uint16"},{"name":"orderType","type":"uint8","indexed":true,"internalType":"enum O"}],"anonymous":false},{"type":"event","name":"DeleteShortRecord","inputs":[{"name":"asset","type":"address","indexed":true,"internalType":"address"},{"name":"user","type":"address","indexed":true,"internalType":"address"},{"name":"srId","type":"uint16","indexed":false,"internalType":"uint16"}],"anonymous":false},{"type":"error","name":"CannotCancelMoreThan1000Orders","inputs":[]},{"type":"error","name":"InvalidAmount","inputs":[]},{"type":"error","name":"InvalidAsset","inputs":[]},{"type":"error","name":"InvalidPrice","inputs":[]},{"type":"error","name":"NotActiveOrder","inputs":[]},{"type":"error","name":"NotLastOrder","inputs":[]},{"type":"error","name":"NotOwner","inputs":[]},{"type":"error","name":"NotOwnerOrAdmin","inputs":[]},{"type":"error","name":"OrderIdCountTooLow","inputs":[]},{"type":"error","name":"PRBMath_MulDiv18_Overflow","inputs":[{"name":"x","type":"uint256","internalType":"uint256"},{"name":"y","type":"uint256","internalType":"uint256"}]},{"type":"error","name":"PRBMath_MulDiv_Overflow","inputs":[{"name":"x","type":"uint256","internalType":"uint256"},{"name":"y","type":"uint256","internalType":"uint256"},{"name":"denominator","type":"uint256","internalType":"uint256"}]},{"type":"error","name":"ReentrantCall","inputs":[]}],"bytecode":{"object":"0x608060405234801561000f575f80fd5b5061347b8061001d5f395ff3fe608060405234801561000f575f80fd5b506004361061004a575f3560e01c80632af639cd1461004e57806336cee7b91461006a5780639421590b14610086578063e2c068db146100a2575b5f80fd5b6100686004803603810190610063919061303e565b6100be565b005b610084600480360381019061007f919061303e565b6102c7565b005b6100a0600480360381019061009b919061309f565b6104d0565b005b6100bc60048036038101906100b7919061303e565b6109dc565b005b815f806008015f8373ffffffffffffffffffffffffffffffffffffffff1673ffffffffffffffffffffffffffffffffffffffff1681526020019081526020015f205f01601f9054906101000a900460ff1660ff1603610149576040517fc891add200000000000000000000000000000000000000000000000000000000815260040160405180910390fd5b600260ff165f600201601c9054906101000a900460ff1660ff160361019a576040517f37ed32e800000000000000000000000000000000000000000000000000000000815260040160405180910390fd5b60025f600201601c6101000a81548160ff021916908360ff1602179055505f80600c015f8573ffffffffffffffffffffffffffffffffffffffff1673ffffffffffffffffffffffffffffffffffffffff1681526020019081526020015f205f8461ffff1661ffff1681526020019081526020015f209050806001015f9054906101000a900473ffffffffffffffffffffffffffffffffffffffff1673ffffffffffffffffffffffffffffffffffffffff163373ffffffffffffffffffffffffffffffffffffffff1614610299576040517f30cd747100000000000000000000000000000000000000000000000000000000815260040160405180910390fd5b6102a38484610be5565b5060015f600201601c6101000a81548160ff021916908360ff160217905550505050565b815f806008015f8373ffffffffffffffffffffffffffffffffffffffff1673ffffffffffffffffffffffffffffffffffffffff1681526020019081526020015f205f01601f9054906101000a900460ff1660ff1603610352576040517fc891add200000000000000000000000000000000000000000000000000000000815260040160405180910390fd5b600260ff165f600201601c9054906101000a900460ff1660ff16036103a3576040517f37ed32e800000000000000000000000000000000000000000000000000000000815260040160405180910390fd5b60025f600201601c6101000a81548160ff021916908360ff1602179055505f80600a015f8573ffffffffffffffffffffffffffffffffffffffff1673ffffffffffffffffffffffffffffffffffffffff1681526020019081526020015f205f8461ffff1661ffff1681526020019081526020015f209050806001015f9054906101000a900473ffffffffffffffffffffffffffffffffffffffff1673ffffffffffffffffffffffffffffffffffffffff163373ffffffffffffffffffffffffffffffffffffffff16146104a2576040517f30cd747100000000000000000000000000000000000000000000000000000000815260040160405180910390fd5b6104ac8484611466565b5060015f600201601c6101000a81548160ff021916908360ff160217905550505050565b6104d86116fc565b73ffffffffffffffffffffffffffffffffffffffff163373ffffffffffffffffffffffffffffffffffffffff161415801561056157505f80015f9054906101000a900473ffffffffffffffffffffffffffffffffffffffff1673ffffffffffffffffffffffffffffffffffffffff163373ffffffffffffffffffffffffffffffffffffffff1614155b15610598576040517fdce3812500000000000000000000000000000000000000000000000000000000815260040160405180910390fd5b835f806008015f8373ffffffffffffffffffffffffffffffffffffffff1673ffffffffffffffffffffffffffffffffffffffff1681526020019081526020015f205f01601f9054906101000a900460ff1660ff1603610623576040517fc891add200000000000000000000000000000000000000000000000000000000815260040160405180910390fd5b600260ff165f600201601c9054906101000a900460ff1660ff1603610674576040517f37ed32e800000000000000000000000000000000000000000000000000000000815260040160405180910390fd5b60025f600201601c6101000a81548160ff021916908360ff16021790555061fde85f6008015f8773ffffffffffffffffffffffffffffffffffffffff1673ffffffffffffffffffffffffffffffffffffffff1681526020019081526020015f205f01601a9054906101000a900461ffff1661ffff161015610721576040517f2173c08300000000000000000000000000000000000000000000000000000000815260040160405180910390fd5b6103e88261ffff161115610761576040517fa8e0627100000000000000000000000000000000000000000000000000000000815260040160405180910390fd5b6001600781111561077557610774613103565b5b84600781111561078857610787613103565b5b1480156108025750600160ff165f600a015f8773ffffffffffffffffffffffffffffffffffffffff1673ffffffffffffffffffffffffffffffffffffffff1681526020019081526020015f205f8561ffff1661ffff1681526020019081526020015f205f0160199054906101000a900461ffff1661ffff16145b156108175761081285848461172e565b6109b7565b6002600781111561082b5761082a613103565b5b84600781111561083e5761083d613103565b5b1480156108b85750600160ff165f600b015f8773ffffffffffffffffffffffffffffffffffffffff1673ffffffffffffffffffffffffffffffffffffffff1681526020019081526020015f205f8561ffff1661ffff1681526020019081526020015f205f0160199054906101000a900461ffff1661ffff16145b156108cd576108c88584846117cd565b6109b6565b600560078111156108e1576108e0613103565b5b8460078111156108f4576108f3613103565b5b14801561096e5750600160ff165f600c015f8773ffffffffffffffffffffffffffffffffffffffff1673ffffffffffffffffffffffffffffffffffffffff1681526020019081526020015f205f8561ffff1661ffff1681526020019081526020015f205f0160199054906101000a900461ffff1661ffff16145b156109835761097e85848461186c565b6109b5565b6040517f5238a39700000000000000000000000000000000000000000000000000000000815260040160405180910390fd5b5b5b60015f600201601c6101000a81548160ff021916908360ff1602179055505050505050565b815f806008015f8373ffffffffffffffffffffffffffffffffffffffff1673ffffffffffffffffffffffffffffffffffffffff1681526020019081526020015f205f01601f9054906101000a900460ff1660ff1603610a67576040517fc891add200000000000000000000000000000000000000000000000000000000815260040160405180910390fd5b600260ff165f600201601c9054906101000a900460ff1660ff1603610ab8576040517f37ed32e800000000000000000000000000000000000000000000000000000000815260040160405180910390fd5b60025f600201601c6101000a81548160ff021916908360ff1602179055505f80600b015f8573ffffffffffffffffffffffffffffffffffffffff1673ffffffffffffffffffffffffffffffffffffffff1681526020019081526020015f205f8461ffff1661ffff1681526020019081526020015f209050806001015f9054906101000a900473ffffffffffffffffffffffffffffffffffffffff1673ffffffffffffffffffffffffffffffffffffffff163373ffffffffffffffffffffffffffffffffffffffff1614610bb7576040517f30cd747100000000000000000000000000000000000000000000000000000000815260040160405180910390fd5b610bc1848461190b565b5060015f600201601c6101000a81548160ff021916908360ff160217905550505050565b5f610bee611b41565b90505f81600c015f8573ffffffffffffffffffffffffffffffffffffffff1673ffffffffffffffffffffffffffffffffffffffff1681526020019081526020015f205f8461ffff1661ffff1681526020019081526020015f2090505f815f01601b9054906101000a900460ff16905060066007811115610c7157610c70613103565b5b816007811115610c8457610c83613103565b5b1480610cb35750600780811115610c9e57610c9d613103565b5b816007811115610cb157610cb0613103565b5b145b15610cea576040517f03f7cd9200000000000000000000000000000000000000000000000000000000815260040160405180910390fd5b5f610d82610d098460010160159054906101000a900461ffff16611b45565b610d67855f01600b9054906101000a900469ffffffffffffffffffff1669ffffffffffffffffffff16865f015f9054906101000a90046affffffffffffffffffffff166affffffffffffffffffffff16611b7190919063ffffffff16565b6affffffffffffffffffffff16611b7190919063ffffffff16565b90505f846008015f8873ffffffffffffffffffffffffffffffffffffffff1673ffffffffffffffffffffffffffffffffffffffff1681526020019081526020015f2090505f815f01601f9054906101000a900460ff1660ff1690505f8560010160179054906101000a900460ff1690505f866001015f9054906101000a900473ffffffffffffffffffffffffffffffffffffffff1690505f88600d015f8c73ffffffffffffffffffffffffffffffffffffffff1673ffffffffffffffffffffffffffffffffffffffff1681526020019081526020015f205f8373ffffffffffffffffffffffffffffffffffffffff1673ffffffffffffffffffffffffffffffffffffffff1681526020019081526020015f205f8460ff1660ff1681526020019081526020015f209050600280811115610ebe57610ebd613103565b5b816001015f9054906101000a900460ff166002811115610ee157610ee0613103565b5b03610ef657610ef18b8385611bdd565b611275565b5f610f008c6120a9565b9050806affffffffffffffffffffff16825f01600b9054906101000a90046affffffffffffffffffffff166affffffffffffffffffffff161015611246575f825f01600b9054906101000a90046affffffffffffffffffffff1682610f659190613173565b90505f8b6005015f8881526020019081526020015f2090505f610ffc610f9c8d60010160159054906101000a900461ffff16611b45565b610fe1856affffffffffffffffffffff168f5f01600b9054906101000a900469ffffffffffffffffffff1669ffffffffffffffffffff1661212590919063ffffffff16565b6affffffffffffffffffffff16611b7190919063ffffffff16565b90506110408f8789600185888f60010160099054906101000a900467ffffffffffffffff16895f0160169054906101000a900469ffffffffffffffffffff1661218e565b80825f015f8282829054906101000a90046affffffffffffffffffffff1661106891906131b1565b92506101000a8154816affffffffffffffffffffff02191690836affffffffffffffffffffff16021790555080895f01600d8282829054906101000a90046affffffffffffffffffffff166110bd91906131b1565b92506101000a8154816affffffffffffffffffffff02191690836affffffffffffffffffffff160217905550826affffffffffffffffffffff16895f015f8282829054906101000a90046cffffffffffffffffffffffffff166111209190613207565b92506101000a8154816cffffffffffffffffffffffffff02191690836cffffffffffffffffffffffffff160217905550808a61115c9190613173565b99505050806affffffffffffffffffffff168b6009015f8f73ffffffffffffffffffffffffffffffffffffffff1673ffffffffffffffffffffffffffffffffffffffff1681526020019081526020015f205f8673ffffffffffffffffffffffffffffffffffffffff1673ffffffffffffffffffffffffffffffffffffffff1681526020019081526020015f205f015f8282829054906101000a90046cffffffffffffffffffffffffff166112109190613207565b92506101000a8154816cffffffffffffffffffffffffff02191690836cffffffffffffffffffffffffff16021790555050611273565b6001826001015f6101000a81548160ff0219169083600281111561126d5761126c613103565b5b02179055505b505b85896007015f8681526020019081526020015f205f8473ffffffffffffffffffffffffffffffffffffffff1673ffffffffffffffffffffffffffffffffffffffff1681526020019081526020015f205f015f8282829054906101000a90046affffffffffffffffffffff166112ea91906131b1565b92506101000a8154816affffffffffffffffffffff02191690836affffffffffffffffffffff160217905550845f0160189054906101000a900461ffff1661ffff168a61ffff160361144b575f6113408c6123f8565b69ffffffffffffffffffff1690505f8a600c015f8e73ffffffffffffffffffffffffffffffffffffffff1673ffffffffffffffffffffffffffffffffffffffff1681526020019081526020015f205f8b5f0160159054906101000a900461ffff1661ffff1661ffff1681526020019081526020015f205f01600b9054906101000a900469ffffffffffffffffffff1669ffffffffffffffffffff16905081811061141857895f0160159054906101000a900461ffff16875f0160186101000a81548161ffff021916908361ffff160217905550611448565b895f0160199054906101000a900461ffff16875f0160186101000a81548161ffff021916908361ffff1602179055505b50505b61145989600c018c8c61247b565b5050505050505050505050565b5f61146f611b41565b90505f81600a015f8573ffffffffffffffffffffffffffffffffffffffff1673ffffffffffffffffffffffffffffffffffffffff1681526020019081526020015f205f8461ffff1661ffff1681526020019081526020015f2090505f815f01601b9054906101000a900460ff169050600660078111156114f2576114f1613103565b5b81600781111561150557611504613103565b5b1480611534575060078081111561151f5761151e613103565b5b81600781111561153257611531613103565b5b145b1561156b576040517f03f7cd9200000000000000000000000000000000000000000000000000000000815260040160405180910390fd5b5f836008015f8773ffffffffffffffffffffffffffffffffffffffff1673ffffffffffffffffffffffffffffffffffffffff1681526020019081526020015f205f01601f9054906101000a900460ff1660ff1690505f61161f845f01600b9054906101000a900469ffffffffffffffffffff1669ffffffffffffffffffff16855f015f9054906101000a90046affffffffffffffffffffff166affffffffffffffffffffff16611b7190919063ffffffff16565b905080856007015f8481526020019081526020015f205f866001015f9054906101000a900473ffffffffffffffffffffffffffffffffffffffff1673ffffffffffffffffffffffffffffffffffffffff1673ffffffffffffffffffffffffffffffffffffffff1681526020019081526020015f205f015f8282829054906101000a90046affffffffffffffffffffff166116b991906131b1565b92506101000a8154816affffffffffffffffffffff02191690836affffffffffffffffffffff1602179055506116f385600a01888861247b565b50505050505050565b5f611705612825565b60030160029054906101000a900473ffffffffffffffffffffffffffffffffffffffff16905090565b5f808390505f5b8361ffff168160ff1610156117c5575f600a015f8773ffffffffffffffffffffffffffffffffffffffff1673ffffffffffffffffffffffffffffffffffffffff1681526020019081526020015f205f8361ffff1661ffff1681526020019081526020015f205f0160159054906101000a900461ffff1692506117b78683611466565b829150806001019050611735565b505050505050565b5f808390505f5b8361ffff168160ff161015611864575f600b015f8773ffffffffffffffffffffffffffffffffffffffff1673ffffffffffffffffffffffffffffffffffffffff1681526020019081526020015f205f8361ffff1661ffff1681526020019081526020015f205f0160159054906101000a900461ffff169250611856868361190b565b8291508060010190506117d4565b505050505050565b5f808390505f5b8361ffff168160ff161015611903575f600c015f8773ffffffffffffffffffffffffffffffffffffffff1673ffffffffffffffffffffffffffffffffffffffff1681526020019081526020015f205f8361ffff1661ffff1681526020019081526020015f205f0160159054906101000a900461ffff1692506118f58683610be5565b829150806001019050611873565b505050505050565b5f611914611b41565b90505f81600b015f8573ffffffffffffffffffffffffffffffffffffffff1673ffffffffffffffffffffffffffffffffffffffff1681526020019081526020015f205f8461ffff1661ffff1681526020019081526020015f2090505f815f01601b9054906101000a900460ff1690506006600781111561199757611996613103565b5b8160078111156119aa576119a9613103565b5b14806119d957506007808111156119c4576119c3613103565b5b8160078111156119d7576119d6613103565b5b145b15611a10576040517f03f7cd9200000000000000000000000000000000000000000000000000000000815260040160405180910390fd5b815f015f9054906101000a90046affffffffffffffffffffff166affffffffffffffffffffff16836009015f8773ffffffffffffffffffffffffffffffffffffffff1673ffffffffffffffffffffffffffffffffffffffff1681526020019081526020015f205f846001015f9054906101000a900473ffffffffffffffffffffffffffffffffffffffff1673ffffffffffffffffffffffffffffffffffffffff1673ffffffffffffffffffffffffffffffffffffffff1681526020019081526020015f205f015f8282829054906101000a90046cffffffffffffffffffffffffff16611afc9190613207565b92506101000a8154816cffffffffffffffffffffffffff02191690836cffffffffffffffffffffffffff160217905550611b3a83600b01868661247b565b5050505050565b5f90565b5f6064670de0b6b3a76400008361ffff16611b609190613250565b611b6a91906132be565b9050919050565b5f80611b8a846affffffffffffffffffffff1684612851565b90506affffffffffffffffffffff8016811115611bd3576040517f2c5211c600000000000000000000000000000000000000000000000000000000815260040160405180910390fd5b8091505092915050565b5f611be6611b41565b90505f81600d015f8673ffffffffffffffffffffffffffffffffffffffff1673ffffffffffffffffffffffffffffffffffffffff1681526020019081526020015f205f8573ffffffffffffffffffffffffffffffffffffffff1673ffffffffffffffffffffffffffffffffffffffff1681526020019081526020015f205f8460ff1660ff1681526020019081526020015f2090505f6002811115611c8d57611c8c613103565b5b816001015f9054906101000a900460ff166002811115611cb057611caf613103565b5b14612076578060010160039054906101000a900460ff1682600d015f8773ffffffffffffffffffffffffffffffffffffffff1673ffffffffffffffffffffffffffffffffffffffff1681526020019081526020015f205f8673ffffffffffffffffffffffffffffffffffffffff1673ffffffffffffffffffffffffffffffffffffffff1681526020019081526020015f205f8360010160019054906101000a900460ff1660ff1660ff1681526020019081526020015f2060010160036101000a81548160ff021916908360ff160217905550600160ff168160010160039054906101000a900460ff1660ff1614611e6f578060010160019054906101000a900460ff1682600d015f8773ffffffffffffffffffffffffffffffffffffffff1673ffffffffffffffffffffffffffffffffffffffff1681526020019081526020015f205f8673ffffffffffffffffffffffffffffffffffffffff1673ffffffffffffffffffffffffffffffffffffffff1681526020019081526020015f205f8360010160039054906101000a900460ff1660ff1660ff1681526020019081526020015f2060010160016101000a81548160ff021916908360ff1602179055505b5f82600d015f8773ffffffffffffffffffffffffffffffffffffffff1673ffffffffffffffffffffffffffffffffffffffff1681526020019081526020015f205f8673ffffffffffffffffffffffffffffffffffffffff1673ffffffffffffffffffffffffffffffffffffffff1681526020019081526020015f205f600160ff1660ff1681526020019081526020015f2060010160019054906101000a900460ff1690508383600d015f8873ffffffffffffffffffffffffffffffffffffffff1673ffffffffffffffffffffffffffffffffffffffff1681526020019081526020015f205f8773ffffffffffffffffffffffffffffffffffffffff1673ffffffffffffffffffffffffffffffffffffffff1681526020019081526020015f205f600160ff1660ff1681526020019081526020015f2060010160016101000a81548160ff021916908360ff160217905550600160ff168160ff161115611ff057808260010160016101000a81548160ff021916908360ff16021790555061200f565b60018260010160016101000a81548160ff021916908360ff1602179055505b8473ffffffffffffffffffffffffffffffffffffffff168673ffffffffffffffffffffffffffffffffffffffff167f308fabf328a16a122870d17bc942c7d1030c9f3f3eb3bd0d0139bbc75e705a358660405161206c9190613333565b60405180910390a3505b6002816001015f6101000a81548160ff0219169083600281111561209d5761209c613103565b5b02179055505050505050565b5f806120b3611b41565b9050670de0b6b3a7640000816008015f8573ffffffffffffffffffffffffffffffffffffffff1673ffffffffffffffffffffffffffffffffffffffff1681526020019081526020015f2060010160029054906101000a900461ffff1661ffff1661211d9190613250565b915050919050565b5f8061213d8469ffffffffffffffffffff1684612851565b905069ffffffffffffffffffff8016811115612184576040517ebfc92100000000000000000000000000000000000000000000000000000000815260040160405180910390fd5b8091505092915050565b5f612197611b41565b90505f81600d015f8b73ffffffffffffffffffffffffffffffffffffffff1673ffffffffffffffffffffffffffffffffffffffff1681526020019081526020015f205f8a73ffffffffffffffffffffffffffffffffffffffff1673ffffffffffffffffffffffffffffffffffffffff1681526020019081526020015f205f8960ff1660ff1681526020019081526020015f20905060028081111561223e5761223d613103565b5b816001015f9054906101000a900460ff16600281111561226157612260613103565b5b0361234d5784815f01600b6101000a8154816affffffffffffffffffffff02191690836affffffffffffffffffffff160217905550838160010160046101000a81548167ffffffffffffffff021916908367ffffffffffffffff16021790555085815f015f6101000a8154816affffffffffffffffffffff02191690836affffffffffffffffffffff16021790555082815f0160166101000a81548169ffffffffffffffffffff021916908369ffffffffffffffffffff160217905550612326612936565b81600101600c6101000a81548163ffffffff021916908363ffffffff1602179055506123c1565b5f6123788567ffffffffffffffff16876affffffffffffffffffffff1661294c90919063ffffffff16565b90505f6123a78569ffffffffffffffffffff16896affffffffffffffffffffff1661294c90919063ffffffff16565b90506123be8388848b856123b9612936565b61296c565b50505b86816001015f6101000a81548160ff021916908360028111156123e7576123e6613103565b5b021790555050505050505050505050565b5f80612402611b41565b905080600a015f8473ffffffffffffffffffffffffffffffffffffffff1673ffffffffffffffffffffffffffffffffffffffff1681526020019081526020015f205f600160ff1661ffff1681526020019081526020015f205f015f9054906101000a90046affffffffffffffffffffff16915050919050565b5f835f8473ffffffffffffffffffffffffffffffffffffffff1673ffffffffffffffffffffffffffffffffffffffff1681526020019081526020015f205f600160ff1661ffff1681526020019081526020015f205f0160159054906101000a900461ffff169050835f8473ffffffffffffffffffffffffffffffffffffffff1673ffffffffffffffffffffffffffffffffffffffff1681526020019081526020015f205f8361ffff1661ffff1681526020019081526020015f205f0160159054906101000a900461ffff16845f8573ffffffffffffffffffffffffffffffffffffffff1673ffffffffffffffffffffffffffffffffffffffff1681526020019081526020015f205f865f8773ffffffffffffffffffffffffffffffffffffffff1673ffffffffffffffffffffffffffffffffffffffff1681526020019081526020015f205f8661ffff1661ffff1681526020019081526020015f205f0160199054906101000a900461ffff1661ffff1661ffff1681526020019081526020015f205f0160156101000a81548161ffff021916908361ffff160217905550835f8473ffffffffffffffffffffffffffffffffffffffff1673ffffffffffffffffffffffffffffffffffffffff1681526020019081526020015f205f8361ffff1661ffff1681526020019081526020015f205f0160199054906101000a900461ffff16845f8573ffffffffffffffffffffffffffffffffffffffff1673ffffffffffffffffffffffffffffffffffffffff1681526020019081526020015f205f865f8773ffffffffffffffffffffffffffffffffffffffff1673ffffffffffffffffffffffffffffffffffffffff1681526020019081526020015f205f8661ffff1661ffff1681526020019081526020015f205f0160159054906101000a900461ffff1661ffff1661ffff1681526020019081526020015f205f0160196101000a81548161ffff021916908361ffff160217905550835f8473ffffffffffffffffffffffffffffffffffffffff1673ffffffffffffffffffffffffffffffffffffffff1681526020019081526020015f205f8361ffff1661ffff1681526020019081526020015f205f01601b9054906101000a900460ff1660078111156127c3576127c2613103565b5b8373ffffffffffffffffffffffffffffffffffffffff167f2097d5c49cf7ba09a2520b6b807629746c2527783ac92cac69d88e846c7f33f584604051612809919061335b565b60405180910390a361281f848484846006612bde565b50505050565b5f807fc8fcad8db84d3cc18b4c41d551ea0ee66dd599cde068d998e57d5e09332c131c90508091505090565b5f805f80198486098486029250828110838203039150505f810361289157670de0b6b3a7640000828161288757612886613291565b5b0492505050612930565b670de0b6b3a764000081106128df5784846040517f5173648d0000000000000000000000000000000000000000000000000000000081526004016128d6929190613383565b60405180910390fd5b5f670de0b6b3a764000085870990507faccb18165bd6fe31ae1cf318dc5b51eee0e1ba569b88cd74c1773b91fac10669600162040000805f0304018483118403026204000083860304170293505050505b92915050565b5f6362f6fc654261294791906133aa565b905090565b5f612964836affffffffffffffffffffff1683612851565b905092915050565b6129c88660010160049054906101000a900467ffffffffffffffff1667ffffffffffffffff16875f01600b9054906101000a90046affffffffffffffffffffff166affffffffffffffffffffff1661294c90919063ffffffff16565b846129d391906133dd565b935084865f01600b8282829054906101000a90046affffffffffffffffffffff166129fe91906131b1565b92506101000a8154816affffffffffffffffffffff02191690836affffffffffffffffffffff160217905550612a64865f01600b9054906101000a90046affffffffffffffffffffff166affffffffffffffffffffff1685612dcb90919063ffffffff16565b8660010160046101000a81548167ffffffffffffffff021916908367ffffffffffffffff160217905550612aec865f0160169054906101000a900469ffffffffffffffffffff1669ffffffffffffffffffff16875f015f9054906101000a90046affffffffffffffffffffff166affffffffffffffffffffff1661294c90919063ffffffff16565b82612af791906133dd565b915082865f015f8282829054906101000a90046affffffffffffffffffffff16612b2191906131b1565b92506101000a8154816affffffffffffffffffffff02191690836affffffffffffffffffffff160217905550612b86865f015f9054906101000a90046affffffffffffffffffffff166affffffffffffffffffffff1683612e3090919063ffffffff16565b865f0160166101000a81548169ffffffffffffffffffff021916908369ffffffffffffffffffff1602179055508086600101600c6101000a81548163ffffffff021916908363ffffffff160217905550505050505050565b80855f8673ffffffffffffffffffffffffffffffffffffffff1673ffffffffffffffffffffffffffffffffffffffff1681526020019081526020015f205f8561ffff1661ffff1681526020019081526020015f205f01601b6101000a81548160ff02191690836007811115612c5657612c55613103565b5b021790555082855f8673ffffffffffffffffffffffffffffffffffffffff1673ffffffffffffffffffffffffffffffffffffffff1681526020019081526020015f205f600160ff1661ffff1681526020019081526020015f205f0160156101000a81548161ffff021916908361ffff160217905550600160ff168261ffff1614612d4f5781855f8673ffffffffffffffffffffffffffffffffffffffff1673ffffffffffffffffffffffffffffffffffffffff1681526020019081526020015f205f8561ffff1661ffff1681526020019081526020015f205f0160156101000a81548161ffff021916908361ffff160217905550612dc4565b600160ff16855f8673ffffffffffffffffffffffffffffffffffffffff1673ffffffffffffffffffffffffffffffffffffffff1681526020019081526020015f205f8561ffff1661ffff1681526020019081526020015f205f0160156101000a81548161ffff021916908361ffff1602179055505b5050505050565b5f80612de084670de0b6b3a764000085612e97565b905067ffffffffffffffff8016811115612e26576040517f2c5211c600000000000000000000000000000000000000000000000000000000815260040160405180910390fd5b8091505092915050565b5f80612e4584670de0b6b3a764000085612e97565b905069ffffffffffffffffffff8016811115612e8d576040517f2c5211c600000000000000000000000000000000000000000000000000000000815260040160405180910390fd5b8091505092915050565b5f805f80198587098587029250828110838203039150505f8103612ecf57838281612ec557612ec4613291565b5b0492505050612fa2565b838110612f17578585856040517f63a05778000000000000000000000000000000000000000000000000000000008152600401612f0e93929190613410565b60405180910390fd5b5f8486880990508281118203915080830392505f6001861901861690505f81870496508185049450600182835f0304019050808402851794505f60028860030218905080880260020381029050808802600203810290508088026002038102905080880260020381029050808802600203810290508088026002038102905080860296505050505050505b9392505050565b5f80fd5b5f73ffffffffffffffffffffffffffffffffffffffff82169050919050565b5f612fd682612fad565b9050919050565b612fe681612fcc565b8114612ff0575f80fd5b50565b5f8135905061300181612fdd565b92915050565b5f61ffff82169050919050565b61301d81613007565b8114613027575f80fd5b50565b5f8135905061303881613014565b92915050565b5f806040838503121561305457613053612fa9565b5b5f61306185828601612ff3565b92505060206130728582860161302a565b9150509250929050565b60088110613088575f80fd5b50565b5f813590506130998161307c565b92915050565b5f805f80608085870312156130b7576130b6612fa9565b5b5f6130c487828801612ff3565b94505060206130d58782880161308b565b93505060406130e68782880161302a565b92505060606130f78782880161302a565b91505092959194509250565b7f4e487b71000000000000000000000000000000000000000000000000000000005f52602160045260245ffd5b5f6affffffffffffffffffffff82169050919050565b7f4e487b71000000000000000000000000000000000000000000000000000000005f52601160045260245ffd5b5f61317d82613130565b915061318883613130565b925082820390506affffffffffffffffffffff8111156131ab576131aa613146565b5b92915050565b5f6131bb82613130565b91506131c683613130565b925082820190506affffffffffffffffffffff8111156131e9576131e8613146565b5b92915050565b5f6cffffffffffffffffffffffffff82169050919050565b5f613211826131ef565b915061321c836131ef565b925082820190506cffffffffffffffffffffffffff81111561324157613240613146565b5b92915050565b5f819050919050565b5f61325a82613247565b915061326583613247565b925082820261327381613247565b9150828204841483151761328a57613289613146565b5b5092915050565b7f4e487b71000000000000000000000000000000000000000000000000000000005f52601260045260245ffd5b5f6132c882613247565b91506132d383613247565b9250826132e3576132e2613291565b5b828204905092915050565b5f60ff82169050919050565b5f819050919050565b5f61331d613318613313846132ee565b6132fa565b613007565b9050919050565b61332d81613303565b82525050565b5f6020820190506133465f830184613324565b92915050565b61335581613007565b82525050565b5f60208201905061336e5f83018461334c565b92915050565b61337d81613247565b82525050565b5f6040820190506133965f830185613374565b6133a36020830184613374565b9392505050565b5f6133b482613247565b91506133bf83613247565b92508282039050818111156133d7576133d6613146565b5b92915050565b5f6133e782613247565b91506133f283613247565b925082820190508082111561340a57613409613146565b5b92915050565b5f6060820190506134235f830186613374565b6134306020830185613374565b61343d6040830184613374565b94935050505056fea26469706673582212204532a4b4ec16b75b1cb457a8970b57ce866b368f067a1ae69f4d18b8db1ba5ef64736f6c63430008150033","linkReferences":{}},"methodIdentifiers":{"cancelAsk(address,uint16)":"e2c068db","cancelBid(address,uint16)":"36cee7b9","cancelOrderFarFromOracle(address,uint8,uint16,uint16)":"9421590b","cancelShort(address,uint16)":"2af639cd"},"id":13}