{"abi":[{"type":"constructor","inputs":[{"name":"_dusd","type":"address","internalType":"address"}],"stateMutability":"nonpayable"},{"type":"function","name":"liquidate","inputs":[{"name":"asset","type":"address","internalType":"address"},{"name":"shorter","type":"address","internalType":"address"},{"name":"id","type":"uint8","internalType":"uint8"},{"name":"shortHintArray","type":"uint16[]","internalType":"uint16[]"},{"name":"shortOrderId","type":"uint16","internalType":"uint16"}],"outputs":[{"name":"","type":"uint88","internalType":"uint88"},{"name":"","type":"uint88","internalType":"uint88"}],"stateMutability":"nonpayable"},{"type":"event","name":"CancelOrder","inputs":[{"name":"asset","type":"address","indexed":true,"internalType":"address"},{"name":"orderId","type":"uint16","indexed":false,"internalType":"uint16"},{"name":"orderType","type":"uint8","indexed":true,"internalType":"enum O"}],"anonymous":false},{"type":"event","name":"DeleteShortRecord","inputs":[{"name":"asset","type":"address","indexed":true,"internalType":"address"},{"name":"user","type":"address","indexed":true,"internalType":"address"},{"name":"srId","type":"uint16","indexed":false,"internalType":"uint16"}],"anonymous":false},{"type":"event","name":"Liquidate","inputs":[{"name":"asset","type":"address","indexed":true,"internalType":"address"},{"name":"shorter","type":"address","indexed":true,"internalType":"address"},{"name":"srId","type":"uint8","indexed":false,"internalType":"uint8"},{"name":"caller","type":"address","indexed":true,"internalType":"address"},{"name":"amount","type":"uint256","indexed":false,"internalType":"uint256"}],"anonymous":false},{"type":"error","name":"AssetIsFrozen","inputs":[]},{"type":"error","name":"BadShortHint","inputs":[]},{"type":"error","name":"CannotLeaveDustAmount","inputs":[]},{"type":"error","name":"CannotLiquidateSelf","inputs":[]},{"type":"error","name":"CannotSocializeDebt","inputs":[]},{"type":"error","name":"InsufficientEthInLiquidityPool","inputs":[]},{"type":"error","name":"InvalidAmount","inputs":[]},{"type":"error","name":"InvalidAsset","inputs":[]},{"type":"error","name":"InvalidPrice","inputs":[]},{"type":"error","name":"InvalidShortId","inputs":[]},{"type":"error","name":"InvalidShortOrder","inputs":[]},{"type":"error","name":"InvalidTwapPrice","inputs":[]},{"type":"error","name":"NoSells","inputs":[]},{"type":"error","name":"NotActiveOrder","inputs":[]},{"type":"error","name":"PRBMath_MulDiv18_Overflow","inputs":[{"name":"x","type":"uint256","internalType":"uint256"},{"name":"y","type":"uint256","internalType":"uint256"}]},{"type":"error","name":"PRBMath_MulDiv_Overflow","inputs":[{"name":"x","type":"uint256","internalType":"uint256"},{"name":"y","type":"uint256","internalType":"uint256"},{"name":"denominator","type":"uint256","internalType":"uint256"}]},{"type":"error","name":"ReentrantCall","inputs":[]},{"type":"error","name":"SufficientCollateral","inputs":[]},{"type":"error","name":"TooManyHints","inputs":[]}],"bytecode":{"object":"0x60a060405234801562000010575f80fd5b5060405162006ac938038062006ac98339818101604052810190620000369190620000d6565b8073ffffffffffffffffffffffffffffffffffffffff1660808173ffffffffffffffffffffffffffffffffffffffff16815250505062000106565b5f80fd5b5f73ffffffffffffffffffffffffffffffffffffffff82169050919050565b5f620000a08262000075565b9050919050565b620000b28162000094565b8114620000bd575f80fd5b50565b5f81519050620000d081620000a7565b92915050565b5f60208284031215620000ee57620000ed62000071565b5b5f620000fd84828501620000c0565b91505092915050565b6080516169ad6200011c5f395f50506169ad5ff3fe608060405234801561000f575f80fd5b5060043610610029575f3560e01c8063875ba4f31461002d575b5f80fd5b61004760048036038101906100429190615f67565b61005e565b60405161005592919061601f565b60405180910390f35b5f80865f600181111561007457610073616046565b5b5f6008015f8373ffffffffffffffffffffffffffffffffffffffff1673ffffffffffffffffffffffffffffffffffffffff1681526020019081526020015f205f01601e9054906101000a900460ff1660018111156100d5576100d4616046565b5b1461010c576040517f0e27a3f700000000000000000000000000000000000000000000000000000000815260040160405180910390fd5b600260ff165f600201601c9054906101000a900460ff1660ff160361015d576040517f37ed32e800000000000000000000000000000000000000000000000000000000815260040160405180910390fd5b60025f600201601c6101000a81548160ff021916908360ff160217905550878787610189838383610444565b508973ffffffffffffffffffffffffffffffffffffffff163373ffffffffffffffffffffffffffffffffffffffff16036101ef576040517f1b4e5afc00000000000000000000000000000000000000000000000000000000815260040160405180910390fd5b600a8851111561022b576040517f0f74fb1d00000000000000000000000000000000000000000000000000000000815260040160405180910390fd5b6102d68b5f600d015f8e73ffffffffffffffffffffffffffffffffffffffff1673ffffffffffffffffffffffffffffffffffffffff1681526020019081526020015f205f8d73ffffffffffffffffffffffffffffffffffffffff1673ffffffffffffffffffffffffffffffffffffffff1681526020019081526020015f205f8c60ff1660ff1681526020019081526020015f206001015f9054906101000a900460ff16898c8e61057c565b506102e18b89610832565b5f6102ee8c8c8c8b61086f565b90506102fc815f0151610d12565b8160a001511061035f57610328815f01518260a001518360c0015169ffffffffffffffffffff16610d9a565b61035e576040517f67fdb0cb00000000000000000000000000000000000000000000000000000000815260040160405180910390fd5b5b61036881610eca565b610372818a611120565b61037b8161178c565b61038481611ad3565b3373ffffffffffffffffffffffffffffffffffffffff168b73ffffffffffffffffffffffffffffffffffffffff168d73ffffffffffffffffffffffffffffffffffffffff167f722f38b9cea5a34d120f6e632ef23b3af26b672778f87a4af045dd65278eff1f8d8561014001516040516103ff9291906160c4565b60405180910390a4806101c00151816101200151965096505050505060015f600201601c6101000a81548160ff021916908360ff160217905550509550959350505050565b5f80600d015f8573ffffffffffffffffffffffffffffffffffffffff1673ffffffffffffffffffffffffffffffffffffffff1681526020019081526020015f205f8473ffffffffffffffffffffffffffffffffffffffff1673ffffffffffffffffffffffffffffffffffffffff1681526020019081526020015f205f8360ff1660ff1681526020019081526020015f2090506002808111156104e9576104e8616046565b5b816001015f9054906101000a900460ff16600281111561050c5761050b616046565b5b148061053e57505f815f01600b9054906101000a90046affffffffffffffffffffff166affffffffffffffffffffff16145b15610575576040517fff472cb600000000000000000000000000000000000000000000000000000000815260040160405180910390fd5b9392505050565b5f806105866121d2565b90505f600281111561059b5761059a616046565b5b8660028111156105ae576105ad616046565b5b03610827575f81600c015f8973ffffffffffffffffffffffffffffffffffffffff1673ffffffffffffffffffffffffffffffffffffffff1681526020019081526020015f205f8761ffff1661ffff1681526020019081526020015f2090505f82600d015f8a73ffffffffffffffffffffffffffffffffffffffff1673ffffffffffffffffffffffffffffffffffffffff1681526020019081526020015f205f8673ffffffffffffffffffffffffffffffffffffffff1673ffffffffffffffffffffffffffffffffffffffff1681526020019081526020015f205f8760ff1660ff1681526020019081526020015f2090508560ff168260010160179054906101000a900460ff1660ff1614158061071357508473ffffffffffffffffffffffffffffffffffffffff16826001015f9054906101000a900473ffffffffffffffffffffffffffffffffffffffff1673ffffffffffffffffffffffffffffffffffffffff1614155b1561074a576040517f67b262cb00000000000000000000000000000000000000000000000000000000815260040160405180910390fd5b3373ffffffffffffffffffffffffffffffffffffffff168573ffffffffffffffffffffffffffffffffffffffff16036107d75761078789886121d6565b5f600281111561079a57610799616046565b5b816001015f9054906101000a900460ff1660028111156107bd576107bc616046565b5b036107cb576107ca6160eb565b5b60019350505050610829565b6107e089612a57565b815f01600b9054906101000a90046affffffffffffffffffffff166affffffffffffffffffffff1610156108245761081889886121d6565b60019350505050610829565b50505b505b95945050505050565b5f61083c83612ad3565b610844612b56565b63ffffffff166108549190616145565b9050610384811061086a576108698383612b6c565b5b505050565b610877615bb2565b610882858585613041565b61088a615bb2565b85815f019073ffffffffffffffffffffffffffffffffffffffff16908173ffffffffffffffffffffffffffffffffffffffff16815250505f600d015f8773ffffffffffffffffffffffffffffffffffffffff1673ffffffffffffffffffffffffffffffffffffffff1681526020019081526020015f205f8673ffffffffffffffffffffffffffffffffffffffff1673ffffffffffffffffffffffffffffffffffffffff1681526020019081526020015f205f8560ff1660ff1681526020019081526020015f20604051806101400160405290815f82015f9054906101000a90046affffffffffffffffffffff166affffffffffffffffffffff166affffffffffffffffffffff1681526020015f8201600b9054906101000a90046affffffffffffffffffffff166affffffffffffffffffffff166affffffffffffffffffffff1681526020015f820160169054906101000a900469ffffffffffffffffffff1669ffffffffffffffffffff1669ffffffffffffffffffff168152602001600182015f9054906101000a900460ff166002811115610a2a57610a29616046565b5b6002811115610a3c57610a3b616046565b5b81526020016001820160019054906101000a900460ff1660ff1660ff1681526020016001820160029054906101000a900460ff1660ff1660ff1681526020016001820160039054906101000a900460ff1660ff1660ff1681526020016001820160049054906101000a900467ffffffffffffffff1667ffffffffffffffff1667ffffffffffffffff16815260200160018201600c9054906101000a900463ffffffff1663ffffffff1663ffffffff1681526020016001820160109054906101000a900464ffffffffff1664ffffffffff1664ffffffffff1681525050816040018190525082816060019061ffff16908161ffff16815250505f6008015f8773ffffffffffffffffffffffffffffffffffffffff1673ffffffffffffffffffffffffffffffffffffffff1681526020019081526020015f205f01601f9054906101000a900460ff1660ff1681602001818152505084816080019073ffffffffffffffffffffffffffffffffffffffff16908173ffffffffffffffffffffffffffffffffffffffff1681525050610bd086613241565b81610200018181525050610be3866132c7565b8160c0019069ffffffffffffffffffff16908169ffffffffffffffffffff1681525050610c2d8160c0015169ffffffffffffffffffff16826040015161334a90919063ffffffff16565b8160a0018181525050610c3f86613399565b8160e0018181525050610c54815f015161341f565b816101a0018181525050610c6a815f01516134a6565b81610180018181525050610cfc816101a00151826101800151670de0b6b3a7640000610c969190616178565b610ca09190616178565b610cee8360e00151610ce08560c0015169ffffffffffffffffffff168660400151602001516affffffffffffffffffffff1661352d90919063ffffffff16565b61354d90919063ffffffff16565b61354d90919063ffffffff16565b8161010001818152505080915050949350505050565b5f80610d1c6121d2565b90506064670de0b6b3a7640000826008015f8673ffffffffffffffffffffffffffffffffffffffff1673ffffffffffffffffffffffffffffffffffffffff1681526020019081526020015f2060010160119054906101000a900461ffff1661ffff16610d8891906161ab565b610d929190616219565b915050919050565b5f80610da46121d2565b90505f610db086613560565b905080851015610ec0575f826008015f8873ffffffffffffffffffffffffffffffffffffffff1673ffffffffffffffffffffffffffffffffffffffff1681526020019081526020015f2090505f815f015f9054906101000a90046cffffffffffffffffffffffffff166cffffffffffffffffffffffffff161115610ebe575f610ea5610e6f835f015f9054906101000a90046cffffffffffffffffffffffffff166cffffffffffffffffffffffffff168861354d90919063ffffffff16565b835f01600d9054906101000a90046affffffffffffffffffffff166affffffffffffffffffffff166135e690919063ffffffff16565b905082811015610ebc576001945050505050610ec3565b505b505b50505b9392505050565b5f80600b015f835f015173ffffffffffffffffffffffffffffffffffffffff1673ffffffffffffffffffffffffffffffffffffffff1681526020019081526020015f205f600160ff1661ffff1681526020019081526020015f205f0160199054906101000a900461ffff1690505f806008015f845f015173ffffffffffffffffffffffffffffffffffffffff1673ffffffffffffffffffffffffffffffffffffffff1681526020019081526020015f205f0160189054906101000a900461ffff1690505f610fb58460e001518560c0015169ffffffffffffffffffff1661360f90919063ffffffff16565b9050600160ff168361ffff1614806110495750805f600b015f865f015173ffffffffffffffffffffffffffffffffffffffff1673ffffffffffffffffffffffffffffffffffffffff1681526020019081526020015f205f8561ffff1661ffff1681526020019081526020015f205f01600b9054906101000a900469ffffffffffffffffffff1669ffffffffffffffffffff16115b80156110e35750600160ff168261ffff1614806110e25750805f600c015f865f015173ffffffffffffffffffffffffffffffffffffffff1673ffffffffffffffffffffffffffffffffffffffff1681526020019081526020015f205f8461ffff1661ffff1681526020019081526020015f205f01600b9054906101000a900469ffffffffffffffffffff1669ffffffffffffffffffff16115b5b1561111a576040517f7bf3198300000000000000000000000000000000000000000000000000000000815260040160405180910390fd5b50505050565b5f5a90505f8061114d8560e001518660c0015169ffffffffffffffffffff1661362e90919063ffffffff16565b90508461020001518560a001511115856101600190151590811515815250505f806007015f876020015181526020019081526020015f205f3073ffffffffffffffffffffffffffffffffffffffff1673ffffffffffffffffffffffffffffffffffffffff1681526020019081526020015f20905085604001515f0151815f015f8282829054906101000a90046affffffffffffffffffffff166111f09190616249565b92506101000a8154816affffffffffffffffffffff02191690836affffffffffffffffffffff160217905550856101000151815f015f9054906101000a90046affffffffffffffffffffff166affffffffffffffffffffff1610156114c0575f806008015f885f015173ffffffffffffffffffffffffffffffffffffffff1673ffffffffffffffffffffffffffffffffffffffff1681526020019081526020015f2090505f8760400151602001516affffffffffffffffffffff169050806bffffffffffffffffffffffff16825f015f9054906101000a90046cffffffffffffffffffffffffff166cffffffffffffffffffffffffff161161131e576040517f5491ad0500000000000000000000000000000000000000000000000000000000815260040160405180910390fd5b600188610160019015159081151581525050825f015f9054906101000a90046affffffffffffffffffffff166affffffffffffffffffffff16886101000181815250506113bf6113ab8961018001518a6101a00151670de0b6b3a76400006113869190616178565b6113909190616178565b8669ffffffffffffffffffff1661360f90919063ffffffff16565b89610100015161369790919063ffffffff16565b8860400151602001906affffffffffffffffffffff1690816affffffffffffffffffffff16815250505f8860400151602001516affffffffffffffffffffff168261140a919061629e565b9050611470826bffffffffffffffffffffffff16845f015f9054906101000a90046cffffffffffffffffffffffffff1661144491906162f5565b6cffffffffffffffffffffffffff16826bffffffffffffffffffffffff166136b390919063ffffffff16565b8360010160098282829054906101000a900467ffffffffffffffff166114969190616348565b92506101000a81548167ffffffffffffffff021916908367ffffffffffffffff1602179055505050505b3073ffffffffffffffffffffffffffffffffffffffff1663269010c530885f0151858a60400151602001518a6040518663ffffffff1660e01b815260040161150c95949392919061646d565b60408051808303815f875af1158015611527573d5f803e3d5ffd5b505050506040513d601f19601f8201168201806040525081019061154b91906164ef565b8761012001819550826affffffffffffffffffffff166affffffffffffffffffffff16815250505082866040015160200151611587919061652d565b8661014001906affffffffffffffffffffff1690816affffffffffffffffffffff16815250508561014001516affffffffffffffffffffff165f6009015f885f015173ffffffffffffffffffffffffffffffffffffffff1673ffffffffffffffffffffffffffffffffffffffff1681526020019081526020015f205f3073ffffffffffffffffffffffffffffffffffffffff1673ffffffffffffffffffffffffffffffffffffffff1681526020019081526020015f205f015f8282829054906101000a90046cffffffffffffffffffffffffff1661166591906162f5565b92506101000a8154816cffffffffffffffffffffffffff02191690836cffffffffffffffffffffffffff1602179055508561014001516affffffffffffffffffffff165f6008015f885f015173ffffffffffffffffffffffffffffffffffffffff1673ffffffffffffffffffffffffffffffffffffffff1681526020019081526020015f205f015f8282829054906101000a90046cffffffffffffffffffffffffff1661171291906162f5565b92506101000a8154816cffffffffffffffffffffffffff02191690836cffffffffffffffffffffffffff1602179055505f5a8561174f9190616145565b9050488161175d91906161ab565b876101c001906affffffffffffffffffffff1690816affffffffffffffffffffff168152505050505050505050565b5f806007015f836020015181526020019081526020015f205f3373ffffffffffffffffffffffffffffffffffffffff1673ffffffffffffffffffffffffffffffffffffffff1681526020019081526020015f2090505f806007015f846020015181526020019081526020015f205f3073ffffffffffffffffffffffffffffffffffffffff1673ffffffffffffffffffffffffffffffffffffffff1681526020019081526020015f2090505f6118618461018001518561012001516affffffffffffffffffffff1661372690919063ffffffff16565b90505f846101c00151611894866101a001518761012001516affffffffffffffffffffff1661372690919063ffffffff16565b61189e9190616249565b905080826118ac9190616249565b856101e0018181516118be9190616249565b9150906affffffffffffffffffffff1690816affffffffffffffffffffff1681525050806affffffffffffffffffffff16835f015f9054906101000a90046affffffffffffffffffffff166affffffffffffffffffffff16106119c85780835f015f8282829054906101000a90046affffffffffffffffffffff16611943919061652d565b92506101000a8154816affffffffffffffffffffff02191690836affffffffffffffffffffff16021790555080845f015f8282829054906101000a90046affffffffffffffffffffff166119979190616249565b92506101000a8154816affffffffffffffffffffff02191690836affffffffffffffffffffff160217905550611acc565b81856101c00151826119da919061652d565b6119e49190616249565b845f015f8282829054906101000a90046affffffffffffffffffffff16611a0b9190616249565b92506101000a8154816affffffffffffffffffffff02191690836affffffffffffffffffffff160217905550846101c00151856101e001818151611a4f919061652d565b9150906affffffffffffffffffffff1690816affffffffffffffffffffff1681525050846101e00151835f015f8282829054906101000a90046affffffffffffffffffffff16611a9f919061652d565b92506101000a8154816affffffffffffffffffffff02191690836affffffffffffffffffffff1602179055505b5050505050565b5f806007015f836020015181526020019081526020015f205f3073ffffffffffffffffffffffffffffffffffffffff1673ffffffffffffffffffffffffffffffffffffffff1681526020019081526020015f2090505f611b5c836101200151846101e00151611b429190616249565b6affffffffffffffffffffff1684604001515f0151613792565b90508261014001516affffffffffffffffffffff168360400151602001516affffffffffffffffffffff1603611d3157611bc4835f0151846080015185604001515f015186604001516040015169ffffffffffffffffffff16876040015161010001516137fe565b611bde835f01518460800151856040015160a00151613b04565b826101600151611d2c578083604001515f01818151611bfd919061652d565b9150906affffffffffffffffffffff1690816affffffffffffffffffffff168152505082604001515f01515f6007015f856020015181526020019081526020015f205f856080015173ffffffffffffffffffffffffffffffffffffffff1673ffffffffffffffffffffffffffffffffffffffff1681526020019081526020015f205f015f8282829054906101000a90046affffffffffffffffffffff16611ca49190616249565b92506101000a8154816affffffffffffffffffffff02191690836affffffffffffffffffffff16021790555082604001515f0151825f015f8282829054906101000a90046affffffffffffffffffffff16611cff919061652d565b92506101000a8154816affffffffffffffffffffff02191690836affffffffffffffffffffff1602179055505b61216c565b8261014001518360400151602001818151611d4c919061652d565b9150906affffffffffffffffffffff1690816affffffffffffffffffffff16815250508083604001515f01818151611d84919061652d565b9150906affffffffffffffffffffff1690816affffffffffffffffffffff168152505082604001515f600d015f855f015173ffffffffffffffffffffffffffffffffffffffff1673ffffffffffffffffffffffffffffffffffffffff1681526020019081526020015f205f856080015173ffffffffffffffffffffffffffffffffffffffff1673ffffffffffffffffffffffffffffffffffffffff1681526020019081526020015f205f856040015160a0015160ff1660ff1681526020019081526020015f205f820151815f015f6101000a8154816affffffffffffffffffffff02191690836affffffffffffffffffffff1602179055506020820151815f01600b6101000a8154816affffffffffffffffffffff02191690836affffffffffffffffffffff1602179055506040820151815f0160166101000a81548169ffffffffffffffffffff021916908369ffffffffffffffffffff1602179055506060820151816001015f6101000a81548160ff02191690836002811115611f0c57611f0b616046565b5b021790555060808201518160010160016101000a81548160ff021916908360ff16021790555060a08201518160010160026101000a81548160ff021916908360ff16021790555060c08201518160010160036101000a81548160ff021916908360ff16021790555060e08201518160010160046101000a81548167ffffffffffffffff021916908367ffffffffffffffff16021790555061010082015181600101600c6101000a81548163ffffffff021916908363ffffffff1602179055506101208201518160010160106101000a81548164ffffffffff021916908364ffffffffff16021790555090505082604001515f0151825f015f8282829054906101000a90046affffffffffffffffffffff16612027919061652d565b92506101000a8154816affffffffffffffffffffff02191690836affffffffffffffffffffff160217905550612084835f015184608001518386604001516040015169ffffffffffffffffffff16876040015161010001516137fe565b82610160015180156120c657503073ffffffffffffffffffffffffffffffffffffffff16836080015173ffffffffffffffffffffffffffffffffffffffff1614155b1561216b576120e5835f01518460800151856040015160a00151613b04565b61216a835f0151306002600187604001515f01518860400151602001515f6008015f8b5f015173ffffffffffffffffffffffffffffffffffffffff1673ffffffffffffffffffffffffffffffffffffffff1681526020019081526020015f2060010160099054906101000a900467ffffffffffffffff168a6040015160400151613fd0565b5b5b3073ffffffffffffffffffffffffffffffffffffffff16836080015173ffffffffffffffffffffffffffffffffffffffff16146121cd576121cb835f01518460400151606001518560600151866040015160a00151876080015161423a565b505b505050565b5f90565b5f6121df6121d2565b90505f81600c015f8573ffffffffffffffffffffffffffffffffffffffff1673ffffffffffffffffffffffffffffffffffffffff1681526020019081526020015f205f8461ffff1661ffff1681526020019081526020015f2090505f815f01601b9054906101000a900460ff1690506006600781111561226257612261616046565b5b81600781111561227557612274616046565b5b14806122a4575060078081111561228f5761228e616046565b5b8160078111156122a2576122a1616046565b5b145b156122db576040517f03f7cd9200000000000000000000000000000000000000000000000000000000815260040160405180910390fd5b5f6123736122fa8460010160159054906101000a900461ffff166145cb565b612358855f01600b9054906101000a900469ffffffffffffffffffff1669ffffffffffffffffffff16865f015f9054906101000a90046affffffffffffffffffffff166affffffffffffffffffffff1661372690919063ffffffff16565b6affffffffffffffffffffff1661372690919063ffffffff16565b90505f846008015f8873ffffffffffffffffffffffffffffffffffffffff1673ffffffffffffffffffffffffffffffffffffffff1681526020019081526020015f2090505f815f01601f9054906101000a900460ff1660ff1690505f8560010160179054906101000a900460ff1690505f866001015f9054906101000a900473ffffffffffffffffffffffffffffffffffffffff1690505f88600d015f8c73ffffffffffffffffffffffffffffffffffffffff1673ffffffffffffffffffffffffffffffffffffffff1681526020019081526020015f205f8373ffffffffffffffffffffffffffffffffffffffff1673ffffffffffffffffffffffffffffffffffffffff1681526020019081526020015f205f8460ff1660ff1681526020019081526020015f2090506002808111156124af576124ae616046565b5b816001015f9054906101000a900460ff1660028111156124d2576124d1616046565b5b036124e7576124e28b8385613b04565b612866565b5f6124f18c612a57565b9050806affffffffffffffffffffff16825f01600b9054906101000a90046affffffffffffffffffffff166affffffffffffffffffffff161015612837575f825f01600b9054906101000a90046affffffffffffffffffffff1682612556919061652d565b90505f8b6005015f8881526020019081526020015f2090505f6125ed61258d8d60010160159054906101000a900461ffff166145cb565b6125d2856affffffffffffffffffffff168f5f01600b9054906101000a900469ffffffffffffffffffff1669ffffffffffffffffffff166145f790919063ffffffff16565b6affffffffffffffffffffff1661372690919063ffffffff16565b90506126318f8789600185888f60010160099054906101000a900467ffffffffffffffff16895f0160169054906101000a900469ffffffffffffffffffff16613fd0565b80825f015f8282829054906101000a90046affffffffffffffffffffff166126599190616249565b92506101000a8154816affffffffffffffffffffff02191690836affffffffffffffffffffff16021790555080895f01600d8282829054906101000a90046affffffffffffffffffffff166126ae9190616249565b92506101000a8154816affffffffffffffffffffff02191690836affffffffffffffffffffff160217905550826affffffffffffffffffffff16895f015f8282829054906101000a90046cffffffffffffffffffffffffff16612711919061656b565b92506101000a8154816cffffffffffffffffffffffffff02191690836cffffffffffffffffffffffffff160217905550808a61274d919061652d565b99505050806affffffffffffffffffffff168b6009015f8f73ffffffffffffffffffffffffffffffffffffffff1673ffffffffffffffffffffffffffffffffffffffff1681526020019081526020015f205f8673ffffffffffffffffffffffffffffffffffffffff1673ffffffffffffffffffffffffffffffffffffffff1681526020019081526020015f205f015f8282829054906101000a90046cffffffffffffffffffffffffff16612801919061656b565b92506101000a8154816cffffffffffffffffffffffffff02191690836cffffffffffffffffffffffffff16021790555050612864565b6001826001015f6101000a81548160ff0219169083600281111561285e5761285d616046565b5b02179055505b505b85896007015f8681526020019081526020015f205f8473ffffffffffffffffffffffffffffffffffffffff1673ffffffffffffffffffffffffffffffffffffffff1681526020019081526020015f205f015f8282829054906101000a90046affffffffffffffffffffff166128db9190616249565b92506101000a8154816affffffffffffffffffffff02191690836affffffffffffffffffffff160217905550845f0160189054906101000a900461ffff1661ffff168a61ffff1603612a3c575f6129318c6132c7565b69ffffffffffffffffffff1690505f8a600c015f8e73ffffffffffffffffffffffffffffffffffffffff1673ffffffffffffffffffffffffffffffffffffffff1681526020019081526020015f205f8b5f0160159054906101000a900461ffff1661ffff1661ffff1681526020019081526020015f205f01600b9054906101000a900469ffffffffffffffffffff1669ffffffffffffffffffff169050818110612a0957895f0160159054906101000a900461ffff16875f0160186101000a81548161ffff021916908361ffff160217905550612a39565b895f0160199054906101000a900461ffff16875f0160186101000a81548161ffff021916908361ffff1602179055505b50505b612a4a89600c018c8c614660565b5050505050505050505050565b5f80612a616121d2565b9050670de0b6b3a7640000816008015f8573ffffffffffffffffffffffffffffffffffffffff1673ffffffffffffffffffffffffffffffffffffffff1681526020019081526020015f2060010160029054906101000a900461ffff1661ffff16612acb91906161ab565b915050919050565b5f80612add6121d2565b905080600a015f8473ffffffffffffffffffffffffffffffffffffffff1673ffffffffffffffffffffffffffffffffffffffff1681526020019081526020015f205f600160ff1661ffff1681526020019081526020015f205f01601c9054906101000a900463ffffffff1663ffffffff16915050919050565b5f6362f6fc6542612b679190616145565b905090565b5f612b756121d2565b90505f612b8184614a0a565b90505f612ba38573ffffffffffffffffffffffffffffffffffffffff166132c7565b69ffffffffffffffffffff169050612be382612bbd612b56565b8773ffffffffffffffffffffffffffffffffffffffff16614e149092919063ffffffff16565b808203612bf25750505061303d565b5f836008015f8773ffffffffffffffffffffffffffffffffffffffff1673ffffffffffffffffffffffffffffffffffffffff1681526020019081526020015f2090505f600160ff1685600c015f8973ffffffffffffffffffffffffffffffffffffffff1673ffffffffffffffffffffffffffffffffffffffff1681526020019081526020015f205f600160ff1661ffff1681526020019081526020015f205f0160199054906101000a900461ffff1661ffff161490508015612cd557600160ff16825f0160186101000a81548161ffff021916908361ffff160217905550613037565b5f805f90505b875181101561300457878181518110612cf757612cf66165ab565b5b602002602001015191508060010190505f87600c015f8b73ffffffffffffffffffffffffffffffffffffffff1673ffffffffffffffffffffffffffffffffffffffff1681526020019081526020015f205f8461ffff1661ffff1681526020019081526020015f2090505f815f01601b9054906101000a900460ff16905060066007811115612d8857612d87616046565b5b816007811115612d9b57612d9a616046565b5b1480612dca5750600780811115612db557612db4616046565b5b816007811115612dc857612dc7616046565b5b145b80612df857505f6007811115612de357612de2616046565b5b816007811115612df657612df5616046565b5b145b15612e04575050612fff565b505f815f01600b9054906101000a900469ffffffffffffffffffff1690505f825f0160159054906101000a900461ffff1690505f8a600c015f8e73ffffffffffffffffffffffffffffffffffffffff1673ffffffffffffffffffffffffffffffffffffffff1681526020019081526020015f205f8361ffff1661ffff1681526020019081526020015f205f01600b9054906101000a900469ffffffffffffffffffff1690505f612ec5670df27a2cdf4480008c61354d90919063ffffffff16565b8469ffffffffffffffffffff1611158015612eec57508a8269ffffffffffffffffffff1610155b90505f8b8569ffffffffffffffffffff1610158015612f1657508b8369ffffffffffffffffffff16105b90505f8c8669ffffffffffffffffffff16108015612f4c5750600160ff16875f0160199054906101000a900461ffff1661ffff16145b90508115612f8557888b5f0160186101000a81548161ffff021916908361ffff160217905550505050505050505050505050505061303d565b8215612fbc57848b5f0160186101000a81548161ffff021916908361ffff160217905550505050505050505050505050505061303d565b8015612ff757600160ff168b5f0160186101000a81548161ffff021916908361ffff160217905550505050505050505050505050505061303d565b505050505050505b612cdb565b506040517f053c10c300000000000000000000000000000000000000000000000000000000815260040160405180910390fd5b50505050505b5050565b5f61304a6121d2565b90505f81600d015f8673ffffffffffffffffffffffffffffffffffffffff1673ffffffffffffffffffffffffffffffffffffffff1681526020019081526020015f205f8573ffffffffffffffffffffffffffffffffffffffff1673ffffffffffffffffffffffffffffffffffffffff1681526020019081526020015f205f8460ff1660ff1681526020019081526020015f2090505f826008015f8773ffffffffffffffffffffffffffffffffffffffff1673ffffffffffffffffffffffffffffffffffffffff1681526020019081526020015f2060010160099054906101000a900467ffffffffffffffff1690505f6131a08360010160049054906101000a900467ffffffffffffffff168361316091906165d8565b67ffffffffffffffff16845f01600b9054906101000a90046affffffffffffffffffffff166affffffffffffffffffffff1661372690919063ffffffff16565b90505f816affffffffffffffffffffff1611156132385780835f01600b8282829054906101000a90046affffffffffffffffffffff166131e09190616249565b92506101000a8154816affffffffffffffffffffff02191690836affffffffffffffffffffff160217905550818360010160046101000a81548167ffffffffffffffff021916908367ffffffffffffffff1602179055505b50505050505050565b5f8061324b6121d2565b90506064670de0b6b3a7640000826008015f8673ffffffffffffffffffffffffffffffffffffffff1673ffffffffffffffffffffffffffffffffffffffff1681526020019081526020015f2060010160049054906101000a900460ff1660ff166132b591906161ab565b6132bf9190616219565b915050919050565b5f806132d16121d2565b905080600a015f8473ffffffffffffffffffffffffffffffffffffffff1673ffffffffffffffffffffffffffffffffffffffff1681526020019081526020015f205f600160ff1661ffff1681526020019081526020015f205f015f9054906101000a90046affffffffffffffffffffff16915050919050565b5f6133916133728385602001516affffffffffffffffffffff1661352d90919063ffffffff16565b845f01516affffffffffffffffffffff166135e690919063ffffffff16565b905092915050565b5f806133a36121d2565b90506064670de0b6b3a7640000826008015f8673ffffffffffffffffffffffffffffffffffffffff1673ffffffffffffffffffffffffffffffffffffffff1681526020019081526020015f2060010160079054906101000a900460ff1660ff1661340d91906161ab565b6134179190616219565b915050919050565b5f806134296121d2565b90506103e8670de0b6b3a7640000826008015f8673ffffffffffffffffffffffffffffffffffffffff1673ffffffffffffffffffffffffffffffffffffffff1681526020019081526020015f2060010160069054906101000a900460ff1660ff1661349491906161ab565b61349e9190616219565b915050919050565b5f806134b06121d2565b90506103e8670de0b6b3a7640000826008015f8673ffffffffffffffffffffffffffffffffffffffff1673ffffffffffffffffffffffffffffffffffffffff1681526020019081526020015f2060010160059054906101000a900460ff1660ff1661351b91906161ab565b6135259190616219565b915050919050565b5f613545836affffffffffffffffffffff1683614f2c565b905092915050565b5f6135588383614f2c565b905092915050565b5f8061356a6121d2565b90506064670de0b6b3a7640000826008015f8673ffffffffffffffffffffffffffffffffffffffff1673ffffffffffffffffffffffffffffffffffffffff1681526020019081526020015f2060010160139054906101000a900460ff1660ff166135d491906161ab565b6135de9190616219565b915050919050565b5f613607836affffffffffffffffffffff16670de0b6b3a764000084615011565b905092915050565b5f6136268369ffffffffffffffffffff1683614f2c565b905092915050565b5f806136468469ffffffffffffffffffff1684614f2c565b905069ffffffffffffffffffff801681111561368d576040517ebfc92100000000000000000000000000000000000000000000000000000000815260040160405180910390fd5b8091505092915050565b5f6136ab83670de0b6b3a764000084615011565b905092915050565b5f806136d6846bffffffffffffffffffffffff16670de0b6b3a764000085615011565b905067ffffffffffffffff801681111561371c576040517f2c5211c600000000000000000000000000000000000000000000000000000000815260040160405180910390fd5b8091505092915050565b5f8061373f846affffffffffffffffffffff1684614f2c565b90506affffffffffffffffffffff8016811115613788576040517f2c5211c600000000000000000000000000000000000000000000000000000000815260040160405180910390fd5b8091505092915050565b5f6affffffffffffffffffffff80168311156137da576040517f2c5211c600000000000000000000000000000000000000000000000000000000815260040160405180910390fd5b816affffffffffffffffffffff1683106137f457816137f6565b825b905092915050565b5f6138076121d2565b90505f816008015f8873ffffffffffffffffffffffffffffffffffffffff1673ffffffffffffffffffffffffffffffffffffffff1681526020019081526020015f2090505f815f01601f9054906101000a900460ff1660ff1690505f836005015f8381526020019081526020015f20905086815f015f8282829054906101000a90046affffffffffffffffffffff166138a0919061652d565b92506101000a8154816affffffffffffffffffffff02191690836affffffffffffffffffffff16021790555086835f01600d8282829054906101000a90046affffffffffffffffffffff166138f5919061652d565b92506101000a8154816affffffffffffffffffffff02191690836affffffffffffffffffffff1602179055505f61397287835f0160169054906101000a900469ffffffffffffffffffff1669ffffffffffffffffffff166139569190616145565b896affffffffffffffffffffff1661372690919063ffffffff16565b90505f816affffffffffffffffffffff161115613af8575f603c87613995612b56565b61399f9190616622565b63ffffffff161190508015613a545781866007015f8681526020019081526020015f205f8c73ffffffffffffffffffffffffffffffffffffffff1673ffffffffffffffffffffffffffffffffffffffff1681526020019081526020015f205f015f8282829054906101000a90046affffffffffffffffffffff16613a239190616249565b92506101000a8154816affffffffffffffffffffff02191690836affffffffffffffffffffff160217905550613af6565b81866007015f8681526020019081526020015f205f3073ffffffffffffffffffffffffffffffffffffffff1673ffffffffffffffffffffffffffffffffffffffff1681526020019081526020015f205f015f8282829054906101000a90046affffffffffffffffffffff16613ac99190616249565b92506101000a8154816affffffffffffffffffffff02191690836affffffffffffffffffffff1602179055505b505b50505050505050505050565b5f613b0d6121d2565b90505f81600d015f8673ffffffffffffffffffffffffffffffffffffffff1673ffffffffffffffffffffffffffffffffffffffff1681526020019081526020015f205f8573ffffffffffffffffffffffffffffffffffffffff1673ffffffffffffffffffffffffffffffffffffffff1681526020019081526020015f205f8460ff1660ff1681526020019081526020015f2090505f6002811115613bb457613bb3616046565b5b816001015f9054906101000a900460ff166002811115613bd757613bd6616046565b5b14613f9d578060010160039054906101000a900460ff1682600d015f8773ffffffffffffffffffffffffffffffffffffffff1673ffffffffffffffffffffffffffffffffffffffff1681526020019081526020015f205f8673ffffffffffffffffffffffffffffffffffffffff1673ffffffffffffffffffffffffffffffffffffffff1681526020019081526020015f205f8360010160019054906101000a900460ff1660ff1660ff1681526020019081526020015f2060010160036101000a81548160ff021916908360ff160217905550600160ff168160010160039054906101000a900460ff1660ff1614613d96578060010160019054906101000a900460ff1682600d015f8773ffffffffffffffffffffffffffffffffffffffff1673ffffffffffffffffffffffffffffffffffffffff1681526020019081526020015f205f8673ffffffffffffffffffffffffffffffffffffffff1673ffffffffffffffffffffffffffffffffffffffff1681526020019081526020015f205f8360010160039054906101000a900460ff1660ff1660ff1681526020019081526020015f2060010160016101000a81548160ff021916908360ff1602179055505b5f82600d015f8773ffffffffffffffffffffffffffffffffffffffff1673ffffffffffffffffffffffffffffffffffffffff1681526020019081526020015f205f8673ffffffffffffffffffffffffffffffffffffffff1673ffffffffffffffffffffffffffffffffffffffff1681526020019081526020015f205f600160ff1660ff1681526020019081526020015f2060010160019054906101000a900460ff1690508383600d015f8873ffffffffffffffffffffffffffffffffffffffff1673ffffffffffffffffffffffffffffffffffffffff1681526020019081526020015f205f8773ffffffffffffffffffffffffffffffffffffffff1673ffffffffffffffffffffffffffffffffffffffff1681526020019081526020015f205f600160ff1660ff1681526020019081526020015f2060010160016101000a81548160ff021916908360ff160217905550600160ff168160ff161115613f1757808260010160016101000a81548160ff021916908360ff160217905550613f36565b60018260010160016101000a81548160ff021916908360ff1602179055505b8473ffffffffffffffffffffffffffffffffffffffff168673ffffffffffffffffffffffffffffffffffffffff167f308fabf328a16a122870d17bc942c7d1030c9f3f3eb3bd0d0139bbc75e705a3586604051613f939190616689565b60405180910390a3505b6002816001015f6101000a81548160ff02191690836002811115613fc457613fc3616046565b5b02179055505050505050565b5f613fd96121d2565b90505f81600d015f8b73ffffffffffffffffffffffffffffffffffffffff1673ffffffffffffffffffffffffffffffffffffffff1681526020019081526020015f205f8a73ffffffffffffffffffffffffffffffffffffffff1673ffffffffffffffffffffffffffffffffffffffff1681526020019081526020015f205f8960ff1660ff1681526020019081526020015f2090506002808111156140805761407f616046565b5b816001015f9054906101000a900460ff1660028111156140a3576140a2616046565b5b0361418f5784815f01600b6101000a8154816affffffffffffffffffffff02191690836affffffffffffffffffffff160217905550838160010160046101000a81548167ffffffffffffffff021916908367ffffffffffffffff16021790555085815f015f6101000a8154816affffffffffffffffffffff02191690836affffffffffffffffffffff16021790555082815f0160166101000a81548169ffffffffffffffffffff021916908369ffffffffffffffffffff160217905550614168612b56565b81600101600c6101000a81548163ffffffff021916908363ffffffff160217905550614203565b5f6141ba8567ffffffffffffffff16876affffffffffffffffffffff1661352d90919063ffffffff16565b90505f6141e98569ffffffffffffffffffff16896affffffffffffffffffffff1661352d90919063ffffffff16565b90506142008388848b856141fb612b56565b615123565b50505b86816001015f6101000a81548160ff0219169083600281111561422957614228616046565b5b021790555050505050505050505050565b5f806142446121d2565b90505f81600d015f8973ffffffffffffffffffffffffffffffffffffffff1673ffffffffffffffffffffffffffffffffffffffff1681526020019081526020015f205f8573ffffffffffffffffffffffffffffffffffffffff1673ffffffffffffffffffffffffffffffffffffffff1681526020019081526020015f205f8660ff1660ff1681526020019081526020015f2090505f6142e289612a57565b90505f60028111156142f7576142f6616046565b5b88600281111561430a57614309616046565b5b0361451d575f83600c015f8b73ffffffffffffffffffffffffffffffffffffffff1673ffffffffffffffffffffffffffffffffffffffff1681526020019081526020015f205f8961ffff1661ffff1681526020019081526020015f2090508660ff168160010160179054906101000a900460ff1660ff161415806143dd57508573ffffffffffffffffffffffffffffffffffffffff16816001015f9054906101000a900473ffffffffffffffffffffffffffffffffffffffff1673ffffffffffffffffffffffffffffffffffffffff1614155b15614414576040517f67b262cb00000000000000000000000000000000000000000000000000000000815260040160405180910390fd5b60028081111561442757614426616046565b5b836001015f9054906101000a900460ff16600281111561444a57614449616046565b5b036144915781815f015f9054906101000a90046affffffffffffffffffffff166affffffffffffffffffffff16101561448c576144878a896121d6565b600194505b614517565b81835f01600b9054906101000a90046affffffffffffffffffffff16825f015f9054906101000a90046affffffffffffffffffffff166144d19190616249565b6affffffffffffffffffffff161015614516576040517f0960d7a200000000000000000000000000000000000000000000000000000000815260040160405180910390fd5b5b506145bf565b6002808111156145305761452f616046565b5b826001015f9054906101000a900460ff16600281111561455357614552616046565b5b14158015614587575080825f01600b9054906101000a90046affffffffffffffffffffff166affffffffffffffffffffff16105b156145be576040517f0960d7a200000000000000000000000000000000000000000000000000000000815260040160405180910390fd5b5b50505095945050505050565b5f6064670de0b6b3a76400008361ffff166145e691906161ab565b6145f09190616219565b9050919050565b5f8061460f8469ffffffffffffffffffff1684614f2c565b905069ffffffffffffffffffff8016811115614656576040517ebfc92100000000000000000000000000000000000000000000000000000000815260040160405180910390fd5b8091505092915050565b5f835f8473ffffffffffffffffffffffffffffffffffffffff1673ffffffffffffffffffffffffffffffffffffffff1681526020019081526020015f205f600160ff1661ffff1681526020019081526020015f205f0160159054906101000a900461ffff169050835f8473ffffffffffffffffffffffffffffffffffffffff1673ffffffffffffffffffffffffffffffffffffffff1681526020019081526020015f205f8361ffff1661ffff1681526020019081526020015f205f0160159054906101000a900461ffff16845f8573ffffffffffffffffffffffffffffffffffffffff1673ffffffffffffffffffffffffffffffffffffffff1681526020019081526020015f205f865f8773ffffffffffffffffffffffffffffffffffffffff1673ffffffffffffffffffffffffffffffffffffffff1681526020019081526020015f205f8661ffff1661ffff1681526020019081526020015f205f0160199054906101000a900461ffff1661ffff1661ffff1681526020019081526020015f205f0160156101000a81548161ffff021916908361ffff160217905550835f8473ffffffffffffffffffffffffffffffffffffffff1673ffffffffffffffffffffffffffffffffffffffff1681526020019081526020015f205f8361ffff1661ffff1681526020019081526020015f205f0160199054906101000a900461ffff16845f8573ffffffffffffffffffffffffffffffffffffffff1673ffffffffffffffffffffffffffffffffffffffff1681526020019081526020015f205f865f8773ffffffffffffffffffffffffffffffffffffffff1673ffffffffffffffffffffffffffffffffffffffff1681526020019081526020015f205f8661ffff1661ffff1681526020019081526020015f205f0160159054906101000a900461ffff1661ffff1661ffff1681526020019081526020015f205f0160196101000a81548161ffff021916908361ffff160217905550835f8473ffffffffffffffffffffffffffffffffffffffff1673ffffffffffffffffffffffffffffffffffffffff1681526020019081526020015f205f8361ffff1661ffff1681526020019081526020015f205f01601b9054906101000a900460ff1660078111156149a8576149a7616046565b5b8373ffffffffffffffffffffffffffffffffffffffff167f2097d5c49cf7ba09a2520b6b807629746c2527783ac92cac69d88e846c7f33f5846040516149ee91906166b1565b60405180910390a3614a04848484846006615395565b50505050565b5f80614a146121d2565b90505f816002015f9054906101000a900473ffffffffffffffffffffffffffffffffffffffff1690505f614a47856132c7565b69ffffffffffffffffffff1690505f836008015f8773ffffffffffffffffffffffffffffffffffffffff1673ffffffffffffffffffffffffffffffffffffffff1681526020019081526020015f206002015f9054906101000a900473ffffffffffffffffffffffffffffffffffffffff1690505f73ffffffffffffffffffffffffffffffffffffffff168173ffffffffffffffffffffffffffffffffffffffff1603614b1f576040517fc891add200000000000000000000000000000000000000000000000000000000815260040160405180910390fd5b8273ffffffffffffffffffffffffffffffffffffffff1663feaf968c6040518163ffffffff1660e01b815260040160a060405180830381865afa925050508015614b8757506040513d601f19601f82011682018060405250810190614b849190616751565b60015b614ce4578273ffffffffffffffffffffffffffffffffffffffff168173ffffffffffffffffffffffffffffffffffffffff1603614bd157614bc6615582565b945050505050614e0f565b5f805f8373ffffffffffffffffffffffffffffffffffffffff1663feaf968c6040518163ffffffff1660e01b815260040160a060405180830381865afa158015614c1d573d5f803e3d5ffd5b505050506040513d601f19601f82011682018060405250810190614c419190616751565b50935050925092505f8369ffffffffffffffffffff161480614c6257505f82145b80614c6c57504281115b15614ca2576040517ebfc92100000000000000000000000000000000000000000000000000000000815260040160405180910390fd5b5f614cab615582565b90505f614cd1826402540be40086614cc391906167c8565b61354d90919063ffffffff16565b9050809950505050505050505050614e0f565b8773ffffffffffffffffffffffffffffffffffffffff168673ffffffffffffffffffffffffffffffffffffffff1603614d62575f808513614d25575f614d3f565b614d3e6402540be40086614d3991906167c8565b615764565b5b9050614d4e888787868561578c565b9050809a5050505050505050505050614e0f565b5f805f8873ffffffffffffffffffffffffffffffffffffffff1663feaf968c6040518163ffffffff1660e01b815260040160a060405180830381865afa158015614dae573d5f803e3d5ffd5b505050506040513d601f19601f82011682018060405250810190614dd29190616751565b50935050925092505f614dee888461369790919063ffffffff16565b9050614dfe848a858b868b615a40565b809d50505050505050505050505050505b919050565b5f614e1d6121d2565b90508269ffffffffffffffffffff1681600a015f8673ffffffffffffffffffffffffffffffffffffffff1673ffffffffffffffffffffffffffffffffffffffff1681526020019081526020015f205f600160ff1661ffff1681526020019081526020015f205f015f6101000a8154816affffffffffffffffffffff02191690836affffffffffffffffffffff1602179055508181600a015f8673ffffffffffffffffffffffffffffffffffffffff1673ffffffffffffffffffffffffffffffffffffffff1681526020019081526020015f205f600160ff1661ffff1681526020019081526020015f205f01601c6101000a81548163ffffffff021916908363ffffffff16021790555050505050565b5f805f80198486098486029250828110838203039150505f8103614f6c57670de0b6b3a76400008281614f6257614f616161ec565b5b049250505061500b565b670de0b6b3a76400008110614fba5784846040517f5173648d000000000000000000000000000000000000000000000000000000008152600401614fb192919061684d565b60405180910390fd5b5f670de0b6b3a764000085870990507faccb18165bd6fe31ae1cf318dc5b51eee0e1ba569b88cd74c1773b91fac10669600162040000805f0304018483118403026204000083860304170293505050505b92915050565b5f805f80198587098587029250828110838203039150505f81036150495783828161503f5761503e6161ec565b5b049250505061511c565b838110615091578585856040517f63a0577800000000000000000000000000000000000000000000000000000000815260040161508893929190616874565b60405180910390fd5b5f8486880990508281118203915080830392505f6001861901861690505f81870496508185049450600182835f0304019050808402851794505f60028860030218905080880260020381029050808802600203810290508088026002038102905080880260020381029050808802600203810290508088026002038102905080860296505050505050505b9392505050565b61517f8660010160049054906101000a900467ffffffffffffffff1667ffffffffffffffff16875f01600b9054906101000a90046affffffffffffffffffffff166affffffffffffffffffffff1661352d90919063ffffffff16565b8461518a9190616178565b935084865f01600b8282829054906101000a90046affffffffffffffffffffff166151b59190616249565b92506101000a8154816affffffffffffffffffffff02191690836affffffffffffffffffffff16021790555061521b865f01600b9054906101000a90046affffffffffffffffffffff166affffffffffffffffffffff1685615ae690919063ffffffff16565b8660010160046101000a81548167ffffffffffffffff021916908367ffffffffffffffff1602179055506152a3865f0160169054906101000a900469ffffffffffffffffffff1669ffffffffffffffffffff16875f015f9054906101000a90046affffffffffffffffffffff166affffffffffffffffffffff1661352d90919063ffffffff16565b826152ae9190616178565b915082865f015f8282829054906101000a90046affffffffffffffffffffff166152d89190616249565b92506101000a8154816affffffffffffffffffffff02191690836affffffffffffffffffffff16021790555061533d865f015f9054906101000a90046affffffffffffffffffffff166affffffffffffffffffffff1683615b4b90919063ffffffff16565b865f0160166101000a81548169ffffffffffffffffffff021916908369ffffffffffffffffffff1602179055508086600101600c6101000a81548163ffffffff021916908363ffffffff160217905550505050505050565b80855f8673ffffffffffffffffffffffffffffffffffffffff1673ffffffffffffffffffffffffffffffffffffffff1681526020019081526020015f205f8561ffff1661ffff1681526020019081526020015f205f01601b6101000a81548160ff0219169083600781111561540d5761540c616046565b5b021790555082855f8673ffffffffffffffffffffffffffffffffffffffff1673ffffffffffffffffffffffffffffffffffffffff1681526020019081526020015f205f600160ff1661ffff1681526020019081526020015f205f0160156101000a81548161ffff021916908361ffff160217905550600160ff168261ffff16146155065781855f8673ffffffffffffffffffffffffffffffffffffffff1673ffffffffffffffffffffffffffffffffffffffff1681526020019081526020015f205f8561ffff1661ffff1681526020019081526020015f205f0160156101000a81548161ffff021916908361ffff16021790555061557b565b600160ff16855f8673ffffffffffffffffffffffffffffffffffffffff1673ffffffffffffffffffffffffffffffffffffffff1681526020019081526020015f205f8561ffff1661ffff1681526020019081526020015f205f0160156101000a81548161ffff021916908361ffff1602179055505b5050505050565b5f803073ffffffffffffffffffffffffffffffffffffffff16630b545214670de0b6b3a76400006107086040518363ffffffff1660e01b81526004016155c992919061690c565b602060405180830381865afa1580156155e4573d5f803e3d5ffd5b505050506040513d601f19601f820116820180604052508101906156089190616933565b90505f8103615643576040517fca91730a00000000000000000000000000000000000000000000000000000000815260040160405180910390fd5b5f73c02aaa39b223fe8d0a0e5c4f27ead9083c756cc290505f8173ffffffffffffffffffffffffffffffffffffffff166370a082317388e6a0c2ddd26feeb64f039a2c41296fcb3f56406040518263ffffffff1660e01b81526004016156a9919061695e565b602060405180830381865afa1580156156c4573d5f803e3d5ffd5b505050506040513d601f19601f820116820180604052508101906156e89190616933565b905068056bc75e2d6310000081101561572d576040517f05f4eec200000000000000000000000000000000000000000000000000000000815260040160405180910390fd5b5f620f4240670de0b6b3a76400006157459190616219565b8461575091906161ab565b905061575b81615764565b94505050505090565b5f816ec097ce7bc90715b34b9f100000000081615784576157836161ec565b5b049050919050565b5f805f8669ffffffffffffffffffff1614806157a757505f84145b806157b157504284115b806157bc57505f8513155b806157d3575083611c206157d09190616178565b42115b90505f8784116157ee5783886157e99190616145565b6157fb565b87846157fa9190616145565b5b90505f808911801561582657506706f05b59d3b200006158248a8461369790919063ffffffff16565b115b9050821561584057615836615582565b9350505050615a37565b8015615a30573073ffffffffffffffffffffffffffffffffffffffff16630b545214670de0b6b3a76400006107086040518363ffffffff1660e01b815260040161588b92919061690c565b602060405180830381865afa9250505080156158c557506040513d601f19601f820116820180604052508101906158c29190616933565b60015b6158d457849350505050615a37565b5f81036158e75785945050505050615a37565b5f620f4240670de0b6b3a76400006158ff9190616219565b8261590a91906161ab565b90505f61591682615764565b90505f8c821161593157818d61592c9190616145565b61593e565b8c8261593d9190616145565b5b90508086116159565788975050505050505050615a37565b5f73c02aaa39b223fe8d0a0e5c4f27ead9083c756cc290505f8173ffffffffffffffffffffffffffffffffffffffff166370a082317388e6a0c2ddd26feeb64f039a2c41296fcb3f56406040518263ffffffff1660e01b81526004016159bc919061695e565b602060405180830381865afa1580156159d7573d5f803e3d5ffd5b505050506040513d601f19601f820116820180604052508101906159fb9190616933565b905068056bc75e2d63100000811015615a1f578a9950505050505050505050615a37565b839950505050505050505050615a37565b8493505050505b95945050505050565b5f808769ffffffffffffffffffff161480615a5a57505f83145b80615a6457504283115b80615a6f57505f8513155b80615a8557505f8669ffffffffffffffffffff16145b80615a8f57505f82145b80615a9957504282115b80615aa457505f8413155b90508015615add576040517ebfc92100000000000000000000000000000000000000000000000000000000815260040160405180910390fd5b50505050505050565b5f80615afb84670de0b6b3a764000085615011565b905067ffffffffffffffff8016811115615b41576040517f2c5211c600000000000000000000000000000000000000000000000000000000815260040160405180910390fd5b8091505092915050565b5f80615b6084670de0b6b3a764000085615011565b905069ffffffffffffffffffff8016811115615ba8576040517f2c5211c600000000000000000000000000000000000000000000000000000000815260040160405180910390fd5b8091505092915050565b6040518061022001604052805f73ffffffffffffffffffffffffffffffffffffffff1681526020015f8152602001615be8615c9e565b81526020015f61ffff1681526020015f73ffffffffffffffffffffffffffffffffffffffff1681526020015f81526020015f69ffffffffffffffffffff1681526020015f81526020015f81526020015f6affffffffffffffffffffff1681526020015f6affffffffffffffffffffff1681526020015f151581526020015f81526020015f81526020015f6affffffffffffffffffffff1681526020015f6affffffffffffffffffffff1681526020015f81525090565b6040518061014001604052805f6affffffffffffffffffffff1681526020015f6affffffffffffffffffffff1681526020015f69ffffffffffffffffffff1681526020015f6002811115615cf557615cf4616046565b5b81526020015f60ff1681526020015f60ff1681526020015f60ff1681526020015f67ffffffffffffffff1681526020015f63ffffffff1681526020015f64ffffffffff1681525090565b5f604051905090565b5f80fd5b5f80fd5b5f73ffffffffffffffffffffffffffffffffffffffff82169050919050565b5f615d7982615d50565b9050919050565b615d8981615d6f565b8114615d93575f80fd5b50565b5f81359050615da481615d80565b92915050565b5f60ff82169050919050565b615dbf81615daa565b8114615dc9575f80fd5b50565b5f81359050615dda81615db6565b92915050565b5f80fd5b5f601f19601f8301169050919050565b7f4e487b71000000000000000000000000000000000000000000000000000000005f52604160045260245ffd5b615e2a82615de4565b810181811067ffffffffffffffff82111715615e4957615e48615df4565b5b80604052505050565b5f615e5b615d3f565b9050615e678282615e21565b919050565b5f67ffffffffffffffff821115615e8657615e85615df4565b5b602082029050602081019050919050565b5f80fd5b5f61ffff82169050919050565b615eb181615e9b565b8114615ebb575f80fd5b50565b5f81359050615ecc81615ea8565b92915050565b5f615ee4615edf84615e6c565b615e52565b90508083825260208201905060208402830185811115615f0757615f06615e97565b5b835b81811015615f305780615f1c8882615ebe565b845260208401935050602081019050615f09565b5050509392505050565b5f82601f830112615f4e57615f4d615de0565b5b8135615f5e848260208601615ed2565b91505092915050565b5f805f805f60a08688031215615f8057615f7f615d48565b5b5f615f8d88828901615d96565b9550506020615f9e88828901615d96565b9450506040615faf88828901615dcc565b935050606086013567ffffffffffffffff811115615fd057615fcf615d4c565b5b615fdc88828901615f3a565b9250506080615fed88828901615ebe565b9150509295509295909350565b5f6affffffffffffffffffffff82169050919050565b61601981615ffa565b82525050565b5f6040820190506160325f830185616010565b61603f6020830184616010565b9392505050565b7f4e487b71000000000000000000000000000000000000000000000000000000005f52602160045260245ffd5b61607c81615daa565b82525050565b5f819050919050565b5f819050919050565b5f6160ae6160a96160a484615ffa565b61608b565b616082565b9050919050565b6160be81616094565b82525050565b5f6040820190506160d75f830185616073565b6160e460208301846160b5565b9392505050565b7f4e487b71000000000000000000000000000000000000000000000000000000005f52600160045260245ffd5b7f4e487b71000000000000000000000000000000000000000000000000000000005f52601160045260245ffd5b5f61614f82616082565b915061615a83616082565b925082820390508181111561617257616171616118565b5b92915050565b5f61618282616082565b915061618d83616082565b92508282019050808211156161a5576161a4616118565b5b92915050565b5f6161b582616082565b91506161c083616082565b92508282026161ce81616082565b915082820484148315176161e5576161e4616118565b5b5092915050565b7f4e487b71000000000000000000000000000000000000000000000000000000005f52601260045260245ffd5b5f61622382616082565b915061622e83616082565b92508261623e5761623d6161ec565b5b828204905092915050565b5f61625382615ffa565b915061625e83615ffa565b925082820190506affffffffffffffffffffff81111561628157616280616118565b5b92915050565b5f6bffffffffffffffffffffffff82169050919050565b5f6162a882616287565b91506162b383616287565b925082820390506bffffffffffffffffffffffff8111156162d7576162d6616118565b5b92915050565b5f6cffffffffffffffffffffffffff82169050919050565b5f6162ff826162dd565b915061630a836162dd565b925082820390506cffffffffffffffffffffffffff81111561632f5761632e616118565b5b92915050565b5f67ffffffffffffffff82169050919050565b5f61635282616335565b915061635d83616335565b9250828201905067ffffffffffffffff81111561637d5761637c616118565b5b92915050565b61638c81615d6f565b82525050565b5f69ffffffffffffffffffff82169050919050565b6163b081616392565b82525050565b5f81519050919050565b5f82825260208201905092915050565b5f819050602082019050919050565b6163e881615e9b565b82525050565b5f6163f983836163df565b60208301905092915050565b5f602082019050919050565b5f61641b826163b6565b61642581856163c0565b9350616430836163d0565b805f5b8381101561646057815161644788826163ee565b975061645283616405565b925050600181019050616433565b5085935050505092915050565b5f60a0820190506164805f830188616383565b61648d6020830187616383565b61649a60408301866163a7565b6164a76060830185616010565b81810360808301526164b98184616411565b90509695505050505050565b6164ce81615ffa565b81146164d8575f80fd5b50565b5f815190506164e9816164c5565b92915050565b5f806040838503121561650557616504615d48565b5b5f616512858286016164db565b9250506020616523858286016164db565b9150509250929050565b5f61653782615ffa565b915061654283615ffa565b925082820390506affffffffffffffffffffff81111561656557616564616118565b5b92915050565b5f616575826162dd565b9150616580836162dd565b925082820190506cffffffffffffffffffffffffff8111156165a5576165a4616118565b5b92915050565b7f4e487b71000000000000000000000000000000000000000000000000000000005f52603260045260245ffd5b5f6165e282616335565b91506165ed83616335565b9250828203905067ffffffffffffffff81111561660d5761660c616118565b5b92915050565b5f63ffffffff82169050919050565b5f61662c82616613565b915061663783616613565b9250828203905063ffffffff81111561665357616652616118565b5b92915050565b5f61667361666e61666984615daa565b61608b565b615e9b565b9050919050565b61668381616659565b82525050565b5f60208201905061669c5f83018461667a565b92915050565b6166ab81615e9b565b82525050565b5f6020820190506166c45f8301846166a2565b92915050565b6166d381616392565b81146166dd575f80fd5b50565b5f815190506166ee816166ca565b92915050565b5f819050919050565b616706816166f4565b8114616710575f80fd5b50565b5f81519050616721816166fd565b92915050565b61673081616082565b811461673a575f80fd5b50565b5f8151905061674b81616727565b92915050565b5f805f805f60a0868803121561676a57616769615d48565b5b5f616777888289016166e0565b955050602061678888828901616713565b94505060406167998882890161673d565b93505060606167aa8882890161673d565b92505060806167bb888289016166e0565b9150509295509295909350565b5f6167d2826166f4565b91506167dd836166f4565b92508282026167eb816166f4565b91507f800000000000000000000000000000000000000000000000000000000000000084145f8412161561682257616821616118565b5b828205841483151761683757616836616118565b5b5092915050565b61684781616082565b82525050565b5f6040820190506168605f83018561683e565b61686d602083018461683e565b9392505050565b5f6060820190506168875f83018661683e565b616894602083018561683e565b6168a1604083018461683e565b949350505050565b5f6fffffffffffffffffffffffffffffffff82169050919050565b6168cd816168a9565b82525050565b5f819050919050565b5f6168f66168f16168ec846168d3565b61608b565b616613565b9050919050565b616906816168dc565b82525050565b5f60408201905061691f5f8301856168c4565b61692c60208301846168fd565b9392505050565b5f6020828403121561694857616947615d48565b5b5f6169558482850161673d565b91505092915050565b5f6020820190506169715f830184616383565b9291505056fea2646970667358221220344784ac4cbe56d96a0556ec7722df7b22b4512ea980f854bd9bc993611a180864736f6c63430008150033","linkReferences":{}},"methodIdentifiers":{"liquidate(address,address,uint8,uint16[],uint16)":"875ba4f3"},"id":15}