{"abi":[{"type":"function","name":"createBid","inputs":[{"name":"asset","type":"address","internalType":"address"},{"name":"price","type":"uint80","internalType":"uint80"},{"name":"ercAmount","type":"uint88","internalType":"uint88"},{"name":"isMarketOrder","type":"bool","internalType":"bool"},{"name":"orderHintArray","type":"tuple[]","internalType":"struct MTypes.OrderHint[]","components":[{"name":"hintId","type":"uint16","internalType":"uint16"},{"name":"creationTime","type":"uint256","internalType":"uint256"}]},{"name":"shortHintArray","type":"uint16[]","internalType":"uint16[]"}],"outputs":[{"name":"ethFilled","type":"uint88","internalType":"uint88"},{"name":"ercAmountLeft","type":"uint88","internalType":"uint88"}],"stateMutability":"nonpayable"},{"type":"function","name":"createForcedBid","inputs":[{"name":"sender","type":"address","internalType":"address"},{"name":"asset","type":"address","internalType":"address"},{"name":"price","type":"uint80","internalType":"uint80"},{"name":"ercAmount","type":"uint88","internalType":"uint88"},{"name":"shortHintArray","type":"uint16[]","internalType":"uint16[]"}],"outputs":[{"name":"ethFilled","type":"uint88","internalType":"uint88"},{"name":"ercAmountLeft","type":"uint88","internalType":"uint88"}],"stateMutability":"nonpayable"},{"type":"event","name":"CreateOrder","inputs":[{"name":"asset","type":"address","indexed":true,"internalType":"address"},{"name":"user","type":"address","indexed":true,"internalType":"address"},{"name":"orderType","type":"uint8","indexed":true,"internalType":"enum O"},{"name":"orderId","type":"uint16","indexed":false,"internalType":"uint16"},{"name":"ercAmount","type":"uint88","indexed":false,"internalType":"uint88"}],"anonymous":false},{"type":"event","name":"MatchOrder","inputs":[{"name":"asset","type":"address","indexed":true,"internalType":"address"},{"name":"user","type":"address","indexed":true,"internalType":"address"},{"name":"orderType","type":"uint8","indexed":true,"internalType":"enum O"},{"name":"orderId","type":"uint16","indexed":false,"internalType":"uint16"},{"name":"fillEth","type":"uint88","indexed":false,"internalType":"uint88"},{"name":"fillErc","type":"uint88","indexed":false,"internalType":"uint88"}],"anonymous":false},{"type":"error","name":"AssetIsFrozen","inputs":[]},{"type":"error","name":"BadHintIdArray","inputs":[]},{"type":"error","name":"BadShortHint","inputs":[]},{"type":"error","name":"InsufficientETHEscrowed","inputs":[]},{"type":"error","name":"InsufficientEthInLiquidityPool","inputs":[]},{"type":"error","name":"InvalidAmount","inputs":[]},{"type":"error","name":"InvalidAsset","inputs":[]},{"type":"error","name":"InvalidPrice","inputs":[]},{"type":"error","name":"InvalidTwapPrice","inputs":[]},{"type":"error","name":"NotDiamond","inputs":[]},{"type":"error","name":"OrderUnderMinimumSize","inputs":[]},{"type":"error","name":"PRBMath_MulDiv18_Overflow","inputs":[{"name":"x","type":"uint256","internalType":"uint256"},{"name":"y","type":"uint256","internalType":"uint256"}]},{"type":"error","name":"PRBMath_MulDiv_Overflow","inputs":[{"name":"x","type":"uint256","internalType":"uint256"},{"name":"y","type":"uint256","internalType":"uint256"},{"name":"denominator","type":"uint256","internalType":"uint256"}]},{"type":"error","name":"ReentrantCall","inputs":[]}],"bytecode":{"object":"0x608060405234801561000f575f80fd5b50616e9a806200001e5f395ff3fe608060405234801561000f575f80fd5b5060043610610034575f3560e01c8063269010c5146100385780632ba8c92014610069575b5f80fd5b610052600480360381019061004d91906162f8565b61009a565b60405161006092919061639d565b60405180910390f35b610083600480360381019061007e919061644e565b610163565b60405161009192919061639d565b60405180910390f35b5f803073ffffffffffffffffffffffffffffffffffffffff163373ffffffffffffffffffffffffffffffffffffffff1614610101576040517fd04b63aa00000000000000000000000000000000000000000000000000000000815260040160405180910390fd5b6060610153898989896001868b8b808060200260200160405190810160405280939291908181526020018383602002808284375f81840152601f19601f8201169050808301925050505050505061042a565b9250925050965096945050505050565b5f80895f600181111561017957610178616518565b5b5f6008015f8373ffffffffffffffffffffffffffffffffffffffff1673ffffffffffffffffffffffffffffffffffffffff1681526020019081526020015f205f01601e9054906101000a900460ff1660018111156101da576101d9616518565b5b14610211576040517f0e27a3f700000000000000000000000000000000000000000000000000000000815260040160405180910390fd5b8a5f806008015f8373ffffffffffffffffffffffffffffffffffffffff1673ffffffffffffffffffffffffffffffffffffffff1681526020019081526020015f205f01601f9054906101000a900460ff1660ff160361029c576040517fc891add200000000000000000000000000000000000000000000000000000000815260040160405180910390fd5b600260ff165f600201601c9054906101000a900460ff1660ff16036102ed576040517f37ed32e800000000000000000000000000000000000000000000000000000000815260040160405180910390fd5b60025f600201601c6101000a81548160ff021916908360ff1602179055506103558c8787808060200260200160405190810160405280939291908181526020018383602002808284375f81840152601f19601f820116905080830192505050505050506108b2565b6103f9338d8d8d8d8d8d808060200260200160405190810160405280939291908181526020015f905b828210156103ae5784848390506040020180360381019061039f9190616688565b8152602001906001019061037e565b50505050508c8c808060200260200160405190810160405280939291908181526020018383602002808284375f81840152601f19601f8201169050808301925050505050505061042a565b9350935060015f600201601c6101000a81548160ff021916908360ff16021790555050509850989650505050505050565b5f805f6104598869ffffffffffffffffffff16886affffffffffffffffffffff166108ef90919063ffffffff16565b90506104648961090f565b81101561049d576040517faacd1fa000000000000000000000000000000000000000000000000000000000815260040160405180910390fd5b5f806008015f8b73ffffffffffffffffffffffffffffffffffffffff1673ffffffffffffffffffffffffffffffffffffffff1681526020019081526020015f209050815f6007015f835f01601f9054906101000a900460ff1660ff1681526020019081526020015f205f8d73ffffffffffffffffffffffffffffffffffffffff1673ffffffffffffffffffffffffffffffffffffffff1681526020019081526020015f205f015f9054906101000a90046affffffffffffffffffffff166affffffffffffffffffffff16101561059f576040517f7d243a2c00000000000000000000000000000000000000000000000000000000815260040160405180910390fd5b6105a7615fa9565b8b8160e0019073ffffffffffffffffffffffffffffffffffffffff16908173ffffffffffffffffffffffffffffffffffffffff168152505089816020019069ffffffffffffffffffff16908169ffffffffffffffffffff168152505088815f01906affffffffffffffffffffff1690816affffffffffffffffffffff1681525050815f01601a9054906101000a900461ffff16816060019061ffff16908161ffff16815250508761065957600161065c565b60035b8160a00190600781111561067357610672616518565b5b9081600781111561068757610686616518565b5b81525050610693610994565b8160c0019063ffffffff16908163ffffffff16815250506106b2616074565b5f600b015f8d73ffffffffffffffffffffffffffffffffffffffff1673ffffffffffffffffffffffffffffffffffffffff1681526020019081526020015f205f600160ff1661ffff1681526020019081526020015f205f0160199054906101000a900461ffff16815f019061ffff16908161ffff1681525050825f0160189054906101000a900461ffff16816040019061ffff16908161ffff16815250816020019061ffff16908161ffff16815250505f61076d8d836109aa565b9050806020015169ffffffffffffffffffff16836020015169ffffffffffffffffffff16101580156107fa5750600260078111156107ae576107ad616518565b5b8160a0015160078111156107c5576107c4616518565b5b14806107f95750600560078111156107e0576107df616518565b5b8160a0015160078111156107f7576107f6616518565b5b145b5b1561088f5761081f8d61080c8f611223565b69ffffffffffffffffffff16858b6112a6565b835f0160189054906101000a900461ffff16826040019061ffff16908161ffff16815250826020019061ffff16908161ffff168152505061085f8d611223565b69ffffffffffffffffffff16826101200181815250506108818d848b8561134e565b9650965050505050506108a6565b61089a8d848b611929565b5f8b9650965050505050505b97509795505050505050565b5f6108bc83611be1565b6108c4610994565b63ffffffff166108d491906166e0565b905061038481106108ea576108e98383611c64565b5b505050565b5f610907836affffffffffffffffffffff1683612139565b905092915050565b5f8061091961221e565b90506064670de0b6b3a7640000826008015f8673ffffffffffffffffffffffffffffffffffffffff1673ffffffffffffffffffffffffffffffffffffffff1681526020019081526020015f206001015f9054906101000a900460ff1660ff166109829190616713565b61098c9190616781565b915050919050565b5f6362f6fc65426109a591906166e0565b905090565b6109b2615fa9565b600160ff16826040015161ffff1614610f73575f80600c015f8573ffffffffffffffffffffffffffffffffffffffff1673ffffffffffffffffffffffffffffffffffffffff1681526020019081526020015f205f846040015161ffff1661ffff1681526020019081526020015f2090505f80600b015f8673ffffffffffffffffffffffffffffffffffffffff1673ffffffffffffffffffffffffffffffffffffffff1681526020019081526020015f205f855f015161ffff1661ffff1681526020019081526020015f2090505f600160ff16855f015161ffff161490505f825f01600b9054906101000a900469ffffffffffffffffffff1669ffffffffffffffffffff16845f01600b9054906101000a900469ffffffffffffffffffff1669ffffffffffffffffffff161090508180610ae85750805b15610d305783604051806101800160405290815f82015f9054906101000a90046affffffffffffffffffffff166affffffffffffffffffffff166affffffffffffffffffffff1681526020015f8201600b9054906101000a900469ffffffffffffffffffff1669ffffffffffffffffffff1669ffffffffffffffffffff1681526020015f820160159054906101000a900461ffff1661ffff1661ffff1681526020015f820160179054906101000a900461ffff1661ffff1661ffff1681526020015f820160199054906101000a900461ffff1661ffff1661ffff1681526020015f8201601b9054906101000a900460ff166007811115610beb57610bea616518565b5b6007811115610bfd57610bfc616518565b5b81526020015f8201601c9054906101000a900463ffffffff1663ffffffff1663ffffffff168152602001600182015f9054906101000a900473ffffffffffffffffffffffffffffffffffffffff1673ffffffffffffffffffffffffffffffffffffffff1673ffffffffffffffffffffffffffffffffffffffff1681526020016001820160149054906101000a900460ff166007811115610ca057610c9f616518565b5b6007811115610cb257610cb1616518565b5b81526020016001820160159054906101000a900461ffff1661ffff1661ffff1681526020016001820160179054906101000a900460ff1660ff1660ff1681526020016001820160189054906101000a900467ffffffffffffffff1667ffffffffffffffff1667ffffffffffffffff168152505094505050505061121d565b82604051806101800160405290815f82015f9054906101000a90046affffffffffffffffffffff166affffffffffffffffffffff166affffffffffffffffffffff1681526020015f8201600b9054906101000a900469ffffffffffffffffffff1669ffffffffffffffffffff1669ffffffffffffffffffff1681526020015f820160159054906101000a900461ffff1661ffff1661ffff1681526020015f820160179054906101000a900461ffff1661ffff1661ffff1681526020015f820160199054906101000a900461ffff1661ffff1661ffff1681526020015f8201601b9054906101000a900460ff166007811115610e2e57610e2d616518565b5b6007811115610e4057610e3f616518565b5b81526020015f8201601c9054906101000a900463ffffffff1663ffffffff1663ffffffff168152602001600182015f9054906101000a900473ffffffffffffffffffffffffffffffffffffffff1673ffffffffffffffffffffffffffffffffffffffff1673ffffffffffffffffffffffffffffffffffffffff1681526020016001820160149054906101000a900460ff166007811115610ee357610ee2616518565b5b6007811115610ef557610ef4616518565b5b81526020016001820160159054906101000a900461ffff1661ffff1661ffff1681526020016001820160179054906101000a900460ff1660ff1660ff1681526020016001820160189054906101000a900467ffffffffffffffff1667ffffffffffffffff1667ffffffffffffffff168152505094505050505061121d565b600160ff16825f015161ffff161461121c575f600b015f8473ffffffffffffffffffffffffffffffffffffffff1673ffffffffffffffffffffffffffffffffffffffff1681526020019081526020015f205f835f015161ffff1661ffff1681526020019081526020015f20604051806101800160405290815f82015f9054906101000a90046affffffffffffffffffffff166affffffffffffffffffffff166affffffffffffffffffffff1681526020015f8201600b9054906101000a900469ffffffffffffffffffff1669ffffffffffffffffffff1669ffffffffffffffffffff1681526020015f820160159054906101000a900461ffff1661ffff1661ffff1681526020015f820160179054906101000a900461ffff1661ffff1661ffff1681526020015f820160199054906101000a900461ffff1661ffff1661ffff1681526020015f8201601b9054906101000a900460ff1660078111156110db576110da616518565b5b60078111156110ed576110ec616518565b5b81526020015f8201601c9054906101000a900463ffffffff1663ffffffff1663ffffffff168152602001600182015f9054906101000a900473ffffffffffffffffffffffffffffffffffffffff1673ffffffffffffffffffffffffffffffffffffffff1673ffffffffffffffffffffffffffffffffffffffff1681526020016001820160149054906101000a900460ff1660078111156111905761118f616518565b5b60078111156111a2576111a1616518565b5b81526020016001820160159054906101000a900461ffff1661ffff1661ffff1681526020016001820160179054906101000a900460ff1660ff1660ff1681526020016001820160189054906101000a900467ffffffffffffffff1667ffffffffffffffff1667ffffffffffffffff1681525050905061121d565b5b92915050565b5f8061122d61221e565b905080600a015f8473ffffffffffffffffffffffffffffffffffffffff1673ffffffffffffffffffffffffffffffffffffffff1681526020019081526020015f205f600160ff1661ffff1681526020019081526020015f205f015f9054906101000a90046affffffffffffffffffffff16915050919050565b5f83836020015169ffffffffffffffffffff16106112fc576611c37937e080006112f48586866020015169ffffffffffffffffffff166112e691906166e0565b61222290919063ffffffff16565b119050611336565b6611c37937e0800061133285856020015169ffffffffffffffffffff168761132491906166e0565b61222290919063ffffffff16565b1190505b8015611347576113468583611c64565b5b5050505050565b5f805f61135a8761090f565b90506113646160f1565b5b60011561191d57600160ff16855f015161ffff161480156113915750600160ff16856040015161ffff16145b156113f257816113ca886020015169ffffffffffffffffffff16895f01516affffffffffffffffffffff166108ef90919063ffffffff16565b106113db576113da888888611929565b5b6113e78888838861223e565b935093505050611920565b5f6113fd89876109aa565b9050806020015169ffffffffffffffffffff16886020015169ffffffffffffffffffff16106118ba575f61145a826020015169ffffffffffffffffffff168a5f01516affffffffffffffffffffff166108ef90919063ffffffff16565b036114775761146b8989848961223e565b94509450505050611920565b61148389828a85612adc565b805f01516affffffffffffffffffffff16885f01516affffffffffffffffffffff1611156115af57805f0151885f018181516114bf91906167b1565b9150906affffffffffffffffffffff1690816affffffffffffffffffffff16815250505f815f01906affffffffffffffffffffff1690816affffffffffffffffffffff168152505061151081612f1d565b156115685780606001518660c0019061ffff16908161ffff16815250508060400151866060019061ffff16908161ffff16815250506115575f600c018a8360600151612f51565b61156389828a89612fcc565b6115aa565b80606001518660a0019061ffff16908161ffff16815250506115925f600b018a8360600151612f51565b8060800151865f019061ffff16908161ffff16815250505b6118b5565b805f01516affffffffffffffffffffff16885f01516affffffffffffffffffffff160361165b576115df81612f1d565b1561162b5780606001518660c0019061ffff16908161ffff16815250508060400151866060019061ffff16908161ffff16815250506116265f600c018a8360600151612f51565b611656565b80606001518660a0019061ffff16908161ffff16815250506116555f600b018a8360600151612f51565b5b611878565b875f0151815f0181815161166f91906167b1565b9150906affffffffffffffffffffff1690816affffffffffffffffffffff168152505061169b81612f1d565b1561174e57806060015186610160019061ffff16908161ffff16815250505f80600c015f8b73ffffffffffffffffffffffffffffffffffffffff1673ffffffffffffffffffffffffffffffffffffffff1681526020019081526020015f205f836060015161ffff1661ffff1681526020019081526020015f209050815f0151815f015f6101000a8154816affffffffffffffffffffff02191690836affffffffffffffffffffff160217905550506117f3565b806060015186610140019061ffff16908161ffff1681525050805f01515f600b015f8b73ffffffffffffffffffffffffffffffffffffffff1673ffffffffffffffffffffffffffffffffffffffff1681526020019081526020015f205f836060015161ffff1661ffff1681526020019081526020015f205f015f6101000a8154816affffffffffffffffffffff02191690836affffffffffffffffffffff1602179055505b6118166706f05b59d3b200006118088b613250565b6132d690919063ffffffff16565b611849826020015169ffffffffffffffffffff16835f01516affffffffffffffffffffff166108ef90919063ffffffff16565b10611877575f86610140019061ffff16908161ffff1681525086610160019061ffff16908161ffff16815250505b5b5f885f01906affffffffffffffffffffff1690816affffffffffffffffffffff16815250506118a98989848961223e565b94509450505050611920565b611917565b826118ee896020015169ffffffffffffffffffff168a5f01516affffffffffffffffffffff166108ef90919063ffffffff16565b106118ff576118fe898989611929565b5b61190b8989848961223e565b94509450505050611920565b50611365565b50505b94509492505050565b5f61193261221e565b90505f6003600781111561194957611948616518565b5b8460a0015160078111156119605761195f616518565b5b0361196c575050611bdc565b5f82600a015f8773ffffffffffffffffffffffffffffffffffffffff1673ffffffffffffffffffffffffffffffffffffffff1681526020019081526020015f205f600160ff1661ffff1681526020019081526020015f205f0160199054906101000a900461ffff16905082600a015f8773ffffffffffffffffffffffffffffffffffffffff1673ffffffffffffffffffffffffffffffffffffffff1681526020019081526020015f205f8261ffff1661ffff1681526020019081526020015f205f01600b9054906101000a900469ffffffffffffffffffff1669ffffffffffffffffffff16856020015169ffffffffffffffffffff161180611a755750600160ff168161ffff16145b15611a8657600160ff169150611a97565b611a9483600a0187866132e9565b91505b611aa683600a018787856134c8565b5f836008015f8873ffffffffffffffffffffffffffffffffffffffff1673ffffffffffffffffffffffffffffffffffffffff1681526020019081526020015f205f01601f9054906101000a900460ff1660ff1690505f611b2f876020015169ffffffffffffffffffff16885f01516affffffffffffffffffffff16613c6690919063ffffffff16565b905080856007015f8481526020019081526020015f205f8960e0015173ffffffffffffffffffffffffffffffffffffffff1673ffffffffffffffffffffffffffffffffffffffff1681526020019081526020015f205f015f8282829054906101000a90046affffffffffffffffffffff16611baa91906167b1565b92506101000a8154816affffffffffffffffffffff02191690836affffffffffffffffffffff16021790555050505050505b505050565b5f80611beb61221e565b905080600a015f8473ffffffffffffffffffffffffffffffffffffffff1673ffffffffffffffffffffffffffffffffffffffff1681526020019081526020015f205f600160ff1661ffff1681526020019081526020015f205f01601c9054906101000a900463ffffffff1663ffffffff16915050919050565b5f611c6d61221e565b90505f611c7984613cd2565b90505f611c9b8573ffffffffffffffffffffffffffffffffffffffff16611223565b69ffffffffffffffffffff169050611cdb82611cb5610994565b8773ffffffffffffffffffffffffffffffffffffffff166140dc9092919063ffffffff16565b808203611cea57505050612135565b5f836008015f8773ffffffffffffffffffffffffffffffffffffffff1673ffffffffffffffffffffffffffffffffffffffff1681526020019081526020015f2090505f600160ff1685600c015f8973ffffffffffffffffffffffffffffffffffffffff1673ffffffffffffffffffffffffffffffffffffffff1681526020019081526020015f205f600160ff1661ffff1681526020019081526020015f205f0160199054906101000a900461ffff1661ffff161490508015611dcd57600160ff16825f0160186101000a81548161ffff021916908361ffff16021790555061212f565b5f805f90505b87518110156120fc57878181518110611def57611dee6167ef565b5b602002602001015191508060010190505f87600c015f8b73ffffffffffffffffffffffffffffffffffffffff1673ffffffffffffffffffffffffffffffffffffffff1681526020019081526020015f205f8461ffff1661ffff1681526020019081526020015f2090505f815f01601b9054906101000a900460ff16905060066007811115611e8057611e7f616518565b5b816007811115611e9357611e92616518565b5b1480611ec25750600780811115611ead57611eac616518565b5b816007811115611ec057611ebf616518565b5b145b80611ef057505f6007811115611edb57611eda616518565b5b816007811115611eee57611eed616518565b5b145b15611efc5750506120f7565b505f815f01600b9054906101000a900469ffffffffffffffffffff1690505f825f0160159054906101000a900461ffff1690505f8a600c015f8e73ffffffffffffffffffffffffffffffffffffffff1673ffffffffffffffffffffffffffffffffffffffff1681526020019081526020015f205f8361ffff1661ffff1681526020019081526020015f205f01600b9054906101000a900469ffffffffffffffffffff1690505f611fbd670df27a2cdf4480008c6132d690919063ffffffff16565b8469ffffffffffffffffffff1611158015611fe457508a8269ffffffffffffffffffff1610155b90505f8b8569ffffffffffffffffffff161015801561200e57508b8369ffffffffffffffffffff16105b90505f8c8669ffffffffffffffffffff161080156120445750600160ff16875f0160199054906101000a900461ffff1661ffff16145b9050811561207d57888b5f0160186101000a81548161ffff021916908361ffff1602179055505050505050505050505050505050612135565b82156120b457848b5f0160186101000a81548161ffff021916908361ffff1602179055505050505050505050505050505050612135565b80156120ef57600160ff168b5f0160186101000a81548161ffff021916908361ffff1602179055505050505050505050505050505050612135565b505050505050505b611dd3565b506040517f053c10c300000000000000000000000000000000000000000000000000000000815260040160405180910390fd5b50505050505b5050565b5f805f80198486098486029250828110838203039150505f810361217957670de0b6b3a7640000828161216f5761216e616754565b5b0492505050612218565b670de0b6b3a764000081106121c75784846040517f5173648d0000000000000000000000000000000000000000000000000000000081526004016121be92919061682b565b60405180910390fd5b5f670de0b6b3a764000085870990507faccb18165bd6fe31ae1cf318dc5b51eee0e1ba569b88cd74c1773b91fac10669600162040000805f0304018483118403026204000083860304170293505050505b92915050565b5f90565b5f61223683670de0b6b3a7640000846141f4565b905092915050565b5f805f845f01516affffffffffffffffffffff1603612265575f855f015191509150612ad3565b5f806008015f8873ffffffffffffffffffffffffffffffffffffffff1673ffffffffffffffffffffffffffffffffffffffff1681526020019081526020015f2090505f815f01601f9054906101000a900460ff1660ff1690506122c88886614306565b5f85610140015161ffff16111561234b573073ffffffffffffffffffffffffffffffffffffffff1663ae18d6ce898761014001516040518363ffffffff1660e01b8152600401612319929190616870565b5f604051808303815f87803b158015612330575f80fd5b505af1158015612342573d5f803e3d5ffd5b505050506123cb565b5f85610160015161ffff1611156123ca573073ffffffffffffffffffffffffffffffffffffffff1663bc47cc08898761016001516040518363ffffffff1660e01b815260040161239c929190616870565b5f604051808303815f87803b1580156123b3575f80fd5b505af11580156123c5573d5f803e3d5ffd5b505050505b5b5f8660a001516affffffffffffffffffffff16111561289a575f806005015f8381526020019081526020015f20905086606001516affffffffffffffffffffff16816002015f8282829054906101000a90046fffffffffffffffffffffffffffffffff1661243991906168b2565b92506101000a8154816fffffffffffffffffffffffffffffffff02191690836fffffffffffffffffffffffffffffffff1602179055508660a00151815f015f8282829054906101000a90046affffffffffffffffffffff1661249b91906168f5565b92506101000a8154816affffffffffffffffffffff02191690836affffffffffffffffffffff1602179055508660a00151835f01600d8282829054906101000a90046affffffffffffffffffffff166124f491906168f5565b92506101000a8154816affffffffffffffffffffff02191690836affffffffffffffffffffff1602179055508660c0015187602001516affffffffffffffffffffff16612541919061694a565b6bffffffffffffffffffffffff16835f015f8282829054906101000a90046cffffffffffffffffffffffffff1661257891906169a1565b92506101000a8154816cffffffffffffffffffffffffff02191690836cffffffffffffffffffffffffff1602179055505f80600c015f8b73ffffffffffffffffffffffffffffffffffffffff1673ffffffffffffffffffffffffffffffffffffffff1681526020019081526020015f205f886040015161ffff1661ffff1681526020019081526020015f2090505f815f01601b9054906101000a900460ff1690505f80600c015f8d73ffffffffffffffffffffffffffffffffffffffff1673ffffffffffffffffffffffffffffffffffffffff1681526020019081526020015f205f8a6060015161ffff1661ffff1681526020019081526020015f2090505f815f01601b9054906101000a900460ff1690506006600781111561269e5761269d616518565b5b8360078111156126b1576126b0616518565b5b141580156126e357506007808111156126cd576126cc616518565b5b8360078111156126e0576126df616518565b5b14155b1561270f578960400151875f0160186101000a81548161ffff021916908361ffff160217905550612894565b6006600781111561272357612722616518565b5b81600781111561273657612735616518565b5b14158015612768575060078081111561275257612751616518565b5b81600781111561276557612764616518565b5b14155b801561279e5750896101200151825f01600b9054906101000a900469ffffffffffffffffffff1669ffffffffffffffffffff1610155b156127ca578960600151875f0160186101000a81548161ffff021916908361ffff160217905550612893565b8961010001511561280957835f0160199054906101000a900461ffff16875f0160186101000a81548161ffff021916908361ffff160217905550612892565b5f600c015f8e73ffffffffffffffffffffffffffffffffffffffff1673ffffffffffffffffffffffffffffffffffffffff1681526020019081526020015f205f8b6020015161ffff1661ffff1681526020019081526020015f205f0160199054906101000a900461ffff16875f0160186101000a81548161ffff021916908361ffff1602179055505b5b5b50505050505b5f8760e001519050865f01515f6007015f8481526020019081526020015f205f8373ffffffffffffffffffffffffffffffffffffffff1673ffffffffffffffffffffffffffffffffffffffff1681526020019081526020015f205f015f8282829054906101000a90046affffffffffffffffffffff1661291a91906167b1565b92506101000a8154816affffffffffffffffffffff02191690836affffffffffffffffffffff16021790555086602001516affffffffffffffffffffff165f6009015f8b73ffffffffffffffffffffffffffffffffffffffff1673ffffffffffffffffffffffffffffffffffffffff1681526020019081526020015f205f8373ffffffffffffffffffffffffffffffffffffffff1673ffffffffffffffffffffffffffffffffffffffff1681526020019081526020015f205f015f8282829054906101000a90046cffffffffffffffffffffffffff166129fa91906169a1565b92506101000a8154816cffffffffffffffffffffffffff02191690836cffffffffffffffffffffffffff1602179055508760a001516007811115612a4157612a40616518565b5b8173ffffffffffffffffffffffffffffffffffffffff168a73ffffffffffffffffffffffffffffffffffffffff167f1140e445b15f25d17f29961cc427972f8a2fe6c255e4a15a370e17620206fb828b606001518b5f01518c60200151604051612aad939291906169e1565b60405180910390a4612ac3898860800151614447565b865f0151885f0151945094505050505b94509492505050565b5f835f01516affffffffffffffffffffff16835f01516affffffffffffffffffffff1611612b0d57825f0151612b12565b835f01515b90505f612b45826affffffffffffffffffffff16866020015169ffffffffffffffffffff1661468e90919063ffffffff16565b905060056007811115612b5b57612b5a616518565b5b8560a001516007811115612b7257612b71616518565b5b03612d49575f612ba5612b898761012001516146f7565b836affffffffffffffffffffff16613c6690919063ffffffff16565b9050612bb387878684614723565b5f8183612bc091906168f5565b9050808560a001818151612bd491906168f5565b9150906affffffffffffffffffffff1690816affffffffffffffffffffff16815250508460e00151612cf1575f806008015f8a73ffffffffffffffffffffffffffffffffffffffff1673ffffffffffffffffffffffffffffffffffffffff1681526020019081526020015f20905060018660e00190151590811515815250508060010160099054906101000a900467ffffffffffffffff1686610120019067ffffffffffffffff16908167ffffffffffffffff16815250505f6005015f825f01601f9054906101000a900460ff1660ff1681526020019081526020015f205f0160169054906101000a900469ffffffffffffffffffff1686610100019069ffffffffffffffffffff16908169ffffffffffffffffffff1681525050505b5f875f01516affffffffffffffffffffff16875f01516affffffffffffffffffffff1610612d1e57600190505b612d41898960e001518a610140015184868a8c61012001518d61010001516148b7565b505050612e84565b805f6007015f806008015f8a73ffffffffffffffffffffffffffffffffffffffff1673ffffffffffffffffffffffffffffffffffffffff1681526020019081526020015f205f01601f9054906101000a900460ff1660ff1681526020019081526020015f205f8760e0015173ffffffffffffffffffffffffffffffffffffffff1673ffffffffffffffffffffffffffffffffffffffff1681526020019081526020015f205f015f8282829054906101000a90046affffffffffffffffffffff16612e1391906168f5565b92506101000a8154816affffffffffffffffffffff02191690836affffffffffffffffffffff160217905550816affffffffffffffffffffff168360c001818151612e5e9190616a16565b9150906bffffffffffffffffffffffff1690816bffffffffffffffffffffffff16815250505b8183602001818151612e9691906168f5565b9150906affffffffffffffffffffff1690816affffffffffffffffffffff168152505080835f01818151612eca91906168f5565b9150906affffffffffffffffffffff1690816affffffffffffffffffffff16815250508460200151836080019069ffffffffffffffffffff16908169ffffffffffffffffffff1681525050505050505050565b5f60056007811115612f3257612f31616518565b5b8260a001516007811115612f4957612f48616518565b5b149050919050565b5f835f8473ffffffffffffffffffffffffffffffffffffffff1673ffffffffffffffffffffffffffffffffffffffff1681526020019081526020015f205f600160ff1661ffff1681526020019081526020015f205f0160159054906101000a900461ffff169050612fc6848484846007614b21565b50505050565b5f80600c015f8673ffffffffffffffffffffffffffffffffffffffff1673ffffffffffffffffffffffffffffffffffffffff1681526020019081526020015f205f836060015161ffff1661ffff1681526020019081526020015f205f01600b9054906101000a900469ffffffffffffffffffff1690508161012001518169ffffffffffffffffffff16101580156130665750816101000151155b156130995760018260e00190151590811515815250508160600151826040019061ffff16908161ffff1681525050613249565b8161012001518169ffffffffffffffffffff161080156130bc5750816101000151155b15613223578160600151826080019061ffff16908161ffff16815250505f600c015f8673ffffffffffffffffffffffffffffffffffffffff1673ffffffffffffffffffffffffffffffffffffffff1681526020019081526020015f205f836020015161ffff1661ffff1681526020019081526020015f205f0160199054906101000a900461ffff16826040019061ffff16908161ffff16815250505f80600c015f8773ffffffffffffffffffffffffffffffffffffffff1673ffffffffffffffffffffffffffffffffffffffff1681526020019081526020015f205f866080015161ffff1661ffff1681526020019081526020015f209050600160ff16836040015161ffff16141580156132055750836020015169ffffffffffffffffffff16815f01600b9054906101000a900469ffffffffffffffffffff1669ffffffffffffffffffff1611155b1561321d576001836101000190151590811515815250505b50613248565b81610100015115613247578360800151826040019061ffff16908161ffff16815250505b5b5b5050505050565b5f8061325a61221e565b90506064670de0b6b3a7640000826008015f8673ffffffffffffffffffffffffffffffffffffffff1673ffffffffffffffffffffffffffffffffffffffff1681526020019081526020015f2060010160019054906101000a900460ff1660ff166132c49190616713565b6132ce9190616781565b915050919050565b5f6132e18383612139565b905092915050565b5f805f5b835181101561347b575f84828151811061330a576133096167ef565b5b602002602001015190505f875f8873ffffffffffffffffffffffffffffffffffffffff1673ffffffffffffffffffffffffffffffffffffffff1681526020019081526020015f205f835f015161ffff1661ffff1681526020019081526020015f2090505f815f01601b9054906101000a900460ff1690506006600781111561339557613394616518565b5b8160078111156133a8576133a7616518565b5b14806133d757506007808111156133c2576133c1616518565b5b8160078111156133d5576133d4616518565b5b145b156133e457505050613468565b8260200151825f01601c9054906101000a900463ffffffff1663ffffffff160361341857825f0151955050505050506134c1565b8415801561345a575060078081111561343457613433616518565b5b8260010160149054906101000a900460ff16600781111561345857613457616518565b5b145b1561346457600194505b5050505b808061347390616a55565b9150506132ed565b50801561348f57600160ff169150506134c1565b6040517f0870870400000000000000000000000000000000000000000000000000000000815260040160405180910390fd5b9392505050565b5f6134d161221e565b90505f6134e086868686614d0e565b90505f865f8773ffffffffffffffffffffffffffffffffffffffff1673ffffffffffffffffffffffffffffffffffffffff1681526020019081526020015f205f8361ffff1661ffff1681526020019081526020015f205f0160199054906101000a900461ffff16905081856040019061ffff16908161ffff168152505080856080019061ffff16908161ffff16815250505f856060015190505f885f8973ffffffffffffffffffffffffffffffffffffffff1673ffffffffffffffffffffffffffffffffffffffff1681526020019081526020015f205f600160ff1661ffff1681526020019081526020015f205f0160159054906101000a900461ffff169050600160ff168161ffff16146137fd57885f8973ffffffffffffffffffffffffffffffffffffffff1673ffffffffffffffffffffffffffffffffffffffff1681526020019081526020015f205f8261ffff1661ffff1681526020019081526020015f205f01601b9054906101000a900460ff16876101000190600781111561366a57613669616518565b5b9081600781111561367e5761367d616518565b5b815250505f895f8a73ffffffffffffffffffffffffffffffffffffffff1673ffffffffffffffffffffffffffffffffffffffff1681526020019081526020015f205f8361ffff1661ffff1681526020019081526020015f205f0160159054906101000a900461ffff169050600160ff168161ffff161461376d57808a5f8b73ffffffffffffffffffffffffffffffffffffffff1673ffffffffffffffffffffffffffffffffffffffff1681526020019081526020015f205f600160ff1661ffff1681526020019081526020015f205f0160156101000a81548161ffff021916908361ffff1602179055506137e2565b600160ff168a5f8b73ffffffffffffffffffffffffffffffffffffffff1673ffffffffffffffffffffffffffffffffffffffff1681526020019081526020015f205f600160ff1661ffff1681526020019081526020015f205f0160156101000a81548161ffff021916908361ffff1602179055505b81886060019061ffff16908161ffff16815250925050613877565b6001856008015f8a73ffffffffffffffffffffffffffffffffffffffff1673ffffffffffffffffffffffffffffffffffffffff1681526020019081526020015f205f01601a8282829054906101000a900461ffff1661385c9190616a9c565b92506101000a81548161ffff021916908361ffff1602179055505b86895f8a73ffffffffffffffffffffffffffffffffffffffff1673ffffffffffffffffffffffffffffffffffffffff1681526020019081526020015f205f8461ffff1661ffff1681526020019081526020015f205f820151815f015f6101000a8154816affffffffffffffffffffff02191690836affffffffffffffffffffff1602179055506020820151815f01600b6101000a81548169ffffffffffffffffffff021916908369ffffffffffffffffffff1602179055506040820151815f0160156101000a81548161ffff021916908361ffff1602179055506060820151815f0160176101000a81548161ffff021916908361ffff1602179055506080820151815f0160196101000a81548161ffff021916908361ffff16021790555060a0820151815f01601b6101000a81548160ff021916908360078111156139bf576139be616518565b5b021790555060c0820151815f01601c6101000a81548163ffffffff021916908363ffffffff16021790555060e0820151816001015f6101000a81548173ffffffffffffffffffffffffffffffffffffffff021916908373ffffffffffffffffffffffffffffffffffffffff1602179055506101008201518160010160146101000a81548160ff02191690836007811115613a5c57613a5b616518565b5b02179055506101208201518160010160156101000a81548161ffff021916908361ffff1602179055506101408201518160010160176101000a81548160ff021916908360ff1602179055506101608201518160010160186101000a81548167ffffffffffffffff021916908367ffffffffffffffff160217905550905050600160ff168361ffff1614613b5e578660600151895f8a73ffffffffffffffffffffffffffffffffffffffff1673ffffffffffffffffffffffffffffffffffffffff1681526020019081526020015f205f8561ffff1661ffff1681526020019081526020015f205f0160156101000a81548161ffff021916908361ffff1602179055505b8660600151895f8a73ffffffffffffffffffffffffffffffffffffffff1673ffffffffffffffffffffffffffffffffffffffff1681526020019081526020015f205f8661ffff1661ffff1681526020019081526020015f205f0160196101000a81548161ffff021916908361ffff1602179055508660a001516007811115613be957613be8616518565b5b8760e0015173ffffffffffffffffffffffffffffffffffffffff168973ffffffffffffffffffffffffffffffffffffffff167f464d814951bd2dcbcab73412ca99e1ec43435c5f9d3115eba8f8d475edf7dfcd8a606001518b5f0151604051613c53929190616ad1565b60405180910390a4505050505050505050565b5f80613c7f846affffffffffffffffffffff1684612139565b90506affffffffffffffffffffff8016811115613cc8576040517f2c5211c600000000000000000000000000000000000000000000000000000000815260040160405180910390fd5b8091505092915050565b5f80613cdc61221e565b90505f816002015f9054906101000a900473ffffffffffffffffffffffffffffffffffffffff1690505f613d0f85611223565b69ffffffffffffffffffff1690505f836008015f8773ffffffffffffffffffffffffffffffffffffffff1673ffffffffffffffffffffffffffffffffffffffff1681526020019081526020015f206002015f9054906101000a900473ffffffffffffffffffffffffffffffffffffffff1690505f73ffffffffffffffffffffffffffffffffffffffff168173ffffffffffffffffffffffffffffffffffffffff1603613de7576040517fc891add200000000000000000000000000000000000000000000000000000000815260040160405180910390fd5b8273ffffffffffffffffffffffffffffffffffffffff1663feaf968c6040518163ffffffff1660e01b815260040160a060405180830381865afa925050508015613e4f57506040513d601f19601f82011682018060405250810190613e4c9190616b53565b60015b613fac578273ffffffffffffffffffffffffffffffffffffffff168173ffffffffffffffffffffffffffffffffffffffff1603613e9957613e8e614edf565b9450505050506140d7565b5f805f8373ffffffffffffffffffffffffffffffffffffffff1663feaf968c6040518163ffffffff1660e01b815260040160a060405180830381865afa158015613ee5573d5f803e3d5ffd5b505050506040513d601f19601f82011682018060405250810190613f099190616b53565b50935050925092505f8369ffffffffffffffffffff161480613f2a57505f82145b80613f3457504281115b15613f6a576040517ebfc92100000000000000000000000000000000000000000000000000000000815260040160405180910390fd5b5f613f73614edf565b90505f613f99826402540be40086613f8b9190616bca565b6132d690919063ffffffff16565b90508099505050505050505050506140d7565b8773ffffffffffffffffffffffffffffffffffffffff168673ffffffffffffffffffffffffffffffffffffffff160361402a575f808513613fed575f614007565b6140066402540be400866140019190616bca565b6150c1565b5b905061401688878786856150e9565b9050809a50505050505050505050506140d7565b5f805f8873ffffffffffffffffffffffffffffffffffffffff1663feaf968c6040518163ffffffff1660e01b815260040160a060405180830381865afa158015614076573d5f803e3d5ffd5b505050506040513d601f19601f8201168201806040525081019061409a9190616b53565b50935050925092505f6140b6888461222290919063ffffffff16565b90506140c6848a858b868b61539d565b809d50505050505050505050505050505b919050565b5f6140e561221e565b90508269ffffffffffffffffffff1681600a015f8673ffffffffffffffffffffffffffffffffffffffff1673ffffffffffffffffffffffffffffffffffffffff1681526020019081526020015f205f600160ff1661ffff1681526020019081526020015f205f015f6101000a8154816affffffffffffffffffffff02191690836affffffffffffffffffffff1602179055508181600a015f8673ffffffffffffffffffffffffffffffffffffffff1673ffffffffffffffffffffffffffffffffffffffff1681526020019081526020015f205f600160ff1661ffff1681526020019081526020015f205f01601c6101000a81548163ffffffff021916908363ffffffff16021790555050505050565b5f805f80198587098587029250828110838203039150505f810361422c5783828161422257614221616754565b5b04925050506142ff565b838110614274578585856040517f63a0577800000000000000000000000000000000000000000000000000000000815260040161426b93929190616c40565b60405180910390fd5b5f8486880990508281118203915080830392505f6001861901861690505f81870496508185049450600182835f0304019050808402851794505f60028860030218905080880260020381029050808802600203810290508088026002038102905080880260020381029050808802600203810290508088026002038102905080860296505050505050505b9392505050565b5f61430f61221e565b90505f8260a0015161ffff16146143385761433781600b0184600160ff168560a00151615443565b5b5f8260c0015161ffff1614614442578160e0015115801561435c5750816101000151155b1561437d5761437881600c018484606001518560c00151615443565b614441565b8160e0015115801561439157508161010001515b156143b2576143ad81600c018484608001518560c00151615443565b614440565b8160e0015180156143c65750816101000151155b156143e7576143e281600c018484606001518560200151615443565b61443f565b8160e0015180156143fa57508161010001515b1561443e575f826080015161ffff16836060015161ffff1614614421578260c00151614427565b82602001515b905061443c82600c0185856080015184615443565b505b5b5b5b5b505050565b5f61445061221e565b90505f816008015f8573ffffffffffffffffffffffffffffffffffffffff1673ffffffffffffffffffffffffffffffffffffffff1681526020019081526020015f205f01601f9054906101000a900460ff1660ff1690505f826005015f8381526020019081526020015f2090505f6144c786611223565b69ffffffffffffffffffff1690505f6144fd670e043da6172500008769ffffffffffffffffffff166155a190919063ffffffff16565b8211905080156145c7575f614552662386f26fc1000061454d614540868b69ffffffffffffffffffff168861453291906166e0565b61222290919063ffffffff16565b668e1bc9bf0400006155c0565b6155d8565b90506145a3614571668e1bc9bf0400008361222290919063ffffffff16565b85600101600b9054906101000a900461ffff166127106145919190616c75565b61ffff166155f090919063ffffffff16565b84600101600f6101000a81548161ffff021916908361ffff1602179055505061461f565b5f8061ffff1684600101600f9054906101000a900461ffff1661ffff16141590508015614612575f84600101600f6101000a81548161ffff021916908361ffff16021790555061461d565b50505050505061468a565b505b3073ffffffffffffffffffffffffffffffffffffffff16629d26aa856040518263ffffffff1660e01b81526004016146579190616caa565b5f604051808303815f87803b15801561466e575f80fd5b505af1158015614680573d5f803e3d5ffd5b5050505050505050505b5050565b5f806146a68469ffffffffffffffffffff1684612139565b905069ffffffffffffffffffff80168111156146ed576040517ebfc92100000000000000000000000000000000000000000000000000000000815260040160405180910390fd5b8091505092915050565b5f6064670de0b6b3a76400008361ffff166147129190616713565b61471c9190616781565b9050919050565b5f61472c61221e565b90505f8460c0015161473c610994565b6147469190616cd2565b9050621275008163ffffffff1611156148af575f62015180826147699190616d09565b63ffffffff168461477a9190616d39565b9050808560600181815161478e91906168f5565b9150906affffffffffffffffffffff1690816affffffffffffffffffffff16815250505f836008015f8973ffffffffffffffffffffffffffffffffffffffff1673ffffffffffffffffffffffffffffffffffffffff1681526020019081526020015f205f01601f9054906101000a900460ff1660ff16905081846007015f8381526020019081526020015f205f8960e0015173ffffffffffffffffffffffffffffffffffffffff1673ffffffffffffffffffffffffffffffffffffffff1681526020019081526020015f205f01600b8282829054906101000a90046affffffffffffffffffffff1661488091906168f5565b92506101000a8154816affffffffffffffffffffff02191690836affffffffffffffffffffff16021790555050505b505050505050565b5f6148c061221e565b90505f81600d015f8b73ffffffffffffffffffffffffffffffffffffffff1673ffffffffffffffffffffffffffffffffffffffff1681526020019081526020015f205f8a73ffffffffffffffffffffffffffffffffffffffff1673ffffffffffffffffffffffffffffffffffffffff1681526020019081526020015f205f8960ff1660ff1681526020019081526020015f20905060028081111561496757614966616518565b5b816001015f9054906101000a900460ff16600281111561498a57614989616518565b5b03614a765784815f01600b6101000a8154816affffffffffffffffffffff02191690836affffffffffffffffffffff160217905550838160010160046101000a81548167ffffffffffffffff021916908367ffffffffffffffff16021790555085815f015f6101000a8154816affffffffffffffffffffff02191690836affffffffffffffffffffff16021790555082815f0160166101000a81548169ffffffffffffffffffff021916908369ffffffffffffffffffff160217905550614a4f610994565b81600101600c6101000a81548163ffffffff021916908363ffffffff160217905550614aea565b5f614aa18567ffffffffffffffff16876affffffffffffffffffffff166108ef90919063ffffffff16565b90505f614ad08569ffffffffffffffffffff16896affffffffffffffffffffff166108ef90919063ffffffff16565b9050614ae78388848b85614ae2610994565b61564a565b50505b86816001015f6101000a81548160ff02191690836002811115614b1057614b0f616518565b5b021790555050505050505050505050565b80855f8673ffffffffffffffffffffffffffffffffffffffff1673ffffffffffffffffffffffffffffffffffffffff1681526020019081526020015f205f8561ffff1661ffff1681526020019081526020015f205f01601b6101000a81548160ff02191690836007811115614b9957614b98616518565b5b021790555082855f8673ffffffffffffffffffffffffffffffffffffffff1673ffffffffffffffffffffffffffffffffffffffff1681526020019081526020015f205f600160ff1661ffff1681526020019081526020015f205f0160156101000a81548161ffff021916908361ffff160217905550600160ff168261ffff1614614c925781855f8673ffffffffffffffffffffffffffffffffffffffff1673ffffffffffffffffffffffffffffffffffffffff1681526020019081526020015f205f8561ffff1661ffff1681526020019081526020015f205f0160156101000a81548161ffff021916908361ffff160217905550614d07565b600160ff16855f8673ffffffffffffffffffffffffffffffffffffffff1673ffffffffffffffffffffffffffffffffffffffff1681526020019081526020015f205f8561ffff1661ffff1681526020019081526020015f205f0160156101000a81548161ffff021916908361ffff1602179055505b5050505050565b5f80855f8673ffffffffffffffffffffffffffffffffffffffff1673ffffffffffffffffffffffffffffffffffffffff1681526020019081526020015f205f8461ffff1661ffff1681526020019081526020015f205f0160199054906101000a900461ffff1690505f8361ffff161480614d8b57505f8161ffff16145b15614dbe57614db6868660018060ff16886020015169ffffffffffffffffffff168960a001516158bc565b915050614ed7565b5f614de1878786886020015169ffffffffffffffffffff16868a60a001516159f5565b90505f8103614df4578392505050614ed7565b60018103614e2857614e1f8787600185896020015169ffffffffffffffffffff168a60a001516158bc565b92505050614ed7565b5f875f8873ffffffffffffffffffffffffffffffffffffffff1673ffffffffffffffffffffffffffffffffffffffff1681526020019081526020015f205f8661ffff1661ffff1681526020019081526020015f205f0160159054906101000a900461ffff169050614ed188887fffffffffffffffffffffffffffffffffffffffffffffffffffffffffffffffff848a6020015169ffffffffffffffffffff168b60a001516158bc565b93505050505b949350505050565b5f803073ffffffffffffffffffffffffffffffffffffffff16630b545214670de0b6b3a76400006107086040518363ffffffff1660e01b8152600401614f26929190616dc6565b602060405180830381865afa158015614f41573d5f803e3d5ffd5b505050506040513d601f19601f82011682018060405250810190614f659190616ded565b90505f8103614fa0576040517fca91730a00000000000000000000000000000000000000000000000000000000815260040160405180910390fd5b5f73c02aaa39b223fe8d0a0e5c4f27ead9083c756cc290505f8173ffffffffffffffffffffffffffffffffffffffff166370a082317388e6a0c2ddd26feeb64f039a2c41296fcb3f56406040518263ffffffff1660e01b81526004016150069190616e18565b602060405180830381865afa158015615021573d5f803e3d5ffd5b505050506040513d601f19601f820116820180604052508101906150459190616ded565b905068056bc75e2d6310000081101561508a576040517f05f4eec200000000000000000000000000000000000000000000000000000000815260040160405180910390fd5b5f620f4240670de0b6b3a76400006150a29190616781565b846150ad9190616713565b90506150b8816150c1565b94505050505090565b5f816ec097ce7bc90715b34b9f1000000000816150e1576150e0616754565b5b049050919050565b5f805f8669ffffffffffffffffffff16148061510457505f84145b8061510e57504284115b8061511957505f8513155b80615130575083611c2061512d9190616e31565b42115b90505f87841161514b57838861514691906166e0565b615158565b878461515791906166e0565b5b90505f808911801561518357506706f05b59d3b200006151818a8461222290919063ffffffff16565b115b9050821561519d57615193614edf565b9350505050615394565b801561538d573073ffffffffffffffffffffffffffffffffffffffff16630b545214670de0b6b3a76400006107086040518363ffffffff1660e01b81526004016151e8929190616dc6565b602060405180830381865afa92505050801561522257506040513d601f19601f8201168201806040525081019061521f9190616ded565b60015b61523157849350505050615394565b5f81036152445785945050505050615394565b5f620f4240670de0b6b3a764000061525c9190616781565b826152679190616713565b90505f615273826150c1565b90505f8c821161528e57818d61528991906166e0565b61529b565b8c8261529a91906166e0565b5b90508086116152b35788975050505050505050615394565b5f73c02aaa39b223fe8d0a0e5c4f27ead9083c756cc290505f8173ffffffffffffffffffffffffffffffffffffffff166370a082317388e6a0c2ddd26feeb64f039a2c41296fcb3f56406040518263ffffffff1660e01b81526004016153199190616e18565b602060405180830381865afa158015615334573d5f803e3d5ffd5b505050506040513d601f19601f820116820180604052508101906153589190616ded565b905068056bc75e2d6310000081101561537c578a9950505050505050505050615394565b839950505050505050505050615394565b8493505050505b95945050505050565b5f808769ffffffffffffffffffff1614806153b757505f83145b806153c157504283115b806153cc57505f8513155b806153e257505f8669ffffffffffffffffffff16145b806153ec57505f82145b806153f657504282115b8061540157505f8413155b9050801561543a576040517ebfc92100000000000000000000000000000000000000000000000000000000815260040160405180910390fd5b50505050505050565b5f845f8573ffffffffffffffffffffffffffffffffffffffff1673ffffffffffffffffffffffffffffffffffffffff1681526020019081526020015f205f8361ffff1661ffff1681526020019081526020015f205f0160199054906101000a900461ffff169050600160ff168161ffff161461552a5782855f8673ffffffffffffffffffffffffffffffffffffffff1673ffffffffffffffffffffffffffffffffffffffff1681526020019081526020015f205f8361ffff1661ffff1681526020019081526020015f205f0160156101000a81548161ffff021916908361ffff1602179055505b80855f8673ffffffffffffffffffffffffffffffffffffffff1673ffffffffffffffffffffffffffffffffffffffff1681526020019081526020015f205f8561ffff1661ffff1681526020019081526020015f205f0160196101000a81548161ffff021916908361ffff1602179055505050505050565b5f6155b88369ffffffffffffffffffff1683612139565b905092915050565b5f8183106155ce57816155d0565b825b905092915050565b5f8183116155e657816155e8565b825b905092915050565b5f806156008461ffff1684612139565b905061ffff8016811115615640576040517f2c5211c600000000000000000000000000000000000000000000000000000000815260040160405180910390fd5b8091505092915050565b6156a68660010160049054906101000a900467ffffffffffffffff1667ffffffffffffffff16875f01600b9054906101000a90046affffffffffffffffffffff166affffffffffffffffffffff166108ef90919063ffffffff16565b846156b19190616e31565b935084865f01600b8282829054906101000a90046affffffffffffffffffffff166156dc91906168f5565b92506101000a8154816affffffffffffffffffffff02191690836affffffffffffffffffffff160217905550615742865f01600b9054906101000a90046affffffffffffffffffffff166affffffffffffffffffffff1685615abb90919063ffffffff16565b8660010160046101000a81548167ffffffffffffffff021916908367ffffffffffffffff1602179055506157ca865f0160169054906101000a900469ffffffffffffffffffff1669ffffffffffffffffffff16875f015f9054906101000a90046affffffffffffffffffffff166affffffffffffffffffffff166108ef90919063ffffffff16565b826157d59190616e31565b915082865f015f8282829054906101000a90046affffffffffffffffffffff166157ff91906168f5565b92506101000a8154816affffffffffffffffffffff02191690836affffffffffffffffffffff160217905550615864865f015f9054906101000a90046affffffffffffffffffffff166affffffffffffffffffffff1683615b2090919063ffffffff16565b865f0160166101000a81548169ffffffffffffffffffff021916908369ffffffffffffffffffff1602179055508086600101600c6101000a81548163ffffffff021916908363ffffffff160217905550505050505050565b5f5b6001156159ea575f875f8873ffffffffffffffffffffffffffffffffffffffff1673ffffffffffffffffffffffffffffffffffffffff1681526020019081526020015f205f8661ffff1661ffff1681526020019081526020015f205f0160199054906101000a900461ffff1690505f61593b8989888886896159f5565b0361594957849150506159eb565b7fffffffffffffffffffffffffffffffffffffffffffffffffffffffffffffffff86036159e0575f885f8973ffffffffffffffffffffffffffffffffffffffff1673ffffffffffffffffffffffffffffffffffffffff1681526020019081526020015f205f8761ffff1661ffff1681526020019081526020015f205f0160159054906101000a900461ffff169050809550506159e4565b8094505b506158be565b5b9695505050505050565b5f6159ff82615b87565b915060026007811115615a1557615a14616518565b5b826007811115615a2857615a27616518565b5b1480615a58575060056007811115615a4357615a42616518565b5b826007811115615a5657615a55616518565b5b145b15615a7157615a6a8787878787615c8d565b9050615ab1565b60016007811115615a8557615a84616518565b5b826007811115615a9857615a97616518565b5b03615ab057615aa986868686615e11565b9050615ab1565b5b9695505050505050565b5f80615ad084670de0b6b3a7640000856141f4565b905067ffffffffffffffff8016811115615b16576040517f2c5211c600000000000000000000000000000000000000000000000000000000815260040160405180910390fd5b8091505092915050565b5f80615b3584670de0b6b3a7640000856141f4565b905069ffffffffffffffffffff8016811115615b7d576040517f2c5211c600000000000000000000000000000000000000000000000000000000815260040160405180910390fd5b8091505092915050565b5f60016007811115615b9c57615b9b616518565b5b826007811115615baf57615bae616518565b5b1480615bdf575060036007811115615bca57615bc9616518565b5b826007811115615bdd57615bdc616518565b5b145b15615bed5760019050615c88565b60026007811115615c0157615c00616518565b5b826007811115615c1457615c13616518565b5b1480615c44575060046007811115615c2f57615c2e616518565b5b826007811115615c4257615c41616518565b5b145b15615c525760029050615c88565b60056007811115615c6657615c65616518565b5b826007811115615c7957615c78616518565b5b03615c875760059050615c88565b5b919050565b5f8083875f8873ffffffffffffffffffffffffffffffffffffffff1673ffffffffffffffffffffffffffffffffffffffff1681526020019081526020015f205f8761ffff1661ffff1681526020019081526020015f205f01600b9054906101000a900469ffffffffffffffffffff1669ffffffffffffffffffff16111580615d1c5750600160ff168561ffff16145b90505f875f8873ffffffffffffffffffffffffffffffffffffffff1673ffffffffffffffffffffffffffffffffffffffff1681526020019081526020015f205f8561ffff1661ffff1681526020019081526020015f205f01600b9054906101000a900469ffffffffffffffffffff1669ffffffffffffffffffff16851080615dab5750600160ff168461ffff16145b9050818015615db75750805b15615dc6575f92505050615e08565b81615df5577fffffffffffffffffffffffffffffffffffffffffffffffffffffffffffffffff92505050615e08565b80615e0557600192505050615e08565b50505b95945050505050565b5f80615e1b61221e565b90505f8482600a015f8973ffffffffffffffffffffffffffffffffffffffff1673ffffffffffffffffffffffffffffffffffffffff1681526020019081526020015f205f8861ffff1661ffff1681526020019081526020015f205f01600b9054906101000a900469ffffffffffffffffffff1669ffffffffffffffffffff16101580615eae5750600160ff168661ffff16145b90505f82600a015f8973ffffffffffffffffffffffffffffffffffffffff1673ffffffffffffffffffffffffffffffffffffffff1681526020019081526020015f205f8661ffff1661ffff1681526020019081526020015f205f01600b9054906101000a900469ffffffffffffffffffff1669ffffffffffffffffffff16861180615f405750600160ff168561ffff16145b9050818015615f4c5750805b15615f5c575f9350505050615fa1565b81615f8c577fffffffffffffffffffffffffffffffffffffffffffffffffffffffffffffffff9350505050615fa1565b80615f9d5760019350505050615fa1565b5050505b949350505050565b6040518061018001604052805f6affffffffffffffffffffff1681526020015f69ffffffffffffffffffff1681526020015f61ffff1681526020015f61ffff1681526020015f61ffff1681526020015f600781111561600b5761600a616518565b5b81526020015f63ffffffff1681526020015f73ffffffffffffffffffffffffffffffffffffffff1681526020015f600781111561604b5761604a616518565b5b81526020015f61ffff1681526020015f60ff1681526020015f67ffffffffffffffff1681525090565b6040518061018001604052805f61ffff1681526020015f61ffff1681526020015f61ffff1681526020015f61ffff1681526020015f61ffff1681526020015f61ffff1681526020015f61ffff1681526020015f151581526020015f151581526020015f81526020015f61ffff1681526020015f61ffff1681525090565b6040518061014001604052805f6affffffffffffffffffffff1681526020015f6affffffffffffffffffffff1681526020015f6affffffffffffffffffffff1681526020015f6affffffffffffffffffffff1681526020015f69ffffffffffffffffffff1681526020015f6affffffffffffffffffffff1681526020015f6bffffffffffffffffffffffff1681526020015f151581526020015f69ffffffffffffffffffff1681526020015f67ffffffffffffffff1681525090565b5f604051905090565b5f80fd5b5f80fd5b5f73ffffffffffffffffffffffffffffffffffffffff82169050919050565b5f6161e7826161be565b9050919050565b6161f7816161dd565b8114616201575f80fd5b50565b5f81359050616212816161ee565b92915050565b5f69ffffffffffffffffffff82169050919050565b61623681616218565b8114616240575f80fd5b50565b5f813590506162518161622d565b92915050565b5f6affffffffffffffffffffff82169050919050565b61627681616257565b8114616280575f80fd5b50565b5f813590506162918161626d565b92915050565b5f80fd5b5f80fd5b5f80fd5b5f8083601f8401126162b8576162b7616297565b5b8235905067ffffffffffffffff8111156162d5576162d461629b565b5b6020830191508360208202830111156162f1576162f061629f565b5b9250929050565b5f805f805f8060a08789031215616312576163116161b6565b5b5f61631f89828a01616204565b965050602061633089828a01616204565b955050604061634189828a01616243565b945050606061635289828a01616283565b935050608087013567ffffffffffffffff811115616373576163726161ba565b5b61637f89828a016162a3565b92509250509295509295509295565b61639781616257565b82525050565b5f6040820190506163b05f83018561638e565b6163bd602083018461638e565b9392505050565b5f8115159050919050565b6163d8816163c4565b81146163e2575f80fd5b50565b5f813590506163f3816163cf565b92915050565b5f8083601f84011261640e5761640d616297565b5b8235905067ffffffffffffffff81111561642b5761642a61629b565b5b6020830191508360408202830111156164475761644661629f565b5b9250929050565b5f805f805f805f8060c0898b03121561646a576164696161b6565b5b5f6164778b828c01616204565b98505060206164888b828c01616243565b97505060406164998b828c01616283565b96505060606164aa8b828c016163e5565b955050608089013567ffffffffffffffff8111156164cb576164ca6161ba565b5b6164d78b828c016163f9565b945094505060a089013567ffffffffffffffff8111156164fa576164f96161ba565b5b6165068b828c016162a3565b92509250509295985092959890939650565b7f4e487b71000000000000000000000000000000000000000000000000000000005f52602160045260245ffd5b5f80fd5b5f601f19601f8301169050919050565b7f4e487b71000000000000000000000000000000000000000000000000000000005f52604160045260245ffd5b61658f82616549565b810181811067ffffffffffffffff821117156165ae576165ad616559565b5b80604052505050565b5f6165c06161ad565b90506165cc8282616586565b919050565b5f61ffff82169050919050565b6165e7816165d1565b81146165f1575f80fd5b50565b5f81359050616602816165de565b92915050565b5f819050919050565b61661a81616608565b8114616624575f80fd5b50565b5f8135905061663581616611565b92915050565b5f604082840312156166505761664f616545565b5b61665a60406165b7565b90505f616669848285016165f4565b5f83015250602061667c84828501616627565b60208301525092915050565b5f6040828403121561669d5761669c6161b6565b5b5f6166aa8482850161663b565b91505092915050565b7f4e487b71000000000000000000000000000000000000000000000000000000005f52601160045260245ffd5b5f6166ea82616608565b91506166f583616608565b925082820390508181111561670d5761670c6166b3565b5b92915050565b5f61671d82616608565b915061672883616608565b925082820261673681616608565b9150828204841483151761674d5761674c6166b3565b5b5092915050565b7f4e487b71000000000000000000000000000000000000000000000000000000005f52601260045260245ffd5b5f61678b82616608565b915061679683616608565b9250826167a6576167a5616754565b5b828204905092915050565b5f6167bb82616257565b91506167c683616257565b925082820390506affffffffffffffffffffff8111156167e9576167e86166b3565b5b92915050565b7f4e487b71000000000000000000000000000000000000000000000000000000005f52603260045260245ffd5b61682581616608565b82525050565b5f60408201905061683e5f83018561681c565b61684b602083018461681c565b9392505050565b61685b816161dd565b82525050565b61686a816165d1565b82525050565b5f6040820190506168835f830185616852565b6168906020830184616861565b9392505050565b5f6fffffffffffffffffffffffffffffffff82169050919050565b5f6168bc82616897565b91506168c783616897565b925082820190506fffffffffffffffffffffffffffffffff8111156168ef576168ee6166b3565b5b92915050565b5f6168ff82616257565b915061690a83616257565b925082820190506affffffffffffffffffffff81111561692d5761692c6166b3565b5b92915050565b5f6bffffffffffffffffffffffff82169050919050565b5f61695482616933565b915061695f83616933565b925082820390506bffffffffffffffffffffffff811115616983576169826166b3565b5b92915050565b5f6cffffffffffffffffffffffffff82169050919050565b5f6169ab82616989565b91506169b683616989565b925082820190506cffffffffffffffffffffffffff8111156169db576169da6166b3565b5b92915050565b5f6060820190506169f45f830186616861565b616a01602083018561638e565b616a0e604083018461638e565b949350505050565b5f616a2082616933565b9150616a2b83616933565b925082820190506bffffffffffffffffffffffff811115616a4f57616a4e6166b3565b5b92915050565b5f616a5f82616608565b91507fffffffffffffffffffffffffffffffffffffffffffffffffffffffffffffffff8203616a9157616a906166b3565b5b600182019050919050565b5f616aa6826165d1565b9150616ab1836165d1565b9250828201905061ffff811115616acb57616aca6166b3565b5b92915050565b5f604082019050616ae45f830185616861565b616af1602083018461638e565b9392505050565b5f81519050616b068161622d565b92915050565b5f819050919050565b616b1e81616b0c565b8114616b28575f80fd5b50565b5f81519050616b3981616b15565b92915050565b5f81519050616b4d81616611565b92915050565b5f805f805f60a08688031215616b6c57616b6b6161b6565b5b5f616b7988828901616af8565b9550506020616b8a88828901616b2b565b9450506040616b9b88828901616b3f565b9350506060616bac88828901616b3f565b9250506080616bbd88828901616af8565b9150509295509295909350565b5f616bd482616b0c565b9150616bdf83616b0c565b9250828202616bed81616b0c565b91507f800000000000000000000000000000000000000000000000000000000000000084145f84121615616c2457616c236166b3565b5b8282058414831517616c3957616c386166b3565b5b5092915050565b5f606082019050616c535f83018661681c565b616c60602083018561681c565b616c6d604083018461681c565b949350505050565b5f616c7f826165d1565b9150616c8a836165d1565b9250828203905061ffff811115616ca457616ca36166b3565b5b92915050565b5f602082019050616cbd5f83018461681c565b92915050565b5f63ffffffff82169050919050565b5f616cdc82616cc3565b9150616ce783616cc3565b9250828203905063ffffffff811115616d0357616d026166b3565b5b92915050565b5f616d1382616cc3565b9150616d1e83616cc3565b925082616d2e57616d2d616754565b5b828204905092915050565b5f616d4382616257565b9150616d4e83616257565b9250828202616d5c81616257565b9150808214616d6e57616d6d6166b3565b5b5092915050565b616d7e81616897565b82525050565b5f819050919050565b5f819050919050565b5f616db0616dab616da684616d84565b616d8d565b616cc3565b9050919050565b616dc081616d96565b82525050565b5f604082019050616dd95f830185616d75565b616de66020830184616db7565b9392505050565b5f60208284031215616e0257616e016161b6565b5b5f616e0f84828501616b3f565b91505092915050565b5f602082019050616e2b5f830184616852565b92915050565b5f616e3b82616608565b9150616e4683616608565b9250828201905080821115616e5e57616e5d6166b3565b5b9291505056fea2646970667358221220f62f73e2dd817dc721fe6fe6837ee6f9ba6b3abb9f7f4358f03c20ae5249612a64736f6c63430008150033","linkReferences":{}},"methodIdentifiers":{"createBid(address,uint80,uint88,bool,(uint16,uint256)[],uint16[])":"2ba8c920","createForcedBid(address,address,uint80,uint88,uint16[])":"269010c5"},"id":5}