{"abi":[{"type":"constructor","inputs":[{"name":"_steth","type":"address","internalType":"contract ISTETH"}],"stateMutability":"nonpayable"},{"type":"receive","stateMutability":"payable"},{"type":"function","name":"approve","inputs":[{"name":"to","type":"address","internalType":"address"},{"name":"tokenId","type":"uint256","internalType":"uint256"}],"outputs":[],"stateMutability":"nonpayable"},{"type":"function","name":"balanceOf","inputs":[{"name":"owner","type":"address","internalType":"address"}],"outputs":[{"name":"","type":"uint256","internalType":"uint256"}],"stateMutability":"view"},{"type":"function","name":"claimWithdrawals","inputs":[{"name":"_requestIds","type":"uint256[]","internalType":"uint256[]"},{"name":"","type":"uint256[]","internalType":"uint256[]"}],"outputs":[],"stateMutability":"nonpayable"},{"type":"function","name":"getApproved","inputs":[{"name":"tokenId","type":"uint256","internalType":"uint256"}],"outputs":[{"name":"","type":"address","internalType":"address"}],"stateMutability":"view"},{"type":"function","name":"isApprovedForAll","inputs":[{"name":"owner","type":"address","internalType":"address"},{"name":"operator","type":"address","internalType":"address"}],"outputs":[{"name":"","type":"bool","internalType":"bool"}],"stateMutability":"view"},{"type":"function","name":"name","inputs":[],"outputs":[{"name":"","type":"string","internalType":"string"}],"stateMutability":"view"},{"type":"function","name":"ownerOf","inputs":[{"name":"tokenId","type":"uint256","internalType":"uint256"}],"outputs":[{"name":"","type":"address","internalType":"address"}],"stateMutability":"view"},{"type":"function","name":"processWithdrawals","inputs":[],"outputs":[],"stateMutability":"nonpayable"},{"type":"function","name":"requestWithdrawals","inputs":[{"name":"_amounts","type":"uint256[]","internalType":"uint256[]"},{"name":"_owner","type":"address","internalType":"address"}],"outputs":[{"name":"requestIds","type":"uint256[]","internalType":"uint256[]"}],"stateMutability":"nonpayable"},{"type":"function","name":"safeTransferFrom","inputs":[{"name":"from","type":"address","internalType":"address"},{"name":"to","type":"address","internalType":"address"},{"name":"tokenId","type":"uint256","internalType":"uint256"}],"outputs":[],"stateMutability":"nonpayable"},{"type":"function","name":"safeTransferFrom","inputs":[{"name":"from","type":"address","internalType":"address"},{"name":"to","type":"address","internalType":"address"},{"name":"tokenId","type":"uint256","internalType":"uint256"},{"name":"data","type":"bytes","internalType":"bytes"}],"outputs":[],"stateMutability":"nonpayable"},{"type":"function","name":"setApprovalForAll","inputs":[{"name":"operator","type":"address","internalType":"address"},{"name":"approved","type":"bool","internalType":"bool"}],"outputs":[],"stateMutability":"nonpayable"},{"type":"function","name":"supportsInterface","inputs":[{"name":"interfaceId","type":"bytes4","internalType":"bytes4"}],"outputs":[{"name":"","type":"bool","internalType":"bool"}],"stateMutability":"view"},{"type":"function","name":"symbol","inputs":[],"outputs":[{"name":"","type":"string","internalType":"string"}],"stateMutability":"view"},{"type":"function","name":"tokenURI","inputs":[{"name":"tokenId","type":"uint256","internalType":"uint256"}],"outputs":[{"name":"","type":"string","internalType":"string"}],"stateMutability":"view"},{"type":"function","name":"transferFrom","inputs":[{"name":"from","type":"address","internalType":"address"},{"name":"to","type":"address","internalType":"address"},{"name":"tokenId","type":"uint256","internalType":"uint256"}],"outputs":[],"stateMutability":"nonpayable"},{"type":"event","name":"Approval","inputs":[{"name":"owner","type":"address","indexed":true,"internalType":"address"},{"name":"approved","type":"address","indexed":true,"internalType":"address"},{"name":"tokenId","type":"uint256","indexed":true,"internalType":"uint256"}],"anonymous":false},{"type":"event","name":"ApprovalForAll","inputs":[{"name":"owner","type":"address","indexed":true,"internalType":"address"},{"name":"operator","type":"address","indexed":true,"internalType":"address"},{"name":"approved","type":"bool","indexed":false,"internalType":"bool"}],"anonymous":false},{"type":"event","name":"Transfer","inputs":[{"name":"from","type":"address","indexed":true,"internalType":"address"},{"name":"to","type":"address","indexed":true,"internalType":"address"},{"name":"tokenId","type":"uint256","indexed":true,"internalType":"uint256"}],"anonymous":false}],"bytecode":{"object":"0x60a0604052600160065534801562000015575f80fd5b50604051620035e9380380620035e983398181016040528101906200003b91906200017f565b6040518060400160405280601481526020017f7374455448205769746864726177616c204e46540000000000000000000000008152506040518060400160405280600781526020017f756e737445544800000000000000000000000000000000000000000000000000815250815f9081620000b7919062000413565b508060019081620000c9919062000413565b5050508073ffffffffffffffffffffffffffffffffffffffff1660808173ffffffffffffffffffffffffffffffffffffffff168152505050620004f7565b5f80fd5b5f73ffffffffffffffffffffffffffffffffffffffff82169050919050565b5f62000136826200010b565b9050919050565b5f62000149826200012a565b9050919050565b6200015b816200013d565b811462000166575f80fd5b50565b5f81519050620001798162000150565b92915050565b5f6020828403121562000197576200019662000107565b5b5f620001a68482850162000169565b91505092915050565b5f81519050919050565b7f4e487b71000000000000000000000000000000000000000000000000000000005f52604160045260245ffd5b7f4e487b71000000000000000000000000000000000000000000000000000000005f52602260045260245ffd5b5f60028204905060018216806200022b57607f821691505b602082108103620002415762000240620001e6565b5b50919050565b5f819050815f5260205f209050919050565b5f6020601f8301049050919050565b5f82821b905092915050565b5f60088302620002a57fffffffffffffffffffffffffffffffffffffffffffffffffffffffffffffffff8262000268565b620002b1868362000268565b95508019841693508086168417925050509392505050565b5f819050919050565b5f819050919050565b5f620002fb620002f5620002ef84620002c9565b620002d2565b620002c9565b9050919050565b5f819050919050565b6200031683620002db565b6200032e620003258262000302565b84845462000274565b825550505050565b5f90565b6200034462000336565b620003518184846200030b565b505050565b5b8181101562000378576200036c5f826200033a565b60018101905062000357565b5050565b601f821115620003c757620003918162000247565b6200039c8462000259565b81016020851015620003ac578190505b620003c4620003bb8562000259565b83018262000356565b50505b505050565b5f82821c905092915050565b5f620003e95f1984600802620003cc565b1980831691505092915050565b5f620004038383620003d8565b9150826002028217905092915050565b6200041e82620001af565b67ffffffffffffffff8111156200043a5762000439620001b9565b5b62000446825462000213565b620004538282856200037c565b5f60209050601f83116001811462000489575f841562000474578287015190505b620004808582620003f6565b865550620004ef565b601f198416620004998662000247565b5f5b82811015620004c2578489015182556001820191506020850194506020810190506200049b565b86831015620004e25784890151620004de601f891682620003d8565b8355505b6001600288020188555050505b505050505050565b6080516130cb6200051e5f395f81816107f1015281816108770152610c5901526130cb5ff3fe6080604052600436106100f6575f3560e01c806370a0823111610089578063c87b56dd11610058578063c87b56dd14610323578063d66810421461035f578063e3afe0a31461039b578063e985e9c5146103c3576100fd565b806370a082311461026d57806395d89b41146102a9578063a22cb465146102d3578063b88d4fde146102fb576100fd565b806323b872dd116100c557806323b872dd146101cb5780632a228fc2146101f357806342842e0e146102095780636352211e14610231576100fd565b806301ffc9a71461010157806306fdde031461013d578063081812fc14610167578063095ea7b3146101a3576100fd565b366100fd57005b5f80fd5b34801561010c575f80fd5b506101276004803603810190610122919061201d565b6103ff565b6040516101349190612062565b60405180910390f35b348015610148575f80fd5b506101516104e0565b60405161015e9190612105565b60405180910390f35b348015610172575f80fd5b5061018d60048036038101906101889190612158565b61056f565b60405161019a91906121c2565b60405180910390f35b3480156101ae575f80fd5b506101c960048036038101906101c49190612205565b6105b1565b005b3480156101d6575f80fd5b506101f160048036038101906101ec9190612243565b6106c7565b005b3480156101fe575f80fd5b50610207610727565b005b348015610214575f80fd5b5061022f600480360381019061022a9190612243565b6108ff565b005b34801561023c575f80fd5b5061025760048036038101906102529190612158565b61091e565b60405161026491906121c2565b60405180910390f35b348015610278575f80fd5b50610293600480360381019061028e9190612293565b6109a2565b6040516102a091906122cd565b60405180910390f35b3480156102b4575f80fd5b506102bd610a56565b6040516102ca9190612105565b60405180910390f35b3480156102de575f80fd5b506102f960048036038101906102f49190612310565b610ae6565b005b348015610306575f80fd5b50610321600480360381019061031c919061247a565b610afc565b005b34801561032e575f80fd5b5061034960048036038101906103449190612158565b610b5e565b6040516103569190612105565b60405180910390f35b34801561036a575f80fd5b5061038560048036038101906103809190612557565b610bc3565b604051610392919061266b565b60405180910390f35b3480156103a6575f80fd5b506103c160048036038101906103bc919061268b565b610e21565b005b3480156103ce575f80fd5b506103e960048036038101906103e49190612709565b611017565b6040516103f69190612062565b60405180910390f35b5f7f80ac58cd000000000000000000000000000000000000000000000000000000007bffffffffffffffffffffffffffffffffffffffffffffffffffffffff1916827bffffffffffffffffffffffffffffffffffffffffffffffffffffffff191614806104c957507f5b5e139f000000000000000000000000000000000000000000000000000000007bffffffffffffffffffffffffffffffffffffffffffffffffffffffff1916827bffffffffffffffffffffffffffffffffffffffffffffffffffffffff1916145b806104d957506104d8826110a5565b5b9050919050565b60605f80546104ee90612774565b80601f016020809104026020016040519081016040528092919081815260200182805461051a90612774565b80156105655780601f1061053c57610100808354040283529160200191610565565b820191905f5260205f20905b81548152906001019060200180831161054857829003601f168201915b5050505050905090565b5f6105798261110e565b60045f8381526020019081526020015f205f9054906101000a900473ffffffffffffffffffffffffffffffffffffffff169050919050565b5f6105bb8261091e565b90508073ffffffffffffffffffffffffffffffffffffffff168373ffffffffffffffffffffffffffffffffffffffff160361062b576040517f08c379a000000000000000000000000000000000000000000000000000000000815260040161062290612814565b60405180910390fd5b8073ffffffffffffffffffffffffffffffffffffffff1661064a611159565b73ffffffffffffffffffffffffffffffffffffffff161480610679575061067881610673611159565b611017565b5b6106b8576040517f08c379a00000000000000000000000000000000000000000000000000000000081526004016106af906128a2565b60405180910390fd5b6106c28383611160565b505050565b6106d86106d2611159565b82611216565b610717576040517f08c379a000000000000000000000000000000000000000000000000000000000815260040161070e90612930565b60405180910390fd5b6107228383836112aa565b505050565b5f60088054905090505f5b5f8211156107e25781806107459061297b565b92505060075f6008848154811061075f5761075e6129a2565b5b905f5260205f20015481526020019081526020015f20600101548161078491906129cf565b9050600160075f6008858154811061079f5761079e6129a2565b5b905f5260205f20015481526020019081526020015f205f015f6101000a81548160ff021916908360028111156107d8576107d7612a02565b5b0217905550610732565b60085f6107ef9190611f7e565b7f000000000000000000000000000000000000000000000000000000000000000073ffffffffffffffffffffffffffffffffffffffff166342966c68826040518263ffffffff1660e01b815260040161084891906122cd565b5f604051808303815f87803b15801561085f575f80fd5b505af1158015610871573d5f803e3d5ffd5b505050507f000000000000000000000000000000000000000000000000000000000000000073ffffffffffffffffffffffffffffffffffffffff16635c192630826040518263ffffffff1660e01b81526004016108ce91906122cd565b5f604051808303815f87803b1580156108e5575f80fd5b505af11580156108f7573d5f803e3d5ffd5b505050505050565b61091983838360405180602001604052805f815250610afc565b505050565b5f8061092983611596565b90505f73ffffffffffffffffffffffffffffffffffffffff168173ffffffffffffffffffffffffffffffffffffffff1603610999576040517f08c379a000000000000000000000000000000000000000000000000000000000815260040161099090612a79565b60405180910390fd5b80915050919050565b5f8073ffffffffffffffffffffffffffffffffffffffff168273ffffffffffffffffffffffffffffffffffffffff1603610a11576040517f08c379a0000000000000000000000000000000000000000000000000000000008152600401610a0890612b07565b60405180910390fd5b60035f8373ffffffffffffffffffffffffffffffffffffffff1673ffffffffffffffffffffffffffffffffffffffff1681526020019081526020015f20549050919050565b606060018054610a6590612774565b80601f0160208091040260200160405190810160405280929190818152602001828054610a9190612774565b8015610adc5780601f10610ab357610100808354040283529160200191610adc565b820191905f5260205f20905b815481529060010190602001808311610abf57829003601f168201915b5050505050905090565b610af8610af1611159565b83836115cf565b5050565b610b0d610b07611159565b83611216565b610b4c576040517f08c379a0000000000000000000000000000000000000000000000000000000008152600401610b4390612930565b60405180910390fd5b610b5884848484611736565b50505050565b6060610b698261110e565b5f610b72611792565b90505f815111610b905760405180602001604052805f815250610bbb565b80610b9a846117a8565b604051602001610bab929190612b5f565b6040516020818303038152906040525b915050919050565b60605f73ffffffffffffffffffffffffffffffffffffffff168273ffffffffffffffffffffffffffffffffffffffff1603610bfc573391505b8383905067ffffffffffffffff811115610c1957610c18612356565b5b604051908082528060200260200182016040528015610c475781602001602082028036833780820191505090505b5090505f5b84849050811015610e19577f000000000000000000000000000000000000000000000000000000000000000073ffffffffffffffffffffffffffffffffffffffff166323b872dd8430888886818110610ca857610ca76129a2565b5b905060200201356040518463ffffffff1660e01b8152600401610ccd93929190612b82565b6020604051808303815f875af1158015610ce9573d5f803e3d5ffd5b505050506040513d601f19601f82011682018060405250810190610d0d9190612bcb565b5060405180604001604052805f6002811115610d2c57610d2b612a02565b5b8152602001868684818110610d4457610d436129a2565b5b9050602002013581525060075f60065481526020019081526020015f205f820151815f015f6101000a81548160ff02191690836002811115610d8957610d88612a02565b5b0217905550602082015181600101559050506008600654908060018154018082558091505060019003905f5260205f20015f9091909190915055600654828281518110610dd957610dd86129a2565b5b602002602001018181525050610df183600654611872565b60065f815480929190610e0390612bf6565b919050555080610e1290612bf6565b9050610c4c565b509392505050565b5f5b84849050811015611010575f610e5233878785818110610e4657610e456129a2565b5b90506020020135611216565b8015610eba575060016002811115610e6d57610e6c612a02565b5b60075f888886818110610e8357610e826129a2565b5b9050602002013581526020019081526020015f205f015f9054906101000a900460ff166002811115610eb857610eb7612a02565b5b145b15610ffe57610ee1868684818110610ed557610ed46129a2565b5b90506020020135611596565b9050610f05868684818110610ef957610ef86129a2565b5b9050602002013561188f565b600260075f888886818110610f1d57610f1c6129a2565b5b9050602002013581526020019081526020015f205f015f6101000a81548160ff02191690836002811115610f5457610f53612a02565b5b02179055505f8173ffffffffffffffffffffffffffffffffffffffff1660075f898987818110610f8757610f866129a2565b5b9050602002013581526020019081526020015f2060010154604051610fab90612c6a565b5f6040518083038185875af1925050503d805f8114610fe5576040519150601f19603f3d011682016040523d82523d5f602084013e610fea565b606091505b5050905080610ffc57610ffb612c7e565b5b505b508061100990612bf6565b9050610e23565b5050505050565b5f60055f8473ffffffffffffffffffffffffffffffffffffffff1673ffffffffffffffffffffffffffffffffffffffff1681526020019081526020015f205f8373ffffffffffffffffffffffffffffffffffffffff1673ffffffffffffffffffffffffffffffffffffffff1681526020019081526020015f205f9054906101000a900460ff16905092915050565b5f7f01ffc9a7000000000000000000000000000000000000000000000000000000007bffffffffffffffffffffffffffffffffffffffffffffffffffffffff1916827bffffffffffffffffffffffffffffffffffffffffffffffffffffffff1916149050919050565b611117816119d0565b611156576040517f08c379a000000000000000000000000000000000000000000000000000000000815260040161114d90612a79565b60405180910390fd5b50565b5f33905090565b8160045f8381526020019081526020015f205f6101000a81548173ffffffffffffffffffffffffffffffffffffffff021916908373ffffffffffffffffffffffffffffffffffffffff160217905550808273ffffffffffffffffffffffffffffffffffffffff166111d08361091e565b73ffffffffffffffffffffffffffffffffffffffff167f8c5be1e5ebec7d5bd14f71427d1e84f3dd0314c0f7b2291e5b200ac8c7c3b92560405160405180910390a45050565b5f806112218361091e565b90508073ffffffffffffffffffffffffffffffffffffffff168473ffffffffffffffffffffffffffffffffffffffff16148061126357506112628185611017565b5b806112a157508373ffffffffffffffffffffffffffffffffffffffff166112898461056f565b73ffffffffffffffffffffffffffffffffffffffff16145b91505092915050565b8273ffffffffffffffffffffffffffffffffffffffff166112ca8261091e565b73ffffffffffffffffffffffffffffffffffffffff1614611320576040517f08c379a000000000000000000000000000000000000000000000000000000000815260040161131790612d1b565b60405180910390fd5b5f73ffffffffffffffffffffffffffffffffffffffff168273ffffffffffffffffffffffffffffffffffffffff160361138e576040517f08c379a000000000000000000000000000000000000000000000000000000000815260040161138590612da9565b60405180910390fd5b61139b8383836001611a10565b8273ffffffffffffffffffffffffffffffffffffffff166113bb8261091e565b73ffffffffffffffffffffffffffffffffffffffff1614611411576040517f08c379a000000000000000000000000000000000000000000000000000000000815260040161140890612d1b565b60405180910390fd5b60045f8281526020019081526020015f205f6101000a81549073ffffffffffffffffffffffffffffffffffffffff0219169055600160035f8573ffffffffffffffffffffffffffffffffffffffff1673ffffffffffffffffffffffffffffffffffffffff1681526020019081526020015f205f8282540392505081905550600160035f8473ffffffffffffffffffffffffffffffffffffffff1673ffffffffffffffffffffffffffffffffffffffff1681526020019081526020015f205f82825401925050819055508160025f8381526020019081526020015f205f6101000a81548173ffffffffffffffffffffffffffffffffffffffff021916908373ffffffffffffffffffffffffffffffffffffffff160217905550808273ffffffffffffffffffffffffffffffffffffffff168473ffffffffffffffffffffffffffffffffffffffff167fddf252ad1be2c89b69c2b068fc378daa952ba7f163c4a11628f55a4df523b3ef60405160405180910390a46115918383836001611a16565b505050565b5f60025f8381526020019081526020015f205f9054906101000a900473ffffffffffffffffffffffffffffffffffffffff169050919050565b8173ffffffffffffffffffffffffffffffffffffffff168373ffffffffffffffffffffffffffffffffffffffff160361163d576040517f08c379a000000000000000000000000000000000000000000000000000000000815260040161163490612e11565b60405180910390fd5b8060055f8573ffffffffffffffffffffffffffffffffffffffff1673ffffffffffffffffffffffffffffffffffffffff1681526020019081526020015f205f8473ffffffffffffffffffffffffffffffffffffffff1673ffffffffffffffffffffffffffffffffffffffff1681526020019081526020015f205f6101000a81548160ff0219169083151502179055508173ffffffffffffffffffffffffffffffffffffffff168373ffffffffffffffffffffffffffffffffffffffff167f17307eab39ab6107e8899845ad3d59bd9653f200f220920489ca2b5937696c31836040516117299190612062565b60405180910390a3505050565b6117418484846112aa565b61174d84848484611a1c565b61178c576040517f08c379a000000000000000000000000000000000000000000000000000000000815260040161178390612e9f565b60405180910390fd5b50505050565b606060405180602001604052805f815250905090565b60605f60016117b684611b9e565b0190505f8167ffffffffffffffff8111156117d4576117d3612356565b5b6040519080825280601f01601f1916602001820160405280156118065781602001600182028036833780820191505090505b5090505f82602001820190505b600115611867578080600190039150507f3031323334353637383961626364656600000000000000000000000000000000600a86061a8153600a858161185c5761185b612ebd565b5b0494505f8503611813575b819350505050919050565b61188b828260405180602001604052805f815250611cef565b5050565b5f6118998261091e565b90506118a8815f846001611a10565b6118b18261091e565b905060045f8381526020019081526020015f205f6101000a81549073ffffffffffffffffffffffffffffffffffffffff0219169055600160035f8373ffffffffffffffffffffffffffffffffffffffff1673ffffffffffffffffffffffffffffffffffffffff1681526020019081526020015f205f828254039250508190555060025f8381526020019081526020015f205f6101000a81549073ffffffffffffffffffffffffffffffffffffffff0219169055815f73ffffffffffffffffffffffffffffffffffffffff168273ffffffffffffffffffffffffffffffffffffffff167fddf252ad1be2c89b69c2b068fc378daa952ba7f163c4a11628f55a4df523b3ef60405160405180910390a46119cc815f846001611a16565b5050565b5f8073ffffffffffffffffffffffffffffffffffffffff166119f183611596565b73ffffffffffffffffffffffffffffffffffffffff1614159050919050565b50505050565b50505050565b5f611a3c8473ffffffffffffffffffffffffffffffffffffffff16611d49565b15611b91578373ffffffffffffffffffffffffffffffffffffffff1663150b7a02611a65611159565b8786866040518563ffffffff1660e01b8152600401611a879493929190612f3c565b6020604051808303815f875af1925050508015611ac257506040513d601f19601f82011682018060405250810190611abf9190612f9a565b60015b611b41573d805f8114611af0576040519150601f19603f3d011682016040523d82523d5f602084013e611af5565b606091505b505f815103611b39576040517f08c379a0000000000000000000000000000000000000000000000000000000008152600401611b3090612e9f565b60405180910390fd5b805181602001fd5b63150b7a0260e01b7bffffffffffffffffffffffffffffffffffffffffffffffffffffffff1916817bffffffffffffffffffffffffffffffffffffffffffffffffffffffff191614915050611b96565b600190505b949350505050565b5f805f90507a184f03e93ff9f4daa797ed6e38ed64bf6a1f0100000000000000008310611bfa577a184f03e93ff9f4daa797ed6e38ed64bf6a1f0100000000000000008381611bf057611bef612ebd565b5b0492506040810190505b6d04ee2d6d415b85acef81000000008310611c37576d04ee2d6d415b85acef81000000008381611c2d57611c2c612ebd565b5b0492506020810190505b662386f26fc100008310611c6657662386f26fc100008381611c5c57611c5b612ebd565b5b0492506010810190505b6305f5e1008310611c8f576305f5e1008381611c8557611c84612ebd565b5b0492506008810190505b6127108310611cb4576127108381611caa57611ca9612ebd565b5b0492506004810190505b60648310611cd75760648381611ccd57611ccc612ebd565b5b0492506002810190505b600a8310611ce6576001810190505b80915050919050565b611cf98383611d6b565b611d055f848484611a1c565b611d44576040517f08c379a0000000000000000000000000000000000000000000000000000000008152600401611d3b90612e9f565b60405180910390fd5b505050565b5f808273ffffffffffffffffffffffffffffffffffffffff163b119050919050565b5f73ffffffffffffffffffffffffffffffffffffffff168273ffffffffffffffffffffffffffffffffffffffff1603611dd9576040517f08c379a0000000000000000000000000000000000000000000000000000000008152600401611dd09061300f565b60405180910390fd5b611de2816119d0565b15611e22576040517f08c379a0000000000000000000000000000000000000000000000000000000008152600401611e1990613077565b60405180910390fd5b611e2f5f83836001611a10565b611e38816119d0565b15611e78576040517f08c379a0000000000000000000000000000000000000000000000000000000008152600401611e6f90613077565b60405180910390fd5b600160035f8473ffffffffffffffffffffffffffffffffffffffff1673ffffffffffffffffffffffffffffffffffffffff1681526020019081526020015f205f82825401925050819055508160025f8381526020019081526020015f205f6101000a81548173ffffffffffffffffffffffffffffffffffffffff021916908373ffffffffffffffffffffffffffffffffffffffff160217905550808273ffffffffffffffffffffffffffffffffffffffff165f73ffffffffffffffffffffffffffffffffffffffff167fddf252ad1be2c89b69c2b068fc378daa952ba7f163c4a11628f55a4df523b3ef60405160405180910390a4611f7a5f83836001611a16565b5050565b5080545f8255905f5260205f2090810190611f999190611f9c565b50565b5b80821115611fb3575f815f905550600101611f9d565b5090565b5f604051905090565b5f80fd5b5f80fd5b5f7fffffffff0000000000000000000000000000000000000000000000000000000082169050919050565b611ffc81611fc8565b8114612006575f80fd5b50565b5f8135905061201781611ff3565b92915050565b5f6020828403121561203257612031611fc0565b5b5f61203f84828501612009565b91505092915050565b5f8115159050919050565b61205c81612048565b82525050565b5f6020820190506120755f830184612053565b92915050565b5f81519050919050565b5f82825260208201905092915050565b5f5b838110156120b2578082015181840152602081019050612097565b5f8484015250505050565b5f601f19601f8301169050919050565b5f6120d78261207b565b6120e18185612085565b93506120f1818560208601612095565b6120fa816120bd565b840191505092915050565b5f6020820190508181035f83015261211d81846120cd565b905092915050565b5f819050919050565b61213781612125565b8114612141575f80fd5b50565b5f813590506121528161212e565b92915050565b5f6020828403121561216d5761216c611fc0565b5b5f61217a84828501612144565b91505092915050565b5f73ffffffffffffffffffffffffffffffffffffffff82169050919050565b5f6121ac82612183565b9050919050565b6121bc816121a2565b82525050565b5f6020820190506121d55f8301846121b3565b92915050565b6121e4816121a2565b81146121ee575f80fd5b50565b5f813590506121ff816121db565b92915050565b5f806040838503121561221b5761221a611fc0565b5b5f612228858286016121f1565b925050602061223985828601612144565b9150509250929050565b5f805f6060848603121561225a57612259611fc0565b5b5f612267868287016121f1565b9350506020612278868287016121f1565b925050604061228986828701612144565b9150509250925092565b5f602082840312156122a8576122a7611fc0565b5b5f6122b5848285016121f1565b91505092915050565b6122c781612125565b82525050565b5f6020820190506122e05f8301846122be565b92915050565b6122ef81612048565b81146122f9575f80fd5b50565b5f8135905061230a816122e6565b92915050565b5f806040838503121561232657612325611fc0565b5b5f612333858286016121f1565b9250506020612344858286016122fc565b9150509250929050565b5f80fd5b5f80fd5b7f4e487b71000000000000000000000000000000000000000000000000000000005f52604160045260245ffd5b61238c826120bd565b810181811067ffffffffffffffff821117156123ab576123aa612356565b5b80604052505050565b5f6123bd611fb7565b90506123c98282612383565b919050565b5f67ffffffffffffffff8211156123e8576123e7612356565b5b6123f1826120bd565b9050602081019050919050565b828183375f83830152505050565b5f61241e612419846123ce565b6123b4565b90508281526020810184848401111561243a57612439612352565b5b6124458482856123fe565b509392505050565b5f82601f8301126124615761246061234e565b5b813561247184826020860161240c565b91505092915050565b5f805f806080858703121561249257612491611fc0565b5b5f61249f878288016121f1565b94505060206124b0878288016121f1565b93505060406124c187828801612144565b925050606085013567ffffffffffffffff8111156124e2576124e1611fc4565b5b6124ee8782880161244d565b91505092959194509250565b5f80fd5b5f80fd5b5f8083601f8401126125175761251661234e565b5b8235905067ffffffffffffffff811115612534576125336124fa565b5b6020830191508360208202830111156125505761254f6124fe565b5b9250929050565b5f805f6040848603121561256e5761256d611fc0565b5b5f84013567ffffffffffffffff81111561258b5761258a611fc4565b5b61259786828701612502565b935093505060206125aa868287016121f1565b9150509250925092565b5f81519050919050565b5f82825260208201905092915050565b5f819050602082019050919050565b6125e681612125565b82525050565b5f6125f783836125dd565b60208301905092915050565b5f602082019050919050565b5f612619826125b4565b61262381856125be565b935061262e836125ce565b805f5b8381101561265e57815161264588826125ec565b975061265083612603565b925050600181019050612631565b5085935050505092915050565b5f6020820190508181035f830152612683818461260f565b905092915050565b5f805f80604085870312156126a3576126a2611fc0565b5b5f85013567ffffffffffffffff8111156126c0576126bf611fc4565b5b6126cc87828801612502565b9450945050602085013567ffffffffffffffff8111156126ef576126ee611fc4565b5b6126fb87828801612502565b925092505092959194509250565b5f806040838503121561271f5761271e611fc0565b5b5f61272c858286016121f1565b925050602061273d858286016121f1565b9150509250929050565b7f4e487b71000000000000000000000000000000000000000000000000000000005f52602260045260245ffd5b5f600282049050600182168061278b57607f821691505b60208210810361279e5761279d612747565b5b50919050565b7f4552433732313a20617070726f76616c20746f2063757272656e74206f776e655f8201527f7200000000000000000000000000000000000000000000000000000000000000602082015250565b5f6127fe602183612085565b9150612809826127a4565b604082019050919050565b5f6020820190508181035f83015261282b816127f2565b9050919050565b7f4552433732313a20617070726f76652063616c6c6572206973206e6f7420746f5f8201527f6b656e206f776e6572206f7220617070726f76656420666f7220616c6c000000602082015250565b5f61288c603d83612085565b915061289782612832565b604082019050919050565b5f6020820190508181035f8301526128b981612880565b9050919050565b7f4552433732313a2063616c6c6572206973206e6f7420746f6b656e206f776e655f8201527f72206f7220617070726f76656400000000000000000000000000000000000000602082015250565b5f61291a602d83612085565b9150612925826128c0565b604082019050919050565b5f6020820190508181035f8301526129478161290e565b9050919050565b7f4e487b71000000000000000000000000000000000000000000000000000000005f52601160045260245ffd5b5f61298582612125565b91505f82036129975761299661294e565b5b600182039050919050565b7f4e487b71000000000000000000000000000000000000000000000000000000005f52603260045260245ffd5b5f6129d982612125565b91506129e483612125565b92508282019050808211156129fc576129fb61294e565b5b92915050565b7f4e487b71000000000000000000000000000000000000000000000000000000005f52602160045260245ffd5b7f4552433732313a20696e76616c696420746f6b656e20494400000000000000005f82015250565b5f612a63601883612085565b9150612a6e82612a2f565b602082019050919050565b5f6020820190508181035f830152612a9081612a57565b9050919050565b7f4552433732313a2061646472657373207a65726f206973206e6f7420612076615f8201527f6c6964206f776e65720000000000000000000000000000000000000000000000602082015250565b5f612af1602983612085565b9150612afc82612a97565b604082019050919050565b5f6020820190508181035f830152612b1e81612ae5565b9050919050565b5f81905092915050565b5f612b398261207b565b612b438185612b25565b9350612b53818560208601612095565b80840191505092915050565b5f612b6a8285612b2f565b9150612b768284612b2f565b91508190509392505050565b5f606082019050612b955f8301866121b3565b612ba260208301856121b3565b612baf60408301846122be565b949350505050565b5f81519050612bc5816122e6565b92915050565b5f60208284031215612be057612bdf611fc0565b5b5f612bed84828501612bb7565b91505092915050565b5f612c0082612125565b91507fffffffffffffffffffffffffffffffffffffffffffffffffffffffffffffffff8203612c3257612c3161294e565b5b600182019050919050565b5f81905092915050565b50565b5f612c555f83612c3d565b9150612c6082612c47565b5f82019050919050565b5f612c7482612c4a565b9150819050919050565b7f4e487b71000000000000000000000000000000000000000000000000000000005f52600160045260245ffd5b7f4552433732313a207472616e736665722066726f6d20696e636f7272656374205f8201527f6f776e6572000000000000000000000000000000000000000000000000000000602082015250565b5f612d05602583612085565b9150612d1082612cab565b604082019050919050565b5f6020820190508181035f830152612d3281612cf9565b9050919050565b7f4552433732313a207472616e7366657220746f20746865207a65726f206164645f8201527f7265737300000000000000000000000000000000000000000000000000000000602082015250565b5f612d93602483612085565b9150612d9e82612d39565b604082019050919050565b5f6020820190508181035f830152612dc081612d87565b9050919050565b7f4552433732313a20617070726f766520746f2063616c6c6572000000000000005f82015250565b5f612dfb601983612085565b9150612e0682612dc7565b602082019050919050565b5f6020820190508181035f830152612e2881612def565b9050919050565b7f4552433732313a207472616e7366657220746f206e6f6e2045524337323152655f8201527f63656976657220696d706c656d656e7465720000000000000000000000000000602082015250565b5f612e89603283612085565b9150612e9482612e2f565b604082019050919050565b5f6020820190508181035f830152612eb681612e7d565b9050919050565b7f4e487b71000000000000000000000000000000000000000000000000000000005f52601260045260245ffd5b5f81519050919050565b5f82825260208201905092915050565b5f612f0e82612eea565b612f188185612ef4565b9350612f28818560208601612095565b612f31816120bd565b840191505092915050565b5f608082019050612f4f5f8301876121b3565b612f5c60208301866121b3565b612f6960408301856122be565b8181036060830152612f7b8184612f04565b905095945050505050565b5f81519050612f9481611ff3565b92915050565b5f60208284031215612faf57612fae611fc0565b5b5f612fbc84828501612f86565b91505092915050565b7f4552433732313a206d696e7420746f20746865207a65726f20616464726573735f82015250565b5f612ff9602083612085565b915061300482612fc5565b602082019050919050565b5f6020820190508181035f83015261302681612fed565b9050919050565b7f4552433732313a20746f6b656e20616c7265616479206d696e746564000000005f82015250565b5f613061601c83612085565b915061306c8261302d565b602082019050919050565b5f6020820190508181035f83015261308e81613055565b905091905056fea264697066735822122013fbc29622e85f36d18f420e71a7aa3bb8c4c67c0234230ac58246bc186c232b64736f6c63430008150033","linkReferences":{}},"methodIdentifiers":{"approve(address,uint256)":"095ea7b3","balanceOf(address)":"70a08231","claimWithdrawals(uint256[],uint256[])":"e3afe0a3","getApproved(uint256)":"081812fc","isApprovedForAll(address,address)":"e985e9c5","name()":"06fdde03","ownerOf(uint256)":"6352211e","processWithdrawals()":"2a228fc2","requestWithdrawals(uint256[],address)":"d6681042","safeTransferFrom(address,address,uint256)":"42842e0e","safeTransferFrom(address,address,uint256,bytes)":"b88d4fde","setApprovalForAll(address,bool)":"a22cb465","supportsInterface(bytes4)":"01ffc9a7","symbol()":"95d89b41","tokenURI(uint256)":"c87b56dd","transferFrom(address,address,uint256)":"23b872dd"},"id":59}