{"abi":[{"type":"function","name":"logAsks","inputs":[{"name":"asset","type":"address","internalType":"address"}],"outputs":[],"stateMutability":"view"},{"type":"function","name":"logBids","inputs":[{"name":"asset","type":"address","internalType":"address"}],"outputs":[],"stateMutability":"view"},{"type":"function","name":"logInactiveAsks","inputs":[{"name":"asset","type":"address","internalType":"address"}],"outputs":[],"stateMutability":"view"},{"type":"function","name":"logInactiveBids","inputs":[{"name":"asset","type":"address","internalType":"address"}],"outputs":[],"stateMutability":"view"},{"type":"function","name":"logInactiveShorts","inputs":[{"name":"asset","type":"address","internalType":"address"}],"outputs":[],"stateMutability":"view"},{"type":"function","name":"logShorts","inputs":[{"name":"asset","type":"address","internalType":"address"}],"outputs":[],"stateMutability":"view"}],"bytecode":{"object":"0x6136e061004e600b8282823980515f1a607314610042577f4e487b71000000000000000000000000000000000000000000000000000000005f525f60045260245ffd5b305f52607381538281f3fe730000000000000000000000000000000000000000301460806040526004361061006b575f3560e01c80633fde7ad31461006f57806355ed30fd1461008b578063758d7bc1146100a7578063be2bdf7d146100c3578063c648ed3e146100df578063fa045047146100fb575b5f80fd5b61008960048036038101906100849190613097565b610117565b005b6100a560048036038101906100a09190613097565b6106bb565b005b6100c160048036038101906100bc9190613097565b610c5f565b005b6100dd60048036038101906100d89190613097565b611203565b005b6100f960048036038101906100f49190613097565b6117a7565b005b61011560048036038101906101109190613097565b611d4b565b005b5f6101206122ef565b90505f81600b015f8473ffffffffffffffffffffffffffffffffffffffff1673ffffffffffffffffffffffffffffffffffffffff1681526020019081526020015f205f600160ff1661ffff1681526020019081526020015f20604051806101800160405290815f82015f9054906101000a90046affffffffffffffffffffff166affffffffffffffffffffff166affffffffffffffffffffff1681526020015f8201600b9054906101000a900469ffffffffffffffffffff1669ffffffffffffffffffff1669ffffffffffffffffffff1681526020015f820160159054906101000a900461ffff1661ffff1661ffff1681526020015f820160179054906101000a900461ffff1661ffff1661ffff1681526020015f820160199054906101000a900461ffff1661ffff1661ffff1681526020015f8201601b9054906101000a900460ff166007811115610276576102756130c2565b5b6007811115610288576102876130c2565b5b81526020015f8201601c9054906101000a900463ffffffff1663ffffffff1663ffffffff168152602001600182015f9054906101000a900473ffffffffffffffffffffffffffffffffffffffff1673ffffffffffffffffffffffffffffffffffffffff1673ffffffffffffffffffffffffffffffffffffffff1681526020016001820160149054906101000a900460ff16600781111561032b5761032a6130c2565b5b600781111561033d5761033c6130c2565b5b81526020016001820160159054906101000a900461ffff1661ffff1661ffff1681526020016001820160179054906101000a900460ff1660ff1660ff1681526020016001820160189054906101000a900467ffffffffffffffff1667ffffffffffffffff1667ffffffffffffffff168152505090506103bb816122f3565b5f816080015190505b600160ff168161ffff16146106775782600b015f8573ffffffffffffffffffffffffffffffffffffffff1673ffffffffffffffffffffffffffffffffffffffff1681526020019081526020015f205f8261ffff1661ffff1681526020019081526020015f20604051806101800160405290815f82015f9054906101000a90046affffffffffffffffffffff166affffffffffffffffffffff166affffffffffffffffffffff1681526020015f8201600b9054906101000a900469ffffffffffffffffffff1669ffffffffffffffffffff1669ffffffffffffffffffff1681526020015f820160159054906101000a900461ffff1661ffff1661ffff1681526020015f820160179054906101000a900461ffff1661ffff1661ffff1681526020015f820160199054906101000a900461ffff1661ffff1661ffff1681526020015f8201601b9054906101000a900460ff166007811115610526576105256130c2565b5b6007811115610538576105376130c2565b5b81526020015f8201601c9054906101000a900463ffffffff1663ffffffff1663ffffffff168152602001600182015f9054906101000a900473ffffffffffffffffffffffffffffffffffffffff1673ffffffffffffffffffffffffffffffffffffffff1673ffffffffffffffffffffffffffffffffffffffff1681526020016001820160149054906101000a900460ff1660078111156105db576105da6130c2565b5b60078111156105ed576105ec6130c2565b5b81526020016001820160159054906101000a900461ffff1661ffff1661ffff1681526020016001820160179054906101000a900460ff1660ff1660ff1681526020016001820160189054906101000a900467ffffffffffffffff1667ffffffffffffffff1667ffffffffffffffff1681525050915061066b826122f3565b816080015190506103c4565b6106b56040518060400160405280600281526020017f2d2d000000000000000000000000000000000000000000000000000000000000815250612724565b50505050565b5f6106c46122ef565b90505f81600a015f8473ffffffffffffffffffffffffffffffffffffffff1673ffffffffffffffffffffffffffffffffffffffff1681526020019081526020015f205f600160ff1661ffff1681526020019081526020015f20604051806101800160405290815f82015f9054906101000a90046affffffffffffffffffffff166affffffffffffffffffffff166affffffffffffffffffffff1681526020015f8201600b9054906101000a900469ffffffffffffffffffff1669ffffffffffffffffffff1669ffffffffffffffffffff1681526020015f820160159054906101000a900461ffff1661ffff1661ffff1681526020015f820160179054906101000a900461ffff1661ffff1661ffff1681526020015f820160199054906101000a900461ffff1661ffff1661ffff1681526020015f8201601b9054906101000a900460ff16600781111561081a576108196130c2565b5b600781111561082c5761082b6130c2565b5b81526020015f8201601c9054906101000a900463ffffffff1663ffffffff1663ffffffff168152602001600182015f9054906101000a900473ffffffffffffffffffffffffffffffffffffffff1673ffffffffffffffffffffffffffffffffffffffff1673ffffffffffffffffffffffffffffffffffffffff1681526020016001820160149054906101000a900460ff1660078111156108cf576108ce6130c2565b5b60078111156108e1576108e06130c2565b5b81526020016001820160159054906101000a900461ffff1661ffff1661ffff1681526020016001820160179054906101000a900460ff1660ff1660ff1681526020016001820160189054906101000a900467ffffffffffffffff1667ffffffffffffffff1667ffffffffffffffff1681525050905061095f816122f3565b5f816080015190505b600160ff168161ffff1614610c1b5782600a015f8573ffffffffffffffffffffffffffffffffffffffff1673ffffffffffffffffffffffffffffffffffffffff1681526020019081526020015f205f8261ffff1661ffff1681526020019081526020015f20604051806101800160405290815f82015f9054906101000a90046affffffffffffffffffffff166affffffffffffffffffffff166affffffffffffffffffffff1681526020015f8201600b9054906101000a900469ffffffffffffffffffff1669ffffffffffffffffffff1669ffffffffffffffffffff1681526020015f820160159054906101000a900461ffff1661ffff1661ffff1681526020015f820160179054906101000a900461ffff1661ffff1661ffff1681526020015f820160199054906101000a900461ffff1661ffff1661ffff1681526020015f8201601b9054906101000a900460ff166007811115610aca57610ac96130c2565b5b6007811115610adc57610adb6130c2565b5b81526020015f8201601c9054906101000a900463ffffffff1663ffffffff1663ffffffff168152602001600182015f9054906101000a900473ffffffffffffffffffffffffffffffffffffffff1673ffffffffffffffffffffffffffffffffffffffff1673ffffffffffffffffffffffffffffffffffffffff1681526020016001820160149054906101000a900460ff166007811115610b7f57610b7e6130c2565b5b6007811115610b9157610b906130c2565b5b81526020016001820160159054906101000a900461ffff1661ffff1661ffff1681526020016001820160179054906101000a900460ff1660ff1660ff1681526020016001820160189054906101000a900467ffffffffffffffff1667ffffffffffffffff1667ffffffffffffffff16815250509150610c0f826122f3565b81608001519050610968565b610c596040518060400160405280600281526020017f2d2d000000000000000000000000000000000000000000000000000000000000815250612724565b50505050565b5f610c686122ef565b90505f81600b015f8473ffffffffffffffffffffffffffffffffffffffff1673ffffffffffffffffffffffffffffffffffffffff1681526020019081526020015f205f600160ff1661ffff1681526020019081526020015f20604051806101800160405290815f82015f9054906101000a90046affffffffffffffffffffff166affffffffffffffffffffff166affffffffffffffffffffff1681526020015f8201600b9054906101000a900469ffffffffffffffffffff1669ffffffffffffffffffff1669ffffffffffffffffffff1681526020015f820160159054906101000a900461ffff1661ffff1661ffff1681526020015f820160179054906101000a900461ffff1661ffff1661ffff1681526020015f820160199054906101000a900461ffff1661ffff1661ffff1681526020015f8201601b9054906101000a900460ff166007811115610dbe57610dbd6130c2565b5b6007811115610dd057610dcf6130c2565b5b81526020015f8201601c9054906101000a900463ffffffff1663ffffffff1663ffffffff168152602001600182015f9054906101000a900473ffffffffffffffffffffffffffffffffffffffff1673ffffffffffffffffffffffffffffffffffffffff1673ffffffffffffffffffffffffffffffffffffffff1681526020016001820160149054906101000a900460ff166007811115610e7357610e726130c2565b5b6007811115610e8557610e846130c2565b5b81526020016001820160159054906101000a900461ffff1661ffff1661ffff1681526020016001820160179054906101000a900460ff1660ff1660ff1681526020016001820160189054906101000a900467ffffffffffffffff1667ffffffffffffffff1667ffffffffffffffff16815250509050610f03816122f3565b5f816040015190505b600160ff168161ffff16146111bf5782600b015f8573ffffffffffffffffffffffffffffffffffffffff1673ffffffffffffffffffffffffffffffffffffffff1681526020019081526020015f205f8261ffff1661ffff1681526020019081526020015f20604051806101800160405290815f82015f9054906101000a90046affffffffffffffffffffff166affffffffffffffffffffff166affffffffffffffffffffff1681526020015f8201600b9054906101000a900469ffffffffffffffffffff1669ffffffffffffffffffff1669ffffffffffffffffffff1681526020015f820160159054906101000a900461ffff1661ffff1661ffff1681526020015f820160179054906101000a900461ffff1661ffff1661ffff1681526020015f820160199054906101000a900461ffff1661ffff1661ffff1681526020015f8201601b9054906101000a900460ff16600781111561106e5761106d6130c2565b5b60078111156110805761107f6130c2565b5b81526020015f8201601c9054906101000a900463ffffffff1663ffffffff1663ffffffff168152602001600182015f9054906101000a900473ffffffffffffffffffffffffffffffffffffffff1673ffffffffffffffffffffffffffffffffffffffff1673ffffffffffffffffffffffffffffffffffffffff1681526020016001820160149054906101000a900460ff166007811115611123576111226130c2565b5b6007811115611135576111346130c2565b5b81526020016001820160159054906101000a900461ffff1661ffff1661ffff1681526020016001820160179054906101000a900460ff1660ff1660ff1681526020016001820160189054906101000a900467ffffffffffffffff1667ffffffffffffffff1667ffffffffffffffff168152505091506111b3826122f3565b81604001519050610f0c565b6111fd6040518060400160405280600281526020017f2d2d000000000000000000000000000000000000000000000000000000000000815250612724565b50505050565b5f61120c6122ef565b90505f81600c015f8473ffffffffffffffffffffffffffffffffffffffff1673ffffffffffffffffffffffffffffffffffffffff1681526020019081526020015f205f600160ff1661ffff1681526020019081526020015f20604051806101800160405290815f82015f9054906101000a90046affffffffffffffffffffff166affffffffffffffffffffff166affffffffffffffffffffff1681526020015f8201600b9054906101000a900469ffffffffffffffffffff1669ffffffffffffffffffff1669ffffffffffffffffffff1681526020015f820160159054906101000a900461ffff1661ffff1661ffff1681526020015f820160179054906101000a900461ffff1661ffff1661ffff1681526020015f820160199054906101000a900461ffff1661ffff1661ffff1681526020015f8201601b9054906101000a900460ff166007811115611362576113616130c2565b5b6007811115611374576113736130c2565b5b81526020015f8201601c9054906101000a900463ffffffff1663ffffffff1663ffffffff168152602001600182015f9054906101000a900473ffffffffffffffffffffffffffffffffffffffff1673ffffffffffffffffffffffffffffffffffffffff1673ffffffffffffffffffffffffffffffffffffffff1681526020016001820160149054906101000a900460ff166007811115611417576114166130c2565b5b6007811115611429576114286130c2565b5b81526020016001820160159054906101000a900461ffff1661ffff1661ffff1681526020016001820160179054906101000a900460ff1660ff1660ff1681526020016001820160189054906101000a900467ffffffffffffffff1667ffffffffffffffff1667ffffffffffffffff168152505090506114a7816122f3565b5f816040015190505b600160ff168161ffff16146117635782600c015f8573ffffffffffffffffffffffffffffffffffffffff1673ffffffffffffffffffffffffffffffffffffffff1681526020019081526020015f205f8261ffff1661ffff1681526020019081526020015f20604051806101800160405290815f82015f9054906101000a90046affffffffffffffffffffff166affffffffffffffffffffff166affffffffffffffffffffff1681526020015f8201600b9054906101000a900469ffffffffffffffffffff1669ffffffffffffffffffff1669ffffffffffffffffffff1681526020015f820160159054906101000a900461ffff1661ffff1661ffff1681526020015f820160179054906101000a900461ffff1661ffff1661ffff1681526020015f820160199054906101000a900461ffff1661ffff1661ffff1681526020015f8201601b9054906101000a900460ff166007811115611612576116116130c2565b5b6007811115611624576116236130c2565b5b81526020015f8201601c9054906101000a900463ffffffff1663ffffffff1663ffffffff168152602001600182015f9054906101000a900473ffffffffffffffffffffffffffffffffffffffff1673ffffffffffffffffffffffffffffffffffffffff1673ffffffffffffffffffffffffffffffffffffffff1681526020016001820160149054906101000a900460ff1660078111156116c7576116c66130c2565b5b60078111156116d9576116d86130c2565b5b81526020016001820160159054906101000a900461ffff1661ffff1661ffff1681526020016001820160179054906101000a900460ff1660ff1660ff1681526020016001820160189054906101000a900467ffffffffffffffff1667ffffffffffffffff1667ffffffffffffffff16815250509150611757826122f3565b816040015190506114b0565b6117a16040518060400160405280600281526020017f2d2d000000000000000000000000000000000000000000000000000000000000815250612724565b50505050565b5f6117b06122ef565b90505f81600a015f8473ffffffffffffffffffffffffffffffffffffffff1673ffffffffffffffffffffffffffffffffffffffff1681526020019081526020015f205f600160ff1661ffff1681526020019081526020015f20604051806101800160405290815f82015f9054906101000a90046affffffffffffffffffffff166affffffffffffffffffffff166affffffffffffffffffffff1681526020015f8201600b9054906101000a900469ffffffffffffffffffff1669ffffffffffffffffffff1669ffffffffffffffffffff1681526020015f820160159054906101000a900461ffff1661ffff1661ffff1681526020015f820160179054906101000a900461ffff1661ffff1661ffff1681526020015f820160199054906101000a900461ffff1661ffff1661ffff1681526020015f8201601b9054906101000a900460ff166007811115611906576119056130c2565b5b6007811115611918576119176130c2565b5b81526020015f8201601c9054906101000a900463ffffffff1663ffffffff1663ffffffff168152602001600182015f9054906101000a900473ffffffffffffffffffffffffffffffffffffffff1673ffffffffffffffffffffffffffffffffffffffff1673ffffffffffffffffffffffffffffffffffffffff1681526020016001820160149054906101000a900460ff1660078111156119bb576119ba6130c2565b5b60078111156119cd576119cc6130c2565b5b81526020016001820160159054906101000a900461ffff1661ffff1661ffff1681526020016001820160179054906101000a900460ff1660ff1660ff1681526020016001820160189054906101000a900467ffffffffffffffff1667ffffffffffffffff1667ffffffffffffffff16815250509050611a4b816122f3565b5f816040015190505b600160ff168161ffff1614611d075782600a015f8573ffffffffffffffffffffffffffffffffffffffff1673ffffffffffffffffffffffffffffffffffffffff1681526020019081526020015f205f8261ffff1661ffff1681526020019081526020015f20604051806101800160405290815f82015f9054906101000a90046affffffffffffffffffffff166affffffffffffffffffffff166affffffffffffffffffffff1681526020015f8201600b9054906101000a900469ffffffffffffffffffff1669ffffffffffffffffffff1669ffffffffffffffffffff1681526020015f820160159054906101000a900461ffff1661ffff1661ffff1681526020015f820160179054906101000a900461ffff1661ffff1661ffff1681526020015f820160199054906101000a900461ffff1661ffff1661ffff1681526020015f8201601b9054906101000a900460ff166007811115611bb657611bb56130c2565b5b6007811115611bc857611bc76130c2565b5b81526020015f8201601c9054906101000a900463ffffffff1663ffffffff1663ffffffff168152602001600182015f9054906101000a900473ffffffffffffffffffffffffffffffffffffffff1673ffffffffffffffffffffffffffffffffffffffff1673ffffffffffffffffffffffffffffffffffffffff1681526020016001820160149054906101000a900460ff166007811115611c6b57611c6a6130c2565b5b6007811115611c7d57611c7c6130c2565b5b81526020016001820160159054906101000a900461ffff1661ffff1661ffff1681526020016001820160179054906101000a900460ff1660ff1660ff1681526020016001820160189054906101000a900467ffffffffffffffff1667ffffffffffffffff1667ffffffffffffffff16815250509150611cfb826122f3565b81604001519050611a54565b611d456040518060400160405280600281526020017f2d2d000000000000000000000000000000000000000000000000000000000000815250612724565b50505050565b5f611d546122ef565b90505f81600c015f8473ffffffffffffffffffffffffffffffffffffffff1673ffffffffffffffffffffffffffffffffffffffff1681526020019081526020015f205f600160ff1661ffff1681526020019081526020015f20604051806101800160405290815f82015f9054906101000a90046affffffffffffffffffffff166affffffffffffffffffffff166affffffffffffffffffffff1681526020015f8201600b9054906101000a900469ffffffffffffffffffff1669ffffffffffffffffffff1669ffffffffffffffffffff1681526020015f820160159054906101000a900461ffff1661ffff1661ffff1681526020015f820160179054906101000a900461ffff1661ffff1661ffff1681526020015f820160199054906101000a900461ffff1661ffff1661ffff1681526020015f8201601b9054906101000a900460ff166007811115611eaa57611ea96130c2565b5b6007811115611ebc57611ebb6130c2565b5b81526020015f8201601c9054906101000a900463ffffffff1663ffffffff1663ffffffff168152602001600182015f9054906101000a900473ffffffffffffffffffffffffffffffffffffffff1673ffffffffffffffffffffffffffffffffffffffff1673ffffffffffffffffffffffffffffffffffffffff1681526020016001820160149054906101000a900460ff166007811115611f5f57611f5e6130c2565b5b6007811115611f7157611f706130c2565b5b81526020016001820160159054906101000a900461ffff1661ffff1661ffff1681526020016001820160179054906101000a900460ff1660ff1660ff1681526020016001820160189054906101000a900467ffffffffffffffff1667ffffffffffffffff1667ffffffffffffffff16815250509050611fef816122f3565b5f816080015190505b600160ff168161ffff16146122ab5782600c015f8573ffffffffffffffffffffffffffffffffffffffff1673ffffffffffffffffffffffffffffffffffffffff1681526020019081526020015f205f8261ffff1661ffff1681526020019081526020015f20604051806101800160405290815f82015f9054906101000a90046affffffffffffffffffffff166affffffffffffffffffffff166affffffffffffffffffffff1681526020015f8201600b9054906101000a900469ffffffffffffffffffff1669ffffffffffffffffffff1669ffffffffffffffffffff1681526020015f820160159054906101000a900461ffff1661ffff1661ffff1681526020015f820160179054906101000a900461ffff1661ffff1661ffff1681526020015f820160199054906101000a900461ffff1661ffff1661ffff1681526020015f8201601b9054906101000a900460ff16600781111561215a576121596130c2565b5b600781111561216c5761216b6130c2565b5b81526020015f8201601c9054906101000a900463ffffffff1663ffffffff1663ffffffff168152602001600182015f9054906101000a900473ffffffffffffffffffffffffffffffffffffffff1673ffffffffffffffffffffffffffffffffffffffff1673ffffffffffffffffffffffffffffffffffffffff1681526020016001820160149054906101000a900460ff16600781111561220f5761220e6130c2565b5b6007811115612221576122206130c2565b5b81526020016001820160159054906101000a900461ffff1661ffff1661ffff1681526020016001820160179054906101000a900460ff1660ff1660ff1681526020016001820160189054906101000a900467ffffffffffffffff1667ffffffffffffffff1667ffffffffffffffff1681525050915061229f826122f3565b81608001519050611ff8565b6122e96040518060400160405280600281526020017f2d2d000000000000000000000000000000000000000000000000000000000000815250612724565b50505050565b5f90565b6001816060015161ffff16036123ae576123a981604001518260600151836080015160405160240161232793929190613165565b6040516020818303038152906040527f08ee5666000000000000000000000000000000000000000000000000000000007bffffffffffffffffffffffffffffffffffffffffffffffffffffffff19166020820180517bffffffffffffffffffffffffffffffffffffffffffffffffffffffff83818316178352505050506127bd565b612719565b6124a46123be8260a001516127d7565b6123cb8360e00151612b0a565b6123de8460c0015163ffffffff16612d4d565b6123f085610120015161ffff16612d4d565b604051602001612403949392919061328b565b604051602081830303815290604052604051602401612422919061333d565b6040516020818303038152906040527f41304fac000000000000000000000000000000000000000000000000000000007bffffffffffffffffffffffffffffffffffffffffffffffffffffffff19166020820180517bffffffffffffffffffffffffffffffffffffffffffffffffffffffff83818316178352505050506127bd565b61254a8160400151826060015183608001516040516024016124c8939291906133a7565b6040516020818303038152906040527f08ee5666000000000000000000000000000000000000000000000000000000007bffffffffffffffffffffffffffffffffffffffffffffffffffffffff19166020820180517bffffffffffffffffffffffffffffffffffffffffffffffffffffffff83818316178352505050506127bd565b6125e48160200151604051602401612562919061345d565b6040516020818303038152906040527f9710a9d0000000000000000000000000000000000000000000000000000000007bffffffffffffffffffffffffffffffffffffffffffffffffffffffff19166020820180517bffffffffffffffffffffffffffffffffffffffffffffffffffffffff83818316178352505050506127bd565b61267d815f01516040516024016125fb91906134f8565b6040516020818303038152906040527f9710a9d0000000000000000000000000000000000000000000000000000000007bffffffffffffffffffffffffffffffffffffffffffffffffffffffff19166020820180517bffffffffffffffffffffffffffffffffffffffffffffffffffffffff83818316178352505050506127bd565b6127188161014001516040516024016126969190613589565b6040516020818303038152906040527f9710a9d0000000000000000000000000000000000000000000000000000000007bffffffffffffffffffffffffffffffffffffffffffffffffffffffff19166020820180517bffffffffffffffffffffffffffffffffffffffffffffffffffffffff83818316178352505050506127bd565b5b612721612e17565b50565b6127ba81604051602401612738919061333d565b6040516020818303038152906040527f41304fac000000000000000000000000000000000000000000000000000000007bffffffffffffffffffffffffffffffffffffffffffffffffffffffff19166020820180517bffffffffffffffffffffffffffffffffffffffffffffffffffffffff83818316178352505050506127bd565b50565b6127d4816127cc612ead612ed3565b63ffffffff16565b50565b60605f600867ffffffffffffffff8111156127f5576127f46135b5565b5b60405190808252806020026020018201604052801561282857816020015b60608152602001906001900390816128135790505b5090506040518060400160405280600d81526020017f556e696e697469616c697a656400000000000000000000000000000000000000815250815f81518110612874576128736135e2565b5b60200260200101819052506040518060400160405280600881526020017f4c696d6974426964000000000000000000000000000000000000000000000000815250816001815181106128c9576128c86135e2565b5b60200260200101819052506040518060400160405280600881526020017f4c696d697441736b0000000000000000000000000000000000000000000000008152508160028151811061291e5761291d6135e2565b5b60200260200101819052506040518060400160405280600981526020017f4d61726b6574426964000000000000000000000000000000000000000000000081525081600381518110612973576129726135e2565b5b60200260200101819052506040518060400160405280600981526020017f4d61726b657441736b0000000000000000000000000000000000000000000000815250816004815181106129c8576129c76135e2565b5b60200260200101819052506040518060400160405280600a81526020017f4c696d697453686f72740000000000000000000000000000000000000000000081525081600581518110612a1d57612a1c6135e2565b5b60200260200101819052506040518060400160405280600981526020017f43616e63656c6c6564000000000000000000000000000000000000000000000081525081600681518110612a7257612a716135e2565b5b60200260200101819052506040518060400160405280600781526020017f4d6174636865640000000000000000000000000000000000000000000000000081525081600781518110612ac757612ac66135e2565b5b602002602001018190525080836007811115612ae657612ae56130c2565b5b60ff1681518110612afa57612af96135e2565b5b6020026020010151915050919050565b60605f600467ffffffffffffffff811115612b2857612b276135b5565b5b604051908082528060200260200182016040528015612b5b57816020015b6060815260200190600190039081612b465790505b5090506040518060400160405280600781526020017f7a65726f28302900000000000000000000000000000000000000000000000000815250815f81518110612ba757612ba66135e2565b5b60200260200101819052506040518060400160405280600b81526020017f726563656976657228312900000000000000000000000000000000000000000081525081600181518110612bfc57612bfb6135e2565b5b60200260200101819052506040518060400160405280600981526020017f73656e646572283229000000000000000000000000000000000000000000000081525081600281518110612c5157612c506135e2565b5b60200260200101819052506040518060400160405280600881526020017f657874726128332900000000000000000000000000000000000000000000000081525081600381518110612ca657612ca56135e2565b5b60200260200101819052505f83905060038173ffffffffffffffffffffffffffffffffffffffff1611612d0d57818173ffffffffffffffffffffffffffffffffffffffff1681518110612cfc57612cfb6135e2565b5b602002602001015192505050612d48565b6040518060400160405280600481526020017f6164647200000000000000000000000000000000000000000000000000000000815250925050505b919050565b60605f6001612d5b84612ede565b0190505f8167ffffffffffffffff811115612d7957612d786135b5565b5b6040519080825280601f01601f191660200182016040528015612dab5781602001600182028036833780820191505090505b5090505f82602001820190505b600115612e0c578080600190039150507f3031323334353637383961626364656600000000000000000000000000000000600a86061a8153600a8581612e0157612e0061360f565b5b0494505f8503612db8575b819350505050919050565b612eab604051602401612e299061365f565b6040516020818303038152906040527f41304fac000000000000000000000000000000000000000000000000000000007bffffffffffffffffffffffffffffffffffffffffffffffffffffffff19166020820180517bffffffffffffffffffffffffffffffffffffffffffffffffffffffff83818316178352505050506127bd565b565b5f815190505f6a636f6e736f6c652e6c6f679050602083015f808483855afa5050505050565b61302f819050919050565b5f805f90507a184f03e93ff9f4daa797ed6e38ed64bf6a1f0100000000000000008310612f3a577a184f03e93ff9f4daa797ed6e38ed64bf6a1f0100000000000000008381612f3057612f2f61360f565b5b0492506040810190505b6d04ee2d6d415b85acef81000000008310612f77576d04ee2d6d415b85acef81000000008381612f6d57612f6c61360f565b5b0492506020810190505b662386f26fc100008310612fa657662386f26fc100008381612f9c57612f9b61360f565b5b0492506010810190505b6305f5e1008310612fcf576305f5e1008381612fc557612fc461360f565b5b0492506008810190505b6127108310612ff4576127108381612fea57612fe961360f565b5b0492506004810190505b60648310613017576064838161300d5761300c61360f565b5b0492506002810190505b600a8310613026576001810190505b80915050919050565b61303761367d565b565b5f80fd5b5f73ffffffffffffffffffffffffffffffffffffffff82169050919050565b5f6130668261303d565b9050919050565b6130768161305c565b8114613080575f80fd5b50565b5f813590506130918161306d565b92915050565b5f602082840312156130ac576130ab613039565b5b5f6130b984828501613083565b91505092915050565b7f4e487b71000000000000000000000000000000000000000000000000000000005f52602160045260245ffd5b5f82825260208201905092915050565b7f484541443a0000000000000000000000000000000000000000000000000000005f82015250565b5f6131336005836130ef565b915061313e826130ff565b602082019050919050565b5f61ffff82169050919050565b61315f81613149565b82525050565b5f6080820190508181035f83015261317c81613127565b905061318b6020830186613156565b6131986040830185613156565b6131a56060830184613156565b949350505050565b5f81519050919050565b5f81905092915050565b5f5b838110156131de5780820151818401526020810190506131c3565b5f8484015250505050565b5f6131f3826131ad565b6131fd81856131b7565b935061320d8185602086016131c1565b80840191505092915050565b7f3a20000000000000000000000000000000000000000000000000000000000000815250565b7f2c206354696d653a200000000000000000000000000000000000000000000000815250565b7f2c206943523a2000000000000000000000000000000000000000000000000000815250565b5f61329682876131e9565b91506132a182613219565b6002820191506132b182866131e9565b91506132bc8261323f565b6009820191506132cc82856131e9565b91506132d782613265565b6007820191506132e782846131e9565b915081905095945050505050565b5f601f19601f8301169050919050565b5f61330f826131ad565b61331981856130ef565b93506133298185602086016131c1565b613332816132f5565b840191505092915050565b5f6020820190508181035f8301526133558184613305565b905092915050565b7f69642873293a00000000000000000000000000000000000000000000000000005f82015250565b5f6133916006836130ef565b915061339c8261335d565b602082019050919050565b5f6080820190508181035f8301526133be81613385565b90506133cd6020830186613156565b6133da6040830185613156565b6133e76060830184613156565b949350505050565b7f70726963653a00000000000000000000000000000000000000000000000000005f82015250565b5f6134236006836130ef565b915061342e826133ef565b602082019050919050565b5f69ffffffffffffffffffff82169050919050565b61345781613439565b82525050565b5f6040820190508181035f83015261347481613417565b9050613483602083018461344e565b92915050565b7f657263416d6f756e743a000000000000000000000000000000000000000000005f82015250565b5f6134bd600a836130ef565b91506134c882613489565b602082019050919050565b5f6affffffffffffffffffffff82169050919050565b6134f2816134d3565b82525050565b5f6040820190508181035f83015261350f816134b1565b905061351e60208301846134e9565b92915050565b7f73686f72745265636f726449643a0000000000000000000000000000000000005f82015250565b5f613558600e836130ef565b915061356382613524565b602082019050919050565b5f60ff82169050919050565b6135838161356e565b82525050565b5f6040820190508181035f8301526135a08161354c565b90506135af602083018461357a565b92915050565b7f4e487b71000000000000000000000000000000000000000000000000000000005f52604160045260245ffd5b7f4e487b71000000000000000000000000000000000000000000000000000000005f52603260045260245ffd5b7f4e487b71000000000000000000000000000000000000000000000000000000005f52601260045260245ffd5b50565b5f61364a5f836130ef565b91506136558261363c565b5f82019050919050565b5f6020820190508181035f8301526136768161363f565b9050919050565b7f4e487b71000000000000000000000000000000000000000000000000000000005f52605160045260245ffdfea2646970667358221220975fd729324f903bd67b4a60aa8e9f1ed06a848bb0b862515994ccc592e78e6164736f6c63430008150033","linkReferences":{}},"methodIdentifiers":{"logAsks(address)":"3fde7ad3","logBids(address)":"55ed30fd","logInactiveAsks(address)":"758d7bc1","logInactiveBids(address)":"c648ed3e","logInactiveShorts(address)":"be2bdf7d","logShorts(address)":"fa045047"},"id":53}