{"abi":[{"type":"constructor","inputs":[{"name":"_rethBridge","type":"address","internalType":"address"},{"name":"_stethBridge","type":"address","internalType":"address"}],"stateMutability":"nonpayable"},{"type":"function","name":"deposit","inputs":[{"name":"bridge","type":"address","internalType":"address"},{"name":"amount","type":"uint88","internalType":"uint88"}],"outputs":[],"stateMutability":"nonpayable"},{"type":"function","name":"depositEth","inputs":[{"name":"bridge","type":"address","internalType":"address"}],"outputs":[],"stateMutability":"payable"},{"type":"function","name":"getBridges","inputs":[{"name":"vault","type":"uint256","internalType":"uint256"}],"outputs":[{"name":"","type":"address[]","internalType":"address[]"}],"stateMutability":"view"},{"type":"function","name":"getDethTotal","inputs":[{"name":"vault","type":"uint256","internalType":"uint256"}],"outputs":[{"name":"","type":"uint256","internalType":"uint256"}],"stateMutability":"view"},{"type":"function","name":"withdraw","inputs":[{"name":"bridge","type":"address","internalType":"address"},{"name":"dethAmount","type":"uint88","internalType":"uint88"}],"outputs":[],"stateMutability":"nonpayable"},{"type":"function","name":"withdrawTapp","inputs":[{"name":"bridge","type":"address","internalType":"address"},{"name":"dethAmount","type":"uint88","internalType":"uint88"}],"outputs":[],"stateMutability":"nonpayable"},{"type":"event","name":"Deposit","inputs":[{"name":"bridge","type":"address","indexed":true,"internalType":"address"},{"name":"user","type":"address","indexed":true,"internalType":"address"},{"name":"amount","type":"uint256","indexed":false,"internalType":"uint256"}],"anonymous":false},{"type":"event","name":"DepositEth","inputs":[{"name":"bridge","type":"address","indexed":true,"internalType":"address"},{"name":"user","type":"address","indexed":true,"internalType":"address"},{"name":"amount","type":"uint256","indexed":false,"internalType":"uint256"}],"anonymous":false},{"type":"event","name":"Withdraw","inputs":[{"name":"bridge","type":"address","indexed":true,"internalType":"address"},{"name":"user","type":"address","indexed":true,"internalType":"address"},{"name":"amount","type":"uint256","indexed":false,"internalType":"uint256"},{"name":"fee","type":"uint256","indexed":false,"internalType":"uint256"}],"anonymous":false},{"type":"event","name":"WithdrawTapp","inputs":[{"name":"bridge","type":"address","indexed":true,"internalType":"address"},{"name":"recipient","type":"address","indexed":true,"internalType":"address"},{"name":"amount","type":"uint256","indexed":false,"internalType":"uint256"}],"anonymous":false},{"type":"error","name":"InvalidAmount","inputs":[]},{"type":"error","name":"InvalidBridge","inputs":[]},{"type":"error","name":"InvalidTWAPSecondsAgo","inputs":[]},{"type":"error","name":"MustUseExistingBridgeCredit","inputs":[]},{"type":"error","name":"PRBMath_MulDiv18_Overflow","inputs":[{"name":"x","type":"uint256","internalType":"uint256"},{"name":"y","type":"uint256","internalType":"uint256"}]},{"type":"error","name":"PRBMath_MulDiv_Overflow","inputs":[{"name":"x","type":"uint256","internalType":"uint256"},{"name":"y","type":"uint256","internalType":"uint256"},{"name":"denominator","type":"uint256","internalType":"uint256"}]},{"type":"error","name":"ParameterIsZero","inputs":[]},{"type":"error","name":"ReentrantCall","inputs":[]},{"type":"error","name":"ReentrantCallView","inputs":[]},{"type":"error","name":"T","inputs":[]},{"type":"error","name":"UnderMinimumDeposit","inputs":[]}],"bytecode":{"object":"0x60c060405234801562000010575f80fd5b50604051620039693803806200396983398181016040528101906200003691906200010b565b8173ffffffffffffffffffffffffffffffffffffffff1660808173ffffffffffffffffffffffffffffffffffffffff16815250508073ffffffffffffffffffffffffffffffffffffffff1660a08173ffffffffffffffffffffffffffffffffffffffff1681525050505062000150565b5f80fd5b5f73ffffffffffffffffffffffffffffffffffffffff82169050919050565b5f620000d582620000aa565b9050919050565b620000e781620000c9565b8114620000f2575f80fd5b50565b5f815190506200010581620000dc565b92915050565b5f8060408385031215620001245762000123620000a6565b5b5f6200013385828601620000f5565b92505060206200014685828601620000f5565b9150509250929050565b60805160a0516137db6200018e5f395f818161025a015281816102ca0152610c9701525f8181610239015281816102a90152610c3b01526137db5ff3fe608060405260043610610054575f3560e01c80631798cd0e146100585780636b23cb9314610080578063ad9d4ba3146100bc578063b22b4c87146100d8578063cf25425114610100578063e946805114610128575b5f80fd5b348015610063575f80fd5b5061007e60048036038101906100799190612c74565b610164565b005b34801561008b575f80fd5b506100a660048036038101906100a19190612ce5565b6104f9565b6040516100b39190612dc7565b60405180910390f35b6100d660048036038101906100d19190612de7565b610597565b005b3480156100e3575f80fd5b506100fe60048036038101906100f99190612c74565b61077e565b005b34801561010b575f80fd5b5061012660048036038101906101219190612c74565b61097e565b005b348015610133575f80fd5b5061014e60048036038101906101499190612ce5565b610bd5565b60405161015b9190612e21565b60405180910390f35b600260ff165f600201601c9054906101000a900460ff1660ff16036101b5576040517f37ed32e800000000000000000000000000000000000000000000000000000000815260040160405180910390fd5b60025f600201601c6101000a81548160ff021916908360ff1602179055505f816affffffffffffffffffffff1603610219576040517f699f989700000000000000000000000000000000000000000000000000000000815260040160405180910390fd5b5f8061022484610c37565b915091505f600183036103ce575f61028b83867f00000000000000000000000000000000000000000000000000000000000000007f000000000000000000000000000000000000000000000000000000000000000088610d8890949392919063ffffffff16565b90505f816affffffffffffffffffffff1611156103cc575f6102ee847f00000000000000000000000000000000000000000000000000000000000000007f0000000000000000000000000000000000000000000000000000000000000000611315565b90505f8111156103ca5761031881836affffffffffffffffffffff1661158a90919063ffffffff16565b925082866103269190612e67565b9550825f6007015f8781526020019081526020015f205f3073ffffffffffffffffffffffffffffffffffffffff1673ffffffffffffffffffffffffffffffffffffffff1681526020019081526020015f205f015f8282829054906101000a90046affffffffffffffffffffff1661039d9190612ea5565b92506101000a8154816affffffffffffffffffffff02191690836affffffffffffffffffffff1602179055505b505b505b5f6103d984866115f6565b90506103f085838661169b9092919063ffffffff16565b8573ffffffffffffffffffffffffffffffffffffffff1663f3fef3a333836040518363ffffffff1660e01b815260040161042b929190612f2b565b6020604051808303815f875af1158015610447573d5f803e3d5ffd5b505050506040513d601f19601f8201168201806040525081019061046b9190612f66565b503373ffffffffffffffffffffffffffffffffffffffff168673ffffffffffffffffffffffffffffffffffffffff167ff341246adaac6f497bc2a656f546ab9e182111d630394f0c57c710a59a2cb56787856040516104cb929190612f91565b60405180910390a35050505060015f600201601c6101000a81548160ff021916908360ff1602179055505050565b60605f6006015f8381526020019081526020015f2080548060200260200160405190810160405280929190818152602001828054801561058b57602002820191905f5260205f20905b815f9054906101000a900473ffffffffffffffffffffffffffffffffffffffff1673ffffffffffffffffffffffffffffffffffffffff1681526020019060010190808311610542575b50505050509050919050565b600260ff165f600201601c9054906101000a900460ff1660ff16036105e8576040517f37ed32e800000000000000000000000000000000000000000000000000000000815260040160405180910390fd5b60025f600201601c6101000a81548160ff021916908360ff160217905550662386f26fc100006affffffffffffffffffffff16341015610654576040517f4e616c2200000000000000000000000000000000000000000000000000000000815260040160405180910390fd5b5f8061065f83610c37565b915091505f8373ffffffffffffffffffffffffffffffffffffffff1663439370b1346040518263ffffffff1660e01b815260040160206040518083038185885af11580156106af573d5f803e3d5ffd5b50505050506040513d601f19601f820116820180604052508101906106d49190612f66565b90506106eb8282856117bf9092919063ffffffff16565b6106f5838261199e565b3373ffffffffffffffffffffffffffffffffffffffff168473ffffffffffffffffffffffffffffffffffffffff167fecd351ae13715d8d17a61da95116380847ff2cb8439b725b614d2ed19a8544bb836040516107529190612fb8565b60405180910390a350505060015f600201601c6101000a81548160ff021916908360ff16021790555050565b600260ff165f600201601c9054906101000a900460ff1660ff16036107cf576040517f37ed32e800000000000000000000000000000000000000000000000000000000815260040160405180910390fd5b60025f600201601c6101000a81548160ff021916908360ff160217905550662386f26fc100006affffffffffffffffffffff16816affffffffffffffffffffff161015610848576040517f4e616c2200000000000000000000000000000000000000000000000000000000815260040160405180910390fd5b5f8061085384610c37565b915091505f8473ffffffffffffffffffffffffffffffffffffffff166347e7ef2433866040518363ffffffff1660e01b8152600401610893929190612f2b565b6020604051808303815f875af11580156108af573d5f803e3d5ffd5b505050506040513d601f19601f820116820180604052508101906108d39190612f66565b90506108ea8282856117bf9092919063ffffffff16565b6108f4838261199e565b3373ffffffffffffffffffffffffffffffffffffffff168573ffffffffffffffffffffffffffffffffffffffff167f5548c837ab068cf56a2c2479df0882a4922fd203edb7517321831d95078c5f62836040516109519190612fb8565b60405180910390a350505060015f600201601c6101000a81548160ff021916908360ff1602179055505050565b610986611a39565b5f816affffffffffffffffffffff16036109cc576040517f699f989700000000000000000000000000000000000000000000000000000000815260040160405180910390fd5b5f6109d683610c37565b5090505f6109e482846115f6565b9050825f6007015f8481526020019081526020015f205f3073ffffffffffffffffffffffffffffffffffffffff1673ffffffffffffffffffffffffffffffffffffffff1681526020019081526020015f205f015f8282829054906101000a90046affffffffffffffffffffff16610a5b9190612e67565b92506101000a8154816affffffffffffffffffffff02191690836affffffffffffffffffffff160217905550825f6005015f8481526020019081526020015f205f01600b8282829054906101000a90046affffffffffffffffffffff16610ac29190612e67565b92506101000a8154816affffffffffffffffffffff02191690836affffffffffffffffffffff1602179055508373ffffffffffffffffffffffffffffffffffffffff1663f3fef3a333836040518363ffffffff1660e01b8152600401610b29929190612f2b565b6020604051808303815f875af1158015610b45573d5f803e3d5ffd5b505050506040513d601f19601f82011682018060405250810190610b699190612f66565b503373ffffffffffffffffffffffffffffffffffffffff168473ffffffffffffffffffffffffffffffffffffffff167f0cb9e09e8d84d45d18c5f41ab0fc481c2d09373cce6d995742cfde5a93b469c185604051610bc79190612fb8565b60405180910390a350505050565b5f600260ff165f600201601c9054906101000a900460ff1660ff1603610c27576040517f53140ec200000000000000000000000000000000000000000000000000000000815260040160405180910390fd5b610c3082611ad4565b9050919050565b5f807f000000000000000000000000000000000000000000000000000000000000000073ffffffffffffffffffffffffffffffffffffffff168373ffffffffffffffffffffffffffffffffffffffff1603610c955760019150610d83565b7f000000000000000000000000000000000000000000000000000000000000000073ffffffffffffffffffffffffffffffffffffffff168373ffffffffffffffffffffffffffffffffffffffff1603610cf5576001915060019050610d82565b5f6004015f8473ffffffffffffffffffffffffffffffffffffffff1673ffffffffffffffffffffffffffffffffffffffff1681526020019081526020015f205f015f9054906101000a900460ff1660ff1691505f8203610d81576040517f5b43e1a700000000000000000000000000000000000000000000000000000000815260040160405180910390fd5b5b5b915091565b5f80610d92611bd0565b90505f816007015f8981526020019081526020015f205f3373ffffffffffffffffffffffffffffffffffffffff1673ffffffffffffffffffffffffffffffffffffffff1681526020019081526020015f2090505f805f890361107d57826001015f9054906101000a90046affffffffffffffffffffff169150876affffffffffffffffffffff16826affffffffffffffffffffff1610610e8d5787836001015f8282829054906101000a90046affffffffffffffffffffff16610e559190612e67565b92506101000a8154816affffffffffffffffffffff02191690836affffffffffffffffffffff1602179055505f94505050505061130c565b5f836001015f6101000a8154816affffffffffffffffffffff02191690836affffffffffffffffffffff1602179055508188610ec99190612e67565b975082600101600b9054906101000a90046affffffffffffffffffffff1690506064816affffffffffffffffffffff161015610f0b578794505050505061130c565b60648673ffffffffffffffffffffffffffffffffffffffff16631e70f1956040518163ffffffff1660e01b8152600401602060405180830381865afa158015610f56573d5f803e3d5ffd5b505050506040513d601f19601f82011682018060405250810190610f7a9190612f66565b101561104b57876affffffffffffffffffffff16816affffffffffffffffffffff1610611003578783600101600b8282829054906101000a90046affffffffffffffffffffff16610fcb9190612e67565b92506101000a8154816affffffffffffffffffffff02191690836affffffffffffffffffffff1602179055505f94505050505061130c565b5f83600101600b6101000a8154816affffffffffffffffffffff02191690836affffffffffffffffffffff16021790555080886110409190612e67565b94505050505061130c565b6040517f07aa085f00000000000000000000000000000000000000000000000000000000815260040160405180910390fd5b82600101600b9054906101000a90046affffffffffffffffffffff169050876affffffffffffffffffffff16816affffffffffffffffffffff161061111e578783600101600b8282829054906101000a90046affffffffffffffffffffff166110e69190612e67565b92506101000a8154816affffffffffffffffffffff02191690836affffffffffffffffffffff1602179055505f94505050505061130c565b5f83600101600b6101000a8154816affffffffffffffffffffff02191690836affffffffffffffffffffff160217905550808861115b9190612e67565b9750826001015f9054906101000a90046affffffffffffffffffffff1691506064826affffffffffffffffffffff16101561119c578794505050505061130c565b60648773ffffffffffffffffffffffffffffffffffffffff16631e70f1956040518163ffffffff1660e01b8152600401602060405180830381865afa1580156111e7573d5f803e3d5ffd5b505050506040513d601f19601f8201168201806040525081019061120b9190612f66565b10156112da57876affffffffffffffffffffff16826affffffffffffffffffffff16106112935787836001015f8282829054906101000a90046affffffffffffffffffffff1661125b9190612e67565b92506101000a8154816affffffffffffffffffffff02191690836affffffffffffffffffffff1602179055505f94505050505061130c565b5f836001015f6101000a8154816affffffffffffffffffffff02191690836affffffffffffffffffffff16021790555081886112cf9190612e67565b94505050505061130c565b6040517f07aa085f00000000000000000000000000000000000000000000000000000000815260040160405180910390fd5b95945050505050565b5f808390505f8390505f611372670de0b6b3a764000061070873553e9c493678d8606d6a5ba284643db2110df82373ae78736cd615f374d3085123a210448e74fc639373c02aaa39b223fe8d0a0e5c4f27ead9083c756cc2611bd4565b90505f8373ffffffffffffffffffffffffffffffffffffffff16638a9f6a266040518163ffffffff1660e01b8152600401602060405180830381865afa1580156113be573d5f803e3d5ffd5b505050506040513d601f19601f820116820180604052508101906113e29190612f66565b90505f6113f88284611de590919063ffffffff16565b90505f61144e670de0b6b3a764000061070873109830a1aaad605bbf02a9dfa7b0b92ec2fb7daa737f39c581f595b53c5cb19bd0b3f8da6c935e2ca073c02aaa39b223fe8d0a0e5c4f27ead9083c756cc2611bd4565b90505f8573ffffffffffffffffffffffffffffffffffffffff16638a9f6a266040518163ffffffff1660e01b8152600401602060405180830381865afa15801561149a573d5f803e3d5ffd5b505050506040513d601f19601f820116820180604052508101906114be9190612f66565b90505f6114d48284611de590919063ffffffff16565b90508084111561151f575f8c0361151a57670de0b6b3a76400006115018286611de590919063ffffffff16565b61150b9190612fd1565b98505050505050505050611583565b61157a565b838111156115695760018c0361156457670de0b6b3a764000061154b8583611de590919063ffffffff16565b6115559190612fd1565b98505050505050505050611583565b611579565b5f98505050505050505050611583565b5b50505050505050505b9392505050565b5f806115a3846affffffffffffffffffffff1684611e01565b90506affffffffffffffffffffff80168111156115ec576040517f2c5211c600000000000000000000000000000000000000000000000000000000815260040160405180910390fd5b8091505092915050565b5f8061160184611ad4565b90505f806005015f8681526020019081526020015f205f01600b9054906101000a90046affffffffffffffffffffff169050806affffffffffffffffffffff168210611651578392505050611695565b611690816affffffffffffffffffffff1661168284876affffffffffffffffffffff16611ee690919063ffffffff16565b611f0690919063ffffffff16565b925050505b92915050565b5f6116a4611bd0565b905081836116b29190612ea5565b816007015f8681526020019081526020015f205f3373ffffffffffffffffffffffffffffffffffffffff1673ffffffffffffffffffffffffffffffffffffffff1681526020019081526020015f205f015f8282829054906101000a90046affffffffffffffffffffff166117269190612e67565b92506101000a8154816affffffffffffffffffffff02191690836affffffffffffffffffffff16021790555082816005015f8681526020019081526020015f205f01600b8282829054906101000a90046affffffffffffffffffffff1661178d9190612e67565b92506101000a8154816affffffffffffffffffffff02191690836affffffffffffffffffffff16021790555050505050565b5f6117c8611bd0565b90505f816007015f8681526020019081526020015f205f3373ffffffffffffffffffffffffffffffffffffffff1673ffffffffffffffffffffffffffffffffffffffff1681526020019081526020015f209050600185036118dc575f84036118845782816001015f8282829054906101000a90046affffffffffffffffffffff166118539190612ea5565b92506101000a8154816affffffffffffffffffffff02191690836affffffffffffffffffffff1602179055506118db565b8281600101600b8282829054906101000a90046affffffffffffffffffffff166118ae9190612ea5565b92506101000a8154816affffffffffffffffffffff02191690836affffffffffffffffffffff1602179055505b5b82815f015f8282829054906101000a90046affffffffffffffffffffff166119049190612ea5565b92506101000a8154816affffffffffffffffffffff02191690836affffffffffffffffffffff16021790555082826005015f8781526020019081526020015f205f01600b8282829054906101000a90046affffffffffffffffffffff1661196b9190612ea5565b92506101000a8154816affffffffffffffffffffff02191690836affffffffffffffffffffff1602179055505050505050565b5f806005015f8481526020019081526020015f205f01600b9054906101000a90046affffffffffffffffffffff169050683635c9adc5dea00000816affffffffffffffffffffff16118015611a255750662386f26fc10000611a23826affffffffffffffffffffff16846affffffffffffffffffffff16611f6e90919063ffffffff16565b115b15611a3457611a3383611f97565b5b505050565b611a4161237c565b60030160029054906101000a900473ffffffffffffffffffffffffffffffffffffffff1673ffffffffffffffffffffffffffffffffffffffff163373ffffffffffffffffffffffffffffffffffffffff1614611ad2576040517f08c379a0000000000000000000000000000000000000000000000000000000008152600401611ac990613084565b60405180910390fd5b565b5f80611ade611bd0565b90505f816006015f8581526020019081526020015f2090505f818054905090505f5b81811015611bc757828181548110611b1b57611b1a6130a2565b5b905f5260205f20015f9054906101000a900473ffffffffffffffffffffffffffffffffffffffff1673ffffffffffffffffffffffffffffffffffffffff16631e70f1956040518163ffffffff1660e01b8152600401602060405180830381865afa158015611b8b573d5f803e3d5ffd5b505050506040513d601f19601f82011682018060405250810190611baf9190612f66565b85611bba91906130cf565b9450806001019050611b00565b50505050919050565b5f90565b5f808563ffffffff1611611c14576040517fe290d66f00000000000000000000000000000000000000000000000000000000815260040160405180910390fd5b5f600267ffffffffffffffff811115611c3057611c2f613102565b5b604051908082528060200260200182016040528015611c5e5781602001602082028036833780820191505090505b50905085815f81518110611c7557611c746130a2565b5b602002602001019063ffffffff16908163ffffffff16815250505f81600181518110611ca457611ca36130a2565b5b602002602001019063ffffffff16908163ffffffff16815250505f8573ffffffffffffffffffffffffffffffffffffffff1663883bdbfd836040518263ffffffff1660e01b8152600401611cf891906131f5565b5f60405180830381865afa158015611d12573d5f803e3d5ffd5b505050506040513d5f823e3d601f19601f82011682018060405250810190611d3a9190613458565b5090505f815f81518110611d5157611d506130a2565b5b602002602001015182600181518110611d6d57611d6c6130a2565b5b6020026020010151611d7f91906134ce565b90505f8860030b82611d919190613559565b90505f8260060b128015611db657505f8960030b83611db091906135c1565b60060b14155b15611dca578080611dc6906135fd565b9150505b611dd6818b89896123a8565b94505050505095945050505050565b5f611df983670de0b6b3a7640000846125b1565b905092915050565b5f805f80198486098486029250828110838203039150505f8103611e4157670de0b6b3a76400008281611e3757611e3661352c565b5b0492505050611ee0565b670de0b6b3a76400008110611e8f5784846040517f5173648d000000000000000000000000000000000000000000000000000000008152600401611e86929190613644565b60405180910390fd5b5f670de0b6b3a764000085870990507faccb18165bd6fe31ae1cf318dc5b51eee0e1ba569b88cd74c1773b91fac10669600162040000805f0304018483118403026204000083860304170293505050505b92915050565b5f611efe836affffffffffffffffffffff1683611e01565b905092915050565b5f80611f1b84670de0b6b3a7640000856125b1565b90506affffffffffffffffffffff8016811115611f64576040517f2c5211c600000000000000000000000000000000000000000000000000000000815260040160405180910390fd5b8091505092915050565b5f611f8f836affffffffffffffffffffff16670de0b6b3a7640000846125b1565b905092915050565b5f611fa0611bd0565b90505f816005015f8481526020019081526020015f2090505f826007015f8581526020019081526020015f205f3073ffffffffffffffffffffffffffffffffffffffff1673ffffffffffffffffffffffffffffffffffffffff1681526020019081526020015f2090505f61201385611ad4565b90505f835f01600b9054906101000a90046affffffffffffffffffffff1690505f845f015f9054906101000a90046affffffffffffffffffffff1690505f845f015f9054906101000a90046affffffffffffffffffffff169050826affffffffffffffffffffff16846affffffffffffffffffffff161161209a5750505050505050612379565b5f83856120a79190612e67565b90505f836affffffffffffffffffffff160361214e5780865f015f8282829054906101000a90046affffffffffffffffffffff166120e59190612ea5565b92506101000a8154816affffffffffffffffffffff02191690836affffffffffffffffffffff16021790555084875f01600b6101000a8154816affffffffffffffffffffff02191690836affffffffffffffffffffff1602179055505050505050505050612379565b5f61219b856affffffffffffffffffffff1661218d856affffffffffffffffffffff16856affffffffffffffffffffff16611ee690919063ffffffff16565b611f0690919063ffffffff16565b905080826121a99190612e67565b91505f6121d46121b88c6126c3565b846affffffffffffffffffffff1661158a90919063ffffffff16565b905080836121e29190612e67565b92505f612212866affffffffffffffffffffff16856affffffffffffffffffffff1661274f90919063ffffffff16565b90505f8169ffffffffffffffffffff1603612237575050505050505050505050612379565b81836122439190612ea5565b895f015f8282829054906101000a90046affffffffffffffffffffff1661226a9190612ea5565b92506101000a8154816affffffffffffffffffffff02191690836affffffffffffffffffffff160217905550878a5f01600b6101000a8154816affffffffffffffffffffff02191690836affffffffffffffffffffff160217905550808a5f0160168282829054906101000a900469ffffffffffffffffffff166122ee9190613680565b92506101000a81548169ffffffffffffffffffff021916908369ffffffffffffffffffff160217905550838a6001015f8282829054906101000a90046affffffffffffffffffffff166123419190612ea5565b92506101000a8154816affffffffffffffffffffff02191690836affffffffffffffffffffff16021790555050505050505050505050505b50565b5f807fc8fcad8db84d3cc18b4c41d551ea0ee66dd599cde068d998e57d5e09332c131c90508091505090565b5f806123b3866127c3565b90506fffffffffffffffffffffffffffffffff80168173ffffffffffffffffffffffffffffffffffffffff16116124cc575f8173ffffffffffffffffffffffffffffffffffffffff168273ffffffffffffffffffffffffffffffffffffffff1661241d91906136bd565b90508373ffffffffffffffffffffffffffffffffffffffff168573ffffffffffffffffffffffffffffffffffffffff161061248d576124887801000000000000000000000000000000000000000000000000876fffffffffffffffffffffffffffffffff1683612bb4565b6124c4565b6124c381876fffffffffffffffffffffffffffffffff167801000000000000000000000000000000000000000000000000612bb4565b5b9250506125a8565b5f61250d8273ffffffffffffffffffffffffffffffffffffffff168373ffffffffffffffffffffffffffffffffffffffff1668010000000000000000612bb4565b90508373ffffffffffffffffffffffffffffffffffffffff168573ffffffffffffffffffffffffffffffffffffffff161061257557612570700100000000000000000000000000000000876fffffffffffffffffffffffffffffffff1683612bb4565b6125a4565b6125a381876fffffffffffffffffffffffffffffffff16700100000000000000000000000000000000612bb4565b5b9250505b50949350505050565b5f805f80198587098587029250828110838203039150505f81036125e9578382816125df576125de61352c565b5b04925050506126bc565b838110612631578585856040517f63a05778000000000000000000000000000000000000000000000000000000008152600401612628939291906136fe565b60405180910390fd5b5f8486880990508281118203915080830392505f6001861901861690505f81870496508185049450600182835f0304019050808402851794505f60028860030218905080880260020381029050808802600203810290508088026002038102905080880260020381029050808802600203810290508088026002038102905080860296505050505050505b9392505050565b5f806126cd611bd0565b9050612710670de0b6b3a7640000826005015f8681526020019081526020015f20600101600f9054906101000a900461ffff16836005015f8781526020019081526020015f20600101600b9054906101000a900461ffff1661272f9190613740565b61ffff1661273d91906136bd565b6127479190613775565b915050919050565b5f80612771846affffffffffffffffffffff16670de0b6b3a7640000856125b1565b905069ffffffffffffffffffff80168111156127b9576040517f2c5211c600000000000000000000000000000000000000000000000000000000815260040160405180910390fd5b8091505092915050565b5f805f8360020b126127d8578260020b6127df565b8260020b5f035b90507ffffffffffffffffffffffffffffffffffffffffffffffffffffffffffff276185f0360020b811115612840576040517f2bc80f3a00000000000000000000000000000000000000000000000000000000815260040160405180910390fd5b5f80600183160361286257700100000000000000000000000000000000612874565b6ffffcb933bd6fad37aa2d162d1a5940015b70ffffffffffffffffffffffffffffffffff1690505f60028316146128ad5760806ffff97272373d413259a46990580e213a8202901c90505b5f60048316146128d15760806ffff2e50f5f656932ef12357cf3c7fdcc8202901c90505b5f60088316146128f55760806fffe5caca7e10e4e61c3624eaa0941cd08202901c90505b5f60108316146129195760806fffcb9843d60f6159c9db58835c9266448202901c90505b5f602083161461293d5760806fff973b41fa98c081472e6896dfb254c08202901c90505b5f60408316146129615760806fff2ea16466c96a3843ec78b326b528618202901c90505b5f60808316146129855760806ffe5dee046a99a2a811c461f1969c30538202901c90505b5f6101008316146129aa5760806ffcbe86c7900a88aedcffc83b479aa3a48202901c90505b5f6102008316146129cf5760806ff987a7253ac413176f2b074cf7815e548202901c90505b5f6104008316146129f45760806ff3392b0822b70005940c7a398e4b70f38202901c90505b5f610800831614612a195760806fe7159475a2c29b7443b29c7fa6e889d98202901c90505b5f611000831614612a3e5760806fd097f3bdfd2022b8845ad8f792aa58258202901c90505b5f612000831614612a635760806fa9f746462d870fdf8a65dc1f90e061e58202901c90505b5f614000831614612a885760806f70d869a156d2a1b890bb3df62baf32f78202901c90505b5f618000831614612aad5760806f31be135f97d08fd981231505542fcfa68202901c90505b5f62010000831614612ad35760806f09aa508b5b7a84e1c677de54f3e99bc98202901c90505b5f62020000831614612af85760806e5d6af8dedb81196699c329225ee6048202901c90505b5f62040000831614612b1c5760806d2216e584f5fa1ea926041bedfe988202901c90505b5f62080000831614612b3e5760806b048a170391f7dc42444e8fa28202901c90505b5f8460020b1315612b7d57807fffffffffffffffffffffffffffffffffffffffffffffffffffffffffffffffff81612b7957612b7861352c565b5b0490505b5f6401000000008281612b9357612b9261352c565b5b0614612ba0576001612ba2565b5f5b60ff16602082901c0192505050919050565b5f612bc08484846125b1565b90509392505050565b5f604051905090565b5f80fd5b5f80fd5b5f73ffffffffffffffffffffffffffffffffffffffff82169050919050565b5f612c0382612bda565b9050919050565b612c1381612bf9565b8114612c1d575f80fd5b50565b5f81359050612c2e81612c0a565b92915050565b5f6affffffffffffffffffffff82169050919050565b612c5381612c34565b8114612c5d575f80fd5b50565b5f81359050612c6e81612c4a565b92915050565b5f8060408385031215612c8a57612c89612bd2565b5b5f612c9785828601612c20565b9250506020612ca885828601612c60565b9150509250929050565b5f819050919050565b612cc481612cb2565b8114612cce575f80fd5b50565b5f81359050612cdf81612cbb565b92915050565b5f60208284031215612cfa57612cf9612bd2565b5b5f612d0784828501612cd1565b91505092915050565b5f81519050919050565b5f82825260208201905092915050565b5f819050602082019050919050565b612d4281612bf9565b82525050565b5f612d538383612d39565b60208301905092915050565b5f602082019050919050565b5f612d7582612d10565b612d7f8185612d1a565b9350612d8a83612d2a565b805f5b83811015612dba578151612da18882612d48565b9750612dac83612d5f565b925050600181019050612d8d565b5085935050505092915050565b5f6020820190508181035f830152612ddf8184612d6b565b905092915050565b5f60208284031215612dfc57612dfb612bd2565b5b5f612e0984828501612c20565b91505092915050565b612e1b81612cb2565b82525050565b5f602082019050612e345f830184612e12565b92915050565b7f4e487b71000000000000000000000000000000000000000000000000000000005f52601160045260245ffd5b5f612e7182612c34565b9150612e7c83612c34565b925082820390506affffffffffffffffffffff811115612e9f57612e9e612e3a565b5b92915050565b5f612eaf82612c34565b9150612eba83612c34565b925082820190506affffffffffffffffffffff811115612edd57612edc612e3a565b5b92915050565b612eec81612bf9565b82525050565b5f819050919050565b5f612f15612f10612f0b84612c34565b612ef2565b612cb2565b9050919050565b612f2581612efb565b82525050565b5f604082019050612f3e5f830185612ee3565b612f4b6020830184612f1c565b9392505050565b5f81519050612f6081612cbb565b92915050565b5f60208284031215612f7b57612f7a612bd2565b5b5f612f8884828501612f52565b91505092915050565b5f604082019050612fa45f830185612f1c565b612fb16020830184612f1c565b9392505050565b5f602082019050612fcb5f830184612f1c565b92915050565b5f612fdb82612cb2565b9150612fe683612cb2565b9250828203905081811115612ffe57612ffd612e3a565b5b92915050565b5f82825260208201905092915050565b7f4c69624469616d6f6e643a204d75737420626520636f6e7472616374206f776e5f8201527f6572000000000000000000000000000000000000000000000000000000000000602082015250565b5f61306e602283613004565b915061307982613014565b604082019050919050565b5f6020820190508181035f83015261309b81613062565b9050919050565b7f4e487b71000000000000000000000000000000000000000000000000000000005f52603260045260245ffd5b5f6130d982612cb2565b91506130e483612cb2565b92508282019050808211156130fc576130fb612e3a565b5b92915050565b7f4e487b71000000000000000000000000000000000000000000000000000000005f52604160045260245ffd5b5f81519050919050565b5f82825260208201905092915050565b5f819050602082019050919050565b5f63ffffffff82169050919050565b61317081613158565b82525050565b5f6131818383613167565b60208301905092915050565b5f602082019050919050565b5f6131a38261312f565b6131ad8185613139565b93506131b883613149565b805f5b838110156131e85781516131cf8882613176565b97506131da8361318d565b9250506001810190506131bb565b5085935050505092915050565b5f6020820190508181035f83015261320d8184613199565b905092915050565b5f80fd5b5f601f19601f8301169050919050565b61323282613219565b810181811067ffffffffffffffff8211171561325157613250613102565b5b80604052505050565b5f613263612bc9565b905061326f8282613229565b919050565b5f67ffffffffffffffff82111561328e5761328d613102565b5b602082029050602081019050919050565b5f80fd5b5f8160060b9050919050565b6132b8816132a3565b81146132c2575f80fd5b50565b5f815190506132d3816132af565b92915050565b5f6132eb6132e684613274565b61325a565b9050808382526020820190506020840283018581111561330e5761330d61329f565b5b835b81811015613337578061332388826132c5565b845260208401935050602081019050613310565b5050509392505050565b5f82601f83011261335557613354613215565b5b81516133658482602086016132d9565b91505092915050565b5f67ffffffffffffffff82111561338857613387613102565b5b602082029050602081019050919050565b6133a281612bda565b81146133ac575f80fd5b50565b5f815190506133bd81613399565b92915050565b5f6133d56133d08461336e565b61325a565b905080838252602082019050602084028301858111156133f8576133f761329f565b5b835b81811015613421578061340d88826133af565b8452602084019350506020810190506133fa565b5050509392505050565b5f82601f83011261343f5761343e613215565b5b815161344f8482602086016133c3565b91505092915050565b5f806040838503121561346e5761346d612bd2565b5b5f83015167ffffffffffffffff81111561348b5761348a612bd6565b5b61349785828601613341565b925050602083015167ffffffffffffffff8111156134b8576134b7612bd6565b5b6134c48582860161342b565b9150509250929050565b5f6134d8826132a3565b91506134e3836132a3565b92508282039050667fffffffffffff81137fffffffffffffffffffffffffffffffffffffffffffffffffff800000000000008212171561352657613525612e3a565b5b92915050565b7f4e487b71000000000000000000000000000000000000000000000000000000005f52601260045260245ffd5b5f613563826132a3565b915061356e836132a3565b92508261357e5761357d61352c565b5b60015f0383147fffffffffffffffffffffffffffffffffffffffffffffffffff80000000000000831416156135b6576135b5612e3a565b5b828205905092915050565b5f6135cb826132a3565b91506135d6836132a3565b9250826135e6576135e561352c565b5b828207905092915050565b5f8160020b9050919050565b5f613607826135f1565b91507fffffffffffffffffffffffffffffffffffffffffffffffffffffffffff800000820361363957613638612e3a565b5b600182039050919050565b5f6040820190506136575f830185612e12565b6136646020830184612e12565b9392505050565b5f69ffffffffffffffffffff82169050919050565b5f61368a8261366b565b91506136958361366b565b9250828201905069ffffffffffffffffffff8111156136b7576136b6612e3a565b5b92915050565b5f6136c782612cb2565b91506136d283612cb2565b92508282026136e081612cb2565b915082820484148315176136f7576136f6612e3a565b5b5092915050565b5f6060820190506137115f830186612e12565b61371e6020830185612e12565b61372b6040830184612e12565b949350505050565b5f61ffff82169050919050565b5f61374a82613733565b915061375583613733565b9250828201905061ffff81111561376f5761376e612e3a565b5b92915050565b5f61377f82612cb2565b915061378a83612cb2565b92508261379a5761379961352c565b5b82820490509291505056fea2646970667358221220fc2c1cc0ddce0ce514b0d266a0564cbf864c11773c66dedae6818b4395df2bff64736f6c63430008150033","linkReferences":{}},"methodIdentifiers":{"deposit(address,uint88)":"b22b4c87","depositEth(address)":"ad9d4ba3","getBridges(uint256)":"6b23cb93","getDethTotal(uint256)":"e9468051","withdraw(address,uint88)":"1798cd0e","withdrawTapp(address,uint88)":"cf254251"},"id":6}