{"abi":[{"type":"constructor","inputs":[],"stateMutability":"nonpayable"},{"type":"function","name":"DOMAIN_SEPARATOR","inputs":[],"outputs":[{"name":"","type":"bytes32","internalType":"bytes32"}],"stateMutability":"view"},{"type":"function","name":"allowance","inputs":[{"name":"owner","type":"address","internalType":"address"},{"name":"spender","type":"address","internalType":"address"}],"outputs":[{"name":"","type":"uint256","internalType":"uint256"}],"stateMutability":"view"},{"type":"function","name":"approve","inputs":[{"name":"spender","type":"address","internalType":"address"},{"name":"amount","type":"uint256","internalType":"uint256"}],"outputs":[{"name":"","type":"bool","internalType":"bool"}],"stateMutability":"nonpayable"},{"type":"function","name":"balanceOf","inputs":[{"name":"account","type":"address","internalType":"address"}],"outputs":[{"name":"","type":"uint256","internalType":"uint256"}],"stateMutability":"view"},{"type":"function","name":"burn","inputs":[{"name":"amount","type":"uint256","internalType":"uint256"}],"outputs":[],"stateMutability":"nonpayable"},{"type":"function","name":"decimals","inputs":[],"outputs":[{"name":"","type":"uint8","internalType":"uint8"}],"stateMutability":"view"},{"type":"function","name":"decreaseAllowance","inputs":[{"name":"spender","type":"address","internalType":"address"},{"name":"subtractedValue","type":"uint256","internalType":"uint256"}],"outputs":[{"name":"","type":"bool","internalType":"bool"}],"stateMutability":"nonpayable"},{"type":"function","name":"eip712Domain","inputs":[],"outputs":[{"name":"fields","type":"bytes1","internalType":"bytes1"},{"name":"name","type":"string","internalType":"string"},{"name":"version","type":"string","internalType":"string"},{"name":"chainId","type":"uint256","internalType":"uint256"},{"name":"verifyingContract","type":"address","internalType":"address"},{"name":"salt","type":"bytes32","internalType":"bytes32"},{"name":"extensions","type":"uint256[]","internalType":"uint256[]"}],"stateMutability":"view"},{"type":"function","name":"getPooledEthByShares","inputs":[{"name":"amount","type":"uint256","internalType":"uint256"}],"outputs":[{"name":"","type":"uint256","internalType":"uint256"}],"stateMutability":"view"},{"type":"function","name":"increaseAllowance","inputs":[{"name":"spender","type":"address","internalType":"address"},{"name":"addedValue","type":"uint256","internalType":"uint256"}],"outputs":[{"name":"","type":"bool","internalType":"bool"}],"stateMutability":"nonpayable"},{"type":"function","name":"mint","inputs":[{"name":"to","type":"address","internalType":"address"},{"name":"amount","type":"uint256","internalType":"uint256"}],"outputs":[],"stateMutability":"nonpayable"},{"type":"function","name":"name","inputs":[],"outputs":[{"name":"","type":"string","internalType":"string"}],"stateMutability":"view"},{"type":"function","name":"nonces","inputs":[{"name":"owner","type":"address","internalType":"address"}],"outputs":[{"name":"","type":"uint256","internalType":"uint256"}],"stateMutability":"view"},{"type":"function","name":"permit","inputs":[{"name":"owner","type":"address","internalType":"address"},{"name":"spender","type":"address","internalType":"address"},{"name":"value","type":"uint256","internalType":"uint256"},{"name":"deadline","type":"uint256","internalType":"uint256"},{"name":"v","type":"uint8","internalType":"uint8"},{"name":"r","type":"bytes32","internalType":"bytes32"},{"name":"s","type":"bytes32","internalType":"bytes32"}],"outputs":[],"stateMutability":"nonpayable"},{"type":"function","name":"submit","inputs":[{"name":"ref","type":"address","internalType":"address"}],"outputs":[{"name":"","type":"uint256","internalType":"uint256"}],"stateMutability":"payable"},{"type":"function","name":"symbol","inputs":[],"outputs":[{"name":"","type":"string","internalType":"string"}],"stateMutability":"view"},{"type":"function","name":"totalSupply","inputs":[],"outputs":[{"name":"","type":"uint256","internalType":"uint256"}],"stateMutability":"view"},{"type":"function","name":"transfer","inputs":[{"name":"to","type":"address","internalType":"address"},{"name":"amount","type":"uint256","internalType":"uint256"}],"outputs":[{"name":"","type":"bool","internalType":"bool"}],"stateMutability":"nonpayable"},{"type":"function","name":"transferFrom","inputs":[{"name":"from","type":"address","internalType":"address"},{"name":"to","type":"address","internalType":"address"},{"name":"amount","type":"uint256","internalType":"uint256"}],"outputs":[{"name":"","type":"bool","internalType":"bool"}],"stateMutability":"nonpayable"},{"type":"function","name":"transferWithdrawalEth","inputs":[{"name":"amount","type":"uint256","internalType":"uint256"}],"outputs":[],"stateMutability":"nonpayable"},{"type":"event","name":"Approval","inputs":[{"name":"owner","type":"address","indexed":true,"internalType":"address"},{"name":"spender","type":"address","indexed":true,"internalType":"address"},{"name":"value","type":"uint256","indexed":false,"internalType":"uint256"}],"anonymous":false},{"type":"event","name":"EIP712DomainChanged","inputs":[],"anonymous":false},{"type":"event","name":"Transfer","inputs":[{"name":"from","type":"address","indexed":true,"internalType":"address"},{"name":"to","type":"address","indexed":true,"internalType":"address"},{"name":"value","type":"uint256","indexed":false,"internalType":"uint256"}],"anonymous":false},{"type":"error","name":"InvalidShortString","inputs":[]},{"type":"error","name":"StringTooLong","inputs":[{"name":"str","type":"string","internalType":"string"}]}],"bytecode":{"object":"0x61016060405234801562000011575f80fd5b506040518060400160405280601781526020017f4c6971756964207374616b656420457468657220322e30000000000000000000815250806040518060400160405280600181526020017f31000000000000000000000000000000000000000000000000000000000000008152506040518060400160405280601781526020017f4c6971756964207374616b656420457468657220322e300000000000000000008152506040518060400160405280600581526020017f73744554480000000000000000000000000000000000000000000000000000008152508160039081620000fc919062000550565b5080600490816200010e919062000550565b50505062000127600583620001c860201b90919060201c565b610120818152505062000145600682620001c860201b90919060201c565b6101408181525050818051906020012060e08181525050808051906020012061010081815250504660a08181525050620001846200021d60201b60201c565b608081815250503073ffffffffffffffffffffffffffffffffffffffff1660c08173ffffffffffffffffffffffffffffffffffffffff168152505050505062000847565b5f602083511015620001ed57620001e5836200027960201b60201c565b905062000217565b82620001ff83620002e360201b60201c565b5f0190816200020f919062000550565b5060ff5f1b90505b92915050565b5f7f8b73c3c69bb8fe3d512ecc4cf759cc79239f7b179b0ffacaa9a75d522b39400f60e0516101005146306040516020016200025e959493929190620006a2565b60405160208183030381529060405280519060200120905090565b5f80829050601f81511115620002c857826040517f305a27a9000000000000000000000000000000000000000000000000000000008152600401620002bf919062000787565b60405180910390fd5b805181620002d690620007d8565b5f1c175f1b915050919050565b5f819050919050565b5f81519050919050565b7f4e487b71000000000000000000000000000000000000000000000000000000005f52604160045260245ffd5b7f4e487b71000000000000000000000000000000000000000000000000000000005f52602260045260245ffd5b5f60028204905060018216806200036857607f821691505b6020821081036200037e576200037d62000323565b5b50919050565b5f819050815f5260205f209050919050565b5f6020601f8301049050919050565b5f82821b905092915050565b5f60088302620003e27fffffffffffffffffffffffffffffffffffffffffffffffffffffffffffffffff82620003a5565b620003ee8683620003a5565b95508019841693508086168417925050509392505050565b5f819050919050565b5f819050919050565b5f62000438620004326200042c8462000406565b6200040f565b62000406565b9050919050565b5f819050919050565b620004538362000418565b6200046b62000462826200043f565b848454620003b1565b825550505050565b5f90565b6200048162000473565b6200048e81848462000448565b505050565b5b81811015620004b557620004a95f8262000477565b60018101905062000494565b5050565b601f8211156200050457620004ce8162000384565b620004d98462000396565b81016020851015620004e9578190505b62000501620004f88562000396565b83018262000493565b50505b505050565b5f82821c905092915050565b5f620005265f198460080262000509565b1980831691505092915050565b5f62000540838362000515565b9150826002028217905092915050565b6200055b82620002ec565b67ffffffffffffffff811115620005775762000576620002f6565b5b62000583825462000350565b62000590828285620004b9565b5f60209050601f831160018114620005c6575f8415620005b1578287015190505b620005bd858262000533565b8655506200062c565b601f198416620005d68662000384565b5f5b82811015620005ff57848901518255600182019150602085019450602081019050620005d8565b868310156200061f57848901516200061b601f89168262000515565b8355505b6001600288020188555050505b505050505050565b5f819050919050565b620006488162000634565b82525050565b620006598162000406565b82525050565b5f73ffffffffffffffffffffffffffffffffffffffff82169050919050565b5f6200068a826200065f565b9050919050565b6200069c816200067e565b82525050565b5f60a082019050620006b75f8301886200063d565b620006c660208301876200063d565b620006d560408301866200063d565b620006e460608301856200064e565b620006f3608083018462000691565b9695505050505050565b5f82825260208201905092915050565b5f5b838110156200072c5780820151818401526020810190506200070f565b5f8484015250505050565b5f601f19601f8301169050919050565b5f6200075382620002ec565b6200075f8185620006fd565b9350620007718185602086016200070d565b6200077c8162000737565b840191505092915050565b5f6020820190508181035f830152620007a1818462000747565b905092915050565b5f81519050919050565b5f819050602082019050919050565b5f620007cf825162000634565b80915050919050565b5f620007e482620007a9565b82620007f084620007b3565b9050620007fd81620007c2565b9250602082101562000840576200083b7fffffffffffffffffffffffffffffffffffffffffffffffffffffffffffffffff83602003600802620003a5565b831692505b5050919050565b60805160a05160c05160e051610100516101205161014051612918620008995f395f6107b601525f61078201525f6115cb01525f6115aa01525f61106201525f6110b801525f6110e101526129185ff3fe60806040526004361061011e575f3560e01c806370a082311161009f578063a1903eab11610063578063a1903eab14610404578063a457c2d714610434578063a9059cbb14610470578063d505accf146104ac578063dd62ed3e146104d45761011e565b806370a08231146102f65780637a28fb88146103325780637ecebe001461036e57806384b0196e146103aa57806395d89b41146103da5761011e565b80633644e515116100e65780633644e51514610218578063395093511461024257806340c10f191461027e57806342966c68146102a65780635c192630146102ce5761011e565b806306fdde0314610122578063095ea7b31461014c57806318160ddd1461018857806323b872dd146101b2578063313ce567146101ee575b5f80fd5b34801561012d575f80fd5b50610136610510565b60405161014391906119f6565b60405180910390f35b348015610157575f80fd5b50610172600480360381019061016d9190611aa7565b6105a0565b60405161017f9190611aff565b60405180910390f35b348015610193575f80fd5b5061019c6105c2565b6040516101a99190611b27565b60405180910390f35b3480156101bd575f80fd5b506101d860048036038101906101d39190611b40565b6105cb565b6040516101e59190611aff565b60405180910390f35b3480156101f9575f80fd5b506102026105f9565b60405161020f9190611bab565b60405180910390f35b348015610223575f80fd5b5061022c610601565b6040516102399190611bdc565b60405180910390f35b34801561024d575f80fd5b5061026860048036038101906102639190611aa7565b61060f565b6040516102759190611aff565b60405180910390f35b348015610289575f80fd5b506102a4600480360381019061029f9190611aa7565b610645565b005b3480156102b1575f80fd5b506102cc60048036038101906102c79190611bf5565b610653565b005b3480156102d9575f80fd5b506102f460048036038101906102ef9190611bf5565b610660565b005b348015610301575f80fd5b5061031c60048036038101906103179190611c20565b6106da565b6040516103299190611b27565b60405180910390f35b34801561033d575f80fd5b5061035860048036038101906103539190611bf5565b61071f565b6040516103659190611b27565b60405180910390f35b348015610379575f80fd5b50610394600480360381019061038f9190611c20565b610725565b6040516103a19190611b27565b60405180910390f35b3480156103b5575f80fd5b506103be610772565b6040516103d19796959493929190611d4b565b60405180910390f35b3480156103e5575f80fd5b506103ee61086f565b6040516103fb91906119f6565b60405180910390f35b61041e60048036038101906104199190611c20565b6108ff565b60405161042b9190611b27565b60405180910390f35b34801561043f575f80fd5b5061045a60048036038101906104559190611aa7565b610946565b6040516104679190611aff565b60405180910390f35b34801561047b575f80fd5b5061049660048036038101906104919190611aa7565b6109bb565b6040516104a39190611aff565b60405180910390f35b3480156104b7575f80fd5b506104d260048036038101906104cd9190611e21565b6109dd565b005b3480156104df575f80fd5b506104fa60048036038101906104f59190611ebe565b610b1c565b6040516105079190611b27565b60405180910390f35b60606003805461051f90611f29565b80601f016020809104026020016040519081016040528092919081815260200182805461054b90611f29565b80156105965780601f1061056d57610100808354040283529160200191610596565b820191905f5260205f20905b81548152906001019060200180831161057957829003601f168201915b5050505050905090565b5f806105aa610b9e565b90506105b7818585610ba5565b600191505092915050565b5f600254905090565b5f806105d5610b9e565b90506105e2858285610d68565b6105ed858585610df3565b60019150509392505050565b5f6012905090565b5f61060a61105f565b905090565b5f80610619610b9e565b905061063a81858561062b8589610b1c565b6106359190611f86565b610ba5565b600191505092915050565b61064f8282611115565b5050565b61065d3382611263565b50565b5f3373ffffffffffffffffffffffffffffffffffffffff168260405161068590611fe6565b5f6040518083038185875af1925050503d805f81146106bf576040519150601f19603f3d011682016040523d82523d5f602084013e6106c4565b606091505b50509050806106d6576106d5611ffa565b5b5050565b5f805f8373ffffffffffffffffffffffffffffffffffffffff1673ffffffffffffffffffffffffffffffffffffffff1681526020019081526020015f20549050919050565b5f919050565b5f61076b60075f8473ffffffffffffffffffffffffffffffffffffffff1673ffffffffffffffffffffffffffffffffffffffff1681526020019081526020015f20611426565b9050919050565b5f6060805f805f60606107af60057f000000000000000000000000000000000000000000000000000000000000000061143290919063ffffffff16565b6107e360067f000000000000000000000000000000000000000000000000000000000000000061143290919063ffffffff16565b46305f801b5f67ffffffffffffffff81111561080257610801612027565b5b6040519080825280602002602001820160405280156108305781602001602082028036833780820191505090505b507f0f00000000000000000000000000000000000000000000000000000000000000959493929190965096509650965096509650965090919293949596565b60606004805461087e90611f29565b80601f01602080910402602001604051908101604052809291908181526020018280546108aa90611f29565b80156108f55780601f106108cc576101008083540402835291602001916108f5565b820191905f5260205f20905b8154815290600101906020018083116108d857829003601f168201915b5050505050905090565b5f8073ffffffffffffffffffffffffffffffffffffffff168273ffffffffffffffffffffffffffffffffffffffff160361093e5761093d3334611115565b5b349050919050565b5f80610950610b9e565b90505f61095d8286610b1c565b9050838110156109a2576040517f08c379a0000000000000000000000000000000000000000000000000000000008152600401610999906120c4565b60405180910390fd5b6109af8286868403610ba5565b60019250505092915050565b5f806109c5610b9e565b90506109d2818585610df3565b600191505092915050565b83421115610a20576040517f08c379a0000000000000000000000000000000000000000000000000000000008152600401610a179061212c565b60405180910390fd5b5f7f6e71edae12b1b97f4d1f60370fef10105fa2faae0126114a169c64845d6126c9888888610a4e8c6114df565b89604051602001610a649695949392919061214a565b6040516020818303038152906040528051906020012090505f610a868261153a565b90505f610a9582878787611553565b90508973ffffffffffffffffffffffffffffffffffffffff168173ffffffffffffffffffffffffffffffffffffffff1614610b05576040517f08c379a0000000000000000000000000000000000000000000000000000000008152600401610afc906121f3565b60405180910390fd5b610b108a8a8a610ba5565b50505050505050505050565b5f60015f8473ffffffffffffffffffffffffffffffffffffffff1673ffffffffffffffffffffffffffffffffffffffff1681526020019081526020015f205f8373ffffffffffffffffffffffffffffffffffffffff1673ffffffffffffffffffffffffffffffffffffffff1681526020019081526020015f2054905092915050565b5f33905090565b5f73ffffffffffffffffffffffffffffffffffffffff168373ffffffffffffffffffffffffffffffffffffffff1603610c13576040517f08c379a0000000000000000000000000000000000000000000000000000000008152600401610c0a90612281565b60405180910390fd5b5f73ffffffffffffffffffffffffffffffffffffffff168273ffffffffffffffffffffffffffffffffffffffff1603610c81576040517f08c379a0000000000000000000000000000000000000000000000000000000008152600401610c789061230f565b60405180910390fd5b8060015f8573ffffffffffffffffffffffffffffffffffffffff1673ffffffffffffffffffffffffffffffffffffffff1681526020019081526020015f205f8473ffffffffffffffffffffffffffffffffffffffff1673ffffffffffffffffffffffffffffffffffffffff1681526020019081526020015f20819055508173ffffffffffffffffffffffffffffffffffffffff168373ffffffffffffffffffffffffffffffffffffffff167f8c5be1e5ebec7d5bd14f71427d1e84f3dd0314c0f7b2291e5b200ac8c7c3b92583604051610d5b9190611b27565b60405180910390a3505050565b5f610d738484610b1c565b90507fffffffffffffffffffffffffffffffffffffffffffffffffffffffffffffffff8114610ded5781811015610ddf576040517f08c379a0000000000000000000000000000000000000000000000000000000008152600401610dd690612377565b60405180910390fd5b610dec8484848403610ba5565b5b50505050565b5f73ffffffffffffffffffffffffffffffffffffffff168373ffffffffffffffffffffffffffffffffffffffff1603610e61576040517f08c379a0000000000000000000000000000000000000000000000000000000008152600401610e5890612405565b60405180910390fd5b5f73ffffffffffffffffffffffffffffffffffffffff168273ffffffffffffffffffffffffffffffffffffffff1603610ecf576040517f08c379a0000000000000000000000000000000000000000000000000000000008152600401610ec690612493565b60405180910390fd5b610eda83838361157c565b5f805f8573ffffffffffffffffffffffffffffffffffffffff1673ffffffffffffffffffffffffffffffffffffffff1681526020019081526020015f2054905081811015610f5d576040517f08c379a0000000000000000000000000000000000000000000000000000000008152600401610f5490612521565b60405180910390fd5b8181035f808673ffffffffffffffffffffffffffffffffffffffff1673ffffffffffffffffffffffffffffffffffffffff1681526020019081526020015f2081905550815f808573ffffffffffffffffffffffffffffffffffffffff1673ffffffffffffffffffffffffffffffffffffffff1681526020019081526020015f205f82825401925050819055508273ffffffffffffffffffffffffffffffffffffffff168473ffffffffffffffffffffffffffffffffffffffff167fddf252ad1be2c89b69c2b068fc378daa952ba7f163c4a11628f55a4df523b3ef846040516110469190611b27565b60405180910390a3611059848484611581565b50505050565b5f7f000000000000000000000000000000000000000000000000000000000000000073ffffffffffffffffffffffffffffffffffffffff163073ffffffffffffffffffffffffffffffffffffffff161480156110da57507f000000000000000000000000000000000000000000000000000000000000000046145b15611107577f00000000000000000000000000000000000000000000000000000000000000009050611112565b61110f611586565b90505b90565b5f73ffffffffffffffffffffffffffffffffffffffff168273ffffffffffffffffffffffffffffffffffffffff1603611183576040517f08c379a000000000000000000000000000000000000000000000000000000000815260040161117a90612589565b60405180910390fd5b61118e5f838361157c565b8060025f82825461119f9190611f86565b92505081905550805f808473ffffffffffffffffffffffffffffffffffffffff1673ffffffffffffffffffffffffffffffffffffffff1681526020019081526020015f205f82825401925050819055508173ffffffffffffffffffffffffffffffffffffffff165f73ffffffffffffffffffffffffffffffffffffffff167fddf252ad1be2c89b69c2b068fc378daa952ba7f163c4a11628f55a4df523b3ef8360405161124c9190611b27565b60405180910390a361125f5f8383611581565b5050565b5f73ffffffffffffffffffffffffffffffffffffffff168273ffffffffffffffffffffffffffffffffffffffff16036112d1576040517f08c379a00000000000000000000000000000000000000000000000000000000081526004016112c890612617565b60405180910390fd5b6112dc825f8361157c565b5f805f8473ffffffffffffffffffffffffffffffffffffffff1673ffffffffffffffffffffffffffffffffffffffff1681526020019081526020015f205490508181101561135f576040517f08c379a0000000000000000000000000000000000000000000000000000000008152600401611356906126a5565b60405180910390fd5b8181035f808573ffffffffffffffffffffffffffffffffffffffff1673ffffffffffffffffffffffffffffffffffffffff1681526020019081526020015f20819055508160025f82825403925050819055505f73ffffffffffffffffffffffffffffffffffffffff168373ffffffffffffffffffffffffffffffffffffffff167fddf252ad1be2c89b69c2b068fc378daa952ba7f163c4a11628f55a4df523b3ef8460405161140e9190611b27565b60405180910390a3611421835f84611581565b505050565b5f815f01549050919050565b606060ff5f1b831461144e576114478361161b565b90506114d9565b81805461145a90611f29565b80601f016020809104026020016040519081016040528092919081815260200182805461148690611f29565b80156114d15780601f106114a8576101008083540402835291602001916114d1565b820191905f5260205f20905b8154815290600101906020018083116114b457829003601f168201915b505050505090505b92915050565b5f8060075f8473ffffffffffffffffffffffffffffffffffffffff1673ffffffffffffffffffffffffffffffffffffffff1681526020019081526020015f20905061152981611426565b91506115348161168d565b50919050565b5f61154c61154661105f565b836116a1565b9050919050565b5f805f611562878787876116e1565b9150915061156f816117b9565b8192505050949350505050565b505050565b505050565b5f7f8b73c3c69bb8fe3d512ecc4cf759cc79239f7b179b0ffacaa9a75d522b39400f7f00000000000000000000000000000000000000000000000000000000000000007f000000000000000000000000000000000000000000000000000000000000000046306040516020016116009594939291906126c3565b60405160208183030381529060405280519060200120905090565b60605f6116278361191e565b90505f602067ffffffffffffffff81111561164557611644612027565b5b6040519080825280601f01601f1916602001820160405280156116775781602001600182028036833780820191505090505b5090508181528360208201528092505050919050565b6001815f015f828254019250508190555050565b5f6040517f190100000000000000000000000000000000000000000000000000000000000081528360028201528260228201526042812091505092915050565b5f807f7fffffffffffffffffffffffffffffff5d576e7357a4501ddfe92f46681b20a0835f1c1115611719575f6003915091506117b0565b5f6001878787876040515f815260200160405260405161173c9493929190612714565b6020604051602081039080840390855afa15801561175c573d5f803e3d5ffd5b5050506020604051035190505f73ffffffffffffffffffffffffffffffffffffffff168173ffffffffffffffffffffffffffffffffffffffff16036117a8575f600192509250506117b0565b805f92509250505b94509492505050565b5f60048111156117cc576117cb612757565b5b8160048111156117df576117de612757565b5b031561191b57600160048111156117f9576117f8612757565b5b81600481111561180c5761180b612757565b5b0361184c576040517f08c379a0000000000000000000000000000000000000000000000000000000008152600401611843906127ce565b60405180910390fd5b600260048111156118605761185f612757565b5b81600481111561187357611872612757565b5b036118b3576040517f08c379a00000000000000000000000000000000000000000000000000000000081526004016118aa90612836565b60405180910390fd5b600360048111156118c7576118c6612757565b5b8160048111156118da576118d9612757565b5b0361191a576040517f08c379a0000000000000000000000000000000000000000000000000000000008152600401611911906128c4565b60405180910390fd5b5b50565b5f8060ff835f1c169050601f811115611963576040517fb3512b0c00000000000000000000000000000000000000000000000000000000815260040160405180910390fd5b80915050919050565b5f81519050919050565b5f82825260208201905092915050565b5f5b838110156119a3578082015181840152602081019050611988565b5f8484015250505050565b5f601f19601f8301169050919050565b5f6119c88261196c565b6119d28185611976565b93506119e2818560208601611986565b6119eb816119ae565b840191505092915050565b5f6020820190508181035f830152611a0e81846119be565b905092915050565b5f80fd5b5f73ffffffffffffffffffffffffffffffffffffffff82169050919050565b5f611a4382611a1a565b9050919050565b611a5381611a39565b8114611a5d575f80fd5b50565b5f81359050611a6e81611a4a565b92915050565b5f819050919050565b611a8681611a74565b8114611a90575f80fd5b50565b5f81359050611aa181611a7d565b92915050565b5f8060408385031215611abd57611abc611a16565b5b5f611aca85828601611a60565b9250506020611adb85828601611a93565b9150509250929050565b5f8115159050919050565b611af981611ae5565b82525050565b5f602082019050611b125f830184611af0565b92915050565b611b2181611a74565b82525050565b5f602082019050611b3a5f830184611b18565b92915050565b5f805f60608486031215611b5757611b56611a16565b5b5f611b6486828701611a60565b9350506020611b7586828701611a60565b9250506040611b8686828701611a93565b9150509250925092565b5f60ff82169050919050565b611ba581611b90565b82525050565b5f602082019050611bbe5f830184611b9c565b92915050565b5f819050919050565b611bd681611bc4565b82525050565b5f602082019050611bef5f830184611bcd565b92915050565b5f60208284031215611c0a57611c09611a16565b5b5f611c1784828501611a93565b91505092915050565b5f60208284031215611c3557611c34611a16565b5b5f611c4284828501611a60565b91505092915050565b5f7fff0000000000000000000000000000000000000000000000000000000000000082169050919050565b611c7f81611c4b565b82525050565b611c8e81611a39565b82525050565b5f81519050919050565b5f82825260208201905092915050565b5f819050602082019050919050565b611cc681611a74565b82525050565b5f611cd78383611cbd565b60208301905092915050565b5f602082019050919050565b5f611cf982611c94565b611d038185611c9e565b9350611d0e83611cae565b805f5b83811015611d3e578151611d258882611ccc565b9750611d3083611ce3565b925050600181019050611d11565b5085935050505092915050565b5f60e082019050611d5e5f83018a611c76565b8181036020830152611d7081896119be565b90508181036040830152611d8481886119be565b9050611d936060830187611b18565b611da06080830186611c85565b611dad60a0830185611bcd565b81810360c0830152611dbf8184611cef565b905098975050505050505050565b611dd681611b90565b8114611de0575f80fd5b50565b5f81359050611df181611dcd565b92915050565b611e0081611bc4565b8114611e0a575f80fd5b50565b5f81359050611e1b81611df7565b92915050565b5f805f805f805f60e0888a031215611e3c57611e3b611a16565b5b5f611e498a828b01611a60565b9750506020611e5a8a828b01611a60565b9650506040611e6b8a828b01611a93565b9550506060611e7c8a828b01611a93565b9450506080611e8d8a828b01611de3565b93505060a0611e9e8a828b01611e0d565b92505060c0611eaf8a828b01611e0d565b91505092959891949750929550565b5f8060408385031215611ed457611ed3611a16565b5b5f611ee185828601611a60565b9250506020611ef285828601611a60565b9150509250929050565b7f4e487b71000000000000000000000000000000000000000000000000000000005f52602260045260245ffd5b5f6002820490506001821680611f4057607f821691505b602082108103611f5357611f52611efc565b5b50919050565b7f4e487b71000000000000000000000000000000000000000000000000000000005f52601160045260245ffd5b5f611f9082611a74565b9150611f9b83611a74565b9250828201905080821115611fb357611fb2611f59565b5b92915050565b5f81905092915050565b50565b5f611fd15f83611fb9565b9150611fdc82611fc3565b5f82019050919050565b5f611ff082611fc6565b9150819050919050565b7f4e487b71000000000000000000000000000000000000000000000000000000005f52600160045260245ffd5b7f4e487b71000000000000000000000000000000000000000000000000000000005f52604160045260245ffd5b7f45524332303a2064656372656173656420616c6c6f77616e63652062656c6f775f8201527f207a65726f000000000000000000000000000000000000000000000000000000602082015250565b5f6120ae602583611976565b91506120b982612054565b604082019050919050565b5f6020820190508181035f8301526120db816120a2565b9050919050565b7f45524332305065726d69743a206578706972656420646561646c696e650000005f82015250565b5f612116601d83611976565b9150612121826120e2565b602082019050919050565b5f6020820190508181035f8301526121438161210a565b9050919050565b5f60c08201905061215d5f830189611bcd565b61216a6020830188611c85565b6121776040830187611c85565b6121846060830186611b18565b6121916080830185611b18565b61219e60a0830184611b18565b979650505050505050565b7f45524332305065726d69743a20696e76616c6964207369676e617475726500005f82015250565b5f6121dd601e83611976565b91506121e8826121a9565b602082019050919050565b5f6020820190508181035f83015261220a816121d1565b9050919050565b7f45524332303a20617070726f76652066726f6d20746865207a65726f206164645f8201527f7265737300000000000000000000000000000000000000000000000000000000602082015250565b5f61226b602483611976565b915061227682612211565b604082019050919050565b5f6020820190508181035f8301526122988161225f565b9050919050565b7f45524332303a20617070726f766520746f20746865207a65726f2061646472655f8201527f7373000000000000000000000000000000000000000000000000000000000000602082015250565b5f6122f9602283611976565b91506123048261229f565b604082019050919050565b5f6020820190508181035f830152612326816122ed565b9050919050565b7f45524332303a20696e73756666696369656e7420616c6c6f77616e63650000005f82015250565b5f612361601d83611976565b915061236c8261232d565b602082019050919050565b5f6020820190508181035f83015261238e81612355565b9050919050565b7f45524332303a207472616e736665722066726f6d20746865207a65726f2061645f8201527f6472657373000000000000000000000000000000000000000000000000000000602082015250565b5f6123ef602583611976565b91506123fa82612395565b604082019050919050565b5f6020820190508181035f83015261241c816123e3565b9050919050565b7f45524332303a207472616e7366657220746f20746865207a65726f20616464725f8201527f6573730000000000000000000000000000000000000000000000000000000000602082015250565b5f61247d602383611976565b915061248882612423565b604082019050919050565b5f6020820190508181035f8301526124aa81612471565b9050919050565b7f45524332303a207472616e7366657220616d6f756e74206578636565647320625f8201527f616c616e63650000000000000000000000000000000000000000000000000000602082015250565b5f61250b602683611976565b9150612516826124b1565b604082019050919050565b5f6020820190508181035f830152612538816124ff565b9050919050565b7f45524332303a206d696e7420746f20746865207a65726f2061646472657373005f82015250565b5f612573601f83611976565b915061257e8261253f565b602082019050919050565b5f6020820190508181035f8301526125a081612567565b9050919050565b7f45524332303a206275726e2066726f6d20746865207a65726f206164647265735f8201527f7300000000000000000000000000000000000000000000000000000000000000602082015250565b5f612601602183611976565b915061260c826125a7565b604082019050919050565b5f6020820190508181035f83015261262e816125f5565b9050919050565b7f45524332303a206275726e20616d6f756e7420657863656564732062616c616e5f8201527f6365000000000000000000000000000000000000000000000000000000000000602082015250565b5f61268f602283611976565b915061269a82612635565b604082019050919050565b5f6020820190508181035f8301526126bc81612683565b9050919050565b5f60a0820190506126d65f830188611bcd565b6126e36020830187611bcd565b6126f06040830186611bcd565b6126fd6060830185611b18565b61270a6080830184611c85565b9695505050505050565b5f6080820190506127275f830187611bcd565b6127346020830186611b9c565b6127416040830185611bcd565b61274e6060830184611bcd565b95945050505050565b7f4e487b71000000000000000000000000000000000000000000000000000000005f52602160045260245ffd5b7f45434453413a20696e76616c6964207369676e617475726500000000000000005f82015250565b5f6127b8601883611976565b91506127c382612784565b602082019050919050565b5f6020820190508181035f8301526127e5816127ac565b9050919050565b7f45434453413a20696e76616c6964207369676e6174757265206c656e677468005f82015250565b5f612820601f83611976565b915061282b826127ec565b602082019050919050565b5f6020820190508181035f83015261284d81612814565b9050919050565b7f45434453413a20696e76616c6964207369676e6174757265202773272076616c5f8201527f7565000000000000000000000000000000000000000000000000000000000000602082015250565b5f6128ae602283611976565b91506128b982612854565b604082019050919050565b5f6020820190508181035f8301526128db816128a2565b905091905056fea2646970667358221220e1f5297c104bf5be106d84a5255f0dc3af0fefb531928b2632e6d52bb4f9a41064736f6c63430008150033","linkReferences":{}},"methodIdentifiers":{"DOMAIN_SEPARATOR()":"3644e515","allowance(address,address)":"dd62ed3e","approve(address,uint256)":"095ea7b3","balanceOf(address)":"70a08231","burn(uint256)":"42966c68","decimals()":"313ce567","decreaseAllowance(address,uint256)":"a457c2d7","eip712Domain()":"84b0196e","getPooledEthByShares(uint256)":"7a28fb88","increaseAllowance(address,uint256)":"39509351","mint(address,uint256)":"40c10f19","name()":"06fdde03","nonces(address)":"7ecebe00","permit(address,address,uint256,uint256,uint8,bytes32,bytes32)":"d505accf","submit(address)":"a1903eab","symbol()":"95d89b41","totalSupply()":"18160ddd","transfer(address,uint256)":"a9059cbb","transferFrom(address,address,uint256)":"23b872dd","transferWithdrawalEth(uint256)":"5c192630"},"id":58}