{"abi":[{"type":"constructor","inputs":[{"name":"_deth","type":"address","internalType":"address"}],"stateMutability":"nonpayable"},{"type":"function","name":"depositAsset","inputs":[{"name":"asset","type":"address","internalType":"address"},{"name":"amount","type":"uint104","internalType":"uint104"}],"outputs":[],"stateMutability":"nonpayable"},{"type":"function","name":"withdrawAsset","inputs":[{"name":"asset","type":"address","internalType":"address"},{"name":"amount","type":"uint104","internalType":"uint104"}],"outputs":[],"stateMutability":"nonpayable"},{"type":"error","name":"AssetIsFrozen","inputs":[]},{"type":"error","name":"InsufficientERCEscrowed","inputs":[]},{"type":"error","name":"InvalidAsset","inputs":[]},{"type":"error","name":"PriceOrAmountIs0","inputs":[]},{"type":"error","name":"ReentrantCall","inputs":[]}],"bytecode":{"object":"0x60a060405234801561000f575f80fd5b50604051610a44380380610a44833981810160405281019061003191906100c9565b8073ffffffffffffffffffffffffffffffffffffffff1660808173ffffffffffffffffffffffffffffffffffffffff1681525050506100f4565b5f80fd5b5f73ffffffffffffffffffffffffffffffffffffffff82169050919050565b5f6100988261006f565b9050919050565b6100a88161008e565b81146100b2575f80fd5b50565b5f815190506100c38161009f565b92915050565b5f602082840312156100de576100dd61006b565b5b5f6100eb848285016100b5565b91505092915050565b60805161093b6101095f395f505061093b5ff3fe608060405234801561000f575f80fd5b5060043610610034575f3560e01c80633adc16fc14610038578063fc8b8d6b14610054575b5f80fd5b610052600480360381019061004d9190610775565b610070565b005b61006e60048036038101906100699190610775565b610388565b005b815f806008015f8373ffffffffffffffffffffffffffffffffffffffff1673ffffffffffffffffffffffffffffffffffffffff1681526020019081526020015f205f01601f9054906101000a900460ff1660ff16036100fb576040517fc891add200000000000000000000000000000000000000000000000000000000815260040160405180910390fd5b600260ff165f600201601c9054906101000a900460ff1660ff160361014c576040517f37ed32e800000000000000000000000000000000000000000000000000000000815260040160405180910390fd5b60025f600201601c6101000a81548160ff021916908360ff1602179055505f826cffffffffffffffffffffffffff16036101b2576040517fe5c30f3900000000000000000000000000000000000000000000000000000000815260040160405180910390fd5b5f806009015f8573ffffffffffffffffffffffffffffffffffffffff1673ffffffffffffffffffffffffffffffffffffffff1681526020019081526020015f205f3373ffffffffffffffffffffffffffffffffffffffff1673ffffffffffffffffffffffffffffffffffffffff1681526020019081526020015f209050805f015f9054906101000a90046cffffffffffffffffffffffffff166cffffffffffffffffffffffffff16836cffffffffffffffffffffffffff1611156102a2576040517f4bf8161700000000000000000000000000000000000000000000000000000000815260040160405180910390fd5b82815f015f8282829054906101000a90046cffffffffffffffffffffffffff166102cc91906107e0565b92506101000a8154816cffffffffffffffffffffffffff02191690836cffffffffffffffffffffffffff1602179055508373ffffffffffffffffffffffffffffffffffffffff166340c10f1933856040518363ffffffff1660e01b8152600401610337929190610871565b5f604051808303815f87803b15801561034e575f80fd5b505af1158015610360573d5f803e3d5ffd5b505050505060015f600201601c6101000a81548160ff021916908360ff160217905550505050565b815f806008015f8373ffffffffffffffffffffffffffffffffffffffff1673ffffffffffffffffffffffffffffffffffffffff1681526020019081526020015f205f01601f9054906101000a900460ff1660ff1603610413576040517fc891add200000000000000000000000000000000000000000000000000000000815260040160405180910390fd5b825f600181111561042757610426610898565b5b5f6008015f8373ffffffffffffffffffffffffffffffffffffffff1673ffffffffffffffffffffffffffffffffffffffff1681526020019081526020015f205f01601e9054906101000a900460ff16600181111561048857610487610898565b5b146104bf576040517f0e27a3f700000000000000000000000000000000000000000000000000000000815260040160405180910390fd5b600260ff165f600201601c9054906101000a900460ff1660ff1603610510576040517f37ed32e800000000000000000000000000000000000000000000000000000000815260040160405180910390fd5b60025f600201601c6101000a81548160ff021916908360ff1602179055505f836cffffffffffffffffffffffffff1603610576576040517fe5c30f3900000000000000000000000000000000000000000000000000000000815260040160405180910390fd5b8373ffffffffffffffffffffffffffffffffffffffff166379cc679033856040518363ffffffff1660e01b81526004016105b1929190610871565b5f604051808303815f87803b1580156105c8575f80fd5b505af11580156105da573d5f803e3d5ffd5b50505050825f6009015f8673ffffffffffffffffffffffffffffffffffffffff1673ffffffffffffffffffffffffffffffffffffffff1681526020019081526020015f205f3373ffffffffffffffffffffffffffffffffffffffff1673ffffffffffffffffffffffffffffffffffffffff1681526020019081526020015f205f015f8282829054906101000a90046cffffffffffffffffffffffffff1661068191906108c5565b92506101000a8154816cffffffffffffffffffffffffff02191690836cffffffffffffffffffffffffff16021790555060015f600201601c6101000a81548160ff021916908360ff16021790555050505050565b5f80fd5b5f73ffffffffffffffffffffffffffffffffffffffff82169050919050565b5f610702826106d9565b9050919050565b610712816106f8565b811461071c575f80fd5b50565b5f8135905061072d81610709565b92915050565b5f6cffffffffffffffffffffffffff82169050919050565b61075481610733565b811461075e575f80fd5b50565b5f8135905061076f8161074b565b92915050565b5f806040838503121561078b5761078a6106d5565b5b5f6107988582860161071f565b92505060206107a985828601610761565b9150509250929050565b7f4e487b71000000000000000000000000000000000000000000000000000000005f52601160045260245ffd5b5f6107ea82610733565b91506107f583610733565b925082820390506cffffffffffffffffffffffffff81111561081a576108196107b3565b5b92915050565b610829816106f8565b82525050565b5f819050919050565b5f819050919050565b5f61085b61085661085184610733565b610838565b61082f565b9050919050565b61086b81610841565b82525050565b5f6040820190506108845f830185610820565b6108916020830184610862565b9392505050565b7f4e487b71000000000000000000000000000000000000000000000000000000005f52602160045260245ffd5b5f6108cf82610733565b91506108da83610733565b925082820190506cffffffffffffffffffffffffff8111156108ff576108fe6107b3565b5b9291505056fea2646970667358221220fdccb8e3ca0aefdd897af13e784afe8d550cae54475fc5d0a8be45018280189b64736f6c63430008150033","linkReferences":{}},"methodIdentifiers":{"depositAsset(address,uint104)":"fc8b8d6b","withdrawAsset(address,uint104)":"3adc16fc"},"id":23}