{"abi":[{"type":"constructor","inputs":[{"name":"rocketStorageAddress","type":"address","internalType":"contract IRocketStorage"},{"name":"diamondAddr","type":"address","internalType":"address"}],"stateMutability":"nonpayable"},{"type":"receive","stateMutability":"payable"},{"type":"function","name":"deposit","inputs":[{"name":"from","type":"address","internalType":"address"},{"name":"amount","type":"uint256","internalType":"uint256"}],"outputs":[{"name":"","type":"uint256","internalType":"uint256"}],"stateMutability":"nonpayable"},{"type":"function","name":"depositEth","inputs":[],"outputs":[{"name":"","type":"uint256","internalType":"uint256"}],"stateMutability":"payable"},{"type":"function","name":"getBaseCollateral","inputs":[],"outputs":[{"name":"","type":"address","internalType":"address"}],"stateMutability":"view"},{"type":"function","name":"getDethValue","inputs":[],"outputs":[{"name":"","type":"uint256","internalType":"uint256"}],"stateMutability":"view"},{"type":"function","name":"getUnitDethValue","inputs":[],"outputs":[{"name":"","type":"uint256","internalType":"uint256"}],"stateMutability":"view"},{"type":"function","name":"withdraw","inputs":[{"name":"to","type":"address","internalType":"address"},{"name":"amount","type":"uint256","internalType":"uint256"}],"outputs":[{"name":"","type":"uint256","internalType":"uint256"}],"stateMutability":"nonpayable"},{"type":"error","name":"NetBalanceZero","inputs":[]},{"type":"error","name":"NotDiamond","inputs":[]}],"bytecode":{"object":"0x61010060405234801562000011575f80fd5b5060405162001208380380620012088339818101604052810190620000379190620001aa565b8173ffffffffffffffffffffffffffffffffffffffff1660c08173ffffffffffffffffffffffffffffffffffffffff16815250508073ffffffffffffffffffffffffffffffffffffffff1660e08173ffffffffffffffffffffffffffffffffffffffff1681525050604051602001620000b09062000295565b6040516020818303038152906040528051906020012060808181525050604051602001620000de9062000306565b6040516020818303038152906040528051906020012060a08181525050505062000329565b5f80fd5b5f73ffffffffffffffffffffffffffffffffffffffff82169050919050565b5f620001328262000107565b9050919050565b5f620001458262000126565b9050919050565b620001578162000139565b811462000162575f80fd5b50565b5f8151905062000175816200014c565b92915050565b620001868162000126565b811462000191575f80fd5b50565b5f81519050620001a4816200017b565b92915050565b5f8060408385031215620001c357620001c262000103565b5b5f620001d28582860162000165565b9250506020620001e58582860162000194565b9150509250929050565b5f81905092915050565b7f636f6e74726163742e61646472657373000000000000000000000000000000005f82015250565b5f6200022f601083620001ef565b91506200023c82620001f9565b601082019050919050565b7f726f636b6574546f6b656e5245544800000000000000000000000000000000005f82015250565b5f6200027d600f83620001ef565b91506200028a8262000247565b600f82019050919050565b5f620002a18262000221565b9150620002ae826200026f565b9150819050919050565b7f726f636b65744465706f736974506f6f6c0000000000000000000000000000005f82015250565b5f620002ee601183620001ef565b9150620002fb82620002b8565b601182019050919050565b5f620003128262000221565b91506200031f82620002e0565b9150819050919050565b60805160a05160c05160e051610e88620003805f395f818161027b015281816105df01526108bf01525f81816103010152818161076f0152610a5201525f61033d01525f81816107ab0152610a8e0152610e885ff3fe608060405260043610610058575f3560e01c80631e70f19514610063578063439370b11461008d57806347e7ef24146100ab57806370b72944146100e75780638a9f6a2614610111578063f3fef3a31461013b5761005f565b3661005f57005b5f80fd5b34801561006e575f80fd5b50610077610177565b6040516100849190610b25565b60405180910390f35b610095610278565b6040516100a29190610b25565b60405180910390f35b3480156100b6575f80fd5b506100d160048036038101906100cc9190610bc6565b6105dc565b6040516100de9190610b25565b60405180910390f35b3480156100f2575f80fd5b506100fb61076c565b6040516101089190610c13565b60405180910390f35b34801561011c575f80fd5b5061012561082a565b6040516101329190610b25565b60405180910390f35b348015610146575f80fd5b50610161600480360381019061015c9190610bc6565b6108bc565b60405161016e9190610b25565b60405180910390f35b5f80610181610a4f565b90508073ffffffffffffffffffffffffffffffffffffffff16638b32fa238273ffffffffffffffffffffffffffffffffffffffff166370a08231306040518263ffffffff1660e01b81526004016101d89190610c13565b602060405180830381865afa1580156101f3573d5f803e3d5ffd5b505050506040513d601f19601f820116820180604052508101906102179190610c40565b6040518263ffffffff1660e01b81526004016102339190610b25565b602060405180830381865afa15801561024e573d5f803e3d5ffd5b505050506040513d601f19601f820116820180604052508101906102729190610c40565b91505090565b5f7f000000000000000000000000000000000000000000000000000000000000000073ffffffffffffffffffffffffffffffffffffffff163373ffffffffffffffffffffffffffffffffffffffff16146102fe576040517fd04b63aa00000000000000000000000000000000000000000000000000000000815260040160405180910390fd5b5f7f000000000000000000000000000000000000000000000000000000000000000073ffffffffffffffffffffffffffffffffffffffff166321f8a7217f00000000000000000000000000000000000000000000000000000000000000006040518263ffffffff1660e01b81526004016103789190610c83565b602060405180830381865afa158015610393573d5f803e3d5ffd5b505050506040513d601f19601f820116820180604052508101906103b79190610cb0565b90505f6103c2610a4f565b90505f8173ffffffffffffffffffffffffffffffffffffffff166370a08231306040518263ffffffff1660e01b81526004016103fe9190610c13565b602060405180830381865afa158015610419573d5f803e3d5ffd5b505050506040513d601f19601f8201168201806040525081019061043d9190610c40565b90508273ffffffffffffffffffffffffffffffffffffffff1663d0e30db0346040518263ffffffff1660e01b81526004015f604051808303818588803b158015610485575f80fd5b505af1158015610497573d5f803e3d5ffd5b50505050505f818373ffffffffffffffffffffffffffffffffffffffff166370a08231306040518263ffffffff1660e01b81526004016104d79190610c13565b602060405180830381865afa1580156104f2573d5f803e3d5ffd5b505050506040513d601f19601f820116820180604052508101906105169190610c40565b6105209190610d08565b90505f810361055b576040517f9d5710a400000000000000000000000000000000000000000000000000000000815260040160405180910390fd5b8273ffffffffffffffffffffffffffffffffffffffff16638b32fa23826040518263ffffffff1660e01b81526004016105949190610b25565b602060405180830381865afa1580156105af573d5f803e3d5ffd5b505050506040513d601f19601f820116820180604052508101906105d39190610c40565b94505050505090565b5f7f000000000000000000000000000000000000000000000000000000000000000073ffffffffffffffffffffffffffffffffffffffff163373ffffffffffffffffffffffffffffffffffffffff1614610662576040517fd04b63aa00000000000000000000000000000000000000000000000000000000815260040160405180910390fd5b5f61066b610a4f565b90508073ffffffffffffffffffffffffffffffffffffffff166323b872dd8530866040518463ffffffff1660e01b81526004016106aa93929190610d3b565b6020604051808303815f875af11580156106c6573d5f803e3d5ffd5b505050506040513d601f19601f820116820180604052508101906106ea9190610da5565b508073ffffffffffffffffffffffffffffffffffffffff16638b32fa23846040518263ffffffff1660e01b81526004016107249190610b25565b602060405180830381865afa15801561073f573d5f803e3d5ffd5b505050506040513d601f19601f820116820180604052508101906107639190610c40565b91505092915050565b5f7f000000000000000000000000000000000000000000000000000000000000000073ffffffffffffffffffffffffffffffffffffffff166321f8a7217f00000000000000000000000000000000000000000000000000000000000000006040518263ffffffff1660e01b81526004016107e69190610c83565b602060405180830381865afa158015610801573d5f803e3d5ffd5b505050506040513d601f19601f820116820180604052508101906108259190610cb0565b905090565b5f80610834610a4f565b90508073ffffffffffffffffffffffffffffffffffffffff16638b32fa23670de0b6b3a76400006040518263ffffffff1660e01b81526004016108779190610e12565b602060405180830381865afa158015610892573d5f803e3d5ffd5b505050506040513d601f19601f820116820180604052508101906108b69190610c40565b91505090565b5f7f000000000000000000000000000000000000000000000000000000000000000073ffffffffffffffffffffffffffffffffffffffff163373ffffffffffffffffffffffffffffffffffffffff1614610942576040517fd04b63aa00000000000000000000000000000000000000000000000000000000815260040160405180910390fd5b5f61094b610a4f565b90505f8173ffffffffffffffffffffffffffffffffffffffff16634346f03e856040518263ffffffff1660e01b81526004016109879190610b25565b602060405180830381865afa1580156109a2573d5f803e3d5ffd5b505050506040513d601f19601f820116820180604052508101906109c69190610c40565b90508173ffffffffffffffffffffffffffffffffffffffff1663a9059cbb86836040518363ffffffff1660e01b8152600401610a03929190610e2b565b6020604051808303815f875af1158015610a1f573d5f803e3d5ffd5b505050506040513d601f19601f82011682018060405250810190610a439190610da5565b50809250505092915050565b5f7f000000000000000000000000000000000000000000000000000000000000000073ffffffffffffffffffffffffffffffffffffffff166321f8a7217f00000000000000000000000000000000000000000000000000000000000000006040518263ffffffff1660e01b8152600401610ac99190610c83565b602060405180830381865afa158015610ae4573d5f803e3d5ffd5b505050506040513d601f19601f82011682018060405250810190610b089190610cb0565b905090565b5f819050919050565b610b1f81610b0d565b82525050565b5f602082019050610b385f830184610b16565b92915050565b5f80fd5b5f73ffffffffffffffffffffffffffffffffffffffff82169050919050565b5f610b6b82610b42565b9050919050565b610b7b81610b61565b8114610b85575f80fd5b50565b5f81359050610b9681610b72565b92915050565b610ba581610b0d565b8114610baf575f80fd5b50565b5f81359050610bc081610b9c565b92915050565b5f8060408385031215610bdc57610bdb610b3e565b5b5f610be985828601610b88565b9250506020610bfa85828601610bb2565b9150509250929050565b610c0d81610b61565b82525050565b5f602082019050610c265f830184610c04565b92915050565b5f81519050610c3a81610b9c565b92915050565b5f60208284031215610c5557610c54610b3e565b5b5f610c6284828501610c2c565b91505092915050565b5f819050919050565b610c7d81610c6b565b82525050565b5f602082019050610c965f830184610c74565b92915050565b5f81519050610caa81610b72565b92915050565b5f60208284031215610cc557610cc4610b3e565b5b5f610cd284828501610c9c565b91505092915050565b7f4e487b71000000000000000000000000000000000000000000000000000000005f52601160045260245ffd5b5f610d1282610b0d565b9150610d1d83610b0d565b9250828203905081811115610d3557610d34610cdb565b5b92915050565b5f606082019050610d4e5f830186610c04565b610d5b6020830185610c04565b610d686040830184610b16565b949350505050565b5f8115159050919050565b610d8481610d70565b8114610d8e575f80fd5b50565b5f81519050610d9f81610d7b565b92915050565b5f60208284031215610dba57610db9610b3e565b5b5f610dc784828501610d91565b91505092915050565b5f819050919050565b5f819050919050565b5f610dfc610df7610df284610dd0565b610dd9565b610b0d565b9050919050565b610e0c81610de2565b82525050565b5f602082019050610e255f830184610e03565b92915050565b5f604082019050610e3e5f830185610c04565b610e4b6020830184610b16565b939250505056fea2646970667358221220f78f143e9bdeda10f2049d4088ba85f7eec8a55ad65b025522ba82736ee9755864736f6c63430008150033","linkReferences":{}},"methodIdentifiers":{"deposit(address,uint256)":"47e7ef24","depositEth()":"439370b1","getBaseCollateral()":"70b72944","getDethValue()":"1e70f195","getUnitDethValue()":"8a9f6a26","withdraw(address,uint256)":"f3fef3a3"},"id":2}