{"abi":[{"type":"function","name":"getAddress","inputs":[{"name":"_key","type":"bytes32","internalType":"bytes32"}],"outputs":[{"name":"r","type":"address","internalType":"address"}],"stateMutability":"view"},{"type":"function","name":"setDeposit","inputs":[{"name":"addr","type":"address","internalType":"address"}],"outputs":[],"stateMutability":"nonpayable"},{"type":"function","name":"setReth","inputs":[{"name":"addr","type":"address","internalType":"address"}],"outputs":[],"stateMutability":"nonpayable"}],"bytecode":{"object":"0x608060405234801561000f575f80fd5b506104388061001d5f395ff3fe608060405234801561000f575f80fd5b506004361061003f575f3560e01c806321f8a721146100435780633b80938e14610073578063572d3f4f1461008f575b5f80fd5b61005d60048036038101906100589190610204565b6100ab565b60405161006a919061026e565b60405180910390f35b61008d600480360381019061008891906102b1565b6100e3565b005b6100a960048036038101906100a491906102b1565b610158565b005b5f805f8381526020019081526020015f205f9054906101000a900473ffffffffffffffffffffffffffffffffffffffff169050919050565b805f806040516020016100f59061037a565b6040516020818303038152906040528051906020012081526020019081526020015f205f6101000a81548173ffffffffffffffffffffffffffffffffffffffff021916908373ffffffffffffffffffffffffffffffffffffffff16021790555050565b805f8060405160200161016a906103e3565b6040516020818303038152906040528051906020012081526020019081526020015f205f6101000a81548173ffffffffffffffffffffffffffffffffffffffff021916908373ffffffffffffffffffffffffffffffffffffffff16021790555050565b5f80fd5b5f819050919050565b6101e3816101d1565b81146101ed575f80fd5b50565b5f813590506101fe816101da565b92915050565b5f60208284031215610219576102186101cd565b5b5f610226848285016101f0565b91505092915050565b5f73ffffffffffffffffffffffffffffffffffffffff82169050919050565b5f6102588261022f565b9050919050565b6102688161024e565b82525050565b5f6020820190506102815f83018461025f565b92915050565b6102908161024e565b811461029a575f80fd5b50565b5f813590506102ab81610287565b92915050565b5f602082840312156102c6576102c56101cd565b5b5f6102d38482850161029d565b91505092915050565b5f81905092915050565b7f636f6e74726163742e61646472657373000000000000000000000000000000005f82015250565b5f61031a6010836102dc565b9150610325826102e6565b601082019050919050565b7f726f636b65744465706f736974506f6f6c0000000000000000000000000000005f82015250565b5f6103646011836102dc565b915061036f82610330565b601182019050919050565b5f6103848261030e565b915061038f82610358565b9150819050919050565b7f726f636b6574546f6b656e5245544800000000000000000000000000000000005f82015250565b5f6103cd600f836102dc565b91506103d882610399565b600f82019050919050565b5f6103ed8261030e565b91506103f8826103c1565b915081905091905056fea26469706673582212203271f2167dab21f8c859a923f5c70c2ee0fc0aed22097b0169edd80da2019f9464736f6c63430008150033","linkReferences":{}},"methodIdentifiers":{"getAddress(bytes32)":"21f8a721","setDeposit(address)":"3b80938e","setReth(address)":"572d3f4f"},"id":56}