{"abi":[{"type":"constructor","inputs":[],"stateMutability":"nonpayable"},{"type":"function","name":"decimals","inputs":[],"outputs":[{"name":"","type":"uint8","internalType":"uint8"}],"stateMutability":"view"},{"type":"function","name":"deleteRoundData","inputs":[],"outputs":[],"stateMutability":"nonpayable"},{"type":"function","name":"description","inputs":[],"outputs":[{"name":"","type":"string","internalType":"string"}],"stateMutability":"view"},{"type":"function","name":"getRoundData","inputs":[{"name":"round","type":"uint80","internalType":"uint80"}],"outputs":[{"name":"roundId","type":"uint80","internalType":"uint80"},{"name":"answer","type":"int256","internalType":"int256"},{"name":"startedAt","type":"uint256","internalType":"uint256"},{"name":"updatedAt","type":"uint256","internalType":"uint256"},{"name":"answeredInRound","type":"uint80","internalType":"uint80"}],"stateMutability":"view"},{"type":"function","name":"latestAnswer","inputs":[],"outputs":[{"name":"","type":"int256","internalType":"int256"}],"stateMutability":"view"},{"type":"function","name":"latestAnsweredInRound","inputs":[],"outputs":[{"name":"","type":"uint80","internalType":"uint80"}],"stateMutability":"view"},{"type":"function","name":"latestRoundData","inputs":[],"outputs":[{"name":"roundId","type":"uint80","internalType":"uint80"},{"name":"answer","type":"int256","internalType":"int256"},{"name":"startedAt","type":"uint256","internalType":"uint256"},{"name":"updatedAt","type":"uint256","internalType":"uint256"},{"name":"answeredInRound","type":"uint80","internalType":"uint80"}],"stateMutability":"view"},{"type":"function","name":"latestRoundId","inputs":[],"outputs":[{"name":"","type":"uint80","internalType":"uint80"}],"stateMutability":"view"},{"type":"function","name":"latestStartedAt","inputs":[],"outputs":[{"name":"","type":"uint256","internalType":"uint256"}],"stateMutability":"view"},{"type":"function","name":"latestUpdatedAt","inputs":[],"outputs":[{"name":"","type":"uint256","internalType":"uint256"}],"stateMutability":"view"},{"type":"function","name":"owner","inputs":[],"outputs":[{"name":"","type":"address","internalType":"address"}],"stateMutability":"view"},{"type":"function","name":"setFail","inputs":[{"name":"isFail","type":"bool","internalType":"bool"}],"outputs":[],"stateMutability":"nonpayable"},{"type":"function","name":"setRoundData","inputs":[{"name":"roundId","type":"uint80","internalType":"uint80"},{"name":"answer","type":"int256","internalType":"int256"},{"name":"startedAt","type":"uint256","internalType":"uint256"},{"name":"updatedAt","type":"uint256","internalType":"uint256"},{"name":"answeredInRound","type":"uint80","internalType":"uint80"}],"outputs":[],"stateMutability":"nonpayable"},{"type":"function","name":"version","inputs":[],"outputs":[{"name":"","type":"uint256","internalType":"uint256"}],"stateMutability":"view"},{"type":"error","name":"ChainlinkFail","inputs":[]}],"bytecode":{"object":"0x608060405260085f60146101000a81548160ff021916908360ff1602179055506040518060400160405280600781526020017f4554482f55534400000000000000000000000000000000000000000000000000815250600190816200006591906200033a565b5060036002555f60035f6101000a81548160ff02191690831515021790555034801562000090575f80fd5b50335f806101000a81548173ffffffffffffffffffffffffffffffffffffffff021916908373ffffffffffffffffffffffffffffffffffffffff1602179055506200041e565b5f81519050919050565b7f4e487b71000000000000000000000000000000000000000000000000000000005f52604160045260245ffd5b7f4e487b71000000000000000000000000000000000000000000000000000000005f52602260045260245ffd5b5f60028204905060018216806200015257607f821691505b6020821081036200016857620001676200010d565b5b50919050565b5f819050815f5260205f209050919050565b5f6020601f8301049050919050565b5f82821b905092915050565b5f60088302620001cc7fffffffffffffffffffffffffffffffffffffffffffffffffffffffffffffffff826200018f565b620001d886836200018f565b95508019841693508086168417925050509392505050565b5f819050919050565b5f819050919050565b5f620002226200021c6200021684620001f0565b620001f9565b620001f0565b9050919050565b5f819050919050565b6200023d8362000202565b620002556200024c8262000229565b8484546200019b565b825550505050565b5f90565b6200026b6200025d565b6200027881848462000232565b505050565b5b818110156200029f57620002935f8262000261565b6001810190506200027e565b5050565b601f821115620002ee57620002b8816200016e565b620002c38462000180565b81016020851015620002d3578190505b620002eb620002e28562000180565b8301826200027d565b50505b505050565b5f82821c905092915050565b5f620003105f1984600802620002f3565b1980831691505092915050565b5f6200032a8383620002ff565b9150826002028217905092915050565b6200034582620000d6565b67ffffffffffffffff811115620003615762000360620000e0565b5b6200036d82546200013a565b6200037a828285620002a3565b5f60209050601f831160018114620003b0575f84156200039b578287015190505b620003a785826200031d565b86555062000416565b601f198416620003c0866200016e565b5f5b82811015620003e957848901518255600182019150602085019450602081019050620003c2565b8683101562000409578489015162000405601f891682620002ff565b8355505b6001600288020188555050505b505050505050565b610b7d806200042c5f395ff3fe608060405234801561000f575f80fd5b50600436106100e8575f3560e01c80637284e4161161008a5780639a6fc8f5116100645780639a6fc8f5146102025780639d76940214610236578063a53322af14610252578063feaf968c14610270576100e8565b80637284e416146101a85780638da5cb5b146101c6578063918e220d146101e4576100e8565b806330e45743116100c657806330e4574314610130578063313ce5671461014e57806350d25bcd1461016c57806354fd4d501461018a576100e8565b806311a8f413146100ec5780631c12940a1461010a57806325cc2bfd14610126575b5f80fd5b6100f4610292565b6040516101019190610764565b60405180910390f35b610124600480360381019061011f9190610811565b6102ae565b005b61012e61043a565b005b6101386104aa565b6040516101459190610897565b60405180910390f35b6101566104b0565b60405161016391906108cb565b60405180910390f35b6101746104c5565b60405161018191906108f3565b60405180910390f35b6101926104cb565b60405161019f9190610897565b60405180910390f35b6101b06104d4565b6040516101bd9190610996565b60405180910390f35b6101ce610564565b6040516101db91906109f5565b60405180910390f35b6101ec610587565b6040516101f99190610897565b60405180910390f35b61021c60048036038101906102179190610a0e565b61058d565b60405161022d959493929190610a39565b60405180910390f35b610250600480360381019061024b9190610abf565b610673565b005b61025a61068f565b6040516102679190610764565b60405180910390f35b6102786106aa565b604051610289959493929190610a39565b60405180910390f35b600360019054906101000a900469ffffffffffffffffffff1681565b600360019054906101000a900469ffffffffffffffffffff1669ffffffffffffffffffff168569ffffffffffffffffffff16106103545784600360016101000a81548169ffffffffffffffffffff021916908369ffffffffffffffffffff1602179055508360048190555082600581905550816006819055508060075f6101000a81548169ffffffffffffffffffff021916908369ffffffffffffffffffff1602179055505b6040518060a001604052808669ffffffffffffffffffff1681526020018581526020018481526020018381526020018269ffffffffffffffffffff1681525060085f8769ffffffffffffffffffff1681526020019081526020015f205f820151815f015f6101000a81548169ffffffffffffffffffff021916908369ffffffffffffffffffff1602179055506020820151816001015560408201518160020155606082015181600301556080820151816004015f6101000a81548169ffffffffffffffffffff021916908369ffffffffffffffffffff1602179055509050505050505050565b5f600360016101000a81548169ffffffffffffffffffff021916908369ffffffffffffffffffff1602179055505f6004819055505f6005819055505f6006819055505f60075f6101000a81548169ffffffffffffffffffff021916908369ffffffffffffffffffff160217905550565b60055481565b5f8060149054906101000a900460ff16905090565b60045481565b5f600254905090565b6060600180546104e390610b17565b80601f016020809104026020016040519081016040528092919081815260200182805461050f90610b17565b801561055a5780601f106105315761010080835404028352916020019161055a565b820191905f5260205f20905b81548152906001019060200180831161053d57829003601f168201915b5050505050905090565b5f8054906101000a900473ffffffffffffffffffffffffffffffffffffffff1681565b60065481565b5f805f805f60085f8769ffffffffffffffffffff1681526020019081526020015f205f015f9054906101000a900469ffffffffffffffffffff1660085f8869ffffffffffffffffffff1681526020019081526020015f206001015460085f8969ffffffffffffffffffff1681526020019081526020015f206002015460085f8a69ffffffffffffffffffff1681526020019081526020015f206003015460085f8b69ffffffffffffffffffff1681526020019081526020015f206004015f9054906101000a900469ffffffffffffffffffff169450945094509450945091939590929450565b8060035f6101000a81548160ff02191690831515021790555050565b60075f9054906101000a900469ffffffffffffffffffff1681565b5f805f805f60035f9054906101000a900460ff16156106f5576040517f3593f7ba00000000000000000000000000000000000000000000000000000000815260040160405180910390fd5b600360019054906101000a900469ffffffffffffffffffff1660045460055460065460075f9054906101000a900469ffffffffffffffffffff16945094509450945094509091929394565b5f69ffffffffffffffffffff82169050919050565b61075e81610740565b82525050565b5f6020820190506107775f830184610755565b92915050565b5f80fd5b61078a81610740565b8114610794575f80fd5b50565b5f813590506107a581610781565b92915050565b5f819050919050565b6107bd816107ab565b81146107c7575f80fd5b50565b5f813590506107d8816107b4565b92915050565b5f819050919050565b6107f0816107de565b81146107fa575f80fd5b50565b5f8135905061080b816107e7565b92915050565b5f805f805f60a0868803121561082a5761082961077d565b5b5f61083788828901610797565b9550506020610848888289016107ca565b9450506040610859888289016107fd565b935050606061086a888289016107fd565b925050608061087b88828901610797565b9150509295509295909350565b610891816107de565b82525050565b5f6020820190506108aa5f830184610888565b92915050565b5f60ff82169050919050565b6108c5816108b0565b82525050565b5f6020820190506108de5f8301846108bc565b92915050565b6108ed816107ab565b82525050565b5f6020820190506109065f8301846108e4565b92915050565b5f81519050919050565b5f82825260208201905092915050565b5f5b83811015610943578082015181840152602081019050610928565b5f8484015250505050565b5f601f19601f8301169050919050565b5f6109688261090c565b6109728185610916565b9350610982818560208601610926565b61098b8161094e565b840191505092915050565b5f6020820190508181035f8301526109ae818461095e565b905092915050565b5f73ffffffffffffffffffffffffffffffffffffffff82169050919050565b5f6109df826109b6565b9050919050565b6109ef816109d5565b82525050565b5f602082019050610a085f8301846109e6565b92915050565b5f60208284031215610a2357610a2261077d565b5b5f610a3084828501610797565b91505092915050565b5f60a082019050610a4c5f830188610755565b610a5960208301876108e4565b610a666040830186610888565b610a736060830185610888565b610a806080830184610755565b9695505050505050565b5f8115159050919050565b610a9e81610a8a565b8114610aa8575f80fd5b50565b5f81359050610ab981610a95565b92915050565b5f60208284031215610ad457610ad361077d565b5b5f610ae184828501610aab565b91505092915050565b7f4e487b71000000000000000000000000000000000000000000000000000000005f52602260045260245ffd5b5f6002820490506001821680610b2e57607f821691505b602082108103610b4157610b40610aea565b5b5091905056fea26469706673582212202991b12cc467cba77edce252995afe21e28e3a4d1d7824acb4651bd69f6c593764736f6c63430008150033","linkReferences":{}},"methodIdentifiers":{"decimals()":"313ce567","deleteRoundData()":"25cc2bfd","description()":"7284e416","getRoundData(uint80)":"9a6fc8f5","latestAnswer()":"50d25bcd","latestAnsweredInRound()":"a53322af","latestRoundData()":"feaf968c","latestRoundId()":"11a8f413","latestStartedAt()":"30e45743","latestUpdatedAt()":"918e220d","owner()":"8da5cb5b","setFail(bool)":"9d769402","setRoundData(uint80,int256,uint256,uint256,uint80)":"1c12940a","version()":"54fd4d50"},"id":54}