{"abi":[{"type":"constructor","inputs":[{"name":"diamondAddr","type":"address","internalType":"address"},{"name":"name","type":"string","internalType":"string"},{"name":"symbol","type":"string","internalType":"string"}],"stateMutability":"nonpayable"},{"type":"function","name":"DOMAIN_SEPARATOR","inputs":[],"outputs":[{"name":"","type":"bytes32","internalType":"bytes32"}],"stateMutability":"view"},{"type":"function","name":"allowance","inputs":[{"name":"owner","type":"address","internalType":"address"},{"name":"spender","type":"address","internalType":"address"}],"outputs":[{"name":"","type":"uint256","internalType":"uint256"}],"stateMutability":"view"},{"type":"function","name":"approve","inputs":[{"name":"spender","type":"address","internalType":"address"},{"name":"amount","type":"uint256","internalType":"uint256"}],"outputs":[{"name":"","type":"bool","internalType":"bool"}],"stateMutability":"nonpayable"},{"type":"function","name":"balanceOf","inputs":[{"name":"account","type":"address","internalType":"address"}],"outputs":[{"name":"","type":"uint256","internalType":"uint256"}],"stateMutability":"view"},{"type":"function","name":"burnFrom","inputs":[{"name":"account","type":"address","internalType":"address"},{"name":"amount","type":"uint256","internalType":"uint256"}],"outputs":[],"stateMutability":"nonpayable"},{"type":"function","name":"decimals","inputs":[],"outputs":[{"name":"","type":"uint8","internalType":"uint8"}],"stateMutability":"view"},{"type":"function","name":"decreaseAllowance","inputs":[{"name":"spender","type":"address","internalType":"address"},{"name":"subtractedValue","type":"uint256","internalType":"uint256"}],"outputs":[{"name":"","type":"bool","internalType":"bool"}],"stateMutability":"nonpayable"},{"type":"function","name":"eip712Domain","inputs":[],"outputs":[{"name":"fields","type":"bytes1","internalType":"bytes1"},{"name":"name","type":"string","internalType":"string"},{"name":"version","type":"string","internalType":"string"},{"name":"chainId","type":"uint256","internalType":"uint256"},{"name":"verifyingContract","type":"address","internalType":"address"},{"name":"salt","type":"bytes32","internalType":"bytes32"},{"name":"extensions","type":"uint256[]","internalType":"uint256[]"}],"stateMutability":"view"},{"type":"function","name":"increaseAllowance","inputs":[{"name":"spender","type":"address","internalType":"address"},{"name":"addedValue","type":"uint256","internalType":"uint256"}],"outputs":[{"name":"","type":"bool","internalType":"bool"}],"stateMutability":"nonpayable"},{"type":"function","name":"mint","inputs":[{"name":"to","type":"address","internalType":"address"},{"name":"amount","type":"uint256","internalType":"uint256"}],"outputs":[],"stateMutability":"nonpayable"},{"type":"function","name":"name","inputs":[],"outputs":[{"name":"","type":"string","internalType":"string"}],"stateMutability":"view"},{"type":"function","name":"nonces","inputs":[{"name":"owner","type":"address","internalType":"address"}],"outputs":[{"name":"","type":"uint256","internalType":"uint256"}],"stateMutability":"view"},{"type":"function","name":"permit","inputs":[{"name":"owner","type":"address","internalType":"address"},{"name":"spender","type":"address","internalType":"address"},{"name":"value","type":"uint256","internalType":"uint256"},{"name":"deadline","type":"uint256","internalType":"uint256"},{"name":"v","type":"uint8","internalType":"uint8"},{"name":"r","type":"bytes32","internalType":"bytes32"},{"name":"s","type":"bytes32","internalType":"bytes32"}],"outputs":[],"stateMutability":"nonpayable"},{"type":"function","name":"symbol","inputs":[],"outputs":[{"name":"","type":"string","internalType":"string"}],"stateMutability":"view"},{"type":"function","name":"totalSupply","inputs":[],"outputs":[{"name":"","type":"uint256","internalType":"uint256"}],"stateMutability":"view"},{"type":"function","name":"transfer","inputs":[{"name":"to","type":"address","internalType":"address"},{"name":"amount","type":"uint256","internalType":"uint256"}],"outputs":[{"name":"","type":"bool","internalType":"bool"}],"stateMutability":"nonpayable"},{"type":"function","name":"transferFrom","inputs":[{"name":"from","type":"address","internalType":"address"},{"name":"to","type":"address","internalType":"address"},{"name":"amount","type":"uint256","internalType":"uint256"}],"outputs":[{"name":"","type":"bool","internalType":"bool"}],"stateMutability":"nonpayable"},{"type":"event","name":"Approval","inputs":[{"name":"owner","type":"address","indexed":true,"internalType":"address"},{"name":"spender","type":"address","indexed":true,"internalType":"address"},{"name":"value","type":"uint256","indexed":false,"internalType":"uint256"}],"anonymous":false},{"type":"event","name":"EIP712DomainChanged","inputs":[],"anonymous":false},{"type":"event","name":"Transfer","inputs":[{"name":"from","type":"address","indexed":true,"internalType":"address"},{"name":"to","type":"address","indexed":true,"internalType":"address"},{"name":"value","type":"uint256","indexed":false,"internalType":"uint256"}],"anonymous":false},{"type":"error","name":"InvalidShortString","inputs":[]},{"type":"error","name":"NotDiamond","inputs":[]},{"type":"error","name":"StringTooLong","inputs":[{"name":"str","type":"string","internalType":"string"}]}],"bytecode":{"object":"0x61018060405234801562000011575f80fd5b506040516200319a3803806200319a833981810160405281019062000037919062000490565b81806040518060400160405280600181526020017f3100000000000000000000000000000000000000000000000000000000000000815250848481600390816200008291906200075e565b5080600490816200009491906200075e565b505050620000ad6005836200018660201b90919060201c565b6101208181525050620000cb6006826200018660201b90919060201c565b6101408181525050818051906020012060e08181525050808051906020012061010081815250504660a081815250506200010a620001db60201b60201c565b608081815250503073ffffffffffffffffffffffffffffffffffffffff1660c08173ffffffffffffffffffffffffffffffffffffffff16815250505050508273ffffffffffffffffffffffffffffffffffffffff166101608173ffffffffffffffffffffffffffffffffffffffff1681525050505050620009e9565b5f602083511015620001ab57620001a3836200023760201b60201c565b9050620001d5565b82620001bd83620002a160201b60201c565b5f019081620001cd91906200075e565b5060ff5f1b90505b92915050565b5f7f8b73c3c69bb8fe3d512ecc4cf759cc79239f7b179b0ffacaa9a75d522b39400f60e0516101005146306040516020016200021c9594939291906200087e565b60405160208183030381529060405280519060200120905090565b5f80829050601f815111156200028657826040517f305a27a90000000000000000000000000000000000000000000000000000000081526004016200027d919062000929565b60405180910390fd5b80518162000294906200097a565b5f1c175f1b915050919050565b5f819050919050565b5f604051905090565b5f80fd5b5f80fd5b5f73ffffffffffffffffffffffffffffffffffffffff82169050919050565b5f620002e682620002bb565b9050919050565b620002f881620002da565b811462000303575f80fd5b50565b5f815190506200031681620002ed565b92915050565b5f80fd5b5f80fd5b5f601f19601f8301169050919050565b7f4e487b71000000000000000000000000000000000000000000000000000000005f52604160045260245ffd5b6200036c8262000324565b810181811067ffffffffffffffff821117156200038e576200038d62000334565b5b80604052505050565b5f620003a2620002aa565b9050620003b0828262000361565b919050565b5f67ffffffffffffffff821115620003d257620003d162000334565b5b620003dd8262000324565b9050602081019050919050565b5f5b8381101562000409578082015181840152602081019050620003ec565b5f8484015250505050565b5f6200042a6200042484620003b5565b62000397565b90508281526020810184848401111562000449576200044862000320565b5b62000456848285620003ea565b509392505050565b5f82601f8301126200047557620004746200031c565b5b81516200048784826020860162000414565b91505092915050565b5f805f60608486031215620004aa57620004a9620002b3565b5b5f620004b98682870162000306565b935050602084015167ffffffffffffffff811115620004dd57620004dc620002b7565b5b620004eb868287016200045e565b925050604084015167ffffffffffffffff8111156200050f576200050e620002b7565b5b6200051d868287016200045e565b9150509250925092565b5f81519050919050565b7f4e487b71000000000000000000000000000000000000000000000000000000005f52602260045260245ffd5b5f60028204905060018216806200057657607f821691505b6020821081036200058c576200058b62000531565b5b50919050565b5f819050815f5260205f209050919050565b5f6020601f8301049050919050565b5f82821b905092915050565b5f60088302620005f07fffffffffffffffffffffffffffffffffffffffffffffffffffffffffffffffff82620005b3565b620005fc8683620005b3565b95508019841693508086168417925050509392505050565b5f819050919050565b5f819050919050565b5f62000646620006406200063a8462000614565b6200061d565b62000614565b9050919050565b5f819050919050565b620006618362000626565b6200067962000670826200064d565b848454620005bf565b825550505050565b5f90565b6200068f62000681565b6200069c81848462000656565b505050565b5b81811015620006c357620006b75f8262000685565b600181019050620006a2565b5050565b601f8211156200071257620006dc8162000592565b620006e784620005a4565b81016020851015620006f7578190505b6200070f6200070685620005a4565b830182620006a1565b50505b505050565b5f82821c905092915050565b5f620007345f198460080262000717565b1980831691505092915050565b5f6200074e838362000723565b9150826002028217905092915050565b620007698262000527565b67ffffffffffffffff81111562000785576200078462000334565b5b6200079182546200055e565b6200079e828285620006c7565b5f60209050601f831160018114620007d4575f8415620007bf578287015190505b620007cb858262000741565b8655506200083a565b601f198416620007e48662000592565b5f5b828110156200080d57848901518255600182019150602085019450602081019050620007e6565b868310156200082d578489015162000829601f89168262000723565b8355505b6001600288020188555050505b505050505050565b5f819050919050565b620008568162000842565b82525050565b620008678162000614565b82525050565b6200087881620002da565b82525050565b5f60a082019050620008935f8301886200084b565b620008a260208301876200084b565b620008b160408301866200084b565b620008c060608301856200085c565b620008cf60808301846200086d565b9695505050505050565b5f82825260208201905092915050565b5f620008f58262000527565b620009018185620008d9565b935062000913818560208601620003ea565b6200091e8162000324565b840191505092915050565b5f6020820190508181035f830152620009438184620008e9565b905092915050565b5f81519050919050565b5f819050602082019050919050565b5f62000971825162000842565b80915050919050565b5f62000986826200094b565b82620009928462000955565b90506200099f8162000964565b92506020821015620009e257620009dd7fffffffffffffffffffffffffffffffffffffffffffffffffffffffffffffffff83602003600802620005b3565b831692505b5050919050565b60805160a05160c05160e0516101005161012051610140516101605161274e62000a4c5f395f81816104d201526105aa01525f6106cc01525f61069801525f61149a01525f61147901525f610f3101525f610f8701525f610fb0015261274e5ff3fe608060405234801561000f575f80fd5b5060043610610109575f3560e01c806370a08231116100a057806395d89b411161006f57806395d89b41146102d1578063a457c2d7146102ef578063a9059cbb1461031f578063d505accf1461034f578063dd62ed3e1461036b57610109565b806370a082311461023157806379cc6790146102615780637ecebe001461027d57806384b0196e146102ad57610109565b8063313ce567116100dc578063313ce567146101a95780633644e515146101c757806339509351146101e557806340c10f191461021557610109565b806306fdde031461010d578063095ea7b31461012b57806318160ddd1461015b57806323b872dd14610179575b5f80fd5b61011561039b565b60405161012291906118c5565b60405180910390f35b61014560048036038101906101409190611976565b61042b565b60405161015291906119ce565b60405180910390f35b61016361044d565b60405161017091906119f6565b60405180910390f35b610193600480360381019061018e9190611a0f565b610456565b6040516101a091906119ce565b60405180910390f35b6101b1610484565b6040516101be9190611a7a565b60405180910390f35b6101cf61048c565b6040516101dc9190611aab565b60405180910390f35b6101ff60048036038101906101fa9190611976565b61049a565b60405161020c91906119ce565b60405180910390f35b61022f600480360381019061022a9190611976565b6104d0565b005b61024b60048036038101906102469190611ac4565b610563565b60405161025891906119f6565b60405180910390f35b61027b60048036038101906102769190611976565b6105a8565b005b61029760048036038101906102929190611ac4565b61063b565b6040516102a491906119f6565b60405180910390f35b6102b5610688565b6040516102c89796959493929190611bef565b60405180910390f35b6102d9610785565b6040516102e691906118c5565b60405180910390f35b61030960048036038101906103049190611976565b610815565b60405161031691906119ce565b60405180910390f35b61033960048036038101906103349190611976565b61088a565b60405161034691906119ce565b60405180910390f35b61036960048036038101906103649190611cc5565b6108ac565b005b61038560048036038101906103809190611d62565b6109eb565b60405161039291906119f6565b60405180910390f35b6060600380546103aa90611dcd565b80601f01602080910402602001604051908101604052809291908181526020018280546103d690611dcd565b80156104215780601f106103f857610100808354040283529160200191610421565b820191905f5260205f20905b81548152906001019060200180831161040457829003601f168201915b5050505050905090565b5f80610435610a6d565b9050610442818585610a74565b600191505092915050565b5f600254905090565b5f80610460610a6d565b905061046d858285610c37565b610478858585610cc2565b60019150509392505050565b5f6012905090565b5f610495610f2e565b905090565b5f806104a4610a6d565b90506104c58185856104b685896109eb565b6104c09190611e2a565b610a74565b600191505092915050565b7f000000000000000000000000000000000000000000000000000000000000000073ffffffffffffffffffffffffffffffffffffffff163373ffffffffffffffffffffffffffffffffffffffff1614610555576040517fd04b63aa00000000000000000000000000000000000000000000000000000000815260040160405180910390fd5b61055f8282610fe4565b5050565b5f805f8373ffffffffffffffffffffffffffffffffffffffff1673ffffffffffffffffffffffffffffffffffffffff1681526020019081526020015f20549050919050565b7f000000000000000000000000000000000000000000000000000000000000000073ffffffffffffffffffffffffffffffffffffffff163373ffffffffffffffffffffffffffffffffffffffff161461062d576040517fd04b63aa00000000000000000000000000000000000000000000000000000000815260040160405180910390fd5b6106378282611132565b5050565b5f61068160075f8473ffffffffffffffffffffffffffffffffffffffff1673ffffffffffffffffffffffffffffffffffffffff1681526020019081526020015f206112f5565b9050919050565b5f6060805f805f60606106c560057f000000000000000000000000000000000000000000000000000000000000000061130190919063ffffffff16565b6106f960067f000000000000000000000000000000000000000000000000000000000000000061130190919063ffffffff16565b46305f801b5f67ffffffffffffffff81111561071857610717611e5d565b5b6040519080825280602002602001820160405280156107465781602001602082028036833780820191505090505b507f0f00000000000000000000000000000000000000000000000000000000000000959493929190965096509650965096509650965090919293949596565b60606004805461079490611dcd565b80601f01602080910402602001604051908101604052809291908181526020018280546107c090611dcd565b801561080b5780601f106107e25761010080835404028352916020019161080b565b820191905f5260205f20905b8154815290600101906020018083116107ee57829003601f168201915b5050505050905090565b5f8061081f610a6d565b90505f61082c82866109eb565b905083811015610871576040517f08c379a000000000000000000000000000000000000000000000000000000000815260040161086890611efa565b60405180910390fd5b61087e8286868403610a74565b60019250505092915050565b5f80610894610a6d565b90506108a1818585610cc2565b600191505092915050565b834211156108ef576040517f08c379a00000000000000000000000000000000000000000000000000000000081526004016108e690611f62565b60405180910390fd5b5f7f6e71edae12b1b97f4d1f60370fef10105fa2faae0126114a169c64845d6126c988888861091d8c6113ae565b8960405160200161093396959493929190611f80565b6040516020818303038152906040528051906020012090505f61095582611409565b90505f61096482878787611422565b90508973ffffffffffffffffffffffffffffffffffffffff168173ffffffffffffffffffffffffffffffffffffffff16146109d4576040517f08c379a00000000000000000000000000000000000000000000000000000000081526004016109cb90612029565b60405180910390fd5b6109df8a8a8a610a74565b50505050505050505050565b5f60015f8473ffffffffffffffffffffffffffffffffffffffff1673ffffffffffffffffffffffffffffffffffffffff1681526020019081526020015f205f8373ffffffffffffffffffffffffffffffffffffffff1673ffffffffffffffffffffffffffffffffffffffff1681526020019081526020015f2054905092915050565b5f33905090565b5f73ffffffffffffffffffffffffffffffffffffffff168373ffffffffffffffffffffffffffffffffffffffff1603610ae2576040517f08c379a0000000000000000000000000000000000000000000000000000000008152600401610ad9906120b7565b60405180910390fd5b5f73ffffffffffffffffffffffffffffffffffffffff168273ffffffffffffffffffffffffffffffffffffffff1603610b50576040517f08c379a0000000000000000000000000000000000000000000000000000000008152600401610b4790612145565b60405180910390fd5b8060015f8573ffffffffffffffffffffffffffffffffffffffff1673ffffffffffffffffffffffffffffffffffffffff1681526020019081526020015f205f8473ffffffffffffffffffffffffffffffffffffffff1673ffffffffffffffffffffffffffffffffffffffff1681526020019081526020015f20819055508173ffffffffffffffffffffffffffffffffffffffff168373ffffffffffffffffffffffffffffffffffffffff167f8c5be1e5ebec7d5bd14f71427d1e84f3dd0314c0f7b2291e5b200ac8c7c3b92583604051610c2a91906119f6565b60405180910390a3505050565b5f610c4284846109eb565b90507fffffffffffffffffffffffffffffffffffffffffffffffffffffffffffffffff8114610cbc5781811015610cae576040517f08c379a0000000000000000000000000000000000000000000000000000000008152600401610ca5906121ad565b60405180910390fd5b610cbb8484848403610a74565b5b50505050565b5f73ffffffffffffffffffffffffffffffffffffffff168373ffffffffffffffffffffffffffffffffffffffff1603610d30576040517f08c379a0000000000000000000000000000000000000000000000000000000008152600401610d279061223b565b60405180910390fd5b5f73ffffffffffffffffffffffffffffffffffffffff168273ffffffffffffffffffffffffffffffffffffffff1603610d9e576040517f08c379a0000000000000000000000000000000000000000000000000000000008152600401610d95906122c9565b60405180910390fd5b610da983838361144b565b5f805f8573ffffffffffffffffffffffffffffffffffffffff1673ffffffffffffffffffffffffffffffffffffffff1681526020019081526020015f2054905081811015610e2c576040517f08c379a0000000000000000000000000000000000000000000000000000000008152600401610e2390612357565b60405180910390fd5b8181035f808673ffffffffffffffffffffffffffffffffffffffff1673ffffffffffffffffffffffffffffffffffffffff1681526020019081526020015f2081905550815f808573ffffffffffffffffffffffffffffffffffffffff1673ffffffffffffffffffffffffffffffffffffffff1681526020019081526020015f205f82825401925050819055508273ffffffffffffffffffffffffffffffffffffffff168473ffffffffffffffffffffffffffffffffffffffff167fddf252ad1be2c89b69c2b068fc378daa952ba7f163c4a11628f55a4df523b3ef84604051610f1591906119f6565b60405180910390a3610f28848484611450565b50505050565b5f7f000000000000000000000000000000000000000000000000000000000000000073ffffffffffffffffffffffffffffffffffffffff163073ffffffffffffffffffffffffffffffffffffffff16148015610fa957507f000000000000000000000000000000000000000000000000000000000000000046145b15610fd6577f00000000000000000000000000000000000000000000000000000000000000009050610fe1565b610fde611455565b90505b90565b5f73ffffffffffffffffffffffffffffffffffffffff168273ffffffffffffffffffffffffffffffffffffffff1603611052576040517f08c379a0000000000000000000000000000000000000000000000000000000008152600401611049906123bf565b60405180910390fd5b61105d5f838361144b565b8060025f82825461106e9190611e2a565b92505081905550805f808473ffffffffffffffffffffffffffffffffffffffff1673ffffffffffffffffffffffffffffffffffffffff1681526020019081526020015f205f82825401925050819055508173ffffffffffffffffffffffffffffffffffffffff165f73ffffffffffffffffffffffffffffffffffffffff167fddf252ad1be2c89b69c2b068fc378daa952ba7f163c4a11628f55a4df523b3ef8360405161111b91906119f6565b60405180910390a361112e5f8383611450565b5050565b5f73ffffffffffffffffffffffffffffffffffffffff168273ffffffffffffffffffffffffffffffffffffffff16036111a0576040517f08c379a00000000000000000000000000000000000000000000000000000000081526004016111979061244d565b60405180910390fd5b6111ab825f8361144b565b5f805f8473ffffffffffffffffffffffffffffffffffffffff1673ffffffffffffffffffffffffffffffffffffffff1681526020019081526020015f205490508181101561122e576040517f08c379a0000000000000000000000000000000000000000000000000000000008152600401611225906124db565b60405180910390fd5b8181035f808573ffffffffffffffffffffffffffffffffffffffff1673ffffffffffffffffffffffffffffffffffffffff1681526020019081526020015f20819055508160025f82825403925050819055505f73ffffffffffffffffffffffffffffffffffffffff168373ffffffffffffffffffffffffffffffffffffffff167fddf252ad1be2c89b69c2b068fc378daa952ba7f163c4a11628f55a4df523b3ef846040516112dd91906119f6565b60405180910390a36112f0835f84611450565b505050565b5f815f01549050919050565b606060ff5f1b831461131d57611316836114ea565b90506113a8565b81805461132990611dcd565b80601f016020809104026020016040519081016040528092919081815260200182805461135590611dcd565b80156113a05780601f10611377576101008083540402835291602001916113a0565b820191905f5260205f20905b81548152906001019060200180831161138357829003601f168201915b505050505090505b92915050565b5f8060075f8473ffffffffffffffffffffffffffffffffffffffff1673ffffffffffffffffffffffffffffffffffffffff1681526020019081526020015f2090506113f8816112f5565b91506114038161155c565b50919050565b5f61141b611415610f2e565b83611570565b9050919050565b5f805f611431878787876115b0565b9150915061143e81611688565b8192505050949350505050565b505050565b505050565b5f7f8b73c3c69bb8fe3d512ecc4cf759cc79239f7b179b0ffacaa9a75d522b39400f7f00000000000000000000000000000000000000000000000000000000000000007f000000000000000000000000000000000000000000000000000000000000000046306040516020016114cf9594939291906124f9565b60405160208183030381529060405280519060200120905090565b60605f6114f6836117ed565b90505f602067ffffffffffffffff81111561151457611513611e5d565b5b6040519080825280601f01601f1916602001820160405280156115465781602001600182028036833780820191505090505b5090508181528360208201528092505050919050565b6001815f015f828254019250508190555050565b5f6040517f190100000000000000000000000000000000000000000000000000000000000081528360028201528260228201526042812091505092915050565b5f807f7fffffffffffffffffffffffffffffff5d576e7357a4501ddfe92f46681b20a0835f1c11156115e8575f60039150915061167f565b5f6001878787876040515f815260200160405260405161160b949392919061254a565b6020604051602081039080840390855afa15801561162b573d5f803e3d5ffd5b5050506020604051035190505f73ffffffffffffffffffffffffffffffffffffffff168173ffffffffffffffffffffffffffffffffffffffff1603611677575f6001925092505061167f565b805f92509250505b94509492505050565b5f600481111561169b5761169a61258d565b5b8160048111156116ae576116ad61258d565b5b03156117ea57600160048111156116c8576116c761258d565b5b8160048111156116db576116da61258d565b5b0361171b576040517f08c379a000000000000000000000000000000000000000000000000000000000815260040161171290612604565b60405180910390fd5b6002600481111561172f5761172e61258d565b5b8160048111156117425761174161258d565b5b03611782576040517f08c379a00000000000000000000000000000000000000000000000000000000081526004016117799061266c565b60405180910390fd5b600360048111156117965761179561258d565b5b8160048111156117a9576117a861258d565b5b036117e9576040517f08c379a00000000000000000000000000000000000000000000000000000000081526004016117e0906126fa565b60405180910390fd5b5b50565b5f8060ff835f1c169050601f811115611832576040517fb3512b0c00000000000000000000000000000000000000000000000000000000815260040160405180910390fd5b80915050919050565b5f81519050919050565b5f82825260208201905092915050565b5f5b83811015611872578082015181840152602081019050611857565b5f8484015250505050565b5f601f19601f8301169050919050565b5f6118978261183b565b6118a18185611845565b93506118b1818560208601611855565b6118ba8161187d565b840191505092915050565b5f6020820190508181035f8301526118dd818461188d565b905092915050565b5f80fd5b5f73ffffffffffffffffffffffffffffffffffffffff82169050919050565b5f611912826118e9565b9050919050565b61192281611908565b811461192c575f80fd5b50565b5f8135905061193d81611919565b92915050565b5f819050919050565b61195581611943565b811461195f575f80fd5b50565b5f813590506119708161194c565b92915050565b5f806040838503121561198c5761198b6118e5565b5b5f6119998582860161192f565b92505060206119aa85828601611962565b9150509250929050565b5f8115159050919050565b6119c8816119b4565b82525050565b5f6020820190506119e15f8301846119bf565b92915050565b6119f081611943565b82525050565b5f602082019050611a095f8301846119e7565b92915050565b5f805f60608486031215611a2657611a256118e5565b5b5f611a338682870161192f565b9350506020611a448682870161192f565b9250506040611a5586828701611962565b9150509250925092565b5f60ff82169050919050565b611a7481611a5f565b82525050565b5f602082019050611a8d5f830184611a6b565b92915050565b5f819050919050565b611aa581611a93565b82525050565b5f602082019050611abe5f830184611a9c565b92915050565b5f60208284031215611ad957611ad86118e5565b5b5f611ae68482850161192f565b91505092915050565b5f7fff0000000000000000000000000000000000000000000000000000000000000082169050919050565b611b2381611aef565b82525050565b611b3281611908565b82525050565b5f81519050919050565b5f82825260208201905092915050565b5f819050602082019050919050565b611b6a81611943565b82525050565b5f611b7b8383611b61565b60208301905092915050565b5f602082019050919050565b5f611b9d82611b38565b611ba78185611b42565b9350611bb283611b52565b805f5b83811015611be2578151611bc98882611b70565b9750611bd483611b87565b925050600181019050611bb5565b5085935050505092915050565b5f60e082019050611c025f83018a611b1a565b8181036020830152611c14818961188d565b90508181036040830152611c28818861188d565b9050611c3760608301876119e7565b611c446080830186611b29565b611c5160a0830185611a9c565b81810360c0830152611c638184611b93565b905098975050505050505050565b611c7a81611a5f565b8114611c84575f80fd5b50565b5f81359050611c9581611c71565b92915050565b611ca481611a93565b8114611cae575f80fd5b50565b5f81359050611cbf81611c9b565b92915050565b5f805f805f805f60e0888a031215611ce057611cdf6118e5565b5b5f611ced8a828b0161192f565b9750506020611cfe8a828b0161192f565b9650506040611d0f8a828b01611962565b9550506060611d208a828b01611962565b9450506080611d318a828b01611c87565b93505060a0611d428a828b01611cb1565b92505060c0611d538a828b01611cb1565b91505092959891949750929550565b5f8060408385031215611d7857611d776118e5565b5b5f611d858582860161192f565b9250506020611d968582860161192f565b9150509250929050565b7f4e487b71000000000000000000000000000000000000000000000000000000005f52602260045260245ffd5b5f6002820490506001821680611de457607f821691505b602082108103611df757611df6611da0565b5b50919050565b7f4e487b71000000000000000000000000000000000000000000000000000000005f52601160045260245ffd5b5f611e3482611943565b9150611e3f83611943565b9250828201905080821115611e5757611e56611dfd565b5b92915050565b7f4e487b71000000000000000000000000000000000000000000000000000000005f52604160045260245ffd5b7f45524332303a2064656372656173656420616c6c6f77616e63652062656c6f775f8201527f207a65726f000000000000000000000000000000000000000000000000000000602082015250565b5f611ee4602583611845565b9150611eef82611e8a565b604082019050919050565b5f6020820190508181035f830152611f1181611ed8565b9050919050565b7f45524332305065726d69743a206578706972656420646561646c696e650000005f82015250565b5f611f4c601d83611845565b9150611f5782611f18565b602082019050919050565b5f6020820190508181035f830152611f7981611f40565b9050919050565b5f60c082019050611f935f830189611a9c565b611fa06020830188611b29565b611fad6040830187611b29565b611fba60608301866119e7565b611fc760808301856119e7565b611fd460a08301846119e7565b979650505050505050565b7f45524332305065726d69743a20696e76616c6964207369676e617475726500005f82015250565b5f612013601e83611845565b915061201e82611fdf565b602082019050919050565b5f6020820190508181035f83015261204081612007565b9050919050565b7f45524332303a20617070726f76652066726f6d20746865207a65726f206164645f8201527f7265737300000000000000000000000000000000000000000000000000000000602082015250565b5f6120a1602483611845565b91506120ac82612047565b604082019050919050565b5f6020820190508181035f8301526120ce81612095565b9050919050565b7f45524332303a20617070726f766520746f20746865207a65726f2061646472655f8201527f7373000000000000000000000000000000000000000000000000000000000000602082015250565b5f61212f602283611845565b915061213a826120d5565b604082019050919050565b5f6020820190508181035f83015261215c81612123565b9050919050565b7f45524332303a20696e73756666696369656e7420616c6c6f77616e63650000005f82015250565b5f612197601d83611845565b91506121a282612163565b602082019050919050565b5f6020820190508181035f8301526121c48161218b565b9050919050565b7f45524332303a207472616e736665722066726f6d20746865207a65726f2061645f8201527f6472657373000000000000000000000000000000000000000000000000000000602082015250565b5f612225602583611845565b9150612230826121cb565b604082019050919050565b5f6020820190508181035f83015261225281612219565b9050919050565b7f45524332303a207472616e7366657220746f20746865207a65726f20616464725f8201527f6573730000000000000000000000000000000000000000000000000000000000602082015250565b5f6122b3602383611845565b91506122be82612259565b604082019050919050565b5f6020820190508181035f8301526122e0816122a7565b9050919050565b7f45524332303a207472616e7366657220616d6f756e74206578636565647320625f8201527f616c616e63650000000000000000000000000000000000000000000000000000602082015250565b5f612341602683611845565b915061234c826122e7565b604082019050919050565b5f6020820190508181035f83015261236e81612335565b9050919050565b7f45524332303a206d696e7420746f20746865207a65726f2061646472657373005f82015250565b5f6123a9601f83611845565b91506123b482612375565b602082019050919050565b5f6020820190508181035f8301526123d68161239d565b9050919050565b7f45524332303a206275726e2066726f6d20746865207a65726f206164647265735f8201527f7300000000000000000000000000000000000000000000000000000000000000602082015250565b5f612437602183611845565b9150612442826123dd565b604082019050919050565b5f6020820190508181035f8301526124648161242b565b9050919050565b7f45524332303a206275726e20616d6f756e7420657863656564732062616c616e5f8201527f6365000000000000000000000000000000000000000000000000000000000000602082015250565b5f6124c5602283611845565b91506124d08261246b565b604082019050919050565b5f6020820190508181035f8301526124f2816124b9565b9050919050565b5f60a08201905061250c5f830188611a9c565b6125196020830187611a9c565b6125266040830186611a9c565b61253360608301856119e7565b6125406080830184611b29565b9695505050505050565b5f60808201905061255d5f830187611a9c565b61256a6020830186611a6b565b6125776040830185611a9c565b6125846060830184611a9c565b95945050505050565b7f4e487b71000000000000000000000000000000000000000000000000000000005f52602160045260245ffd5b7f45434453413a20696e76616c6964207369676e617475726500000000000000005f82015250565b5f6125ee601883611845565b91506125f9826125ba565b602082019050919050565b5f6020820190508181035f83015261261b816125e2565b9050919050565b7f45434453413a20696e76616c6964207369676e6174757265206c656e677468005f82015250565b5f612656601f83611845565b915061266182612622565b602082019050919050565b5f6020820190508181035f8301526126838161264a565b9050919050565b7f45434453413a20696e76616c6964207369676e6174757265202773272076616c5f8201527f7565000000000000000000000000000000000000000000000000000000000000602082015250565b5f6126e4602283611845565b91506126ef8261268a565b604082019050919050565b5f6020820190508181035f830152612711816126d8565b905091905056fea26469706673582212200ee0dd0caae584eee551fdfb646cd7bba3b218bfe0f2b6b0640703e9bd6c581164736f6c63430008150033","linkReferences":{}},"methodIdentifiers":{"DOMAIN_SEPARATOR()":"3644e515","allowance(address,address)":"dd62ed3e","approve(address,uint256)":"095ea7b3","balanceOf(address)":"70a08231","burnFrom(address,uint256)":"79cc6790","decimals()":"313ce567","decreaseAllowance(address,uint256)":"a457c2d7","eip712Domain()":"84b0196e","increaseAllowance(address,uint256)":"39509351","mint(address,uint256)":"40c10f19","name()":"06fdde03","nonces(address)":"7ecebe00","permit(address,address,uint256,uint256,uint8,bytes32,bytes32)":"d505accf","symbol()":"95d89b41","totalSupply()":"18160ddd","transfer(address,uint256)":"a9059cbb","transferFrom(address,address,uint256)":"23b872dd"},"id":60}