{"abi":[{"type":"constructor","inputs":[{"name":"_steth","type":"address","internalType":"contract ISTETH"},{"name":"_unsteth","type":"address","internalType":"contract IUNSTETH"},{"name":"diamondAddr","type":"address","internalType":"address"}],"stateMutability":"nonpayable"},{"type":"function","name":"deposit","inputs":[{"name":"from","type":"address","internalType":"address"},{"name":"amount","type":"uint256","internalType":"uint256"}],"outputs":[{"name":"","type":"uint256","internalType":"uint256"}],"stateMutability":"nonpayable"},{"type":"function","name":"depositEth","inputs":[],"outputs":[{"name":"","type":"uint256","internalType":"uint256"}],"stateMutability":"payable"},{"type":"function","name":"getBaseCollateral","inputs":[],"outputs":[{"name":"","type":"address","internalType":"address"}],"stateMutability":"view"},{"type":"function","name":"getDethValue","inputs":[],"outputs":[{"name":"","type":"uint256","internalType":"uint256"}],"stateMutability":"view"},{"type":"function","name":"getUnitDethValue","inputs":[],"outputs":[{"name":"","type":"uint256","internalType":"uint256"}],"stateMutability":"view"},{"type":"function","name":"onERC721Received","inputs":[{"name":"","type":"address","internalType":"address"},{"name":"","type":"address","internalType":"address"},{"name":"","type":"uint256","internalType":"uint256"},{"name":"","type":"bytes","internalType":"bytes"}],"outputs":[{"name":"","type":"bytes4","internalType":"bytes4"}],"stateMutability":"pure"},{"type":"function","name":"withdraw","inputs":[{"name":"to","type":"address","internalType":"address"},{"name":"amount","type":"uint256","internalType":"uint256"}],"outputs":[{"name":"","type":"uint256","internalType":"uint256"}],"stateMutability":"nonpayable"},{"type":"error","name":"NetBalanceZero","inputs":[]},{"type":"error","name":"NotDiamond","inputs":[]}],"bytecode":{"object":"0x60e060405234801562000010575f80fd5b50604051620010ba380380620010ba83398181016040528101906200003691906200027c565b8273ffffffffffffffffffffffffffffffffffffffff1660808173ffffffffffffffffffffffffffffffffffffffff16815250508173ffffffffffffffffffffffffffffffffffffffff1660a08173ffffffffffffffffffffffffffffffffffffffff16815250508073ffffffffffffffffffffffffffffffffffffffff1660c08173ffffffffffffffffffffffffffffffffffffffff168152505060805173ffffffffffffffffffffffffffffffffffffffff1663095ea7b360a0517fffffffffffffffffffffffffffffffffffffffffffffffffffffffffffffffff6040518363ffffffff1660e01b81526004016200013392919062000339565b6020604051808303815f875af115801562000150573d5f803e3d5ffd5b505050506040513d601f19601f820116820180604052508101906200017691906200039e565b50505050620003ce565b5f80fd5b5f73ffffffffffffffffffffffffffffffffffffffff82169050919050565b5f620001af8262000184565b9050919050565b5f620001c282620001a3565b9050919050565b620001d481620001b6565b8114620001df575f80fd5b50565b5f81519050620001f281620001c9565b92915050565b5f620002048262000184565b9050919050565b5f6200021782620001f8565b9050919050565b62000229816200020b565b811462000234575f80fd5b50565b5f8151905062000247816200021e565b92915050565b6200025881620001a3565b811462000263575f80fd5b50565b5f8151905062000276816200024d565b92915050565b5f805f6060848603121562000296576200029562000180565b5b5f620002a586828701620001e2565b9350506020620002b88682870162000237565b9250506040620002cb8682870162000266565b9150509250925092565b620002e081620001a3565b82525050565b5f819050919050565b5f819050919050565b5f819050919050565b5f620003216200031b6200031584620002e6565b620002f8565b620002ef565b9050919050565b620003338162000301565b82525050565b5f6040820190506200034e5f830185620002d5565b6200035d602083018462000328565b9392505050565b5f8115159050919050565b6200037a8162000364565b811462000385575f80fd5b50565b5f8151905062000398816200036f565b92915050565b5f60208284031215620003b657620003b562000180565b5b5f620003c58482850162000388565b91505092915050565b60805160a05160c051610c85620004355f395f81816102780152818161051c015261071601525f50505f81816101da015281816102fe0152818161039801528181610436015281816105a10152818161064901528181610670015261079b0152610c855ff3fe60806040526004361061006f575f3560e01c806347e7ef241161004d57806347e7ef24146100f757806370b72944146101335780638a9f6a261461015d578063f3fef3a3146101875761006f565b8063150b7a02146100735780631e70f195146100af578063439370b1146100d9575b5f80fd5b34801561007e575f80fd5b5061009960048036038101906100949190610934565b6101c3565b6040516100a691906109f2565b60405180910390f35b3480156100ba575f80fd5b506100c36101d7565b6040516100d09190610a1a565b60405180910390f35b6100e1610275565b6040516100ee9190610a1a565b60405180910390f35b348015610102575f80fd5b5061011d60048036038101906101189190610a33565b610519565b60405161012a9190610a1a565b60405180910390f35b34801561013e575f80fd5b50610147610646565b6040516101549190610a80565b60405180910390f35b348015610168575f80fd5b5061017161066d565b60405161017e9190610a1a565b60405180910390f35b348015610192575f80fd5b506101ad60048036038101906101a89190610a33565b610713565b6040516101ba9190610a1a565b60405180910390f35b5f63150b7a0260e01b905095945050505050565b5f7f000000000000000000000000000000000000000000000000000000000000000073ffffffffffffffffffffffffffffffffffffffff166370a08231306040518263ffffffff1660e01b81526004016102319190610a80565b602060405180830381865afa15801561024c573d5f803e3d5ffd5b505050506040513d601f19601f820116820180604052508101906102709190610aad565b905090565b5f7f000000000000000000000000000000000000000000000000000000000000000073ffffffffffffffffffffffffffffffffffffffff163373ffffffffffffffffffffffffffffffffffffffff16146102fb576040517fd04b63aa00000000000000000000000000000000000000000000000000000000815260040160405180910390fd5b5f7f000000000000000000000000000000000000000000000000000000000000000073ffffffffffffffffffffffffffffffffffffffff166370a08231306040518263ffffffff1660e01b81526004016103559190610a80565b602060405180830381865afa158015610370573d5f803e3d5ffd5b505050506040513d601f19601f820116820180604052508101906103949190610aad565b90507f000000000000000000000000000000000000000000000000000000000000000073ffffffffffffffffffffffffffffffffffffffff1663a1903eab345f6040518363ffffffff1660e01b81526004016103f09190610a80565b60206040518083038185885af115801561040c573d5f803e3d5ffd5b50505050506040513d601f19601f820116820180604052508101906104319190610aad565b505f817f000000000000000000000000000000000000000000000000000000000000000073ffffffffffffffffffffffffffffffffffffffff166370a08231306040518263ffffffff1660e01b815260040161048d9190610a80565b602060405180830381865afa1580156104a8573d5f803e3d5ffd5b505050506040513d601f19601f820116820180604052508101906104cc9190610aad565b6104d69190610b05565b90505f8103610511576040517f9d5710a400000000000000000000000000000000000000000000000000000000815260040160405180910390fd5b809250505090565b5f7f000000000000000000000000000000000000000000000000000000000000000073ffffffffffffffffffffffffffffffffffffffff163373ffffffffffffffffffffffffffffffffffffffff161461059f576040517fd04b63aa00000000000000000000000000000000000000000000000000000000815260040160405180910390fd5b7f000000000000000000000000000000000000000000000000000000000000000073ffffffffffffffffffffffffffffffffffffffff166323b872dd8430856040518463ffffffff1660e01b81526004016105fc93929190610b38565b6020604051808303815f875af1158015610618573d5f803e3d5ffd5b505050506040513d601f19601f8201168201806040525081019061063c9190610ba2565b5081905092915050565b5f7f0000000000000000000000000000000000000000000000000000000000000000905090565b5f7f000000000000000000000000000000000000000000000000000000000000000073ffffffffffffffffffffffffffffffffffffffff16637a28fb88670de0b6b3a76400006040518263ffffffff1660e01b81526004016106cf9190610c0f565b602060405180830381865afa1580156106ea573d5f803e3d5ffd5b505050506040513d601f19601f8201168201806040525081019061070e9190610aad565b905090565b5f7f000000000000000000000000000000000000000000000000000000000000000073ffffffffffffffffffffffffffffffffffffffff163373ffffffffffffffffffffffffffffffffffffffff1614610799576040517fd04b63aa00000000000000000000000000000000000000000000000000000000815260040160405180910390fd5b7f000000000000000000000000000000000000000000000000000000000000000073ffffffffffffffffffffffffffffffffffffffff1663a9059cbb84846040518363ffffffff1660e01b81526004016107f4929190610c28565b6020604051808303815f875af1158015610810573d5f803e3d5ffd5b505050506040513d601f19601f820116820180604052508101906108349190610ba2565b5081905092915050565b5f80fd5b5f80fd5b5f73ffffffffffffffffffffffffffffffffffffffff82169050919050565b5f61086f82610846565b9050919050565b61087f81610865565b8114610889575f80fd5b50565b5f8135905061089a81610876565b92915050565b5f819050919050565b6108b2816108a0565b81146108bc575f80fd5b50565b5f813590506108cd816108a9565b92915050565b5f80fd5b5f80fd5b5f80fd5b5f8083601f8401126108f4576108f36108d3565b5b8235905067ffffffffffffffff811115610911576109106108d7565b5b60208301915083600182028301111561092d5761092c6108db565b5b9250929050565b5f805f805f6080868803121561094d5761094c61083e565b5b5f61095a8882890161088c565b955050602061096b8882890161088c565b945050604061097c888289016108bf565b935050606086013567ffffffffffffffff81111561099d5761099c610842565b5b6109a9888289016108df565b92509250509295509295909350565b5f7fffffffff0000000000000000000000000000000000000000000000000000000082169050919050565b6109ec816109b8565b82525050565b5f602082019050610a055f8301846109e3565b92915050565b610a14816108a0565b82525050565b5f602082019050610a2d5f830184610a0b565b92915050565b5f8060408385031215610a4957610a4861083e565b5b5f610a568582860161088c565b9250506020610a67858286016108bf565b9150509250929050565b610a7a81610865565b82525050565b5f602082019050610a935f830184610a71565b92915050565b5f81519050610aa7816108a9565b92915050565b5f60208284031215610ac257610ac161083e565b5b5f610acf84828501610a99565b91505092915050565b7f4e487b71000000000000000000000000000000000000000000000000000000005f52601160045260245ffd5b5f610b0f826108a0565b9150610b1a836108a0565b9250828203905081811115610b3257610b31610ad8565b5b92915050565b5f606082019050610b4b5f830186610a71565b610b586020830185610a71565b610b656040830184610a0b565b949350505050565b5f8115159050919050565b610b8181610b6d565b8114610b8b575f80fd5b50565b5f81519050610b9c81610b78565b92915050565b5f60208284031215610bb757610bb661083e565b5b5f610bc484828501610b8e565b91505092915050565b5f819050919050565b5f819050919050565b5f610bf9610bf4610bef84610bcd565b610bd6565b6108a0565b9050919050565b610c0981610bdf565b82525050565b5f602082019050610c225f830184610c00565b92915050565b5f604082019050610c3b5f830185610a71565b610c486020830184610a0b565b939250505056fea2646970667358221220e284d432594bb206a0fb6e77c8e14624342129e77227babeb7cdcaba9389a73764736f6c63430008150033","linkReferences":{}},"methodIdentifiers":{"deposit(address,uint256)":"47e7ef24","depositEth()":"439370b1","getBaseCollateral()":"70b72944","getDethValue()":"1e70f195","getUnitDethValue()":"8a9f6a26","onERC721Received(address,address,uint256,bytes)":"150b7a02","withdraw(address,uint256)":"f3fef3a3"},"id":3}