{"abi":[{"type":"function","name":"createLimitShort","inputs":[{"name":"asset","type":"address","internalType":"address"},{"name":"price","type":"uint80","internalType":"uint80"},{"name":"ercAmount","type":"uint88","internalType":"uint88"},{"name":"orderHintArray","type":"tuple[]","internalType":"struct MTypes.OrderHint[]","components":[{"name":"hintId","type":"uint16","internalType":"uint16"},{"name":"creationTime","type":"uint256","internalType":"uint256"}]},{"name":"shortHintArray","type":"uint16[]","internalType":"uint16[]"},{"name":"shortOrderCR","type":"uint16","internalType":"uint16"}],"outputs":[],"stateMutability":"nonpayable"},{"type":"event","name":"CancelOrder","inputs":[{"name":"asset","type":"address","indexed":true,"internalType":"address"},{"name":"orderId","type":"uint16","indexed":false,"internalType":"uint16"},{"name":"orderType","type":"uint8","indexed":true,"internalType":"enum O"}],"anonymous":false},{"type":"event","name":"CreateOrder","inputs":[{"name":"asset","type":"address","indexed":true,"internalType":"address"},{"name":"user","type":"address","indexed":true,"internalType":"address"},{"name":"orderType","type":"uint8","indexed":true,"internalType":"enum O"},{"name":"orderId","type":"uint16","indexed":false,"internalType":"uint16"},{"name":"ercAmount","type":"uint88","indexed":false,"internalType":"uint88"}],"anonymous":false},{"type":"event","name":"CreateShortRecord","inputs":[{"name":"asset","type":"address","indexed":true,"internalType":"address"},{"name":"user","type":"address","indexed":true,"internalType":"address"},{"name":"srId","type":"uint16","indexed":false,"internalType":"uint16"}],"anonymous":false},{"type":"event","name":"MatchOrder","inputs":[{"name":"asset","type":"address","indexed":true,"internalType":"address"},{"name":"user","type":"address","indexed":true,"internalType":"address"},{"name":"orderType","type":"uint8","indexed":true,"internalType":"enum O"},{"name":"orderId","type":"uint16","indexed":false,"internalType":"uint16"},{"name":"fillEth","type":"uint88","indexed":false,"internalType":"uint88"},{"name":"fillErc","type":"uint88","indexed":false,"internalType":"uint88"}],"anonymous":false},{"type":"error","name":"AssetIsFrozen","inputs":[]},{"type":"error","name":"BadHintIdArray","inputs":[]},{"type":"error","name":"BadShortHint","inputs":[]},{"type":"error","name":"BelowRecoveryModeCR","inputs":[]},{"type":"error","name":"CannotMakeMoreThanMaxSR","inputs":[]},{"type":"error","name":"InsufficientETHEscrowed","inputs":[]},{"type":"error","name":"InsufficientEthInLiquidityPool","inputs":[]},{"type":"error","name":"InvalidAmount","inputs":[]},{"type":"error","name":"InvalidAsset","inputs":[]},{"type":"error","name":"InvalidCR","inputs":[]},{"type":"error","name":"InvalidPrice","inputs":[]},{"type":"error","name":"InvalidTokenId","inputs":[]},{"type":"error","name":"InvalidTwapPrice","inputs":[]},{"type":"error","name":"NotActiveOrder","inputs":[]},{"type":"error","name":"OrderUnderMinimumSize","inputs":[]},{"type":"error","name":"PRBMath_MulDiv18_Overflow","inputs":[{"name":"x","type":"uint256","internalType":"uint256"},{"name":"y","type":"uint256","internalType":"uint256"}]},{"type":"error","name":"PRBMath_MulDiv_Overflow","inputs":[{"name":"x","type":"uint256","internalType":"uint256"},{"name":"y","type":"uint256","internalType":"uint256"},{"name":"denominator","type":"uint256","internalType":"uint256"}]},{"type":"error","name":"ReentrantCall","inputs":[]}],"bytecode":{"object":"0x608060405234801561000f575f80fd5b50617790806200001e5f395ff3fe608060405234801561000f575f80fd5b5060043610610029575f3560e01c8063f23811cc1461002d575b5f80fd5b61004760048036038101906100429190616e86565b610049565b005b855f600181111561005d5761005c616f47565b5b5f6008015f8373ffffffffffffffffffffffffffffffffffffffff1673ffffffffffffffffffffffffffffffffffffffff1681526020019081526020015f205f01601e9054906101000a900460ff1660018111156100be576100bd616f47565b5b146100f5576040517f0e27a3f700000000000000000000000000000000000000000000000000000000815260040160405180910390fd5b865f806008015f8373ffffffffffffffffffffffffffffffffffffffff1673ffffffffffffffffffffffffffffffffffffffff1681526020019081526020015f205f01601f9054906101000a900460ff1660ff1603610180576040517fc891add200000000000000000000000000000000000000000000000000000000815260040160405180910390fd5b600260ff165f600201601c9054906101000a900460ff1660ff16036101d1576040517f37ed32e800000000000000000000000000000000000000000000000000000000815260040160405180910390fd5b60025f600201601c6101000a81548160ff021916908360ff1602179055506101f7616900565b5f806008015f8b73ffffffffffffffffffffffffffffffffffffffff1673ffffffffffffffffffffffffffffffffffffffff1681526020019081526020015f20905061024161694a565b6102528b3360025f805f805f610812565b81610140019060ff16908160ff16815250505f61026e87610bcf565b9050825f01601c9054906101000a900461ffff1661ffff16606460ff16886102969190616fa1565b61ffff1610806102c15750670de0b6b3a764000067d02ab486cedc00006102bd9190616fd6565b8110155b156102f8576040517fc2f36fec00000000000000000000000000000000000000000000000000000000815260040160405180910390fd5b670de0b6b3a76400008110610315576103108c610bfb565b61034c565b61034b61032182610c77565b670de0b6b3a76400006103349190617009565b61033d8e610bfb565b610c9f90919063ffffffff16565b5b8460400181815250506103818a6affffffffffffffffffffff168c69ffffffffffffffffffff16610cb290919063ffffffff16565b8460200181815250506103938c610cd1565b84606001818152505083604001518a6affffffffffffffffffffff1610806103c2575083606001518460200151105b156103f9576040517faacd1fa000000000000000000000000000000000000000000000000000000000815260040160405180910390fd5b610410818560200151610c9f90919063ffffffff16565b5f6007015f855f01601f9054906101000a900460ff1660ff1681526020019081526020015f205f3373ffffffffffffffffffffffffffffffffffffffff1673ffffffffffffffffffffffffffffffffffffffff1681526020019081526020015f205f015f9054906101000a90046affffffffffffffffffffff166affffffffffffffffffffff1610156104cf576040517f7d243a2c00000000000000000000000000000000000000000000000000000000815260040160405180910390fd5b338260e0019073ffffffffffffffffffffffffffffffffffffffff16908173ffffffffffffffffffffffffffffffffffffffff16815250508a826020019069ffffffffffffffffffff16908169ffffffffffffffffffff168152505089825f01906affffffffffffffffffffff1690816affffffffffffffffffffff1681525050825f01601a9054906101000a900461ffff16826060019061ffff16908161ffff168152505060058260a00190600781111561058e5761058d616f47565b5b908160078111156105a2576105a1616f47565b5b815250506105ae610d57565b8260c0019063ffffffff16908163ffffffff16815250508682610120019061ffff16908161ffff16815250505f600a015f8d73ffffffffffffffffffffffffffffffffffffffff1673ffffffffffffffffffffffffffffffffffffffff1681526020019081526020015f205f600160ff1661ffff1681526020019081526020015f205f0160199054906101000a900461ffff16846080019061ffff16908161ffff16815250505f80600a015f8e73ffffffffffffffffffffffffffffffffffffffff1673ffffffffffffffffffffffffffffffffffffffff1681526020019081526020015f205f866080015161ffff1661ffff1681526020019081526020015f209050826020015169ffffffffffffffffffff16815f01600b9054906101000a900469ffffffffffffffffffff1669ffffffffffffffffffff161015801561072a57506001600781111561070557610704616f47565b5b815f01601b9054906101000a900460ff16600781111561072857610727616f47565b5b145b156107505761074f8d61073c8f610d6d565b69ffffffffffffffffffff16858c610df0565b5b6107598d610e98565b8560a00181815250506107718d838760a00151610ef0565b156107a8576040517ffe983b6700000000000000000000000000000000000000000000000000000000815260040160405180910390fd5b8460a00151836020015169ffffffffffffffffffff1610156107d4576107cf8d848c611020565b6107e5565b6107e48d848c88606001516112d6565b5b505050505060015f600201601c6101000a81548160ff021916908360ff1602179055505050505050505050565b5f8061081c611b4f565b905064ffffffffff80168364ffffffffff161115610866576040517f3f6cc76800000000000000000000000000000000000000000000000000000000815260040160405180910390fd5b5f6108718b8b611b53565b8092508194505050604051806101400160405280896affffffffffffffffffffff168152602001886affffffffffffffffffffff1681526020018669ffffffffffffffffffff1681526020018a60028111156108d0576108cf616f47565b5b8152602001600160ff1681526020018460ff1681526020018260ff1681526020018767ffffffffffffffff168152602001610909610d57565b63ffffffff1681526020018564ffffffffff1681525082600d015f8d73ffffffffffffffffffffffffffffffffffffffff1673ffffffffffffffffffffffffffffffffffffffff1681526020019081526020015f205f8c73ffffffffffffffffffffffffffffffffffffffff1673ffffffffffffffffffffffffffffffffffffffff1681526020019081526020015f205f8560ff1660ff1681526020019081526020015f205f820151815f015f6101000a8154816affffffffffffffffffffff02191690836affffffffffffffffffffff1602179055506020820151815f01600b6101000a8154816affffffffffffffffffffff02191690836affffffffffffffffffffff1602179055506040820151815f0160166101000a81548169ffffffffffffffffffff021916908369ffffffffffffffffffff1602179055506060820151816001015f6101000a81548160ff02191690836002811115610a7057610a6f616f47565b5b021790555060808201518160010160016101000a81548160ff021916908360ff16021790555060a08201518160010160026101000a81548160ff021916908360ff16021790555060c08201518160010160036101000a81548160ff021916908360ff16021790555060e08201518160010160046101000a81548167ffffffffffffffff021916908367ffffffffffffffff16021790555061010082015181600101600c6101000a81548163ffffffff021916908363ffffffff1602179055506101208201518160010160106101000a81548164ffffffffff021916908364ffffffffff1602179055509050508973ffffffffffffffffffffffffffffffffffffffff168b73ffffffffffffffffffffffffffffffffffffffff167f098ddd45c8c2cfd19dab7bc996da0fe871e07f039af4def6686bb3115d87e42885604051610bb99190617081565b60405180910390a3505098975050505050505050565b5f6064670de0b6b3a76400008361ffff16610bea919061709a565b610bf49190617108565b9050919050565b5f80610c05611b4f565b9050670de0b6b3a7640000816008015f8573ffffffffffffffffffffffffffffffffffffffff1673ffffffffffffffffffffffffffffffffffffffff1681526020019081526020015f2060010160029054906101000a900461ffff1661ffff16610c6f919061709a565b915050919050565b5f816ec097ce7bc90715b34b9f100000000081610c9757610c966170db565b5b049050919050565b5f610caa8383611f8d565b905092915050565b5f610cc98369ffffffffffffffffffff1683611f8d565b905092915050565b5f80610cdb611b4f565b90506064670de0b6b3a7640000826008015f8673ffffffffffffffffffffffffffffffffffffffff1673ffffffffffffffffffffffffffffffffffffffff1681526020019081526020015f2060010160019054906101000a900460ff1660ff16610d45919061709a565b610d4f9190617108565b915050919050565b5f6362f6fc6542610d689190616fd6565b905090565b5f80610d77611b4f565b905080600a015f8473ffffffffffffffffffffffffffffffffffffffff1673ffffffffffffffffffffffffffffffffffffffff1681526020019081526020015f205f600160ff1661ffff1681526020019081526020015f205f015f9054906101000a90046affffffffffffffffffffff16915050919050565b5f83836020015169ffffffffffffffffffff1610610e46576611c37937e08000610e3e8586866020015169ffffffffffffffffffff16610e309190616fd6565b61207290919063ffffffff16565b119050610e80565b6611c37937e08000610e7c85856020015169ffffffffffffffffffff1687610e6e9190616fd6565b61207290919063ffffffff16565b1190505b8015610e9157610e90858361208e565b5b5050505050565b5f610384610ea583612563565b610ead610d57565b63ffffffff16610ebd9190616fd6565b1015610edf57610ecc82610d6d565b69ffffffffffffffffffff169050610eeb565b610ee8826125e6565b90505b919050565b5f80610efa611b4f565b90505f610f06866129f0565b905080851015611016575f826008015f8873ffffffffffffffffffffffffffffffffffffffff1673ffffffffffffffffffffffffffffffffffffffff1681526020019081526020015f2090505f815f015f9054906101000a90046cffffffffffffffffffffffffff166cffffffffffffffffffffffffff161115611014575f610ffb610fc5835f015f9054906101000a90046cffffffffffffffffffffffffff166cffffffffffffffffffffffffff1688610c9f90919063ffffffff16565b835f01600d9054906101000a90046affffffffffffffffffffff166affffffffffffffffffffff16612a7690919063ffffffff16565b905082811015611012576001945050505050611019565b505b505b50505b9392505050565b5f611029611b4f565b90505f8082600c015f8773ffffffffffffffffffffffffffffffffffffffff1673ffffffffffffffffffffffffffffffffffffffff1681526020019081526020015f205f600160ff1661ffff1681526020019081526020015f205f0160199054906101000a900461ffff16905082600c015f8773ffffffffffffffffffffffffffffffffffffffff1673ffffffffffffffffffffffffffffffffffffffff1681526020019081526020015f205f8261ffff1661ffff1681526020019081526020015f205f01600b9054906101000a900469ffffffffffffffffffff1669ffffffffffffffffffff16856020015169ffffffffffffffffffff1610806111355750600160ff168161ffff16145b1561114657600160ff169150611157565b61115483600c018786612a9f565b91505b61116683600c01878785612c7e565b611170868661341c565b5f836008015f8873ffffffffffffffffffffffffffffffffffffffff1673ffffffffffffffffffffffffffffffffffffffff1681526020019081526020015f205f01601f9054906101000a900460ff1660ff1690505f6112256111d7886101200151610bcf565b61120a896020015169ffffffffffffffffffff168a5f01516affffffffffffffffffffff1661364d90919063ffffffff16565b6affffffffffffffffffffff1661364d90919063ffffffff16565b905080856007015f8481526020019081526020015f205f8960e0015173ffffffffffffffffffffffffffffffffffffffff1673ffffffffffffffffffffffffffffffffffffffff1681526020019081526020015f205f015f8282829054906101000a90046affffffffffffffffffffff166112a09190617138565b92506101000a8154816affffffffffffffffffffff02191690836affffffffffffffffffffff1602179055505050505050505050565b5f6112df611b4f565b90505f81600a015f8773ffffffffffffffffffffffffffffffffffffffff1673ffffffffffffffffffffffffffffffffffffffff1681526020019081526020015f205f600160ff1661ffff1681526020019081526020015f205f0160199054906101000a900461ffff16905081600a015f8773ffffffffffffffffffffffffffffffffffffffff1673ffffffffffffffffffffffffffffffffffffffff1681526020019081526020015f205f8261ffff1661ffff1681526020019081526020015f205f01600b9054906101000a900469ffffffffffffffffffff1669ffffffffffffffffffff16856020015169ffffffffffffffffffff1611156114295782611411866020015169ffffffffffffffffffff16875f01516affffffffffffffffffffff166136b990919063ffffffff16565b10611422576114218587866136d9565b5b5050611b49565b611431616a15565b5b600115611b45575f83600a015f8973ffffffffffffffffffffffffffffffffffffffff1673ffffffffffffffffffffffffffffffffffffffff1681526020019081526020015f205f8461ffff1661ffff1681526020019081526020015f20604051806101800160405290815f82015f9054906101000a90046affffffffffffffffffffff166affffffffffffffffffffff166affffffffffffffffffffff1681526020015f8201600b9054906101000a900469ffffffffffffffffffff1669ffffffffffffffffffff1669ffffffffffffffffffff1681526020015f820160159054906101000a900461ffff1661ffff1661ffff1681526020015f820160179054906101000a900461ffff1661ffff1661ffff1681526020015f820160199054906101000a900461ffff1661ffff1661ffff1681526020015f8201601b9054906101000a900460ff16600781111561158d5761158c616f47565b5b600781111561159f5761159e616f47565b5b81526020015f8201601c9054906101000a900463ffffffff1663ffffffff1663ffffffff168152602001600182015f9054906101000a900473ffffffffffffffffffffffffffffffffffffffff1673ffffffffffffffffffffffffffffffffffffffff1673ffffffffffffffffffffffffffffffffffffffff1681526020016001820160149054906101000a900460ff16600781111561164257611641616f47565b5b600781111561165457611653616f47565b5b81526020016001820160159054906101000a900461ffff1661ffff1661ffff1681526020016001820160179054906101000a900460ff1660ff1660ff1681526020016001820160189054906101000a900467ffffffffffffffff1667ffffffffffffffff1667ffffffffffffffff16815250509050806020015169ffffffffffffffffffff16876020015169ffffffffffffffffffff1611611ad3575f611724826020015169ffffffffffffffffffff16895f01516affffffffffffffffffffff166136b990919063ffffffff16565b036117755761173c84600a018983606001515f613764565b5f875f01906affffffffffffffffffffff1690816affffffffffffffffffffff168152505061176c88888461386a565b50505050611b49565b61178187828a85613992565b805f01516affffffffffffffffffffff16875f01516affffffffffffffffffffff16111561190257805f0151875f018181516117bd9190617138565b9150906affffffffffffffffffffff1690816affffffffffffffffffffff16815250505f815f01906affffffffffffffffffffff1690816affffffffffffffffffffff168152505061181784600a01898360600151613c53565b80608001519250600160ff168361ffff16036118fd5761183888888461386a565b8461186c886020015169ffffffffffffffffffff16895f01516affffffffffffffffffffff166136b990919063ffffffff16565b1061187d5761187c8789886136d9565b5b600160ff1684600a015f8a73ffffffffffffffffffffffffffffffffffffffff1673ffffffffffffffffffffffffffffffffffffffff1681526020019081526020015f205f600160ff1661ffff1681526020019081526020015f205f0160196101000a81548161ffff021916908361ffff16021790555050505050611b49565b611ace565b805f01516affffffffffffffffffffff16875f01516affffffffffffffffffffff16036119545761193b84600a01898360600151613c53565b61194f84600a018983606001516001613764565b611a95565b865f0151815f018181516119689190617138565b9150906affffffffffffffffffffff1690816affffffffffffffffffffff1681525050805f015184600a015f8a73ffffffffffffffffffffffffffffffffffffffff1673ffffffffffffffffffffffffffffffffffffffff1681526020019081526020015f205f836060015161ffff1661ffff1681526020019081526020015f205f015f6101000a8154816affffffffffffffffffffff02191690836affffffffffffffffffffff160217905550611a2984600a018983606001515f613764565b611a4c6706f05b59d3b20000611a3e8a613cce565b610c9f90919063ffffffff16565b611a7f826020015169ffffffffffffffffffff16835f01516affffffffffffffffffffff166136b990919063ffffffff16565b1015611a9457611a93888260600151613d53565b5b5b5f875f01906affffffffffffffffffffff1690816affffffffffffffffffffff1681525050611ac588888461386a565b50505050611b49565b611b3f565b611ae684600a018983606001515f613764565b611af188888461386a565b84611b25886020015169ffffffffffffffffffff16895f01516affffffffffffffffffffff166136b990919063ffffffff16565b10611b3657611b358789886136d9565b5b50505050611b49565b50611432565b5050505b50505050565b5f90565b5f805f611b5e611b4f565b90505f81600d015f8773ffffffffffffffffffffffffffffffffffffffff1673ffffffffffffffffffffffffffffffffffffffff1681526020019081526020015f205f8673ffffffffffffffffffffffffffffffffffffffff1673ffffffffffffffffffffffffffffffffffffffff1681526020019081526020015f205f600160ff1660ff1681526020019081526020015f2090505f826009015f8873ffffffffffffffffffffffffffffffffffffffff1673ffffffffffffffffffffffffffffffffffffffff1681526020019081526020015f205f8773ffffffffffffffffffffffffffffffffffffffff1673ffffffffffffffffffffffffffffffffffffffff1681526020019081526020015f2090505f815f0160149054906101000a900460ff1660ff1603611ce4576002815f0160146101000a81548160ff021916908360ff16021790555060018260010160016101000a81548160ff021916908360ff16021790555060018260010160036101000a81548160ff021916908360ff1602179055505b8160010160039054906101000a900460ff1693505f8260010160019054906101000a900460ff169050600160ff168160ff161115611e18575f84600d015f8a73ffffffffffffffffffffffffffffffffffffffff1673ffffffffffffffffffffffffffffffffffffffff1681526020019081526020015f205f8973ffffffffffffffffffffffffffffffffffffffff1673ffffffffffffffffffffffffffffffffffffffff1681526020019081526020015f205f8360ff1660ff1681526020019081526020015f2060010160019054906101000a900460ff169050600160ff168160ff161115611df057808460010160016101000a81548160ff021916908360ff160217905550611e0f565b60018460010160016101000a81548160ff021916908360ff1602179055505b81965050611eaa565b815f0160149054906101000a900460ff16955060fe60ff168660ff161015611e77576001825f0160148282829054906101000a900460ff16611e5a9190617176565b92506101000a81548160ff021916908360ff160217905550611ea9565b6040517f9794d3a200000000000000000000000000000000000000000000000000000000815260040160405180910390fd5b5b600160ff168560ff161115611f65578584600d015f8a73ffffffffffffffffffffffffffffffffffffffff1673ffffffffffffffffffffffffffffffffffffffff1681526020019081526020015f205f8973ffffffffffffffffffffffffffffffffffffffff1673ffffffffffffffffffffffffffffffffffffffff1681526020019081526020015f205f8760ff1660ff1681526020019081526020015f2060010160016101000a81548160ff021916908360ff1602179055505b858360010160036101000a81548160ff021916908360ff160217905550505050509250929050565b5f805f80198486098486029250828110838203039150505f8103611fcd57670de0b6b3a76400008281611fc357611fc26170db565b5b049250505061206c565b670de0b6b3a7640000811061201b5784846040517f5173648d0000000000000000000000000000000000000000000000000000000081526004016120129291906171b9565b60405180910390fd5b5f670de0b6b3a764000085870990507faccb18165bd6fe31ae1cf318dc5b51eee0e1ba569b88cd74c1773b91fac10669600162040000805f0304018483118403026204000083860304170293505050505b92915050565b5f61208683670de0b6b3a764000084613fe9565b905092915050565b5f612097611b4f565b90505f6120a3846125e6565b90505f6120c58573ffffffffffffffffffffffffffffffffffffffff16610d6d565b69ffffffffffffffffffff169050612105826120df610d57565b8773ffffffffffffffffffffffffffffffffffffffff166140fb9092919063ffffffff16565b8082036121145750505061255f565b5f836008015f8773ffffffffffffffffffffffffffffffffffffffff1673ffffffffffffffffffffffffffffffffffffffff1681526020019081526020015f2090505f600160ff1685600c015f8973ffffffffffffffffffffffffffffffffffffffff1673ffffffffffffffffffffffffffffffffffffffff1681526020019081526020015f205f600160ff1661ffff1681526020019081526020015f205f0160199054906101000a900461ffff1661ffff1614905080156121f757600160ff16825f0160186101000a81548161ffff021916908361ffff160217905550612559565b5f805f90505b875181101561252657878181518110612219576122186171e0565b5b602002602001015191508060010190505f87600c015f8b73ffffffffffffffffffffffffffffffffffffffff1673ffffffffffffffffffffffffffffffffffffffff1681526020019081526020015f205f8461ffff1661ffff1681526020019081526020015f2090505f815f01601b9054906101000a900460ff169050600660078111156122aa576122a9616f47565b5b8160078111156122bd576122bc616f47565b5b14806122ec57506007808111156122d7576122d6616f47565b5b8160078111156122ea576122e9616f47565b5b145b8061231a57505f600781111561230557612304616f47565b5b81600781111561231857612317616f47565b5b145b15612326575050612521565b505f815f01600b9054906101000a900469ffffffffffffffffffff1690505f825f0160159054906101000a900461ffff1690505f8a600c015f8e73ffffffffffffffffffffffffffffffffffffffff1673ffffffffffffffffffffffffffffffffffffffff1681526020019081526020015f205f8361ffff1661ffff1681526020019081526020015f205f01600b9054906101000a900469ffffffffffffffffffff1690505f6123e7670df27a2cdf4480008c610c9f90919063ffffffff16565b8469ffffffffffffffffffff161115801561240e57508a8269ffffffffffffffffffff1610155b90505f8b8569ffffffffffffffffffff161015801561243857508b8369ffffffffffffffffffff16105b90505f8c8669ffffffffffffffffffff1610801561246e5750600160ff16875f0160199054906101000a900461ffff1661ffff16145b905081156124a757888b5f0160186101000a81548161ffff021916908361ffff160217905550505050505050505050505050505061255f565b82156124de57848b5f0160186101000a81548161ffff021916908361ffff160217905550505050505050505050505050505061255f565b801561251957600160ff168b5f0160186101000a81548161ffff021916908361ffff160217905550505050505050505050505050505061255f565b505050505050505b6121fd565b506040517f053c10c300000000000000000000000000000000000000000000000000000000815260040160405180910390fd5b50505050505b5050565b5f8061256d611b4f565b905080600a015f8473ffffffffffffffffffffffffffffffffffffffff1673ffffffffffffffffffffffffffffffffffffffff1681526020019081526020015f205f600160ff1661ffff1681526020019081526020015f205f01601c9054906101000a900463ffffffff1663ffffffff16915050919050565b5f806125f0611b4f565b90505f816002015f9054906101000a900473ffffffffffffffffffffffffffffffffffffffff1690505f61262385610d6d565b69ffffffffffffffffffff1690505f836008015f8773ffffffffffffffffffffffffffffffffffffffff1673ffffffffffffffffffffffffffffffffffffffff1681526020019081526020015f206002015f9054906101000a900473ffffffffffffffffffffffffffffffffffffffff1690505f73ffffffffffffffffffffffffffffffffffffffff168173ffffffffffffffffffffffffffffffffffffffff16036126fb576040517fc891add200000000000000000000000000000000000000000000000000000000815260040160405180910390fd5b8273ffffffffffffffffffffffffffffffffffffffff1663feaf968c6040518163ffffffff1660e01b815260040160a060405180830381865afa92505050801561276357506040513d601f19601f820116820180604052508101906127609190617268565b60015b6128c0578273ffffffffffffffffffffffffffffffffffffffff168173ffffffffffffffffffffffffffffffffffffffff16036127ad576127a2614213565b9450505050506129eb565b5f805f8373ffffffffffffffffffffffffffffffffffffffff1663feaf968c6040518163ffffffff1660e01b815260040160a060405180830381865afa1580156127f9573d5f803e3d5ffd5b505050506040513d601f19601f8201168201806040525081019061281d9190617268565b50935050925092505f8369ffffffffffffffffffff16148061283e57505f82145b8061284857504281115b1561287e576040517ebfc92100000000000000000000000000000000000000000000000000000000815260040160405180910390fd5b5f612887614213565b90505f6128ad826402540be4008661289f91906172df565b610c9f90919063ffffffff16565b90508099505050505050505050506129eb565b8773ffffffffffffffffffffffffffffffffffffffff168673ffffffffffffffffffffffffffffffffffffffff160361293e575f808513612901575f61291b565b61291a6402540be4008661291591906172df565b610c77565b5b905061292a88878786856143f5565b9050809a50505050505050505050506129eb565b5f805f8873ffffffffffffffffffffffffffffffffffffffff1663feaf968c6040518163ffffffff1660e01b815260040160a060405180830381865afa15801561298a573d5f803e3d5ffd5b505050506040513d601f19601f820116820180604052508101906129ae9190617268565b50935050925092505f6129ca888461207290919063ffffffff16565b90506129da848a858b868b6146a9565b809d50505050505050505050505050505b919050565b5f806129fa611b4f565b90506064670de0b6b3a7640000826008015f8673ffffffffffffffffffffffffffffffffffffffff1673ffffffffffffffffffffffffffffffffffffffff1681526020019081526020015f2060010160139054906101000a900460ff1660ff16612a64919061709a565b612a6e9190617108565b915050919050565b5f612a97836affffffffffffffffffffff16670de0b6b3a764000084613fe9565b905092915050565b5f805f5b8351811015612c31575f848281518110612ac057612abf6171e0565b5b602002602001015190505f875f8873ffffffffffffffffffffffffffffffffffffffff1673ffffffffffffffffffffffffffffffffffffffff1681526020019081526020015f205f835f015161ffff1661ffff1681526020019081526020015f2090505f815f01601b9054906101000a900460ff16905060066007811115612b4b57612b4a616f47565b5b816007811115612b5e57612b5d616f47565b5b1480612b8d5750600780811115612b7857612b77616f47565b5b816007811115612b8b57612b8a616f47565b5b145b15612b9a57505050612c1e565b8260200151825f01601c9054906101000a900463ffffffff1663ffffffff1603612bce57825f015195505050505050612c77565b84158015612c105750600780811115612bea57612be9616f47565b5b8260010160149054906101000a900460ff166007811115612c0e57612c0d616f47565b5b145b15612c1a57600194505b5050505b8080612c2990617355565b915050612aa3565b508015612c4557600160ff16915050612c77565b6040517f0870870400000000000000000000000000000000000000000000000000000000815260040160405180910390fd5b9392505050565b5f612c87611b4f565b90505f612c968686868661474f565b90505f865f8773ffffffffffffffffffffffffffffffffffffffff1673ffffffffffffffffffffffffffffffffffffffff1681526020019081526020015f205f8361ffff1661ffff1681526020019081526020015f205f0160199054906101000a900461ffff16905081856040019061ffff16908161ffff168152505080856080019061ffff16908161ffff16815250505f856060015190505f885f8973ffffffffffffffffffffffffffffffffffffffff1673ffffffffffffffffffffffffffffffffffffffff1681526020019081526020015f205f600160ff1661ffff1681526020019081526020015f205f0160159054906101000a900461ffff169050600160ff168161ffff1614612fb357885f8973ffffffffffffffffffffffffffffffffffffffff1673ffffffffffffffffffffffffffffffffffffffff1681526020019081526020015f205f8261ffff1661ffff1681526020019081526020015f205f01601b9054906101000a900460ff168761010001906007811115612e2057612e1f616f47565b5b90816007811115612e3457612e33616f47565b5b815250505f895f8a73ffffffffffffffffffffffffffffffffffffffff1673ffffffffffffffffffffffffffffffffffffffff1681526020019081526020015f205f8361ffff1661ffff1681526020019081526020015f205f0160159054906101000a900461ffff169050600160ff168161ffff1614612f2357808a5f8b73ffffffffffffffffffffffffffffffffffffffff1673ffffffffffffffffffffffffffffffffffffffff1681526020019081526020015f205f600160ff1661ffff1681526020019081526020015f205f0160156101000a81548161ffff021916908361ffff160217905550612f98565b600160ff168a5f8b73ffffffffffffffffffffffffffffffffffffffff1673ffffffffffffffffffffffffffffffffffffffff1681526020019081526020015f205f600160ff1661ffff1681526020019081526020015f205f0160156101000a81548161ffff021916908361ffff1602179055505b81886060019061ffff16908161ffff1681525092505061302d565b6001856008015f8a73ffffffffffffffffffffffffffffffffffffffff1673ffffffffffffffffffffffffffffffffffffffff1681526020019081526020015f205f01601a8282829054906101000a900461ffff166130129190616fa1565b92506101000a81548161ffff021916908361ffff1602179055505b86895f8a73ffffffffffffffffffffffffffffffffffffffff1673ffffffffffffffffffffffffffffffffffffffff1681526020019081526020015f205f8461ffff1661ffff1681526020019081526020015f205f820151815f015f6101000a8154816affffffffffffffffffffff02191690836affffffffffffffffffffff1602179055506020820151815f01600b6101000a81548169ffffffffffffffffffff021916908369ffffffffffffffffffff1602179055506040820151815f0160156101000a81548161ffff021916908361ffff1602179055506060820151815f0160176101000a81548161ffff021916908361ffff1602179055506080820151815f0160196101000a81548161ffff021916908361ffff16021790555060a0820151815f01601b6101000a81548160ff0219169083600781111561317557613174616f47565b5b021790555060c0820151815f01601c6101000a81548163ffffffff021916908363ffffffff16021790555060e0820151816001015f6101000a81548173ffffffffffffffffffffffffffffffffffffffff021916908373ffffffffffffffffffffffffffffffffffffffff1602179055506101008201518160010160146101000a81548160ff0219169083600781111561321257613211616f47565b5b02179055506101208201518160010160156101000a81548161ffff021916908361ffff1602179055506101408201518160010160176101000a81548160ff021916908360ff1602179055506101608201518160010160186101000a81548167ffffffffffffffff021916908367ffffffffffffffff160217905550905050600160ff168361ffff1614613314578660600151895f8a73ffffffffffffffffffffffffffffffffffffffff1673ffffffffffffffffffffffffffffffffffffffff1681526020019081526020015f205f8561ffff1661ffff1681526020019081526020015f205f0160156101000a81548161ffff021916908361ffff1602179055505b8660600151895f8a73ffffffffffffffffffffffffffffffffffffffff1673ffffffffffffffffffffffffffffffffffffffff1681526020019081526020015f205f8661ffff1661ffff1681526020019081526020015f205f0160196101000a81548161ffff021916908361ffff1602179055508660a00151600781111561339f5761339e616f47565b5b8760e0015173ffffffffffffffffffffffffffffffffffffffff168973ffffffffffffffffffffffffffffffffffffffff167f464d814951bd2dcbcab73412ca99e1ec43435c5f9d3115eba8f8d475edf7dfcd8a606001518b5f01516040516134099291906173ba565b60405180910390a4505050505050505050565b5f613425611b4f565b90505f816008015f8573ffffffffffffffffffffffffffffffffffffffff1673ffffffffffffffffffffffffffffffffffffffff1681526020019081526020015f2090505f61347385610d6d565b69ffffffffffffffffffff1690505f83600c015f8773ffffffffffffffffffffffffffffffffffffffff1673ffffffffffffffffffffffffffffffffffffffff1681526020019081526020015f205f845f0160189054906101000a900461ffff1661ffff1661ffff1681526020019081526020015f205f01600b9054906101000a900469ffffffffffffffffffff1669ffffffffffffffffffff1690505f600160ff1685600c015f8973ffffffffffffffffffffffffffffffffffffffff1673ffffffffffffffffffffffffffffffffffffffff1681526020019081526020015f205f600160ff1661ffff1681526020019081526020015f205f0160199054906101000a900461ffff1661ffff1614905080806135a85750600160ff16845f0160189054906101000a900461ffff1661ffff16145b156135ec5782866020015169ffffffffffffffffffff16106135e7578560600151845f0160186101000a81548161ffff021916908361ffff1602179055505b613644565b81866020015169ffffffffffffffffffff1610801561361b575082866020015169ffffffffffffffffffff1610155b15613643578560600151845f0160186101000a81548161ffff021916908361ffff1602179055505b5b50505050505050565b5f80613666846affffffffffffffffffffff1684611f8d565b90506affffffffffffffffffffff80168111156136af576040517f2c5211c600000000000000000000000000000000000000000000000000000000815260040160405180910390fd5b8091505092915050565b5f6136d1836affffffffffffffffffffff1683611f8d565b905092915050565b5f6136e78460a00151614920565b9050600560078111156136fd576136fc616f47565b5b8160078111156137105761370f616f47565b5b0361372557613720838584611020565b61375e565b6002600781111561373957613738616f47565b5b81600781111561374c5761374b616f47565b5b0361375d5761375c838584614a26565b5b5b50505050565b801561377f5761377a8484600160ff1685614c93565b613864565b600160ff16845f8573ffffffffffffffffffffffffffffffffffffffff1673ffffffffffffffffffffffffffffffffffffffff1681526020019081526020015f205f8461ffff1661ffff1681526020019081526020015f205f0160156101000a81548161ffff021916908361ffff16021790555081845f8573ffffffffffffffffffffffffffffffffffffffff1673ffffffffffffffffffffffffffffffffffffffff1681526020019081526020015f205f600160ff1661ffff1681526020019081526020015f205f0160196101000a81548161ffff021916908361ffff1602179055505b50505050565b5f6138788360a00151614920565b90508260a00151600781111561389157613890616f47565b5b8360e0015173ffffffffffffffffffffffffffffffffffffffff168573ffffffffffffffffffffffffffffffffffffffff167f1140e445b15f25d17f29961cc427972f8a2fe6c255e4a15a370e17620206fb828660600151865f01518760200151604051613901939291906173e1565b60405180910390a46005600781111561391d5761391c616f47565b5b8160078111156139305761392f616f47565b5b0361394557613940848484614df1565b61397e565b6002600781111561395957613958616f47565b5b81600781111561396c5761396b616f47565b5b0361397d5761397c848484615159565b5b5b61398c8483608001516153d8565b50505050565b5f61399b611b4f565b90505f845f01516affffffffffffffffffffff16865f01516affffffffffffffffffffff16116139ce57855f01516139d3565b845f01515b90505f613a06826affffffffffffffffffffff16876020015169ffffffffffffffffffff1661561f90919063ffffffff16565b9050613a1485878684615688565b60056007811115613a2857613a27616f47565b5b8760a001516007811115613a3f57613a3e616f47565b5b03613ad557613aa0613a55886101200151610bcf565b613a85846affffffffffffffffffffff168a6020015169ffffffffffffffffffff1661561f90919063ffffffff16565b6affffffffffffffffffffff1661364d90919063ffffffff16565b84604001818151613ab19190617416565b9150906affffffffffffffffffffff1690816affffffffffffffffffffff16815250505b8184602001818151613ae79190617416565b9150906affffffffffffffffffffff1690816affffffffffffffffffffff168152505080845f01818151613b1b9190617416565b9150906affffffffffffffffffffff1690816affffffffffffffffffffff16815250508560200151846080019069ffffffffffffffffffff16908169ffffffffffffffffffff1681525050816affffffffffffffffffffff16836009015f8773ffffffffffffffffffffffffffffffffffffffff1673ffffffffffffffffffffffffffffffffffffffff1681526020019081526020015f205f8860e0015173ffffffffffffffffffffffffffffffffffffffff1673ffffffffffffffffffffffffffffffffffffffff1681526020019081526020015f205f015f8282829054906101000a90046cffffffffffffffffffffffffff16613c1a919061746c565b92506101000a8154816cffffffffffffffffffffffffff02191690836cffffffffffffffffffffffffff16021790555050505050505050565b5f835f8473ffffffffffffffffffffffffffffffffffffffff1673ffffffffffffffffffffffffffffffffffffffff1681526020019081526020015f205f600160ff1661ffff1681526020019081526020015f205f0160159054906101000a900461ffff169050613cc884848484600761581c565b50505050565b5f80613cd8611b4f565b90506064670de0b6b3a7640000826008015f8673ffffffffffffffffffffffffffffffffffffffff1673ffffffffffffffffffffffffffffffffffffffff1681526020019081526020015f206001015f9054906101000a900460ff1660ff16613d41919061709a565b613d4b9190617108565b915050919050565b5f613d5c611b4f565b90505f81600a015f8573ffffffffffffffffffffffffffffffffffffffff1673ffffffffffffffffffffffffffffffffffffffff1681526020019081526020015f205f8461ffff1661ffff1681526020019081526020015f2090505f815f01601b9054906101000a900460ff16905060066007811115613ddf57613dde616f47565b5b816007811115613df257613df1616f47565b5b1480613e215750600780811115613e0c57613e0b616f47565b5b816007811115613e1f57613e1e616f47565b5b145b15613e58576040517f03f7cd9200000000000000000000000000000000000000000000000000000000815260040160405180910390fd5b5f836008015f8773ffffffffffffffffffffffffffffffffffffffff1673ffffffffffffffffffffffffffffffffffffffff1681526020019081526020015f205f01601f9054906101000a900460ff1660ff1690505f613f0c845f01600b9054906101000a900469ffffffffffffffffffff1669ffffffffffffffffffff16855f015f9054906101000a90046affffffffffffffffffffff166affffffffffffffffffffff1661364d90919063ffffffff16565b905080856007015f8481526020019081526020015f205f866001015f9054906101000a900473ffffffffffffffffffffffffffffffffffffffff1673ffffffffffffffffffffffffffffffffffffffff1673ffffffffffffffffffffffffffffffffffffffff1681526020019081526020015f205f015f8282829054906101000a90046affffffffffffffffffffff16613fa69190617416565b92506101000a8154816affffffffffffffffffffff02191690836affffffffffffffffffffff160217905550613fe085600a018888615a09565b50505050505050565b5f805f80198587098587029250828110838203039150505f810361402157838281614017576140166170db565b5b04925050506140f4565b838110614069578585856040517f63a05778000000000000000000000000000000000000000000000000000000008152600401614060939291906174ac565b60405180910390fd5b5f8486880990508281118203915080830392505f6001861901861690505f81870496508185049450600182835f0304019050808402851794505f60028860030218905080880260020381029050808802600203810290508088026002038102905080880260020381029050808802600203810290508088026002038102905080860296505050505050505b9392505050565b5f614104611b4f565b90508269ffffffffffffffffffff1681600a015f8673ffffffffffffffffffffffffffffffffffffffff1673ffffffffffffffffffffffffffffffffffffffff1681526020019081526020015f205f600160ff1661ffff1681526020019081526020015f205f015f6101000a8154816affffffffffffffffffffff02191690836affffffffffffffffffffff1602179055508181600a015f8673ffffffffffffffffffffffffffffffffffffffff1673ffffffffffffffffffffffffffffffffffffffff1681526020019081526020015f205f600160ff1661ffff1681526020019081526020015f205f01601c6101000a81548163ffffffff021916908363ffffffff16021790555050505050565b5f803073ffffffffffffffffffffffffffffffffffffffff16630b545214670de0b6b3a76400006107086040518363ffffffff1660e01b815260040161425a929190617553565b602060405180830381865afa158015614275573d5f803e3d5ffd5b505050506040513d601f19601f82011682018060405250810190614299919061757a565b90505f81036142d4576040517fca91730a00000000000000000000000000000000000000000000000000000000815260040160405180910390fd5b5f73c02aaa39b223fe8d0a0e5c4f27ead9083c756cc290505f8173ffffffffffffffffffffffffffffffffffffffff166370a082317388e6a0c2ddd26feeb64f039a2c41296fcb3f56406040518263ffffffff1660e01b815260040161433a91906175b4565b602060405180830381865afa158015614355573d5f803e3d5ffd5b505050506040513d601f19601f82011682018060405250810190614379919061757a565b905068056bc75e2d631000008110156143be576040517f05f4eec200000000000000000000000000000000000000000000000000000000815260040160405180910390fd5b5f620f4240670de0b6b3a76400006143d69190617108565b846143e1919061709a565b90506143ec81610c77565b94505050505090565b5f805f8669ffffffffffffffffffff16148061441057505f84145b8061441a57504284115b8061442557505f8513155b8061443c575083611c206144399190617009565b42115b90505f8784116144575783886144529190616fd6565b614464565b87846144639190616fd6565b5b90505f808911801561448f57506706f05b59d3b2000061448d8a8461207290919063ffffffff16565b115b905082156144a95761449f614213565b93505050506146a0565b8015614699573073ffffffffffffffffffffffffffffffffffffffff16630b545214670de0b6b3a76400006107086040518363ffffffff1660e01b81526004016144f4929190617553565b602060405180830381865afa92505050801561452e57506040513d601f19601f8201168201806040525081019061452b919061757a565b60015b61453d578493505050506146a0565b5f810361455057859450505050506146a0565b5f620f4240670de0b6b3a76400006145689190617108565b82614573919061709a565b90505f61457f82610c77565b90505f8c821161459a57818d6145959190616fd6565b6145a7565b8c826145a69190616fd6565b5b90508086116145bf57889750505050505050506146a0565b5f73c02aaa39b223fe8d0a0e5c4f27ead9083c756cc290505f8173ffffffffffffffffffffffffffffffffffffffff166370a082317388e6a0c2ddd26feeb64f039a2c41296fcb3f56406040518263ffffffff1660e01b815260040161462591906175b4565b602060405180830381865afa158015614640573d5f803e3d5ffd5b505050506040513d601f19601f82011682018060405250810190614664919061757a565b905068056bc75e2d63100000811015614688578a99505050505050505050506146a0565b8399505050505050505050506146a0565b8493505050505b95945050505050565b5f808769ffffffffffffffffffff1614806146c357505f83145b806146cd57504283115b806146d857505f8513155b806146ee57505f8669ffffffffffffffffffff16145b806146f857505f82145b8061470257504282115b8061470d57505f8413155b90508015614746576040517ebfc92100000000000000000000000000000000000000000000000000000000815260040160405180910390fd5b50505050505050565b5f80855f8673ffffffffffffffffffffffffffffffffffffffff1673ffffffffffffffffffffffffffffffffffffffff1681526020019081526020015f205f8461ffff1661ffff1681526020019081526020015f205f0160199054906101000a900461ffff1690505f8361ffff1614806147cc57505f8161ffff16145b156147ff576147f7868660018060ff16886020015169ffffffffffffffffffff168960a00151615db3565b915050614918565b5f614822878786886020015169ffffffffffffffffffff16868a60a00151615eec565b90505f8103614835578392505050614918565b60018103614869576148608787600185896020015169ffffffffffffffffffff168a60a00151615db3565b92505050614918565b5f875f8873ffffffffffffffffffffffffffffffffffffffff1673ffffffffffffffffffffffffffffffffffffffff1681526020019081526020015f205f8661ffff1661ffff1681526020019081526020015f205f0160159054906101000a900461ffff16905061491288887fffffffffffffffffffffffffffffffffffffffffffffffffffffffffffffffff848a6020015169ffffffffffffffffffff168b60a00151615db3565b93505050505b949350505050565b5f6001600781111561493557614934616f47565b5b82600781111561494857614947616f47565b5b148061497857506003600781111561496357614962616f47565b5b82600781111561497657614975616f47565b5b145b156149865760019050614a21565b6002600781111561499a57614999616f47565b5b8260078111156149ad576149ac616f47565b5b14806149dd5750600460078111156149c8576149c7616f47565b5b8260078111156149db576149da616f47565b5b145b156149eb5760029050614a21565b600560078111156149ff576149fe616f47565b5b826007811115614a1257614a11616f47565b5b03614a205760059050614a21565b5b919050565b5f614a2f611b4f565b90505f60046007811115614a4657614a45616f47565b5b8460a001516007811115614a5d57614a5c616f47565b5b03614a69575050614c8e565b5f82600b015f8773ffffffffffffffffffffffffffffffffffffffff1673ffffffffffffffffffffffffffffffffffffffff1681526020019081526020015f205f600160ff1661ffff1681526020019081526020015f205f0160199054906101000a900461ffff16905082600b015f8773ffffffffffffffffffffffffffffffffffffffff1673ffffffffffffffffffffffffffffffffffffffff1681526020019081526020015f205f8261ffff1661ffff1681526020019081526020015f205f01600b9054906101000a900469ffffffffffffffffffff1669ffffffffffffffffffff16856020015169ffffffffffffffffffff161080614b725750600160ff168161ffff16145b15614b8357600160ff169150614b94565b614b9183600b018786612a9f565b91505b614ba383600b01878785612c7e565b845f01516affffffffffffffffffffff16836009015f8873ffffffffffffffffffffffffffffffffffffffff1673ffffffffffffffffffffffffffffffffffffffff1681526020019081526020015f205f8760e0015173ffffffffffffffffffffffffffffffffffffffff1673ffffffffffffffffffffffffffffffffffffffff1681526020019081526020015f205f015f8282829054906101000a90046cffffffffffffffffffffffffff16614c5a91906175cd565b92506101000a8154816cffffffffffffffffffffffffff02191690836cffffffffffffffffffffffffff1602179055505050505b505050565b5f845f8573ffffffffffffffffffffffffffffffffffffffff1673ffffffffffffffffffffffffffffffffffffffff1681526020019081526020015f205f8361ffff1661ffff1681526020019081526020015f205f0160199054906101000a900461ffff169050600160ff168161ffff1614614d7a5782855f8673ffffffffffffffffffffffffffffffffffffffff1673ffffffffffffffffffffffffffffffffffffffff1681526020019081526020015f205f8361ffff1661ffff1681526020019081526020015f205f0160156101000a81548161ffff021916908361ffff1602179055505b80855f8673ffffffffffffffffffffffffffffffffffffffff1673ffffffffffffffffffffffffffffffffffffffff1681526020019081526020015f205f8561ffff1661ffff1681526020019081526020015f205f0160196101000a81548161ffff021916908361ffff1602179055505050505050565b5f614dfa611b4f565b90505f816008015f8673ffffffffffffffffffffffffffffffffffffffff1673ffffffffffffffffffffffffffffffffffffffff1681526020019081526020015f2090505f815f01601f9054906101000a900460ff1660ff1690505f836005015f8381526020019081526020015f2090508460400151846007015f8481526020019081526020015f205f8860e0015173ffffffffffffffffffffffffffffffffffffffff1673ffffffffffffffffffffffffffffffffffffffff1681526020019081526020015f205f015f8282829054906101000a90046affffffffffffffffffffff16614ee89190617138565b92506101000a8154816affffffffffffffffffffff02191690836affffffffffffffffffffff1602179055508460400151855f01818151614f299190617416565b9150906affffffffffffffffffffff1690816affffffffffffffffffffff16815250505f80875f01516affffffffffffffffffffff1614614f6a575f614f6d565b60015b9050614fc0888860e00151896101400151848a5f01518b602001518a60010160099054906101000a900467ffffffffffffffff16895f0160169054906101000a900469ffffffffffffffffffff16615fb2565b85606001516affffffffffffffffffffff16826002015f8282829054906101000a90046fffffffffffffffffffffffffffffffff16614fff919061760d565b92506101000a8154816fffffffffffffffffffffffffffffffff02191690836fffffffffffffffffffffffffffffffff160217905550855f0151825f015f8282829054906101000a90046affffffffffffffffffffff166150609190617416565b92506101000a8154816affffffffffffffffffffff02191690836affffffffffffffffffffff160217905550855f0151845f01600d8282829054906101000a90046affffffffffffffffffffff166150b89190617416565b92506101000a8154816affffffffffffffffffffff02191690836affffffffffffffffffffff16021790555085602001516affffffffffffffffffffff16845f015f8282829054906101000a90046cffffffffffffffffffffffffff1661511f919061746c565b92506101000a8154816cffffffffffffffffffffffffff02191690836cffffffffffffffffffffffffff1602179055505050505050505050565b5f615162611b4f565b90505f816008015f8673ffffffffffffffffffffffffffffffffffffffff1673ffffffffffffffffffffffffffffffffffffffff1681526020019081526020015f205f01601f9054906101000a900460ff1660ff1690505f8460e00151905083602001516affffffffffffffffffffff16836009015f8873ffffffffffffffffffffffffffffffffffffffff1673ffffffffffffffffffffffffffffffffffffffff1681526020019081526020015f205f8373ffffffffffffffffffffffffffffffffffffffff1673ffffffffffffffffffffffffffffffffffffffff1681526020019081526020015f205f015f8282829054906101000a90046cffffffffffffffffffffffffff1661527591906175cd565b92506101000a8154816cffffffffffffffffffffffffff02191690836cffffffffffffffffffffffffff160217905550835f0151836007015f8481526020019081526020015f205f8373ffffffffffffffffffffffffffffffffffffffff1673ffffffffffffffffffffffffffffffffffffffff1681526020019081526020015f205f015f8282829054906101000a90046affffffffffffffffffffff1661531d9190617416565b92506101000a8154816affffffffffffffffffffff02191690836affffffffffffffffffffff16021790555083606001516affffffffffffffffffffff16836005015f8481526020019081526020015f206002015f8282829054906101000a90046fffffffffffffffffffffffffffffffff1661539a919061760d565b92506101000a8154816fffffffffffffffffffffffffffffffff02191690836fffffffffffffffffffffffffffffffff160217905550505050505050565b5f6153e1611b4f565b90505f816008015f8573ffffffffffffffffffffffffffffffffffffffff1673ffffffffffffffffffffffffffffffffffffffff1681526020019081526020015f205f01601f9054906101000a900460ff1660ff1690505f826005015f8381526020019081526020015f2090505f61545886610d6d565b69ffffffffffffffffffff1690505f61548e670e043da6172500008769ffffffffffffffffffff16610cb290919063ffffffff16565b821190508015615558575f6154e3662386f26fc100006154de6154d1868b69ffffffffffffffffffff16886154c39190616fd6565b61207290919063ffffffff16565b668e1bc9bf04000061621c565b616234565b9050615534615502668e1bc9bf0400008361207290919063ffffffff16565b85600101600b9054906101000a900461ffff166127106155229190617650565b61ffff1661624c90919063ffffffff16565b84600101600f6101000a81548161ffff021916908361ffff160217905550506155b0565b5f8061ffff1684600101600f9054906101000a900461ffff1661ffff161415905080156155a3575f84600101600f6101000a81548161ffff021916908361ffff1602179055506155ae565b50505050505061561b565b505b3073ffffffffffffffffffffffffffffffffffffffff16629d26aa856040518263ffffffff1660e01b81526004016155e89190617685565b5f604051808303815f87803b1580156155ff575f80fd5b505af1158015615611573d5f803e3d5ffd5b5050505050505050505b5050565b5f806156378469ffffffffffffffffffff1684611f8d565b905069ffffffffffffffffffff801681111561567e576040517ebfc92100000000000000000000000000000000000000000000000000000000815260040160405180910390fd5b8091505092915050565b5f615691611b4f565b90505f8460c001516156a1610d57565b6156ab919061769e565b9050621275008163ffffffff161115615814575f62015180826156ce91906176d5565b63ffffffff16846156df9190617705565b905080856060018181516156f39190617416565b9150906affffffffffffffffffffff1690816affffffffffffffffffffff16815250505f836008015f8973ffffffffffffffffffffffffffffffffffffffff1673ffffffffffffffffffffffffffffffffffffffff1681526020019081526020015f205f01601f9054906101000a900460ff1660ff16905081846007015f8381526020019081526020015f205f8960e0015173ffffffffffffffffffffffffffffffffffffffff1673ffffffffffffffffffffffffffffffffffffffff1681526020019081526020015f205f01600b8282829054906101000a90046affffffffffffffffffffff166157e59190617416565b92506101000a8154816affffffffffffffffffffff02191690836affffffffffffffffffffff16021790555050505b505050505050565b80855f8673ffffffffffffffffffffffffffffffffffffffff1673ffffffffffffffffffffffffffffffffffffffff1681526020019081526020015f205f8561ffff1661ffff1681526020019081526020015f205f01601b6101000a81548160ff0219169083600781111561589457615893616f47565b5b021790555082855f8673ffffffffffffffffffffffffffffffffffffffff1673ffffffffffffffffffffffffffffffffffffffff1681526020019081526020015f205f600160ff1661ffff1681526020019081526020015f205f0160156101000a81548161ffff021916908361ffff160217905550600160ff168261ffff161461598d5781855f8673ffffffffffffffffffffffffffffffffffffffff1673ffffffffffffffffffffffffffffffffffffffff1681526020019081526020015f205f8561ffff1661ffff1681526020019081526020015f205f0160156101000a81548161ffff021916908361ffff160217905550615a02565b600160ff16855f8673ffffffffffffffffffffffffffffffffffffffff1673ffffffffffffffffffffffffffffffffffffffff1681526020019081526020015f205f8561ffff1661ffff1681526020019081526020015f205f0160156101000a81548161ffff021916908361ffff1602179055505b5050505050565b5f835f8473ffffffffffffffffffffffffffffffffffffffff1673ffffffffffffffffffffffffffffffffffffffff1681526020019081526020015f205f600160ff1661ffff1681526020019081526020015f205f0160159054906101000a900461ffff169050835f8473ffffffffffffffffffffffffffffffffffffffff1673ffffffffffffffffffffffffffffffffffffffff1681526020019081526020015f205f8361ffff1661ffff1681526020019081526020015f205f0160159054906101000a900461ffff16845f8573ffffffffffffffffffffffffffffffffffffffff1673ffffffffffffffffffffffffffffffffffffffff1681526020019081526020015f205f865f8773ffffffffffffffffffffffffffffffffffffffff1673ffffffffffffffffffffffffffffffffffffffff1681526020019081526020015f205f8661ffff1661ffff1681526020019081526020015f205f0160199054906101000a900461ffff1661ffff1661ffff1681526020019081526020015f205f0160156101000a81548161ffff021916908361ffff160217905550835f8473ffffffffffffffffffffffffffffffffffffffff1673ffffffffffffffffffffffffffffffffffffffff1681526020019081526020015f205f8361ffff1661ffff1681526020019081526020015f205f0160199054906101000a900461ffff16845f8573ffffffffffffffffffffffffffffffffffffffff1673ffffffffffffffffffffffffffffffffffffffff1681526020019081526020015f205f865f8773ffffffffffffffffffffffffffffffffffffffff1673ffffffffffffffffffffffffffffffffffffffff1681526020019081526020015f205f8661ffff1661ffff1681526020019081526020015f205f0160159054906101000a900461ffff1661ffff1661ffff1681526020019081526020015f205f0160196101000a81548161ffff021916908361ffff160217905550835f8473ffffffffffffffffffffffffffffffffffffffff1673ffffffffffffffffffffffffffffffffffffffff1681526020019081526020015f205f8361ffff1661ffff1681526020019081526020015f205f01601b9054906101000a900460ff166007811115615d5157615d50616f47565b5b8373ffffffffffffffffffffffffffffffffffffffff167f2097d5c49cf7ba09a2520b6b807629746c2527783ac92cac69d88e846c7f33f584604051615d979190617741565b60405180910390a3615dad84848484600661581c565b50505050565b5f5b600115615ee1575f875f8873ffffffffffffffffffffffffffffffffffffffff1673ffffffffffffffffffffffffffffffffffffffff1681526020019081526020015f205f8661ffff1661ffff1681526020019081526020015f205f0160199054906101000a900461ffff1690505f615e32898988888689615eec565b03615e405784915050615ee2565b7fffffffffffffffffffffffffffffffffffffffffffffffffffffffffffffffff8603615ed7575f885f8973ffffffffffffffffffffffffffffffffffffffff1673ffffffffffffffffffffffffffffffffffffffff1681526020019081526020015f205f8761ffff1661ffff1681526020019081526020015f205f0160159054906101000a900461ffff16905080955050615edb565b8094505b50615db5565b5b9695505050505050565b5f615ef682614920565b915060026007811115615f0c57615f0b616f47565b5b826007811115615f1f57615f1e616f47565b5b1480615f4f575060056007811115615f3a57615f39616f47565b5b826007811115615f4d57615f4c616f47565b5b145b15615f6857615f6187878787876162a6565b9050615fa8565b60016007811115615f7c57615f7b616f47565b5b826007811115615f8f57615f8e616f47565b5b03615fa757615fa08686868661642a565b9050615fa8565b5b9695505050505050565b5f615fbb611b4f565b90505f81600d015f8b73ffffffffffffffffffffffffffffffffffffffff1673ffffffffffffffffffffffffffffffffffffffff1681526020019081526020015f205f8a73ffffffffffffffffffffffffffffffffffffffff1673ffffffffffffffffffffffffffffffffffffffff1681526020019081526020015f205f8960ff1660ff1681526020019081526020015f20905060028081111561606257616061616f47565b5b816001015f9054906101000a900460ff16600281111561608557616084616f47565b5b036161715784815f01600b6101000a8154816affffffffffffffffffffff02191690836affffffffffffffffffffff160217905550838160010160046101000a81548167ffffffffffffffff021916908367ffffffffffffffff16021790555085815f015f6101000a8154816affffffffffffffffffffff02191690836affffffffffffffffffffff16021790555082815f0160166101000a81548169ffffffffffffffffffff021916908369ffffffffffffffffffff16021790555061614a610d57565b81600101600c6101000a81548163ffffffff021916908363ffffffff1602179055506161e5565b5f61619c8567ffffffffffffffff16876affffffffffffffffffffff166136b990919063ffffffff16565b90505f6161cb8569ffffffffffffffffffff16896affffffffffffffffffffff166136b990919063ffffffff16565b90506161e28388848b856161dd610d57565b6165c2565b50505b86816001015f6101000a81548160ff0219169083600281111561620b5761620a616f47565b5b021790555050505050505050505050565b5f81831061622a578161622c565b825b905092915050565b5f8183116162425781616244565b825b905092915050565b5f8061625c8461ffff1684611f8d565b905061ffff801681111561629c576040517f2c5211c600000000000000000000000000000000000000000000000000000000815260040160405180910390fd5b8091505092915050565b5f8083875f8873ffffffffffffffffffffffffffffffffffffffff1673ffffffffffffffffffffffffffffffffffffffff1681526020019081526020015f205f8761ffff1661ffff1681526020019081526020015f205f01600b9054906101000a900469ffffffffffffffffffff1669ffffffffffffffffffff161115806163355750600160ff168561ffff16145b90505f875f8873ffffffffffffffffffffffffffffffffffffffff1673ffffffffffffffffffffffffffffffffffffffff1681526020019081526020015f205f8561ffff1661ffff1681526020019081526020015f205f01600b9054906101000a900469ffffffffffffffffffff1669ffffffffffffffffffff168510806163c45750600160ff168461ffff16145b90508180156163d05750805b156163df575f92505050616421565b8161640e577fffffffffffffffffffffffffffffffffffffffffffffffffffffffffffffffff92505050616421565b8061641e57600192505050616421565b50505b95945050505050565b5f80616434611b4f565b90505f8482600a015f8973ffffffffffffffffffffffffffffffffffffffff1673ffffffffffffffffffffffffffffffffffffffff1681526020019081526020015f205f8861ffff1661ffff1681526020019081526020015f205f01600b9054906101000a900469ffffffffffffffffffff1669ffffffffffffffffffff161015806164c75750600160ff168661ffff16145b90505f82600a015f8973ffffffffffffffffffffffffffffffffffffffff1673ffffffffffffffffffffffffffffffffffffffff1681526020019081526020015f205f8661ffff1661ffff1681526020019081526020015f205f01600b9054906101000a900469ffffffffffffffffffff1669ffffffffffffffffffff168611806165595750600160ff168561ffff16145b90508180156165655750805b15616575575f93505050506165ba565b816165a5577fffffffffffffffffffffffffffffffffffffffffffffffffffffffffffffffff93505050506165ba565b806165b657600193505050506165ba565b5050505b949350505050565b61661e8660010160049054906101000a900467ffffffffffffffff1667ffffffffffffffff16875f01600b9054906101000a90046affffffffffffffffffffff166affffffffffffffffffffff166136b990919063ffffffff16565b846166299190617009565b935084865f01600b8282829054906101000a90046affffffffffffffffffffff166166549190617416565b92506101000a8154816affffffffffffffffffffff02191690836affffffffffffffffffffff1602179055506166ba865f01600b9054906101000a90046affffffffffffffffffffff166affffffffffffffffffffff168561683490919063ffffffff16565b8660010160046101000a81548167ffffffffffffffff021916908367ffffffffffffffff160217905550616742865f0160169054906101000a900469ffffffffffffffffffff1669ffffffffffffffffffff16875f015f9054906101000a90046affffffffffffffffffffff166affffffffffffffffffffff166136b990919063ffffffff16565b8261674d9190617009565b915082865f015f8282829054906101000a90046affffffffffffffffffffff166167779190617416565b92506101000a8154816affffffffffffffffffffff02191690836affffffffffffffffffffff1602179055506167dc865f015f9054906101000a90046affffffffffffffffffffff166affffffffffffffffffffff168361689990919063ffffffff16565b865f0160166101000a81548169ffffffffffffffffffff021916908369ffffffffffffffffffff1602179055508086600101600c6101000a81548163ffffffff021916908363ffffffff160217905550505050505050565b5f8061684984670de0b6b3a764000085613fe9565b905067ffffffffffffffff801681111561688f576040517f2c5211c600000000000000000000000000000000000000000000000000000000815260040160405180910390fd5b8091505092915050565b5f806168ae84670de0b6b3a764000085613fe9565b905069ffffffffffffffffffff80168111156168f6576040517f2c5211c600000000000000000000000000000000000000000000000000000000815260040160405180910390fd5b8091505092915050565b6040518060c001604052805f73ffffffffffffffffffffffffffffffffffffffff1681526020015f81526020015f81526020015f81526020015f61ffff1681526020015f81525090565b6040518061018001604052805f6affffffffffffffffffffff1681526020015f69ffffffffffffffffffff1681526020015f61ffff1681526020015f61ffff1681526020015f61ffff1681526020015f60078111156169ac576169ab616f47565b5b81526020015f63ffffffff1681526020015f73ffffffffffffffffffffffffffffffffffffffff1681526020015f60078111156169ec576169eb616f47565b5b81526020015f61ffff1681526020015f60ff1681526020015f67ffffffffffffffff1681525090565b6040518061014001604052805f6affffffffffffffffffffff1681526020015f6affffffffffffffffffffff1681526020015f6affffffffffffffffffffff1681526020015f6affffffffffffffffffffff1681526020015f69ffffffffffffffffffff1681526020015f6affffffffffffffffffffff1681526020015f6bffffffffffffffffffffffff1681526020015f151581526020015f69ffffffffffffffffffff1681526020015f67ffffffffffffffff1681525090565b5f604051905090565b5f80fd5b5f80fd5b5f73ffffffffffffffffffffffffffffffffffffffff82169050919050565b5f616b0b82616ae2565b9050919050565b616b1b81616b01565b8114616b25575f80fd5b50565b5f81359050616b3681616b12565b92915050565b5f69ffffffffffffffffffff82169050919050565b616b5a81616b3c565b8114616b64575f80fd5b50565b5f81359050616b7581616b51565b92915050565b5f6affffffffffffffffffffff82169050919050565b616b9a81616b7b565b8114616ba4575f80fd5b50565b5f81359050616bb581616b91565b92915050565b5f80fd5b5f601f19601f8301169050919050565b7f4e487b71000000000000000000000000000000000000000000000000000000005f52604160045260245ffd5b616c0582616bbf565b810181811067ffffffffffffffff82111715616c2457616c23616bcf565b5b80604052505050565b5f616c36616ad1565b9050616c428282616bfc565b919050565b5f67ffffffffffffffff821115616c6157616c60616bcf565b5b602082029050602081019050919050565b5f80fd5b5f80fd5b5f61ffff82169050919050565b616c9081616c7a565b8114616c9a575f80fd5b50565b5f81359050616cab81616c87565b92915050565b5f819050919050565b616cc381616cb1565b8114616ccd575f80fd5b50565b5f81359050616cde81616cba565b92915050565b5f60408284031215616cf957616cf8616c76565b5b616d036040616c2d565b90505f616d1284828501616c9d565b5f830152506020616d2584828501616cd0565b60208301525092915050565b5f616d43616d3e84616c47565b616c2d565b90508083825260208201905060408402830185811115616d6657616d65616c72565b5b835b81811015616d8f5780616d7b8882616ce4565b845260208401935050604081019050616d68565b5050509392505050565b5f82601f830112616dad57616dac616bbb565b5b8135616dbd848260208601616d31565b91505092915050565b5f67ffffffffffffffff821115616de057616ddf616bcf565b5b602082029050602081019050919050565b5f616e03616dfe84616dc6565b616c2d565b90508083825260208201905060208402830185811115616e2657616e25616c72565b5b835b81811015616e4f5780616e3b8882616c9d565b845260208401935050602081019050616e28565b5050509392505050565b5f82601f830112616e6d57616e6c616bbb565b5b8135616e7d848260208601616df1565b91505092915050565b5f805f805f8060c08789031215616ea057616e9f616ada565b5b5f616ead89828a01616b28565b9650506020616ebe89828a01616b67565b9550506040616ecf89828a01616ba7565b945050606087013567ffffffffffffffff811115616ef057616eef616ade565b5b616efc89828a01616d99565b935050608087013567ffffffffffffffff811115616f1d57616f1c616ade565b5b616f2989828a01616e59565b92505060a0616f3a89828a01616c9d565b9150509295509295509295565b7f4e487b71000000000000000000000000000000000000000000000000000000005f52602160045260245ffd5b7f4e487b71000000000000000000000000000000000000000000000000000000005f52601160045260245ffd5b5f616fab82616c7a565b9150616fb683616c7a565b9250828201905061ffff811115616fd057616fcf616f74565b5b92915050565b5f616fe082616cb1565b9150616feb83616cb1565b925082820390508181111561700357617002616f74565b5b92915050565b5f61701382616cb1565b915061701e83616cb1565b925082820190508082111561703657617035616f74565b5b92915050565b5f60ff82169050919050565b5f819050919050565b5f61706b6170666170618461703c565b617048565b616c7a565b9050919050565b61707b81617051565b82525050565b5f6020820190506170945f830184617072565b92915050565b5f6170a482616cb1565b91506170af83616cb1565b92508282026170bd81616cb1565b915082820484148315176170d4576170d3616f74565b5b5092915050565b7f4e487b71000000000000000000000000000000000000000000000000000000005f52601260045260245ffd5b5f61711282616cb1565b915061711d83616cb1565b92508261712d5761712c6170db565b5b828204905092915050565b5f61714282616b7b565b915061714d83616b7b565b925082820390506affffffffffffffffffffff8111156171705761716f616f74565b5b92915050565b5f6171808261703c565b915061718b8361703c565b9250828201905060ff8111156171a4576171a3616f74565b5b92915050565b6171b381616cb1565b82525050565b5f6040820190506171cc5f8301856171aa565b6171d960208301846171aa565b9392505050565b7f4e487b71000000000000000000000000000000000000000000000000000000005f52603260045260245ffd5b5f8151905061721b81616b51565b92915050565b5f819050919050565b61723381617221565b811461723d575f80fd5b50565b5f8151905061724e8161722a565b92915050565b5f8151905061726281616cba565b92915050565b5f805f805f60a0868803121561728157617280616ada565b5b5f61728e8882890161720d565b955050602061729f88828901617240565b94505060406172b088828901617254565b93505060606172c188828901617254565b92505060806172d28882890161720d565b9150509295509295909350565b5f6172e982617221565b91506172f483617221565b925082820261730281617221565b91507f800000000000000000000000000000000000000000000000000000000000000084145f8412161561733957617338616f74565b5b828205841483151761734e5761734d616f74565b5b5092915050565b5f61735f82616cb1565b91507fffffffffffffffffffffffffffffffffffffffffffffffffffffffffffffffff820361739157617390616f74565b5b600182019050919050565b6173a581616c7a565b82525050565b6173b481616b7b565b82525050565b5f6040820190506173cd5f83018561739c565b6173da60208301846173ab565b9392505050565b5f6060820190506173f45f83018661739c565b61740160208301856173ab565b61740e60408301846173ab565b949350505050565b5f61742082616b7b565b915061742b83616b7b565b925082820190506affffffffffffffffffffff81111561744e5761744d616f74565b5b92915050565b5f6cffffffffffffffffffffffffff82169050919050565b5f61747682617454565b915061748183617454565b925082820190506cffffffffffffffffffffffffff8111156174a6576174a5616f74565b5b92915050565b5f6060820190506174bf5f8301866171aa565b6174cc60208301856171aa565b6174d960408301846171aa565b949350505050565b5f6fffffffffffffffffffffffffffffffff82169050919050565b617505816174e1565b82525050565b5f819050919050565b5f63ffffffff82169050919050565b5f61753d6175386175338461750b565b617048565b617514565b9050919050565b61754d81617523565b82525050565b5f6040820190506175665f8301856174fc565b6175736020830184617544565b9392505050565b5f6020828403121561758f5761758e616ada565b5b5f61759c84828501617254565b91505092915050565b6175ae81616b01565b82525050565b5f6020820190506175c75f8301846175a5565b92915050565b5f6175d782617454565b91506175e283617454565b925082820390506cffffffffffffffffffffffffff81111561760757617606616f74565b5b92915050565b5f617617826174e1565b9150617622836174e1565b925082820190506fffffffffffffffffffffffffffffffff81111561764a57617649616f74565b5b92915050565b5f61765a82616c7a565b915061766583616c7a565b9250828203905061ffff81111561767f5761767e616f74565b5b92915050565b5f6020820190506176985f8301846171aa565b92915050565b5f6176a882617514565b91506176b383617514565b9250828203905063ffffffff8111156176cf576176ce616f74565b5b92915050565b5f6176df82617514565b91506176ea83617514565b9250826176fa576176f96170db565b5b828204905092915050565b5f61770f82616b7b565b915061771a83616b7b565b925082820261772881616b7b565b915080821461773a57617739616f74565b5b5092915050565b5f6020820190506177545f83018461739c565b9291505056fea2646970667358221220b5c17b87c36e880fc9afda11cc5e9aebaaaa224ffd77a293198a41b312d1695864736f6c63430008150033","linkReferences":{}},"methodIdentifiers":{"createLimitShort(address,uint80,uint88,(uint16,uint256)[],uint16[],uint16)":"f23811cc"},"id":18}