{"abi":[{"type":"constructor","inputs":[{"name":"diamondAddr","type":"address","internalType":"address"},{"name":"treasury","type":"address","internalType":"address"}],"stateMutability":"nonpayable"},{"type":"function","name":"CLOCK_MODE","inputs":[],"outputs":[{"name":"","type":"string","internalType":"string"}],"stateMutability":"view"},{"type":"function","name":"DOMAIN_SEPARATOR","inputs":[],"outputs":[{"name":"","type":"bytes32","internalType":"bytes32"}],"stateMutability":"view"},{"type":"function","name":"allowance","inputs":[{"name":"owner","type":"address","internalType":"address"},{"name":"spender","type":"address","internalType":"address"}],"outputs":[{"name":"","type":"uint256","internalType":"uint256"}],"stateMutability":"view"},{"type":"function","name":"approve","inputs":[{"name":"spender","type":"address","internalType":"address"},{"name":"amount","type":"uint256","internalType":"uint256"}],"outputs":[{"name":"","type":"bool","internalType":"bool"}],"stateMutability":"nonpayable"},{"type":"function","name":"balanceOf","inputs":[{"name":"account","type":"address","internalType":"address"}],"outputs":[{"name":"","type":"uint256","internalType":"uint256"}],"stateMutability":"view"},{"type":"function","name":"burnFrom","inputs":[{"name":"account","type":"address","internalType":"address"},{"name":"amount","type":"uint256","internalType":"uint256"}],"outputs":[],"stateMutability":"nonpayable"},{"type":"function","name":"checkpoints","inputs":[{"name":"account","type":"address","internalType":"address"},{"name":"pos","type":"uint32","internalType":"uint32"}],"outputs":[{"name":"","type":"tuple","internalType":"struct ERC20Votes.Checkpoint","components":[{"name":"fromBlock","type":"uint32","internalType":"uint32"},{"name":"votes","type":"uint224","internalType":"uint224"}]}],"stateMutability":"view"},{"type":"function","name":"clock","inputs":[],"outputs":[{"name":"","type":"uint48","internalType":"uint48"}],"stateMutability":"view"},{"type":"function","name":"decimals","inputs":[],"outputs":[{"name":"","type":"uint8","internalType":"uint8"}],"stateMutability":"view"},{"type":"function","name":"decreaseAllowance","inputs":[{"name":"spender","type":"address","internalType":"address"},{"name":"subtractedValue","type":"uint256","internalType":"uint256"}],"outputs":[{"name":"","type":"bool","internalType":"bool"}],"stateMutability":"nonpayable"},{"type":"function","name":"delegate","inputs":[{"name":"delegatee","type":"address","internalType":"address"}],"outputs":[],"stateMutability":"nonpayable"},{"type":"function","name":"delegateBySig","inputs":[{"name":"delegatee","type":"address","internalType":"address"},{"name":"nonce","type":"uint256","internalType":"uint256"},{"name":"expiry","type":"uint256","internalType":"uint256"},{"name":"v","type":"uint8","internalType":"uint8"},{"name":"r","type":"bytes32","internalType":"bytes32"},{"name":"s","type":"bytes32","internalType":"bytes32"}],"outputs":[],"stateMutability":"nonpayable"},{"type":"function","name":"delegates","inputs":[{"name":"account","type":"address","internalType":"address"}],"outputs":[{"name":"","type":"address","internalType":"address"}],"stateMutability":"view"},{"type":"function","name":"eip712Domain","inputs":[],"outputs":[{"name":"fields","type":"bytes1","internalType":"bytes1"},{"name":"name","type":"string","internalType":"string"},{"name":"version","type":"string","internalType":"string"},{"name":"chainId","type":"uint256","internalType":"uint256"},{"name":"verifyingContract","type":"address","internalType":"address"},{"name":"salt","type":"bytes32","internalType":"bytes32"},{"name":"extensions","type":"uint256[]","internalType":"uint256[]"}],"stateMutability":"view"},{"type":"function","name":"getPastTotalSupply","inputs":[{"name":"timepoint","type":"uint256","internalType":"uint256"}],"outputs":[{"name":"","type":"uint256","internalType":"uint256"}],"stateMutability":"view"},{"type":"function","name":"getPastVotes","inputs":[{"name":"account","type":"address","internalType":"address"},{"name":"timepoint","type":"uint256","internalType":"uint256"}],"outputs":[{"name":"","type":"uint256","internalType":"uint256"}],"stateMutability":"view"},{"type":"function","name":"getVotes","inputs":[{"name":"account","type":"address","internalType":"address"}],"outputs":[{"name":"","type":"uint256","internalType":"uint256"}],"stateMutability":"view"},{"type":"function","name":"increaseAllowance","inputs":[{"name":"spender","type":"address","internalType":"address"},{"name":"addedValue","type":"uint256","internalType":"uint256"}],"outputs":[{"name":"","type":"bool","internalType":"bool"}],"stateMutability":"nonpayable"},{"type":"function","name":"mint","inputs":[{"name":"to","type":"address","internalType":"address"},{"name":"amount","type":"uint256","internalType":"uint256"}],"outputs":[],"stateMutability":"nonpayable"},{"type":"function","name":"name","inputs":[],"outputs":[{"name":"","type":"string","internalType":"string"}],"stateMutability":"view"},{"type":"function","name":"nonces","inputs":[{"name":"owner","type":"address","internalType":"address"}],"outputs":[{"name":"","type":"uint256","internalType":"uint256"}],"stateMutability":"view"},{"type":"function","name":"numCheckpoints","inputs":[{"name":"account","type":"address","internalType":"address"}],"outputs":[{"name":"","type":"uint32","internalType":"uint32"}],"stateMutability":"view"},{"type":"function","name":"permit","inputs":[{"name":"owner","type":"address","internalType":"address"},{"name":"spender","type":"address","internalType":"address"},{"name":"value","type":"uint256","internalType":"uint256"},{"name":"deadline","type":"uint256","internalType":"uint256"},{"name":"v","type":"uint8","internalType":"uint8"},{"name":"r","type":"bytes32","internalType":"bytes32"},{"name":"s","type":"bytes32","internalType":"bytes32"}],"outputs":[],"stateMutability":"nonpayable"},{"type":"function","name":"symbol","inputs":[],"outputs":[{"name":"","type":"string","internalType":"string"}],"stateMutability":"view"},{"type":"function","name":"totalSupply","inputs":[],"outputs":[{"name":"","type":"uint256","internalType":"uint256"}],"stateMutability":"view"},{"type":"function","name":"transfer","inputs":[{"name":"to","type":"address","internalType":"address"},{"name":"amount","type":"uint256","internalType":"uint256"}],"outputs":[{"name":"","type":"bool","internalType":"bool"}],"stateMutability":"nonpayable"},{"type":"function","name":"transferFrom","inputs":[{"name":"from","type":"address","internalType":"address"},{"name":"to","type":"address","internalType":"address"},{"name":"amount","type":"uint256","internalType":"uint256"}],"outputs":[{"name":"","type":"bool","internalType":"bool"}],"stateMutability":"nonpayable"},{"type":"event","name":"Approval","inputs":[{"name":"owner","type":"address","indexed":true,"internalType":"address"},{"name":"spender","type":"address","indexed":true,"internalType":"address"},{"name":"value","type":"uint256","indexed":false,"internalType":"uint256"}],"anonymous":false},{"type":"event","name":"DelegateChanged","inputs":[{"name":"delegator","type":"address","indexed":true,"internalType":"address"},{"name":"fromDelegate","type":"address","indexed":true,"internalType":"address"},{"name":"toDelegate","type":"address","indexed":true,"internalType":"address"}],"anonymous":false},{"type":"event","name":"DelegateVotesChanged","inputs":[{"name":"delegate","type":"address","indexed":true,"internalType":"address"},{"name":"previousBalance","type":"uint256","indexed":false,"internalType":"uint256"},{"name":"newBalance","type":"uint256","indexed":false,"internalType":"uint256"}],"anonymous":false},{"type":"event","name":"EIP712DomainChanged","inputs":[],"anonymous":false},{"type":"event","name":"Transfer","inputs":[{"name":"from","type":"address","indexed":true,"internalType":"address"},{"name":"to","type":"address","indexed":true,"internalType":"address"},{"name":"value","type":"uint256","indexed":false,"internalType":"uint256"}],"anonymous":false},{"type":"error","name":"InvalidShortString","inputs":[]},{"type":"error","name":"NotDiamond","inputs":[]},{"type":"error","name":"StringTooLong","inputs":[{"name":"str","type":"string","internalType":"string"}]}],"bytecode":{"object":"0x61018060405234801562000011575f80fd5b50604051620058e6380380620058e6833981810160405281019062000037919062000d8a565b6040518060400160405280600581526020017f446974746f000000000000000000000000000000000000000000000000000000815250806040518060400160405280600181526020017f31000000000000000000000000000000000000000000000000000000000000008152506040518060400160405280600581526020017f446974746f0000000000000000000000000000000000000000000000000000008152506040518060400160405280600581526020017f444954544f000000000000000000000000000000000000000000000000000000815250816003908162000121919062001033565b50806004908162000133919062001033565b5050506200014c6005836200024160201b90919060201c565b61012081815250506200016a6006826200024160201b90919060201c565b6101408181525050818051906020012060e08181525050808051906020012061010081815250504660a08181525050620001a96200029660201b60201c565b608081815250503073ffffffffffffffffffffffffffffffffffffffff1660c08173ffffffffffffffffffffffffffffffffffffffff16815250505050508173ffffffffffffffffffffffffffffffffffffffff166101608173ffffffffffffffffffffffffffffffffffffffff168152505062000239816a39e7139a8c08fa06000000620002f260201b60201c565b50506200169d565b5f60208351101562000266576200025e836200030860201b60201c565b905062000290565b8262000278836200037260201b60201c565b5f01908162000288919062001033565b5060ff5f1b90505b92915050565b5f7f8b73c3c69bb8fe3d512ecc4cf759cc79239f7b179b0ffacaa9a75d522b39400f60e051610100514630604051602001620002d795949392919062001153565b60405160208183030381529060405280519060200120905090565b6200030482826200037b60201b60201c565b5050565b5f80829050601f815111156200035757826040517f305a27a90000000000000000000000000000000000000000000000000000000081526004016200034e919062001238565b60405180910390fd5b805181620003659062001289565b5f1c175f1b915050919050565b5f819050919050565b6200038d82826200043460201b60201c565b6200039d6200059960201b60201c565b7bffffffffffffffffffffffffffffffffffffffffffffffffffffffff16620003cb620005bc60201b60201c565b11156200040f576040517f08c379a000000000000000000000000000000000000000000000000000000000815260040162000406906200136c565b60405180910390fd5b6200042e600b620005c560201b620012141783620005dc60201b60201c565b50505050565b5f73ffffffffffffffffffffffffffffffffffffffff168273ffffffffffffffffffffffffffffffffffffffff1603620004a5576040517f08c379a00000000000000000000000000000000000000000000000000000000081526004016200049c90620013da565b60405180910390fd5b620004b85f8383620008e060201b60201c565b8060025f828254620004cb919062001427565b92505081905550805f808473ffffffffffffffffffffffffffffffffffffffff1673ffffffffffffffffffffffffffffffffffffffff1681526020019081526020015f205f82825401925050819055508173ffffffffffffffffffffffffffffffffffffffff165f73ffffffffffffffffffffffffffffffffffffffff167fddf252ad1be2c89b69c2b068fc378daa952ba7f163c4a11628f55a4df523b3ef836040516200057a919062001461565b60405180910390a3620005955f8383620008e560201b60201c565b5050565b5f7bffffffffffffffffffffffffffffffffffffffffffffffffffffffff905090565b5f600254905090565b5f8183620005d4919062001427565b905092915050565b5f805f858054905090505f808214620006a657620006048760018403620008fd60201b60201c565b6040518060400160405290815f82015f9054906101000a900463ffffffff1663ffffffff1663ffffffff1681526020015f820160049054906101000a90047bffffffffffffffffffffffffffffffffffffffffffffffffffffffff167bffffffffffffffffffffffffffffffffffffffffffffffffffffffff167bffffffffffffffffffffffffffffffffffffffffffffffffffffffff1681525050620006e0565b60405180604001604052805f63ffffffff1681526020015f7bffffffffffffffffffffffffffffffffffffffffffffffffffffffff168152505b905080602001517bffffffffffffffffffffffffffffffffffffffffffffffffffffffff1693506200071384868860201c565b92505f82118015620007445750620007306200090f60201b60201c565b65ffffffffffff16815f015163ffffffff16145b15620007c6576200075b836200092660201b60201c565b620007708860018503620008fd60201b60201c565b5f0160046101000a8154817bffffffffffffffffffffffffffffffffffffffffffffffffffffffff02191690837bffffffffffffffffffffffffffffffffffffffffffffffffffffffff160217905550620008d6565b866040518060400160405280620007fa620007e66200090f60201b60201c565b65ffffffffffff166200099360201b60201c565b63ffffffff16815260200162000816866200092660201b60201c565b7bffffffffffffffffffffffffffffffffffffffffffffffffffffffff16815250908060018154018082558091505060019003905f5260205f20015f909190919091505f820151815f015f6101000a81548163ffffffff021916908363ffffffff1602179055506020820151815f0160046101000a8154817bffffffffffffffffffffffffffffffffffffffffffffffffffffffff02191690837bffffffffffffffffffffffffffffffffffffffffffffffffffffffff16021790555050505b5050935093915050565b505050565b620008f8838383620009e860201b60201c565b505050565b5f825f528160205f2001905092915050565b5f620009214362000a3360201b60201c565b905090565b5f7bffffffffffffffffffffffffffffffffffffffffffffffffffffffff80168211156200098b576040517f08c379a00000000000000000000000000000000000000000000000000000000081526004016200098290620014f0565b60405180910390fd5b819050919050565b5f63ffffffff8016821115620009e0576040517f08c379a0000000000000000000000000000000000000000000000000000000008152600401620009d79062001584565b60405180910390fd5b819050919050565b620009fb83838362000a8a60201b60201c565b62000a2e62000a108462000a8f60201b60201c565b62000a218462000a8f60201b60201c565b8362000af460201b60201c565b505050565b5f65ffffffffffff801682111562000a82576040517f08c379a000000000000000000000000000000000000000000000000000000000815260040162000a799062001618565b60405180910390fd5b819050919050565b505050565b5f60095f8373ffffffffffffffffffffffffffffffffffffffff1673ffffffffffffffffffffffffffffffffffffffff1681526020019081526020015f205f9054906101000a900473ffffffffffffffffffffffffffffffffffffffff169050919050565b8173ffffffffffffffffffffffffffffffffffffffff168373ffffffffffffffffffffffffffffffffffffffff161415801562000b3057505f81115b1562000d09575f73ffffffffffffffffffffffffffffffffffffffff168373ffffffffffffffffffffffffffffffffffffffff161462000c1f575f8062000bc6600a5f8773ffffffffffffffffffffffffffffffffffffffff1673ffffffffffffffffffffffffffffffffffffffff1681526020019081526020015f2062000d0e60201b620012291785620005dc60201b60201c565b915091508473ffffffffffffffffffffffffffffffffffffffff167fdec2bacdd2f05b59de34da9b523dff8be42e5e38e818c82fdb0bae774387a724838360405162000c1492919062001638565b60405180910390a250505b5f73ffffffffffffffffffffffffffffffffffffffff168273ffffffffffffffffffffffffffffffffffffffff161462000d08575f8062000caf600a5f8673ffffffffffffffffffffffffffffffffffffffff1673ffffffffffffffffffffffffffffffffffffffff1681526020019081526020015f20620005c560201b620012141785620005dc60201b60201c565b915091508373ffffffffffffffffffffffffffffffffffffffff167fdec2bacdd2f05b59de34da9b523dff8be42e5e38e818c82fdb0bae774387a724838360405162000cfd92919062001638565b60405180910390a250505b5b505050565b5f818362000d1d919062001663565b905092915050565b5f80fd5b5f73ffffffffffffffffffffffffffffffffffffffff82169050919050565b5f62000d548262000d29565b9050919050565b62000d668162000d48565b811462000d71575f80fd5b50565b5f8151905062000d848162000d5b565b92915050565b5f806040838503121562000da35762000da262000d25565b5b5f62000db28582860162000d74565b925050602062000dc58582860162000d74565b9150509250929050565b5f81519050919050565b7f4e487b71000000000000000000000000000000000000000000000000000000005f52604160045260245ffd5b7f4e487b71000000000000000000000000000000000000000000000000000000005f52602260045260245ffd5b5f600282049050600182168062000e4b57607f821691505b60208210810362000e615762000e6062000e06565b5b50919050565b5f819050815f5260205f209050919050565b5f6020601f8301049050919050565b5f82821b905092915050565b5f6008830262000ec57fffffffffffffffffffffffffffffffffffffffffffffffffffffffffffffffff8262000e88565b62000ed1868362000e88565b95508019841693508086168417925050509392505050565b5f819050919050565b5f819050919050565b5f62000f1b62000f1562000f0f8462000ee9565b62000ef2565b62000ee9565b9050919050565b5f819050919050565b62000f368362000efb565b62000f4e62000f458262000f22565b84845462000e94565b825550505050565b5f90565b62000f6462000f56565b62000f7181848462000f2b565b505050565b5b8181101562000f985762000f8c5f8262000f5a565b60018101905062000f77565b5050565b601f82111562000fe75762000fb18162000e67565b62000fbc8462000e79565b8101602085101562000fcc578190505b62000fe462000fdb8562000e79565b83018262000f76565b50505b505050565b5f82821c905092915050565b5f620010095f198460080262000fec565b1980831691505092915050565b5f62001023838362000ff8565b9150826002028217905092915050565b6200103e8262000dcf565b67ffffffffffffffff8111156200105a576200105962000dd9565b5b62001066825462000e33565b6200107382828562000f9c565b5f60209050601f831160018114620010a9575f841562001094578287015190505b620010a0858262001016565b8655506200110f565b601f198416620010b98662000e67565b5f5b82811015620010e257848901518255600182019150602085019450602081019050620010bb565b86831015620011025784890151620010fe601f89168262000ff8565b8355505b6001600288020188555050505b505050505050565b5f819050919050565b6200112b8162001117565b82525050565b6200113c8162000ee9565b82525050565b6200114d8162000d48565b82525050565b5f60a082019050620011685f83018862001120565b62001177602083018762001120565b62001186604083018662001120565b62001195606083018562001131565b620011a4608083018462001142565b9695505050505050565b5f82825260208201905092915050565b5f5b83811015620011dd578082015181840152602081019050620011c0565b5f8484015250505050565b5f601f19601f8301169050919050565b5f620012048262000dcf565b620012108185620011ae565b935062001222818560208601620011be565b6200122d81620011e8565b840191505092915050565b5f6020820190508181035f830152620012528184620011f8565b905092915050565b5f81519050919050565b5f819050602082019050919050565b5f62001280825162001117565b80915050919050565b5f62001295826200125a565b82620012a18462001264565b9050620012ae8162001273565b92506020821015620012f157620012ec7fffffffffffffffffffffffffffffffffffffffffffffffffffffffffffffffff8360200360080262000e88565b831692505b5050919050565b7f4552433230566f7465733a20746f74616c20737570706c79207269736b73206f5f8201527f766572666c6f77696e6720766f74657300000000000000000000000000000000602082015250565b5f62001354603083620011ae565b91506200136182620012f8565b604082019050919050565b5f6020820190508181035f830152620013858162001346565b9050919050565b7f45524332303a206d696e7420746f20746865207a65726f2061646472657373005f82015250565b5f620013c2601f83620011ae565b9150620013cf826200138c565b602082019050919050565b5f6020820190508181035f830152620013f381620013b4565b9050919050565b7f4e487b71000000000000000000000000000000000000000000000000000000005f52601160045260245ffd5b5f620014338262000ee9565b9150620014408362000ee9565b92508282019050808211156200145b576200145a620013fa565b5b92915050565b5f602082019050620014765f83018462001131565b92915050565b7f53616665436173743a2076616c756520646f65736e27742066697420696e20325f8201527f3234206269747300000000000000000000000000000000000000000000000000602082015250565b5f620014d8602783620011ae565b9150620014e5826200147c565b604082019050919050565b5f6020820190508181035f8301526200150981620014ca565b9050919050565b7f53616665436173743a2076616c756520646f65736e27742066697420696e20335f8201527f3220626974730000000000000000000000000000000000000000000000000000602082015250565b5f6200156c602683620011ae565b9150620015798262001510565b604082019050919050565b5f6020820190508181035f8301526200159d816200155e565b9050919050565b7f53616665436173743a2076616c756520646f65736e27742066697420696e20345f8201527f3820626974730000000000000000000000000000000000000000000000000000602082015250565b5f62001600602683620011ae565b91506200160d82620015a4565b604082019050919050565b5f6020820190508181035f8301526200163181620015f2565b9050919050565b5f6040820190506200164d5f83018562001131565b6200165c602083018462001131565b9392505050565b5f6200166f8262000ee9565b91506200167c8362000ee9565b9250828203905081811115620016975762001696620013fa565b5b92915050565b60805160a05160c05160e051610100516101205161014051610160516141e6620017005f395f81816107a401526109d401525f610af601525f610ac201525f611c7901525f611c5801525f61170201525f61175801525f61178101526141e65ff3fe608060405234801561000f575f80fd5b50600436106101a7575f3560e01c806370a08231116100f75780639ab24eb011610095578063c3cda5201161006f578063c3cda52014610535578063d505accf14610551578063dd62ed3e1461056d578063f1127ed81461059d576101a7565b80639ab24eb0146104a5578063a457c2d7146104d5578063a9059cbb14610505576101a7565b806384b0196e116100d157806384b0196e146104155780638e539e8c1461043957806391ddadf41461046957806395d89b4114610487576101a7565b806370a082311461039957806379cc6790146103c95780637ecebe00146103e5576101a7565b806339509351116101645780634bf5d7e91161013e5780634bf5d7e9146102ff578063587cde1e1461031d5780635c19a95c1461034d5780636fcfff4514610369576101a7565b806339509351146102835780633a46b1a8146102b357806340c10f19146102e3576101a7565b806306fdde03146101ab578063095ea7b3146101c957806318160ddd146101f957806323b872dd14610217578063313ce567146102475780633644e51514610265575b5f80fd5b6101b36105cd565b6040516101c09190612c2e565b60405180910390f35b6101e360048036038101906101de9190612cdf565b61065d565b6040516101f09190612d37565b60405180910390f35b61020161067f565b60405161020e9190612d5f565b60405180910390f35b610231600480360381019061022c9190612d78565b610688565b60405161023e9190612d37565b60405180910390f35b61024f6106b6565b60405161025c9190612de3565b60405180910390f35b61026d6106be565b60405161027a9190612e14565b60405180910390f35b61029d60048036038101906102989190612cdf565b6106cc565b6040516102aa9190612d37565b60405180910390f35b6102cd60048036038101906102c89190612cdf565b610702565b6040516102da9190612d5f565b60405180910390f35b6102fd60048036038101906102f89190612cdf565b6107a2565b005b610307610835565b6040516103149190612c2e565b60405180910390f35b61033760048036038101906103329190612e2d565b6108c3565b6040516103449190612e67565b60405180910390f35b61036760048036038101906103629190612e2d565b610928565b005b610383600480360381019061037e9190612e2d565b61093c565b6040516103909190612e9e565b60405180910390f35b6103b360048036038101906103ae9190612e2d565b61098d565b6040516103c09190612d5f565b60405180910390f35b6103e360048036038101906103de9190612cdf565b6109d2565b005b6103ff60048036038101906103fa9190612e2d565b610a65565b60405161040c9190612d5f565b60405180910390f35b61041d610ab2565b6040516104309796959493929190612fa8565b60405180910390f35b610453600480360381019061044e919061302a565b610baf565b6040516104609190612d5f565b60405180910390f35b610471610c13565b60405161047e9190613075565b60405180910390f35b61048f610c22565b60405161049c9190612c2e565b60405180910390f35b6104bf60048036038101906104ba9190612e2d565b610cb2565b6040516104cc9190612d5f565b60405180910390f35b6104ef60048036038101906104ea9190612cdf565b610db0565b6040516104fc9190612d37565b60405180910390f35b61051f600480360381019061051a9190612cdf565b610e25565b60405161052c9190612d37565b60405180910390f35b61054f600480360381019061054a91906130e2565b610e47565b005b61056b6004803603810190610566919061316b565b610f4a565b005b61058760048036038101906105829190613208565b611089565b6040516105949190612d5f565b60405180910390f35b6105b760048036038101906105b29190613270565b61110b565b6040516105c49190613320565b60405180910390f35b6060600380546105dc90613366565b80601f016020809104026020016040519081016040528092919081815260200182805461060890613366565b80156106535780601f1061062a57610100808354040283529160200191610653565b820191905f5260205f20905b81548152906001019060200180831161063657829003601f168201915b5050505050905090565b5f8061066761123e565b9050610674818585611245565b600191505092915050565b5f600254905090565b5f8061069261123e565b905061069f858285611408565b6106aa858585611493565b60019150509392505050565b5f6012905090565b5f6106c76116ff565b905090565b5f806106d661123e565b90506106f78185856106e88589611089565b6106f291906133c3565b611245565b600191505092915050565b5f61070b610c13565b65ffffffffffff168210610754576040517f08c379a000000000000000000000000000000000000000000000000000000000815260040161074b90613440565b60405180910390fd5b61079a600a5f8573ffffffffffffffffffffffffffffffffffffffff1673ffffffffffffffffffffffffffffffffffffffff1681526020019081526020015f20836117b5565b905092915050565b7f000000000000000000000000000000000000000000000000000000000000000073ffffffffffffffffffffffffffffffffffffffff163373ffffffffffffffffffffffffffffffffffffffff1614610827576040517fd04b63aa00000000000000000000000000000000000000000000000000000000815260040160405180910390fd5b61083182826118f2565b5050565b606043610840610c13565b65ffffffffffff1614610888576040517f08c379a000000000000000000000000000000000000000000000000000000000815260040161087f906134a8565b60405180910390fd5b6040518060400160405280601d81526020017f6d6f64653d626c6f636b6e756d6265722666726f6d3d64656661756c74000000815250905090565b5f60095f8373ffffffffffffffffffffffffffffffffffffffff1673ffffffffffffffffffffffffffffffffffffffff1681526020019081526020015f205f9054906101000a900473ffffffffffffffffffffffffffffffffffffffff169050919050565b61093961093361123e565b82611900565b50565b5f610986600a5f8473ffffffffffffffffffffffffffffffffffffffff1673ffffffffffffffffffffffffffffffffffffffff1681526020019081526020015f2080549050611a15565b9050919050565b5f805f8373ffffffffffffffffffffffffffffffffffffffff1673ffffffffffffffffffffffffffffffffffffffff1681526020019081526020015f20549050919050565b7f000000000000000000000000000000000000000000000000000000000000000073ffffffffffffffffffffffffffffffffffffffff163373ffffffffffffffffffffffffffffffffffffffff1614610a57576040517fd04b63aa00000000000000000000000000000000000000000000000000000000815260040160405180910390fd5b610a618282611a67565b5050565b5f610aab60075f8473ffffffffffffffffffffffffffffffffffffffff1673ffffffffffffffffffffffffffffffffffffffff1681526020019081526020015f20611a75565b9050919050565b5f6060805f805f6060610aef60057f0000000000000000000000000000000000000000000000000000000000000000611a8190919063ffffffff16565b610b2360067f0000000000000000000000000000000000000000000000000000000000000000611a8190919063ffffffff16565b46305f801b5f67ffffffffffffffff811115610b4257610b416134c6565b5b604051908082528060200260200182016040528015610b705781602001602082028036833780820191505090505b507f0f00000000000000000000000000000000000000000000000000000000000000959493929190965096509650965096509650965090919293949596565b5f610bb8610c13565b65ffffffffffff168210610c01576040517f08c379a0000000000000000000000000000000000000000000000000000000008152600401610bf890613440565b60405180910390fd5b610c0c600b836117b5565b9050919050565b5f610c1d43611b2e565b905090565b606060048054610c3190613366565b80601f0160208091040260200160405190810160405280929190818152602001828054610c5d90613366565b8015610ca85780601f10610c7f57610100808354040283529160200191610ca8565b820191905f5260205f20905b815481529060010190602001808311610c8b57829003601f168201915b5050505050905090565b5f80600a5f8473ffffffffffffffffffffffffffffffffffffffff1673ffffffffffffffffffffffffffffffffffffffff1681526020019081526020015f208054905090505f8114610d8857600a5f8473ffffffffffffffffffffffffffffffffffffffff1673ffffffffffffffffffffffffffffffffffffffff1681526020019081526020015f206001820381548110610d5057610d4f6134f3565b5b905f5260205f20015f0160049054906101000a90047bffffffffffffffffffffffffffffffffffffffffffffffffffffffff16610d8a565b5f5b7bffffffffffffffffffffffffffffffffffffffffffffffffffffffff16915050919050565b5f80610dba61123e565b90505f610dc78286611089565b905083811015610e0c576040517f08c379a0000000000000000000000000000000000000000000000000000000008152600401610e0390613590565b60405180910390fd5b610e198286868403611245565b60019250505092915050565b5f80610e2f61123e565b9050610e3c818585611493565b600191505092915050565b83421115610e8a576040517f08c379a0000000000000000000000000000000000000000000000000000000008152600401610e81906135f8565b60405180910390fd5b5f610eeb610ee37fe48329057bfd03d55e49b547132e39cffd9c1820ad7b9d4c5307691425d15adf898989604051602001610ec89493929190613616565b60405160208183030381529060405280519060200120611b82565b858585611b9b565b9050610ef681611bc4565b8614610f37576040517f08c379a0000000000000000000000000000000000000000000000000000000008152600401610f2e906136a3565b60405180910390fd5b610f418188611900565b50505050505050565b83421115610f8d576040517f08c379a0000000000000000000000000000000000000000000000000000000008152600401610f849061370b565b60405180910390fd5b5f7f6e71edae12b1b97f4d1f60370fef10105fa2faae0126114a169c64845d6126c9888888610fbb8c611bc4565b89604051602001610fd196959493929190613729565b6040516020818303038152906040528051906020012090505f610ff382611b82565b90505f61100282878787611b9b565b90508973ffffffffffffffffffffffffffffffffffffffff168173ffffffffffffffffffffffffffffffffffffffff1614611072576040517f08c379a0000000000000000000000000000000000000000000000000000000008152600401611069906137d2565b60405180910390fd5b61107d8a8a8a611245565b50505050505050505050565b5f60015f8473ffffffffffffffffffffffffffffffffffffffff1673ffffffffffffffffffffffffffffffffffffffff1681526020019081526020015f205f8373ffffffffffffffffffffffffffffffffffffffff1673ffffffffffffffffffffffffffffffffffffffff1681526020019081526020015f2054905092915050565b611113612b68565b600a5f8473ffffffffffffffffffffffffffffffffffffffff1673ffffffffffffffffffffffffffffffffffffffff1681526020019081526020015f208263ffffffff1681548110611168576111676134f3565b5b905f5260205f20016040518060400160405290815f82015f9054906101000a900463ffffffff1663ffffffff1663ffffffff1681526020015f820160049054906101000a90047bffffffffffffffffffffffffffffffffffffffffffffffffffffffff167bffffffffffffffffffffffffffffffffffffffffffffffffffffffff167bffffffffffffffffffffffffffffffffffffffffffffffffffffffff1681525050905092915050565b5f818361122191906133c3565b905092915050565b5f818361123691906137f0565b905092915050565b5f33905090565b5f73ffffffffffffffffffffffffffffffffffffffff168373ffffffffffffffffffffffffffffffffffffffff16036112b3576040517f08c379a00000000000000000000000000000000000000000000000000000000081526004016112aa90613893565b60405180910390fd5b5f73ffffffffffffffffffffffffffffffffffffffff168273ffffffffffffffffffffffffffffffffffffffff1603611321576040517f08c379a000000000000000000000000000000000000000000000000000000000815260040161131890613921565b60405180910390fd5b8060015f8573ffffffffffffffffffffffffffffffffffffffff1673ffffffffffffffffffffffffffffffffffffffff1681526020019081526020015f205f8473ffffffffffffffffffffffffffffffffffffffff1673ffffffffffffffffffffffffffffffffffffffff1681526020019081526020015f20819055508173ffffffffffffffffffffffffffffffffffffffff168373ffffffffffffffffffffffffffffffffffffffff167f8c5be1e5ebec7d5bd14f71427d1e84f3dd0314c0f7b2291e5b200ac8c7c3b925836040516113fb9190612d5f565b60405180910390a3505050565b5f6114138484611089565b90507fffffffffffffffffffffffffffffffffffffffffffffffffffffffffffffffff811461148d578181101561147f576040517f08c379a000000000000000000000000000000000000000000000000000000000815260040161147690613989565b60405180910390fd5b61148c8484848403611245565b5b50505050565b5f73ffffffffffffffffffffffffffffffffffffffff168373ffffffffffffffffffffffffffffffffffffffff1603611501576040517f08c379a00000000000000000000000000000000000000000000000000000000081526004016114f890613a17565b60405180910390fd5b5f73ffffffffffffffffffffffffffffffffffffffff168273ffffffffffffffffffffffffffffffffffffffff160361156f576040517f08c379a000000000000000000000000000000000000000000000000000000000815260040161156690613aa5565b60405180910390fd5b61157a838383611c1f565b5f805f8573ffffffffffffffffffffffffffffffffffffffff1673ffffffffffffffffffffffffffffffffffffffff1681526020019081526020015f20549050818110156115fd576040517f08c379a00000000000000000000000000000000000000000000000000000000081526004016115f490613b33565b60405180910390fd5b8181035f808673ffffffffffffffffffffffffffffffffffffffff1673ffffffffffffffffffffffffffffffffffffffff1681526020019081526020015f2081905550815f808573ffffffffffffffffffffffffffffffffffffffff1673ffffffffffffffffffffffffffffffffffffffff1681526020019081526020015f205f82825401925050819055508273ffffffffffffffffffffffffffffffffffffffff168473ffffffffffffffffffffffffffffffffffffffff167fddf252ad1be2c89b69c2b068fc378daa952ba7f163c4a11628f55a4df523b3ef846040516116e69190612d5f565b60405180910390a36116f9848484611c24565b50505050565b5f7f000000000000000000000000000000000000000000000000000000000000000073ffffffffffffffffffffffffffffffffffffffff163073ffffffffffffffffffffffffffffffffffffffff1614801561177a57507f000000000000000000000000000000000000000000000000000000000000000046145b156117a7577f000000000000000000000000000000000000000000000000000000000000000090506117b2565b6117af611c34565b90505b90565b5f80838054905090505f808290506005831115611826575f6117d684611cc9565b846117e191906137f0565b9050856117ee8883611dbf565b5f015f9054906101000a900463ffffffff1663ffffffff16111561181457809150611824565b60018161182191906133c3565b92505b505b5b80821015611883575f61183a8383611dd1565b9050856118478883611dbf565b5f015f9054906101000a900463ffffffff1663ffffffff16111561186d5780915061187d565b60018161187a91906133c3565b92505b50611827565b5f81146118c7576118978660018303611dbf565b5f0160049054906101000a90047bffffffffffffffffffffffffffffffffffffffffffffffffffffffff166118c9565b5f5b7bffffffffffffffffffffffffffffffffffffffffffffffffffffffff16935050505092915050565b6118fc8282611df6565b5050565b5f61190a836108c3565b90505f6119168461098d565b90508260095f8673ffffffffffffffffffffffffffffffffffffffff1673ffffffffffffffffffffffffffffffffffffffff1681526020019081526020015f205f6101000a81548173ffffffffffffffffffffffffffffffffffffffff021916908373ffffffffffffffffffffffffffffffffffffffff1602179055508273ffffffffffffffffffffffffffffffffffffffff168273ffffffffffffffffffffffffffffffffffffffff168573ffffffffffffffffffffffffffffffffffffffff167f3134e8a2e6d97e929a7e54011ea5485d7d196dd5f0ba4d4ef95803e8e3fc257f60405160405180910390a4611a0f828483611e83565b50505050565b5f63ffffffff8016821115611a5f576040517f08c379a0000000000000000000000000000000000000000000000000000000008152600401611a5690613bc1565b60405180910390fd5b819050919050565b611a718282612073565b5050565b5f815f01549050919050565b606060ff5f1b8314611a9d57611a9683612091565b9050611b28565b818054611aa990613366565b80601f0160208091040260200160405190810160405280929190818152602001828054611ad590613366565b8015611b205780601f10611af757610100808354040283529160200191611b20565b820191905f5260205f20905b815481529060010190602001808311611b0357829003601f168201915b505050505090505b92915050565b5f65ffffffffffff8016821115611b7a576040517f08c379a0000000000000000000000000000000000000000000000000000000008152600401611b7190613c4f565b60405180910390fd5b819050919050565b5f611b94611b8e6116ff565b83612103565b9050919050565b5f805f611baa87878787612143565b91509150611bb78161221b565b8192505050949350505050565b5f8060075f8473ffffffffffffffffffffffffffffffffffffffff1673ffffffffffffffffffffffffffffffffffffffff1681526020019081526020015f209050611c0e81611a75565b9150611c1981612380565b50919050565b505050565b611c2f838383612394565b505050565b5f7f8b73c3c69bb8fe3d512ecc4cf759cc79239f7b179b0ffacaa9a75d522b39400f7f00000000000000000000000000000000000000000000000000000000000000007f00000000000000000000000000000000000000000000000000000000000000004630604051602001611cae959493929190613c6d565b60405160208183030381529060405280519060200120905090565b5f808203611cd9575f9050611dba565b5f6001611ce5846123bf565b901c6001901b90506001818481611cff57611cfe613cbe565b5b048201901c90506001818481611d1857611d17613cbe565b5b048201901c90506001818481611d3157611d30613cbe565b5b048201901c90506001818481611d4a57611d49613cbe565b5b048201901c90506001818481611d6357611d62613cbe565b5b048201901c90506001818481611d7c57611d7b613cbe565b5b048201901c90506001818481611d9557611d94613cbe565b5b048201901c9050611db681828581611db057611daf613cbe565b5b04612496565b9150505b919050565b5f825f528160205f2001905092915050565b5f6002828418611de19190613ceb565b828416611dee91906133c3565b905092915050565b611e0082826124ae565b611e086125fc565b7bffffffffffffffffffffffffffffffffffffffffffffffffffffffff16611e2e61067f565b1115611e6f576040517f08c379a0000000000000000000000000000000000000000000000000000000008152600401611e6690613d8b565b60405180910390fd5b611e7d600b6112148361261f565b50505050565b8173ffffffffffffffffffffffffffffffffffffffff168373ffffffffffffffffffffffffffffffffffffffff1614158015611ebe57505f81115b1561206e575f73ffffffffffffffffffffffffffffffffffffffff168373ffffffffffffffffffffffffffffffffffffffff1614611f98575f80611f41600a5f8773ffffffffffffffffffffffffffffffffffffffff1673ffffffffffffffffffffffffffffffffffffffff1681526020019081526020015f206112298561261f565b915091508473ffffffffffffffffffffffffffffffffffffffff167fdec2bacdd2f05b59de34da9b523dff8be42e5e38e818c82fdb0bae774387a7248383604051611f8d929190613da9565b60405180910390a250505b5f73ffffffffffffffffffffffffffffffffffffffff168273ffffffffffffffffffffffffffffffffffffffff161461206d575f80612016600a5f8673ffffffffffffffffffffffffffffffffffffffff1673ffffffffffffffffffffffffffffffffffffffff1681526020019081526020015f206112148561261f565b915091508373ffffffffffffffffffffffffffffffffffffffff167fdec2bacdd2f05b59de34da9b523dff8be42e5e38e818c82fdb0bae774387a7248383604051612062929190613da9565b60405180910390a250505b5b505050565b61207d82826128e8565b61208b600b6112298361261f565b50505050565b60605f61209d83612aab565b90505f602067ffffffffffffffff8111156120bb576120ba6134c6565b5b6040519080825280601f01601f1916602001820160405280156120ed5781602001600182028036833780820191505090505b5090508181528360208201528092505050919050565b5f6040517f190100000000000000000000000000000000000000000000000000000000000081528360028201528260228201526042812091505092915050565b5f807f7fffffffffffffffffffffffffffffff5d576e7357a4501ddfe92f46681b20a0835f1c111561217b575f600391509150612212565b5f6001878787876040515f815260200160405260405161219e9493929190613dd0565b6020604051602081039080840390855afa1580156121be573d5f803e3d5ffd5b5050506020604051035190505f73ffffffffffffffffffffffffffffffffffffffff168173ffffffffffffffffffffffffffffffffffffffff160361220a575f60019250925050612212565b805f92509250505b94509492505050565b5f600481111561222e5761222d613e13565b5b81600481111561224157612240613e13565b5b031561237d576001600481111561225b5761225a613e13565b5b81600481111561226e5761226d613e13565b5b036122ae576040517f08c379a00000000000000000000000000000000000000000000000000000000081526004016122a590613e8a565b60405180910390fd5b600260048111156122c2576122c1613e13565b5b8160048111156122d5576122d4613e13565b5b03612315576040517f08c379a000000000000000000000000000000000000000000000000000000000815260040161230c90613ef2565b60405180910390fd5b6003600481111561232957612328613e13565b5b81600481111561233c5761233b613e13565b5b0361237c576040517f08c379a000000000000000000000000000000000000000000000000000000000815260040161237390613f80565b60405180910390fd5b5b50565b6001815f015f828254019250508190555050565b61239f838383612af9565b6123ba6123ab846108c3565b6123b4846108c3565b83611e83565b505050565b5f805f90505f608084901c11156123de57608083901c92506080810190505b5f604084901c11156123f857604083901c92506040810190505b5f602084901c111561241257602083901c92506020810190505b5f601084901c111561242c57601083901c92506010810190505b5f600884901c111561244657600883901c92506008810190505b5f600484901c111561246057600483901c92506004810190505b5f600284901c111561247a57600283901c92506002810190505b5f600184901c111561248d576001810190505b80915050919050565b5f8183106124a457816124a6565b825b905092915050565b5f73ffffffffffffffffffffffffffffffffffffffff168273ffffffffffffffffffffffffffffffffffffffff160361251c576040517f08c379a000000000000000000000000000000000000000000000000000000000815260040161251390613fe8565b60405180910390fd5b6125275f8383611c1f565b8060025f82825461253891906133c3565b92505081905550805f808473ffffffffffffffffffffffffffffffffffffffff1673ffffffffffffffffffffffffffffffffffffffff1681526020019081526020015f205f82825401925050819055508173ffffffffffffffffffffffffffffffffffffffff165f73ffffffffffffffffffffffffffffffffffffffff167fddf252ad1be2c89b69c2b068fc378daa952ba7f163c4a11628f55a4df523b3ef836040516125e59190612d5f565b60405180910390a36125f85f8383611c24565b5050565b5f7bffffffffffffffffffffffffffffffffffffffffffffffffffffffff905090565b5f805f858054905090505f8082146126df5761263e8760018403611dbf565b6040518060400160405290815f82015f9054906101000a900463ffffffff1663ffffffff1663ffffffff1681526020015f820160049054906101000a90047bffffffffffffffffffffffffffffffffffffffffffffffffffffffff167bffffffffffffffffffffffffffffffffffffffffffffffffffffffff167bffffffffffffffffffffffffffffffffffffffffffffffffffffffff1681525050612719565b60405180604001604052805f63ffffffff1681526020015f7bffffffffffffffffffffffffffffffffffffffffffffffffffffffff168152505b905080602001517bffffffffffffffffffffffffffffffffffffffffffffffffffffffff16935061274e84868863ffffffff16565b92505f821180156127765750612762610c13565b65ffffffffffff16815f015163ffffffff16145b156127e65761278483612afe565b6127918860018503611dbf565b5f0160046101000a8154817bffffffffffffffffffffffffffffffffffffffffffffffffffffffff02191690837bffffffffffffffffffffffffffffffffffffffffffffffffffffffff1602179055506128de565b86604051806040016040528061280a6127fd610c13565b65ffffffffffff16611a15565b63ffffffff16815260200161281e86612afe565b7bffffffffffffffffffffffffffffffffffffffffffffffffffffffff16815250908060018154018082558091505060019003905f5260205f20015f909190919091505f820151815f015f6101000a81548163ffffffff021916908363ffffffff1602179055506020820151815f0160046101000a8154817bffffffffffffffffffffffffffffffffffffffffffffffffffffffff02191690837bffffffffffffffffffffffffffffffffffffffffffffffffffffffff16021790555050505b5050935093915050565b5f73ffffffffffffffffffffffffffffffffffffffff168273ffffffffffffffffffffffffffffffffffffffff1603612956576040517f08c379a000000000000000000000000000000000000000000000000000000000815260040161294d90614076565b60405180910390fd5b612961825f83611c1f565b5f805f8473ffffffffffffffffffffffffffffffffffffffff1673ffffffffffffffffffffffffffffffffffffffff1681526020019081526020015f20549050818110156129e4576040517f08c379a00000000000000000000000000000000000000000000000000000000081526004016129db90614104565b60405180910390fd5b8181035f808573ffffffffffffffffffffffffffffffffffffffff1673ffffffffffffffffffffffffffffffffffffffff1681526020019081526020015f20819055508160025f82825403925050819055505f73ffffffffffffffffffffffffffffffffffffffff168373ffffffffffffffffffffffffffffffffffffffff167fddf252ad1be2c89b69c2b068fc378daa952ba7f163c4a11628f55a4df523b3ef84604051612a939190612d5f565b60405180910390a3612aa6835f84611c24565b505050565b5f8060ff835f1c169050601f811115612af0576040517fb3512b0c00000000000000000000000000000000000000000000000000000000815260040160405180910390fd5b80915050919050565b505050565b5f7bffffffffffffffffffffffffffffffffffffffffffffffffffffffff8016821115612b60576040517f08c379a0000000000000000000000000000000000000000000000000000000008152600401612b5790614192565b60405180910390fd5b819050919050565b60405180604001604052805f63ffffffff1681526020015f7bffffffffffffffffffffffffffffffffffffffffffffffffffffffff1681525090565b5f81519050919050565b5f82825260208201905092915050565b5f5b83811015612bdb578082015181840152602081019050612bc0565b5f8484015250505050565b5f601f19601f8301169050919050565b5f612c0082612ba4565b612c0a8185612bae565b9350612c1a818560208601612bbe565b612c2381612be6565b840191505092915050565b5f6020820190508181035f830152612c468184612bf6565b905092915050565b5f80fd5b5f73ffffffffffffffffffffffffffffffffffffffff82169050919050565b5f612c7b82612c52565b9050919050565b612c8b81612c71565b8114612c95575f80fd5b50565b5f81359050612ca681612c82565b92915050565b5f819050919050565b612cbe81612cac565b8114612cc8575f80fd5b50565b5f81359050612cd981612cb5565b92915050565b5f8060408385031215612cf557612cf4612c4e565b5b5f612d0285828601612c98565b9250506020612d1385828601612ccb565b9150509250929050565b5f8115159050919050565b612d3181612d1d565b82525050565b5f602082019050612d4a5f830184612d28565b92915050565b612d5981612cac565b82525050565b5f602082019050612d725f830184612d50565b92915050565b5f805f60608486031215612d8f57612d8e612c4e565b5b5f612d9c86828701612c98565b9350506020612dad86828701612c98565b9250506040612dbe86828701612ccb565b9150509250925092565b5f60ff82169050919050565b612ddd81612dc8565b82525050565b5f602082019050612df65f830184612dd4565b92915050565b5f819050919050565b612e0e81612dfc565b82525050565b5f602082019050612e275f830184612e05565b92915050565b5f60208284031215612e4257612e41612c4e565b5b5f612e4f84828501612c98565b91505092915050565b612e6181612c71565b82525050565b5f602082019050612e7a5f830184612e58565b92915050565b5f63ffffffff82169050919050565b612e9881612e80565b82525050565b5f602082019050612eb15f830184612e8f565b92915050565b5f7fff0000000000000000000000000000000000000000000000000000000000000082169050919050565b612eeb81612eb7565b82525050565b5f81519050919050565b5f82825260208201905092915050565b5f819050602082019050919050565b612f2381612cac565b82525050565b5f612f348383612f1a565b60208301905092915050565b5f602082019050919050565b5f612f5682612ef1565b612f608185612efb565b9350612f6b83612f0b565b805f5b83811015612f9b578151612f828882612f29565b9750612f8d83612f40565b925050600181019050612f6e565b5085935050505092915050565b5f60e082019050612fbb5f83018a612ee2565b8181036020830152612fcd8189612bf6565b90508181036040830152612fe18188612bf6565b9050612ff06060830187612d50565b612ffd6080830186612e58565b61300a60a0830185612e05565b81810360c083015261301c8184612f4c565b905098975050505050505050565b5f6020828403121561303f5761303e612c4e565b5b5f61304c84828501612ccb565b91505092915050565b5f65ffffffffffff82169050919050565b61306f81613055565b82525050565b5f6020820190506130885f830184613066565b92915050565b61309781612dc8565b81146130a1575f80fd5b50565b5f813590506130b28161308e565b92915050565b6130c181612dfc565b81146130cb575f80fd5b50565b5f813590506130dc816130b8565b92915050565b5f805f805f8060c087890312156130fc576130fb612c4e565b5b5f61310989828a01612c98565b965050602061311a89828a01612ccb565b955050604061312b89828a01612ccb565b945050606061313c89828a016130a4565b935050608061314d89828a016130ce565b92505060a061315e89828a016130ce565b9150509295509295509295565b5f805f805f805f60e0888a03121561318657613185612c4e565b5b5f6131938a828b01612c98565b97505060206131a48a828b01612c98565b96505060406131b58a828b01612ccb565b95505060606131c68a828b01612ccb565b94505060806131d78a828b016130a4565b93505060a06131e88a828b016130ce565b92505060c06131f98a828b016130ce565b91505092959891949750929550565b5f806040838503121561321e5761321d612c4e565b5b5f61322b85828601612c98565b925050602061323c85828601612c98565b9150509250929050565b61324f81612e80565b8114613259575f80fd5b50565b5f8135905061326a81613246565b92915050565b5f806040838503121561328657613285612c4e565b5b5f61329385828601612c98565b92505060206132a48582860161325c565b9150509250929050565b6132b781612e80565b82525050565b5f7bffffffffffffffffffffffffffffffffffffffffffffffffffffffff82169050919050565b6132ed816132bd565b82525050565b604082015f8201516133075f8501826132ae565b50602082015161331a60208501826132e4565b50505050565b5f6040820190506133335f8301846132f3565b92915050565b7f4e487b71000000000000000000000000000000000000000000000000000000005f52602260045260245ffd5b5f600282049050600182168061337d57607f821691505b6020821081036133905761338f613339565b5b50919050565b7f4e487b71000000000000000000000000000000000000000000000000000000005f52601160045260245ffd5b5f6133cd82612cac565b91506133d883612cac565b92508282019050808211156133f0576133ef613396565b5b92915050565b7f4552433230566f7465733a20667574757265206c6f6f6b7570000000000000005f82015250565b5f61342a601983612bae565b9150613435826133f6565b602082019050919050565b5f6020820190508181035f8301526134578161341e565b9050919050565b7f4552433230566f7465733a2062726f6b656e20636c6f636b206d6f64650000005f82015250565b5f613492601d83612bae565b915061349d8261345e565b602082019050919050565b5f6020820190508181035f8301526134bf81613486565b9050919050565b7f4e487b71000000000000000000000000000000000000000000000000000000005f52604160045260245ffd5b7f4e487b71000000000000000000000000000000000000000000000000000000005f52603260045260245ffd5b7f45524332303a2064656372656173656420616c6c6f77616e63652062656c6f775f8201527f207a65726f000000000000000000000000000000000000000000000000000000602082015250565b5f61357a602583612bae565b915061358582613520565b604082019050919050565b5f6020820190508181035f8301526135a78161356e565b9050919050565b7f4552433230566f7465733a207369676e617475726520657870697265640000005f82015250565b5f6135e2601d83612bae565b91506135ed826135ae565b602082019050919050565b5f6020820190508181035f83015261360f816135d6565b9050919050565b5f6080820190506136295f830187612e05565b6136366020830186612e58565b6136436040830185612d50565b6136506060830184612d50565b95945050505050565b7f4552433230566f7465733a20696e76616c6964206e6f6e6365000000000000005f82015250565b5f61368d601983612bae565b915061369882613659565b602082019050919050565b5f6020820190508181035f8301526136ba81613681565b9050919050565b7f45524332305065726d69743a206578706972656420646561646c696e650000005f82015250565b5f6136f5601d83612bae565b9150613700826136c1565b602082019050919050565b5f6020820190508181035f830152613722816136e9565b9050919050565b5f60c08201905061373c5f830189612e05565b6137496020830188612e58565b6137566040830187612e58565b6137636060830186612d50565b6137706080830185612d50565b61377d60a0830184612d50565b979650505050505050565b7f45524332305065726d69743a20696e76616c6964207369676e617475726500005f82015250565b5f6137bc601e83612bae565b91506137c782613788565b602082019050919050565b5f6020820190508181035f8301526137e9816137b0565b9050919050565b5f6137fa82612cac565b915061380583612cac565b925082820390508181111561381d5761381c613396565b5b92915050565b7f45524332303a20617070726f76652066726f6d20746865207a65726f206164645f8201527f7265737300000000000000000000000000000000000000000000000000000000602082015250565b5f61387d602483612bae565b915061388882613823565b604082019050919050565b5f6020820190508181035f8301526138aa81613871565b9050919050565b7f45524332303a20617070726f766520746f20746865207a65726f2061646472655f8201527f7373000000000000000000000000000000000000000000000000000000000000602082015250565b5f61390b602283612bae565b9150613916826138b1565b604082019050919050565b5f6020820190508181035f830152613938816138ff565b9050919050565b7f45524332303a20696e73756666696369656e7420616c6c6f77616e63650000005f82015250565b5f613973601d83612bae565b915061397e8261393f565b602082019050919050565b5f6020820190508181035f8301526139a081613967565b9050919050565b7f45524332303a207472616e736665722066726f6d20746865207a65726f2061645f8201527f6472657373000000000000000000000000000000000000000000000000000000602082015250565b5f613a01602583612bae565b9150613a0c826139a7565b604082019050919050565b5f6020820190508181035f830152613a2e816139f5565b9050919050565b7f45524332303a207472616e7366657220746f20746865207a65726f20616464725f8201527f6573730000000000000000000000000000000000000000000000000000000000602082015250565b5f613a8f602383612bae565b9150613a9a82613a35565b604082019050919050565b5f6020820190508181035f830152613abc81613a83565b9050919050565b7f45524332303a207472616e7366657220616d6f756e74206578636565647320625f8201527f616c616e63650000000000000000000000000000000000000000000000000000602082015250565b5f613b1d602683612bae565b9150613b2882613ac3565b604082019050919050565b5f6020820190508181035f830152613b4a81613b11565b9050919050565b7f53616665436173743a2076616c756520646f65736e27742066697420696e20335f8201527f3220626974730000000000000000000000000000000000000000000000000000602082015250565b5f613bab602683612bae565b9150613bb682613b51565b604082019050919050565b5f6020820190508181035f830152613bd881613b9f565b9050919050565b7f53616665436173743a2076616c756520646f65736e27742066697420696e20345f8201527f3820626974730000000000000000000000000000000000000000000000000000602082015250565b5f613c39602683612bae565b9150613c4482613bdf565b604082019050919050565b5f6020820190508181035f830152613c6681613c2d565b9050919050565b5f60a082019050613c805f830188612e05565b613c8d6020830187612e05565b613c9a6040830186612e05565b613ca76060830185612d50565b613cb46080830184612e58565b9695505050505050565b7f4e487b71000000000000000000000000000000000000000000000000000000005f52601260045260245ffd5b5f613cf582612cac565b9150613d0083612cac565b925082613d1057613d0f613cbe565b5b828204905092915050565b7f4552433230566f7465733a20746f74616c20737570706c79207269736b73206f5f8201527f766572666c6f77696e6720766f74657300000000000000000000000000000000602082015250565b5f613d75603083612bae565b9150613d8082613d1b565b604082019050919050565b5f6020820190508181035f830152613da281613d69565b9050919050565b5f604082019050613dbc5f830185612d50565b613dc96020830184612d50565b9392505050565b5f608082019050613de35f830187612e05565b613df06020830186612dd4565b613dfd6040830185612e05565b613e0a6060830184612e05565b95945050505050565b7f4e487b71000000000000000000000000000000000000000000000000000000005f52602160045260245ffd5b7f45434453413a20696e76616c6964207369676e617475726500000000000000005f82015250565b5f613e74601883612bae565b9150613e7f82613e40565b602082019050919050565b5f6020820190508181035f830152613ea181613e68565b9050919050565b7f45434453413a20696e76616c6964207369676e6174757265206c656e677468005f82015250565b5f613edc601f83612bae565b9150613ee782613ea8565b602082019050919050565b5f6020820190508181035f830152613f0981613ed0565b9050919050565b7f45434453413a20696e76616c6964207369676e6174757265202773272076616c5f8201527f7565000000000000000000000000000000000000000000000000000000000000602082015250565b5f613f6a602283612bae565b9150613f7582613f10565b604082019050919050565b5f6020820190508181035f830152613f9781613f5e565b9050919050565b7f45524332303a206d696e7420746f20746865207a65726f2061646472657373005f82015250565b5f613fd2601f83612bae565b9150613fdd82613f9e565b602082019050919050565b5f6020820190508181035f830152613fff81613fc6565b9050919050565b7f45524332303a206275726e2066726f6d20746865207a65726f206164647265735f8201527f7300000000000000000000000000000000000000000000000000000000000000602082015250565b5f614060602183612bae565b915061406b82614006565b604082019050919050565b5f6020820190508181035f83015261408d81614054565b9050919050565b7f45524332303a206275726e20616d6f756e7420657863656564732062616c616e5f8201527f6365000000000000000000000000000000000000000000000000000000000000602082015250565b5f6140ee602283612bae565b91506140f982614094565b604082019050919050565b5f6020820190508181035f83015261411b816140e2565b9050919050565b7f53616665436173743a2076616c756520646f65736e27742066697420696e20325f8201527f3234206269747300000000000000000000000000000000000000000000000000602082015250565b5f61417c602783612bae565b915061418782614122565b604082019050919050565b5f6020820190508181035f8301526141a981614170565b905091905056fea26469706673582212204c5d82572f145a40286b240f39575f338c93af78fc0be7a21f9876381e7491e164736f6c63430008150033","linkReferences":{}},"methodIdentifiers":{"CLOCK_MODE()":"4bf5d7e9","DOMAIN_SEPARATOR()":"3644e515","allowance(address,address)":"dd62ed3e","approve(address,uint256)":"095ea7b3","balanceOf(address)":"70a08231","burnFrom(address,uint256)":"79cc6790","checkpoints(address,uint32)":"f1127ed8","clock()":"91ddadf4","decimals()":"313ce567","decreaseAllowance(address,uint256)":"a457c2d7","delegate(address)":"5c19a95c","delegateBySig(address,uint256,uint256,uint8,bytes32,bytes32)":"c3cda520","delegates(address)":"587cde1e","eip712Domain()":"84b0196e","getPastTotalSupply(uint256)":"8e539e8c","getPastVotes(address,uint256)":"3a46b1a8","getVotes(address)":"9ab24eb0","increaseAllowance(address,uint256)":"39509351","mint(address,uint256)":"40c10f19","name()":"06fdde03","nonces(address)":"7ecebe00","numCheckpoints(address)":"6fcfff45","permit(address,address,uint256,uint256,uint8,bytes32,bytes32)":"d505accf","symbol()":"95d89b41","totalSupply()":"18160ddd","transfer(address,uint256)":"a9059cbb","transferFrom(address,address,uint256)":"23b872dd"},"id":61}