{"abi":[{"type":"function","name":"implementation","inputs":[],"outputs":[{"name":"","type":"address","internalType":"address"}],"stateMutability":"view"},{"type":"function","name":"setDummyImplementation","inputs":[{"name":"_implementation","type":"address","internalType":"address"}],"outputs":[],"stateMutability":"nonpayable"},{"type":"event","name":"Upgraded","inputs":[{"name":"implementation","type":"address","indexed":true,"internalType":"address"}],"anonymous":false}],"bytecode":{"object":"0x608060405234801561000f575f80fd5b506103ed8061001d5f395ff3fe608060405234801561000f575f80fd5b5060043610610034575f3560e01c80635c60da1b14610038578063c39aa07d14610056575b5f80fd5b610040610072565b60405161004d91906102a7565b60405180910390f35b610070600480360381019061006b91906102ee565b610080565b005b5f61007b610094565b905090565b6100886100e7565b61009181610182565b50565b5f6100c07f360894a13ba1a3210667c828492db98dca3e2076cc3735a920a3ca505d382bbc5f1b610233565b5f015f9054906101000a900473ffffffffffffffffffffffffffffffffffffffff16905090565b6100ef61023c565b60030160029054906101000a900473ffffffffffffffffffffffffffffffffffffffff1673ffffffffffffffffffffffffffffffffffffffff163373ffffffffffffffffffffffffffffffffffffffff1614610180576040517f08c379a000000000000000000000000000000000000000000000000000000000815260040161017790610399565b60405180910390fd5b565b806101ae7f360894a13ba1a3210667c828492db98dca3e2076cc3735a920a3ca505d382bbc5f1b610233565b5f015f6101000a81548173ffffffffffffffffffffffffffffffffffffffff021916908373ffffffffffffffffffffffffffffffffffffffff1602179055508073ffffffffffffffffffffffffffffffffffffffff167fbc7cd75a20ee27fd9adebab32041f755214dbc6bffa90cc0225b39da2e5c2d3b60405160405180910390a250565b5f819050919050565b5f807fc8fcad8db84d3cc18b4c41d551ea0ee66dd599cde068d998e57d5e09332c131c90508091505090565b5f73ffffffffffffffffffffffffffffffffffffffff82169050919050565b5f61029182610268565b9050919050565b6102a181610287565b82525050565b5f6020820190506102ba5f830184610298565b92915050565b5f80fd5b6102cd81610287565b81146102d7575f80fd5b50565b5f813590506102e8816102c4565b92915050565b5f60208284031215610303576103026102c0565b5b5f610310848285016102da565b91505092915050565b5f82825260208201905092915050565b7f4c69624469616d6f6e643a204d75737420626520636f6e7472616374206f776e5f8201527f6572000000000000000000000000000000000000000000000000000000000000602082015250565b5f610383602283610319565b915061038e82610329565b604082019050919050565b5f6020820190508181035f8301526103b081610377565b905091905056fea2646970667358221220d10bd4b13b3565d71401456dbafb9209a747c061a53abd3dd936c05ee98fccca64736f6c63430008150033","linkReferences":{}},"methodIdentifiers":{"implementation()":"5c60da1b","setDummyImplementation(address)":"c39aa07d"},"id":8}