{"abi":[{"type":"function","name":"facetAddress","inputs":[{"name":"_functionSelector","type":"bytes4","internalType":"bytes4"}],"outputs":[{"name":"facetAddress_","type":"address","internalType":"address"}],"stateMutability":"view"},{"type":"function","name":"facetAddresses","inputs":[],"outputs":[{"name":"facetAddresses_","type":"address[]","internalType":"address[]"}],"stateMutability":"view"},{"type":"function","name":"facetFunctionSelectors","inputs":[{"name":"_facet","type":"address","internalType":"address"}],"outputs":[{"name":"_facetFunctionSelectors","type":"bytes4[]","internalType":"bytes4[]"}],"stateMutability":"view"},{"type":"function","name":"facets","inputs":[],"outputs":[{"name":"facets_","type":"tuple[]","internalType":"struct IDiamondLoupe.Facet[]","components":[{"name":"facetAddress","type":"address","internalType":"address"},{"name":"functionSelectors","type":"bytes4[]","internalType":"bytes4[]"}]}],"stateMutability":"view"}],"bytecode":{"object":"0x608060405234801561000f575f80fd5b506111af8061001d5f395ff3fe608060405234801561000f575f80fd5b506004361061004a575f3560e01c806352ef6b2c1461004e5780637a0ed6271461006c578063adfca15e1461008a578063cdffacc6146100ba575b5f80fd5b6100566100ea565b6040516100639190610c7d565b60405180910390f35b61007461033e565b6040516100819190610e74565b60405180910390f35b6100a4600480360381019061009f9190610ec2565b6108bf565b6040516100b19190610f59565b60405180910390f35b6100d460048036038101906100cf9190610fa3565b610ad3565b6040516100e19190610fdd565b60405180910390f35b60605f6100f5610b3b565b9050806003015f9054906101000a900461ffff1661ffff1667ffffffffffffffff81111561012657610125610ff6565b5b6040519080825280602002602001820160405280156101545781602001602082028036833780820191505090505b5091505f805f5b836003015f9054906101000a900461ffff1661ffff16821015610334575f846001015f8381526020019081526020015f205490505f5b600881101561031f5783806101a590611059565b945050856003015f9054906101000a900461ffff1661ffff16841161031f575f600582901b83901b90505f875f015f837bffffffffffffffffffffffffffffffffffffffffffffffffffffffff19167bffffffffffffffffffffffffffffffffffffffffffffffffffffffff191681526020019081526020015f205460601c90505f805b8881101561029a578a8181518110610244576102436110a0565b5b602002602001015173ffffffffffffffffffffffffffffffffffffffff168373ffffffffffffffffffffffffffffffffffffffff1603610287576001915061029a565b808061029290611059565b915050610229565b5080156102ac575f905050505061030c565b818a89815181106102c0576102bf6110a0565b5b602002602001019073ffffffffffffffffffffffffffffffffffffffff16908173ffffffffffffffffffffffffffffffffffffffff1681525050878061030590611059565b9850505050505b808061031790611059565b915050610191565b5050808061032c90611059565b91505061015b565b5081845250505090565b60605f610349610b3b565b9050806003015f9054906101000a900461ffff1661ffff1667ffffffffffffffff81111561037a57610379610ff6565b5b6040519080825280602002602001820160405280156103b357816020015b6103a0610b67565b8152602001906001900390816103985790505b5091505f816003015f9054906101000a900461ffff1661ffff1667ffffffffffffffff8111156103e6576103e5610ff6565b5b6040519080825280602002602001820160405280156104145781602001602082028036833780820191505090505b5090505f805f5b846003015f9054906101000a900461ffff1661ffff1682101561084e575f856001015f8381526020019081526020015f205490505f5b600881101561083957838061046590611059565b945050866003015f9054906101000a900461ffff1661ffff168411610839575f600582901b83901b90505f885f015f837bffffffffffffffffffffffffffffffffffffffffffffffffffffffff19167bffffffffffffffffffffffffffffffffffffffffffffffffffffffff191681526020019081526020015f205460601c90505f805b8881101561068a578273ffffffffffffffffffffffffffffffffffffffff168c828151811061051b5761051a6110a0565b5b60200260200101515f015173ffffffffffffffffffffffffffffffffffffffff160361067757838c8281518110610555576105546110a0565b5b6020026020010151602001518b8381518110610574576105736110a0565b5b602002602001015160ff16815181106105905761058f6110a0565b5b60200260200101907bffffffffffffffffffffffffffffffffffffffffffffffffffffffff191690817bffffffffffffffffffffffffffffffffffffffffffffffffffffffff19168152505060ff8a82815181106105f1576105f06110a0565b5b602002602001015160ff161061063c576040517f08c379a000000000000000000000000000000000000000000000000000000000815260040161063390611127565b60405180910390fd5b89818151811061064f5761064e6110a0565b5b60200260200101805180919061066490611151565b60ff1660ff16815250506001915061068a565b808061068290611059565b9150506104e9565b50801561069c575f9050505050610826565b818b89815181106106b0576106af6110a0565b5b60200260200101515f019073ffffffffffffffffffffffffffffffffffffffff16908173ffffffffffffffffffffffffffffffffffffffff1681525050896003015f9054906101000a900461ffff1661ffff1667ffffffffffffffff81111561071c5761071b610ff6565b5b60405190808252806020026020018201604052801561074a5781602001602082028036833780820191505090505b508b898151811061075e5761075d6110a0565b5b602002602001015160200181905250828b8981518110610781576107806110a0565b5b6020026020010151602001515f8151811061079f5761079e6110a0565b5b60200260200101907bffffffffffffffffffffffffffffffffffffffffffffffffffffffff191690817bffffffffffffffffffffffffffffffffffffffffffffffffffffffff1916815250506001898981518110610800576107ff6110a0565b5b602002602001019060ff16908160ff1681525050878061081f90611059565b9850505050505b808061083190611059565b915050610451565b5050808061084690611059565b91505061041b565b505f5b828110156108b4575f84828151811061086d5761086c6110a0565b5b602002602001015160ff1690505f87838151811061088e5761088d6110a0565b5b6020026020010151602001519050818152505080806108ac90611059565b915050610851565b508185525050505090565b60605f6108ca610b3b565b90505f816003015f9054906101000a900461ffff1661ffff1667ffffffffffffffff8111156108fc576108fb610ff6565b5b60405190808252806020026020018201604052801561092a5781602001602082028036833780820191505090505b5092505f805b836003015f9054906101000a900461ffff1661ffff16821015610ac7575f846001015f8381526020019081526020015f205490505f5b6008811015610ab257838061097a90611059565b945050856003015f9054906101000a900461ffff1661ffff168411610ab2575f600582901b83901b90505f875f015f837bffffffffffffffffffffffffffffffffffffffffffffffffffffffff19167bffffffffffffffffffffffffffffffffffffffffffffffffffffffff191681526020019081526020015f205460601c90508073ffffffffffffffffffffffffffffffffffffffff168a73ffffffffffffffffffffffffffffffffffffffff1603610a9d5781898881518110610a4257610a416110a0565b5b60200260200101907bffffffffffffffffffffffffffffffffffffffffffffffffffffffff191690817bffffffffffffffffffffffffffffffffffffffffffffffffffffffff1916815250508680610a9990611059565b9750505b50508080610aaa90611059565b915050610966565b50508080610abf90611059565b915050610930565b50818452505050919050565b5f80610add610b3b565b9050805f015f847bffffffffffffffffffffffffffffffffffffffffffffffffffffffff19167bffffffffffffffffffffffffffffffffffffffffffffffffffffffff191681526020019081526020015f205460601c915050919050565b5f807fc8fcad8db84d3cc18b4c41d551ea0ee66dd599cde068d998e57d5e09332c131c90508091505090565b60405180604001604052805f73ffffffffffffffffffffffffffffffffffffffff168152602001606081525090565b5f81519050919050565b5f82825260208201905092915050565b5f819050602082019050919050565b5f73ffffffffffffffffffffffffffffffffffffffff82169050919050565b5f610be882610bbf565b9050919050565b610bf881610bde565b82525050565b5f610c098383610bef565b60208301905092915050565b5f602082019050919050565b5f610c2b82610b96565b610c358185610ba0565b9350610c4083610bb0565b805f5b83811015610c70578151610c578882610bfe565b9750610c6283610c15565b925050600181019050610c43565b5085935050505092915050565b5f6020820190508181035f830152610c958184610c21565b905092915050565b5f81519050919050565b5f82825260208201905092915050565b5f819050602082019050919050565b5f81519050919050565b5f82825260208201905092915050565b5f819050602082019050919050565b5f7fffffffff0000000000000000000000000000000000000000000000000000000082169050919050565b610d2381610cef565b82525050565b5f610d348383610d1a565b60208301905092915050565b5f602082019050919050565b5f610d5682610cc6565b610d608185610cd0565b9350610d6b83610ce0565b805f5b83811015610d9b578151610d828882610d29565b9750610d8d83610d40565b925050600181019050610d6e565b5085935050505092915050565b5f604083015f830151610dbd5f860182610bef565b5060208301518482036020860152610dd58282610d4c565b9150508091505092915050565b5f610ded8383610da8565b905092915050565b5f602082019050919050565b5f610e0b82610c9d565b610e158185610ca7565b935083602082028501610e2785610cb7565b805f5b85811015610e625784840389528151610e438582610de2565b9450610e4e83610df5565b925060208a01995050600181019050610e2a565b50829750879550505050505092915050565b5f6020820190508181035f830152610e8c8184610e01565b905092915050565b5f80fd5b610ea181610bde565b8114610eab575f80fd5b50565b5f81359050610ebc81610e98565b92915050565b5f60208284031215610ed757610ed6610e94565b5b5f610ee484828501610eae565b91505092915050565b5f82825260208201905092915050565b5f610f0782610cc6565b610f118185610eed565b9350610f1c83610ce0565b805f5b83811015610f4c578151610f338882610d29565b9750610f3e83610d40565b925050600181019050610f1f565b5085935050505092915050565b5f6020820190508181035f830152610f718184610efd565b905092915050565b610f8281610cef565b8114610f8c575f80fd5b50565b5f81359050610f9d81610f79565b92915050565b5f60208284031215610fb857610fb7610e94565b5b5f610fc584828501610f8f565b91505092915050565b610fd781610bde565b82525050565b5f602082019050610ff05f830184610fce565b92915050565b7f4e487b71000000000000000000000000000000000000000000000000000000005f52604160045260245ffd5b7f4e487b71000000000000000000000000000000000000000000000000000000005f52601160045260245ffd5b5f819050919050565b5f61106382611050565b91507fffffffffffffffffffffffffffffffffffffffffffffffffffffffffffffffff820361109557611094611023565b5b600182019050919050565b7f4e487b71000000000000000000000000000000000000000000000000000000005f52603260045260245ffd5b5f82825260208201905092915050565b7f3e32353620666e000000000000000000000000000000000000000000000000005f82015250565b5f6111116007836110cd565b915061111c826110dd565b602082019050919050565b5f6020820190508181035f83015261113e81611105565b9050919050565b5f60ff82169050919050565b5f61115b82611145565b915060ff820361116e5761116d611023565b5b60018201905091905056fea26469706673582212202e6e6766100e641ef257843487a0667b6640942ff995f477bb6ad06e0aef8e0464736f6c63430008150033","linkReferences":{}},"methodIdentifiers":{"facetAddress(bytes4)":"cdffacc6","facetAddresses()":"52ef6b2c","facetFunctionSelectors(address)":"adfca15e","facets()":"7a0ed627"},"id":9}