{"abi":[{"type":"function","name":"BETA","inputs":[],"outputs":[{"name":"","type":"uint256","internalType":"uint256"}],"stateMutability":"view"},{"type":"function","name":"SECONDS_DECAY_FACTOR","inputs":[],"outputs":[{"name":"","type":"uint256","internalType":"uint256"}],"stateMutability":"view"}],"bytecode":{"object":"0x60ef61004d600b8282823980515f1a607314610041577f4e487b71000000000000000000000000000000000000000000000000000000005f525f60045260245ffd5b305f52607381538281f3fe7300000000000000000000000000000000000000003014608060405260043610603c575f3560e01c8063071a75411460405780635d17272014605a575b5f80fd5b60466074565b6040516051919060a2565b60405180910390f35b60606080565b604051606b919060a2565b60405180910390f35b671bc16d674ec8000081565b670de0a81be626406081565b5f819050919050565b609c81608c565b82525050565b5f60208201905060b35f8301846095565b9291505056fea2646970667358221220580328e4aef8baedd4fa5d18f47f7b60329925f52793e064f82ca96aef45a19764736f6c63430008150033","linkReferences":{}},"methodIdentifiers":{"BETA()":"071a7541","SECONDS_DECAY_FACTOR()":"5d172720"},"id":35}