{"abi":[{"type":"function","name":"estimateWETHInUSDC","inputs":[{"name":"amountIn","type":"uint128","internalType":"uint128"},{"name":"secondsAgo","type":"uint32","internalType":"uint32"}],"outputs":[{"name":"amountOut","type":"uint256","internalType":"uint256"}],"stateMutability":"view"},{"type":"error","name":"InvalidTWAPSecondsAgo","inputs":[]},{"type":"error","name":"PRBMath_MulDiv_Overflow","inputs":[{"name":"x","type":"uint256","internalType":"uint256"},{"name":"y","type":"uint256","internalType":"uint256"},{"name":"denominator","type":"uint256","internalType":"uint256"}]},{"type":"error","name":"T","inputs":[]}],"bytecode":{"object":"0x608060405234801561000f575f80fd5b506111378061001d5f395ff3fe608060405234801561000f575f80fd5b5060043610610029575f3560e01c80630b5452141461002d575b5f80fd5b61004760048036038101906100429190610a70565b61005d565b6040516100549190610ac6565b60405180910390f35b5f6100a783837388e6a0c2ddd26feeb64f039a2c41296fcb3f564073c02aaa39b223fe8d0a0e5c4f27ead9083c756cc273a0b86991c6218b36c1d19d4a2e9eb0ce3606eb486100af565b905092915050565b5f808563ffffffff16116100ef576040517fe290d66f00000000000000000000000000000000000000000000000000000000815260040160405180910390fd5b5f600267ffffffffffffffff81111561010b5761010a610adf565b5b6040519080825280602002602001820160405280156101395781602001602082028036833780820191505090505b50905085815f815181106101505761014f610b0c565b5b602002602001019063ffffffff16908163ffffffff16815250505f8160018151811061017f5761017e610b0c565b5b602002602001019063ffffffff16908163ffffffff16815250505f8573ffffffffffffffffffffffffffffffffffffffff1663883bdbfd836040518263ffffffff1660e01b81526004016101d39190610bf0565b5f60405180830381865afa1580156101ed573d5f803e3d5ffd5b505050506040513d5f823e3d601f19601f820116820180604052508101906102159190610e72565b5090505f815f8151811061022c5761022b610b0c565b5b60200260200101518260018151811061024857610247610b0c565b5b602002602001015161025a9190610f15565b90505f8860030b8261026c9190610fa0565b90505f8260060b12801561029157505f8960030b8361028b9190611008565b60060b14155b156102a55780806102a190611044565b9150505b6102b1818b89896102c0565b94505050505095945050505050565b5f806102cb866104c9565b90506fffffffffffffffffffffffffffffffff80168173ffffffffffffffffffffffffffffffffffffffff16116103e4575f8173ffffffffffffffffffffffffffffffffffffffff168273ffffffffffffffffffffffffffffffffffffffff16610335919061108b565b90508373ffffffffffffffffffffffffffffffffffffffff168573ffffffffffffffffffffffffffffffffffffffff16106103a5576103a07801000000000000000000000000000000000000000000000000876fffffffffffffffffffffffffffffffff16836108ba565b6103dc565b6103db81876fffffffffffffffffffffffffffffffff1678010000000000000000000000000000000000000000000000006108ba565b5b9250506104c0565b5f6104258273ffffffffffffffffffffffffffffffffffffffff168373ffffffffffffffffffffffffffffffffffffffff16680100000000000000006108ba565b90508373ffffffffffffffffffffffffffffffffffffffff168573ffffffffffffffffffffffffffffffffffffffff161061048d57610488700100000000000000000000000000000000876fffffffffffffffffffffffffffffffff16836108ba565b6104bc565b6104bb81876fffffffffffffffffffffffffffffffff167001000000000000000000000000000000006108ba565b5b9250505b50949350505050565b5f805f8360020b126104de578260020b6104e5565b8260020b5f035b90507ffffffffffffffffffffffffffffffffffffffffffffffffffffffffffff276185f0360020b811115610546576040517f2bc80f3a00000000000000000000000000000000000000000000000000000000815260040160405180910390fd5b5f8060018316036105685770010000000000000000000000000000000061057a565b6ffffcb933bd6fad37aa2d162d1a5940015b70ffffffffffffffffffffffffffffffffff1690505f60028316146105b35760806ffff97272373d413259a46990580e213a8202901c90505b5f60048316146105d75760806ffff2e50f5f656932ef12357cf3c7fdcc8202901c90505b5f60088316146105fb5760806fffe5caca7e10e4e61c3624eaa0941cd08202901c90505b5f601083161461061f5760806fffcb9843d60f6159c9db58835c9266448202901c90505b5f60208316146106435760806fff973b41fa98c081472e6896dfb254c08202901c90505b5f60408316146106675760806fff2ea16466c96a3843ec78b326b528618202901c90505b5f608083161461068b5760806ffe5dee046a99a2a811c461f1969c30538202901c90505b5f6101008316146106b05760806ffcbe86c7900a88aedcffc83b479aa3a48202901c90505b5f6102008316146106d55760806ff987a7253ac413176f2b074cf7815e548202901c90505b5f6104008316146106fa5760806ff3392b0822b70005940c7a398e4b70f38202901c90505b5f61080083161461071f5760806fe7159475a2c29b7443b29c7fa6e889d98202901c90505b5f6110008316146107445760806fd097f3bdfd2022b8845ad8f792aa58258202901c90505b5f6120008316146107695760806fa9f746462d870fdf8a65dc1f90e061e58202901c90505b5f61400083161461078e5760806f70d869a156d2a1b890bb3df62baf32f78202901c90505b5f6180008316146107b35760806f31be135f97d08fd981231505542fcfa68202901c90505b5f620100008316146107d95760806f09aa508b5b7a84e1c677de54f3e99bc98202901c90505b5f620200008316146107fe5760806e5d6af8dedb81196699c329225ee6048202901c90505b5f620400008316146108225760806d2216e584f5fa1ea926041bedfe988202901c90505b5f620800008316146108445760806b048a170391f7dc42444e8fa28202901c90505b5f8460020b131561088357807fffffffffffffffffffffffffffffffffffffffffffffffffffffffffffffffff8161087f5761087e610f73565b5b0490505b5f640100000000828161089957610898610f73565b5b06146108a65760016108a8565b5f5b60ff16602082901c0192505050919050565b5f6108c68484846108cf565b90509392505050565b5f805f80198587098587029250828110838203039150505f8103610907578382816108fd576108fc610f73565b5b04925050506109da565b83811061094f578585856040517f63a05778000000000000000000000000000000000000000000000000000000008152600401610946939291906110cc565b60405180910390fd5b5f8486880990508281118203915080830392505f6001861901861690505f81870496508185049450600182835f0304019050808402851794505f60028860030218905080880260020381029050808802600203810290508088026002038102905080880260020381029050808802600203810290508088026002038102905080860296505050505050505b9392505050565b5f604051905090565b5f80fd5b5f80fd5b5f6fffffffffffffffffffffffffffffffff82169050919050565b610a16816109f2565b8114610a20575f80fd5b50565b5f81359050610a3181610a0d565b92915050565b5f63ffffffff82169050919050565b610a4f81610a37565b8114610a59575f80fd5b50565b5f81359050610a6a81610a46565b92915050565b5f8060408385031215610a8657610a856109ea565b5b5f610a9385828601610a23565b9250506020610aa485828601610a5c565b9150509250929050565b5f819050919050565b610ac081610aae565b82525050565b5f602082019050610ad95f830184610ab7565b92915050565b7f4e487b71000000000000000000000000000000000000000000000000000000005f52604160045260245ffd5b7f4e487b71000000000000000000000000000000000000000000000000000000005f52603260045260245ffd5b5f81519050919050565b5f82825260208201905092915050565b5f819050602082019050919050565b610b6b81610a37565b82525050565b5f610b7c8383610b62565b60208301905092915050565b5f602082019050919050565b5f610b9e82610b39565b610ba88185610b43565b9350610bb383610b53565b805f5b83811015610be3578151610bca8882610b71565b9750610bd583610b88565b925050600181019050610bb6565b5085935050505092915050565b5f6020820190508181035f830152610c088184610b94565b905092915050565b5f80fd5b5f601f19601f8301169050919050565b610c2d82610c14565b810181811067ffffffffffffffff82111715610c4c57610c4b610adf565b5b80604052505050565b5f610c5e6109e1565b9050610c6a8282610c24565b919050565b5f67ffffffffffffffff821115610c8957610c88610adf565b5b602082029050602081019050919050565b5f80fd5b5f8160060b9050919050565b610cb381610c9e565b8114610cbd575f80fd5b50565b5f81519050610cce81610caa565b92915050565b5f610ce6610ce184610c6f565b610c55565b90508083825260208201905060208402830185811115610d0957610d08610c9a565b5b835b81811015610d325780610d1e8882610cc0565b845260208401935050602081019050610d0b565b5050509392505050565b5f82601f830112610d5057610d4f610c10565b5b8151610d60848260208601610cd4565b91505092915050565b5f67ffffffffffffffff821115610d8357610d82610adf565b5b602082029050602081019050919050565b5f73ffffffffffffffffffffffffffffffffffffffff82169050919050565b610dbc81610d94565b8114610dc6575f80fd5b50565b5f81519050610dd781610db3565b92915050565b5f610def610dea84610d69565b610c55565b90508083825260208201905060208402830185811115610e1257610e11610c9a565b5b835b81811015610e3b5780610e278882610dc9565b845260208401935050602081019050610e14565b5050509392505050565b5f82601f830112610e5957610e58610c10565b5b8151610e69848260208601610ddd565b91505092915050565b5f8060408385031215610e8857610e876109ea565b5b5f83015167ffffffffffffffff811115610ea557610ea46109ee565b5b610eb185828601610d3c565b925050602083015167ffffffffffffffff811115610ed257610ed16109ee565b5b610ede85828601610e45565b9150509250929050565b7f4e487b71000000000000000000000000000000000000000000000000000000005f52601160045260245ffd5b5f610f1f82610c9e565b9150610f2a83610c9e565b92508282039050667fffffffffffff81137fffffffffffffffffffffffffffffffffffffffffffffffffff8000000000000082121715610f6d57610f6c610ee8565b5b92915050565b7f4e487b71000000000000000000000000000000000000000000000000000000005f52601260045260245ffd5b5f610faa82610c9e565b9150610fb583610c9e565b925082610fc557610fc4610f73565b5b60015f0383147fffffffffffffffffffffffffffffffffffffffffffffffffff8000000000000083141615610ffd57610ffc610ee8565b5b828205905092915050565b5f61101282610c9e565b915061101d83610c9e565b92508261102d5761102c610f73565b5b828207905092915050565b5f8160020b9050919050565b5f61104e82611038565b91507fffffffffffffffffffffffffffffffffffffffffffffffffffffffffff80000082036110805761107f610ee8565b5b600182039050919050565b5f61109582610aae565b91506110a083610aae565b92508282026110ae81610aae565b915082820484148315176110c5576110c4610ee8565b5b5092915050565b5f6060820190506110df5f830186610ab7565b6110ec6020830185610ab7565b6110f96040830184610ab7565b94935050505056fea2646970667358221220e679f439ea161d93ee75b6d21195680ad024490481e2761566439d1a3fc02e4d64736f6c63430008150033","linkReferences":{}},"methodIdentifiers":{"estimateWETHInUSDC(uint128,uint32)":"0b545214"},"id":20}