{"abi":[{"type":"function","name":"_cancelAsk","inputs":[{"name":"asset","type":"address","internalType":"address"},{"name":"id","type":"uint16","internalType":"uint16"}],"outputs":[],"stateMutability":"nonpayable"},{"type":"function","name":"_cancelShort","inputs":[{"name":"asset","type":"address","internalType":"address"},{"name":"id","type":"uint16","internalType":"uint16"}],"outputs":[],"stateMutability":"nonpayable"},{"type":"function","name":"createAsk","inputs":[{"name":"asset","type":"address","internalType":"address"},{"name":"price","type":"uint80","internalType":"uint80"},{"name":"ercAmount","type":"uint88","internalType":"uint88"},{"name":"isMarketOrder","type":"bool","internalType":"bool"},{"name":"orderHintArray","type":"tuple[]","internalType":"struct MTypes.OrderHint[]","components":[{"name":"hintId","type":"uint16","internalType":"uint16"},{"name":"creationTime","type":"uint256","internalType":"uint256"}]}],"outputs":[],"stateMutability":"nonpayable"},{"type":"event","name":"CancelOrder","inputs":[{"name":"asset","type":"address","indexed":true,"internalType":"address"},{"name":"orderId","type":"uint16","indexed":false,"internalType":"uint16"},{"name":"orderType","type":"uint8","indexed":true,"internalType":"enum O"}],"anonymous":false},{"type":"event","name":"CreateOrder","inputs":[{"name":"asset","type":"address","indexed":true,"internalType":"address"},{"name":"user","type":"address","indexed":true,"internalType":"address"},{"name":"orderType","type":"uint8","indexed":true,"internalType":"enum O"},{"name":"orderId","type":"uint16","indexed":false,"internalType":"uint16"},{"name":"ercAmount","type":"uint88","indexed":false,"internalType":"uint88"}],"anonymous":false},{"type":"event","name":"DeleteShortRecord","inputs":[{"name":"asset","type":"address","indexed":true,"internalType":"address"},{"name":"user","type":"address","indexed":true,"internalType":"address"},{"name":"srId","type":"uint16","indexed":false,"internalType":"uint16"}],"anonymous":false},{"type":"event","name":"MatchOrder","inputs":[{"name":"asset","type":"address","indexed":true,"internalType":"address"},{"name":"user","type":"address","indexed":true,"internalType":"address"},{"name":"orderType","type":"uint8","indexed":true,"internalType":"enum O"},{"name":"orderId","type":"uint16","indexed":false,"internalType":"uint16"},{"name":"fillEth","type":"uint88","indexed":false,"internalType":"uint88"},{"name":"fillErc","type":"uint88","indexed":false,"internalType":"uint88"}],"anonymous":false},{"type":"error","name":"AssetIsFrozen","inputs":[]},{"type":"error","name":"BadHintIdArray","inputs":[]},{"type":"error","name":"InsufficientERCEscrowed","inputs":[]},{"type":"error","name":"InvalidAmount","inputs":[]},{"type":"error","name":"InvalidAsset","inputs":[]},{"type":"error","name":"InvalidPrice","inputs":[]},{"type":"error","name":"NotActiveOrder","inputs":[]},{"type":"error","name":"NotDiamond","inputs":[]},{"type":"error","name":"OrderUnderMinimumSize","inputs":[]},{"type":"error","name":"PRBMath_MulDiv18_Overflow","inputs":[{"name":"x","type":"uint256","internalType":"uint256"},{"name":"y","type":"uint256","internalType":"uint256"}]},{"type":"error","name":"PRBMath_MulDiv_Overflow","inputs":[{"name":"x","type":"uint256","internalType":"uint256"},{"name":"y","type":"uint256","internalType":"uint256"},{"name":"denominator","type":"uint256","internalType":"uint256"}]},{"type":"error","name":"ReentrantCall","inputs":[]}],"bytecode":{"object":"0x608060405234801561000f575f80fd5b50616768806200001e5f395ff3fe608060405234801561000f575f80fd5b506004361061003f575f3560e01c8063ae18d6ce14610043578063bc47cc081461005f578063d53f44b11461007b575b5f80fd5b61005d60048036038101906100589190615e3d565b610097565b005b61007960048036038101906100749190615e3d565b61010a565b005b61009560048036038101906100909190615f90565b61017d565b005b3073ffffffffffffffffffffffffffffffffffffffff163373ffffffffffffffffffffffffffffffffffffffff16146100fc576040517fd04b63aa00000000000000000000000000000000000000000000000000000000815260040160405180910390fd5b6101068282610657565b5050565b3073ffffffffffffffffffffffffffffffffffffffff163373ffffffffffffffffffffffffffffffffffffffff161461016f576040517fd04b63aa00000000000000000000000000000000000000000000000000000000815260040160405180910390fd5b610179828261088d565b5050565b855f600181111561019157610190616026565b5b5f6008015f8373ffffffffffffffffffffffffffffffffffffffff1673ffffffffffffffffffffffffffffffffffffffff1681526020019081526020015f205f01601e9054906101000a900460ff1660018111156101f2576101f1616026565b5b14610229576040517f0e27a3f700000000000000000000000000000000000000000000000000000000815260040160405180910390fd5b865f806008015f8373ffffffffffffffffffffffffffffffffffffffff1673ffffffffffffffffffffffffffffffffffffffff1681526020019081526020015f205f01601f9054906101000a900460ff1660ff16036102b4576040517fc891add200000000000000000000000000000000000000000000000000000000815260040160405180910390fd5b600260ff165f600201601c9054906101000a900460ff1660ff1603610305576040517f37ed32e800000000000000000000000000000000000000000000000000000000815260040160405180910390fd5b60025f600201601c6101000a81548160ff021916908360ff1602179055505f610350876affffffffffffffffffffff168969ffffffffffffffffffff1661110e90919063ffffffff16565b90505f61035c8a61112d565b905080821015610398576040517faacd1fa000000000000000000000000000000000000000000000000000000000815260040160405180910390fd5b876affffffffffffffffffffff165f6009015f8c73ffffffffffffffffffffffffffffffffffffffff1673ffffffffffffffffffffffffffffffffffffffff1681526020019081526020015f205f3373ffffffffffffffffffffffffffffffffffffffff1673ffffffffffffffffffffffffffffffffffffffff1681526020019081526020015f205f015f9054906101000a90046cffffffffffffffffffffffffff166cffffffffffffffffffffffffff161015610482576040517f4bf8161700000000000000000000000000000000000000000000000000000000815260040160405180910390fd5b61048a615c14565b338160e0019073ffffffffffffffffffffffffffffffffffffffff16908173ffffffffffffffffffffffffffffffffffffffff168152505089816020019069ffffffffffffffffffff16908169ffffffffffffffffffff168152505088815f01906affffffffffffffffffffff1690816affffffffffffffffffffff16815250505f6008015f8c73ffffffffffffffffffffffffffffffffffffffff1673ffffffffffffffffffffffffffffffffffffffff1681526020019081526020015f205f01601a9054906101000a900461ffff16816060019061ffff16908161ffff16815250508761057a57600261057d565b60045b8160a00190600781111561059457610593616026565b5b908160078111156105a8576105a7616026565b5b815250506105b46111b3565b8160c0019063ffffffff16908163ffffffff168152505061062c8b828989808060200260200160405190810160405280939291908181526020015f905b8282101561062157848483905060400201803603810190610612919061615f565b815260200190600101906105f1565b5050505050856111c9565b50505060015f600201601c6101000a81548160ff021916908360ff1602179055505050505050505050565b5f610660611a42565b90505f81600b015f8573ffffffffffffffffffffffffffffffffffffffff1673ffffffffffffffffffffffffffffffffffffffff1681526020019081526020015f205f8461ffff1661ffff1681526020019081526020015f2090505f815f01601b9054906101000a900460ff169050600660078111156106e3576106e2616026565b5b8160078111156106f6576106f5616026565b5b148061072557506007808111156107105761070f616026565b5b81600781111561072357610722616026565b5b145b1561075c576040517f03f7cd9200000000000000000000000000000000000000000000000000000000815260040160405180910390fd5b815f015f9054906101000a90046affffffffffffffffffffff166affffffffffffffffffffff16836009015f8773ffffffffffffffffffffffffffffffffffffffff1673ffffffffffffffffffffffffffffffffffffffff1681526020019081526020015f205f846001015f9054906101000a900473ffffffffffffffffffffffffffffffffffffffff1673ffffffffffffffffffffffffffffffffffffffff1673ffffffffffffffffffffffffffffffffffffffff1681526020019081526020015f205f015f8282829054906101000a90046cffffffffffffffffffffffffff1661084891906161cf565b92506101000a8154816cffffffffffffffffffffffffff02191690836cffffffffffffffffffffffffff16021790555061088683600b018686611a46565b5050505050565b5f610896611a42565b90505f81600c015f8573ffffffffffffffffffffffffffffffffffffffff1673ffffffffffffffffffffffffffffffffffffffff1681526020019081526020015f205f8461ffff1661ffff1681526020019081526020015f2090505f815f01601b9054906101000a900460ff1690506006600781111561091957610918616026565b5b81600781111561092c5761092b616026565b5b148061095b575060078081111561094657610945616026565b5b81600781111561095957610958616026565b5b145b15610992576040517f03f7cd9200000000000000000000000000000000000000000000000000000000815260040160405180910390fd5b5f610a2a6109b18460010160159054906101000a900461ffff16611df0565b610a0f855f01600b9054906101000a900469ffffffffffffffffffff1669ffffffffffffffffffff16865f015f9054906101000a90046affffffffffffffffffffff166affffffffffffffffffffff16611e1c90919063ffffffff16565b6affffffffffffffffffffff16611e1c90919063ffffffff16565b90505f846008015f8873ffffffffffffffffffffffffffffffffffffffff1673ffffffffffffffffffffffffffffffffffffffff1681526020019081526020015f2090505f815f01601f9054906101000a900460ff1660ff1690505f8560010160179054906101000a900460ff1690505f866001015f9054906101000a900473ffffffffffffffffffffffffffffffffffffffff1690505f88600d015f8c73ffffffffffffffffffffffffffffffffffffffff1673ffffffffffffffffffffffffffffffffffffffff1681526020019081526020015f205f8373ffffffffffffffffffffffffffffffffffffffff1673ffffffffffffffffffffffffffffffffffffffff1681526020019081526020015f205f8460ff1660ff1681526020019081526020015f209050600280811115610b6657610b65616026565b5b816001015f9054906101000a900460ff166002811115610b8957610b88616026565b5b03610b9e57610b998b8385611e88565b610f1d565b5f610ba88c612354565b9050806affffffffffffffffffffff16825f01600b9054906101000a90046affffffffffffffffffffff166affffffffffffffffffffff161015610eee575f825f01600b9054906101000a90046affffffffffffffffffffff1682610c0d919061620f565b90505f8b6005015f8881526020019081526020015f2090505f610ca4610c448d60010160159054906101000a900461ffff16611df0565b610c89856affffffffffffffffffffff168f5f01600b9054906101000a900469ffffffffffffffffffff1669ffffffffffffffffffff166123d090919063ffffffff16565b6affffffffffffffffffffff16611e1c90919063ffffffff16565b9050610ce88f8789600185888f60010160099054906101000a900467ffffffffffffffff16895f0160169054906101000a900469ffffffffffffffffffff16612439565b80825f015f8282829054906101000a90046affffffffffffffffffffff16610d10919061624d565b92506101000a8154816affffffffffffffffffffff02191690836affffffffffffffffffffff16021790555080895f01600d8282829054906101000a90046affffffffffffffffffffff16610d65919061624d565b92506101000a8154816affffffffffffffffffffff02191690836affffffffffffffffffffff160217905550826affffffffffffffffffffff16895f015f8282829054906101000a90046cffffffffffffffffffffffffff16610dc891906161cf565b92506101000a8154816cffffffffffffffffffffffffff02191690836cffffffffffffffffffffffffff160217905550808a610e04919061620f565b99505050806affffffffffffffffffffff168b6009015f8f73ffffffffffffffffffffffffffffffffffffffff1673ffffffffffffffffffffffffffffffffffffffff1681526020019081526020015f205f8673ffffffffffffffffffffffffffffffffffffffff1673ffffffffffffffffffffffffffffffffffffffff1681526020019081526020015f205f015f8282829054906101000a90046cffffffffffffffffffffffffff16610eb891906161cf565b92506101000a8154816cffffffffffffffffffffffffff02191690836cffffffffffffffffffffffffff16021790555050610f1b565b6001826001015f6101000a81548160ff02191690836002811115610f1557610f14616026565b5b02179055505b505b85896007015f8681526020019081526020015f205f8473ffffffffffffffffffffffffffffffffffffffff1673ffffffffffffffffffffffffffffffffffffffff1681526020019081526020015f205f015f8282829054906101000a90046affffffffffffffffffffff16610f92919061624d565b92506101000a8154816affffffffffffffffffffff02191690836affffffffffffffffffffff160217905550845f0160189054906101000a900461ffff1661ffff168a61ffff16036110f3575f610fe88c6126a3565b69ffffffffffffffffffff1690505f8a600c015f8e73ffffffffffffffffffffffffffffffffffffffff1673ffffffffffffffffffffffffffffffffffffffff1681526020019081526020015f205f8b5f0160159054906101000a900461ffff1661ffff1661ffff1681526020019081526020015f205f01600b9054906101000a900469ffffffffffffffffffff1669ffffffffffffffffffff1690508181106110c057895f0160159054906101000a900461ffff16875f0160186101000a81548161ffff021916908361ffff1602179055506110f0565b895f0160199054906101000a900461ffff16875f0160186101000a81548161ffff021916908361ffff1602179055505b50505b61110189600c018c8c611a46565b5050505050505050505050565b5f6111258369ffffffffffffffffffff1683612726565b905092915050565b5f80611137611a42565b90506064670de0b6b3a7640000826008015f8673ffffffffffffffffffffffffffffffffffffffff1673ffffffffffffffffffffffffffffffffffffffff1681526020019081526020015f2060010160019054906101000a900460ff1660ff166111a1919061628b565b6111ab91906162f9565b915050919050565b5f6362f6fc65426111c49190616329565b905090565b5f6111d2611a42565b90505f81600a015f8773ffffffffffffffffffffffffffffffffffffffff1673ffffffffffffffffffffffffffffffffffffffff1681526020019081526020015f205f600160ff1661ffff1681526020019081526020015f205f0160199054906101000a900461ffff16905081600a015f8773ffffffffffffffffffffffffffffffffffffffff1673ffffffffffffffffffffffffffffffffffffffff1681526020019081526020015f205f8261ffff1661ffff1681526020019081526020015f205f01600b9054906101000a900469ffffffffffffffffffff1669ffffffffffffffffffff16856020015169ffffffffffffffffffff16111561131c5782611304866020015169ffffffffffffffffffff16875f01516affffffffffffffffffffff1661280b90919063ffffffff16565b106113155761131485878661282b565b5b5050611a3c565b611324615cdf565b5b600115611a38575f83600a015f8973ffffffffffffffffffffffffffffffffffffffff1673ffffffffffffffffffffffffffffffffffffffff1681526020019081526020015f205f8461ffff1661ffff1681526020019081526020015f20604051806101800160405290815f82015f9054906101000a90046affffffffffffffffffffff166affffffffffffffffffffff166affffffffffffffffffffff1681526020015f8201600b9054906101000a900469ffffffffffffffffffff1669ffffffffffffffffffff1669ffffffffffffffffffff1681526020015f820160159054906101000a900461ffff1661ffff1661ffff1681526020015f820160179054906101000a900461ffff1661ffff1661ffff1681526020015f820160199054906101000a900461ffff1661ffff1661ffff1681526020015f8201601b9054906101000a900460ff1660078111156114805761147f616026565b5b600781111561149257611491616026565b5b81526020015f8201601c9054906101000a900463ffffffff1663ffffffff1663ffffffff168152602001600182015f9054906101000a900473ffffffffffffffffffffffffffffffffffffffff1673ffffffffffffffffffffffffffffffffffffffff1673ffffffffffffffffffffffffffffffffffffffff1681526020016001820160149054906101000a900460ff16600781111561153557611534616026565b5b600781111561154757611546616026565b5b81526020016001820160159054906101000a900461ffff1661ffff1661ffff1681526020016001820160179054906101000a900460ff1660ff1660ff1681526020016001820160189054906101000a900467ffffffffffffffff1667ffffffffffffffff1667ffffffffffffffff16815250509050806020015169ffffffffffffffffffff16876020015169ffffffffffffffffffff16116119c6575f611617826020015169ffffffffffffffffffff16895f01516affffffffffffffffffffff1661280b90919063ffffffff16565b036116685761162f84600a018983606001515f6128b6565b5f875f01906affffffffffffffffffffff1690816affffffffffffffffffffff168152505061165f8888846129bc565b50505050611a3c565b61167487828a85612ae4565b805f01516affffffffffffffffffffff16875f01516affffffffffffffffffffff1611156117f557805f0151875f018181516116b0919061620f565b9150906affffffffffffffffffffff1690816affffffffffffffffffffff16815250505f815f01906affffffffffffffffffffff1690816affffffffffffffffffffff168152505061170a84600a01898360600151612da5565b80608001519250600160ff168361ffff16036117f05761172b8888846129bc565b8461175f886020015169ffffffffffffffffffff16895f01516affffffffffffffffffffff1661280b90919063ffffffff16565b106117705761176f87898861282b565b5b600160ff1684600a015f8a73ffffffffffffffffffffffffffffffffffffffff1673ffffffffffffffffffffffffffffffffffffffff1681526020019081526020015f205f600160ff1661ffff1681526020019081526020015f205f0160196101000a81548161ffff021916908361ffff16021790555050505050611a3c565b6119c1565b805f01516affffffffffffffffffffff16875f01516affffffffffffffffffffff16036118475761182e84600a01898360600151612da5565b61184284600a0189836060015160016128b6565b611988565b865f0151815f0181815161185b919061620f565b9150906affffffffffffffffffffff1690816affffffffffffffffffffff1681525050805f015184600a015f8a73ffffffffffffffffffffffffffffffffffffffff1673ffffffffffffffffffffffffffffffffffffffff1681526020019081526020015f205f836060015161ffff1661ffff1681526020019081526020015f205f015f6101000a8154816affffffffffffffffffffff02191690836affffffffffffffffffffff16021790555061191c84600a018983606001515f6128b6565b61193f6706f05b59d3b200006119318a612e20565b612ea590919063ffffffff16565b611972826020015169ffffffffffffffffffff16835f01516affffffffffffffffffffff1661280b90919063ffffffff16565b101561198757611986888260600151612eb8565b5b5b5f875f01906affffffffffffffffffffff1690816affffffffffffffffffffff16815250506119b88888846129bc565b50505050611a3c565b611a32565b6119d984600a018983606001515f6128b6565b6119e48888846129bc565b84611a18886020015169ffffffffffffffffffff16895f01516affffffffffffffffffffff1661280b90919063ffffffff16565b10611a2957611a2887898861282b565b5b50505050611a3c565b50611325565b5050505b50505050565b5f90565b5f835f8473ffffffffffffffffffffffffffffffffffffffff1673ffffffffffffffffffffffffffffffffffffffff1681526020019081526020015f205f600160ff1661ffff1681526020019081526020015f205f0160159054906101000a900461ffff169050835f8473ffffffffffffffffffffffffffffffffffffffff1673ffffffffffffffffffffffffffffffffffffffff1681526020019081526020015f205f8361ffff1661ffff1681526020019081526020015f205f0160159054906101000a900461ffff16845f8573ffffffffffffffffffffffffffffffffffffffff1673ffffffffffffffffffffffffffffffffffffffff1681526020019081526020015f205f865f8773ffffffffffffffffffffffffffffffffffffffff1673ffffffffffffffffffffffffffffffffffffffff1681526020019081526020015f205f8661ffff1661ffff1681526020019081526020015f205f0160199054906101000a900461ffff1661ffff1661ffff1681526020019081526020015f205f0160156101000a81548161ffff021916908361ffff160217905550835f8473ffffffffffffffffffffffffffffffffffffffff1673ffffffffffffffffffffffffffffffffffffffff1681526020019081526020015f205f8361ffff1661ffff1681526020019081526020015f205f0160199054906101000a900461ffff16845f8573ffffffffffffffffffffffffffffffffffffffff1673ffffffffffffffffffffffffffffffffffffffff1681526020019081526020015f205f865f8773ffffffffffffffffffffffffffffffffffffffff1673ffffffffffffffffffffffffffffffffffffffff1681526020019081526020015f205f8661ffff1661ffff1681526020019081526020015f205f0160159054906101000a900461ffff1661ffff1661ffff1681526020019081526020015f205f0160196101000a81548161ffff021916908361ffff160217905550835f8473ffffffffffffffffffffffffffffffffffffffff1673ffffffffffffffffffffffffffffffffffffffff1681526020019081526020015f205f8361ffff1661ffff1681526020019081526020015f205f01601b9054906101000a900460ff166007811115611d8e57611d8d616026565b5b8373ffffffffffffffffffffffffffffffffffffffff167f2097d5c49cf7ba09a2520b6b807629746c2527783ac92cac69d88e846c7f33f584604051611dd4919061636b565b60405180910390a3611dea84848484600661314e565b50505050565b5f6064670de0b6b3a76400008361ffff16611e0b919061628b565b611e1591906162f9565b9050919050565b5f80611e35846affffffffffffffffffffff1684612726565b90506affffffffffffffffffffff8016811115611e7e576040517f2c5211c600000000000000000000000000000000000000000000000000000000815260040160405180910390fd5b8091505092915050565b5f611e91611a42565b90505f81600d015f8673ffffffffffffffffffffffffffffffffffffffff1673ffffffffffffffffffffffffffffffffffffffff1681526020019081526020015f205f8573ffffffffffffffffffffffffffffffffffffffff1673ffffffffffffffffffffffffffffffffffffffff1681526020019081526020015f205f8460ff1660ff1681526020019081526020015f2090505f6002811115611f3857611f37616026565b5b816001015f9054906101000a900460ff166002811115611f5b57611f5a616026565b5b14612321578060010160039054906101000a900460ff1682600d015f8773ffffffffffffffffffffffffffffffffffffffff1673ffffffffffffffffffffffffffffffffffffffff1681526020019081526020015f205f8673ffffffffffffffffffffffffffffffffffffffff1673ffffffffffffffffffffffffffffffffffffffff1681526020019081526020015f205f8360010160019054906101000a900460ff1660ff1660ff1681526020019081526020015f2060010160036101000a81548160ff021916908360ff160217905550600160ff168160010160039054906101000a900460ff1660ff161461211a578060010160019054906101000a900460ff1682600d015f8773ffffffffffffffffffffffffffffffffffffffff1673ffffffffffffffffffffffffffffffffffffffff1681526020019081526020015f205f8673ffffffffffffffffffffffffffffffffffffffff1673ffffffffffffffffffffffffffffffffffffffff1681526020019081526020015f205f8360010160039054906101000a900460ff1660ff1660ff1681526020019081526020015f2060010160016101000a81548160ff021916908360ff1602179055505b5f82600d015f8773ffffffffffffffffffffffffffffffffffffffff1673ffffffffffffffffffffffffffffffffffffffff1681526020019081526020015f205f8673ffffffffffffffffffffffffffffffffffffffff1673ffffffffffffffffffffffffffffffffffffffff1681526020019081526020015f205f600160ff1660ff1681526020019081526020015f2060010160019054906101000a900460ff1690508383600d015f8873ffffffffffffffffffffffffffffffffffffffff1673ffffffffffffffffffffffffffffffffffffffff1681526020019081526020015f205f8773ffffffffffffffffffffffffffffffffffffffff1673ffffffffffffffffffffffffffffffffffffffff1681526020019081526020015f205f600160ff1660ff1681526020019081526020015f2060010160016101000a81548160ff021916908360ff160217905550600160ff168160ff16111561229b57808260010160016101000a81548160ff021916908360ff1602179055506122ba565b60018260010160016101000a81548160ff021916908360ff1602179055505b8473ffffffffffffffffffffffffffffffffffffffff168673ffffffffffffffffffffffffffffffffffffffff167f308fabf328a16a122870d17bc942c7d1030c9f3f3eb3bd0d0139bbc75e705a358660405161231791906163c9565b60405180910390a3505b6002816001015f6101000a81548160ff0219169083600281111561234857612347616026565b5b02179055505050505050565b5f8061235e611a42565b9050670de0b6b3a7640000816008015f8573ffffffffffffffffffffffffffffffffffffffff1673ffffffffffffffffffffffffffffffffffffffff1681526020019081526020015f2060010160029054906101000a900461ffff1661ffff166123c8919061628b565b915050919050565b5f806123e88469ffffffffffffffffffff1684612726565b905069ffffffffffffffffffff801681111561242f576040517ebfc92100000000000000000000000000000000000000000000000000000000815260040160405180910390fd5b8091505092915050565b5f612442611a42565b90505f81600d015f8b73ffffffffffffffffffffffffffffffffffffffff1673ffffffffffffffffffffffffffffffffffffffff1681526020019081526020015f205f8a73ffffffffffffffffffffffffffffffffffffffff1673ffffffffffffffffffffffffffffffffffffffff1681526020019081526020015f205f8960ff1660ff1681526020019081526020015f2090506002808111156124e9576124e8616026565b5b816001015f9054906101000a900460ff16600281111561250c5761250b616026565b5b036125f85784815f01600b6101000a8154816affffffffffffffffffffff02191690836affffffffffffffffffffff160217905550838160010160046101000a81548167ffffffffffffffff021916908367ffffffffffffffff16021790555085815f015f6101000a8154816affffffffffffffffffffff02191690836affffffffffffffffffffff16021790555082815f0160166101000a81548169ffffffffffffffffffff021916908369ffffffffffffffffffff1602179055506125d16111b3565b81600101600c6101000a81548163ffffffff021916908363ffffffff16021790555061266c565b5f6126238567ffffffffffffffff16876affffffffffffffffffffff1661280b90919063ffffffff16565b90505f6126528569ffffffffffffffffffff16896affffffffffffffffffffff1661280b90919063ffffffff16565b90506126698388848b856126646111b3565b61333b565b50505b86816001015f6101000a81548160ff0219169083600281111561269257612691616026565b5b021790555050505050505050505050565b5f806126ad611a42565b905080600a015f8473ffffffffffffffffffffffffffffffffffffffff1673ffffffffffffffffffffffffffffffffffffffff1681526020019081526020015f205f600160ff1661ffff1681526020019081526020015f205f015f9054906101000a90046affffffffffffffffffffff16915050919050565b5f805f80198486098486029250828110838203039150505f810361276657670de0b6b3a7640000828161275c5761275b6162cc565b5b0492505050612805565b670de0b6b3a764000081106127b45784846040517f5173648d0000000000000000000000000000000000000000000000000000000081526004016127ab9291906163f1565b60405180910390fd5b5f670de0b6b3a764000085870990507faccb18165bd6fe31ae1cf318dc5b51eee0e1ba569b88cd74c1773b91fac10669600162040000805f0304018483118403026204000083860304170293505050505b92915050565b5f612823836affffffffffffffffffffff1683612726565b905092915050565b5f6128398460a001516135ad565b90506005600781111561284f5761284e616026565b5b81600781111561286257612861616026565b5b03612877576128728385846136b3565b6128b0565b6002600781111561288b5761288a616026565b5b81600781111561289e5761289d616026565b5b036128af576128ae838584613969565b5b5b50505050565b80156128d1576128cc8484600160ff1685613bd6565b6129b6565b600160ff16845f8573ffffffffffffffffffffffffffffffffffffffff1673ffffffffffffffffffffffffffffffffffffffff1681526020019081526020015f205f8461ffff1661ffff1681526020019081526020015f205f0160156101000a81548161ffff021916908361ffff16021790555081845f8573ffffffffffffffffffffffffffffffffffffffff1673ffffffffffffffffffffffffffffffffffffffff1681526020019081526020015f205f600160ff1661ffff1681526020019081526020015f205f0160196101000a81548161ffff021916908361ffff1602179055505b50505050565b5f6129ca8360a001516135ad565b90508260a0015160078111156129e3576129e2616026565b5b8360e0015173ffffffffffffffffffffffffffffffffffffffff168573ffffffffffffffffffffffffffffffffffffffff167f1140e445b15f25d17f29961cc427972f8a2fe6c255e4a15a370e17620206fb828660600151865f01518760200151604051612a5393929190616427565b60405180910390a460056007811115612a6f57612a6e616026565b5b816007811115612a8257612a81616026565b5b03612a9757612a92848484613d34565b612ad0565b60026007811115612aab57612aaa616026565b5b816007811115612abe57612abd616026565b5b03612acf57612ace84848461409c565b5b5b612ade84836080015161431b565b50505050565b5f612aed611a42565b90505f845f01516affffffffffffffffffffff16865f01516affffffffffffffffffffff1611612b2057855f0151612b25565b845f01515b90505f612b58826affffffffffffffffffffff16876020015169ffffffffffffffffffff166123d090919063ffffffff16565b9050612b6685878684614562565b60056007811115612b7a57612b79616026565b5b8760a001516007811115612b9157612b90616026565b5b03612c2757612bf2612ba7886101200151611df0565b612bd7846affffffffffffffffffffff168a6020015169ffffffffffffffffffff166123d090919063ffffffff16565b6affffffffffffffffffffff16611e1c90919063ffffffff16565b84604001818151612c03919061624d565b9150906affffffffffffffffffffff1690816affffffffffffffffffffff16815250505b8184602001818151612c39919061624d565b9150906affffffffffffffffffffff1690816affffffffffffffffffffff168152505080845f01818151612c6d919061624d565b9150906affffffffffffffffffffff1690816affffffffffffffffffffff16815250508560200151846080019069ffffffffffffffffffff16908169ffffffffffffffffffff1681525050816affffffffffffffffffffff16836009015f8773ffffffffffffffffffffffffffffffffffffffff1673ffffffffffffffffffffffffffffffffffffffff1681526020019081526020015f205f8860e0015173ffffffffffffffffffffffffffffffffffffffff1673ffffffffffffffffffffffffffffffffffffffff1681526020019081526020015f205f015f8282829054906101000a90046cffffffffffffffffffffffffff16612d6c91906161cf565b92506101000a8154816cffffffffffffffffffffffffff02191690836cffffffffffffffffffffffffff16021790555050505050505050565b5f835f8473ffffffffffffffffffffffffffffffffffffffff1673ffffffffffffffffffffffffffffffffffffffff1681526020019081526020015f205f600160ff1661ffff1681526020019081526020015f205f0160159054906101000a900461ffff169050612e1a84848484600761314e565b50505050565b5f80612e2a611a42565b90506064670de0b6b3a7640000826008015f8673ffffffffffffffffffffffffffffffffffffffff1673ffffffffffffffffffffffffffffffffffffffff1681526020019081526020015f206001015f9054906101000a900460ff1660ff16612e93919061628b565b612e9d91906162f9565b915050919050565b5f612eb08383612726565b905092915050565b5f612ec1611a42565b90505f81600a015f8573ffffffffffffffffffffffffffffffffffffffff1673ffffffffffffffffffffffffffffffffffffffff1681526020019081526020015f205f8461ffff1661ffff1681526020019081526020015f2090505f815f01601b9054906101000a900460ff16905060066007811115612f4457612f43616026565b5b816007811115612f5757612f56616026565b5b1480612f865750600780811115612f7157612f70616026565b5b816007811115612f8457612f83616026565b5b145b15612fbd576040517f03f7cd9200000000000000000000000000000000000000000000000000000000815260040160405180910390fd5b5f836008015f8773ffffffffffffffffffffffffffffffffffffffff1673ffffffffffffffffffffffffffffffffffffffff1681526020019081526020015f205f01601f9054906101000a900460ff1660ff1690505f613071845f01600b9054906101000a900469ffffffffffffffffffff1669ffffffffffffffffffff16855f015f9054906101000a90046affffffffffffffffffffff166affffffffffffffffffffff16611e1c90919063ffffffff16565b905080856007015f8481526020019081526020015f205f866001015f9054906101000a900473ffffffffffffffffffffffffffffffffffffffff1673ffffffffffffffffffffffffffffffffffffffff1673ffffffffffffffffffffffffffffffffffffffff1681526020019081526020015f205f015f8282829054906101000a90046affffffffffffffffffffff1661310b919061624d565b92506101000a8154816affffffffffffffffffffff02191690836affffffffffffffffffffff16021790555061314585600a018888611a46565b50505050505050565b80855f8673ffffffffffffffffffffffffffffffffffffffff1673ffffffffffffffffffffffffffffffffffffffff1681526020019081526020015f205f8561ffff1661ffff1681526020019081526020015f205f01601b6101000a81548160ff021916908360078111156131c6576131c5616026565b5b021790555082855f8673ffffffffffffffffffffffffffffffffffffffff1673ffffffffffffffffffffffffffffffffffffffff1681526020019081526020015f205f600160ff1661ffff1681526020019081526020015f205f0160156101000a81548161ffff021916908361ffff160217905550600160ff168261ffff16146132bf5781855f8673ffffffffffffffffffffffffffffffffffffffff1673ffffffffffffffffffffffffffffffffffffffff1681526020019081526020015f205f8561ffff1661ffff1681526020019081526020015f205f0160156101000a81548161ffff021916908361ffff160217905550613334565b600160ff16855f8673ffffffffffffffffffffffffffffffffffffffff1673ffffffffffffffffffffffffffffffffffffffff1681526020019081526020015f205f8561ffff1661ffff1681526020019081526020015f205f0160156101000a81548161ffff021916908361ffff1602179055505b5050505050565b6133978660010160049054906101000a900467ffffffffffffffff1667ffffffffffffffff16875f01600b9054906101000a90046affffffffffffffffffffff166affffffffffffffffffffff1661280b90919063ffffffff16565b846133a2919061645c565b935084865f01600b8282829054906101000a90046affffffffffffffffffffff166133cd919061624d565b92506101000a8154816affffffffffffffffffffff02191690836affffffffffffffffffffff160217905550613433865f01600b9054906101000a90046affffffffffffffffffffff166affffffffffffffffffffff16856146f690919063ffffffff16565b8660010160046101000a81548167ffffffffffffffff021916908367ffffffffffffffff1602179055506134bb865f0160169054906101000a900469ffffffffffffffffffff1669ffffffffffffffffffff16875f015f9054906101000a90046affffffffffffffffffffff166affffffffffffffffffffff1661280b90919063ffffffff16565b826134c6919061645c565b915082865f015f8282829054906101000a90046affffffffffffffffffffff166134f0919061624d565b92506101000a8154816affffffffffffffffffffff02191690836affffffffffffffffffffff160217905550613555865f015f9054906101000a90046affffffffffffffffffffff166affffffffffffffffffffff168361475b90919063ffffffff16565b865f0160166101000a81548169ffffffffffffffffffff021916908369ffffffffffffffffffff1602179055508086600101600c6101000a81548163ffffffff021916908363ffffffff160217905550505050505050565b5f600160078111156135c2576135c1616026565b5b8260078111156135d5576135d4616026565b5b14806136055750600360078111156135f0576135ef616026565b5b82600781111561360357613602616026565b5b145b1561361357600190506136ae565b6002600781111561362757613626616026565b5b82600781111561363a57613639616026565b5b148061366a57506004600781111561365557613654616026565b5b82600781111561366857613667616026565b5b145b1561367857600290506136ae565b6005600781111561368c5761368b616026565b5b82600781111561369f5761369e616026565b5b036136ad57600590506136ae565b5b919050565b5f6136bc611a42565b90505f8082600c015f8773ffffffffffffffffffffffffffffffffffffffff1673ffffffffffffffffffffffffffffffffffffffff1681526020019081526020015f205f600160ff1661ffff1681526020019081526020015f205f0160199054906101000a900461ffff16905082600c015f8773ffffffffffffffffffffffffffffffffffffffff1673ffffffffffffffffffffffffffffffffffffffff1681526020019081526020015f205f8261ffff1661ffff1681526020019081526020015f205f01600b9054906101000a900469ffffffffffffffffffff1669ffffffffffffffffffff16856020015169ffffffffffffffffffff1610806137c85750600160ff168161ffff16145b156137d957600160ff1691506137ea565b6137e783600c0187866147c2565b91505b6137f983600c018787856149a1565b613803868661513f565b5f836008015f8873ffffffffffffffffffffffffffffffffffffffff1673ffffffffffffffffffffffffffffffffffffffff1681526020019081526020015f205f01601f9054906101000a900460ff1660ff1690505f6138b861386a886101200151611df0565b61389d896020015169ffffffffffffffffffff168a5f01516affffffffffffffffffffff16611e1c90919063ffffffff16565b6affffffffffffffffffffff16611e1c90919063ffffffff16565b905080856007015f8481526020019081526020015f205f8960e0015173ffffffffffffffffffffffffffffffffffffffff1673ffffffffffffffffffffffffffffffffffffffff1681526020019081526020015f205f015f8282829054906101000a90046affffffffffffffffffffff16613933919061620f565b92506101000a8154816affffffffffffffffffffff02191690836affffffffffffffffffffff1602179055505050505050505050565b5f613972611a42565b90505f6004600781111561398957613988616026565b5b8460a0015160078111156139a05761399f616026565b5b036139ac575050613bd1565b5f82600b015f8773ffffffffffffffffffffffffffffffffffffffff1673ffffffffffffffffffffffffffffffffffffffff1681526020019081526020015f205f600160ff1661ffff1681526020019081526020015f205f0160199054906101000a900461ffff16905082600b015f8773ffffffffffffffffffffffffffffffffffffffff1673ffffffffffffffffffffffffffffffffffffffff1681526020019081526020015f205f8261ffff1661ffff1681526020019081526020015f205f01600b9054906101000a900469ffffffffffffffffffff1669ffffffffffffffffffff16856020015169ffffffffffffffffffff161080613ab55750600160ff168161ffff16145b15613ac657600160ff169150613ad7565b613ad483600b0187866147c2565b91505b613ae683600b018787856149a1565b845f01516affffffffffffffffffffff16836009015f8873ffffffffffffffffffffffffffffffffffffffff1673ffffffffffffffffffffffffffffffffffffffff1681526020019081526020015f205f8760e0015173ffffffffffffffffffffffffffffffffffffffff1673ffffffffffffffffffffffffffffffffffffffff1681526020019081526020015f205f015f8282829054906101000a90046cffffffffffffffffffffffffff16613b9d919061648f565b92506101000a8154816cffffffffffffffffffffffffff02191690836cffffffffffffffffffffffffff1602179055505050505b505050565b5f845f8573ffffffffffffffffffffffffffffffffffffffff1673ffffffffffffffffffffffffffffffffffffffff1681526020019081526020015f205f8361ffff1661ffff1681526020019081526020015f205f0160199054906101000a900461ffff169050600160ff168161ffff1614613cbd5782855f8673ffffffffffffffffffffffffffffffffffffffff1673ffffffffffffffffffffffffffffffffffffffff1681526020019081526020015f205f8361ffff1661ffff1681526020019081526020015f205f0160156101000a81548161ffff021916908361ffff1602179055505b80855f8673ffffffffffffffffffffffffffffffffffffffff1673ffffffffffffffffffffffffffffffffffffffff1681526020019081526020015f205f8561ffff1661ffff1681526020019081526020015f205f0160196101000a81548161ffff021916908361ffff1602179055505050505050565b5f613d3d611a42565b90505f816008015f8673ffffffffffffffffffffffffffffffffffffffff1673ffffffffffffffffffffffffffffffffffffffff1681526020019081526020015f2090505f815f01601f9054906101000a900460ff1660ff1690505f836005015f8381526020019081526020015f2090508460400151846007015f8481526020019081526020015f205f8860e0015173ffffffffffffffffffffffffffffffffffffffff1673ffffffffffffffffffffffffffffffffffffffff1681526020019081526020015f205f015f8282829054906101000a90046affffffffffffffffffffff16613e2b919061620f565b92506101000a8154816affffffffffffffffffffff02191690836affffffffffffffffffffff1602179055508460400151855f01818151613e6c919061624d565b9150906affffffffffffffffffffff1690816affffffffffffffffffffff16815250505f80875f01516affffffffffffffffffffff1614613ead575f613eb0565b60015b9050613f03888860e00151896101400151848a5f01518b602001518a60010160099054906101000a900467ffffffffffffffff16895f0160169054906101000a900469ffffffffffffffffffff16612439565b85606001516affffffffffffffffffffff16826002015f8282829054906101000a90046fffffffffffffffffffffffffffffffff16613f4291906164ea565b92506101000a8154816fffffffffffffffffffffffffffffffff02191690836fffffffffffffffffffffffffffffffff160217905550855f0151825f015f8282829054906101000a90046affffffffffffffffffffff16613fa3919061624d565b92506101000a8154816affffffffffffffffffffff02191690836affffffffffffffffffffff160217905550855f0151845f01600d8282829054906101000a90046affffffffffffffffffffff16613ffb919061624d565b92506101000a8154816affffffffffffffffffffff02191690836affffffffffffffffffffff16021790555085602001516affffffffffffffffffffff16845f015f8282829054906101000a90046cffffffffffffffffffffffffff1661406291906161cf565b92506101000a8154816cffffffffffffffffffffffffff02191690836cffffffffffffffffffffffffff1602179055505050505050505050565b5f6140a5611a42565b90505f816008015f8673ffffffffffffffffffffffffffffffffffffffff1673ffffffffffffffffffffffffffffffffffffffff1681526020019081526020015f205f01601f9054906101000a900460ff1660ff1690505f8460e00151905083602001516affffffffffffffffffffff16836009015f8873ffffffffffffffffffffffffffffffffffffffff1673ffffffffffffffffffffffffffffffffffffffff1681526020019081526020015f205f8373ffffffffffffffffffffffffffffffffffffffff1673ffffffffffffffffffffffffffffffffffffffff1681526020019081526020015f205f015f8282829054906101000a90046cffffffffffffffffffffffffff166141b8919061648f565b92506101000a8154816cffffffffffffffffffffffffff02191690836cffffffffffffffffffffffffff160217905550835f0151836007015f8481526020019081526020015f205f8373ffffffffffffffffffffffffffffffffffffffff1673ffffffffffffffffffffffffffffffffffffffff1681526020019081526020015f205f015f8282829054906101000a90046affffffffffffffffffffff16614260919061624d565b92506101000a8154816affffffffffffffffffffff02191690836affffffffffffffffffffff16021790555083606001516affffffffffffffffffffff16836005015f8481526020019081526020015f206002015f8282829054906101000a90046fffffffffffffffffffffffffffffffff166142dd91906164ea565b92506101000a8154816fffffffffffffffffffffffffffffffff02191690836fffffffffffffffffffffffffffffffff160217905550505050505050565b5f614324611a42565b90505f816008015f8573ffffffffffffffffffffffffffffffffffffffff1673ffffffffffffffffffffffffffffffffffffffff1681526020019081526020015f205f01601f9054906101000a900460ff1660ff1690505f826005015f8381526020019081526020015f2090505f61439b866126a3565b69ffffffffffffffffffff1690505f6143d1670e043da6172500008769ffffffffffffffffffff1661110e90919063ffffffff16565b82119050801561449b575f614426662386f26fc10000614421614414868b69ffffffffffffffffffff16886144069190616329565b61537090919063ffffffff16565b668e1bc9bf04000061538c565b6153a4565b9050614477614445668e1bc9bf0400008361537090919063ffffffff16565b85600101600b9054906101000a900461ffff16612710614465919061652d565b61ffff166153bc90919063ffffffff16565b84600101600f6101000a81548161ffff021916908361ffff160217905550506144f3565b5f8061ffff1684600101600f9054906101000a900461ffff1661ffff161415905080156144e6575f84600101600f6101000a81548161ffff021916908361ffff1602179055506144f1565b50505050505061455e565b505b3073ffffffffffffffffffffffffffffffffffffffff16629d26aa856040518263ffffffff1660e01b815260040161452b9190616562565b5f604051808303815f87803b158015614542575f80fd5b505af1158015614554573d5f803e3d5ffd5b5050505050505050505b5050565b5f61456b611a42565b90505f8460c0015161457b6111b3565b614585919061658a565b9050621275008163ffffffff1611156146ee575f62015180826145a891906165c1565b63ffffffff16846145b991906165f1565b905080856060018181516145cd919061624d565b9150906affffffffffffffffffffff1690816affffffffffffffffffffff16815250505f836008015f8973ffffffffffffffffffffffffffffffffffffffff1673ffffffffffffffffffffffffffffffffffffffff1681526020019081526020015f205f01601f9054906101000a900460ff1660ff16905081846007015f8381526020019081526020015f205f8960e0015173ffffffffffffffffffffffffffffffffffffffff1673ffffffffffffffffffffffffffffffffffffffff1681526020019081526020015f205f01600b8282829054906101000a90046affffffffffffffffffffff166146bf919061624d565b92506101000a8154816affffffffffffffffffffff02191690836affffffffffffffffffffff16021790555050505b505050505050565b5f8061470b84670de0b6b3a764000085615416565b905067ffffffffffffffff8016811115614751576040517f2c5211c600000000000000000000000000000000000000000000000000000000815260040160405180910390fd5b8091505092915050565b5f8061477084670de0b6b3a764000085615416565b905069ffffffffffffffffffff80168111156147b8576040517f2c5211c600000000000000000000000000000000000000000000000000000000815260040160405180910390fd5b8091505092915050565b5f805f5b8351811015614954575f8482815181106147e3576147e261662d565b5b602002602001015190505f875f8873ffffffffffffffffffffffffffffffffffffffff1673ffffffffffffffffffffffffffffffffffffffff1681526020019081526020015f205f835f015161ffff1661ffff1681526020019081526020015f2090505f815f01601b9054906101000a900460ff1690506006600781111561486e5761486d616026565b5b81600781111561488157614880616026565b5b14806148b0575060078081111561489b5761489a616026565b5b8160078111156148ae576148ad616026565b5b145b156148bd57505050614941565b8260200151825f01601c9054906101000a900463ffffffff1663ffffffff16036148f157825f01519550505050505061499a565b84158015614933575060078081111561490d5761490c616026565b5b8260010160149054906101000a900460ff16600781111561493157614930616026565b5b145b1561493d57600194505b5050505b808061494c9061665a565b9150506147c6565b50801561496857600160ff1691505061499a565b6040517f0870870400000000000000000000000000000000000000000000000000000000815260040160405180910390fd5b9392505050565b5f6149aa611a42565b90505f6149b986868686615528565b90505f865f8773ffffffffffffffffffffffffffffffffffffffff1673ffffffffffffffffffffffffffffffffffffffff1681526020019081526020015f205f8361ffff1661ffff1681526020019081526020015f205f0160199054906101000a900461ffff16905081856040019061ffff16908161ffff168152505080856080019061ffff16908161ffff16815250505f856060015190505f885f8973ffffffffffffffffffffffffffffffffffffffff1673ffffffffffffffffffffffffffffffffffffffff1681526020019081526020015f205f600160ff1661ffff1681526020019081526020015f205f0160159054906101000a900461ffff169050600160ff168161ffff1614614cd657885f8973ffffffffffffffffffffffffffffffffffffffff1673ffffffffffffffffffffffffffffffffffffffff1681526020019081526020015f205f8261ffff1661ffff1681526020019081526020015f205f01601b9054906101000a900460ff168761010001906007811115614b4357614b42616026565b5b90816007811115614b5757614b56616026565b5b815250505f895f8a73ffffffffffffffffffffffffffffffffffffffff1673ffffffffffffffffffffffffffffffffffffffff1681526020019081526020015f205f8361ffff1661ffff1681526020019081526020015f205f0160159054906101000a900461ffff169050600160ff168161ffff1614614c4657808a5f8b73ffffffffffffffffffffffffffffffffffffffff1673ffffffffffffffffffffffffffffffffffffffff1681526020019081526020015f205f600160ff1661ffff1681526020019081526020015f205f0160156101000a81548161ffff021916908361ffff160217905550614cbb565b600160ff168a5f8b73ffffffffffffffffffffffffffffffffffffffff1673ffffffffffffffffffffffffffffffffffffffff1681526020019081526020015f205f600160ff1661ffff1681526020019081526020015f205f0160156101000a81548161ffff021916908361ffff1602179055505b81886060019061ffff16908161ffff16815250925050614d50565b6001856008015f8a73ffffffffffffffffffffffffffffffffffffffff1673ffffffffffffffffffffffffffffffffffffffff1681526020019081526020015f205f01601a8282829054906101000a900461ffff16614d3591906166a1565b92506101000a81548161ffff021916908361ffff1602179055505b86895f8a73ffffffffffffffffffffffffffffffffffffffff1673ffffffffffffffffffffffffffffffffffffffff1681526020019081526020015f205f8461ffff1661ffff1681526020019081526020015f205f820151815f015f6101000a8154816affffffffffffffffffffff02191690836affffffffffffffffffffff1602179055506020820151815f01600b6101000a81548169ffffffffffffffffffff021916908369ffffffffffffffffffff1602179055506040820151815f0160156101000a81548161ffff021916908361ffff1602179055506060820151815f0160176101000a81548161ffff021916908361ffff1602179055506080820151815f0160196101000a81548161ffff021916908361ffff16021790555060a0820151815f01601b6101000a81548160ff02191690836007811115614e9857614e97616026565b5b021790555060c0820151815f01601c6101000a81548163ffffffff021916908363ffffffff16021790555060e0820151816001015f6101000a81548173ffffffffffffffffffffffffffffffffffffffff021916908373ffffffffffffffffffffffffffffffffffffffff1602179055506101008201518160010160146101000a81548160ff02191690836007811115614f3557614f34616026565b5b02179055506101208201518160010160156101000a81548161ffff021916908361ffff1602179055506101408201518160010160176101000a81548160ff021916908360ff1602179055506101608201518160010160186101000a81548167ffffffffffffffff021916908367ffffffffffffffff160217905550905050600160ff168361ffff1614615037578660600151895f8a73ffffffffffffffffffffffffffffffffffffffff1673ffffffffffffffffffffffffffffffffffffffff1681526020019081526020015f205f8561ffff1661ffff1681526020019081526020015f205f0160156101000a81548161ffff021916908361ffff1602179055505b8660600151895f8a73ffffffffffffffffffffffffffffffffffffffff1673ffffffffffffffffffffffffffffffffffffffff1681526020019081526020015f205f8661ffff1661ffff1681526020019081526020015f205f0160196101000a81548161ffff021916908361ffff1602179055508660a0015160078111156150c2576150c1616026565b5b8760e0015173ffffffffffffffffffffffffffffffffffffffff168973ffffffffffffffffffffffffffffffffffffffff167f464d814951bd2dcbcab73412ca99e1ec43435c5f9d3115eba8f8d475edf7dfcd8a606001518b5f015160405161512c9291906166d6565b60405180910390a4505050505050505050565b5f615148611a42565b90505f816008015f8573ffffffffffffffffffffffffffffffffffffffff1673ffffffffffffffffffffffffffffffffffffffff1681526020019081526020015f2090505f615196856126a3565b69ffffffffffffffffffff1690505f83600c015f8773ffffffffffffffffffffffffffffffffffffffff1673ffffffffffffffffffffffffffffffffffffffff1681526020019081526020015f205f845f0160189054906101000a900461ffff1661ffff1661ffff1681526020019081526020015f205f01600b9054906101000a900469ffffffffffffffffffff1669ffffffffffffffffffff1690505f600160ff1685600c015f8973ffffffffffffffffffffffffffffffffffffffff1673ffffffffffffffffffffffffffffffffffffffff1681526020019081526020015f205f600160ff1661ffff1681526020019081526020015f205f0160199054906101000a900461ffff1661ffff1614905080806152cb5750600160ff16845f0160189054906101000a900461ffff1661ffff16145b1561530f5782866020015169ffffffffffffffffffff161061530a578560600151845f0160186101000a81548161ffff021916908361ffff1602179055505b615367565b81866020015169ffffffffffffffffffff1610801561533e575082866020015169ffffffffffffffffffff1610155b15615366578560600151845f0160186101000a81548161ffff021916908361ffff1602179055505b5b50505050505050565b5f61538483670de0b6b3a764000084615416565b905092915050565b5f81831061539a578161539c565b825b905092915050565b5f8183116153b257816153b4565b825b905092915050565b5f806153cc8461ffff1684612726565b905061ffff801681111561540c576040517f2c5211c600000000000000000000000000000000000000000000000000000000815260040160405180910390fd5b8091505092915050565b5f805f80198587098587029250828110838203039150505f810361544e57838281615444576154436162cc565b5b0492505050615521565b838110615496578585856040517f63a0577800000000000000000000000000000000000000000000000000000000815260040161548d939291906166fd565b60405180910390fd5b5f8486880990508281118203915080830392505f6001861901861690505f81870496508185049450600182835f0304019050808402851794505f60028860030218905080880260020381029050808802600203810290508088026002038102905080880260020381029050808802600203810290508088026002038102905080860296505050505050505b9392505050565b5f80855f8673ffffffffffffffffffffffffffffffffffffffff1673ffffffffffffffffffffffffffffffffffffffff1681526020019081526020015f205f8461ffff1661ffff1681526020019081526020015f205f0160199054906101000a900461ffff1690505f8361ffff1614806155a557505f8161ffff16145b156155d8576155d0868660018060ff16886020015169ffffffffffffffffffff168960a001516156f9565b9150506156f1565b5f6155fb878786886020015169ffffffffffffffffffff16868a60a00151615832565b90505f810361560e5783925050506156f1565b60018103615642576156398787600185896020015169ffffffffffffffffffff168a60a001516156f9565b925050506156f1565b5f875f8873ffffffffffffffffffffffffffffffffffffffff1673ffffffffffffffffffffffffffffffffffffffff1681526020019081526020015f205f8661ffff1661ffff1681526020019081526020015f205f0160159054906101000a900461ffff1690506156eb88887fffffffffffffffffffffffffffffffffffffffffffffffffffffffffffffffff848a6020015169ffffffffffffffffffff168b60a001516156f9565b93505050505b949350505050565b5f5b600115615827575f875f8873ffffffffffffffffffffffffffffffffffffffff1673ffffffffffffffffffffffffffffffffffffffff1681526020019081526020015f205f8661ffff1661ffff1681526020019081526020015f205f0160199054906101000a900461ffff1690505f615778898988888689615832565b036157865784915050615828565b7fffffffffffffffffffffffffffffffffffffffffffffffffffffffffffffffff860361581d575f885f8973ffffffffffffffffffffffffffffffffffffffff1673ffffffffffffffffffffffffffffffffffffffff1681526020019081526020015f205f8761ffff1661ffff1681526020019081526020015f205f0160159054906101000a900461ffff16905080955050615821565b8094505b506156fb565b5b9695505050505050565b5f61583c826135ad565b91506002600781111561585257615851616026565b5b82600781111561586557615864616026565b5b14806158955750600560078111156158805761587f616026565b5b82600781111561589357615892616026565b5b145b156158ae576158a787878787876158f8565b90506158ee565b600160078111156158c2576158c1616026565b5b8260078111156158d5576158d4616026565b5b036158ed576158e686868686615a7c565b90506158ee565b5b9695505050505050565b5f8083875f8873ffffffffffffffffffffffffffffffffffffffff1673ffffffffffffffffffffffffffffffffffffffff1681526020019081526020015f205f8761ffff1661ffff1681526020019081526020015f205f01600b9054906101000a900469ffffffffffffffffffff1669ffffffffffffffffffff161115806159875750600160ff168561ffff16145b90505f875f8873ffffffffffffffffffffffffffffffffffffffff1673ffffffffffffffffffffffffffffffffffffffff1681526020019081526020015f205f8561ffff1661ffff1681526020019081526020015f205f01600b9054906101000a900469ffffffffffffffffffff1669ffffffffffffffffffff16851080615a165750600160ff168461ffff16145b9050818015615a225750805b15615a31575f92505050615a73565b81615a60577fffffffffffffffffffffffffffffffffffffffffffffffffffffffffffffffff92505050615a73565b80615a7057600192505050615a73565b50505b95945050505050565b5f80615a86611a42565b90505f8482600a015f8973ffffffffffffffffffffffffffffffffffffffff1673ffffffffffffffffffffffffffffffffffffffff1681526020019081526020015f205f8861ffff1661ffff1681526020019081526020015f205f01600b9054906101000a900469ffffffffffffffffffff1669ffffffffffffffffffff16101580615b195750600160ff168661ffff16145b90505f82600a015f8973ffffffffffffffffffffffffffffffffffffffff1673ffffffffffffffffffffffffffffffffffffffff1681526020019081526020015f205f8661ffff1661ffff1681526020019081526020015f205f01600b9054906101000a900469ffffffffffffffffffff1669ffffffffffffffffffff16861180615bab5750600160ff168561ffff16145b9050818015615bb75750805b15615bc7575f9350505050615c0c565b81615bf7577fffffffffffffffffffffffffffffffffffffffffffffffffffffffffffffffff9350505050615c0c565b80615c085760019350505050615c0c565b5050505b949350505050565b6040518061018001604052805f6affffffffffffffffffffff1681526020015f69ffffffffffffffffffff1681526020015f61ffff1681526020015f61ffff1681526020015f61ffff1681526020015f6007811115615c7657615c75616026565b5b81526020015f63ffffffff1681526020015f73ffffffffffffffffffffffffffffffffffffffff1681526020015f6007811115615cb657615cb5616026565b5b81526020015f61ffff1681526020015f60ff1681526020015f67ffffffffffffffff1681525090565b6040518061014001604052805f6affffffffffffffffffffff1681526020015f6affffffffffffffffffffff1681526020015f6affffffffffffffffffffff1681526020015f6affffffffffffffffffffff1681526020015f69ffffffffffffffffffff1681526020015f6affffffffffffffffffffff1681526020015f6bffffffffffffffffffffffff1681526020015f151581526020015f69ffffffffffffffffffff1681526020015f67ffffffffffffffff1681525090565b5f604051905090565b5f80fd5b5f80fd5b5f73ffffffffffffffffffffffffffffffffffffffff82169050919050565b5f615dd582615dac565b9050919050565b615de581615dcb565b8114615def575f80fd5b50565b5f81359050615e0081615ddc565b92915050565b5f61ffff82169050919050565b615e1c81615e06565b8114615e26575f80fd5b50565b5f81359050615e3781615e13565b92915050565b5f8060408385031215615e5357615e52615da4565b5b5f615e6085828601615df2565b9250506020615e7185828601615e29565b9150509250929050565b5f69ffffffffffffffffffff82169050919050565b615e9981615e7b565b8114615ea3575f80fd5b50565b5f81359050615eb481615e90565b92915050565b5f6affffffffffffffffffffff82169050919050565b615ed981615eba565b8114615ee3575f80fd5b50565b5f81359050615ef481615ed0565b92915050565b5f8115159050919050565b615f0e81615efa565b8114615f18575f80fd5b50565b5f81359050615f2981615f05565b92915050565b5f80fd5b5f80fd5b5f80fd5b5f8083601f840112615f5057615f4f615f2f565b5b8235905067ffffffffffffffff811115615f6d57615f6c615f33565b5b602083019150836040820283011115615f8957615f88615f37565b5b9250929050565b5f805f805f8060a08789031215615faa57615fa9615da4565b5b5f615fb789828a01615df2565b9650506020615fc889828a01615ea6565b9550506040615fd989828a01615ee6565b9450506060615fea89828a01615f1b565b935050608087013567ffffffffffffffff81111561600b5761600a615da8565b5b61601789828a01615f3b565b92509250509295509295509295565b7f4e487b71000000000000000000000000000000000000000000000000000000005f52602160045260245ffd5b5f80fd5b5f601f19601f8301169050919050565b7f4e487b71000000000000000000000000000000000000000000000000000000005f52604160045260245ffd5b61609d82616057565b810181811067ffffffffffffffff821117156160bc576160bb616067565b5b80604052505050565b5f6160ce615d9b565b90506160da8282616094565b919050565b5f819050919050565b6160f1816160df565b81146160fb575f80fd5b50565b5f8135905061610c816160e8565b92915050565b5f6040828403121561612757616126616053565b5b61613160406160c5565b90505f61614084828501615e29565b5f830152506020616153848285016160fe565b60208301525092915050565b5f6040828403121561617457616173615da4565b5b5f61618184828501616112565b91505092915050565b5f6cffffffffffffffffffffffffff82169050919050565b7f4e487b71000000000000000000000000000000000000000000000000000000005f52601160045260245ffd5b5f6161d98261618a565b91506161e48361618a565b925082820190506cffffffffffffffffffffffffff811115616209576162086161a2565b5b92915050565b5f61621982615eba565b915061622483615eba565b925082820390506affffffffffffffffffffff811115616247576162466161a2565b5b92915050565b5f61625782615eba565b915061626283615eba565b925082820190506affffffffffffffffffffff811115616285576162846161a2565b5b92915050565b5f616295826160df565b91506162a0836160df565b92508282026162ae816160df565b915082820484148315176162c5576162c46161a2565b5b5092915050565b7f4e487b71000000000000000000000000000000000000000000000000000000005f52601260045260245ffd5b5f616303826160df565b915061630e836160df565b92508261631e5761631d6162cc565b5b828204905092915050565b5f616333826160df565b915061633e836160df565b9250828203905081811115616356576163556161a2565b5b92915050565b61636581615e06565b82525050565b5f60208201905061637e5f83018461635c565b92915050565b5f60ff82169050919050565b5f819050919050565b5f6163b36163ae6163a984616384565b616390565b615e06565b9050919050565b6163c381616399565b82525050565b5f6020820190506163dc5f8301846163ba565b92915050565b6163eb816160df565b82525050565b5f6040820190506164045f8301856163e2565b61641160208301846163e2565b9392505050565b61642181615eba565b82525050565b5f60608201905061643a5f83018661635c565b6164476020830185616418565b6164546040830184616418565b949350505050565b5f616466826160df565b9150616471836160df565b9250828201905080821115616489576164886161a2565b5b92915050565b5f6164998261618a565b91506164a48361618a565b925082820390506cffffffffffffffffffffffffff8111156164c9576164c86161a2565b5b92915050565b5f6fffffffffffffffffffffffffffffffff82169050919050565b5f6164f4826164cf565b91506164ff836164cf565b925082820190506fffffffffffffffffffffffffffffffff811115616527576165266161a2565b5b92915050565b5f61653782615e06565b915061654283615e06565b9250828203905061ffff81111561655c5761655b6161a2565b5b92915050565b5f6020820190506165755f8301846163e2565b92915050565b5f63ffffffff82169050919050565b5f6165948261657b565b915061659f8361657b565b9250828203905063ffffffff8111156165bb576165ba6161a2565b5b92915050565b5f6165cb8261657b565b91506165d68361657b565b9250826165e6576165e56162cc565b5b828204905092915050565b5f6165fb82615eba565b915061660683615eba565b925082820261661481615eba565b9150808214616626576166256161a2565b5b5092915050565b7f4e487b71000000000000000000000000000000000000000000000000000000005f52603260045260245ffd5b5f616664826160df565b91507fffffffffffffffffffffffffffffffffffffffffffffffffffffffffffffffff8203616696576166956161a2565b5b600182019050919050565b5f6166ab82615e06565b91506166b683615e06565b9250828201905061ffff8111156166d0576166cf6161a2565b5b92915050565b5f6040820190506166e95f83018561635c565b6166f66020830184616418565b9392505050565b5f6060820190506167105f8301866163e2565b61671d60208301856163e2565b61672a60408301846163e2565b94935050505056fea264697066735822122085a5984e41387a32616f0bc9bb6a0d9699ad426fc4d5102101fe3cfa3da2878864736f6c63430008150033","linkReferences":{}},"methodIdentifiers":{"_cancelAsk(address,uint16)":"ae18d6ce","_cancelShort(address,uint16)":"bc47cc08","createAsk(address,uint80,uint88,bool,(uint16,uint256)[])":"d53f44b1"},"id":4}