{"abi":[{"type":"constructor","inputs":[{"name":"_ditto","type":"address","internalType":"contract IVotes"},{"name":"_timelock","type":"address","internalType":"contract TimelockController"}],"stateMutability":"nonpayable"},{"type":"receive","stateMutability":"payable"},{"type":"function","name":"BALLOT_TYPEHASH","inputs":[],"outputs":[{"name":"","type":"bytes32","internalType":"bytes32"}],"stateMutability":"view"},{"type":"function","name":"CLOCK_MODE","inputs":[],"outputs":[{"name":"","type":"string","internalType":"string"}],"stateMutability":"view"},{"type":"function","name":"COUNTING_MODE","inputs":[],"outputs":[{"name":"","type":"string","internalType":"string"}],"stateMutability":"pure"},{"type":"function","name":"EXTENDED_BALLOT_TYPEHASH","inputs":[],"outputs":[{"name":"","type":"bytes32","internalType":"bytes32"}],"stateMutability":"view"},{"type":"function","name":"cancel","inputs":[{"name":"targets","type":"address[]","internalType":"address[]"},{"name":"values","type":"uint256[]","internalType":"uint256[]"},{"name":"calldatas","type":"bytes[]","internalType":"bytes[]"},{"name":"descriptionHash","type":"bytes32","internalType":"bytes32"}],"outputs":[{"name":"","type":"uint256","internalType":"uint256"}],"stateMutability":"nonpayable"},{"type":"function","name":"castVote","inputs":[{"name":"proposalId","type":"uint256","internalType":"uint256"},{"name":"support","type":"uint8","internalType":"uint8"}],"outputs":[{"name":"","type":"uint256","internalType":"uint256"}],"stateMutability":"nonpayable"},{"type":"function","name":"castVoteBySig","inputs":[{"name":"proposalId","type":"uint256","internalType":"uint256"},{"name":"support","type":"uint8","internalType":"uint8"},{"name":"voter","type":"address","internalType":"address"},{"name":"signature","type":"bytes","internalType":"bytes"}],"outputs":[{"name":"","type":"uint256","internalType":"uint256"}],"stateMutability":"nonpayable"},{"type":"function","name":"castVoteWithReason","inputs":[{"name":"proposalId","type":"uint256","internalType":"uint256"},{"name":"support","type":"uint8","internalType":"uint8"},{"name":"reason","type":"string","internalType":"string"}],"outputs":[{"name":"","type":"uint256","internalType":"uint256"}],"stateMutability":"nonpayable"},{"type":"function","name":"castVoteWithReasonAndParams","inputs":[{"name":"proposalId","type":"uint256","internalType":"uint256"},{"name":"support","type":"uint8","internalType":"uint8"},{"name":"reason","type":"string","internalType":"string"},{"name":"params","type":"bytes","internalType":"bytes"}],"outputs":[{"name":"","type":"uint256","internalType":"uint256"}],"stateMutability":"nonpayable"},{"type":"function","name":"castVoteWithReasonAndParamsBySig","inputs":[{"name":"proposalId","type":"uint256","internalType":"uint256"},{"name":"support","type":"uint8","internalType":"uint8"},{"name":"voter","type":"address","internalType":"address"},{"name":"reason","type":"string","internalType":"string"},{"name":"params","type":"bytes","internalType":"bytes"},{"name":"signature","type":"bytes","internalType":"bytes"}],"outputs":[{"name":"","type":"uint256","internalType":"uint256"}],"stateMutability":"nonpayable"},{"type":"function","name":"clock","inputs":[],"outputs":[{"name":"","type":"uint48","internalType":"uint48"}],"stateMutability":"view"},{"type":"function","name":"eip712Domain","inputs":[],"outputs":[{"name":"fields","type":"bytes1","internalType":"bytes1"},{"name":"name","type":"string","internalType":"string"},{"name":"version","type":"string","internalType":"string"},{"name":"chainId","type":"uint256","internalType":"uint256"},{"name":"verifyingContract","type":"address","internalType":"address"},{"name":"salt","type":"bytes32","internalType":"bytes32"},{"name":"extensions","type":"uint256[]","internalType":"uint256[]"}],"stateMutability":"view"},{"type":"function","name":"execute","inputs":[{"name":"targets","type":"address[]","internalType":"address[]"},{"name":"values","type":"uint256[]","internalType":"uint256[]"},{"name":"calldatas","type":"bytes[]","internalType":"bytes[]"},{"name":"descriptionHash","type":"bytes32","internalType":"bytes32"}],"outputs":[{"name":"","type":"uint256","internalType":"uint256"}],"stateMutability":"payable"},{"type":"function","name":"getVotes","inputs":[{"name":"account","type":"address","internalType":"address"},{"name":"timepoint","type":"uint256","internalType":"uint256"}],"outputs":[{"name":"","type":"uint256","internalType":"uint256"}],"stateMutability":"view"},{"type":"function","name":"getVotesWithParams","inputs":[{"name":"account","type":"address","internalType":"address"},{"name":"timepoint","type":"uint256","internalType":"uint256"},{"name":"params","type":"bytes","internalType":"bytes"}],"outputs":[{"name":"","type":"uint256","internalType":"uint256"}],"stateMutability":"view"},{"type":"function","name":"hasVoted","inputs":[{"name":"proposalId","type":"uint256","internalType":"uint256"},{"name":"account","type":"address","internalType":"address"}],"outputs":[{"name":"","type":"bool","internalType":"bool"}],"stateMutability":"view"},{"type":"function","name":"hashProposal","inputs":[{"name":"targets","type":"address[]","internalType":"address[]"},{"name":"values","type":"uint256[]","internalType":"uint256[]"},{"name":"calldatas","type":"bytes[]","internalType":"bytes[]"},{"name":"descriptionHash","type":"bytes32","internalType":"bytes32"}],"outputs":[{"name":"","type":"uint256","internalType":"uint256"}],"stateMutability":"pure"},{"type":"function","name":"name","inputs":[],"outputs":[{"name":"","type":"string","internalType":"string"}],"stateMutability":"view"},{"type":"function","name":"nonces","inputs":[{"name":"owner","type":"address","internalType":"address"}],"outputs":[{"name":"","type":"uint256","internalType":"uint256"}],"stateMutability":"view"},{"type":"function","name":"onERC1155BatchReceived","inputs":[{"name":"","type":"address","internalType":"address"},{"name":"","type":"address","internalType":"address"},{"name":"","type":"uint256[]","internalType":"uint256[]"},{"name":"","type":"uint256[]","internalType":"uint256[]"},{"name":"","type":"bytes","internalType":"bytes"}],"outputs":[{"name":"","type":"bytes4","internalType":"bytes4"}],"stateMutability":"nonpayable"},{"type":"function","name":"onERC1155Received","inputs":[{"name":"","type":"address","internalType":"address"},{"name":"","type":"address","internalType":"address"},{"name":"","type":"uint256","internalType":"uint256"},{"name":"","type":"uint256","internalType":"uint256"},{"name":"","type":"bytes","internalType":"bytes"}],"outputs":[{"name":"","type":"bytes4","internalType":"bytes4"}],"stateMutability":"nonpayable"},{"type":"function","name":"onERC721Received","inputs":[{"name":"","type":"address","internalType":"address"},{"name":"","type":"address","internalType":"address"},{"name":"","type":"uint256","internalType":"uint256"},{"name":"","type":"bytes","internalType":"bytes"}],"outputs":[{"name":"","type":"bytes4","internalType":"bytes4"}],"stateMutability":"nonpayable"},{"type":"function","name":"proposalDeadline","inputs":[{"name":"proposalId","type":"uint256","internalType":"uint256"}],"outputs":[{"name":"","type":"uint256","internalType":"uint256"}],"stateMutability":"view"},{"type":"function","name":"proposalEta","inputs":[{"name":"proposalId","type":"uint256","internalType":"uint256"}],"outputs":[{"name":"","type":"uint256","internalType":"uint256"}],"stateMutability":"view"},{"type":"function","name":"proposalNeedsQueuing","inputs":[{"name":"proposalId","type":"uint256","internalType":"uint256"}],"outputs":[{"name":"","type":"bool","internalType":"bool"}],"stateMutability":"view"},{"type":"function","name":"proposalProposer","inputs":[{"name":"proposalId","type":"uint256","internalType":"uint256"}],"outputs":[{"name":"","type":"address","internalType":"address"}],"stateMutability":"view"},{"type":"function","name":"proposalSnapshot","inputs":[{"name":"proposalId","type":"uint256","internalType":"uint256"}],"outputs":[{"name":"","type":"uint256","internalType":"uint256"}],"stateMutability":"view"},{"type":"function","name":"proposalThreshold","inputs":[],"outputs":[{"name":"","type":"uint256","internalType":"uint256"}],"stateMutability":"view"},{"type":"function","name":"proposalVotes","inputs":[{"name":"proposalId","type":"uint256","internalType":"uint256"}],"outputs":[{"name":"againstVotes","type":"uint256","internalType":"uint256"},{"name":"forVotes","type":"uint256","internalType":"uint256"},{"name":"abstainVotes","type":"uint256","internalType":"uint256"}],"stateMutability":"view"},{"type":"function","name":"propose","inputs":[{"name":"targets","type":"address[]","internalType":"address[]"},{"name":"values","type":"uint256[]","internalType":"uint256[]"},{"name":"calldatas","type":"bytes[]","internalType":"bytes[]"},{"name":"description","type":"string","internalType":"string"}],"outputs":[{"name":"","type":"uint256","internalType":"uint256"}],"stateMutability":"nonpayable"},{"type":"function","name":"queue","inputs":[{"name":"targets","type":"address[]","internalType":"address[]"},{"name":"values","type":"uint256[]","internalType":"uint256[]"},{"name":"calldatas","type":"bytes[]","internalType":"bytes[]"},{"name":"descriptionHash","type":"bytes32","internalType":"bytes32"}],"outputs":[{"name":"","type":"uint256","internalType":"uint256"}],"stateMutability":"nonpayable"},{"type":"function","name":"quorum","inputs":[{"name":"blockNumber","type":"uint256","internalType":"uint256"}],"outputs":[{"name":"","type":"uint256","internalType":"uint256"}],"stateMutability":"view"},{"type":"function","name":"quorumDenominator","inputs":[],"outputs":[{"name":"","type":"uint256","internalType":"uint256"}],"stateMutability":"view"},{"type":"function","name":"quorumNumerator","inputs":[{"name":"timepoint","type":"uint256","internalType":"uint256"}],"outputs":[{"name":"","type":"uint256","internalType":"uint256"}],"stateMutability":"view"},{"type":"function","name":"quorumNumerator","inputs":[],"outputs":[{"name":"","type":"uint256","internalType":"uint256"}],"stateMutability":"view"},{"type":"function","name":"relay","inputs":[{"name":"target","type":"address","internalType":"address"},{"name":"value","type":"uint256","internalType":"uint256"},{"name":"data","type":"bytes","internalType":"bytes"}],"outputs":[],"stateMutability":"payable"},{"type":"function","name":"setProposalThreshold","inputs":[{"name":"newProposalThreshold","type":"uint256","internalType":"uint256"}],"outputs":[],"stateMutability":"nonpayable"},{"type":"function","name":"setVotingDelay","inputs":[{"name":"newVotingDelay","type":"uint48","internalType":"uint48"}],"outputs":[],"stateMutability":"nonpayable"},{"type":"function","name":"setVotingPeriod","inputs":[{"name":"newVotingPeriod","type":"uint32","internalType":"uint32"}],"outputs":[],"stateMutability":"nonpayable"},{"type":"function","name":"state","inputs":[{"name":"proposalId","type":"uint256","internalType":"uint256"}],"outputs":[{"name":"","type":"uint8","internalType":"enum IGovernor.ProposalState"}],"stateMutability":"view"},{"type":"function","name":"supportsInterface","inputs":[{"name":"interfaceId","type":"bytes4","internalType":"bytes4"}],"outputs":[{"name":"","type":"bool","internalType":"bool"}],"stateMutability":"view"},{"type":"function","name":"timelock","inputs":[],"outputs":[{"name":"","type":"address","internalType":"address"}],"stateMutability":"view"},{"type":"function","name":"token","inputs":[],"outputs":[{"name":"","type":"address","internalType":"contract IERC5805"}],"stateMutability":"view"},{"type":"function","name":"updateQuorumNumerator","inputs":[{"name":"newQuorumNumerator","type":"uint256","internalType":"uint256"}],"outputs":[],"stateMutability":"nonpayable"},{"type":"function","name":"updateTimelock","inputs":[{"name":"newTimelock","type":"address","internalType":"contract TimelockController"}],"outputs":[],"stateMutability":"nonpayable"},{"type":"function","name":"version","inputs":[],"outputs":[{"name":"","type":"string","internalType":"string"}],"stateMutability":"view"},{"type":"function","name":"votingDelay","inputs":[],"outputs":[{"name":"","type":"uint256","internalType":"uint256"}],"stateMutability":"view"},{"type":"function","name":"votingPeriod","inputs":[],"outputs":[{"name":"","type":"uint256","internalType":"uint256"}],"stateMutability":"view"},{"type":"event","name":"EIP712DomainChanged","inputs":[],"anonymous":false},{"type":"event","name":"ProposalCanceled","inputs":[{"name":"proposalId","type":"uint256","indexed":false,"internalType":"uint256"}],"anonymous":false},{"type":"event","name":"ProposalCreated","inputs":[{"name":"proposalId","type":"uint256","indexed":false,"internalType":"uint256"},{"name":"proposer","type":"address","indexed":false,"internalType":"address"},{"name":"targets","type":"address[]","indexed":false,"internalType":"address[]"},{"name":"values","type":"uint256[]","indexed":false,"internalType":"uint256[]"},{"name":"signatures","type":"string[]","indexed":false,"internalType":"string[]"},{"name":"calldatas","type":"bytes[]","indexed":false,"internalType":"bytes[]"},{"name":"voteStart","type":"uint256","indexed":false,"internalType":"uint256"},{"name":"voteEnd","type":"uint256","indexed":false,"internalType":"uint256"},{"name":"description","type":"string","indexed":false,"internalType":"string"}],"anonymous":false},{"type":"event","name":"ProposalExecuted","inputs":[{"name":"proposalId","type":"uint256","indexed":false,"internalType":"uint256"}],"anonymous":false},{"type":"event","name":"ProposalQueued","inputs":[{"name":"proposalId","type":"uint256","indexed":false,"internalType":"uint256"},{"name":"etaSeconds","type":"uint256","indexed":false,"internalType":"uint256"}],"anonymous":false},{"type":"event","name":"ProposalThresholdSet","inputs":[{"name":"oldProposalThreshold","type":"uint256","indexed":false,"internalType":"uint256"},{"name":"newProposalThreshold","type":"uint256","indexed":false,"internalType":"uint256"}],"anonymous":false},{"type":"event","name":"QuorumNumeratorUpdated","inputs":[{"name":"oldQuorumNumerator","type":"uint256","indexed":false,"internalType":"uint256"},{"name":"newQuorumNumerator","type":"uint256","indexed":false,"internalType":"uint256"}],"anonymous":false},{"type":"event","name":"TimelockChange","inputs":[{"name":"oldTimelock","type":"address","indexed":false,"internalType":"address"},{"name":"newTimelock","type":"address","indexed":false,"internalType":"address"}],"anonymous":false},{"type":"event","name":"VoteCast","inputs":[{"name":"voter","type":"address","indexed":true,"internalType":"address"},{"name":"proposalId","type":"uint256","indexed":false,"internalType":"uint256"},{"name":"support","type":"uint8","indexed":false,"internalType":"uint8"},{"name":"weight","type":"uint256","indexed":false,"internalType":"uint256"},{"name":"reason","type":"string","indexed":false,"internalType":"string"}],"anonymous":false},{"type":"event","name":"VoteCastWithParams","inputs":[{"name":"voter","type":"address","indexed":true,"internalType":"address"},{"name":"proposalId","type":"uint256","indexed":false,"internalType":"uint256"},{"name":"support","type":"uint8","indexed":false,"internalType":"uint8"},{"name":"weight","type":"uint256","indexed":false,"internalType":"uint256"},{"name":"reason","type":"string","indexed":false,"internalType":"string"},{"name":"params","type":"bytes","indexed":false,"internalType":"bytes"}],"anonymous":false},{"type":"event","name":"VotingDelaySet","inputs":[{"name":"oldVotingDelay","type":"uint256","indexed":false,"internalType":"uint256"},{"name":"newVotingDelay","type":"uint256","indexed":false,"internalType":"uint256"}],"anonymous":false},{"type":"event","name":"VotingPeriodSet","inputs":[{"name":"oldVotingPeriod","type":"uint256","indexed":false,"internalType":"uint256"},{"name":"newVotingPeriod","type":"uint256","indexed":false,"internalType":"uint256"}],"anonymous":false},{"type":"error","name":"CheckpointUnorderedInsertion","inputs":[]},{"type":"error","name":"FailedInnerCall","inputs":[]},{"type":"error","name":"GovernorAlreadyCastVote","inputs":[{"name":"voter","type":"address","internalType":"address"}]},{"type":"error","name":"GovernorAlreadyQueuedProposal","inputs":[{"name":"proposalId","type":"uint256","internalType":"uint256"}]},{"type":"error","name":"GovernorDisabledDeposit","inputs":[]},{"type":"error","name":"GovernorInsufficientProposerVotes","inputs":[{"name":"proposer","type":"address","internalType":"address"},{"name":"votes","type":"uint256","internalType":"uint256"},{"name":"threshold","type":"uint256","internalType":"uint256"}]},{"type":"error","name":"GovernorInvalidProposalLength","inputs":[{"name":"targets","type":"uint256","internalType":"uint256"},{"name":"calldatas","type":"uint256","internalType":"uint256"},{"name":"values","type":"uint256","internalType":"uint256"}]},{"type":"error","name":"GovernorInvalidQuorumFraction","inputs":[{"name":"quorumNumerator","type":"uint256","internalType":"uint256"},{"name":"quorumDenominator","type":"uint256","internalType":"uint256"}]},{"type":"error","name":"GovernorInvalidSignature","inputs":[{"name":"voter","type":"address","internalType":"address"}]},{"type":"error","name":"GovernorInvalidVoteType","inputs":[]},{"type":"error","name":"GovernorInvalidVotingPeriod","inputs":[{"name":"votingPeriod","type":"uint256","internalType":"uint256"}]},{"type":"error","name":"GovernorNonexistentProposal","inputs":[{"name":"proposalId","type":"uint256","internalType":"uint256"}]},{"type":"error","name":"GovernorNotQueuedProposal","inputs":[{"name":"proposalId","type":"uint256","internalType":"uint256"}]},{"type":"error","name":"GovernorOnlyExecutor","inputs":[{"name":"account","type":"address","internalType":"address"}]},{"type":"error","name":"GovernorOnlyProposer","inputs":[{"name":"account","type":"address","internalType":"address"}]},{"type":"error","name":"GovernorQueueNotImplemented","inputs":[]},{"type":"error","name":"GovernorRestrictedProposer","inputs":[{"name":"proposer","type":"address","internalType":"address"}]},{"type":"error","name":"GovernorUnexpectedProposalState","inputs":[{"name":"proposalId","type":"uint256","internalType":"uint256"},{"name":"current","type":"uint8","internalType":"enum IGovernor.ProposalState"},{"name":"expectedStates","type":"bytes32","internalType":"bytes32"}]},{"type":"error","name":"InvalidAccountNonce","inputs":[{"name":"account","type":"address","internalType":"address"},{"name":"currentNonce","type":"uint256","internalType":"uint256"}]},{"type":"error","name":"InvalidShortString","inputs":[]},{"type":"error","name":"QueueEmpty","inputs":[]},{"type":"error","name":"QueueFull","inputs":[]},{"type":"error","name":"SafeCastOverflowedUintDowncast","inputs":[{"name":"bits","type":"uint8","internalType":"uint8"},{"name":"value","type":"uint256","internalType":"uint256"}]},{"type":"error","name":"StringTooLong","inputs":[{"name":"str","type":"string","internalType":"string"}]}],"bytecode":{"object":"0x61018060405234801562000011575f80fd5b506040516200836e3803806200836e833981810160405281019062000037919062000d0a565b80600483611c2061c4e069152d02c7e14af68000006040518060400160405280600d81526020017f446974746f476f7665726e6f72000000000000000000000000000000000000008152508062000093620001ed60201b60201c565b620000a85f836200022a60201b90919060201c565b6101208181525050620000c66001826200022a60201b90919060201c565b6101408181525050818051906020012060e08181525050808051906020012061010081815250504660a08181525050620001056200027f60201b60201c565b608081815250503073ffffffffffffffffffffffffffffffffffffffff1660c08173ffffffffffffffffffffffffffffffffffffffff16815250505050806003908162000153919062000fb3565b50506200016683620002db60201b60201c565b62000177826200035060201b60201c565b62000188816200040e60201b60201c565b5050508073ffffffffffffffffffffffffffffffffffffffff166101608173ffffffffffffffffffffffffffffffffffffffff168152505050620001d2816200045560201b60201c565b50620001e4816200053e60201b60201c565b505050620015ba565b60606040518060400160405280600181526020017f3100000000000000000000000000000000000000000000000000000000000000815250905090565b5f6020835110156200024f576200024783620005dd60201b60201c565b905062000279565b8262000261836200064760201b60201c565b5f01908162000271919062000fb3565b5060ff5f1b90505b92915050565b5f7f8b73c3c69bb8fe3d512ecc4cf759cc79239f7b179b0ffacaa9a75d522b39400f60e051610100514630604051602001620002c0959493929190620010d3565b60405160208183030381529060405280519060200120905090565b7fc565b045403dc03c2eea82b81a0465edad9e2e7fc4d97e11421c209da93d7a9360085f9054906101000a900465ffffffffffff16826040516200032192919062001177565b60405180910390a18060085f6101000a81548165ffffffffffff021916908365ffffffffffff16021790555050565b5f8163ffffffff16036200039d575f6040517ff1cfbf05000000000000000000000000000000000000000000000000000000008152600401620003949190620011e3565b60405180910390fd5b7f7e3f7f0708a84de9203036abaa450dccc85ad5ff52f78c170f3edb55cf5e8828600860069054906101000a900463ffffffff1682604051620003e292919062001245565b60405180910390a180600860066101000a81548163ffffffff021916908363ffffffff16021790555050565b7fccb45da8d5717e6c4544694297c4ba5cf151d455c9bb0ed4fc7a38411bc05461600754826040516200044392919062001270565b60405180910390a18060078190555050565b5f620004666200065060201b60201c565b905080821115620004b25781816040517f243e5445000000000000000000000000000000000000000000000000000000008152600401620004a992919062001270565b60405180910390fd5b5f620004c36200065860201b60201c565b9050620004fc620004d96200068c60201b60201c565b620004ea856200072c60201b60201c565b600a6200079c60201b9092919060201c565b50507f0553476bf02ef2726e8ce5ced78d63e26e602e4a2257b1f559418e24b463399781846040516200053192919062001270565b60405180910390a1505050565b7f08f74ea46ef7894f65eabfb5e6e695de773a000b47c529ab559178069b226401600b5f9054906101000a900473ffffffffffffffffffffffffffffffffffffffff1682604051620005929291906200129b565b60405180910390a180600b5f6101000a81548173ffffffffffffffffffffffffffffffffffffffff021916908373ffffffffffffffffffffffffffffffffffffffff16021790555050565b5f80829050601f815111156200062c57826040517f305a27a900000000000000000000000000000000000000000000000000000000815260040162000623919062001350565b60405180910390fd5b8051816200063a90620013a1565b5f1c175f1b915050919050565b5f819050919050565b5f6064905090565b5f6200066b600a620007bf60201b60201c565b79ffffffffffffffffffffffffffffffffffffffffffffffffffff16905090565b5f6200069d6200082d60201b60201c565b73ffffffffffffffffffffffffffffffffffffffff166391ddadf46040518163ffffffff1660e01b8152600401602060405180830381865afa9250505080156200070757506040513d601f19601f820116820180604052508101906200070491906200143f565b60015b62000724576200071c6200083760201b60201c565b905062000729565b809150505b90565b5f79ffffffffffffffffffffffffffffffffffffffffffffffffffff8016821115620007945760d0826040517f6dfcc6500000000000000000000000000000000000000000000000000000000081526004016200078b929190620014bc565b60405180910390fd5b819050919050565b5f80620007b3855f0185856200084e60201b60201c565b91509150935093915050565b5f80825f018054905090505f81146200082357620007f4835f01600183620007e8919062001514565b62000bcf60201b60201c565b5f0160069054906101000a900479ffffffffffffffffffffffffffffffffffffffffffffffffffff1662000825565b5f5b915050919050565b5f61016051905090565b5f620008494362000be160201b60201c565b905090565b5f805f858054905090505f81111562000ae7575f620008828760018462000876919062001514565b62000bcf60201b60201c565b6040518060400160405290815f82015f9054906101000a900465ffffffffffff1665ffffffffffff1665ffffffffffff1681526020015f820160069054906101000a900479ffffffffffffffffffffffffffffffffffffffffffffffffffff1679ffffffffffffffffffffffffffffffffffffffffffffffffffff1679ffffffffffffffffffffffffffffffffffffffffffffffffffff168152505090508565ffffffffffff16815f015165ffffffffffff1611156200096e576040517f2520601d00000000000000000000000000000000000000000000000000000000815260040160405180910390fd5b8565ffffffffffff16815f015165ffffffffffff1603620009fc5784620009aa886001856200099e919062001514565b62000bcf60201b60201c565b5f0160066101000a81548179ffffffffffffffffffffffffffffffffffffffffffffffffffff021916908379ffffffffffffffffffffffffffffffffffffffffffffffffffff16021790555062000ad5565b8660405180604001604052808865ffffffffffff1681526020018779ffffffffffffffffffffffffffffffffffffffffffffffffffff16815250908060018154018082558091505060019003905f5260205f20015f909190919091505f820151815f015f6101000a81548165ffffffffffff021916908365ffffffffffff1602179055506020820151815f0160066101000a81548179ffffffffffffffffffffffffffffffffffffffffffffffffffff021916908379ffffffffffffffffffffffffffffffffffffffffffffffffffff16021790555050505b80602001518593509350505062000bc7565b8560405180604001604052808765ffffffffffff1681526020018679ffffffffffffffffffffffffffffffffffffffffffffffffffff16815250908060018154018082558091505060019003905f5260205f20015f909190919091505f820151815f015f6101000a81548165ffffffffffff021916908365ffffffffffff1602179055506020820151815f0160066101000a81548179ffffffffffffffffffffffffffffffffffffffffffffffffffff021916908379ffffffffffffffffffffffffffffffffffffffffffffffffffff16021790555050505f8492509250505b935093915050565b5f825f528160205f2001905092915050565b5f65ffffffffffff801682111562000c35576030826040517f6dfcc65000000000000000000000000000000000000000000000000000000000815260040162000c2c9291906200158f565b60405180910390fd5b819050919050565b5f80fd5b5f73ffffffffffffffffffffffffffffffffffffffff82169050919050565b5f62000c6c8262000c41565b9050919050565b5f62000c7f8262000c60565b9050919050565b62000c918162000c73565b811462000c9c575f80fd5b50565b5f8151905062000caf8162000c86565b92915050565b5f62000cc18262000c41565b9050919050565b5f62000cd48262000cb5565b9050919050565b62000ce68162000cc8565b811462000cf1575f80fd5b50565b5f8151905062000d048162000cdb565b92915050565b5f806040838503121562000d235762000d2262000c3d565b5b5f62000d328582860162000c9f565b925050602062000d458582860162000cf4565b9150509250929050565b5f81519050919050565b7f4e487b71000000000000000000000000000000000000000000000000000000005f52604160045260245ffd5b7f4e487b71000000000000000000000000000000000000000000000000000000005f52602260045260245ffd5b5f600282049050600182168062000dcb57607f821691505b60208210810362000de15762000de062000d86565b5b50919050565b5f819050815f5260205f209050919050565b5f6020601f8301049050919050565b5f82821b905092915050565b5f6008830262000e457fffffffffffffffffffffffffffffffffffffffffffffffffffffffffffffffff8262000e08565b62000e51868362000e08565b95508019841693508086168417925050509392505050565b5f819050919050565b5f819050919050565b5f62000e9b62000e9562000e8f8462000e69565b62000e72565b62000e69565b9050919050565b5f819050919050565b62000eb68362000e7b565b62000ece62000ec58262000ea2565b84845462000e14565b825550505050565b5f90565b62000ee462000ed6565b62000ef181848462000eab565b505050565b5b8181101562000f185762000f0c5f8262000eda565b60018101905062000ef7565b5050565b601f82111562000f675762000f318162000de7565b62000f3c8462000df9565b8101602085101562000f4c578190505b62000f6462000f5b8562000df9565b83018262000ef6565b50505b505050565b5f82821c905092915050565b5f62000f895f198460080262000f6c565b1980831691505092915050565b5f62000fa3838362000f78565b9150826002028217905092915050565b62000fbe8262000d4f565b67ffffffffffffffff81111562000fda5762000fd962000d59565b5b62000fe6825462000db3565b62000ff382828562000f1c565b5f60209050601f83116001811462001029575f841562001014578287015190505b62001020858262000f96565b8655506200108f565b601f198416620010398662000de7565b5f5b8281101562001062578489015182556001820191506020850194506020810190506200103b565b868310156200108257848901516200107e601f89168262000f78565b8355505b6001600288020188555050505b505050505050565b5f819050919050565b620010ab8162001097565b82525050565b620010bc8162000e69565b82525050565b620010cd8162000c60565b82525050565b5f60a082019050620010e85f830188620010a0565b620010f76020830187620010a0565b620011066040830186620010a0565b620011156060830185620010b1565b620011246080830184620010c2565b9695505050505050565b5f65ffffffffffff82169050919050565b5f6200115f6200115962001153846200112e565b62000e72565b62000e69565b9050919050565b62001171816200113f565b82525050565b5f6040820190506200118c5f83018562001166565b6200119b602083018462001166565b9392505050565b5f819050919050565b5f620011cb620011c5620011bf84620011a2565b62000e72565b62000e69565b9050919050565b620011dd81620011ab565b82525050565b5f602082019050620011f85f830184620011d2565b92915050565b5f63ffffffff82169050919050565b5f6200122d620012276200122184620011fe565b62000e72565b62000e69565b9050919050565b6200123f816200120d565b82525050565b5f6040820190506200125a5f83018562001234565b62001269602083018462001234565b9392505050565b5f604082019050620012855f830185620010b1565b620012946020830184620010b1565b9392505050565b5f604082019050620012b05f830185620010c2565b620012bf6020830184620010c2565b9392505050565b5f82825260208201905092915050565b5f5b83811015620012f5578082015181840152602081019050620012d8565b5f8484015250505050565b5f601f19601f8301169050919050565b5f6200131c8262000d4f565b620013288185620012c6565b93506200133a818560208601620012d6565b620013458162001300565b840191505092915050565b5f6020820190508181035f8301526200136a818462001310565b905092915050565b5f81519050919050565b5f819050602082019050919050565b5f62001398825162001097565b80915050919050565b5f620013ad8262001372565b82620013b9846200137c565b9050620013c6816200138b565b925060208210156200140957620014047fffffffffffffffffffffffffffffffffffffffffffffffffffffffffffffffff8360200360080262000e08565b831692505b5050919050565b6200141b816200112e565b811462001426575f80fd5b50565b5f81519050620014398162001410565b92915050565b5f6020828403121562001457576200145662000c3d565b5b5f620014668482850162001429565b91505092915050565b5f819050919050565b5f60ff82169050919050565b5f620014a46200149e62001498846200146f565b62000e72565b62001478565b9050919050565b620014b68162001484565b82525050565b5f604082019050620014d15f830185620014ab565b620014e06020830184620010b1565b9392505050565b7f4e487b71000000000000000000000000000000000000000000000000000000005f52601160045260245ffd5b5f620015208262000e69565b91506200152d8362000e69565b9250828203905081811115620015485762001547620014e7565b5b92915050565b5f819050919050565b5f62001577620015716200156b846200154e565b62000e72565b62001478565b9050919050565b620015898162001557565b82525050565b5f604082019050620015a45f8301856200157e565b620015b36020830184620010b1565b9392505050565b60805160a05160c05160e05161010051610120516101405161016051616d58620016165f395f611ee201525f612e0301525f612dc801525f61456201525f61454101525f61389901525f6138ef01525f6139180152616d585ff3fe608060405260043610610296575f3560e01c80637ecebe0011610159578063c01f9e37116100c0578063e540d01d11610079578063e540d01d14610b89578063eb9019d414610bb1578063ece40cc114610bed578063f23a6e6114610c15578063f8ce560a14610c51578063fc0c546a14610c8d57610309565b8063c01f9e3714610a77578063c28bc2fa14610ab3578063c59057e414610acf578063d33219b414610b0b578063dd4e2ba514610b35578063deaaa7cc14610b5f57610309565b8063a7713a7011610112578063a7713a7014610947578063a890c91014610971578063a9a9529414610999578063ab58fb8e146109d5578063b58131b014610a11578063bc197c8114610a3b57610309565b80637ecebe001461080f57806384b0196e1461084b5780638ff262e31461087b57806391ddadf4146108b757806397c3d334146108e15780639a802a6d1461090b57610309565b806343859632116101fd5780635b8d0e0d116101b65780635b8d0e0d146106bb5780635f398a14146106f757806360c4247f14610733578063790518871461076f5780637b3c71d3146107975780637d5e81e2146107d357610309565b80634385963214610575578063452115d6146105b15780634bf5d7e9146105ed578063544ffc9c1461061757806354fd4d5014610655578063567813881461067f57610309565b8063160cbed71161024f578063160cbed71461043d5780632656227d146104795780632d63f693146104a95780632fe3e261146104e55780633932abb11461050f5780633e4f49e61461053957610309565b806301ffc9a71461030d57806302a251a31461034957806306f3f9e61461037357806306fdde031461039b578063143489d0146103c5578063150b7a021461040157610309565b36610309573073ffffffffffffffffffffffffffffffffffffffff166102ba610cb7565b73ffffffffffffffffffffffffffffffffffffffff1614610307576040517fe90a651e00000000000000000000000000000000000000000000000000000000815260040160405180910390fd5b005b5f80fd5b348015610318575f80fd5b50610333600480360381019061032e91906148d3565b610cc5565b6040516103409190614918565b60405180910390f35b348015610354575f80fd5b5061035d610da6565b60405161036a9190614949565b60405180910390f35b34801561037e575f80fd5b506103996004803603810190610394919061498c565b610db4565b005b3480156103a6575f80fd5b506103af610dc8565b6040516103bc9190614a41565b60405180910390f35b3480156103d0575f80fd5b506103eb60048036038101906103e6919061498c565b610e58565b6040516103f89190614aa0565b60405180910390f35b34801561040c575f80fd5b5061042760048036038101906104229190614c0f565b610e93565b6040516104349190614c9e565b60405180910390f35b348015610448575f80fd5b50610463600480360381019061045e9190614f4c565b610f12565b6040516104709190614949565b60405180910390f35b610493600480360381019061048e9190614f4c565b611008565b6040516104a09190614949565b60405180910390f35b3480156104b4575f80fd5b506104cf60048036038101906104ca919061498c565b6111e8565b6040516104dc9190614949565b60405180910390f35b3480156104f0575f80fd5b506104f961121e565b6040516105069190615013565b60405180910390f35b34801561051a575f80fd5b50610523611242565b6040516105309190614949565b60405180910390f35b348015610544575f80fd5b5061055f600480360381019061055a919061498c565b611250565b60405161056c919061509f565b60405180910390f35b348015610580575f80fd5b5061059b600480360381019061059691906150b8565b611261565b6040516105a89190614918565b60405180910390f35b3480156105bc575f80fd5b506105d760048036038101906105d29190614f4c565b6112c6565b6040516105e49190614949565b60405180910390f35b3480156105f8575f80fd5b50610601611386565b60405161060e9190614a41565b60405180910390f35b348015610622575f80fd5b5061063d6004803603810190610638919061498c565b611443565b60405161064c939291906150f6565b60405180910390f35b348015610660575f80fd5b50610669611476565b6040516106769190614a41565b60405180910390f35b34801561068a575f80fd5b506106a560048036038101906106a09190615161565b6114b3565b6040516106b29190614949565b60405180910390f35b3480156106c6575f80fd5b506106e160048036038101906106dc91906151f8565b6114e2565b6040516106ee9190614949565b60405180910390f35b348015610702575f80fd5b5061071d600480360381019061071891906152da565b611611565b60405161072a9190614949565b60405180910390f35b34801561073e575f80fd5b506107596004803603810190610754919061498c565b611679565b6040516107669190614949565b60405180910390f35b34801561077a575f80fd5b50610795600480360381019061079091906153b5565b611772565b005b3480156107a2575f80fd5b506107bd60048036038101906107b891906153e0565b611786565b6040516107ca9190614949565b60405180910390f35b3480156107de575f80fd5b506107f960048036038101906107f491906154ef565b6117ec565b6040516108069190614949565b60405180910390f35b34801561081a575f80fd5b50610835600480360381019061083091906155c3565b6118d9565b6040516108429190614949565b60405180910390f35b348015610856575f80fd5b5061085f61191f565b60405161087297969594939291906156df565b60405180910390f35b348015610886575f80fd5b506108a1600480360381019061089c9190615761565b6119c4565b6040516108ae9190614949565b60405180910390f35b3480156108c2575f80fd5b506108cb611a98565b6040516108d891906157f0565b60405180910390f35b3480156108ec575f80fd5b506108f5611b23565b6040516109029190614949565b60405180910390f35b348015610916575f80fd5b50610931600480360381019061092c9190615809565b611b2b565b60405161093e9190614949565b60405180910390f35b348015610952575f80fd5b5061095b611b40565b6040516109689190614949565b60405180910390f35b34801561097c575f80fd5b50610997600480360381019061099291906158c1565b611b6c565b005b3480156109a4575f80fd5b506109bf60048036038101906109ba919061498c565b611b80565b6040516109cc9190614918565b60405180910390f35b3480156109e0575f80fd5b506109fb60048036038101906109f6919061498c565b611b91565b604051610a089190614949565b60405180910390f35b348015610a1c575f80fd5b50610a25611bc7565b604051610a329190614949565b60405180910390f35b348015610a46575f80fd5b50610a616004803603810190610a5c91906158ec565b611bd5565b604051610a6e9190614c9e565b60405180910390f35b348015610a82575f80fd5b50610a9d6004803603810190610a98919061498c565b611c55565b604051610aaa9190614949565b60405180910390f35b610acd6004803603810190610ac89190615a0c565b611cbf565b005b348015610ada575f80fd5b50610af56004803603810190610af09190614f4c565b611d48565b604051610b029190614949565b60405180910390f35b348015610b16575f80fd5b50610b1f611d82565b604051610b2c9190614aa0565b60405180910390f35b348015610b40575f80fd5b50610b49611daa565b604051610b569190614a41565b60405180910390f35b348015610b6a575f80fd5b50610b73611de7565b604051610b809190615013565b60405180910390f35b348015610b94575f80fd5b50610baf6004803603810190610baa9190615ab6565b611e0b565b005b348015610bbc575f80fd5b50610bd76004803603810190610bd29190615ae1565b611e1f565b604051610be49190614949565b60405180910390f35b348015610bf8575f80fd5b50610c136004803603810190610c0e919061498c565b611e3a565b005b348015610c20575f80fd5b50610c3b6004803603810190610c369190615b1f565b611e4e565b604051610c489190614c9e565b60405180910390f35b348015610c5c575f80fd5b50610c776004803603810190610c72919061498c565b611ece565b604051610c849190614949565b60405180910390f35b348015610c98575f80fd5b50610ca1611edf565b604051610cae9190615c0d565b60405180910390f35b5f610cc0611f06565b905090565b5f7f65455a86000000000000000000000000000000000000000000000000000000007bffffffffffffffffffffffffffffffffffffffffffffffffffffffff1916827bffffffffffffffffffffffffffffffffffffffffffffffffffffffff19161480610d8f57507f4e2312e0000000000000000000000000000000000000000000000000000000007bffffffffffffffffffffffffffffffffffffffffffffffffffffffff1916827bffffffffffffffffffffffffffffffffffffffffffffffffffffffff1916145b80610d9f5750610d9e82611f2e565b5b9050919050565b5f610daf611f97565b905090565b610dbc611fb6565b610dc5816120ab565b50565b606060038054610dd790615c53565b80601f0160208091040260200160405190810160405280929190818152602001828054610e0390615c53565b8015610e4e5780601f10610e2557610100808354040283529160200191610e4e565b820191905f5260205f20905b815481529060010190602001808311610e3157829003601f168201915b5050505050905090565b5f60045f8381526020019081526020015f205f015f9054906101000a900473ffffffffffffffffffffffffffffffffffffffff169050919050565b5f3073ffffffffffffffffffffffffffffffffffffffff16610eb3610cb7565b73ffffffffffffffffffffffffffffffffffffffff1614610f00576040517fe90a651e00000000000000000000000000000000000000000000000000000000815260040160405180910390fd5b63150b7a0260e01b9050949350505050565b5f80610f2086868686611d48565b9050610f3581610f30600461216d565b612191565b505f610f4482888888886121fc565b90505f8165ffffffffffff1614610fc9578060045f8481526020019081526020015f206001015f6101000a81548165ffffffffffff021916908365ffffffffffff1602179055507f9a2e42fd6722813d69113e7d0079d3d940171428df7373df9c7f7617cfda28928282604051610fbc929190615cb3565b60405180910390a1610ffb565b6040517f90884a4600000000000000000000000000000000000000000000000000000000815260040160405180910390fd5b8192505050949350505050565b5f8061101686868686611d48565b905061103681611026600561216d565b611030600461216d565b17612191565b50600160045f8381526020019081526020015f205f01601e6101000a81548160ff0219169083151502179055503073ffffffffffffffffffffffffffffffffffffffff16611082610cb7565b73ffffffffffffffffffffffffffffffffffffffff161461113e575f5b865181101561113c573073ffffffffffffffffffffffffffffffffffffffff168782815181106110d2576110d1615cda565b5b602002602001015173ffffffffffffffffffffffffffffffffffffffff160361112b5761112a85828151811061110b5761110a615cda565b5b602002602001015180519060200120600561221590919063ffffffff16565b5b8061113590615d34565b905061109f565b505b61114b8187878787612334565b3073ffffffffffffffffffffffffffffffffffffffff1661116a610cb7565b73ffffffffffffffffffffffffffffffffffffffff161415801561119557506111936005612348565b155b156111a5576111a460056123b4565b5b7f712ae1383f79ac853f8d882153778e0260ef8f03b504e2866e0593e04d2b291f816040516111d49190614949565b60405180910390a180915050949350505050565b5f60045f8381526020019081526020015f205f0160149054906101000a900465ffffffffffff1665ffffffffffff169050919050565b7f3e83946653575f9a39005e1545185629e92736b7528ab20ca3816f315424a81181565b5f61124b61242a565b905090565b5f61125a8261244c565b9050919050565b5f60095f8481526020019081526020015f206003015f8373ffffffffffffffffffffffffffffffffffffffff1673ffffffffffffffffffffffffffffffffffffffff1681526020019081526020015f205f9054906101000a900460ff16905092915050565b5f806112d486868686611d48565b90506112e8816112e35f61216d565b612191565b506112f281610e58565b73ffffffffffffffffffffffffffffffffffffffff16611310612601565b73ffffffffffffffffffffffffffffffffffffffff161461136f57611333612601565b6040517f233d98e30000000000000000000000000000000000000000000000000000000081526004016113669190614aa0565b60405180910390fd5b61137b86868686612608565b915050949350505050565b6060611390611edf565b73ffffffffffffffffffffffffffffffffffffffff16634bf5d7e96040518163ffffffff1660e01b81526004015f60405180830381865afa9250505080156113fa57506040513d5f823e3d601f19601f820116820180604052508101906113f79190615de9565b60015b61143b576040518060400160405280601d81526020017f6d6f64653d626c6f636b6e756d6265722666726f6d3d64656661756c740000008152509050611440565b809150505b90565b5f805f8060095f8681526020019081526020015f209050805f015481600101548260020154935093509350509193909250565b60606040518060400160405280600181526020017f3100000000000000000000000000000000000000000000000000000000000000815250905090565b5f806114bd612601565b90506114d984828560405180602001604052805f81525061261f565b91505092915050565b5f8061156f876115697f3e83946653575f9a39005e1545185629e92736b7528ab20ca3816f315424a8118c8c8c6115188e61263e565b8d8d604051611528929190615e5e565b60405180910390208c8051906020012060405160200161154e9796959493929190615e85565b60405160208183030381529060405280519060200120612691565b856126aa565b9050806115b357866040517f94ab6c070000000000000000000000000000000000000000000000000000000081526004016115aa9190614aa0565b60405180910390fd5b61160389888a89898080601f0160208091040260200160405190810160405280939291908181526020018383808284375f81840152601f19601f8201169050808301925050505050505088612737565b915050979650505050505050565b5f8061161b612601565b905061166d87828888888080601f0160208091040260200160405190810160405280939291908181526020018383808284375f81840152601f19601f8201169050808301925050505050505087612737565b91505095945050505050565b5f80600a5f018054905090505f600a5f016001836116979190615ef2565b815481106116a8576116a7615cda565b5b905f5260205f200190505f815f015f9054906101000a900465ffffffffffff1690505f825f0160069054906101000a900479ffffffffffffffffffffffffffffffffffffffffffffffffffff169050858265ffffffffffff161161172e578079ffffffffffffffffffffffffffffffffffffffffffffffffffff1694505050505061176d565b61174a61173a87612834565b600a61288d90919063ffffffff16565b79ffffffffffffffffffffffffffffffffffffffffffffffffffff169450505050505b919050565b61177a611fb6565b6117838161297a565b50565b5f80611790612601565b90506117e186828787878080601f0160208091040260200160405190810160405280939291908181526020018383808284375f81840152601f19601f8201169050808301925050505050505061261f565b915050949350505050565b5f806117f6612601565b905061180281846129ed565b61184357806040517fd9b3955700000000000000000000000000000000000000000000000000000000815260040161183a9190614aa0565b60405180910390fd5b5f611869826001611852611a98565b61185c9190615f25565b65ffffffffffff16611e1f565b90505f611874611bc7565b9050808210156118bf578282826040517fc242ee160000000000000000000000000000000000000000000000000000000081526004016118b693929190615f5e565b60405180910390fd5b6118cc8888888887612b3b565b9350505050949350505050565b5f60025f8373ffffffffffffffffffffffffffffffffffffffff1673ffffffffffffffffffffffffffffffffffffffff1681526020019081526020015f20549050919050565b5f6060805f805f6060611930612dc0565b611938612dfa565b46305f801b5f67ffffffffffffffff81111561195757611956614aeb565b5b6040519080825280602002602001820160405280156119855781602001602082028036833780820191505090505b507f0f00000000000000000000000000000000000000000000000000000000000000959493929190965096509650965096509650965090919293949596565b5f80611a2f84611a297ff2aad550cf55f045cb27e9c559f9889fdfb6e6cdaa032301d6ea397784ae51d78989896119fa8b61263e565b604051602001611a0e959493929190615f93565b60405160208183030381529060405280519060200120612691565b856126aa565b905080611a7357836040517f94ab6c07000000000000000000000000000000000000000000000000000000008152600401611a6a9190614aa0565b60405180910390fd5b611a8d86858760405180602001604052805f81525061261f565b915050949350505050565b5f611aa1611edf565b73ffffffffffffffffffffffffffffffffffffffff166391ddadf46040518163ffffffff1660e01b8152600401602060405180830381865afa925050508015611b0857506040513d601f19601f82011682018060405250810190611b059190615ff8565b60015b611b1b57611b14612e35565b9050611b20565b809150505b90565b5f6064905090565b5f611b37848484612e44565b90509392505050565b5f611b4b600a612ecf565b79ffffffffffffffffffffffffffffffffffffffffffffffffffff16905090565b611b74611fb6565b611b7d81612f31565b50565b5f611b8a82612fce565b9050919050565b5f60045f8381526020019081526020015f206001015f9054906101000a900465ffffffffffff1665ffffffffffff169050919050565b5f611bd0612fd8565b905090565b5f3073ffffffffffffffffffffffffffffffffffffffff16611bf5610cb7565b73ffffffffffffffffffffffffffffffffffffffff1614611c42576040517fe90a651e00000000000000000000000000000000000000000000000000000000815260040160405180910390fd5b63bc197c8160e01b905095945050505050565b5f60045f8381526020019081526020015f205f01601a9054906101000a900463ffffffff1663ffffffff1660045f8481526020019081526020015f205f0160149054906101000a900465ffffffffffff16611cb09190616023565b65ffffffffffff169050919050565b611cc7611fb6565b5f808573ffffffffffffffffffffffffffffffffffffffff16858585604051611cf1929190615e5e565b5f6040518083038185875af1925050503d805f8114611d2b576040519150601f19603f3d011682016040523d82523d5f602084013e611d30565b606091505b5091509150611d3f8282612fe1565b50505050505050565b5f84848484604051602001611d609493929190616220565b604051602081830303815290604052805190602001205f1c9050949350505050565b5f600b5f9054906101000a900473ffffffffffffffffffffffffffffffffffffffff16905090565b60606040518060400160405280602081526020017f737570706f72743d627261766f2671756f72756d3d666f722c6162737461696e815250905090565b7ff2aad550cf55f045cb27e9c559f9889fdfb6e6cdaa032301d6ea397784ae51d781565b611e13611fb6565b611e1c81613005565b50565b5f611e328383611e2d6130be565b612e44565b905092915050565b611e42611fb6565b611e4b816130d4565b50565b5f3073ffffffffffffffffffffffffffffffffffffffff16611e6e610cb7565b73ffffffffffffffffffffffffffffffffffffffff1614611ebb576040517fe90a651e00000000000000000000000000000000000000000000000000000000815260040160405180910390fd5b63f23a6e6160e01b905095945050505050565b5f611ed882613119565b9050919050565b5f7f0000000000000000000000000000000000000000000000000000000000000000905090565b5f600b5f9054906101000a900473ffffffffffffffffffffffffffffffffffffffff16905090565b5f7f01ffc9a7000000000000000000000000000000000000000000000000000000007bffffffffffffffffffffffffffffffffffffffffffffffffffffffff1916827bffffffffffffffffffffffffffffffffffffffffffffffffffffffff1916149050919050565b5f600860069054906101000a900463ffffffff1663ffffffff16905090565b611fbe612601565b73ffffffffffffffffffffffffffffffffffffffff16611fdc610cb7565b73ffffffffffffffffffffffffffffffffffffffff161461203b57611fff612601565b6040517f47096e470000000000000000000000000000000000000000000000000000000081526004016120329190614aa0565b60405180910390fd5b3073ffffffffffffffffffffffffffffffffffffffff1661205a610cb7565b73ffffffffffffffffffffffffffffffffffffffff16146120a9575f61207e6131c5565b60405161208c929190615e5e565b604051809103902090505b806120a260056131d1565b0361209757505b565b5f6120b4611b23565b9050808211156120fd5781816040517f243e54450000000000000000000000000000000000000000000000000000000081526004016120f4929190616278565b60405180910390fd5b5f612106611b40565b905061212d612113611a98565b61211c85613326565b600a6133939092919063ffffffff16565b50507f0553476bf02ef2726e8ce5ced78d63e26e602e4a2257b1f559418e24b46339978184604051612160929190616278565b60405180910390a1505050565b5f8160078111156121815761218061502c565b5b60ff166001901b5f1b9050919050565b5f8061219c84611250565b90505f801b836121ab8361216d565b16036121f2578381846040517f31b75e4d0000000000000000000000000000000000000000000000000000000081526004016121e99392919061629f565b60405180910390fd5b8091505092915050565b5f61220a86868686866133ae565b905095945050505050565b5f825f0160109054906101000a90046fffffffffffffffffffffffffffffffff169050825f015f9054906101000a90046fffffffffffffffffffffffffffffffff166fffffffffffffffffffffffffffffffff16600182016fffffffffffffffffffffffffffffffff16036122b6576040517f8acb5f2700000000000000000000000000000000000000000000000000000000815260040160405180910390fd5b81836001015f836fffffffffffffffffffffffffffffffff166fffffffffffffffffffffffffffffffff1681526020019081526020015f208190555060018101835f0160106101000a8154816fffffffffffffffffffffffffffffffff02191690836fffffffffffffffffffffffffffffffff160217905550505050565b61234185858585856135b4565b5050505050565b5f815f015f9054906101000a90046fffffffffffffffffffffffffffffffff166fffffffffffffffffffffffffffffffff16825f0160109054906101000a90046fffffffffffffffffffffffffffffffff166fffffffffffffffffffffffffffffffff16149050919050565b5f815f015f6101000a8154816fffffffffffffffffffffffffffffffff02191690836fffffffffffffffffffffffffffffffff1602179055505f815f0160106101000a8154816fffffffffffffffffffffffffffffffff02191690836fffffffffffffffffffffffffffffffff16021790555050565b5f60085f9054906101000a900465ffffffffffff1665ffffffffffff16905090565b5f8061245783613668565b90506005600781111561246d5761246c61502c565b5b8160078111156124805761247f61502c565b5b1461248e57809150506125fc565b5f600c5f8581526020019081526020015f20549050600b5f9054906101000a900473ffffffffffffffffffffffffffffffffffffffff1673ffffffffffffffffffffffffffffffffffffffff1663584b153e826040518263ffffffff1660e01b81526004016124fd9190615013565b602060405180830381865afa158015612518573d5f803e3d5ffd5b505050506040513d601f19601f8201168201806040525081019061253c91906162fe565b1561254c576005925050506125fc565b600b5f9054906101000a900473ffffffffffffffffffffffffffffffffffffffff1673ffffffffffffffffffffffffffffffffffffffff16632ab0f529826040518263ffffffff1660e01b81526004016125a69190615013565b602060405180830381865afa1580156125c1573d5f803e3d5ffd5b505050506040513d601f19601f820116820180604052508101906125e591906162fe565b156125f5576007925050506125fc565b6002925050505b919050565b5f33905090565b5f612615858585856137bf565b9050949350505050565b5f6126348585858561262f6130be565b612737565b9050949350505050565b5f60025f8373ffffffffffffffffffffffffffffffffffffffff1673ffffffffffffffffffffffffffffffffffffffff1681526020019081526020015f205f815480929190600101919050559050919050565b5f6126a361269d613896565b8361394c565b9050919050565b5f805f6126b7858561398c565b50915091505f60038111156126cf576126ce61502c565b5b8160038111156126e2576126e161502c565b5b14801561271a57508573ffffffffffffffffffffffffffffffffffffffff168273ffffffffffffffffffffffffffffffffffffffff16145b8061272c575061272b8686866139e1565b5b925050509392505050565b5f61274b86612746600161216d565b612191565b505f6127608661275a896111e8565b85612e44565b905061276f8787878487613b00565b5f8351036127d0578573ffffffffffffffffffffffffffffffffffffffff167fb8e138887d0aa13bab447e82de9d5c1777041ecd21ca36ba824ff1e6c07ddda4888784886040516127c39493929190616329565b60405180910390a2612827565b8573ffffffffffffffffffffffffffffffffffffffff167fe2babfbac5889a709b63bb7f598b324e08bc5a4fb9ec647fb3cbc9ec07eb8712888784888860405161281e9594939291906163bb565b60405180910390a25b8091505095945050505050565b5f65ffffffffffff8016821115612885576030826040517f6dfcc65000000000000000000000000000000000000000000000000000000000815260040161287c929190616453565b60405180910390fd5b819050919050565b5f80835f018054905090505f80829050600583111561290e575f6128b084613cef565b846128bb9190615ef2565b90506128c9875f0182613de5565b5f015f9054906101000a900465ffffffffffff1665ffffffffffff168665ffffffffffff1610156128fc5780915061290c565b600181612909919061647a565b92505b505b5f61291d875f01878585613df7565b90505f811461296c5761293e875f016001836129399190615ef2565b613de5565b5f0160069054906101000a900479ffffffffffffffffffffffffffffffffffffffffffffffffffff1661296e565b5f5b94505050505092915050565b7fc565b045403dc03c2eea82b81a0465edad9e2e7fc4d97e11421c209da93d7a9360085f9054906101000a900465ffffffffffff16826040516129be9291906164ad565b60405180910390a18060085f6101000a81548165ffffffffffff021916908365ffffffffffff16021790555050565b5f80825190506034811015612a06576001915050612b35565b5f6014820384015190507f2370726f706f7365723d3078000000000000000000000000000000000000000073ffffffffffffffffffffffffffffffffffffffff19168173ffffffffffffffffffffffffffffffffffffffff191614612a7057600192505050612b35565b5f80602884612a7f9190615ef2565b90505b83811015612aff575f80612ab2888481518110612aa257612aa1615cda565b5b602001015160f81c60f81b613e6c565b9150915081612aca5760019650505050505050612b35565b8060ff1660048573ffffffffffffffffffffffffffffffffffffffff16901b179350505080612af890615d34565b9050612a82565b508573ffffffffffffffffffffffffffffffffffffffff168173ffffffffffffffffffffffffffffffffffffffff161493505050505b92915050565b5f612b4f8686868680519060200120611d48565b905084518651141580612b6457508351865114155b80612b6f57505f8651145b15612bb8578551845186516040517f447b05d0000000000000000000000000000000000000000000000000000000008152600401612baf939291906150f6565b60405180910390fd5b5f60045f8381526020019081526020015f205f0160149054906101000a900465ffffffffffff1665ffffffffffff1614612c375780612bf682611250565b5f801b6040517f31b75e4d000000000000000000000000000000000000000000000000000000008152600401612c2e9392919061629f565b60405180910390fd5b5f612c40611242565b612c48611a98565b65ffffffffffff16612c5a919061647a565b90505f612c65610da6565b90505f60045f8581526020019081526020015f20905084815f015f6101000a81548173ffffffffffffffffffffffffffffffffffffffff021916908373ffffffffffffffffffffffffffffffffffffffff160217905550612cc583612834565b815f0160146101000a81548165ffffffffffff021916908365ffffffffffff160217905550612cf382613f03565b815f01601a6101000a81548163ffffffff021916908363ffffffff1602179055507f7d84a6263ae0d98d3329bd7b46bb4e8d6f98cd35a7adb45c274c8b7fd5ebd5e084868b8b8d5167ffffffffffffffff811115612d5457612d53614aeb565b5b604051908082528060200260200182016040528015612d8757816020015b6060815260200190600190039081612d725790505b508c89898b612d96919061647a565b8e604051612dac999897969594939291906165d7565b60405180910390a150505095945050505050565b6060612df55f7f0000000000000000000000000000000000000000000000000000000000000000613f5a90919063ffffffff16565b905090565b6060612e3060017f0000000000000000000000000000000000000000000000000000000000000000613f5a90919063ffffffff16565b905090565b5f612e3f43612834565b905090565b5f612e4d611edf565b73ffffffffffffffffffffffffffffffffffffffff16633a46b1a885856040518363ffffffff1660e01b8152600401612e87929190616685565b602060405180830381865afa158015612ea2573d5f803e3d5ffd5b505050506040513d601f19601f82011682018060405250810190612ec691906166c0565b90509392505050565b5f80825f018054905090505f8114612f2757612ef9835f01600183612ef49190615ef2565b613de5565b5f0160069054906101000a900479ffffffffffffffffffffffffffffffffffffffffffffffffffff16612f29565b5f5b915050919050565b7f08f74ea46ef7894f65eabfb5e6e695de773a000b47c529ab559178069b226401600b5f9054906101000a900473ffffffffffffffffffffffffffffffffffffffff1682604051612f839291906166eb565b60405180910390a180600b5f6101000a81548173ffffffffffffffffffffffffffffffffffffffff021916908373ffffffffffffffffffffffffffffffffffffffff16021790555050565b5f60019050919050565b5f600754905090565b606082612ff657612ff182614007565b612ffe565b819050612fff565b5b92915050565b5f8163ffffffff160361304f575f6040517ff1cfbf05000000000000000000000000000000000000000000000000000000008152600401613046919061674b565b60405180910390fd5b7f7e3f7f0708a84de9203036abaa450dccc85ad5ff52f78c170f3edb55cf5e8828600860069054906101000a900463ffffffff1682604051613092929190616794565b60405180910390a180600860066101000a81548163ffffffff021916908363ffffffff16021790555050565b606060405180602001604052805f815250905090565b7fccb45da8d5717e6c4544694297c4ba5cf151d455c9bb0ed4fc7a38411bc0546160075482604051613107929190616278565b60405180910390a18060078190555050565b5f613122611b23565b61312b83611679565b613133611edf565b73ffffffffffffffffffffffffffffffffffffffff16638e539e8c856040518263ffffffff1660e01b815260040161316b9190614949565b602060405180830381865afa158015613186573d5f803e3d5ffd5b505050506040513d601f19601f820116820180604052508101906131aa91906166c0565b6131b491906167bb565b6131be9190616829565b9050919050565b365f8036915091509091565b5f80825f015f9054906101000a90046fffffffffffffffffffffffffffffffff169050825f0160109054906101000a90046fffffffffffffffffffffffffffffffff166fffffffffffffffffffffffffffffffff16816fffffffffffffffffffffffffffffffff1603613270576040517f75e52f4f00000000000000000000000000000000000000000000000000000000815260040160405180910390fd5b826001015f826fffffffffffffffffffffffffffffffff166fffffffffffffffffffffffffffffffff1681526020019081526020015f20549150826001015f826fffffffffffffffffffffffffffffffff166fffffffffffffffffffffffffffffffff1681526020019081526020015f205f905560018101835f015f6101000a8154816fffffffffffffffffffffffffffffffff02191690836fffffffffffffffffffffffffffffffff16021790555050919050565b5f79ffffffffffffffffffffffffffffffffffffffffffffffffffff801682111561338b5760d0826040517f6dfcc650000000000000000000000000000000000000000000000000000000008152600401613382929190616892565b60405180910390fd5b819050919050565b5f806133a2855f01858561404b565b91509150935093915050565b5f80600b5f9054906101000a900473ffffffffffffffffffffffffffffffffffffffff1673ffffffffffffffffffffffffffffffffffffffff1663f27a0c926040518163ffffffff1660e01b8152600401602060405180830381865afa15801561341a573d5f803e3d5ffd5b505050506040513d601f19601f8201168201806040525081019061343e91906166c0565b90505f61344a846143b3565b9050600b5f9054906101000a900473ffffffffffffffffffffffffffffffffffffffff1673ffffffffffffffffffffffffffffffffffffffff1663b1c5f4278888885f866040518663ffffffff1660e01b81526004016134ae9594939291906168f4565b602060405180830381865afa1580156134c9573d5f803e3d5ffd5b505050506040513d601f19601f820116820180604052508101906134ed919061696e565b600c5f8a81526020019081526020015f2081905550600b5f9054906101000a900473ffffffffffffffffffffffffffffffffffffffff1673ffffffffffffffffffffffffffffffffffffffff16638f2a0bb08888885f86886040518763ffffffff1660e01b815260040161356696959493929190616999565b5f604051808303815f87803b15801561357d575f80fd5b505af115801561358f573d5f803e3d5ffd5b505050506135a782426135a2919061647a565b612834565b9250505095945050505050565b600b5f9054906101000a900473ffffffffffffffffffffffffffffffffffffffff1673ffffffffffffffffffffffffffffffffffffffff1663e38335e5348686865f6135ff886143b3565b6040518763ffffffff1660e01b815260040161361f9594939291906168f4565b5f604051808303818588803b158015613636575f80fd5b505af1158015613648573d5f803e3d5ffd5b5050505050600c5f8681526020019081526020015f205f90555050505050565b5f8060045f8481526020019081526020015f2090505f815f01601e9054906101000a900460ff1690505f825f01601f9054906101000a900460ff16905081156136b757600793505050506137ba565b80156136c957600293505050506137ba565b5f6136d3866111e8565b90505f810361371957856040517f6ad060750000000000000000000000000000000000000000000000000000000081526004016137109190614949565b60405180910390fd5b5f613722611a98565b65ffffffffffff169050808210613740575f955050505050506137ba565b5f61374a88611c55565b905081811061376257600196505050505050506137ba565b61376b886143d0565b158061377d575061377b88614414565b155b1561379157600396505050505050506137ba565b5f61379b89611b91565b036137af57600496505050505050506137ba565b600596505050505050505b919050565b5f806137cd8686868661443b565b90505f600c5f8381526020019081526020015f205490505f801b811461388957600b5f9054906101000a900473ffffffffffffffffffffffffffffffffffffffff1673ffffffffffffffffffffffffffffffffffffffff1663c4d252f5826040518263ffffffff1660e01b81526004016138479190615013565b5f604051808303815f87803b15801561385e575f80fd5b505af1158015613870573d5f803e3d5ffd5b50505050600c5f8381526020019081526020015f205f90555b8192505050949350505050565b5f7f000000000000000000000000000000000000000000000000000000000000000073ffffffffffffffffffffffffffffffffffffffff163073ffffffffffffffffffffffffffffffffffffffff1614801561391157507f000000000000000000000000000000000000000000000000000000000000000046145b1561393e577f00000000000000000000000000000000000000000000000000000000000000009050613949565b61394661451d565b90505b90565b5f6040517f190100000000000000000000000000000000000000000000000000000000000081528360028201528260228201526042812091505092915050565b5f805f60418451036139cc575f805f602087015192506040870151915060608701515f1a90506139be888285856145b2565b9550955095505050506139da565b5f600285515f1b9250925092505b9250925092565b5f805f8573ffffffffffffffffffffffffffffffffffffffff168585604051602401613a0e929190616a0d565b604051602081830303815290604052631626ba7e60e01b6020820180517bffffffffffffffffffffffffffffffffffffffffffffffffffffffff8381831617835250505050604051613a609190616a6b565b5f60405180830381855afa9150503d805f8114613a98576040519150601f19603f3d011682016040523d82523d5f602084013e613a9d565b606091505b5091509150818015613ab157506020815110155b8015613af55750631626ba7e60e01b7bffffffffffffffffffffffffffffffffffffffffffffffffffffffff191681806020019051810190613af3919061696e565b145b925050509392505050565b5f60095f8781526020019081526020015f209050806003015f8673ffffffffffffffffffffffffffffffffffffffff1673ffffffffffffffffffffffffffffffffffffffff1681526020019081526020015f205f9054906101000a900460ff1615613ba257846040517f71c6af49000000000000000000000000000000000000000000000000000000008152600401613b999190614aa0565b60405180910390fd5b6001816003015f8773ffffffffffffffffffffffffffffffffffffffff1673ffffffffffffffffffffffffffffffffffffffff1681526020019081526020015f205f6101000a81548160ff0219169083151502179055505f6002811115613c0c57613c0b61502c565b5b60ff168460ff1603613c365782815f015f828254613c2a919061647a565b92505081905550613ce7565b60016002811115613c4a57613c4961502c565b5b60ff168460ff1603613c755782816001015f828254613c69919061647a565b92505081905550613ce6565b600280811115613c8857613c8761502c565b5b60ff168460ff1603613cb35782816002015f828254613ca7919061647a565b92505081905550613ce5565b6040517f06b337c200000000000000000000000000000000000000000000000000000000815260040160405180910390fd5b5b5b505050505050565b5f808203613cff575f9050613de0565b5f6001613d0b84614699565b901c6001901b90506001818481613d2557613d246167fc565b5b048201901c90506001818481613d3e57613d3d6167fc565b5b048201901c90506001818481613d5757613d566167fc565b5b048201901c90506001818481613d7057613d6f6167fc565b5b048201901c90506001818481613d8957613d886167fc565b5b048201901c90506001818481613da257613da16167fc565b5b048201901c90506001818481613dbb57613dba6167fc565b5b048201901c9050613ddc81828581613dd657613dd56167fc565b5b04614770565b9150505b919050565b5f825f528160205f2001905092915050565b5f5b81831015613e61575f613e0c8484614788565b90508465ffffffffffff16613e218783613de5565b5f015f9054906101000a900465ffffffffffff1665ffffffffffff161115613e4b57809250613e5b565b600181613e58919061647a565b93505b50613df9565b819050949350505050565b5f805f8360f81c90508060ff16602f108015613e8b5750603a8160ff16105b15613ea0576001603082039250925050613efe565b8060ff166040108015613eb6575060478160ff16105b15613ecb576001603782039250925050613efe565b8060ff166060108015613ee1575060678160ff16105b15613ef6576001605782039250925050613efe565b5f8092509250505b915091565b5f63ffffffff8016821115613f52576020826040517f6dfcc650000000000000000000000000000000000000000000000000000000008152600401613f49929190616aba565b60405180910390fd5b819050919050565b606060ff5f1b8314613f7657613f6f836147ad565b9050614001565b818054613f8290615c53565b80601f0160208091040260200160405190810160405280929190818152602001828054613fae90615c53565b8015613ff95780601f10613fd057610100808354040283529160200191613ff9565b820191905f5260205f20905b815481529060010190602001808311613fdc57829003601f168201915b505050505090505b92915050565b5f815111156140195780518082602001fd5b6040517f1425ea4200000000000000000000000000000000000000000000000000000000815260040160405180910390fd5b5f805f858054905090505f8111156142cb575f6140748760018461406f9190615ef2565b613de5565b6040518060400160405290815f82015f9054906101000a900465ffffffffffff1665ffffffffffff1665ffffffffffff1681526020015f820160069054906101000a900479ffffffffffffffffffffffffffffffffffffffffffffffffffff1679ffffffffffffffffffffffffffffffffffffffffffffffffffff1679ffffffffffffffffffffffffffffffffffffffffffffffffffff168152505090508565ffffffffffff16815f015165ffffffffffff16111561415f576040517f2520601d00000000000000000000000000000000000000000000000000000000815260040160405180910390fd5b8565ffffffffffff16815f015165ffffffffffff16036141e157846141908860018561418b9190615ef2565b613de5565b5f0160066101000a81548179ffffffffffffffffffffffffffffffffffffffffffffffffffff021916908379ffffffffffffffffffffffffffffffffffffffffffffffffffff1602179055506142ba565b8660405180604001604052808865ffffffffffff1681526020018779ffffffffffffffffffffffffffffffffffffffffffffffffffff16815250908060018154018082558091505060019003905f5260205f20015f909190919091505f820151815f015f6101000a81548165ffffffffffff021916908365ffffffffffff1602179055506020820151815f0160066101000a81548179ffffffffffffffffffffffffffffffffffffffffffffffffffff021916908379ffffffffffffffffffffffffffffffffffffffffffffffffffff16021790555050505b8060200151859350935050506143ab565b8560405180604001604052808765ffffffffffff1681526020018679ffffffffffffffffffffffffffffffffffffffffffffffffffff16815250908060018154018082558091505060019003905f5260205f20015f909190919091505f820151815f015f6101000a81548165ffffffffffff021916908365ffffffffffff1602179055506020820151815f0160066101000a81548179ffffffffffffffffffffffffffffffffffffffffffffffffffff021916908379ffffffffffffffffffffffffffffffffffffffffffffffffffff16021790555050505f8492509250505b935093915050565b5f813060601b6bffffffffffffffffffffffff1916189050919050565b5f8060095f8481526020019081526020015f209050806002015481600101546143f9919061647a565b61440a614405856111e8565b611ece565b1115915050919050565b5f8060095f8481526020019081526020015f209050805f0154816001015411915050919050565b5f8061444986868686611d48565b90506144ad81614459600761216d565b614463600661216d565b61446d600261216d565b6001806007808111156144835761448261502c565b5b61448d9190616ae1565b60026144999190616c44565b6144a39190615ef2565b5f1b181818612191565b50600160045f8381526020019081526020015f205f01601f6101000a81548160ff0219169083151502179055507f789cf55be980739dad1d0699b93b58e806b51c9d96619bfa8fe0a28abaa7b30c816040516145099190614949565b60405180910390a180915050949350505050565b5f7f8b73c3c69bb8fe3d512ecc4cf759cc79239f7b179b0ffacaa9a75d522b39400f7f00000000000000000000000000000000000000000000000000000000000000007f00000000000000000000000000000000000000000000000000000000000000004630604051602001614597959493929190616c8e565b60405160208183030381529060405280519060200120905090565b5f805f7f7fffffffffffffffffffffffffffffff5d576e7357a4501ddfe92f46681b20a0845f1c11156145ee575f60038592509250925061468f565b5f6001888888886040515f81526020016040526040516146119493929190616cdf565b6020604051602081039080840390855afa158015614631573d5f803e3d5ffd5b5050506020604051035190505f73ffffffffffffffffffffffffffffffffffffffff168173ffffffffffffffffffffffffffffffffffffffff1603614682575f60015f801b9350935093505061468f565b805f805f1b935093509350505b9450945094915050565b5f805f90505f608084901c11156146b857608083901c92506080810190505b5f604084901c11156146d257604083901c92506040810190505b5f602084901c11156146ec57602083901c92506020810190505b5f601084901c111561470657601083901c92506010810190505b5f600884901c111561472057600883901c92506008810190505b5f600484901c111561473a57600483901c92506004810190505b5f600284901c111561475457600283901c92506002810190505b5f600184901c1115614767576001810190505b80915050919050565b5f81831061477e5781614780565b825b905092915050565b5f60028284186147989190616829565b8284166147a5919061647a565b905092915050565b60605f6147b98361481f565b90505f602067ffffffffffffffff8111156147d7576147d6614aeb565b5b6040519080825280601f01601f1916602001820160405280156148095781602001600182028036833780820191505090505b5090508181528360208201528092505050919050565b5f8060ff835f1c169050601f811115614864576040517fb3512b0c00000000000000000000000000000000000000000000000000000000815260040160405180910390fd5b80915050919050565b5f604051905090565b5f80fd5b5f80fd5b5f7fffffffff0000000000000000000000000000000000000000000000000000000082169050919050565b6148b28161487e565b81146148bc575f80fd5b50565b5f813590506148cd816148a9565b92915050565b5f602082840312156148e8576148e7614876565b5b5f6148f5848285016148bf565b91505092915050565b5f8115159050919050565b614912816148fe565b82525050565b5f60208201905061492b5f830184614909565b92915050565b5f819050919050565b61494381614931565b82525050565b5f60208201905061495c5f83018461493a565b92915050565b61496b81614931565b8114614975575f80fd5b50565b5f8135905061498681614962565b92915050565b5f602082840312156149a1576149a0614876565b5b5f6149ae84828501614978565b91505092915050565b5f81519050919050565b5f82825260208201905092915050565b5f5b838110156149ee5780820151818401526020810190506149d3565b5f8484015250505050565b5f601f19601f8301169050919050565b5f614a13826149b7565b614a1d81856149c1565b9350614a2d8185602086016149d1565b614a36816149f9565b840191505092915050565b5f6020820190508181035f830152614a598184614a09565b905092915050565b5f73ffffffffffffffffffffffffffffffffffffffff82169050919050565b5f614a8a82614a61565b9050919050565b614a9a81614a80565b82525050565b5f602082019050614ab35f830184614a91565b92915050565b614ac281614a80565b8114614acc575f80fd5b50565b5f81359050614add81614ab9565b92915050565b5f80fd5b5f80fd5b7f4e487b71000000000000000000000000000000000000000000000000000000005f52604160045260245ffd5b614b21826149f9565b810181811067ffffffffffffffff82111715614b4057614b3f614aeb565b5b80604052505050565b5f614b5261486d565b9050614b5e8282614b18565b919050565b5f67ffffffffffffffff821115614b7d57614b7c614aeb565b5b614b86826149f9565b9050602081019050919050565b828183375f83830152505050565b5f614bb3614bae84614b63565b614b49565b905082815260208101848484011115614bcf57614bce614ae7565b5b614bda848285614b93565b509392505050565b5f82601f830112614bf657614bf5614ae3565b5b8135614c06848260208601614ba1565b91505092915050565b5f805f8060808587031215614c2757614c26614876565b5b5f614c3487828801614acf565b9450506020614c4587828801614acf565b9350506040614c5687828801614978565b925050606085013567ffffffffffffffff811115614c7757614c7661487a565b5b614c8387828801614be2565b91505092959194509250565b614c988161487e565b82525050565b5f602082019050614cb15f830184614c8f565b92915050565b5f67ffffffffffffffff821115614cd157614cd0614aeb565b5b602082029050602081019050919050565b5f80fd5b5f614cf8614cf384614cb7565b614b49565b90508083825260208201905060208402830185811115614d1b57614d1a614ce2565b5b835b81811015614d445780614d308882614acf565b845260208401935050602081019050614d1d565b5050509392505050565b5f82601f830112614d6257614d61614ae3565b5b8135614d72848260208601614ce6565b91505092915050565b5f67ffffffffffffffff821115614d9557614d94614aeb565b5b602082029050602081019050919050565b5f614db8614db384614d7b565b614b49565b90508083825260208201905060208402830185811115614ddb57614dda614ce2565b5b835b81811015614e045780614df08882614978565b845260208401935050602081019050614ddd565b5050509392505050565b5f82601f830112614e2257614e21614ae3565b5b8135614e32848260208601614da6565b91505092915050565b5f67ffffffffffffffff821115614e5557614e54614aeb565b5b602082029050602081019050919050565b5f614e78614e7384614e3b565b614b49565b90508083825260208201905060208402830185811115614e9b57614e9a614ce2565b5b835b81811015614ee257803567ffffffffffffffff811115614ec057614ebf614ae3565b5b808601614ecd8982614be2565b85526020850194505050602081019050614e9d565b5050509392505050565b5f82601f830112614f0057614eff614ae3565b5b8135614f10848260208601614e66565b91505092915050565b5f819050919050565b614f2b81614f19565b8114614f35575f80fd5b50565b5f81359050614f4681614f22565b92915050565b5f805f8060808587031215614f6457614f63614876565b5b5f85013567ffffffffffffffff811115614f8157614f8061487a565b5b614f8d87828801614d4e565b945050602085013567ffffffffffffffff811115614fae57614fad61487a565b5b614fba87828801614e0e565b935050604085013567ffffffffffffffff811115614fdb57614fda61487a565b5b614fe787828801614eec565b9250506060614ff887828801614f38565b91505092959194509250565b61500d81614f19565b82525050565b5f6020820190506150265f830184615004565b92915050565b7f4e487b71000000000000000000000000000000000000000000000000000000005f52602160045260245ffd5b6008811061506a5761506961502c565b5b50565b5f81905061507a82615059565b919050565b5f6150898261506d565b9050919050565b6150998161507f565b82525050565b5f6020820190506150b25f830184615090565b92915050565b5f80604083850312156150ce576150cd614876565b5b5f6150db85828601614978565b92505060206150ec85828601614acf565b9150509250929050565b5f6060820190506151095f83018661493a565b615116602083018561493a565b615123604083018461493a565b949350505050565b5f60ff82169050919050565b6151408161512b565b811461514a575f80fd5b50565b5f8135905061515b81615137565b92915050565b5f806040838503121561517757615176614876565b5b5f61518485828601614978565b92505060206151958582860161514d565b9150509250929050565b5f80fd5b5f8083601f8401126151b8576151b7614ae3565b5b8235905067ffffffffffffffff8111156151d5576151d461519f565b5b6020830191508360018202830111156151f1576151f0614ce2565b5b9250929050565b5f805f805f805f60c0888a03121561521357615212614876565b5b5f6152208a828b01614978565b97505060206152318a828b0161514d565b96505060406152428a828b01614acf565b955050606088013567ffffffffffffffff8111156152635761526261487a565b5b61526f8a828b016151a3565b9450945050608088013567ffffffffffffffff8111156152925761529161487a565b5b61529e8a828b01614be2565b92505060a088013567ffffffffffffffff8111156152bf576152be61487a565b5b6152cb8a828b01614be2565b91505092959891949750929550565b5f805f805f608086880312156152f3576152f2614876565b5b5f61530088828901614978565b95505060206153118882890161514d565b945050604086013567ffffffffffffffff8111156153325761533161487a565b5b61533e888289016151a3565b9350935050606086013567ffffffffffffffff8111156153615761536061487a565b5b61536d88828901614be2565b9150509295509295909350565b5f65ffffffffffff82169050919050565b6153948161537a565b811461539e575f80fd5b50565b5f813590506153af8161538b565b92915050565b5f602082840312156153ca576153c9614876565b5b5f6153d7848285016153a1565b91505092915050565b5f805f80606085870312156153f8576153f7614876565b5b5f61540587828801614978565b94505060206154168782880161514d565b935050604085013567ffffffffffffffff8111156154375761543661487a565b5b615443878288016151a3565b925092505092959194509250565b5f67ffffffffffffffff82111561546b5761546a614aeb565b5b615474826149f9565b9050602081019050919050565b5f61549361548e84615451565b614b49565b9050828152602081018484840111156154af576154ae614ae7565b5b6154ba848285614b93565b509392505050565b5f82601f8301126154d6576154d5614ae3565b5b81356154e6848260208601615481565b91505092915050565b5f805f806080858703121561550757615506614876565b5b5f85013567ffffffffffffffff8111156155245761552361487a565b5b61553087828801614d4e565b945050602085013567ffffffffffffffff8111156155515761555061487a565b5b61555d87828801614e0e565b935050604085013567ffffffffffffffff81111561557e5761557d61487a565b5b61558a87828801614eec565b925050606085013567ffffffffffffffff8111156155ab576155aa61487a565b5b6155b7878288016154c2565b91505092959194509250565b5f602082840312156155d8576155d7614876565b5b5f6155e584828501614acf565b91505092915050565b5f7fff0000000000000000000000000000000000000000000000000000000000000082169050919050565b615622816155ee565b82525050565b5f81519050919050565b5f82825260208201905092915050565b5f819050602082019050919050565b61565a81614931565b82525050565b5f61566b8383615651565b60208301905092915050565b5f602082019050919050565b5f61568d82615628565b6156978185615632565b93506156a283615642565b805f5b838110156156d25781516156b98882615660565b97506156c483615677565b9250506001810190506156a5565b5085935050505092915050565b5f60e0820190506156f25f83018a615619565b81810360208301526157048189614a09565b905081810360408301526157188188614a09565b9050615727606083018761493a565b6157346080830186614a91565b61574160a0830185615004565b81810360c08301526157538184615683565b905098975050505050505050565b5f805f806080858703121561577957615778614876565b5b5f61578687828801614978565b94505060206157978782880161514d565b93505060406157a887828801614acf565b925050606085013567ffffffffffffffff8111156157c9576157c861487a565b5b6157d587828801614be2565b91505092959194509250565b6157ea8161537a565b82525050565b5f6020820190506158035f8301846157e1565b92915050565b5f805f606084860312156158205761581f614876565b5b5f61582d86828701614acf565b935050602061583e86828701614978565b925050604084013567ffffffffffffffff81111561585f5761585e61487a565b5b61586b86828701614be2565b9150509250925092565b5f61587f82614a61565b9050919050565b5f61589082615875565b9050919050565b6158a081615886565b81146158aa575f80fd5b50565b5f813590506158bb81615897565b92915050565b5f602082840312156158d6576158d5614876565b5b5f6158e3848285016158ad565b91505092915050565b5f805f805f60a0868803121561590557615904614876565b5b5f61591288828901614acf565b955050602061592388828901614acf565b945050604086013567ffffffffffffffff8111156159445761594361487a565b5b61595088828901614e0e565b935050606086013567ffffffffffffffff8111156159715761597061487a565b5b61597d88828901614e0e565b925050608086013567ffffffffffffffff81111561599e5761599d61487a565b5b6159aa88828901614be2565b9150509295509295909350565b5f8083601f8401126159cc576159cb614ae3565b5b8235905067ffffffffffffffff8111156159e9576159e861519f565b5b602083019150836001820283011115615a0557615a04614ce2565b5b9250929050565b5f805f8060608587031215615a2457615a23614876565b5b5f615a3187828801614acf565b9450506020615a4287828801614978565b935050604085013567ffffffffffffffff811115615a6357615a6261487a565b5b615a6f878288016159b7565b925092505092959194509250565b5f63ffffffff82169050919050565b615a9581615a7d565b8114615a9f575f80fd5b50565b5f81359050615ab081615a8c565b92915050565b5f60208284031215615acb57615aca614876565b5b5f615ad884828501615aa2565b91505092915050565b5f8060408385031215615af757615af6614876565b5b5f615b0485828601614acf565b9250506020615b1585828601614978565b9150509250929050565b5f805f805f60a08688031215615b3857615b37614876565b5b5f615b4588828901614acf565b9550506020615b5688828901614acf565b9450506040615b6788828901614978565b9350506060615b7888828901614978565b925050608086013567ffffffffffffffff811115615b9957615b9861487a565b5b615ba588828901614be2565b9150509295509295909350565b5f819050919050565b5f615bd5615bd0615bcb84614a61565b615bb2565b614a61565b9050919050565b5f615be682615bbb565b9050919050565b5f615bf782615bdc565b9050919050565b615c0781615bed565b82525050565b5f602082019050615c205f830184615bfe565b92915050565b7f4e487b71000000000000000000000000000000000000000000000000000000005f52602260045260245ffd5b5f6002820490506001821680615c6a57607f821691505b602082108103615c7d57615c7c615c26565b5b50919050565b5f615c9d615c98615c938461537a565b615bb2565b614931565b9050919050565b615cad81615c83565b82525050565b5f604082019050615cc65f83018561493a565b615cd36020830184615ca4565b9392505050565b7f4e487b71000000000000000000000000000000000000000000000000000000005f52603260045260245ffd5b7f4e487b71000000000000000000000000000000000000000000000000000000005f52601160045260245ffd5b5f615d3e82614931565b91507fffffffffffffffffffffffffffffffffffffffffffffffffffffffffffffffff8203615d7057615d6f615d07565b5b600182019050919050565b5f615d8d615d8884615451565b614b49565b905082815260208101848484011115615da957615da8614ae7565b5b615db48482856149d1565b509392505050565b5f82601f830112615dd057615dcf614ae3565b5b8151615de0848260208601615d7b565b91505092915050565b5f60208284031215615dfe57615dfd614876565b5b5f82015167ffffffffffffffff811115615e1b57615e1a61487a565b5b615e2784828501615dbc565b91505092915050565b5f81905092915050565b5f615e458385615e30565b9350615e52838584614b93565b82840190509392505050565b5f615e6a828486615e3a565b91508190509392505050565b615e7f8161512b565b82525050565b5f60e082019050615e985f83018a615004565b615ea5602083018961493a565b615eb26040830188615e76565b615ebf6060830187614a91565b615ecc608083018661493a565b615ed960a0830185615004565b615ee660c0830184615004565b98975050505050505050565b5f615efc82614931565b9150615f0783614931565b9250828203905081811115615f1f57615f1e615d07565b5b92915050565b5f615f2f8261537a565b9150615f3a8361537a565b9250828203905065ffffffffffff811115615f5857615f57615d07565b5b92915050565b5f606082019050615f715f830186614a91565b615f7e602083018561493a565b615f8b604083018461493a565b949350505050565b5f60a082019050615fa65f830188615004565b615fb3602083018761493a565b615fc06040830186615e76565b615fcd6060830185614a91565b615fda608083018461493a565b9695505050505050565b5f81519050615ff28161538b565b92915050565b5f6020828403121561600d5761600c614876565b5b5f61601a84828501615fe4565b91505092915050565b5f61602d8261537a565b91506160388361537a565b9250828201905065ffffffffffff81111561605657616055615d07565b5b92915050565b5f81519050919050565b5f82825260208201905092915050565b5f819050602082019050919050565b61608e81614a80565b82525050565b5f61609f8383616085565b60208301905092915050565b5f602082019050919050565b5f6160c18261605c565b6160cb8185616066565b93506160d683616076565b805f5b838110156161065781516160ed8882616094565b97506160f8836160ab565b9250506001810190506160d9565b5085935050505092915050565b5f81519050919050565b5f82825260208201905092915050565b5f819050602082019050919050565b5f81519050919050565b5f82825260208201905092915050565b5f6161608261613c565b61616a8185616146565b935061617a8185602086016149d1565b616183816149f9565b840191505092915050565b5f6161998383616156565b905092915050565b5f602082019050919050565b5f6161b782616113565b6161c1818561611d565b9350836020820285016161d38561612d565b805f5b8581101561620e57848403895281516161ef858261618e565b94506161fa836161a1565b925060208a019950506001810190506161d6565b50829750879550505050505092915050565b5f6080820190508181035f83015261623881876160b7565b9050818103602083015261624c8186615683565b9050818103604083015261626081856161ad565b905061626f6060830184615004565b95945050505050565b5f60408201905061628b5f83018561493a565b616298602083018461493a565b9392505050565b5f6060820190506162b25f83018661493a565b6162bf6020830185615090565b6162cc6040830184615004565b949350505050565b6162dd816148fe565b81146162e7575f80fd5b50565b5f815190506162f8816162d4565b92915050565b5f6020828403121561631357616312614876565b5b5f616320848285016162ea565b91505092915050565b5f60808201905061633c5f83018761493a565b6163496020830186615e76565b616356604083018561493a565b81810360608301526163688184614a09565b905095945050505050565b5f82825260208201905092915050565b5f61638d8261613c565b6163978185616373565b93506163a78185602086016149d1565b6163b0816149f9565b840191505092915050565b5f60a0820190506163ce5f83018861493a565b6163db6020830187615e76565b6163e8604083018661493a565b81810360608301526163fa8185614a09565b9050818103608083015261640e8184616383565b90509695505050505050565b5f819050919050565b5f61643d6164386164338461641a565b615bb2565b61512b565b9050919050565b61644d81616423565b82525050565b5f6040820190506164665f830185616444565b616473602083018461493a565b9392505050565b5f61648482614931565b915061648f83614931565b92508282019050808211156164a7576164a6615d07565b5b92915050565b5f6040820190506164c05f830185615ca4565b6164cd6020830184615ca4565b9392505050565b5f81519050919050565b5f82825260208201905092915050565b5f819050602082019050919050565b5f82825260208201905092915050565b5f616517826149b7565b61652181856164fd565b93506165318185602086016149d1565b61653a816149f9565b840191505092915050565b5f616550838361650d565b905092915050565b5f602082019050919050565b5f61656e826164d4565b61657881856164de565b93508360208202850161658a856164ee565b805f5b858110156165c557848403895281516165a68582616545565b94506165b183616558565b925060208a0199505060018101905061658d565b50829750879550505050505092915050565b5f610120820190506165eb5f83018c61493a565b6165f8602083018b614a91565b818103604083015261660a818a6160b7565b9050818103606083015261661e8189615683565b905081810360808301526166328188616564565b905081810360a083015261664681876161ad565b905061665560c083018661493a565b61666260e083018561493a565b8181036101008301526166758184614a09565b90509a9950505050505050505050565b5f6040820190506166985f830185614a91565b6166a5602083018461493a565b9392505050565b5f815190506166ba81614962565b92915050565b5f602082840312156166d5576166d4614876565b5b5f6166e2848285016166ac565b91505092915050565b5f6040820190506166fe5f830185614a91565b61670b6020830184614a91565b9392505050565b5f819050919050565b5f61673561673061672b84616712565b615bb2565b614931565b9050919050565b6167458161671b565b82525050565b5f60208201905061675e5f83018461673c565b92915050565b5f61677e61677961677484615a7d565b615bb2565b614931565b9050919050565b61678e81616764565b82525050565b5f6040820190506167a75f830185616785565b6167b46020830184616785565b9392505050565b5f6167c582614931565b91506167d083614931565b92508282026167de81614931565b915082820484148315176167f5576167f4615d07565b5b5092915050565b7f4e487b71000000000000000000000000000000000000000000000000000000005f52601260045260245ffd5b5f61683382614931565b915061683e83614931565b92508261684e5761684d6167fc565b5b828204905092915050565b5f819050919050565b5f61687c61687761687284616859565b615bb2565b61512b565b9050919050565b61688c81616862565b82525050565b5f6040820190506168a55f830185616883565b6168b2602083018461493a565b9392505050565b5f815f1b9050919050565b5f6168de6168d96168d484616712565b6168b9565b614f19565b9050919050565b6168ee816168c4565b82525050565b5f60a0820190508181035f83015261690c81886160b7565b905081810360208301526169208187615683565b9050818103604083015261693481866161ad565b905061694360608301856168e5565b6169506080830184615004565b9695505050505050565b5f8151905061696881614f22565b92915050565b5f6020828403121561698357616982614876565b5b5f6169908482850161695a565b91505092915050565b5f60c0820190508181035f8301526169b181896160b7565b905081810360208301526169c58188615683565b905081810360408301526169d981876161ad565b90506169e860608301866168e5565b6169f56080830185615004565b616a0260a083018461493a565b979650505050505050565b5f604082019050616a205f830185615004565b8181036020830152616a328184616383565b90509392505050565b5f616a458261613c565b616a4f8185615e30565b9350616a5f8185602086016149d1565b80840191505092915050565b5f616a768284616a3b565b915081905092915050565b5f819050919050565b5f616aa4616a9f616a9a84616a81565b615bb2565b61512b565b9050919050565b616ab481616a8a565b82525050565b5f604082019050616acd5f830185616aab565b616ada602083018461493a565b9392505050565b5f616aeb8261512b565b9150616af68361512b565b9250828201905060ff811115616b0f57616b0e615d07565b5b92915050565b5f8160011c9050919050565b5f808291508390505b6001851115616b6a57808604811115616b4657616b45615d07565b5b6001851615616b555780820291505b8081029050616b6385616b15565b9450616b2a565b94509492505050565b5f82616b825760019050616c3d565b81616b8f575f9050616c3d565b8160018114616ba55760028114616baf57616bde565b6001915050616c3d565b60ff841115616bc157616bc0615d07565b5b8360020a915084821115616bd857616bd7615d07565b5b50616c3d565b5060208310610133831016604e8410600b8410161715616c135782820a905083811115616c0e57616c0d615d07565b5b616c3d565b616c208484846001616b21565b92509050818404811115616c3757616c36615d07565b5b81810290505b9392505050565b5f616c4e82614931565b9150616c598361512b565b9250616c867fffffffffffffffffffffffffffffffffffffffffffffffffffffffffffffffff8484616b73565b905092915050565b5f60a082019050616ca15f830188615004565b616cae6020830187615004565b616cbb6040830186615004565b616cc8606083018561493a565b616cd56080830184614a91565b9695505050505050565b5f608082019050616cf25f830187615004565b616cff6020830186615e76565b616d0c6040830185615004565b616d196060830184615004565b9594505050505056fea26469706673582212203941d7a0fcebe9ffb96674bffa3940690ec236da0e8ebb94c4600c55be4efb7e64736f6c63430008150033","linkReferences":{}},"methodIdentifiers":{"BALLOT_TYPEHASH()":"deaaa7cc","CLOCK_MODE()":"4bf5d7e9","COUNTING_MODE()":"dd4e2ba5","EXTENDED_BALLOT_TYPEHASH()":"2fe3e261","cancel(address[],uint256[],bytes[],bytes32)":"452115d6","castVote(uint256,uint8)":"56781388","castVoteBySig(uint256,uint8,address,bytes)":"8ff262e3","castVoteWithReason(uint256,uint8,string)":"7b3c71d3","castVoteWithReasonAndParams(uint256,uint8,string,bytes)":"5f398a14","castVoteWithReasonAndParamsBySig(uint256,uint8,address,string,bytes,bytes)":"5b8d0e0d","clock()":"91ddadf4","eip712Domain()":"84b0196e","execute(address[],uint256[],bytes[],bytes32)":"2656227d","getVotes(address,uint256)":"eb9019d4","getVotesWithParams(address,uint256,bytes)":"9a802a6d","hasVoted(uint256,address)":"43859632","hashProposal(address[],uint256[],bytes[],bytes32)":"c59057e4","name()":"06fdde03","nonces(address)":"7ecebe00","onERC1155BatchReceived(address,address,uint256[],uint256[],bytes)":"bc197c81","onERC1155Received(address,address,uint256,uint256,bytes)":"f23a6e61","onERC721Received(address,address,uint256,bytes)":"150b7a02","proposalDeadline(uint256)":"c01f9e37","proposalEta(uint256)":"ab58fb8e","proposalNeedsQueuing(uint256)":"a9a95294","proposalProposer(uint256)":"143489d0","proposalSnapshot(uint256)":"2d63f693","proposalThreshold()":"b58131b0","proposalVotes(uint256)":"544ffc9c","propose(address[],uint256[],bytes[],string)":"7d5e81e2","queue(address[],uint256[],bytes[],bytes32)":"160cbed7","quorum(uint256)":"f8ce560a","quorumDenominator()":"97c3d334","quorumNumerator()":"a7713a70","quorumNumerator(uint256)":"60c4247f","relay(address,uint256,bytes)":"c28bc2fa","setProposalThreshold(uint256)":"ece40cc1","setVotingDelay(uint48)":"79051887","setVotingPeriod(uint32)":"e540d01d","state(uint256)":"3e4f49e6","supportsInterface(bytes4)":"01ffc9a7","timelock()":"d33219b4","token()":"fc0c546a","updateQuorumNumerator(uint256)":"06f3f9e6","updateTimelock(address)":"a890c910","version()":"54fd4d50","votingDelay()":"3932abb1","votingPeriod()":"02a251a3"},"id":26}