{"abi":[{"type":"constructor","inputs":[{"name":"_dusd","type":"address","internalType":"address"}],"stateMutability":"nonpayable"},{"type":"function","name":"getAskHintId","inputs":[{"name":"asset","type":"address","internalType":"address"},{"name":"price","type":"uint256","internalType":"uint256"}],"outputs":[{"name":"hintId","type":"uint16","internalType":"uint16"}],"stateMutability":"view"},{"type":"function","name":"getAsks","inputs":[{"name":"asset","type":"address","internalType":"address"}],"outputs":[{"name":"","type":"tuple[]","internalType":"struct STypes.Order[]","components":[{"name":"ercAmount","type":"uint88","internalType":"uint88"},{"name":"price","type":"uint80","internalType":"uint80"},{"name":"prevId","type":"uint16","internalType":"uint16"},{"name":"id","type":"uint16","internalType":"uint16"},{"name":"nextId","type":"uint16","internalType":"uint16"},{"name":"orderType","type":"uint8","internalType":"enum O"},{"name":"creationTime","type":"uint32","internalType":"uint32"},{"name":"addr","type":"address","internalType":"address"},{"name":"prevOrderType","type":"uint8","internalType":"enum O"},{"name":"shortOrderCR","type":"uint16","internalType":"uint16"},{"name":"shortRecordId","type":"uint8","internalType":"uint8"},{"name":"filler","type":"uint64","internalType":"uint64"}]}],"stateMutability":"view"},{"type":"function","name":"getAssetBalance","inputs":[{"name":"asset","type":"address","internalType":"address"},{"name":"user","type":"address","internalType":"address"}],"outputs":[{"name":"","type":"uint256","internalType":"uint256"}],"stateMutability":"view"},{"type":"function","name":"getAssetCollateralRatio","inputs":[{"name":"asset","type":"address","internalType":"address"}],"outputs":[{"name":"cRatio","type":"uint256","internalType":"uint256"}],"stateMutability":"view"},{"type":"function","name":"getAssetStruct","inputs":[{"name":"asset","type":"address","internalType":"address"}],"outputs":[{"name":"","type":"tuple","internalType":"struct STypes.Asset","components":[{"name":"ercDebt","type":"uint104","internalType":"uint104"},{"name":"dethCollateral","type":"uint88","internalType":"uint88"},{"name":"startingShortId","type":"uint16","internalType":"uint16"},{"name":"orderIdCounter","type":"uint16","internalType":"uint16"},{"name":"initialCR","type":"uint16","internalType":"uint16"},{"name":"frozen","type":"uint8","internalType":"enum F"},{"name":"vault","type":"uint8","internalType":"uint8"},{"name":"minBidEth","type":"uint8","internalType":"uint8"},{"name":"minAskEth","type":"uint8","internalType":"uint8"},{"name":"minShortErc","type":"uint16","internalType":"uint16"},{"name":"penaltyCR","type":"uint8","internalType":"uint8"},{"name":"tappFeePct","type":"uint8","internalType":"uint8"},{"name":"callerFeePct","type":"uint8","internalType":"uint8"},{"name":"forcedBidPriceBuffer","type":"uint8","internalType":"uint8"},{"name":"assetId","type":"uint8","internalType":"uint8"},{"name":"ercDebtRate","type":"uint64","internalType":"uint64"},{"name":"liquidationCR","type":"uint16","internalType":"uint16"},{"name":"recoveryCR","type":"uint8","internalType":"uint8"},{"name":"lastRedemptionTime","type":"uint32","internalType":"uint32"},{"name":"baseRate","type":"uint64","internalType":"uint64"},{"name":"oracle","type":"address","internalType":"address"},{"name":"filler1","type":"uint96","internalType":"uint96"}]}],"stateMutability":"view"},{"type":"function","name":"getAssetUserStruct","inputs":[{"name":"asset","type":"address","internalType":"address"},{"name":"user","type":"address","internalType":"address"}],"outputs":[{"name":"","type":"tuple","internalType":"struct STypes.AssetUser","components":[{"name":"ercEscrowed","type":"uint104","internalType":"uint104"},{"name":"filler1","type":"uint56","internalType":"uint56"},{"name":"shortRecordCounter","type":"uint8","internalType":"uint8"},{"name":"oraclePrice","type":"uint80","internalType":"uint80"},{"name":"filler2","type":"uint8","internalType":"uint8"},{"name":"SSTORE2Pointer","type":"address","internalType":"address"},{"name":"timeProposed","type":"uint32","internalType":"uint32"},{"name":"timeToDispute","type":"uint32","internalType":"uint32"},{"name":"slateLength","type":"uint8","internalType":"uint8"},{"name":"filler3","type":"uint24","internalType":"uint24"}]}],"stateMutability":"view"},{"type":"function","name":"getBidHintId","inputs":[{"name":"asset","type":"address","internalType":"address"},{"name":"price","type":"uint256","internalType":"uint256"}],"outputs":[{"name":"hintId","type":"uint16","internalType":"uint16"}],"stateMutability":"view"},{"type":"function","name":"getBids","inputs":[{"name":"asset","type":"address","internalType":"address"}],"outputs":[{"name":"","type":"tuple[]","internalType":"struct STypes.Order[]","components":[{"name":"ercAmount","type":"uint88","internalType":"uint88"},{"name":"price","type":"uint80","internalType":"uint80"},{"name":"prevId","type":"uint16","internalType":"uint16"},{"name":"id","type":"uint16","internalType":"uint16"},{"name":"nextId","type":"uint16","internalType":"uint16"},{"name":"orderType","type":"uint8","internalType":"enum O"},{"name":"creationTime","type":"uint32","internalType":"uint32"},{"name":"addr","type":"address","internalType":"address"},{"name":"prevOrderType","type":"uint8","internalType":"enum O"},{"name":"shortOrderCR","type":"uint16","internalType":"uint16"},{"name":"shortRecordId","type":"uint8","internalType":"uint8"},{"name":"filler","type":"uint64","internalType":"uint64"}]}],"stateMutability":"view"},{"type":"function","name":"getBridgeStruct","inputs":[{"name":"bridge","type":"address","internalType":"address"}],"outputs":[{"name":"","type":"tuple","internalType":"struct STypes.Bridge","components":[{"name":"vault","type":"uint8","internalType":"uint8"},{"name":"withdrawalFee","type":"uint16","internalType":"uint16"}]}],"stateMutability":"view"},{"type":"function","name":"getBridgeVault","inputs":[{"name":"bridge","type":"address","internalType":"address"}],"outputs":[{"name":"","type":"uint256","internalType":"uint256"}],"stateMutability":"view"},{"type":"function","name":"getCollateralRatio","inputs":[{"name":"asset","type":"address","internalType":"address"},{"name":"short","type":"tuple","internalType":"struct STypes.ShortRecord","components":[{"name":"collateral","type":"uint88","internalType":"uint88"},{"name":"ercDebt","type":"uint88","internalType":"uint88"},{"name":"dethYieldRate","type":"uint80","internalType":"uint80"},{"name":"status","type":"uint8","internalType":"enum SR"},{"name":"prevId","type":"uint8","internalType":"uint8"},{"name":"id","type":"uint8","internalType":"uint8"},{"name":"nextId","type":"uint8","internalType":"uint8"},{"name":"ercDebtRate","type":"uint64","internalType":"uint64"},{"name":"updatedAt","type":"uint32","internalType":"uint32"},{"name":"tokenId","type":"uint40","internalType":"uint40"}]}],"outputs":[{"name":"cRatio","type":"uint256","internalType":"uint256"}],"stateMutability":"view"},{"type":"function","name":"getCollateralRatioSpotPrice","inputs":[{"name":"asset","type":"address","internalType":"address"},{"name":"short","type":"tuple","internalType":"struct STypes.ShortRecord","components":[{"name":"collateral","type":"uint88","internalType":"uint88"},{"name":"ercDebt","type":"uint88","internalType":"uint88"},{"name":"dethYieldRate","type":"uint80","internalType":"uint80"},{"name":"status","type":"uint8","internalType":"enum SR"},{"name":"prevId","type":"uint8","internalType":"uint8"},{"name":"id","type":"uint8","internalType":"uint8"},{"name":"nextId","type":"uint8","internalType":"uint8"},{"name":"ercDebtRate","type":"uint64","internalType":"uint64"},{"name":"updatedAt","type":"uint32","internalType":"uint32"},{"name":"tokenId","type":"uint40","internalType":"uint40"}]}],"outputs":[{"name":"cRatio","type":"uint256","internalType":"uint256"}],"stateMutability":"view"},{"type":"function","name":"getDethBalance","inputs":[{"name":"vault","type":"uint256","internalType":"uint256"},{"name":"user","type":"address","internalType":"address"}],"outputs":[{"name":"","type":"uint256","internalType":"uint256"}],"stateMutability":"view"},{"type":"function","name":"getDethYieldRate","inputs":[{"name":"vault","type":"uint256","internalType":"uint256"}],"outputs":[{"name":"","type":"uint256","internalType":"uint256"}],"stateMutability":"view"},{"type":"function","name":"getDittoMatchedReward","inputs":[{"name":"vault","type":"uint256","internalType":"uint256"},{"name":"user","type":"address","internalType":"address"}],"outputs":[{"name":"","type":"uint256","internalType":"uint256"}],"stateMutability":"view"},{"type":"function","name":"getDittoReward","inputs":[{"name":"vault","type":"uint256","internalType":"uint256"},{"name":"user","type":"address","internalType":"address"}],"outputs":[{"name":"","type":"uint256","internalType":"uint256"}],"stateMutability":"view"},{"type":"function","name":"getHintArray","inputs":[{"name":"asset","type":"address","internalType":"address"},{"name":"price","type":"uint256","internalType":"uint256"},{"name":"orderType","type":"uint8","internalType":"enum O"},{"name":"numHints","type":"uint256","internalType":"uint256"}],"outputs":[{"name":"orderHintArray","type":"tuple[]","internalType":"struct MTypes.OrderHint[]","components":[{"name":"hintId","type":"uint16","internalType":"uint16"},{"name":"creationTime","type":"uint256","internalType":"uint256"}]}],"stateMutability":"view"},{"type":"function","name":"getMinShortErc","inputs":[{"name":"asset","type":"address","internalType":"address"}],"outputs":[{"name":"","type":"uint256","internalType":"uint256"}],"stateMutability":"view"},{"type":"function","name":"getOffsetTime","inputs":[],"outputs":[{"name":"","type":"uint256","internalType":"uint256"}],"stateMutability":"view"},{"type":"function","name":"getOracleAssetPrice","inputs":[{"name":"asset","type":"address","internalType":"address"}],"outputs":[{"name":"","type":"uint256","internalType":"uint256"}],"stateMutability":"view"},{"type":"function","name":"getProtocolAssetPrice","inputs":[{"name":"asset","type":"address","internalType":"address"}],"outputs":[{"name":"","type":"uint256","internalType":"uint256"}],"stateMutability":"view"},{"type":"function","name":"getProtocolAssetTime","inputs":[{"name":"asset","type":"address","internalType":"address"}],"outputs":[{"name":"","type":"uint256","internalType":"uint256"}],"stateMutability":"view"},{"type":"function","name":"getShortHintId","inputs":[{"name":"asset","type":"address","internalType":"address"},{"name":"price","type":"uint256","internalType":"uint256"}],"outputs":[{"name":"","type":"uint16","internalType":"uint16"}],"stateMutability":"view"},{"type":"function","name":"getShortIdAtOracle","inputs":[{"name":"asset","type":"address","internalType":"address"}],"outputs":[{"name":"shortHintId","type":"uint16","internalType":"uint16"}],"stateMutability":"view"},{"type":"function","name":"getShortOrderId","inputs":[{"name":"asset","type":"address","internalType":"address"},{"name":"shorter","type":"address","internalType":"address"},{"name":"shortRecordId","type":"uint8","internalType":"uint8"}],"outputs":[{"name":"shortOrderId","type":"uint16","internalType":"uint16"}],"stateMutability":"view"},{"type":"function","name":"getShortOrderIdArray","inputs":[{"name":"asset","type":"address","internalType":"address"},{"name":"shorter","type":"address","internalType":"address"},{"name":"shortRecordIds","type":"uint8[]","internalType":"uint8[]"}],"outputs":[{"name":"shortOrderIds","type":"uint16[]","internalType":"uint16[]"}],"stateMutability":"view"},{"type":"function","name":"getShortRecord","inputs":[{"name":"asset","type":"address","internalType":"address"},{"name":"shorter","type":"address","internalType":"address"},{"name":"id","type":"uint8","internalType":"uint8"}],"outputs":[{"name":"shortRecord","type":"tuple","internalType":"struct STypes.ShortRecord","components":[{"name":"collateral","type":"uint88","internalType":"uint88"},{"name":"ercDebt","type":"uint88","internalType":"uint88"},{"name":"dethYieldRate","type":"uint80","internalType":"uint80"},{"name":"status","type":"uint8","internalType":"enum SR"},{"name":"prevId","type":"uint8","internalType":"uint8"},{"name":"id","type":"uint8","internalType":"uint8"},{"name":"nextId","type":"uint8","internalType":"uint8"},{"name":"ercDebtRate","type":"uint64","internalType":"uint64"},{"name":"updatedAt","type":"uint32","internalType":"uint32"},{"name":"tokenId","type":"uint40","internalType":"uint40"}]}],"stateMutability":"view"},{"type":"function","name":"getShortRecordCount","inputs":[{"name":"asset","type":"address","internalType":"address"},{"name":"shorter","type":"address","internalType":"address"}],"outputs":[{"name":"shortRecordCount","type":"uint256","internalType":"uint256"}],"stateMutability":"view"},{"type":"function","name":"getShortRecords","inputs":[{"name":"asset","type":"address","internalType":"address"},{"name":"shorter","type":"address","internalType":"address"}],"outputs":[{"name":"shorts","type":"tuple[]","internalType":"struct STypes.ShortRecord[]","components":[{"name":"collateral","type":"uint88","internalType":"uint88"},{"name":"ercDebt","type":"uint88","internalType":"uint88"},{"name":"dethYieldRate","type":"uint80","internalType":"uint80"},{"name":"status","type":"uint8","internalType":"enum SR"},{"name":"prevId","type":"uint8","internalType":"uint8"},{"name":"id","type":"uint8","internalType":"uint8"},{"name":"nextId","type":"uint8","internalType":"uint8"},{"name":"ercDebtRate","type":"uint64","internalType":"uint64"},{"name":"updatedAt","type":"uint32","internalType":"uint32"},{"name":"tokenId","type":"uint40","internalType":"uint40"}]}],"stateMutability":"view"},{"type":"function","name":"getShorts","inputs":[{"name":"asset","type":"address","internalType":"address"}],"outputs":[{"name":"","type":"tuple[]","internalType":"struct STypes.Order[]","components":[{"name":"ercAmount","type":"uint88","internalType":"uint88"},{"name":"price","type":"uint80","internalType":"uint80"},{"name":"prevId","type":"uint16","internalType":"uint16"},{"name":"id","type":"uint16","internalType":"uint16"},{"name":"nextId","type":"uint16","internalType":"uint16"},{"name":"orderType","type":"uint8","internalType":"enum O"},{"name":"creationTime","type":"uint32","internalType":"uint32"},{"name":"addr","type":"address","internalType":"address"},{"name":"prevOrderType","type":"uint8","internalType":"enum O"},{"name":"shortOrderCR","type":"uint16","internalType":"uint16"},{"name":"shortRecordId","type":"uint8","internalType":"uint8"},{"name":"filler","type":"uint64","internalType":"uint64"}]}],"stateMutability":"view"},{"type":"function","name":"getTithe","inputs":[{"name":"vault","type":"uint256","internalType":"uint256"}],"outputs":[{"name":"","type":"uint256","internalType":"uint256"}],"stateMutability":"view"},{"type":"function","name":"getUndistributedYield","inputs":[{"name":"vault","type":"uint256","internalType":"uint256"}],"outputs":[{"name":"","type":"uint256","internalType":"uint256"}],"stateMutability":"view"},{"type":"function","name":"getVault","inputs":[{"name":"asset","type":"address","internalType":"address"}],"outputs":[{"name":"","type":"uint256","internalType":"uint256"}],"stateMutability":"view"},{"type":"function","name":"getVaultStruct","inputs":[{"name":"vault","type":"uint256","internalType":"uint256"}],"outputs":[{"name":"","type":"tuple","internalType":"struct STypes.Vault","components":[{"name":"dethCollateral","type":"uint88","internalType":"uint88"},{"name":"dethTotal","type":"uint88","internalType":"uint88"},{"name":"dethYieldRate","type":"uint80","internalType":"uint80"},{"name":"dethCollateralReward","type":"uint88","internalType":"uint88"},{"name":"dethTithePercent","type":"uint16","internalType":"uint16"},{"name":"dittoShorterRate","type":"uint16","internalType":"uint16"},{"name":"dethTitheMod","type":"uint16","internalType":"uint16"},{"name":"filler2","type":"uint120","internalType":"uint120"},{"name":"dittoMatchedShares","type":"uint128","internalType":"uint128"},{"name":"dittoMatchedReward","type":"uint96","internalType":"uint96"},{"name":"dittoMatchedRate","type":"uint16","internalType":"uint16"},{"name":"dittoMatchedTime","type":"uint16","internalType":"uint16"}]}],"stateMutability":"view"},{"type":"function","name":"getVaultUserStruct","inputs":[{"name":"vault","type":"uint256","internalType":"uint256"},{"name":"user","type":"address","internalType":"address"}],"outputs":[{"name":"","type":"tuple","internalType":"struct STypes.VaultUser","components":[{"name":"ethEscrowed","type":"uint88","internalType":"uint88"},{"name":"dittoMatchedShares","type":"uint88","internalType":"uint88"},{"name":"dittoReward","type":"uint80","internalType":"uint80"},{"name":"bridgeCreditReth","type":"uint88","internalType":"uint88"},{"name":"bridgeCreditSteth","type":"uint88","internalType":"uint88"}]}],"stateMutability":"view"},{"type":"function","name":"getYield","inputs":[{"name":"asset","type":"address","internalType":"address"},{"name":"user","type":"address","internalType":"address"}],"outputs":[{"name":"shorterYield","type":"uint256","internalType":"uint256"}],"stateMutability":"view"},{"type":"error","name":"InsufficientEthInLiquidityPool","inputs":[]},{"type":"error","name":"InvalidAsset","inputs":[]},{"type":"error","name":"InvalidPrice","inputs":[]},{"type":"error","name":"InvalidTwapPrice","inputs":[]},{"type":"error","name":"PRBMath_MulDiv18_Overflow","inputs":[{"name":"x","type":"uint256","internalType":"uint256"},{"name":"y","type":"uint256","internalType":"uint256"}]},{"type":"error","name":"PRBMath_MulDiv_Overflow","inputs":[{"name":"x","type":"uint256","internalType":"uint256"},{"name":"y","type":"uint256","internalType":"uint256"},{"name":"denominator","type":"uint256","internalType":"uint256"}]},{"type":"error","name":"ReentrantCallView","inputs":[]}],"bytecode":{"object":"0x60a060405234801562000010575f80fd5b50604051620070fe380380620070fe8339818101604052810190620000369190620000d6565b8073ffffffffffffffffffffffffffffffffffffffff1660808173ffffffffffffffffffffffffffffffffffffffff16815250505062000106565b5f80fd5b5f73ffffffffffffffffffffffffffffffffffffffff82169050919050565b5f620000a08262000075565b9050919050565b620000b28162000094565b8114620000bd575f80fd5b50565b5f81519050620000d081620000a7565b92915050565b5f60208284031215620000ee57620000ed62000071565b5b5f620000fd84828501620000c0565b91505092915050565b608051616fe26200011c5f395f5050616fe25ff3fe608060405234801561000f575f80fd5b506004361061021a575f3560e01c80637db6eec911610123578063d1668385116100ab578063ef9bdfdb1161007a578063ef9bdfdb146107dc578063f0ac360b1461080c578063f24f250b1461083c578063fa6a28711461086c578063fb5c0a591461089c5761021a565b8063d16683851461072e578063d7516a901461075e578063e9a2269b1461077c578063ec70a2f8146107ac5761021a565b80639dccae82116100f25780639dccae821461063e578063b4a9a0de1461066e578063bd6b8f011461069e578063c09b0d20146106ce578063c1cf2e30146106fe5761021a565b80637db6eec91461057e5780637e89334f146105ae5780638d2bd5cd146105de578063973cfb411461060e5761021a565b80632ee19f6a116101a6578063573fcde611610175578063573fcde61461048e57806358ec7987146104be5780635a61aa1d146104ee5780635cb1be991461051e57806376a73f1d1461054e5761021a565b80632ee19f6a146103ce5780634c87276e146103fe57806353105b4d1461042e5780635681e3891461045e5761021a565b80630eb9af38116101ed5780630eb9af38146102de57806312779fcd1461030e57806324ddaf901461033e578063254c52721461036e578063258119b31461039e5761021a565b8063024ef0dd1461021e5780630264b02d1461024e57806306a880fb1461027e57806307ca4c70146102ae575b5f80fd5b610238600480360381019061023391906156e2565b6108cc565b6040516102459190615729565b60405180910390f35b61026860048036038101906102639190615a49565b610a39565b6040516102759190615aa0565b60405180910390f35b61029860048036038101906102939190615ab9565b610aa6565b6040516102a59190615729565b60405180910390f35b6102c860048036038101906102c39190615b33565b610b92565b6040516102d59190615aa0565b60405180910390f35b6102f860048036038101906102f391906156e2565b610c60565b6040516103059190615aa0565b60405180910390f35b61032860048036038101906103239190615b71565b610cba565b6040516103359190615aa0565b60405180910390f35b610358600480360381019061035391906156e2565b610cfa565b6040516103659190615e7c565b60405180910390f35b610388600480360381019061038391906156e2565b611115565b6040516103959190615aa0565b60405180910390f35b6103b860048036038101906103b39190615e96565b611132565b6040516103c59190615729565b60405180910390f35b6103e860048036038101906103e391906156e2565b611151565b6040516103f59190615aa0565b60405180910390f35b610418600480360381019061041391906156e2565b61126b565b6040516104259190615aa0565b60405180910390f35b61044860048036038101906104439190615b33565b6112c4565b6040516104559190615aa0565b60405180910390f35b61047860048036038101906104739190615ed4565b6113d9565b60405161048591906160e9565b60405180910390f35b6104a860048036038101906104a391906156e2565b6118e6565b6040516104b59190615aa0565b60405180910390f35b6104d860048036038101906104d3919061612c565b6118f7565b6040516104e59190616274565b60405180910390f35b61050860048036038101906105039190615ed4565b611e3b565b6040516105159190615aa0565b60405180910390f35b61053860048036038101906105339190615b33565b61219b565b60405161054591906162fa565b60405180910390f35b61056860048036038101906105639190615a49565b612374565b6040516105759190615aa0565b60405180910390f35b610598600480360381019061059391906156e2565b6123e1565b6040516105a59190615aa0565b60405180910390f35b6105c860048036038101906105c39190615ed4565b6123f2565b6040516105d59190615aa0565b60405180910390f35b6105f860048036038101906105f39190615e96565b6124f0565b6040516106059190615729565b60405180910390f35b61062860048036038101906106239190615b71565b61250f565b604051610635919061645a565b60405180910390f35b610658600480360381019061065391906156e2565b6127e0565b6040516106659190616657565b60405180910390f35b61068860048036038101906106839190615b33565b612850565b6040516106959190615aa0565b60405180910390f35b6106b860048036038101906106b391906156e2565b612a5e565b6040516106c59190616657565b60405180910390f35b6106e860048036038101906106e39190615b71565b612ace565b6040516106f59190615aa0565b60405180910390f35b61071860048036038101906107139190615ed4565b612b74565b6040516107259190615aa0565b60405180910390f35b61074860048036038101906107439190615ed4565b612bd8565b604051610755919061677f565b60405180910390f35b610766612e7c565b6040516107739190615aa0565b60405180910390f35b610796600480360381019061079191906156e2565b612e90565b6040516107a39190615aa0565b60405180910390f35b6107c660048036038101906107c19190615e96565b612ea1565b6040516107d39190615729565b60405180910390f35b6107f660048036038101906107f19190615b71565b612ec0565b6040516108039190615aa0565b60405180910390f35b610826600480360381019061082191906156e2565b612f40565b6040516108339190616657565b60405180910390f35b61085660048036038101906108519190615ab9565b612fb0565b6040516108639190616863565b60405180910390f35b61088660048036038101906108819190616945565b613269565b6040516108939190616a59565b60405180910390f35b6108b660048036038101906108b191906156e2565b613404565b6040516108c39190616aa6565b60405180910390f35b5f600260ff165f600201601c9054906101000a900460ff1660ff160361091e576040517f53140ec200000000000000000000000000000000000000000000000000000000815260040160405180910390fd5b5f6109495f600c018460018060ff166001610938896134e8565b6109429190616aec565b60056138f2565b9050600160ff165f600c015f8573ffffffffffffffffffffffffffffffffffffffff1673ffffffffffffffffffffffffffffffffffffffff1681526020019081526020015f205f8361ffff1661ffff1681526020019081526020015f205f0160199054906101000a900461ffff1661ffff16036109c95780915050610a34565b5f600c015f8473ffffffffffffffffffffffffffffffffffffffff1673ffffffffffffffffffffffffffffffffffffffff1681526020019081526020015f205f8261ffff1661ffff1681526020019081526020015f205f0160199054906101000a900461ffff169150505b919050565b5f600260ff165f600201601c9054906101000a900460ff1660ff1603610a8b576040517f53140ec200000000000000000000000000000000000000000000000000000000815260040160405180910390fd5b610a9e8383613a2b90919063ffffffff16565b905092915050565b5f80610abe855f600c01613a8e90919063ffffffff16565b90505f5b8151811015610b88578473ffffffffffffffffffffffffffffffffffffffff16828281518110610af557610af4616b1f565b5b602002602001015160e0015173ffffffffffffffffffffffffffffffffffffffff16148015610b4857508360ff16828281518110610b3657610b35616b1f565b5b6020026020010151610140015160ff16145b15610b7557818181518110610b6057610b5f616b1f565b5b60200260200101516060015192505050610b8b565b8080610b8090616b4c565b915050610ac2565b50505b9392505050565b5f600260ff165f600201601c9054906101000a900460ff1660ff1603610be4576040517f53140ec200000000000000000000000000000000000000000000000000000000815260040160405180910390fd5b5f6007015f8481526020019081526020015f205f8373ffffffffffffffffffffffffffffffffffffffff1673ffffffffffffffffffffffffffffffffffffffff1681526020019081526020015f205f015f9054906101000a90046affffffffffffffffffffff166affffffffffffffffffffff16905092915050565b5f806008015f8373ffffffffffffffffffffffffffffffffffffffff1673ffffffffffffffffffffffffffffffffffffffff1681526020019081526020015f205f01601f9054906101000a900460ff1660ff169050919050565b5f806005015f8381526020019081526020015f205f0160169054906101000a900469ffffffffffffffffffff1669ffffffffffffffffffff169050919050565b610d026151d0565b600260ff165f600201601c9054906101000a900460ff1660ff1603610d53576040517f53140ec200000000000000000000000000000000000000000000000000000000815260040160405180910390fd5b5f6008015f8373ffffffffffffffffffffffffffffffffffffffff1673ffffffffffffffffffffffffffffffffffffffff1681526020019081526020015f20604051806102c00160405290815f82015f9054906101000a90046cffffffffffffffffffffffffff166cffffffffffffffffffffffffff166cffffffffffffffffffffffffff1681526020015f8201600d9054906101000a90046affffffffffffffffffffff166affffffffffffffffffffff166affffffffffffffffffffff1681526020015f820160189054906101000a900461ffff1661ffff1661ffff1681526020015f8201601a9054906101000a900461ffff1661ffff1661ffff1681526020015f8201601c9054906101000a900461ffff1661ffff1661ffff1681526020015f8201601e9054906101000a900460ff166001811115610e9857610e97615be1565b5b6001811115610eaa57610ea9615be1565b5b81526020015f8201601f9054906101000a900460ff1660ff1660ff168152602001600182015f9054906101000a900460ff1660ff1660ff1681526020016001820160019054906101000a900460ff1660ff1660ff1681526020016001820160029054906101000a900461ffff1661ffff1661ffff1681526020016001820160049054906101000a900460ff1660ff1660ff1681526020016001820160059054906101000a900460ff1660ff1660ff1681526020016001820160069054906101000a900460ff1660ff1660ff1681526020016001820160079054906101000a900460ff1660ff1660ff1681526020016001820160089054906101000a900460ff1660ff1660ff1681526020016001820160099054906101000a900467ffffffffffffffff1667ffffffffffffffff1667ffffffffffffffff1681526020016001820160119054906101000a900461ffff1661ffff1661ffff1681526020016001820160139054906101000a900460ff1660ff1660ff1681526020016001820160149054906101000a900463ffffffff1663ffffffff1663ffffffff1681526020016001820160189054906101000a900467ffffffffffffffff1667ffffffffffffffff1667ffffffffffffffff168152602001600282015f9054906101000a900473ffffffffffffffffffffffffffffffffffffffff1673ffffffffffffffffffffffffffffffffffffffff1673ffffffffffffffffffffffffffffffffffffffff1681526020016002820160149054906101000a90046bffffffffffffffffffffffff166bffffffffffffffffffffffff166bffffffffffffffffffffffff16815250509050919050565b5f61111f82613f76565b69ffffffffffffffffffff169050919050565b5f6111495f600c018460018060ff168660056138f2565b905092915050565b5f600260ff165f600201601c9054906101000a900460ff1660ff16036111a3576040517f53140ec200000000000000000000000000000000000000000000000000000000815260040160405180910390fd5b5f806008015f8473ffffffffffffffffffffffffffffffffffffffff1673ffffffffffffffffffffffffffffffffffffffff1681526020019081526020015f20905061126361122d825f015f9054906101000a90046cffffffffffffffffffffffffff166cffffffffffffffffffffffffff1661121f866134e8565b613ff990919063ffffffff16565b825f01600d9054906101000a90046affffffffffffffffffffff166affffffffffffffffffffff1661400c90919063ffffffff16565b915050919050565b5f806004015f8373ffffffffffffffffffffffffffffffffffffffff1673ffffffffffffffffffffffffffffffffffffffff1681526020019081526020015f205f015f9054906101000a900460ff1660ff169050919050565b5f600260ff165f600201601c9054906101000a900460ff1660ff1603611316576040517f53140ec200000000000000000000000000000000000000000000000000000000815260040160405180910390fd5b5f806007015f8581526020019081526020015f205f8473ffffffffffffffffffffffffffffffffffffffff1673ffffffffffffffffffffffffffffffffffffffff1681526020019081526020015f2090506001815f0160169054906101000a900469ffffffffffffffffffff1669ffffffffffffffffffff161161139d575f9150506113d3565b6001815f0160169054906101000a900469ffffffffffffffffffff166113c39190616b93565b69ffffffffffffffffffff169150505b92915050565b6060600260ff165f600201601c9054906101000a900460ff1660ff160361142c576040517f53140ec200000000000000000000000000000000000000000000000000000000815260040160405180910390fd5b5f6114378484614035565b90505f8167ffffffffffffffff81111561145457611453615756565b5b60405190808252806020026020018201604052801561148d57816020015b61147a6152fc565b8152602001906001900390816114725790505b5090505f80600d015f8773ffffffffffffffffffffffffffffffffffffffff1673ffffffffffffffffffffffffffffffffffffffff1681526020019081526020015f205f8673ffffffffffffffffffffffffffffffffffffffff1673ffffffffffffffffffffffffffffffffffffffff1681526020019081526020015f205f600160ff1660ff1681526020019081526020015f2060010160039054906101000a900460ff169050600160ff168160ff161161154a575050506118e0565b5f5b6001156118db575f80600d015f8973ffffffffffffffffffffffffffffffffffffffff1673ffffffffffffffffffffffffffffffffffffffff1681526020019081526020015f205f8873ffffffffffffffffffffffffffffffffffffffff1673ffffffffffffffffffffffffffffffffffffffff1681526020019081526020015f205f8460ff1660ff1681526020019081526020015f2090506002808111156115f8576115f7615be1565b5b816001015f9054906101000a900460ff16600281111561161b5761161a615be1565b5b14801561163f5750600160ff168160010160039054906101000a900460ff1660ff16115b1561165e578060010160039054906101000a900460ff1692505061154c565b60028081111561167157611670615be1565b5b816001015f9054906101000a900460ff16600281111561169457611693615be1565b5b146118815780604051806101400160405290815f82015f9054906101000a90046affffffffffffffffffffff166affffffffffffffffffffff166affffffffffffffffffffff1681526020015f8201600b9054906101000a90046affffffffffffffffffffff166affffffffffffffffffffff166affffffffffffffffffffff1681526020015f820160169054906101000a900469ffffffffffffffffffff1669ffffffffffffffffffff1669ffffffffffffffffffff168152602001600182015f9054906101000a900460ff16600281111561177457611773615be1565b5b600281111561178657611785615be1565b5b81526020016001820160019054906101000a900460ff1660ff1660ff1681526020016001820160029054906101000a900460ff1660ff1660ff1681526020016001820160039054906101000a900460ff1660ff1660ff1681526020016001820160049054906101000a900467ffffffffffffffff1667ffffffffffffffff1667ffffffffffffffff16815260200160018201600c9054906101000a900463ffffffff1663ffffffff1663ffffffff1681526020016001820160109054906101000a900464ffffffffff1664ffffffffff1664ffffffffff168152505084838151811061187557611874616b1f565b5b60200260200101819052505b600160ff168160010160039054906101000a900460ff1660ff1611156118c8578060010160039054906101000a900460ff16925081806118c090616b4c565b9250506118d5565b83955050505050506118e0565b5061154c565b505050505b92915050565b5f6118f082614231565b9050919050565b60608167ffffffffffffffff81111561191357611912615756565b5b60405190808252806020026020018201604052801561194c57816020015b61193961539d565b8152602001906001900390816119315790505b5090505f806001600781111561196557611964615be1565b5b85600781111561197857611977615be1565b5b03611a04576119925f600a018860018060ff168a8a6138f2565b91505f600a015f8873ffffffffffffffffffffffffffffffffffffffff1673ffffffffffffffffffffffffffffffffffffffff1681526020019081526020015f205f8361ffff1661ffff1681526020019081526020015f205f01601c9054906101000a900463ffffffff169050611b68565b60026007811115611a1857611a17615be1565b5b856007811115611a2b57611a2a615be1565b5b03611ab757611a455f600b018860018060ff168a8a6138f2565b91505f600b015f8873ffffffffffffffffffffffffffffffffffffffff1673ffffffffffffffffffffffffffffffffffffffff1681526020019081526020015f205f8361ffff1661ffff1681526020019081526020015f205f01601c9054906101000a900463ffffffff169050611b67565b60056007811115611acb57611aca615be1565b5b856007811115611ade57611add615be1565b5b03611b6657611af85f600c018860018060ff168a8a6138f2565b91505f600c015f8873ffffffffffffffffffffffffffffffffffffffff1673ffffffffffffffffffffffffffffffffffffffff1681526020019081526020015f205f8361ffff1661ffff1681526020019081526020015f205f01601c9054906101000a900463ffffffff1690505b5b5b60405180604001604052808361ffff1681526020018263ffffffff16815250835f81518110611b9a57611b99616b1f565b5b60200260200101819052505f600190505b84811015611e305760016007811115611bc757611bc6615be1565b5b866007811115611bda57611bd9615be1565b5b03611c68575f80600a015f8a73ffffffffffffffffffffffffffffffffffffffff1673ffffffffffffffffffffffffffffffffffffffff1681526020019081526020015f205f8561ffff1661ffff1681526020019081526020015f209050805f0160199054906101000a900461ffff169350805f01601c9054906101000a900463ffffffff16925050611dd0565b60026007811115611c7c57611c7b615be1565b5b866007811115611c8f57611c8e615be1565b5b03611d1d575f80600b015f8a73ffffffffffffffffffffffffffffffffffffffff1673ffffffffffffffffffffffffffffffffffffffff1681526020019081526020015f205f8561ffff1661ffff1681526020019081526020015f209050805f0160199054906101000a900461ffff169350805f01601c9054906101000a900463ffffffff16925050611dcf565b60056007811115611d3157611d30615be1565b5b866007811115611d4457611d43615be1565b5b03611dce575f80600c015f8a73ffffffffffffffffffffffffffffffffffffffff1673ffffffffffffffffffffffffffffffffffffffff1681526020019081526020015f205f8561ffff1661ffff1681526020019081526020015f209050805f0160199054906101000a900461ffff169350805f01601c9054906101000a900463ffffffff169250505b5b5b600160ff168361ffff160315611e305760405180604001604052808461ffff1681526020018363ffffffff16815250848281518110611e1257611e11616b1f565b5b60200260200101819052508080611e2890616b4c565b915050611bab565b505050949350505050565b5f600260ff165f600201601c9054906101000a900460ff1660ff1603611e8d576040517f53140ec200000000000000000000000000000000000000000000000000000000815260040160405180910390fd5b5f806008015f8573ffffffffffffffffffffffffffffffffffffffff1673ffffffffffffffffffffffffffffffffffffffff1681526020019081526020015f205f01601f9054906101000a900460ff1660ff1690505f806005015f8381526020019081526020015f205f0160169054906101000a900469ffffffffffffffffffff1669ffffffffffffffffffff1690505f80600d015f8773ffffffffffffffffffffffffffffffffffffffff1673ffffffffffffffffffffffffffffffffffffffff1681526020019081526020015f205f8673ffffffffffffffffffffffffffffffffffffffff1673ffffffffffffffffffffffffffffffffffffffff1681526020019081526020015f205f600160ff1660ff1681526020019081526020015f2060010160039054906101000a900460ff1690505b600115612192575f80600d015f8873ffffffffffffffffffffffffffffffffffffffff1673ffffffffffffffffffffffffffffffffffffffff1681526020019081526020015f205f8773ffffffffffffffffffffffffffffffffffffffff1673ffffffffffffffffffffffffffffffffffffffff1681526020019081526020015f205f8360ff1660ff1681526020019081526020015f2090505f603c82600101600c9054906101000a900463ffffffff1661207b6142ad565b6120859190616bd0565b63ffffffff161190506002808111156120a1576120a0615be1565b5b826001015f9054906101000a900460ff1660028111156120c4576120c3615be1565b5b141580156120cf5750805b1561214b5761213d825f0160169054906101000a900469ffffffffffffffffffff1669ffffffffffffffffffff16856121089190616aec565b835f015f9054906101000a90046affffffffffffffffffffff166affffffffffffffffffffff166142c390919063ffffffff16565b866121489190616c07565b95505b600160ff168260010160039054906101000a900460ff1660ff161115612184578160010160039054906101000a900460ff16925061218b565b5050612192565b5050611fc2565b50505092915050565b6121a36153b9565b600260ff165f600201601c9054906101000a900460ff1660ff16036121f4576040517f53140ec200000000000000000000000000000000000000000000000000000000815260040160405180910390fd5b5f6007015f8481526020019081526020015f205f8373ffffffffffffffffffffffffffffffffffffffff1673ffffffffffffffffffffffffffffffffffffffff1681526020019081526020015f206040518060a00160405290815f82015f9054906101000a90046affffffffffffffffffffff166affffffffffffffffffffff166affffffffffffffffffffff1681526020015f8201600b9054906101000a90046affffffffffffffffffffff166affffffffffffffffffffff166affffffffffffffffffffff1681526020015f820160169054906101000a900469ffffffffffffffffffff1669ffffffffffffffffffff1669ffffffffffffffffffff168152602001600182015f9054906101000a90046affffffffffffffffffffff166affffffffffffffffffffff166affffffffffffffffffffff16815260200160018201600b9054906101000a90046affffffffffffffffffffff166affffffffffffffffffffff166affffffffffffffffffffff1681525050905092915050565b5f600260ff165f600201601c9054906101000a900460ff1660ff16036123c6576040517f53140ec200000000000000000000000000000000000000000000000000000000815260040160405180910390fd5b6123d983836142e390919063ffffffff16565b905092915050565b5f6123eb826134e8565b9050919050565b5f600260ff165f600201601c9054906101000a900460ff1660ff1603612444576040517f53140ec200000000000000000000000000000000000000000000000000000000815260040160405180910390fd5b5f6009015f8473ffffffffffffffffffffffffffffffffffffffff1673ffffffffffffffffffffffffffffffffffffffff1681526020019081526020015f205f8373ffffffffffffffffffffffffffffffffffffffff1673ffffffffffffffffffffffffffffffffffffffff1681526020019081526020015f205f015f9054906101000a90046cffffffffffffffffffffffffff166cffffffffffffffffffffffffff16905092915050565b5f6125075f600a018460018060ff168660016138f2565b905092915050565b612517615423565b600260ff165f600201601c9054906101000a900460ff1660ff1603612568576040517f53140ec200000000000000000000000000000000000000000000000000000000815260040160405180910390fd5b5f6005015f8381526020019081526020015f20604051806101800160405290815f82015f9054906101000a90046affffffffffffffffffffff166affffffffffffffffffffff166affffffffffffffffffffff1681526020015f8201600b9054906101000a90046affffffffffffffffffffff166affffffffffffffffffffff166affffffffffffffffffffff1681526020015f820160169054906101000a900469ffffffffffffffffffff1669ffffffffffffffffffff1669ffffffffffffffffffff168152602001600182015f9054906101000a90046affffffffffffffffffffff166affffffffffffffffffffff166affffffffffffffffffffff16815260200160018201600b9054906101000a900461ffff1661ffff1661ffff16815260200160018201600d9054906101000a900461ffff1661ffff1661ffff16815260200160018201600f9054906101000a900461ffff1661ffff1661ffff1681526020016001820160119054906101000a90046effffffffffffffffffffffffffffff166effffffffffffffffffffffffffffff166effffffffffffffffffffffffffffff168152602001600282015f9054906101000a90046fffffffffffffffffffffffffffffffff166fffffffffffffffffffffffffffffffff166fffffffffffffffffffffffffffffffff1681526020016002820160109054906101000a90046bffffffffffffffffffffffff166bffffffffffffffffffffffff166bffffffffffffffffffffffff16815260200160028201601c9054906101000a900461ffff1661ffff1661ffff16815260200160028201601e9054906101000a900461ffff1661ffff1661ffff16815250509050919050565b6060600260ff165f600201601c9054906101000a900460ff1660ff1603612833576040517f53140ec200000000000000000000000000000000000000000000000000000000815260040160405180910390fd5b612849825f600a01613a8e90919063ffffffff16565b9050919050565b5f600260ff165f600201601c9054906101000a900460ff1660ff16036128a2576040517f53140ec200000000000000000000000000000000000000000000000000000000815260040160405180910390fd5b5f806007015f8581526020019081526020015f205f8473ffffffffffffffffffffffffffffffffffffffff1673ffffffffffffffffffffffffffffffffffffffff1681526020019081526020015f205f01600b9054906101000a90046affffffffffffffffffffff166affffffffffffffffffffff1690506001811161292b575f915050612a58565b6001816129389190616aec565b90505f806005015f8681526020019081526020015f2090505f6201518061295d6142ad565b6129679190616c67565b63ffffffff1690505f82600201601e9054906101000a900461ffff1661ffff16826129929190616aec565b90505f6129be6129a18961433a565b62015180846129b09190616c97565b613ff990919063ffffffff16565b8460020160109054906101000a90046bffffffffffffffffffffffff166bffffffffffffffffffffffff166129f39190616c07565b90505f846002015f9054906101000a90046fffffffffffffffffffffffffffffffff166fffffffffffffffffffffffffffffffff169050612a4f81612a418489613ff990919063ffffffff16565b61439690919063ffffffff16565b96505050505050505b92915050565b6060600260ff165f600201601c9054906101000a900460ff1660ff1603612ab1576040517f53140ec200000000000000000000000000000000000000000000000000000000815260040160405180910390fd5b612ac7825f600c01613a8e90919063ffffffff16565b9050919050565b5f600260ff165f600201601c9054906101000a900460ff1660ff1603612b20576040517f53140ec200000000000000000000000000000000000000000000000000000000815260040160405180910390fd5b5f6005015f8381526020019081526020015f205f01600b9054906101000a90046affffffffffffffffffffff166affffffffffffffffffffff16612b63836143b2565b612b6d9190616aec565b9050919050565b5f600260ff165f600201601c9054906101000a900460ff1660ff1603612bc6576040517f53140ec200000000000000000000000000000000000000000000000000000000815260040160405180910390fd5b612bd08383614035565b905092915050565b612be06154f0565b600260ff165f600201601c9054906101000a900460ff1660ff1603612c31576040517f53140ec200000000000000000000000000000000000000000000000000000000815260040160405180910390fd5b5f6009015f8473ffffffffffffffffffffffffffffffffffffffff1673ffffffffffffffffffffffffffffffffffffffff1681526020019081526020015f205f8373ffffffffffffffffffffffffffffffffffffffff1673ffffffffffffffffffffffffffffffffffffffff1681526020019081526020015f20604051806101400160405290815f82015f9054906101000a90046cffffffffffffffffffffffffff166cffffffffffffffffffffffffff166cffffffffffffffffffffffffff1681526020015f8201600d9054906101000a900466ffffffffffffff1666ffffffffffffff1666ffffffffffffff1681526020015f820160149054906101000a900460ff1660ff1660ff1681526020015f820160159054906101000a900469ffffffffffffffffffff1669ffffffffffffffffffff1669ffffffffffffffffffff1681526020015f8201601f9054906101000a900460ff1660ff1660ff168152602001600182015f9054906101000a900473ffffffffffffffffffffffffffffffffffffffff1673ffffffffffffffffffffffffffffffffffffffff1673ffffffffffffffffffffffffffffffffffffffff1681526020016001820160149054906101000a900463ffffffff1663ffffffff1663ffffffff1681526020016001820160189054906101000a900463ffffffff1663ffffffff1663ffffffff16815260200160018201601c9054906101000a900460ff1660ff1660ff16815260200160018201601d9054906101000a900462ffffff1662ffffff1662ffffff1681525050905092915050565b5f612e856142ad565b63ffffffff16905090565b5f612e9a826144ae565b9050919050565b5f612eb85f600b018460018060ff168660026138f2565b905092915050565b5f612710670de0b6b3a76400005f6005015f8581526020019081526020015f20600101600f9054906101000a900461ffff165f6005015f8681526020019081526020015f20600101600b9054906101000a900461ffff16612f219190616cd8565b61ffff16612f2f9190616c97565b612f399190616d0d565b9050919050565b6060600260ff165f600201601c9054906101000a900460ff1660ff1603612f93576040517f53140ec200000000000000000000000000000000000000000000000000000000815260040160405180910390fd5b612fa9825f600b01613a8e90919063ffffffff16565b9050919050565b612fb86152fc565b600260ff165f600201601c9054906101000a900460ff1660ff1603613009576040517f53140ec200000000000000000000000000000000000000000000000000000000815260040160405180910390fd5b5f600d015f8573ffffffffffffffffffffffffffffffffffffffff1673ffffffffffffffffffffffffffffffffffffffff1681526020019081526020015f205f8473ffffffffffffffffffffffffffffffffffffffff1673ffffffffffffffffffffffffffffffffffffffff1681526020019081526020015f205f8360ff1660ff1681526020019081526020015f20604051806101400160405290815f82015f9054906101000a90046affffffffffffffffffffff166affffffffffffffffffffff166affffffffffffffffffffff1681526020015f8201600b9054906101000a90046affffffffffffffffffffff166affffffffffffffffffffff166affffffffffffffffffffff1681526020015f820160169054906101000a900469ffffffffffffffffffff1669ffffffffffffffffffff1669ffffffffffffffffffff168152602001600182015f9054906101000a900460ff16600281111561317257613171615be1565b5b600281111561318457613183615be1565b5b81526020016001820160019054906101000a900460ff1660ff1660ff1681526020016001820160029054906101000a900460ff1660ff1660ff1681526020016001820160039054906101000a900460ff1660ff1660ff1681526020016001820160049054906101000a900467ffffffffffffffff1667ffffffffffffffff1667ffffffffffffffff16815260200160018201600c9054906101000a900463ffffffff1663ffffffff1663ffffffff1681526020016001820160109054906101000a900464ffffffffff1664ffffffffff1664ffffffffff168152505090509392505050565b60605f613282855f600c01613a8e90919063ffffffff16565b9050825167ffffffffffffffff81111561329f5761329e615756565b5b6040519080825280602002602001820160405280156132cd5781602001602082028036833780820191505090505b5091505f5b83518110156133fb575f8482815181106132ef576132ee616b1f565b5b602002602001015160ff1690505f5b83518110156133e6578673ffffffffffffffffffffffffffffffffffffffff1684828151811061333157613330616b1f565b5b602002602001015160e0015173ffffffffffffffffffffffffffffffffffffffff1614801561338557508161ffff1684828151811061337357613372616b1f565b5b6020026020010151610140015160ff16145b156133d35783818151811061339d5761339c616b1f565b5b6020026020010151606001518584815181106133bc576133bb616b1f565b5b602002602001019061ffff16908161ffff16815250505b80806133de90616b4c565b9150506132fe565b505080806133f390616b4c565b9150506132d2565b50509392505050565b61340c61558d565b600260ff165f600201601c9054906101000a900460ff1660ff160361345d576040517f53140ec200000000000000000000000000000000000000000000000000000000815260040160405180910390fd5b5f6004015f8373ffffffffffffffffffffffffffffffffffffffff1673ffffffffffffffffffffffffffffffffffffffff1681526020019081526020015f206040518060400160405290815f82015f9054906101000a900460ff1660ff1660ff1681526020015f820160019054906101000a900461ffff1661ffff1661ffff16815250509050919050565b5f806134f2614531565b90505f816002015f9054906101000a900473ffffffffffffffffffffffffffffffffffffffff1690505f61352585613f76565b69ffffffffffffffffffff1690505f836008015f8773ffffffffffffffffffffffffffffffffffffffff1673ffffffffffffffffffffffffffffffffffffffff1681526020019081526020015f206002015f9054906101000a900473ffffffffffffffffffffffffffffffffffffffff1690505f73ffffffffffffffffffffffffffffffffffffffff168173ffffffffffffffffffffffffffffffffffffffff16036135fd576040517fc891add200000000000000000000000000000000000000000000000000000000815260040160405180910390fd5b8273ffffffffffffffffffffffffffffffffffffffff1663feaf968c6040518163ffffffff1660e01b815260040160a060405180830381865afa92505050801561366557506040513d601f19601f820116820180604052508101906136629190616d98565b60015b6137c2578273ffffffffffffffffffffffffffffffffffffffff168173ffffffffffffffffffffffffffffffffffffffff16036136af576136a4614535565b9450505050506138ed565b5f805f8373ffffffffffffffffffffffffffffffffffffffff1663feaf968c6040518163ffffffff1660e01b815260040160a060405180830381865afa1580156136fb573d5f803e3d5ffd5b505050506040513d601f19601f8201168201806040525081019061371f9190616d98565b50935050925092505f8369ffffffffffffffffffff16148061374057505f82145b8061374a57504281115b15613780576040517ebfc92100000000000000000000000000000000000000000000000000000000815260040160405180910390fd5b5f613789614535565b90505f6137af826402540be400866137a19190616e0f565b613ff990919063ffffffff16565b90508099505050505050505050506138ed565b8773ffffffffffffffffffffffffffffffffffffffff168673ffffffffffffffffffffffffffffffffffffffff1603613840575f808513613803575f61381d565b61381c6402540be400866138179190616e0f565b614717565b5b905061382c888787868561473f565b9050809a50505050505050505050506138ed565b5f805f8873ffffffffffffffffffffffffffffffffffffffff1663feaf968c6040518163ffffffff1660e01b815260040160a060405180830381865afa15801561388c573d5f803e3d5ffd5b505050506040513d601f19601f820116820180604052508101906138b09190616d98565b50935050925092505f6138cc888461439690919063ffffffff16565b90506138dc848a858b868b6149f3565b809d50505050505050505050505050505b919050565b5f5b600115613a20575f875f8873ffffffffffffffffffffffffffffffffffffffff1673ffffffffffffffffffffffffffffffffffffffff1681526020019081526020015f205f8661ffff1661ffff1681526020019081526020015f205f0160199054906101000a900461ffff1690505f613971898988888689614a99565b0361397f5784915050613a21565b7fffffffffffffffffffffffffffffffffffffffffffffffffffffffffffffffff8603613a16575f885f8973ffffffffffffffffffffffffffffffffffffffff1673ffffffffffffffffffffffffffffffffffffffff1681526020019081526020015f205f8761ffff1661ffff1681526020019081526020015f205f0160159054906101000a900461ffff16905080955050613a1a565b8094505b506138f4565b5b9695505050505050565b5f613a86613a67613a3b84613f76565b69ffffffffffffffffffff1685602001516affffffffffffffffffffff166142c390919063ffffffff16565b845f01516affffffffffffffffffffff1661400c90919063ffffffff16565b905092915050565b60605f835f8473ffffffffffffffffffffffffffffffffffffffff1673ffffffffffffffffffffffffffffffffffffffff1681526020019081526020015f205f600160ff1661ffff1681526020019081526020015f205f0160199054906101000a900461ffff1690505f5b600160ff168261ffff1614613b81578080613b1390616b4c565b915050845f8573ffffffffffffffffffffffffffffffffffffffff1673ffffffffffffffffffffffffffffffffffffffff1681526020019081526020015f205f8361ffff1661ffff1681526020019081526020015f205f0160199054906101000a900461ffff169150613af9565b5f8167ffffffffffffffff811115613b9c57613b9b615756565b5b604051908082528060200260200182016040528015613bd557816020015b613bc26155ac565b815260200190600190039081613bba5790505b509050855f8673ffffffffffffffffffffffffffffffffffffffff1673ffffffffffffffffffffffffffffffffffffffff1681526020019081526020015f205f600160ff1661ffff1681526020019081526020015f205f0160199054906101000a900461ffff1692505f5b82811015613f6957865f8773ffffffffffffffffffffffffffffffffffffffff1673ffffffffffffffffffffffffffffffffffffffff1681526020019081526020015f205f8561ffff1661ffff1681526020019081526020015f20604051806101800160405290815f82015f9054906101000a90046affffffffffffffffffffff166affffffffffffffffffffff166affffffffffffffffffffff1681526020015f8201600b9054906101000a900469ffffffffffffffffffff1669ffffffffffffffffffff1669ffffffffffffffffffff1681526020015f820160159054906101000a900461ffff1661ffff1661ffff1681526020015f820160179054906101000a900461ffff1661ffff1661ffff1681526020015f820160199054906101000a900461ffff1661ffff1661ffff1681526020015f8201601b9054906101000a900460ff166007811115613d9857613d97615be1565b5b6007811115613daa57613da9615be1565b5b81526020015f8201601c9054906101000a900463ffffffff1663ffffffff1663ffffffff168152602001600182015f9054906101000a900473ffffffffffffffffffffffffffffffffffffffff1673ffffffffffffffffffffffffffffffffffffffff1673ffffffffffffffffffffffffffffffffffffffff1681526020016001820160149054906101000a900460ff166007811115613e4d57613e4c615be1565b5b6007811115613e5f57613e5e615be1565b5b81526020016001820160159054906101000a900461ffff1661ffff1661ffff1681526020016001820160179054906101000a900460ff1660ff1660ff1681526020016001820160189054906101000a900467ffffffffffffffff1667ffffffffffffffff1667ffffffffffffffff1681525050828281518110613ee557613ee4616b1f565b5b6020026020010181905250865f8773ffffffffffffffffffffffffffffffffffffffff1673ffffffffffffffffffffffffffffffffffffffff1681526020019081526020015f205f8561ffff1661ffff1681526020019081526020015f205f0160199054906101000a900461ffff1693508080613f6190616b4c565b915050613c40565b5080935050505092915050565b5f80613f80614531565b905080600a015f8473ffffffffffffffffffffffffffffffffffffffff1673ffffffffffffffffffffffffffffffffffffffff1681526020019081526020015f205f600160ff1661ffff1681526020019081526020015f205f015f9054906101000a90046affffffffffffffffffffff16915050919050565b5f6140048383614b5f565b905092915050565b5f61402d836affffffffffffffffffffff16670de0b6b3a764000084614c44565b905092915050565b5f8061403f614531565b90505f81600d015f8673ffffffffffffffffffffffffffffffffffffffff1673ffffffffffffffffffffffffffffffffffffffff1681526020019081526020015f205f8573ffffffffffffffffffffffffffffffffffffffff1673ffffffffffffffffffffffffffffffffffffffff1681526020019081526020015f205f600160ff1660ff1681526020019081526020015f2060010160039054906101000a900460ff169050600160ff168160ff16116140fd575f9250505061422b565b5b600115614228575f82600d015f8773ffffffffffffffffffffffffffffffffffffffff1673ffffffffffffffffffffffffffffffffffffffff1681526020019081526020015f205f8673ffffffffffffffffffffffffffffffffffffffff1673ffffffffffffffffffffffffffffffffffffffff1681526020019081526020015f205f8360ff1660ff1681526020019081526020015f2090506002808111156141aa576141a9615be1565b5b816001015f9054906101000a900460ff1660028111156141cd576141cc615be1565b5b146141e15783806141dd90616b4c565b9450505b600160ff168160010160039054906101000a900460ff1660ff16111561421a578060010160039054906101000a900460ff169150614222565b50505061422b565b506140fe565b50505b92915050565b5f8061423b614531565b9050670de0b6b3a7640000816008015f8573ffffffffffffffffffffffffffffffffffffffff1673ffffffffffffffffffffffffffffffffffffffff1681526020019081526020015f2060010160029054906101000a900461ffff1661ffff166142a59190616c97565b915050919050565b5f6362f6fc65426142be9190616aec565b905090565b5f6142db836affffffffffffffffffffff1683614b5f565b905092915050565b5f6143326143136142f384614d56565b85602001516affffffffffffffffffffff166142c390919063ffffffff16565b845f01516affffffffffffffffffffff1661400c90919063ffffffff16565b905092915050565b5f80614344614531565b90506064670de0b6b3a7640000826005015f8681526020019081526020015f20600201601c9054906101000a900461ffff1661ffff166143849190616c97565b61438e9190616d0d565b915050919050565b5f6143aa83670de0b6b3a764000084614c44565b905092915050565b5f806143bc614531565b90505f816006015f8581526020019081526020015f2090505f818054905090505f5b818110156144a5578281815481106143f9576143f8616b1f565b5b905f5260205f20015f9054906101000a900473ffffffffffffffffffffffffffffffffffffffff1673ffffffffffffffffffffffffffffffffffffffff16631e70f1956040518163ffffffff1660e01b8152600401602060405180830381865afa158015614469573d5f803e3d5ffd5b505050506040513d601f19601f8201168201806040525081019061448d9190616e85565b856144989190616c07565b94508060010190506143de565b50505050919050565b5f806144b8614531565b905080600a015f8473ffffffffffffffffffffffffffffffffffffffff1673ffffffffffffffffffffffffffffffffffffffff1681526020019081526020015f205f600160ff1661ffff1681526020019081526020015f205f01601c9054906101000a900463ffffffff1663ffffffff16915050919050565b5f90565b5f803073ffffffffffffffffffffffffffffffffffffffff16630b545214670de0b6b3a76400006107086040518363ffffffff1660e01b815260040161457c929190616f01565b602060405180830381865afa158015614597573d5f803e3d5ffd5b505050506040513d601f19601f820116820180604052508101906145bb9190616e85565b90505f81036145f6576040517fca91730a00000000000000000000000000000000000000000000000000000000815260040160405180910390fd5b5f73c02aaa39b223fe8d0a0e5c4f27ead9083c756cc290505f8173ffffffffffffffffffffffffffffffffffffffff166370a082317388e6a0c2ddd26feeb64f039a2c41296fcb3f56406040518263ffffffff1660e01b815260040161465c9190616f37565b602060405180830381865afa158015614677573d5f803e3d5ffd5b505050506040513d601f19601f8201168201806040525081019061469b9190616e85565b905068056bc75e2d631000008110156146e0576040517f05f4eec200000000000000000000000000000000000000000000000000000000815260040160405180910390fd5b5f620f4240670de0b6b3a76400006146f89190616d0d565b846147039190616c97565b905061470e81614717565b94505050505090565b5f816ec097ce7bc90715b34b9f10000000008161473757614736616c3a565b5b049050919050565b5f805f8669ffffffffffffffffffff16148061475a57505f84145b8061476457504284115b8061476f57505f8513155b80614786575083611c206147839190616c07565b42115b90505f8784116147a157838861479c9190616aec565b6147ae565b87846147ad9190616aec565b5b90505f80891180156147d957506706f05b59d3b200006147d78a8461439690919063ffffffff16565b115b905082156147f3576147e9614535565b93505050506149ea565b80156149e3573073ffffffffffffffffffffffffffffffffffffffff16630b545214670de0b6b3a76400006107086040518363ffffffff1660e01b815260040161483e929190616f01565b602060405180830381865afa92505050801561487857506040513d601f19601f820116820180604052508101906148759190616e85565b60015b614887578493505050506149ea565b5f810361489a57859450505050506149ea565b5f620f4240670de0b6b3a76400006148b29190616d0d565b826148bd9190616c97565b90505f6148c982614717565b90505f8c82116148e457818d6148df9190616aec565b6148f1565b8c826148f09190616aec565b5b905080861161490957889750505050505050506149ea565b5f73c02aaa39b223fe8d0a0e5c4f27ead9083c756cc290505f8173ffffffffffffffffffffffffffffffffffffffff166370a082317388e6a0c2ddd26feeb64f039a2c41296fcb3f56406040518263ffffffff1660e01b815260040161496f9190616f37565b602060405180830381865afa15801561498a573d5f803e3d5ffd5b505050506040513d601f19601f820116820180604052508101906149ae9190616e85565b905068056bc75e2d631000008110156149d2578a99505050505050505050506149ea565b8399505050505050505050506149ea565b8493505050505b95945050505050565b5f808769ffffffffffffffffffff161480614a0d57505f83145b80614a1757504283115b80614a2257505f8513155b80614a3857505f8669ffffffffffffffffffff16145b80614a4257505f82145b80614a4c57504282115b80614a5757505f8413155b90508015614a90576040517ebfc92100000000000000000000000000000000000000000000000000000000815260040160405180910390fd5b50505050505050565b5f614aa382614dae565b915060026007811115614ab957614ab8615be1565b5b826007811115614acc57614acb615be1565b5b1480614afc575060056007811115614ae757614ae6615be1565b5b826007811115614afa57614af9615be1565b5b145b15614b1557614b0e8787878787614eb4565b9050614b55565b60016007811115614b2957614b28615be1565b5b826007811115614b3c57614b3b615be1565b5b03614b5457614b4d86868686615038565b9050614b55565b5b9695505050505050565b5f805f80198486098486029250828110838203039150505f8103614b9f57670de0b6b3a76400008281614b9557614b94616c3a565b5b0492505050614c3e565b670de0b6b3a76400008110614bed5784846040517f5173648d000000000000000000000000000000000000000000000000000000008152600401614be4929190616f50565b60405180910390fd5b5f670de0b6b3a764000085870990507faccb18165bd6fe31ae1cf318dc5b51eee0e1ba569b88cd74c1773b91fac10669600162040000805f0304018483118403026204000083860304170293505050505b92915050565b5f805f80198587098587029250828110838203039150505f8103614c7c57838281614c7257614c71616c3a565b5b0492505050614d4f565b838110614cc4578585856040517f63a05778000000000000000000000000000000000000000000000000000000008152600401614cbb93929190616f77565b60405180910390fd5b5f8486880990508281118203915080830392505f6001861901861690505f81870496508185049450600182835f0304019050808402851794505f60028860030218905080880260020381029050808802600203810290508088026002038102905080880260020381029050808802600203810290508088026002038102905080860296505050505050505b9392505050565b5f610384614d63836144ae565b614d6b6142ad565b63ffffffff16614d7b9190616aec565b1015614d9d57614d8a82613f76565b69ffffffffffffffffffff169050614da9565b614da6826134e8565b90505b919050565b5f60016007811115614dc357614dc2615be1565b5b826007811115614dd657614dd5615be1565b5b1480614e06575060036007811115614df157614df0615be1565b5b826007811115614e0457614e03615be1565b5b145b15614e145760019050614eaf565b60026007811115614e2857614e27615be1565b5b826007811115614e3b57614e3a615be1565b5b1480614e6b575060046007811115614e5657614e55615be1565b5b826007811115614e6957614e68615be1565b5b145b15614e795760029050614eaf565b60056007811115614e8d57614e8c615be1565b5b826007811115614ea057614e9f615be1565b5b03614eae5760059050614eaf565b5b919050565b5f8083875f8873ffffffffffffffffffffffffffffffffffffffff1673ffffffffffffffffffffffffffffffffffffffff1681526020019081526020015f205f8761ffff1661ffff1681526020019081526020015f205f01600b9054906101000a900469ffffffffffffffffffff1669ffffffffffffffffffff16111580614f435750600160ff168561ffff16145b90505f875f8873ffffffffffffffffffffffffffffffffffffffff1673ffffffffffffffffffffffffffffffffffffffff1681526020019081526020015f205f8561ffff1661ffff1681526020019081526020015f205f01600b9054906101000a900469ffffffffffffffffffff1669ffffffffffffffffffff16851080614fd25750600160ff168461ffff16145b9050818015614fde5750805b15614fed575f9250505061502f565b8161501c577fffffffffffffffffffffffffffffffffffffffffffffffffffffffffffffffff9250505061502f565b8061502c5760019250505061502f565b50505b95945050505050565b5f80615042614531565b90505f8482600a015f8973ffffffffffffffffffffffffffffffffffffffff1673ffffffffffffffffffffffffffffffffffffffff1681526020019081526020015f205f8861ffff1661ffff1681526020019081526020015f205f01600b9054906101000a900469ffffffffffffffffffff1669ffffffffffffffffffff161015806150d55750600160ff168661ffff16145b90505f82600a015f8973ffffffffffffffffffffffffffffffffffffffff1673ffffffffffffffffffffffffffffffffffffffff1681526020019081526020015f205f8661ffff1661ffff1681526020019081526020015f205f01600b9054906101000a900469ffffffffffffffffffff1669ffffffffffffffffffff168611806151675750600160ff168561ffff16145b90508180156151735750805b15615183575f93505050506151c8565b816151b3577fffffffffffffffffffffffffffffffffffffffffffffffffffffffffffffffff93505050506151c8565b806151c457600193505050506151c8565b5050505b949350505050565b604051806102c001604052805f6cffffffffffffffffffffffffff1681526020015f6affffffffffffffffffffff1681526020015f61ffff1681526020015f61ffff1681526020015f61ffff1681526020015f600181111561523557615234615be1565b5b81526020015f60ff1681526020015f60ff1681526020015f60ff1681526020015f61ffff1681526020015f60ff1681526020015f60ff1681526020015f60ff1681526020015f60ff1681526020015f60ff1681526020015f67ffffffffffffffff1681526020015f61ffff1681526020015f60ff1681526020015f63ffffffff1681526020015f67ffffffffffffffff1681526020015f73ffffffffffffffffffffffffffffffffffffffff1681526020015f6bffffffffffffffffffffffff1681525090565b6040518061014001604052805f6affffffffffffffffffffff1681526020015f6affffffffffffffffffffff1681526020015f69ffffffffffffffffffff1681526020015f600281111561535357615352615be1565b5b81526020015f60ff1681526020015f60ff1681526020015f60ff1681526020015f67ffffffffffffffff1681526020015f63ffffffff1681526020015f64ffffffffff1681525090565b60405180604001604052805f61ffff1681526020015f81525090565b6040518060a001604052805f6affffffffffffffffffffff1681526020015f6affffffffffffffffffffff1681526020015f69ffffffffffffffffffff1681526020015f6affffffffffffffffffffff1681526020015f6affffffffffffffffffffff1681525090565b6040518061018001604052805f6affffffffffffffffffffff1681526020015f6affffffffffffffffffffff1681526020015f69ffffffffffffffffffff1681526020015f6affffffffffffffffffffff1681526020015f61ffff1681526020015f61ffff1681526020015f61ffff1681526020015f6effffffffffffffffffffffffffffff1681526020015f6fffffffffffffffffffffffffffffffff1681526020015f6bffffffffffffffffffffffff1681526020015f61ffff1681526020015f61ffff1681525090565b6040518061014001604052805f6cffffffffffffffffffffffffff1681526020015f66ffffffffffffff1681526020015f60ff1681526020015f69ffffffffffffffffffff1681526020015f60ff1681526020015f73ffffffffffffffffffffffffffffffffffffffff1681526020015f63ffffffff1681526020015f63ffffffff1681526020015f60ff1681526020015f62ffffff1681525090565b60405180604001604052805f60ff1681526020015f61ffff1681525090565b6040518061018001604052805f6affffffffffffffffffffff1681526020015f69ffffffffffffffffffff1681526020015f61ffff1681526020015f61ffff1681526020015f61ffff1681526020015f600781111561560e5761560d615be1565b5b81526020015f63ffffffff1681526020015f73ffffffffffffffffffffffffffffffffffffffff1681526020015f600781111561564e5761564d615be1565b5b81526020015f61ffff1681526020015f60ff1681526020015f67ffffffffffffffff1681525090565b5f604051905090565b5f80fd5b5f80fd5b5f73ffffffffffffffffffffffffffffffffffffffff82169050919050565b5f6156b182615688565b9050919050565b6156c1816156a7565b81146156cb575f80fd5b50565b5f813590506156dc816156b8565b92915050565b5f602082840312156156f7576156f6615680565b5b5f615704848285016156ce565b91505092915050565b5f61ffff82169050919050565b6157238161570d565b82525050565b5f60208201905061573c5f83018461571a565b92915050565b5f80fd5b5f601f19601f8301169050919050565b7f4e487b71000000000000000000000000000000000000000000000000000000005f52604160045260245ffd5b61578c82615746565b810181811067ffffffffffffffff821117156157ab576157aa615756565b5b80604052505050565b5f6157bd615677565b90506157c98282615783565b919050565b5f6affffffffffffffffffffff82169050919050565b6157ed816157ce565b81146157f7575f80fd5b50565b5f81359050615808816157e4565b92915050565b5f69ffffffffffffffffffff82169050919050565b61582c8161580e565b8114615836575f80fd5b50565b5f8135905061584781615823565b92915050565b60038110615859575f80fd5b50565b5f8135905061586a8161584d565b92915050565b5f60ff82169050919050565b61588581615870565b811461588f575f80fd5b50565b5f813590506158a08161587c565b92915050565b5f67ffffffffffffffff82169050919050565b6158c2816158a6565b81146158cc575f80fd5b50565b5f813590506158dd816158b9565b92915050565b5f63ffffffff82169050919050565b6158fb816158e3565b8114615905575f80fd5b50565b5f81359050615916816158f2565b92915050565b5f64ffffffffff82169050919050565b6159358161591c565b811461593f575f80fd5b50565b5f813590506159508161592c565b92915050565b5f610140828403121561596c5761596b615742565b5b6159776101406157b4565b90505f615986848285016157fa565b5f830152506020615999848285016157fa565b60208301525060406159ad84828501615839565b60408301525060606159c18482850161585c565b60608301525060806159d584828501615892565b60808301525060a06159e984828501615892565b60a08301525060c06159fd84828501615892565b60c08301525060e0615a11848285016158cf565b60e083015250610100615a2684828501615908565b61010083015250610120615a3c84828501615942565b6101208301525092915050565b5f806101608385031215615a6057615a5f615680565b5b5f615a6d858286016156ce565b9250506020615a7e85828601615956565b9150509250929050565b5f819050919050565b615a9a81615a88565b82525050565b5f602082019050615ab35f830184615a91565b92915050565b5f805f60608486031215615ad057615acf615680565b5b5f615add868287016156ce565b9350506020615aee868287016156ce565b9250506040615aff86828701615892565b9150509250925092565b615b1281615a88565b8114615b1c575f80fd5b50565b5f81359050615b2d81615b09565b92915050565b5f8060408385031215615b4957615b48615680565b5b5f615b5685828601615b1f565b9250506020615b67858286016156ce565b9150509250929050565b5f60208284031215615b8657615b85615680565b5b5f615b9384828501615b1f565b91505092915050565b5f6cffffffffffffffffffffffffff82169050919050565b615bbd81615b9c565b82525050565b615bcc816157ce565b82525050565b615bdb8161570d565b82525050565b7f4e487b71000000000000000000000000000000000000000000000000000000005f52602160045260245ffd5b60028110615c1f57615c1e615be1565b5b50565b5f819050615c2f82615c0e565b919050565b5f615c3e82615c22565b9050919050565b615c4e81615c34565b82525050565b615c5d81615870565b82525050565b615c6c816158a6565b82525050565b615c7b816158e3565b82525050565b615c8a816156a7565b82525050565b5f6bffffffffffffffffffffffff82169050919050565b615cb081615c90565b82525050565b6102c082015f820151615ccb5f850182615bb4565b506020820151615cde6020850182615bc3565b506040820151615cf16040850182615bd2565b506060820151615d046060850182615bd2565b506080820151615d176080850182615bd2565b5060a0820151615d2a60a0850182615c45565b5060c0820151615d3d60c0850182615c54565b5060e0820151615d5060e0850182615c54565b50610100820151615d65610100850182615c54565b50610120820151615d7a610120850182615bd2565b50610140820151615d8f610140850182615c54565b50610160820151615da4610160850182615c54565b50610180820151615db9610180850182615c54565b506101a0820151615dce6101a0850182615c54565b506101c0820151615de36101c0850182615c54565b506101e0820151615df86101e0850182615c63565b50610200820151615e0d610200850182615bd2565b50610220820151615e22610220850182615c54565b50610240820151615e37610240850182615c72565b50610260820151615e4c610260850182615c63565b50610280820151615e61610280850182615c81565b506102a0820151615e766102a0850182615ca7565b50505050565b5f6102c082019050615e905f830184615cb6565b92915050565b5f8060408385031215615eac57615eab615680565b5b5f615eb9858286016156ce565b9250506020615eca85828601615b1f565b9150509250929050565b5f8060408385031215615eea57615ee9615680565b5b5f615ef7858286016156ce565b9250506020615f08858286016156ce565b9150509250929050565b5f81519050919050565b5f82825260208201905092915050565b5f819050602082019050919050565b615f448161580e565b82525050565b60038110615f5b57615f5a615be1565b5b50565b5f819050615f6b82615f4a565b919050565b5f615f7a82615f5e565b9050919050565b615f8a81615f70565b82525050565b615f998161591c565b82525050565b61014082015f820151615fb45f850182615bc3565b506020820151615fc76020850182615bc3565b506040820151615fda6040850182615f3b565b506060820151615fed6060850182615f81565b5060808201516160006080850182615c54565b5060a082015161601360a0850182615c54565b5060c082015161602660c0850182615c54565b5060e082015161603960e0850182615c63565b5061010082015161604e610100850182615c72565b50610120820151616063610120850182615f90565b50505050565b5f6160748383615f9f565b6101408301905092915050565b5f602082019050919050565b5f61609782615f12565b6160a18185615f1c565b93506160ac83615f2c565b805f5b838110156160dc5781516160c38882616069565b97506160ce83616081565b9250506001810190506160af565b5085935050505092915050565b5f6020820190508181035f830152616101818461608d565b905092915050565b60088110616115575f80fd5b50565b5f8135905061612681616109565b92915050565b5f805f806080858703121561614457616143615680565b5b5f616151878288016156ce565b945050602061616287828801615b1f565b935050604061617387828801616118565b925050606061618487828801615b1f565b91505092959194509250565b5f81519050919050565b5f82825260208201905092915050565b5f819050602082019050919050565b6161c281615a88565b82525050565b604082015f8201516161dc5f850182615bd2565b5060208201516161ef60208501826161b9565b50505050565b5f61620083836161c8565b60408301905092915050565b5f602082019050919050565b5f61622282616190565b61622c818561619a565b9350616237836161aa565b805f5b8381101561626757815161624e88826161f5565b97506162598361620c565b92505060018101905061623a565b5085935050505092915050565b5f6020820190508181035f83015261628c8184616218565b905092915050565b60a082015f8201516162a85f850182615bc3565b5060208201516162bb6020850182615bc3565b5060408201516162ce6040850182615f3b565b5060608201516162e16060850182615bc3565b5060808201516162f46080850182615bc3565b50505050565b5f60a08201905061630d5f830184616294565b92915050565b5f6effffffffffffffffffffffffffffff82169050919050565b61633681616313565b82525050565b5f6fffffffffffffffffffffffffffffffff82169050919050565b6163608161633c565b82525050565b61018082015f82015161637b5f850182615bc3565b50602082015161638e6020850182615bc3565b5060408201516163a16040850182615f3b565b5060608201516163b46060850182615bc3565b5060808201516163c76080850182615bd2565b5060a08201516163da60a0850182615bd2565b5060c08201516163ed60c0850182615bd2565b5060e082015161640060e085018261632d565b50610100820151616415610100850182616357565b5061012082015161642a610120850182615ca7565b5061014082015161643f610140850182615bd2565b50610160820151616454610160850182615bd2565b50505050565b5f6101808201905061646e5f830184616366565b92915050565b5f81519050919050565b5f82825260208201905092915050565b5f819050602082019050919050565b600881106164ae576164ad615be1565b5b50565b5f8190506164be8261649d565b919050565b5f6164cd826164b1565b9050919050565b6164dd816164c3565b82525050565b61018082015f8201516164f85f850182615bc3565b50602082015161650b6020850182615f3b565b50604082015161651e6040850182615bd2565b5060608201516165316060850182615bd2565b5060808201516165446080850182615bd2565b5060a082015161655760a08501826164d4565b5060c082015161656a60c0850182615c72565b5060e082015161657d60e0850182615c81565b506101008201516165926101008501826164d4565b506101208201516165a7610120850182615bd2565b506101408201516165bc610140850182615c54565b506101608201516165d1610160850182615c63565b50505050565b5f6165e283836164e3565b6101808301905092915050565b5f602082019050919050565b5f61660582616474565b61660f818561647e565b935061661a8361648e565b805f5b8381101561664a57815161663188826165d7565b975061663c836165ef565b92505060018101905061661d565b5085935050505092915050565b5f6020820190508181035f83015261666f81846165fb565b905092915050565b5f66ffffffffffffff82169050919050565b61669281616677565b82525050565b5f62ffffff82169050919050565b6166af81616698565b82525050565b61014082015f8201516166ca5f850182615bb4565b5060208201516166dd6020850182616689565b5060408201516166f06040850182615c54565b5060608201516167036060850182615f3b565b5060808201516167166080850182615c54565b5060a082015161672960a0850182615c81565b5060c082015161673c60c0850182615c72565b5060e082015161674f60e0850182615c72565b50610100820151616764610100850182615c54565b506101208201516167796101208501826166a6565b50505050565b5f610140820190506167935f8301846166b5565b92915050565b61014082015f8201516167ae5f850182615bc3565b5060208201516167c16020850182615bc3565b5060408201516167d46040850182615f3b565b5060608201516167e76060850182615f81565b5060808201516167fa6080850182615c54565b5060a082015161680d60a0850182615c54565b5060c082015161682060c0850182615c54565b5060e082015161683360e0850182615c63565b50610100820151616848610100850182615c72565b5061012082015161685d610120850182615f90565b50505050565b5f610140820190506168775f830184616799565b92915050565b5f80fd5b5f67ffffffffffffffff82111561689b5761689a615756565b5b602082029050602081019050919050565b5f80fd5b5f6168c26168bd84616881565b6157b4565b905080838252602082019050602084028301858111156168e5576168e46168ac565b5b835b8181101561690e57806168fa8882615892565b8452602084019350506020810190506168e7565b5050509392505050565b5f82601f83011261692c5761692b61687d565b5b813561693c8482602086016168b0565b91505092915050565b5f805f6060848603121561695c5761695b615680565b5b5f616969868287016156ce565b935050602061697a868287016156ce565b925050604084013567ffffffffffffffff81111561699b5761699a615684565b5b6169a786828701616918565b9150509250925092565b5f81519050919050565b5f82825260208201905092915050565b5f819050602082019050919050565b5f6169e58383615bd2565b60208301905092915050565b5f602082019050919050565b5f616a07826169b1565b616a1181856169bb565b9350616a1c836169cb565b805f5b83811015616a4c578151616a3388826169da565b9750616a3e836169f1565b925050600181019050616a1f565b5085935050505092915050565b5f6020820190508181035f830152616a7181846169fd565b905092915050565b604082015f820151616a8d5f850182615c54565b506020820151616aa06020850182615bd2565b50505050565b5f604082019050616ab95f830184616a79565b92915050565b7f4e487b71000000000000000000000000000000000000000000000000000000005f52601160045260245ffd5b5f616af682615a88565b9150616b0183615a88565b9250828203905081811115616b1957616b18616abf565b5b92915050565b7f4e487b71000000000000000000000000000000000000000000000000000000005f52603260045260245ffd5b5f616b5682615a88565b91507fffffffffffffffffffffffffffffffffffffffffffffffffffffffffffffffff8203616b8857616b87616abf565b5b600182019050919050565b5f616b9d8261580e565b9150616ba88361580e565b9250828203905069ffffffffffffffffffff811115616bca57616bc9616abf565b5b92915050565b5f616bda826158e3565b9150616be5836158e3565b9250828203905063ffffffff811115616c0157616c00616abf565b5b92915050565b5f616c1182615a88565b9150616c1c83615a88565b9250828201905080821115616c3457616c33616abf565b5b92915050565b7f4e487b71000000000000000000000000000000000000000000000000000000005f52601260045260245ffd5b5f616c71826158e3565b9150616c7c836158e3565b925082616c8c57616c8b616c3a565b5b828204905092915050565b5f616ca182615a88565b9150616cac83615a88565b9250828202616cba81615a88565b91508282048414831517616cd157616cd0616abf565b5b5092915050565b5f616ce28261570d565b9150616ced8361570d565b9250828201905061ffff811115616d0757616d06616abf565b5b92915050565b5f616d1782615a88565b9150616d2283615a88565b925082616d3257616d31616c3a565b5b828204905092915050565b5f81519050616d4b81615823565b92915050565b5f819050919050565b616d6381616d51565b8114616d6d575f80fd5b50565b5f81519050616d7e81616d5a565b92915050565b5f81519050616d9281615b09565b92915050565b5f805f805f60a08688031215616db157616db0615680565b5b5f616dbe88828901616d3d565b9550506020616dcf88828901616d70565b9450506040616de088828901616d84565b9350506060616df188828901616d84565b9250506080616e0288828901616d3d565b9150509295509295909350565b5f616e1982616d51565b9150616e2483616d51565b9250828202616e3281616d51565b91507f800000000000000000000000000000000000000000000000000000000000000084145f84121615616e6957616e68616abf565b5b8282058414831517616e7e57616e7d616abf565b5b5092915050565b5f60208284031215616e9a57616e99615680565b5b5f616ea784828501616d84565b91505092915050565b616eb98161633c565b82525050565b5f819050919050565b5f819050919050565b5f616eeb616ee6616ee184616ebf565b616ec8565b6158e3565b9050919050565b616efb81616ed1565b82525050565b5f604082019050616f145f830185616eb0565b616f216020830184616ef2565b9392505050565b616f31816156a7565b82525050565b5f602082019050616f4a5f830184616f28565b92915050565b5f604082019050616f635f830185615a91565b616f706020830184615a91565b9392505050565b5f606082019050616f8a5f830186615a91565b616f976020830185615a91565b616fa46040830184615a91565b94935050505056fea264697066735822122099599346c60bb23b8020a928c0a3b0ae5f506ddf4aa8827e1a39f62358126e0464736f6c63430008150033","linkReferences":{}},"methodIdentifiers":{"getAskHintId(address,uint256)":"ec70a2f8","getAsks(address)":"f0ac360b","getAssetBalance(address,address)":"7e89334f","getAssetCollateralRatio(address)":"2ee19f6a","getAssetStruct(address)":"24ddaf90","getAssetUserStruct(address,address)":"d1668385","getBidHintId(address,uint256)":"8d2bd5cd","getBids(address)":"9dccae82","getBridgeStruct(address)":"fb5c0a59","getBridgeVault(address)":"4c87276e","getCollateralRatio(address,(uint88,uint88,uint80,uint8,uint8,uint8,uint8,uint64,uint32,uint40))":"0264b02d","getCollateralRatioSpotPrice(address,(uint88,uint88,uint80,uint8,uint8,uint8,uint8,uint64,uint32,uint40))":"76a73f1d","getDethBalance(uint256,address)":"07ca4c70","getDethYieldRate(uint256)":"12779fcd","getDittoMatchedReward(uint256,address)":"b4a9a0de","getDittoReward(uint256,address)":"53105b4d","getHintArray(address,uint256,uint8,uint256)":"58ec7987","getMinShortErc(address)":"573fcde6","getOffsetTime()":"d7516a90","getOracleAssetPrice(address)":"7db6eec9","getProtocolAssetPrice(address)":"254c5272","getProtocolAssetTime(address)":"e9a2269b","getShortHintId(address,uint256)":"258119b3","getShortIdAtOracle(address)":"024ef0dd","getShortOrderId(address,address,uint8)":"06a880fb","getShortOrderIdArray(address,address,uint8[])":"fa6a2871","getShortRecord(address,address,uint8)":"f24f250b","getShortRecordCount(address,address)":"c1cf2e30","getShortRecords(address,address)":"5681e389","getShorts(address)":"bd6b8f01","getTithe(uint256)":"ef9bdfdb","getUndistributedYield(uint256)":"c09b0d20","getVault(address)":"0eb9af38","getVaultStruct(uint256)":"973cfb41","getVaultUserStruct(uint256,address)":"5cb1be99","getYield(address,address)":"5a61aa1d"},"id":24}