{"abi":[{"type":"function","name":"findCreate2Address","inputs":[{"name":"salt","type":"bytes32","internalType":"bytes32"},{"name":"initCode","type":"bytes","internalType":"bytes"}],"outputs":[{"name":"deploymentAddress","type":"address","internalType":"address"}],"stateMutability":"view"},{"type":"function","name":"findCreate2AddressViaHash","inputs":[{"name":"salt","type":"bytes32","internalType":"bytes32"},{"name":"initCodeHash","type":"bytes32","internalType":"bytes32"}],"outputs":[{"name":"deploymentAddress","type":"address","internalType":"address"}],"stateMutability":"view"},{"type":"function","name":"hasBeenDeployed","inputs":[{"name":"deploymentAddress","type":"address","internalType":"address"}],"outputs":[{"name":"","type":"bool","internalType":"bool"}],"stateMutability":"view"},{"type":"function","name":"safeCreate2","inputs":[{"name":"salt","type":"bytes32","internalType":"bytes32"},{"name":"initializationCode","type":"bytes","internalType":"bytes"}],"outputs":[{"name":"deploymentAddress","type":"address","internalType":"address"}],"stateMutability":"payable"}],"bytecode":{"object":"0x608060405234801561000f575f80fd5b50610b788061001d5f395ff3fe60806040526004361061003e575f3560e01c806308508b8f1461004257806364e030871461007e57806385cf97ab146100ae578063a49a7c90146100ea575b5f80fd5b34801561004d575f80fd5b50610068600480360381019061006391906105bb565b610126565b6040516100759190610600565b60405180910390f35b610098600480360381019061009391906106ad565b610177565b6040516100a59190610719565b60405180910390f35b3480156100b9575f80fd5b506100d460048036038101906100cf91906106ad565b610416565b6040516100e19190610719565b60405180910390f35b3480156100f5575f80fd5b50610110600480360381019061010b9190610732565b6104cc565b60405161011d9190610719565b60405180910390f35b5f805f8373ffffffffffffffffffffffffffffffffffffffff1673ffffffffffffffffffffffffffffffffffffffff1681526020019081526020015f205f9054906101000a900460ff169050919050565b5f833373ffffffffffffffffffffffffffffffffffffffff168160601c73ffffffffffffffffffffffffffffffffffffffff1614806101d657505f60601b6bffffffffffffffffffffffff1916816bffffffffffffffffffffffff1916145b610215576040517f08c379a000000000000000000000000000000000000000000000000000000000815260040161020c90610816565b60405180910390fd5b5f84848080601f0160208091040260200160405190810160405280939291908181526020018383808284375f81840152601f19601f8201169050808301925050505050505090505f30878360405160200161027091906108a0565b604051602081830303815290604052805190602001206040516020016102989392919061096f565b604051602081830303815290604052805190602001205f1c90505f808273ffffffffffffffffffffffffffffffffffffffff1673ffffffffffffffffffffffffffffffffffffffff1681526020019081526020015f205f9054906101000a900460ff161561033b576040517f08c379a000000000000000000000000000000000000000000000000000000000815260040161033290610a26565b60405180910390fd5b81602001825188818334f5955050508073ffffffffffffffffffffffffffffffffffffffff168473ffffffffffffffffffffffffffffffffffffffff16146103b8576040517f08c379a00000000000000000000000000000000000000000000000000000000081526004016103af90610ada565b60405180910390fd5b60015f808673ffffffffffffffffffffffffffffffffffffffff1673ffffffffffffffffffffffffffffffffffffffff1681526020019081526020015f205f6101000a81548160ff0219169083151502179055505050509392505050565b5f3084848460405160200161042c929190610b2a565b604051602081830303815290604052805190602001206040516020016104549392919061096f565b604051602081830303815290604052805190602001205f1c90505f808273ffffffffffffffffffffffffffffffffffffffff1673ffffffffffffffffffffffffffffffffffffffff1681526020019081526020015f205f9054906101000a900460ff16156104c4575f90506104c5565b5b9392505050565b5f3083836040516020016104e29392919061096f565b604051602081830303815290604052805190602001205f1c90505f808273ffffffffffffffffffffffffffffffffffffffff1673ffffffffffffffffffffffffffffffffffffffff1681526020019081526020015f205f9054906101000a900460ff1615610552575f9050610553565b5b92915050565b5f80fd5b5f80fd5b5f73ffffffffffffffffffffffffffffffffffffffff82169050919050565b5f61058a82610561565b9050919050565b61059a81610580565b81146105a4575f80fd5b50565b5f813590506105b581610591565b92915050565b5f602082840312156105d0576105cf610559565b5b5f6105dd848285016105a7565b91505092915050565b5f8115159050919050565b6105fa816105e6565b82525050565b5f6020820190506106135f8301846105f1565b92915050565b5f819050919050565b61062b81610619565b8114610635575f80fd5b50565b5f8135905061064681610622565b92915050565b5f80fd5b5f80fd5b5f80fd5b5f8083601f84011261066d5761066c61064c565b5b8235905067ffffffffffffffff81111561068a57610689610650565b5b6020830191508360018202830111156106a6576106a5610654565b5b9250929050565b5f805f604084860312156106c4576106c3610559565b5b5f6106d186828701610638565b935050602084013567ffffffffffffffff8111156106f2576106f161055d565b5b6106fe86828701610658565b92509250509250925092565b61071381610580565b82525050565b5f60208201905061072c5f83018461070a565b92915050565b5f806040838503121561074857610747610559565b5b5f61075585828601610638565b925050602061076685828601610638565b9150509250929050565b5f82825260208201905092915050565b7f496e76616c69642073616c74202d206669727374203230206279746573206f665f8201527f207468652073616c74206d757374206d617463682063616c6c696e672061646460208201527f726573732e000000000000000000000000000000000000000000000000000000604082015250565b5f610800604583610770565b915061080b82610780565b606082019050919050565b5f6020820190508181035f83015261082d816107f4565b9050919050565b5f81519050919050565b5f81905092915050565b5f5b8381101561086557808201518184015260208101905061084a565b5f8484015250505050565b5f61087a82610834565b610884818561083e565b9350610894818560208601610848565b80840191505092915050565b5f6108ab8284610870565b915081905092915050565b5f81905092915050565b7fff000000000000000000000000000000000000000000000000000000000000005f82015250565b5f6108f46001836108b6565b91506108ff826108c0565b600182019050919050565b5f8160601b9050919050565b5f6109208261090a565b9050919050565b5f61093182610916565b9050919050565b61094961094482610580565b610927565b82525050565b5f819050919050565b61096961096482610619565b61094f565b82525050565b5f610979826108e8565b91506109858286610938565b6014820191506109958285610958565b6020820191506109a58284610958565b602082019150819050949350505050565b7f496e76616c696420636f6e7472616374206372656174696f6e202d20636f6e745f8201527f726163742068617320616c7265616479206265656e206465706c6f7965642e00602082015250565b5f610a10603f83610770565b9150610a1b826109b6565b604082019050919050565b5f6020820190508181035f830152610a3d81610a04565b9050919050565b7f4661696c656420746f206465706c6f7920636f6e7472616374207573696e67205f8201527f70726f76696465642073616c7420616e6420696e697469616c697a6174696f6e60208201527f20636f64652e0000000000000000000000000000000000000000000000000000604082015250565b5f610ac4604683610770565b9150610acf82610a44565b606082019050919050565b5f6020820190508181035f830152610af181610ab8565b9050919050565b828183375f83830152505050565b5f610b11838561083e565b9350610b1e838584610af8565b82840190509392505050565b5f610b36828486610b06565b9150819050939250505056fea26469706673582212209d048ef8302b565f83b4b3a3b60d58e84c15588647cb9bea7a52c5417683331264736f6c63430008150033","linkReferences":{}},"methodIdentifiers":{"findCreate2Address(bytes32,bytes)":"85cf97ab","findCreate2AddressViaHash(bytes32,bytes32)":"a49a7c90","hasBeenDeployed(address)":"08508b8f","safeCreate2(bytes32,bytes)":"64e03087"},"id":0}