{"abi":[{"type":"function","name":"approve","inputs":[{"name":"to","type":"address","internalType":"address"},{"name":"tokenId","type":"uint256","internalType":"uint256"}],"outputs":[],"stateMutability":"nonpayable"},{"type":"function","name":"balanceOf","inputs":[{"name":"owner","type":"address","internalType":"address"}],"outputs":[{"name":"balance","type":"uint256","internalType":"uint256"}],"stateMutability":"view"},{"type":"function","name":"getApproved","inputs":[{"name":"tokenId","type":"uint256","internalType":"uint256"}],"outputs":[{"name":"operator","type":"address","internalType":"address"}],"stateMutability":"view"},{"type":"function","name":"isApprovedForAll","inputs":[{"name":"owner","type":"address","internalType":"address"},{"name":"operator","type":"address","internalType":"address"}],"outputs":[{"name":"","type":"bool","internalType":"bool"}],"stateMutability":"view"},{"type":"function","name":"mintNFT","inputs":[{"name":"asset","type":"address","internalType":"address"},{"name":"shortRecordId","type":"uint8","internalType":"uint8"},{"name":"shortOrderId","type":"uint16","internalType":"uint16"}],"outputs":[],"stateMutability":"nonpayable"},{"type":"function","name":"ownerOf","inputs":[{"name":"tokenId","type":"uint256","internalType":"uint256"}],"outputs":[{"name":"","type":"address","internalType":"address"}],"stateMutability":"view"},{"type":"function","name":"safeTransferFrom","inputs":[{"name":"from","type":"address","internalType":"address"},{"name":"to","type":"address","internalType":"address"},{"name":"tokenId","type":"uint256","internalType":"uint256"}],"outputs":[],"stateMutability":"nonpayable"},{"type":"function","name":"safeTransferFrom","inputs":[{"name":"from","type":"address","internalType":"address"},{"name":"to","type":"address","internalType":"address"},{"name":"tokenId","type":"uint256","internalType":"uint256"},{"name":"data","type":"bytes","internalType":"bytes"}],"outputs":[],"stateMutability":"nonpayable"},{"type":"function","name":"setApprovalForAll","inputs":[{"name":"operator","type":"address","internalType":"address"},{"name":"approved","type":"bool","internalType":"bool"}],"outputs":[],"stateMutability":"nonpayable"},{"type":"function","name":"supportsInterface","inputs":[{"name":"_interfaceId","type":"bytes4","internalType":"bytes4"}],"outputs":[{"name":"","type":"bool","internalType":"bool"}],"stateMutability":"view"},{"type":"function","name":"tokenURI","inputs":[{"name":"id","type":"uint256","internalType":"uint256"}],"outputs":[{"name":"","type":"string","internalType":"string"}],"stateMutability":"view"},{"type":"function","name":"transferFrom","inputs":[{"name":"from","type":"address","internalType":"address"},{"name":"to","type":"address","internalType":"address"},{"name":"tokenId","type":"uint256","internalType":"uint256"}],"outputs":[],"stateMutability":"nonpayable"},{"type":"event","name":"Approval","inputs":[{"name":"owner","type":"address","indexed":true,"internalType":"address"},{"name":"spender","type":"address","indexed":true,"internalType":"address"},{"name":"tokenId","type":"uint256","indexed":true,"internalType":"uint256"}],"anonymous":false},{"type":"event","name":"Approval","inputs":[{"name":"owner","type":"address","indexed":true,"internalType":"address"},{"name":"approved","type":"address","indexed":true,"internalType":"address"},{"name":"tokenId","type":"uint256","indexed":true,"internalType":"uint256"}],"anonymous":false},{"type":"event","name":"ApprovalForAll","inputs":[{"name":"owner","type":"address","indexed":true,"internalType":"address"},{"name":"operator","type":"address","indexed":true,"internalType":"address"},{"name":"approved","type":"bool","indexed":false,"internalType":"bool"}],"anonymous":false},{"type":"event","name":"ApprovalForAll","inputs":[{"name":"owner","type":"address","indexed":true,"internalType":"address"},{"name":"operator","type":"address","indexed":true,"internalType":"address"},{"name":"approved","type":"bool","indexed":false,"internalType":"bool"}],"anonymous":false},{"type":"event","name":"CancelOrder","inputs":[{"name":"asset","type":"address","indexed":true,"internalType":"address"},{"name":"orderId","type":"uint16","indexed":false,"internalType":"uint16"},{"name":"orderType","type":"uint8","indexed":true,"internalType":"enum O"}],"anonymous":false},{"type":"event","name":"CreateShortRecord","inputs":[{"name":"asset","type":"address","indexed":true,"internalType":"address"},{"name":"user","type":"address","indexed":true,"internalType":"address"},{"name":"srId","type":"uint16","indexed":false,"internalType":"uint16"}],"anonymous":false},{"type":"event","name":"DeleteShortRecord","inputs":[{"name":"asset","type":"address","indexed":true,"internalType":"address"},{"name":"user","type":"address","indexed":true,"internalType":"address"},{"name":"srId","type":"uint16","indexed":false,"internalType":"uint16"}],"anonymous":false},{"type":"event","name":"Transfer","inputs":[{"name":"from","type":"address","indexed":true,"internalType":"address"},{"name":"to","type":"address","indexed":true,"internalType":"address"},{"name":"tokenId","type":"uint256","indexed":true,"internalType":"uint256"}],"anonymous":false},{"type":"event","name":"Transfer","inputs":[{"name":"from","type":"address","indexed":true,"internalType":"address"},{"name":"to","type":"address","indexed":true,"internalType":"address"},{"name":"tokenId","type":"uint256","indexed":true,"internalType":"uint256"}],"anonymous":false},{"type":"error","name":"AlreadyMinted","inputs":[]},{"type":"error","name":"AssetIsFrozen","inputs":[]},{"type":"error","name":"CannotMakeMoreThanMaxSR","inputs":[]},{"type":"error","name":"ERC721IncorrectOwner","inputs":[{"name":"sender","type":"address","internalType":"address"},{"name":"tokenId","type":"uint256","internalType":"uint256"},{"name":"owner","type":"address","internalType":"address"}]},{"type":"error","name":"ERC721InsufficientApproval","inputs":[{"name":"operator","type":"address","internalType":"address"},{"name":"tokenId","type":"uint256","internalType":"uint256"}]},{"type":"error","name":"ERC721InvalidApprover","inputs":[{"name":"approver","type":"address","internalType":"address"}]},{"type":"error","name":"ERC721InvalidOperator","inputs":[{"name":"operator","type":"address","internalType":"address"}]},{"type":"error","name":"ERC721InvalidOwner","inputs":[{"name":"owner","type":"address","internalType":"address"}]},{"type":"error","name":"ERC721InvalidReceiver","inputs":[{"name":"receiver","type":"address","internalType":"address"}]},{"type":"error","name":"ERC721NonexistentToken","inputs":[{"name":"tokenId","type":"uint256","internalType":"uint256"}]},{"type":"error","name":"InvalidAmount","inputs":[]},{"type":"error","name":"InvalidPrice","inputs":[]},{"type":"error","name":"InvalidShortId","inputs":[]},{"type":"error","name":"InvalidShortOrder","inputs":[]},{"type":"error","name":"InvalidTokenId","inputs":[]},{"type":"error","name":"NotActiveOrder","inputs":[]},{"type":"error","name":"OriginalShortRecordCancelled","inputs":[]},{"type":"error","name":"OriginalShortRecordRedeemed","inputs":[]},{"type":"error","name":"PRBMath_MulDiv18_Overflow","inputs":[{"name":"x","type":"uint256","internalType":"uint256"},{"name":"y","type":"uint256","internalType":"uint256"}]},{"type":"error","name":"PRBMath_MulDiv_Overflow","inputs":[{"name":"x","type":"uint256","internalType":"uint256"},{"name":"y","type":"uint256","internalType":"uint256"},{"name":"denominator","type":"uint256","internalType":"uint256"}]},{"type":"error","name":"ReentrantCall","inputs":[]}],"bytecode":{"object":"0x608060405234801561000f575f80fd5b506155548061001d5f395ff3fe608060405234801561000f575f80fd5b50600436106100b2575f3560e01c806370a082311161006f57806370a082311461019a5780637528c6cc146101ca578063a22cb465146101e6578063b88d4fde14610202578063c87b56dd1461021e578063e985e9c51461024e576100b2565b806301ffc9a7146100b6578063081812fc146100e6578063095ea7b31461011657806323b872dd1461013257806342842e0e1461014e5780636352211e1461016a575b5f80fd5b6100d060048036038101906100cb9190614696565b61027e565b6040516100dd91906146db565b60405180910390f35b61010060048036038101906100fb9190614727565b6102f0565b60405161010d9190614791565b60405180910390f35b610130600480360381019061012b91906147d4565b610334565b005b61014c60048036038101906101479190614812565b610527565b005b61016860048036038101906101639190614812565b610867565b005b610184600480360381019061017f9190614727565b610886565b6040516101919190614791565b60405180910390f35b6101b460048036038101906101af9190614862565b61090c565b6040516101c1919061489c565b60405180910390f35b6101e460048036038101906101df9190614922565b610ab9565b005b61020060048036038101906101fb919061499c565b611013565b005b61021c60048036038101906102179190614b16565b61117d565b005b61023860048036038101906102339190614727565b6111db565b6040516102459190614c10565b60405180910390f35b61026860048036038101906102639190614c30565b6111e2565b60405161027591906146db565b60405180910390f35b5f80610288611272565b9050806002015f847bffffffffffffffffffffffffffffffffffffffffffffffffffffffff19167bffffffffffffffffffffffffffffffffffffffffffffffffffffffff191681526020019081526020015f205f9054906101000a900460ff16915050919050565b5f6102fa8261129e565b5f6010015f8381526020019081526020015f205f9054906101000a900473ffffffffffffffffffffffffffffffffffffffff169050919050565b64ffffffffff8016811115610375576040517f3f6cc76800000000000000000000000000000000000000000000000000000000815260040160405180910390fd5b5f61037f826112eb565b90508073ffffffffffffffffffffffffffffffffffffffff168373ffffffffffffffffffffffffffffffffffffffff16036103f157806040517f5b08ba180000000000000000000000000000000000000000000000000000000081526004016103e89190614791565b60405180910390fd5b8073ffffffffffffffffffffffffffffffffffffffff163373ffffffffffffffffffffffffffffffffffffffff1614158015610434575061043281336111e2565b155b1561047657336040517fa9fbf51f00000000000000000000000000000000000000000000000000000000815260040161046d9190614791565b60405180910390fd5b825f6010015f8481526020019081526020015f205f6101000a81548173ffffffffffffffffffffffffffffffffffffffff021916908373ffffffffffffffffffffffffffffffffffffffff160217905550818373ffffffffffffffffffffffffffffffffffffffff168273ffffffffffffffffffffffffffffffffffffffff167f8c5be1e5ebec7d5bd14f71427d1e84f3dd0314c0f7b2291e5b200ac8c7c3b92560405160405180910390a4505050565b64ffffffffff8016811115610568576040517f3f6cc76800000000000000000000000000000000000000000000000000000000815260040160405180910390fd5b8273ffffffffffffffffffffffffffffffffffffffff163373ffffffffffffffffffffffffffffffffffffffff161415801561062857505f6011015f8473ffffffffffffffffffffffffffffffffffffffff1673ffffffffffffffffffffffffffffffffffffffff1681526020019081526020015f205f3373ffffffffffffffffffffffffffffffffffffffff1673ffffffffffffffffffffffffffffffffffffffff1681526020019081526020015f205f9054906101000a900460ff16155b801561069257505f6010015f8281526020019081526020015f205f9054906101000a900473ffffffffffffffffffffffffffffffffffffffff1673ffffffffffffffffffffffffffffffffffffffff163373ffffffffffffffffffffffffffffffffffffffff1614155b156106d65733816040517f177e802f0000000000000000000000000000000000000000000000000000000081526004016106cd929190614c6e565b60405180910390fd5b5f6106e082610886565b90508373ffffffffffffffffffffffffffffffffffffffff168173ffffffffffffffffffffffffffffffffffffffff1614610756578382826040517f64283d7b00000000000000000000000000000000000000000000000000000000815260040161074d93929190614c95565b60405180910390fd5b5f73ffffffffffffffffffffffffffffffffffffffff168373ffffffffffffffffffffffffffffffffffffffff16036107c6575f6040517f64a0ae920000000000000000000000000000000000000000000000000000000081526004016107bd9190614791565b60405180910390fd5b6107d1848484611328565b5f6010015f8381526020019081526020015f205f6101000a81549073ffffffffffffffffffffffffffffffffffffffff0219169055818373ffffffffffffffffffffffffffffffffffffffff168573ffffffffffffffffffffffffffffffffffffffff167fddf252ad1be2c89b69c2b068fc378daa952ba7f163c4a11628f55a4df523b3ef60405160405180910390a450505050565b61088183838360405180602001604052805f81525061117d565b505050565b5f80610891836112eb565b90505f73ffffffffffffffffffffffffffffffffffffffff168173ffffffffffffffffffffffffffffffffffffffff160361090357826040517f7e2732890000000000000000000000000000000000000000000000000000000081526004016108fa919061489c565b60405180910390fd5b80915050919050565b5f8073ffffffffffffffffffffffffffffffffffffffff168273ffffffffffffffffffffffffffffffffffffffff160361097d575f6040517f89c62b640000000000000000000000000000000000000000000000000000000081526004016109749190614791565b60405180910390fd5b5f8060120190505f818054905090505f5b81811015610ab1575f3073ffffffffffffffffffffffffffffffffffffffff16635681e3898584815481106109c6576109c5614cca565b5b905f5260205f20015f9054906101000a900473ffffffffffffffffffffffffffffffffffffffff16886040518363ffffffff1660e01b8152600401610a0c929190614cf7565b5f60405180830381865afa158015610a26573d5f803e3d5ffd5b505050506040513d5f823e3d601f19601f82011682018060405250810190610a4e9190615041565b90505f5b8151811015610aa4575f828281518110610a6f57610a6e614cca565b5b6020026020010151610120015164ffffffffff1614610a97578580610a93906150b5565b9650505b8080600101915050610a52565b508160010191505061098e565b505050919050565b825f6001811115610acd57610acc6150fc565b5b5f6008015f8373ffffffffffffffffffffffffffffffffffffffff1673ffffffffffffffffffffffffffffffffffffffff1681526020019081526020015f205f01601e9054906101000a900460ff166001811115610b2e57610b2d6150fc565b5b14610b65576040517f0e27a3f700000000000000000000000000000000000000000000000000000000815260040160405180910390fd5b600260ff165f600201601c9054906101000a900460ff1660ff1603610bb6576040517f37ed32e800000000000000000000000000000000000000000000000000000000815260040160405180910390fd5b60025f600201601c6101000a81548160ff021916908360ff160217905550833384610be28383836116c1565b505f80600d015f8973ffffffffffffffffffffffffffffffffffffffff1673ffffffffffffffffffffffffffffffffffffffff1681526020019081526020015f205f3373ffffffffffffffffffffffffffffffffffffffff1673ffffffffffffffffffffffffffffffffffffffff1681526020019081526020015f205f8860ff1660ff1681526020019081526020015f2090505f80600c015f8a73ffffffffffffffffffffffffffffffffffffffff1673ffffffffffffffffffffffffffffffffffffffff1681526020019081526020015f205f8861ffff1661ffff1681526020019081526020015f2090505f6002811115610ce157610ce06150fc565b5b826001015f9054906101000a900460ff166002811115610d0457610d036150fc565b5b03610dba578760ff168160010160179054906101000a900460ff1660ff16141580610d7e57503373ffffffffffffffffffffffffffffffffffffffff16816001015f9054906101000a900473ffffffffffffffffffffffffffffffffffffffff1673ffffffffffffffffffffffffffffffffffffffff1614155b15610db5576040517f67b262cb00000000000000000000000000000000000000000000000000000000815260040160405180910390fd5b610dbe565b5f96505b5f8260010160109054906101000a900464ffffffffff1664ffffffffff1614610e13576040517fddefae2800000000000000000000000000000000000000000000000000000000815260040160405180910390fd5b5f8060020160179054906101000a900464ffffffffff16905060405180608001604052803373ffffffffffffffffffffffffffffffffffffffff1681526020015f6008015f8d73ffffffffffffffffffffffffffffffffffffffff1673ffffffffffffffffffffffffffffffffffffffff1681526020019081526020015f2060010160089054906101000a900460ff1660ff1681526020018a60ff1681526020018961ffff168152505f600f015f8364ffffffffff1681526020019081526020015f205f820151815f015f6101000a81548173ffffffffffffffffffffffffffffffffffffffff021916908373ffffffffffffffffffffffffffffffffffffffff1602179055506020820151815f0160146101000a81548160ff021916908360ff1602179055506040820151815f0160156101000a81548160ff021916908360ff1602179055506060820151815f0160166101000a81548161ffff021916908361ffff160217905550905050808360010160106101000a81548164ffffffffff021916908364ffffffffff16021790555060015f60020160178282829054906101000a900464ffffffffff16610fc99190615129565b92506101000a81548164ffffffffff021916908364ffffffffff16021790555050505050505060015f600201601c6101000a81548160ff021916908360ff16021790555050505050565b8173ffffffffffffffffffffffffffffffffffffffff163373ffffffffffffffffffffffffffffffffffffffff160361108357336040517f5b08ba1800000000000000000000000000000000000000000000000000000000815260040161107a9190614791565b60405180910390fd5b805f6011015f3373ffffffffffffffffffffffffffffffffffffffff1673ffffffffffffffffffffffffffffffffffffffff1681526020019081526020015f205f8473ffffffffffffffffffffffffffffffffffffffff1673ffffffffffffffffffffffffffffffffffffffff1681526020019081526020015f205f6101000a81548160ff0219169083151502179055508173ffffffffffffffffffffffffffffffffffffffff163373ffffffffffffffffffffffffffffffffffffffff167f17307eab39ab6107e8899845ad3d59bd9653f200f220920489ca2b5937696c318360405161117191906146db565b60405180910390a35050565b611188848484610527565b611194848484846117f9565b6111d557826040517f64a0ae920000000000000000000000000000000000000000000000000000000081526004016111cc9190614791565b60405180910390fd5b50505050565b6060919050565b5f806011015f8473ffffffffffffffffffffffffffffffffffffffff1673ffffffffffffffffffffffffffffffffffffffff1681526020019081526020015f205f8373ffffffffffffffffffffffffffffffffffffffff1673ffffffffffffffffffffffffffffffffffffffff1681526020019081526020015f205f9054906101000a900460ff16905092915050565b5f807fc8fcad8db84d3cc18b4c41d551ea0ee66dd599cde068d998e57d5e09332c131c90508091505090565b6112a781611971565b6112e857806040517f7e2732890000000000000000000000000000000000000000000000000000000081526004016112df919061489c565b60405180910390fd5b50565b5f80600f015f8381526020019081526020015f205f015f9054906101000a900473ffffffffffffffffffffffffffffffffffffffff169050919050565b5f6113316119b1565b90505f81600f015f8464ffffffffff1681526020019081526020015f2090505f826013015f835f0160149054906101000a900460ff1660ff1681526020019081526020015f205f9054906101000a900473ffffffffffffffffffffffffffffffffffffffff1690505f83600d015f8373ffffffffffffffffffffffffffffffffffffffff1673ffffffffffffffffffffffffffffffffffffffff1681526020019081526020015f205f8873ffffffffffffffffffffffffffffffffffffffff1673ffffffffffffffffffffffffffffffffffffffff1681526020019081526020015f205f845f0160159054906101000a900460ff1660ff1660ff1681526020019081526020015f20905060028081111561144e5761144d6150fc565b5b816001015f9054906101000a900460ff166002811115611471576114706150fc565b5b036114a8576040517f89338f5000000000000000000000000000000000000000000000000000000000815260040160405180910390fd5b5f815f01600b9054906101000a90046affffffffffffffffffffff166affffffffffffffffffffff1603611508576040517fee31e08b00000000000000000000000000000000000000000000000000000000815260040160405180910390fd5b5f600281111561151b5761151a6150fc565b5b816001015f9054906101000a900460ff16600281111561153e5761153d6150fc565b5b0361155f5761155e82845f0160169054906101000a900461ffff166119b5565b5b5f8160010160106101000a81548164ffffffffff021916908364ffffffffff16021790555061159f8288855f0160159054906101000a900460ff16612236565b6115c4828888845f015f9054906101000a90046affffffffffffffffffffff16612702565b5f61163a83886001855f015f9054906101000a90046affffffffffffffffffffff16865f01600b9054906101000a90046affffffffffffffffffffff168760010160049054906101000a900467ffffffffffffffff16885f0160169054906101000a900469ffffffffffffffffffff168d612e58565b905086845f015f6101000a81548173ffffffffffffffffffffffffffffffffffffffff021916908373ffffffffffffffffffffffffffffffffffffffff16021790555080845f0160156101000a81548160ff021916908360ff1602179055505f845f0160166101000a81548161ffff021916908361ffff1602179055505050505050505050565b5f80600d015f8573ffffffffffffffffffffffffffffffffffffffff1673ffffffffffffffffffffffffffffffffffffffff1681526020019081526020015f205f8473ffffffffffffffffffffffffffffffffffffffff1673ffffffffffffffffffffffffffffffffffffffff1681526020019081526020015f205f8360ff1660ff1681526020019081526020015f209050600280811115611766576117656150fc565b5b816001015f9054906101000a900460ff166002811115611789576117886150fc565b5b14806117bb57505f815f01600b9054906101000a90046affffffffffffffffffffff166affffffffffffffffffffff16145b156117f2576040517fff472cb600000000000000000000000000000000000000000000000000000000815260040160405180910390fd5b9392505050565b5f808473ffffffffffffffffffffffffffffffffffffffff163b1115611964578373ffffffffffffffffffffffffffffffffffffffff1663150b7a02338786866040518563ffffffff1660e01b815260040161185894939291906151b3565b6020604051808303815f875af192505050801561189357506040513d601f19601f820116820180604052508101906118909190615211565b60015b611914573d805f81146118c1576040519150601f19603f3d011682016040523d82523d5f602084013e6118c6565b606091505b505f81510361190c57846040517f64a0ae920000000000000000000000000000000000000000000000000000000081526004016119039190614791565b60405180910390fd5b805181602001fd5b63150b7a0260e01b7bffffffffffffffffffffffffffffffffffffffffffffffffffffffff1916817bffffffffffffffffffffffffffffffffffffffffffffffffffffffff191614915050611969565b600190505b949350505050565b5f8073ffffffffffffffffffffffffffffffffffffffff16611992836112eb565b73ffffffffffffffffffffffffffffffffffffffff1614159050919050565b5f90565b5f6119be6119b1565b90505f81600c015f8573ffffffffffffffffffffffffffffffffffffffff1673ffffffffffffffffffffffffffffffffffffffff1681526020019081526020015f205f8461ffff1661ffff1681526020019081526020015f2090505f815f01601b9054906101000a900460ff16905060066007811115611a4157611a406150fc565b5b816007811115611a5457611a536150fc565b5b1480611a835750600780811115611a6e57611a6d6150fc565b5b816007811115611a8157611a806150fc565b5b145b15611aba576040517f03f7cd9200000000000000000000000000000000000000000000000000000000815260040160405180910390fd5b5f611b52611ad98460010160159054906101000a900461ffff16613215565b611b37855f01600b9054906101000a900469ffffffffffffffffffff1669ffffffffffffffffffff16865f015f9054906101000a90046affffffffffffffffffffff166affffffffffffffffffffff1661324190919063ffffffff16565b6affffffffffffffffffffff1661324190919063ffffffff16565b90505f846008015f8873ffffffffffffffffffffffffffffffffffffffff1673ffffffffffffffffffffffffffffffffffffffff1681526020019081526020015f2090505f815f01601f9054906101000a900460ff1660ff1690505f8560010160179054906101000a900460ff1690505f866001015f9054906101000a900473ffffffffffffffffffffffffffffffffffffffff1690505f88600d015f8c73ffffffffffffffffffffffffffffffffffffffff1673ffffffffffffffffffffffffffffffffffffffff1681526020019081526020015f205f8373ffffffffffffffffffffffffffffffffffffffff1673ffffffffffffffffffffffffffffffffffffffff1681526020019081526020015f205f8460ff1660ff1681526020019081526020015f209050600280811115611c8e57611c8d6150fc565b5b816001015f9054906101000a900460ff166002811115611cb157611cb06150fc565b5b03611cc657611cc18b8385612236565b612045565b5f611cd08c6132ad565b9050806affffffffffffffffffffff16825f01600b9054906101000a90046affffffffffffffffffffff166affffffffffffffffffffff161015612016575f825f01600b9054906101000a90046affffffffffffffffffffff1682611d35919061523c565b90505f8b6005015f8881526020019081526020015f2090505f611dcc611d6c8d60010160159054906101000a900461ffff16613215565b611db1856affffffffffffffffffffff168f5f01600b9054906101000a900469ffffffffffffffffffff1669ffffffffffffffffffff1661332990919063ffffffff16565b6affffffffffffffffffffff1661324190919063ffffffff16565b9050611e108f8789600185888f60010160099054906101000a900467ffffffffffffffff16895f0160169054906101000a900469ffffffffffffffffffff16613392565b80825f015f8282829054906101000a90046affffffffffffffffffffff16611e38919061527a565b92506101000a8154816affffffffffffffffffffff02191690836affffffffffffffffffffff16021790555080895f01600d8282829054906101000a90046affffffffffffffffffffff16611e8d919061527a565b92506101000a8154816affffffffffffffffffffff02191690836affffffffffffffffffffff160217905550826affffffffffffffffffffff16895f015f8282829054906101000a90046cffffffffffffffffffffffffff16611ef091906152d0565b92506101000a8154816cffffffffffffffffffffffffff02191690836cffffffffffffffffffffffffff160217905550808a611f2c919061523c565b99505050806affffffffffffffffffffff168b6009015f8f73ffffffffffffffffffffffffffffffffffffffff1673ffffffffffffffffffffffffffffffffffffffff1681526020019081526020015f205f8673ffffffffffffffffffffffffffffffffffffffff1673ffffffffffffffffffffffffffffffffffffffff1681526020019081526020015f205f015f8282829054906101000a90046cffffffffffffffffffffffffff16611fe091906152d0565b92506101000a8154816cffffffffffffffffffffffffff02191690836cffffffffffffffffffffffffff16021790555050612043565b6001826001015f6101000a81548160ff0219169083600281111561203d5761203c6150fc565b5b02179055505b505b85896007015f8681526020019081526020015f205f8473ffffffffffffffffffffffffffffffffffffffff1673ffffffffffffffffffffffffffffffffffffffff1681526020019081526020015f205f015f8282829054906101000a90046affffffffffffffffffffff166120ba919061527a565b92506101000a8154816affffffffffffffffffffff02191690836affffffffffffffffffffff160217905550845f0160189054906101000a900461ffff1661ffff168a61ffff160361221b575f6121108c6135fc565b69ffffffffffffffffffff1690505f8a600c015f8e73ffffffffffffffffffffffffffffffffffffffff1673ffffffffffffffffffffffffffffffffffffffff1681526020019081526020015f205f8b5f0160159054906101000a900461ffff1661ffff1661ffff1681526020019081526020015f205f01600b9054906101000a900469ffffffffffffffffffff1669ffffffffffffffffffff1690508181106121e857895f0160159054906101000a900461ffff16875f0160186101000a81548161ffff021916908361ffff160217905550612218565b895f0160199054906101000a900461ffff16875f0160186101000a81548161ffff021916908361ffff1602179055505b50505b61222989600c018c8c61367f565b5050505050505050505050565b5f61223f6119b1565b90505f81600d015f8673ffffffffffffffffffffffffffffffffffffffff1673ffffffffffffffffffffffffffffffffffffffff1681526020019081526020015f205f8573ffffffffffffffffffffffffffffffffffffffff1673ffffffffffffffffffffffffffffffffffffffff1681526020019081526020015f205f8460ff1660ff1681526020019081526020015f2090505f60028111156122e6576122e56150fc565b5b816001015f9054906101000a900460ff166002811115612309576123086150fc565b5b146126cf578060010160039054906101000a900460ff1682600d015f8773ffffffffffffffffffffffffffffffffffffffff1673ffffffffffffffffffffffffffffffffffffffff1681526020019081526020015f205f8673ffffffffffffffffffffffffffffffffffffffff1673ffffffffffffffffffffffffffffffffffffffff1681526020019081526020015f205f8360010160019054906101000a900460ff1660ff1660ff1681526020019081526020015f2060010160036101000a81548160ff021916908360ff160217905550600160ff168160010160039054906101000a900460ff1660ff16146124c8578060010160019054906101000a900460ff1682600d015f8773ffffffffffffffffffffffffffffffffffffffff1673ffffffffffffffffffffffffffffffffffffffff1681526020019081526020015f205f8673ffffffffffffffffffffffffffffffffffffffff1673ffffffffffffffffffffffffffffffffffffffff1681526020019081526020015f205f8360010160039054906101000a900460ff1660ff1660ff1681526020019081526020015f2060010160016101000a81548160ff021916908360ff1602179055505b5f82600d015f8773ffffffffffffffffffffffffffffffffffffffff1673ffffffffffffffffffffffffffffffffffffffff1681526020019081526020015f205f8673ffffffffffffffffffffffffffffffffffffffff1673ffffffffffffffffffffffffffffffffffffffff1681526020019081526020015f205f600160ff1660ff1681526020019081526020015f2060010160019054906101000a900460ff1690508383600d015f8873ffffffffffffffffffffffffffffffffffffffff1673ffffffffffffffffffffffffffffffffffffffff1681526020019081526020015f205f8773ffffffffffffffffffffffffffffffffffffffff1673ffffffffffffffffffffffffffffffffffffffff1681526020019081526020015f205f600160ff1660ff1681526020019081526020015f2060010160016101000a81548160ff021916908360ff160217905550600160ff168160ff16111561264957808260010160016101000a81548160ff021916908360ff160217905550612668565b60018260010160016101000a81548160ff021916908360ff1602179055505b8473ffffffffffffffffffffffffffffffffffffffff168673ffffffffffffffffffffffffffffffffffffffff167f308fabf328a16a122870d17bc942c7d1030c9f3f3eb3bd0d0139bbc75e705a35866040516126c59190615349565b60405180910390a3505b6002816001015f6101000a81548160ff021916908360028111156126f6576126f56150fc565b5b02179055505050505050565b5f61270b6119b1565b90505f816008015f8773ffffffffffffffffffffffffffffffffffffffff1673ffffffffffffffffffffffffffffffffffffffff1681526020019081526020015f2090505f815f01601f9054906101000a900460ff1660ff16905060018103612e4e575f836007015f8381526020019081526020015f205f8873ffffffffffffffffffffffffffffffffffffffff1673ffffffffffffffffffffffffffffffffffffffff1681526020019081526020015f2090505f816001015f9054906101000a90046affffffffffffffffffffff1690505f82600101600b9054906101000a90046affffffffffffffffffffff1690505f866007015f8681526020019081526020015f205f8a73ffffffffffffffffffffffffffffffffffffffff1673ffffffffffffffffffffffffffffffffffffffff1681526020019081526020015f2090506064836affffffffffffffffffffff1610801561287757506064826affffffffffffffffffffff16105b156128885750505050505050612e52565b6064836affffffffffffffffffffff161180156128b257506064826affffffffffffffffffffff16105b15612a1357876affffffffffffffffffffff16836affffffffffffffffffffff1611156129885787846001015f8282829054906101000a90046affffffffffffffffffffff16612902919061523c565b92506101000a8154816affffffffffffffffffffff02191690836affffffffffffffffffffff16021790555087816001015f8282829054906101000a90046affffffffffffffffffffff16612957919061527a565b92506101000a8154816affffffffffffffffffffff02191690836affffffffffffffffffffff160217905550612a0e565b5f846001015f6101000a8154816affffffffffffffffffffff02191690836affffffffffffffffffffff16021790555082816001015f8282829054906101000a90046affffffffffffffffffffff166129e1919061527a565b92506101000a8154816affffffffffffffffffffff02191690836affffffffffffffffffffff1602179055505b612e49565b6064836affffffffffffffffffffff16108015612a3d57506064826affffffffffffffffffffff16115b15612ba257876affffffffffffffffffffff16826affffffffffffffffffffff161115612b15578784600101600b8282829054906101000a90046affffffffffffffffffffff16612a8e919061523c565b92506101000a8154816affffffffffffffffffffff02191690836affffffffffffffffffffff1602179055508781600101600b8282829054906101000a90046affffffffffffffffffffff16612ae4919061527a565b92506101000a8154816affffffffffffffffffffff02191690836affffffffffffffffffffff160217905550612b9d565b5f84600101600b6101000a8154816affffffffffffffffffffff02191690836affffffffffffffffffffff1602179055508181600101600b8282829054906101000a90046affffffffffffffffffffff16612b70919061527a565b92506101000a8154816affffffffffffffffffffff02191690836affffffffffffffffffffff1602179055505b612e48565b5f8284612baf919061527a565b9050886affffffffffffffffffffff16816affffffffffffffffffffff161115612d3957612c2c896affffffffffffffffffffff16612c11836affffffffffffffffffffff16876affffffffffffffffffffff16613a2990919063ffffffff16565b6affffffffffffffffffffff1661324190919063ffffffff16565b9350612c87896affffffffffffffffffffff16612c6c836affffffffffffffffffffff16866affffffffffffffffffffff16613a2990919063ffffffff16565b6affffffffffffffffffffff1661324190919063ffffffff16565b925083856001015f8282829054906101000a90046affffffffffffffffffffff16612cb2919061523c565b92506101000a8154816affffffffffffffffffffff02191690836affffffffffffffffffffff1602179055508285600101600b8282829054906101000a90046affffffffffffffffffffff16612d08919061523c565b92506101000a8154816affffffffffffffffffffff02191690836affffffffffffffffffffff160217905550612d9b565b5f856001015f6101000a8154816affffffffffffffffffffff02191690836affffffffffffffffffffff1602179055505f85600101600b6101000a8154816affffffffffffffffffffff02191690836affffffffffffffffffffff1602179055505b83826001015f8282829054906101000a90046affffffffffffffffffffff16612dc4919061527a565b92506101000a8154816affffffffffffffffffffff02191690836affffffffffffffffffffff1602179055508282600101600b8282829054906101000a90046affffffffffffffffffffff16612e1a919061527a565b92506101000a8154816affffffffffffffffffffff02191690836affffffffffffffffffffff160217905550505b5b505050505b5050505b50505050565b5f80612e626119b1565b905064ffffffffff80168364ffffffffff161115612eac576040517f3f6cc76800000000000000000000000000000000000000000000000000000000815260040160405180910390fd5b5f612eb78b8b613a9e565b8092508194505050604051806101400160405280896affffffffffffffffffffff168152602001886affffffffffffffffffffff1681526020018669ffffffffffffffffffff1681526020018a6002811115612f1657612f156150fc565b5b8152602001600160ff1681526020018460ff1681526020018260ff1681526020018767ffffffffffffffff168152602001612f4f613ed8565b63ffffffff1681526020018564ffffffffff1681525082600d015f8d73ffffffffffffffffffffffffffffffffffffffff1673ffffffffffffffffffffffffffffffffffffffff1681526020019081526020015f205f8c73ffffffffffffffffffffffffffffffffffffffff1673ffffffffffffffffffffffffffffffffffffffff1681526020019081526020015f205f8560ff1660ff1681526020019081526020015f205f820151815f015f6101000a8154816affffffffffffffffffffff02191690836affffffffffffffffffffff1602179055506020820151815f01600b6101000a8154816affffffffffffffffffffff02191690836affffffffffffffffffffff1602179055506040820151815f0160166101000a81548169ffffffffffffffffffff021916908369ffffffffffffffffffff1602179055506060820151816001015f6101000a81548160ff021916908360028111156130b6576130b56150fc565b5b021790555060808201518160010160016101000a81548160ff021916908360ff16021790555060a08201518160010160026101000a81548160ff021916908360ff16021790555060c08201518160010160036101000a81548160ff021916908360ff16021790555060e08201518160010160046101000a81548167ffffffffffffffff021916908367ffffffffffffffff16021790555061010082015181600101600c6101000a81548163ffffffff021916908363ffffffff1602179055506101208201518160010160106101000a81548164ffffffffff021916908364ffffffffff1602179055509050508973ffffffffffffffffffffffffffffffffffffffff168b73ffffffffffffffffffffffffffffffffffffffff167f098ddd45c8c2cfd19dab7bc996da0fe871e07f039af4def6686bb3115d87e428856040516131ff9190615349565b60405180910390a3505098975050505050505050565b5f6064670de0b6b3a76400008361ffff166132309190615362565b61323a91906153d0565b9050919050565b5f8061325a846affffffffffffffffffffff1684613eee565b90506affffffffffffffffffffff80168111156132a3576040517f2c5211c600000000000000000000000000000000000000000000000000000000815260040160405180910390fd5b8091505092915050565b5f806132b76119b1565b9050670de0b6b3a7640000816008015f8573ffffffffffffffffffffffffffffffffffffffff1673ffffffffffffffffffffffffffffffffffffffff1681526020019081526020015f2060010160029054906101000a900461ffff1661ffff166133219190615362565b915050919050565b5f806133418469ffffffffffffffffffff1684613eee565b905069ffffffffffffffffffff8016811115613388576040517ebfc92100000000000000000000000000000000000000000000000000000000815260040160405180910390fd5b8091505092915050565b5f61339b6119b1565b90505f81600d015f8b73ffffffffffffffffffffffffffffffffffffffff1673ffffffffffffffffffffffffffffffffffffffff1681526020019081526020015f205f8a73ffffffffffffffffffffffffffffffffffffffff1673ffffffffffffffffffffffffffffffffffffffff1681526020019081526020015f205f8960ff1660ff1681526020019081526020015f209050600280811115613442576134416150fc565b5b816001015f9054906101000a900460ff166002811115613465576134646150fc565b5b036135515784815f01600b6101000a8154816affffffffffffffffffffff02191690836affffffffffffffffffffff160217905550838160010160046101000a81548167ffffffffffffffff021916908367ffffffffffffffff16021790555085815f015f6101000a8154816affffffffffffffffffffff02191690836affffffffffffffffffffff16021790555082815f0160166101000a81548169ffffffffffffffffffff021916908369ffffffffffffffffffff16021790555061352a613ed8565b81600101600c6101000a81548163ffffffff021916908363ffffffff1602179055506135c5565b5f61357c8567ffffffffffffffff16876affffffffffffffffffffff16613fd390919063ffffffff16565b90505f6135ab8569ffffffffffffffffffff16896affffffffffffffffffffff16613fd390919063ffffffff16565b90506135c28388848b856135bd613ed8565b613ff3565b50505b86816001015f6101000a81548160ff021916908360028111156135eb576135ea6150fc565b5b021790555050505050505050505050565b5f806136066119b1565b905080600a015f8473ffffffffffffffffffffffffffffffffffffffff1673ffffffffffffffffffffffffffffffffffffffff1681526020019081526020015f205f600160ff1661ffff1681526020019081526020015f205f015f9054906101000a90046affffffffffffffffffffff16915050919050565b5f835f8473ffffffffffffffffffffffffffffffffffffffff1673ffffffffffffffffffffffffffffffffffffffff1681526020019081526020015f205f600160ff1661ffff1681526020019081526020015f205f0160159054906101000a900461ffff169050835f8473ffffffffffffffffffffffffffffffffffffffff1673ffffffffffffffffffffffffffffffffffffffff1681526020019081526020015f205f8361ffff1661ffff1681526020019081526020015f205f0160159054906101000a900461ffff16845f8573ffffffffffffffffffffffffffffffffffffffff1673ffffffffffffffffffffffffffffffffffffffff1681526020019081526020015f205f865f8773ffffffffffffffffffffffffffffffffffffffff1673ffffffffffffffffffffffffffffffffffffffff1681526020019081526020015f205f8661ffff1661ffff1681526020019081526020015f205f0160199054906101000a900461ffff1661ffff1661ffff1681526020019081526020015f205f0160156101000a81548161ffff021916908361ffff160217905550835f8473ffffffffffffffffffffffffffffffffffffffff1673ffffffffffffffffffffffffffffffffffffffff1681526020019081526020015f205f8361ffff1661ffff1681526020019081526020015f205f0160199054906101000a900461ffff16845f8573ffffffffffffffffffffffffffffffffffffffff1673ffffffffffffffffffffffffffffffffffffffff1681526020019081526020015f205f865f8773ffffffffffffffffffffffffffffffffffffffff1673ffffffffffffffffffffffffffffffffffffffff1681526020019081526020015f205f8661ffff1661ffff1681526020019081526020015f205f0160159054906101000a900461ffff1661ffff1661ffff1681526020019081526020015f205f0160196101000a81548161ffff021916908361ffff160217905550835f8473ffffffffffffffffffffffffffffffffffffffff1673ffffffffffffffffffffffffffffffffffffffff1681526020019081526020015f205f8361ffff1661ffff1681526020019081526020015f205f01601b9054906101000a900460ff1660078111156139c7576139c66150fc565b5b8373ffffffffffffffffffffffffffffffffffffffff167f2097d5c49cf7ba09a2520b6b807629746c2527783ac92cac69d88e846c7f33f584604051613a0d919061540f565b60405180910390a3613a23848484846006614265565b50505050565b5f80613a4b846affffffffffffffffffffff16670de0b6b3a764000085614452565b90506affffffffffffffffffffff8016811115613a94576040517f2c5211c600000000000000000000000000000000000000000000000000000000815260040160405180910390fd5b8091505092915050565b5f805f613aa96119b1565b90505f81600d015f8773ffffffffffffffffffffffffffffffffffffffff1673ffffffffffffffffffffffffffffffffffffffff1681526020019081526020015f205f8673ffffffffffffffffffffffffffffffffffffffff1673ffffffffffffffffffffffffffffffffffffffff1681526020019081526020015f205f600160ff1660ff1681526020019081526020015f2090505f826009015f8873ffffffffffffffffffffffffffffffffffffffff1673ffffffffffffffffffffffffffffffffffffffff1681526020019081526020015f205f8773ffffffffffffffffffffffffffffffffffffffff1673ffffffffffffffffffffffffffffffffffffffff1681526020019081526020015f2090505f815f0160149054906101000a900460ff1660ff1603613c2f576002815f0160146101000a81548160ff021916908360ff16021790555060018260010160016101000a81548160ff021916908360ff16021790555060018260010160036101000a81548160ff021916908360ff1602179055505b8160010160039054906101000a900460ff1693505f8260010160019054906101000a900460ff169050600160ff168160ff161115613d63575f84600d015f8a73ffffffffffffffffffffffffffffffffffffffff1673ffffffffffffffffffffffffffffffffffffffff1681526020019081526020015f205f8973ffffffffffffffffffffffffffffffffffffffff1673ffffffffffffffffffffffffffffffffffffffff1681526020019081526020015f205f8360ff1660ff1681526020019081526020015f2060010160019054906101000a900460ff169050600160ff168160ff161115613d3b57808460010160016101000a81548160ff021916908360ff160217905550613d5a565b60018460010160016101000a81548160ff021916908360ff1602179055505b81965050613df5565b815f0160149054906101000a900460ff16955060fe60ff168660ff161015613dc2576001825f0160148282829054906101000a900460ff16613da59190615428565b92506101000a81548160ff021916908360ff160217905550613df4565b6040517f9794d3a200000000000000000000000000000000000000000000000000000000815260040160405180910390fd5b5b600160ff168560ff161115613eb0578584600d015f8a73ffffffffffffffffffffffffffffffffffffffff1673ffffffffffffffffffffffffffffffffffffffff1681526020019081526020015f205f8973ffffffffffffffffffffffffffffffffffffffff1673ffffffffffffffffffffffffffffffffffffffff1681526020019081526020015f205f8760ff1660ff1681526020019081526020015f2060010160016101000a81548160ff021916908360ff1602179055505b858360010160036101000a81548160ff021916908360ff160217905550505050509250929050565b5f6362f6fc6542613ee9919061545c565b905090565b5f805f80198486098486029250828110838203039150505f8103613f2e57670de0b6b3a76400008281613f2457613f236153a3565b5b0492505050613fcd565b670de0b6b3a76400008110613f7c5784846040517f5173648d000000000000000000000000000000000000000000000000000000008152600401613f7392919061548f565b60405180910390fd5b5f670de0b6b3a764000085870990507faccb18165bd6fe31ae1cf318dc5b51eee0e1ba569b88cd74c1773b91fac10669600162040000805f0304018483118403026204000083860304170293505050505b92915050565b5f613feb836affffffffffffffffffffff1683613eee565b905092915050565b61404f8660010160049054906101000a900467ffffffffffffffff1667ffffffffffffffff16875f01600b9054906101000a90046affffffffffffffffffffff166affffffffffffffffffffff16613fd390919063ffffffff16565b8461405a91906154b6565b935084865f01600b8282829054906101000a90046affffffffffffffffffffff16614085919061527a565b92506101000a8154816affffffffffffffffffffff02191690836affffffffffffffffffffff1602179055506140eb865f01600b9054906101000a90046affffffffffffffffffffff166affffffffffffffffffffff168561456490919063ffffffff16565b8660010160046101000a81548167ffffffffffffffff021916908367ffffffffffffffff160217905550614173865f0160169054906101000a900469ffffffffffffffffffff1669ffffffffffffffffffff16875f015f9054906101000a90046affffffffffffffffffffff166affffffffffffffffffffff16613fd390919063ffffffff16565b8261417e91906154b6565b915082865f015f8282829054906101000a90046affffffffffffffffffffff166141a8919061527a565b92506101000a8154816affffffffffffffffffffff02191690836affffffffffffffffffffff16021790555061420d865f015f9054906101000a90046affffffffffffffffffffff166affffffffffffffffffffff16836145c990919063ffffffff16565b865f0160166101000a81548169ffffffffffffffffffff021916908369ffffffffffffffffffff1602179055508086600101600c6101000a81548163ffffffff021916908363ffffffff160217905550505050505050565b80855f8673ffffffffffffffffffffffffffffffffffffffff1673ffffffffffffffffffffffffffffffffffffffff1681526020019081526020015f205f8561ffff1661ffff1681526020019081526020015f205f01601b6101000a81548160ff021916908360078111156142dd576142dc6150fc565b5b021790555082855f8673ffffffffffffffffffffffffffffffffffffffff1673ffffffffffffffffffffffffffffffffffffffff1681526020019081526020015f205f600160ff1661ffff1681526020019081526020015f205f0160156101000a81548161ffff021916908361ffff160217905550600160ff168261ffff16146143d65781855f8673ffffffffffffffffffffffffffffffffffffffff1673ffffffffffffffffffffffffffffffffffffffff1681526020019081526020015f205f8561ffff1661ffff1681526020019081526020015f205f0160156101000a81548161ffff021916908361ffff16021790555061444b565b600160ff16855f8673ffffffffffffffffffffffffffffffffffffffff1673ffffffffffffffffffffffffffffffffffffffff1681526020019081526020015f205f8561ffff1661ffff1681526020019081526020015f205f0160156101000a81548161ffff021916908361ffff1602179055505b5050505050565b5f805f80198587098587029250828110838203039150505f810361448a578382816144805761447f6153a3565b5b049250505061455d565b8381106144d2578585856040517f63a057780000000000000000000000000000000000000000000000000000000081526004016144c9939291906154e9565b60405180910390fd5b5f8486880990508281118203915080830392505f6001861901861690505f81870496508185049450600182835f0304019050808402851794505f60028860030218905080880260020381029050808802600203810290508088026002038102905080880260020381029050808802600203810290508088026002038102905080860296505050505050505b9392505050565b5f8061457984670de0b6b3a764000085614452565b905067ffffffffffffffff80168111156145bf576040517f2c5211c600000000000000000000000000000000000000000000000000000000815260040160405180910390fd5b8091505092915050565b5f806145de84670de0b6b3a764000085614452565b905069ffffffffffffffffffff8016811115614626576040517f2c5211c600000000000000000000000000000000000000000000000000000000815260040160405180910390fd5b8091505092915050565b5f604051905090565b5f80fd5b5f80fd5b5f7fffffffff0000000000000000000000000000000000000000000000000000000082169050919050565b61467581614641565b811461467f575f80fd5b50565b5f813590506146908161466c565b92915050565b5f602082840312156146ab576146aa614639565b5b5f6146b884828501614682565b91505092915050565b5f8115159050919050565b6146d5816146c1565b82525050565b5f6020820190506146ee5f8301846146cc565b92915050565b5f819050919050565b614706816146f4565b8114614710575f80fd5b50565b5f81359050614721816146fd565b92915050565b5f6020828403121561473c5761473b614639565b5b5f61474984828501614713565b91505092915050565b5f73ffffffffffffffffffffffffffffffffffffffff82169050919050565b5f61477b82614752565b9050919050565b61478b81614771565b82525050565b5f6020820190506147a45f830184614782565b92915050565b6147b381614771565b81146147bd575f80fd5b50565b5f813590506147ce816147aa565b92915050565b5f80604083850312156147ea576147e9614639565b5b5f6147f7858286016147c0565b925050602061480885828601614713565b9150509250929050565b5f805f6060848603121561482957614828614639565b5b5f614836868287016147c0565b9350506020614847868287016147c0565b925050604061485886828701614713565b9150509250925092565b5f6020828403121561487757614876614639565b5b5f614884848285016147c0565b91505092915050565b614896816146f4565b82525050565b5f6020820190506148af5f83018461488d565b92915050565b5f60ff82169050919050565b6148ca816148b5565b81146148d4575f80fd5b50565b5f813590506148e5816148c1565b92915050565b5f61ffff82169050919050565b614901816148eb565b811461490b575f80fd5b50565b5f8135905061491c816148f8565b92915050565b5f805f6060848603121561493957614938614639565b5b5f614946868287016147c0565b9350506020614957868287016148d7565b92505060406149688682870161490e565b9150509250925092565b61497b816146c1565b8114614985575f80fd5b50565b5f8135905061499681614972565b92915050565b5f80604083850312156149b2576149b1614639565b5b5f6149bf858286016147c0565b92505060206149d085828601614988565b9150509250929050565b5f80fd5b5f80fd5b5f601f19601f8301169050919050565b7f4e487b71000000000000000000000000000000000000000000000000000000005f52604160045260245ffd5b614a28826149e2565b810181811067ffffffffffffffff82111715614a4757614a466149f2565b5b80604052505050565b5f614a59614630565b9050614a658282614a1f565b919050565b5f67ffffffffffffffff821115614a8457614a836149f2565b5b614a8d826149e2565b9050602081019050919050565b828183375f83830152505050565b5f614aba614ab584614a6a565b614a50565b905082815260208101848484011115614ad657614ad56149de565b5b614ae1848285614a9a565b509392505050565b5f82601f830112614afd57614afc6149da565b5b8135614b0d848260208601614aa8565b91505092915050565b5f805f8060808587031215614b2e57614b2d614639565b5b5f614b3b878288016147c0565b9450506020614b4c878288016147c0565b9350506040614b5d87828801614713565b925050606085013567ffffffffffffffff811115614b7e57614b7d61463d565b5b614b8a87828801614ae9565b91505092959194509250565b5f81519050919050565b5f82825260208201905092915050565b5f5b83811015614bcd578082015181840152602081019050614bb2565b5f8484015250505050565b5f614be282614b96565b614bec8185614ba0565b9350614bfc818560208601614bb0565b614c05816149e2565b840191505092915050565b5f6020820190508181035f830152614c288184614bd8565b905092915050565b5f8060408385031215614c4657614c45614639565b5b5f614c53858286016147c0565b9250506020614c64858286016147c0565b9150509250929050565b5f604082019050614c815f830185614782565b614c8e602083018461488d565b9392505050565b5f606082019050614ca85f830186614782565b614cb5602083018561488d565b614cc26040830184614782565b949350505050565b7f4e487b71000000000000000000000000000000000000000000000000000000005f52603260045260245ffd5b5f604082019050614d0a5f830185614782565b614d176020830184614782565b9392505050565b5f67ffffffffffffffff821115614d3857614d376149f2565b5b602082029050602081019050919050565b5f80fd5b5f80fd5b5f6affffffffffffffffffffff82169050919050565b614d7081614d51565b8114614d7a575f80fd5b50565b5f81519050614d8b81614d67565b92915050565b5f69ffffffffffffffffffff82169050919050565b614daf81614d91565b8114614db9575f80fd5b50565b5f81519050614dca81614da6565b92915050565b60038110614ddc575f80fd5b50565b5f81519050614ded81614dd0565b92915050565b5f81519050614e01816148c1565b92915050565b5f67ffffffffffffffff82169050919050565b614e2381614e07565b8114614e2d575f80fd5b50565b5f81519050614e3e81614e1a565b92915050565b5f63ffffffff82169050919050565b614e5c81614e44565b8114614e66575f80fd5b50565b5f81519050614e7781614e53565b92915050565b5f64ffffffffff82169050919050565b614e9681614e7d565b8114614ea0575f80fd5b50565b5f81519050614eb181614e8d565b92915050565b5f6101408284031215614ecd57614ecc614d4d565b5b614ed8610140614a50565b90505f614ee784828501614d7d565b5f830152506020614efa84828501614d7d565b6020830152506040614f0e84828501614dbc565b6040830152506060614f2284828501614ddf565b6060830152506080614f3684828501614df3565b60808301525060a0614f4a84828501614df3565b60a08301525060c0614f5e84828501614df3565b60c08301525060e0614f7284828501614e30565b60e083015250610100614f8784828501614e69565b61010083015250610120614f9d84828501614ea3565b6101208301525092915050565b5f614fbc614fb784614d1e565b614a50565b9050808382526020820190506101408402830185811115614fe057614fdf614d49565b5b835b8181101561500a5780614ff58882614eb7565b84526020840193505061014081019050614fe2565b5050509392505050565b5f82601f830112615028576150276149da565b5b8151615038848260208601614faa565b91505092915050565b5f6020828403121561505657615055614639565b5b5f82015167ffffffffffffffff8111156150735761507261463d565b5b61507f84828501615014565b91505092915050565b7f4e487b71000000000000000000000000000000000000000000000000000000005f52601160045260245ffd5b5f6150bf826146f4565b91507fffffffffffffffffffffffffffffffffffffffffffffffffffffffffffffffff82036150f1576150f0615088565b5b600182019050919050565b7f4e487b71000000000000000000000000000000000000000000000000000000005f52602160045260245ffd5b5f61513382614e7d565b915061513e83614e7d565b9250828201905064ffffffffff81111561515b5761515a615088565b5b92915050565b5f81519050919050565b5f82825260208201905092915050565b5f61518582615161565b61518f818561516b565b935061519f818560208601614bb0565b6151a8816149e2565b840191505092915050565b5f6080820190506151c65f830187614782565b6151d36020830186614782565b6151e0604083018561488d565b81810360608301526151f2818461517b565b905095945050505050565b5f8151905061520b8161466c565b92915050565b5f6020828403121561522657615225614639565b5b5f615233848285016151fd565b91505092915050565b5f61524682614d51565b915061525183614d51565b925082820390506affffffffffffffffffffff81111561527457615273615088565b5b92915050565b5f61528482614d51565b915061528f83614d51565b925082820190506affffffffffffffffffffff8111156152b2576152b1615088565b5b92915050565b5f6cffffffffffffffffffffffffff82169050919050565b5f6152da826152b8565b91506152e5836152b8565b925082820190506cffffffffffffffffffffffffff81111561530a57615309615088565b5b92915050565b5f819050919050565b5f61533361532e615329846148b5565b615310565b6148eb565b9050919050565b61534381615319565b82525050565b5f60208201905061535c5f83018461533a565b92915050565b5f61536c826146f4565b9150615377836146f4565b9250828202615385816146f4565b9150828204841483151761539c5761539b615088565b5b5092915050565b7f4e487b71000000000000000000000000000000000000000000000000000000005f52601260045260245ffd5b5f6153da826146f4565b91506153e5836146f4565b9250826153f5576153f46153a3565b5b828204905092915050565b615409816148eb565b82525050565b5f6020820190506154225f830184615400565b92915050565b5f615432826148b5565b915061543d836148b5565b9250828201905060ff81111561545657615455615088565b5b92915050565b5f615466826146f4565b9150615471836146f4565b925082820390508181111561548957615488615088565b5b92915050565b5f6040820190506154a25f83018561488d565b6154af602083018461488d565b9392505050565b5f6154c0826146f4565b91506154cb836146f4565b92508282019050808211156154e3576154e2615088565b5b92915050565b5f6060820190506154fc5f83018661488d565b615509602083018561488d565b615516604083018461488d565b94935050505056fea2646970667358221220aff2ae2ec26b68a5006e486a80e46beddaec3e5b48e5fa05b1ad010aee662f1b64736f6c63430008150033","linkReferences":{}},"methodIdentifiers":{"approve(address,uint256)":"095ea7b3","balanceOf(address)":"70a08231","getApproved(uint256)":"081812fc","isApprovedForAll(address,address)":"e985e9c5","mintNFT(address,uint8,uint16)":"7528c6cc","ownerOf(uint256)":"6352211e","safeTransferFrom(address,address,uint256)":"42842e0e","safeTransferFrom(address,address,uint256,bytes)":"b88d4fde","setApprovalForAll(address,bool)":"a22cb465","supportsInterface(bytes4)":"01ffc9a7","tokenURI(uint256)":"c87b56dd","transferFrom(address,address,uint256)":"23b872dd"},"id":10}