{"abi":[{"type":"function","name":"redeemErc","inputs":[{"name":"asset","type":"address","internalType":"address"},{"name":"amtWallet","type":"uint88","internalType":"uint88"},{"name":"amtEscrow","type":"uint88","internalType":"uint88"}],"outputs":[],"stateMutability":"nonpayable"},{"type":"function","name":"shutdownMarket","inputs":[{"name":"asset","type":"address","internalType":"address"}],"outputs":[],"stateMutability":"nonpayable"},{"type":"event","name":"RedeemErc","inputs":[{"name":"asset","type":"address","indexed":true,"internalType":"address"},{"name":"user","type":"address","indexed":true,"internalType":"address"},{"name":"amtWallet","type":"uint256","indexed":false,"internalType":"uint256"},{"name":"amtEscrow","type":"uint256","indexed":false,"internalType":"uint256"}],"anonymous":false},{"type":"event","name":"ShutdownMarket","inputs":[{"name":"asset","type":"address","indexed":true,"internalType":"address"}],"anonymous":false},{"type":"error","name":"AssetIsFrozen","inputs":[]},{"type":"error","name":"AssetIsNotPermanentlyFrozen","inputs":[]},{"type":"error","name":"InsufficientEthInLiquidityPool","inputs":[]},{"type":"error","name":"InsufficientWalletBalance","inputs":[]},{"type":"error","name":"InvalidAmount","inputs":[]},{"type":"error","name":"InvalidAsset","inputs":[]},{"type":"error","name":"InvalidPrice","inputs":[]},{"type":"error","name":"InvalidTwapPrice","inputs":[]},{"type":"error","name":"NotOwnerOrAdmin","inputs":[]},{"type":"error","name":"PRBMath_MulDiv18_Overflow","inputs":[{"name":"x","type":"uint256","internalType":"uint256"},{"name":"y","type":"uint256","internalType":"uint256"}]},{"type":"error","name":"PRBMath_MulDiv_Overflow","inputs":[{"name":"x","type":"uint256","internalType":"uint256"},{"name":"y","type":"uint256","internalType":"uint256"},{"name":"denominator","type":"uint256","internalType":"uint256"}]},{"type":"error","name":"ReentrantCall","inputs":[]},{"type":"error","name":"SufficientCollateral","inputs":[]}],"bytecode":{"object":"0x608060405234801561000f575f80fd5b506122f58061001d5f395ff3fe608060405234801561000f575f80fd5b5060043610610033575f3560e01c80625b6317146100375780632bf34f7914610053575b5f80fd5b610051600480360381019061004c9190611c75565b61006f565b005b61006d60048036038101906100689190611cc5565b6104d8565b005b8260018081111561008357610082611cf0565b5b5f6008015f8373ffffffffffffffffffffffffffffffffffffffff1673ffffffffffffffffffffffffffffffffffffffff1681526020019081526020015f205f01601e9054906101000a900460ff1660018111156100e4576100e3611cf0565b5b1461011b576040517f51aba9fa00000000000000000000000000000000000000000000000000000000815260040160405180910390fd5b600260ff165f600201601c9054906101000a900460ff1660ff160361016c576040517f37ed32e800000000000000000000000000000000000000000000000000000000815260040160405180910390fd5b60025f600201601c6101000a81548160ff021916908360ff1602179055505f806008015f8673ffffffffffffffffffffffffffffffffffffffff1673ffffffffffffffffffffffffffffffffffffffff1681526020019081526020015f2090505f846affffffffffffffffffffff16111561020b5761020a848673ffffffffffffffffffffffffffffffffffffffff16610ac990919063ffffffff16565b5b5f836affffffffffffffffffffff16111561030157826affffffffffffffffffffff165f6009015f8773ffffffffffffffffffffffffffffffffffffffff1673ffffffffffffffffffffffffffffffffffffffff1681526020019081526020015f205f3373ffffffffffffffffffffffffffffffffffffffff1673ffffffffffffffffffffffffffffffffffffffff1681526020019081526020015f205f015f8282829054906101000a90046cffffffffffffffffffffffffff166102d09190611d62565b92506101000a8154816cffffffffffffffffffffffffff02191690836cffffffffffffffffffffffffff1602179055505b5f838561030e9190611da2565b90505f610394835f015f9054906101000a90046cffffffffffffffffffffffffff166cffffffffffffffffffffffffff16610386855f01600d9054906101000a90046affffffffffffffffffffff166affffffffffffffffffffff16856affffffffffffffffffffff16610c8490919063ffffffff16565b610ca490919063ffffffff16565b9050805f6007015f855f01601f9054906101000a900460ff1660ff1681526020019081526020015f205f3373ffffffffffffffffffffffffffffffffffffffff1673ffffffffffffffffffffffffffffffffffffffff1681526020019081526020015f205f015f8282829054906101000a90046affffffffffffffffffffff1661041e9190611da2565b92506101000a8154816affffffffffffffffffffff02191690836affffffffffffffffffffff1602179055503373ffffffffffffffffffffffffffffffffffffffff168773ffffffffffffffffffffffffffffffffffffffff167f118ce4f1417652fabd622f39daf2b01dfc4b81b97a310404fb301be4eb1bfb4a88886040516104a9929190611e22565b60405180910390a350505060015f600201601c6101000a81548160ff021916908360ff16021790555050505050565b6104e0610d0c565b73ffffffffffffffffffffffffffffffffffffffff163373ffffffffffffffffffffffffffffffffffffffff161415801561056957505f80015f9054906101000a900473ffffffffffffffffffffffffffffffffffffffff1673ffffffffffffffffffffffffffffffffffffffff163373ffffffffffffffffffffffffffffffffffffffff1614155b156105a0576040517fdce3812500000000000000000000000000000000000000000000000000000000815260040160405180910390fd5b805f806008015f8373ffffffffffffffffffffffffffffffffffffffff1673ffffffffffffffffffffffffffffffffffffffff1681526020019081526020015f205f01601f9054906101000a900460ff1660ff160361062b576040517fc891add200000000000000000000000000000000000000000000000000000000815260040160405180910390fd5b815f600181111561063f5761063e611cf0565b5b5f6008015f8373ffffffffffffffffffffffffffffffffffffffff1673ffffffffffffffffffffffffffffffffffffffff1681526020019081526020015f205f01601e9054906101000a900460ff1660018111156106a05761069f611cf0565b5b146106d7576040517f0e27a3f700000000000000000000000000000000000000000000000000000000815260040160405180910390fd5b600260ff165f600201601c9054906101000a900460ff1660ff1603610728576040517f37ed32e800000000000000000000000000000000000000000000000000000000815260040160405180910390fd5b60025f600201601c6101000a81548160ff021916908360ff1602179055505f806008015f8573ffffffffffffffffffffffffffffffffffffffff1673ffffffffffffffffffffffffffffffffffffffff1681526020019081526020015f2090505f61079285610d3e565b90505f61080b6107d5845f015f9054906101000a90046cffffffffffffffffffffffffff166cffffffffffffffffffffffffff168461114890919063ffffffff16565b845f01600d9054906101000a90046affffffffffffffffffffff166affffffffffffffffffffff1661115b90919063ffffffff16565b905061081686611184565b81111561084f576040517f67fdb0cb00000000000000000000000000000000000000000000000000000000815260040160405180910390fd5b610861868361085c61120a565b611220565b5f835f01601f9054906101000a900460ff1660ff1690505f845f01600d9054906101000a90046affffffffffffffffffffff169050805f6005015f8481526020019081526020015f205f015f8282829054906101000a90046affffffffffffffffffffff166108d09190611e49565b92506101000a8154816affffffffffffffffffffff02191690836affffffffffffffffffffff1602179055506001855f01601e6101000a81548160ff0219169083600181111561092357610922611cf0565b5b0217905550670de0b6b3a7640000831115610a5e575f61095984836affffffffffffffffffffff1661133890919063ffffffff16565b826109649190611e49565b9050805f6007015f8581526020019081526020015f205f3073ffffffffffffffffffffffffffffffffffffffff1673ffffffffffffffffffffffffffffffffffffffff1681526020019081526020015f205f015f8282829054906101000a90046affffffffffffffffffffff166109db9190611da2565b92506101000a8154816affffffffffffffffffffff02191690836affffffffffffffffffffff16021790555080865f01600d8282829054906101000a90046affffffffffffffffffffff16610a309190611e49565b92506101000a8154816affffffffffffffffffffff02191690836affffffffffffffffffffff160217905550505b50508573ffffffffffffffffffffffffffffffffffffffff167f1b7c24f2ead81c62605e322c9fae410f0b635385a1102efc72915f0dbbfcaa1860405160405180910390a250505060015f600201601c6101000a81548160ff021916908360ff160217905550505050565b5f8290505f8173ffffffffffffffffffffffffffffffffffffffff166370a08231336040518263ffffffff1660e01b8152600401610b079190611e96565b602060405180830381865afa158015610b22573d5f803e3d5ffd5b505050506040513d601f19601f82011682018060405250810190610b469190611ed9565b9050826affffffffffffffffffffff16811015610b8f576040517f7db3adca00000000000000000000000000000000000000000000000000000000815260040160405180910390fd5b8173ffffffffffffffffffffffffffffffffffffffff166379cc679033856040518363ffffffff1660e01b8152600401610bca929190611f04565b5f604051808303815f87803b158015610be1575f80fd5b505af1158015610bf3573d5f803e3d5ffd5b50505050808273ffffffffffffffffffffffffffffffffffffffff166370a08231336040518263ffffffff1660e01b8152600401610c319190611e96565b602060405180830381865afa158015610c4c573d5f803e3d5ffd5b505050506040513d601f19601f82011682018060405250810190610c709190611ed9565b10610c7e57610c7d611f2b565b5b50505050565b5f610c9c836affffffffffffffffffffff16836113ad565b905092915050565b5f80610cb984670de0b6b3a764000085611492565b90506affffffffffffffffffffff8016811115610d02576040517f2c5211c600000000000000000000000000000000000000000000000000000000815260040160405180910390fd5b8091505092915050565b5f610d156115a4565b60030160029054906101000a900473ffffffffffffffffffffffffffffffffffffffff16905090565b5f80610d486115d0565b90505f816002015f9054906101000a900473ffffffffffffffffffffffffffffffffffffffff1690505f610d7b856115d4565b69ffffffffffffffffffff1690505f836008015f8773ffffffffffffffffffffffffffffffffffffffff1673ffffffffffffffffffffffffffffffffffffffff1681526020019081526020015f206002015f9054906101000a900473ffffffffffffffffffffffffffffffffffffffff1690505f73ffffffffffffffffffffffffffffffffffffffff168173ffffffffffffffffffffffffffffffffffffffff1603610e53576040517fc891add200000000000000000000000000000000000000000000000000000000815260040160405180910390fd5b8273ffffffffffffffffffffffffffffffffffffffff1663feaf968c6040518163ffffffff1660e01b815260040160a060405180830381865afa925050508015610ebb57506040513d601f19601f82011682018060405250810190610eb89190611fca565b60015b611018578273ffffffffffffffffffffffffffffffffffffffff168173ffffffffffffffffffffffffffffffffffffffff1603610f0557610efa611657565b945050505050611143565b5f805f8373ffffffffffffffffffffffffffffffffffffffff1663feaf968c6040518163ffffffff1660e01b815260040160a060405180830381865afa158015610f51573d5f803e3d5ffd5b505050506040513d601f19601f82011682018060405250810190610f759190611fca565b50935050925092505f8369ffffffffffffffffffff161480610f9657505f82145b80610fa057504281115b15610fd6576040517ebfc92100000000000000000000000000000000000000000000000000000000815260040160405180910390fd5b5f610fdf611657565b90505f611005826402540be40086610ff79190612041565b61114890919063ffffffff16565b9050809950505050505050505050611143565b8773ffffffffffffffffffffffffffffffffffffffff168673ffffffffffffffffffffffffffffffffffffffff1603611096575f808513611059575f611073565b6110726402540be4008661106d9190612041565b611839565b5b90506110828887878685611861565b9050809a5050505050505050505050611143565b5f805f8873ffffffffffffffffffffffffffffffffffffffff1663feaf968c6040518163ffffffff1660e01b815260040160a060405180830381865afa1580156110e2573d5f803e3d5ffd5b505050506040513d601f19601f820116820180604052508101906111069190611fca565b50935050925092505f6111228884611b1590919063ffffffff16565b9050611132848a858b868b611b31565b809d50505050505050505050505050505b919050565b5f61115383836113ad565b905092915050565b5f61117c836affffffffffffffffffffff16670de0b6b3a764000084611492565b905092915050565b5f8061118e6115d0565b90506064670de0b6b3a7640000826008015f8673ffffffffffffffffffffffffffffffffffffffff1673ffffffffffffffffffffffffffffffffffffffff1681526020019081526020015f2060010160049054906101000a900460ff1660ff166111f891906120b7565b6112029190612125565b915050919050565b5f6362f6fc654261121b9190612155565b905090565b5f6112296115d0565b90508269ffffffffffffffffffff1681600a015f8673ffffffffffffffffffffffffffffffffffffffff1673ffffffffffffffffffffffffffffffffffffffff1681526020019081526020015f205f600160ff1661ffff1681526020019081526020015f205f015f6101000a8154816affffffffffffffffffffff02191690836affffffffffffffffffffff1602179055508181600a015f8673ffffffffffffffffffffffffffffffffffffffff1673ffffffffffffffffffffffffffffffffffffffff1681526020019081526020015f205f600160ff1661ffff1681526020019081526020015f205f01601c6101000a81548163ffffffff021916908363ffffffff16021790555050505050565b5f8061135a846affffffffffffffffffffff16670de0b6b3a764000085611492565b90506affffffffffffffffffffff80168111156113a3576040517f2c5211c600000000000000000000000000000000000000000000000000000000815260040160405180910390fd5b8091505092915050565b5f805f80198486098486029250828110838203039150505f81036113ed57670de0b6b3a764000082816113e3576113e26120f8565b5b049250505061148c565b670de0b6b3a7640000811061143b5784846040517f5173648d000000000000000000000000000000000000000000000000000000008152600401611432929190612197565b60405180910390fd5b5f670de0b6b3a764000085870990507faccb18165bd6fe31ae1cf318dc5b51eee0e1ba569b88cd74c1773b91fac10669600162040000805f0304018483118403026204000083860304170293505050505b92915050565b5f805f80198587098587029250828110838203039150505f81036114ca578382816114c0576114bf6120f8565b5b049250505061159d565b838110611512578585856040517f63a05778000000000000000000000000000000000000000000000000000000008152600401611509939291906121be565b60405180910390fd5b5f8486880990508281118203915080830392505f6001861901861690505f81870496508185049450600182835f0304019050808402851794505f60028860030218905080880260020381029050808802600203810290508088026002038102905080880260020381029050808802600203810290508088026002038102905080860296505050505050505b9392505050565b5f807fc8fcad8db84d3cc18b4c41d551ea0ee66dd599cde068d998e57d5e09332c131c90508091505090565b5f90565b5f806115de6115d0565b905080600a015f8473ffffffffffffffffffffffffffffffffffffffff1673ffffffffffffffffffffffffffffffffffffffff1681526020019081526020015f205f600160ff1661ffff1681526020019081526020015f205f015f9054906101000a90046affffffffffffffffffffff16915050919050565b5f803073ffffffffffffffffffffffffffffffffffffffff16630b545214670de0b6b3a76400006107086040518363ffffffff1660e01b815260040161169e929190612265565b602060405180830381865afa1580156116b9573d5f803e3d5ffd5b505050506040513d601f19601f820116820180604052508101906116dd9190611ed9565b90505f8103611718576040517fca91730a00000000000000000000000000000000000000000000000000000000815260040160405180910390fd5b5f73c02aaa39b223fe8d0a0e5c4f27ead9083c756cc290505f8173ffffffffffffffffffffffffffffffffffffffff166370a082317388e6a0c2ddd26feeb64f039a2c41296fcb3f56406040518263ffffffff1660e01b815260040161177e9190611e96565b602060405180830381865afa158015611799573d5f803e3d5ffd5b505050506040513d601f19601f820116820180604052508101906117bd9190611ed9565b905068056bc75e2d63100000811015611802576040517f05f4eec200000000000000000000000000000000000000000000000000000000815260040160405180910390fd5b5f620f4240670de0b6b3a764000061181a9190612125565b8461182591906120b7565b905061183081611839565b94505050505090565b5f816ec097ce7bc90715b34b9f100000000081611859576118586120f8565b5b049050919050565b5f805f8669ffffffffffffffffffff16148061187c57505f84145b8061188657504284115b8061189157505f8513155b806118a8575083611c206118a5919061228c565b42115b90505f8784116118c35783886118be9190612155565b6118d0565b87846118cf9190612155565b5b90505f80891180156118fb57506706f05b59d3b200006118f98a84611b1590919063ffffffff16565b115b905082156119155761190b611657565b9350505050611b0c565b8015611b05573073ffffffffffffffffffffffffffffffffffffffff16630b545214670de0b6b3a76400006107086040518363ffffffff1660e01b8152600401611960929190612265565b602060405180830381865afa92505050801561199a57506040513d601f19601f820116820180604052508101906119979190611ed9565b60015b6119a957849350505050611b0c565b5f81036119bc5785945050505050611b0c565b5f620f4240670de0b6b3a76400006119d49190612125565b826119df91906120b7565b90505f6119eb82611839565b90505f8c8211611a0657818d611a019190612155565b611a13565b8c82611a129190612155565b5b9050808611611a2b5788975050505050505050611b0c565b5f73c02aaa39b223fe8d0a0e5c4f27ead9083c756cc290505f8173ffffffffffffffffffffffffffffffffffffffff166370a082317388e6a0c2ddd26feeb64f039a2c41296fcb3f56406040518263ffffffff1660e01b8152600401611a919190611e96565b602060405180830381865afa158015611aac573d5f803e3d5ffd5b505050506040513d601f19601f82011682018060405250810190611ad09190611ed9565b905068056bc75e2d63100000811015611af4578a9950505050505050505050611b0c565b839950505050505050505050611b0c565b8493505050505b95945050505050565b5f611b2983670de0b6b3a764000084611492565b905092915050565b5f808769ffffffffffffffffffff161480611b4b57505f83145b80611b5557504283115b80611b6057505f8513155b80611b7657505f8669ffffffffffffffffffff16145b80611b8057505f82145b80611b8a57504282115b80611b9557505f8413155b90508015611bce576040517ebfc92100000000000000000000000000000000000000000000000000000000815260040160405180910390fd5b50505050505050565b5f80fd5b5f73ffffffffffffffffffffffffffffffffffffffff82169050919050565b5f611c0482611bdb565b9050919050565b611c1481611bfa565b8114611c1e575f80fd5b50565b5f81359050611c2f81611c0b565b92915050565b5f6affffffffffffffffffffff82169050919050565b611c5481611c35565b8114611c5e575f80fd5b50565b5f81359050611c6f81611c4b565b92915050565b5f805f60608486031215611c8c57611c8b611bd7565b5b5f611c9986828701611c21565b9350506020611caa86828701611c61565b9250506040611cbb86828701611c61565b9150509250925092565b5f60208284031215611cda57611cd9611bd7565b5b5f611ce784828501611c21565b91505092915050565b7f4e487b71000000000000000000000000000000000000000000000000000000005f52602160045260245ffd5b5f6cffffffffffffffffffffffffff82169050919050565b7f4e487b71000000000000000000000000000000000000000000000000000000005f52601160045260245ffd5b5f611d6c82611d1d565b9150611d7783611d1d565b925082820390506cffffffffffffffffffffffffff811115611d9c57611d9b611d35565b5b92915050565b5f611dac82611c35565b9150611db783611c35565b925082820190506affffffffffffffffffffff811115611dda57611dd9611d35565b5b92915050565b5f819050919050565b5f819050919050565b5f611e0c611e07611e0284611c35565b611de9565b611de0565b9050919050565b611e1c81611df2565b82525050565b5f604082019050611e355f830185611e13565b611e426020830184611e13565b9392505050565b5f611e5382611c35565b9150611e5e83611c35565b925082820390506affffffffffffffffffffff811115611e8157611e80611d35565b5b92915050565b611e9081611bfa565b82525050565b5f602082019050611ea95f830184611e87565b92915050565b611eb881611de0565b8114611ec2575f80fd5b50565b5f81519050611ed381611eaf565b92915050565b5f60208284031215611eee57611eed611bd7565b5b5f611efb84828501611ec5565b91505092915050565b5f604082019050611f175f830185611e87565b611f246020830184611e13565b9392505050565b7f4e487b71000000000000000000000000000000000000000000000000000000005f52600160045260245ffd5b5f69ffffffffffffffffffff82169050919050565b611f7681611f58565b8114611f80575f80fd5b50565b5f81519050611f9181611f6d565b92915050565b5f819050919050565b611fa981611f97565b8114611fb3575f80fd5b50565b5f81519050611fc481611fa0565b92915050565b5f805f805f60a08688031215611fe357611fe2611bd7565b5b5f611ff088828901611f83565b955050602061200188828901611fb6565b945050604061201288828901611ec5565b935050606061202388828901611ec5565b925050608061203488828901611f83565b9150509295509295909350565b5f61204b82611f97565b915061205683611f97565b925082820261206481611f97565b91507f800000000000000000000000000000000000000000000000000000000000000084145f8412161561209b5761209a611d35565b5b82820584148315176120b0576120af611d35565b5b5092915050565b5f6120c182611de0565b91506120cc83611de0565b92508282026120da81611de0565b915082820484148315176120f1576120f0611d35565b5b5092915050565b7f4e487b71000000000000000000000000000000000000000000000000000000005f52601260045260245ffd5b5f61212f82611de0565b915061213a83611de0565b92508261214a576121496120f8565b5b828204905092915050565b5f61215f82611de0565b915061216a83611de0565b925082820390508181111561218257612181611d35565b5b92915050565b61219181611de0565b82525050565b5f6040820190506121aa5f830185612188565b6121b76020830184612188565b9392505050565b5f6060820190506121d15f830186612188565b6121de6020830185612188565b6121eb6040830184612188565b949350505050565b5f6fffffffffffffffffffffffffffffffff82169050919050565b612217816121f3565b82525050565b5f819050919050565b5f63ffffffff82169050919050565b5f61224f61224a6122458461221d565b611de9565b612226565b9050919050565b61225f81612235565b82525050565b5f6040820190506122785f83018561220e565b6122856020830184612256565b9392505050565b5f61229682611de0565b91506122a183611de0565b92508282019050808211156122b9576122b8611d35565b5b9291505056fea2646970667358221220358b292298f5109f0e4aaec9712c47a293a3d9e7bfd064d83a7fbf6993fb20db64736f6c63430008150033","linkReferences":{}},"methodIdentifiers":{"redeemErc(address,uint88,uint88)":"005b6317","shutdownMarket(address)":"2bf34f79"},"id":12}