{"abi":[{"type":"constructor","inputs":[{"name":"_ditto","type":"address","internalType":"address"},{"name":"_dittoTargetCR","type":"uint256","internalType":"uint256"}],"stateMutability":"nonpayable"},{"type":"function","name":"_updateYieldDiamond","inputs":[{"name":"vault","type":"uint256","internalType":"uint256"}],"outputs":[],"stateMutability":"nonpayable"},{"type":"function","name":"claimDittoMatchedReward","inputs":[{"name":"vault","type":"uint256","internalType":"uint256"}],"outputs":[],"stateMutability":"nonpayable"},{"type":"function","name":"distributeYield","inputs":[{"name":"assets","type":"address[]","internalType":"address[]"}],"outputs":[],"stateMutability":"nonpayable"},{"type":"function","name":"updateYield","inputs":[{"name":"vault","type":"uint256","internalType":"uint256"}],"outputs":[],"stateMutability":"nonpayable"},{"type":"function","name":"withdrawDittoReward","inputs":[{"name":"vault","type":"uint256","internalType":"uint256"}],"outputs":[],"stateMutability":"nonpayable"},{"type":"event","name":"ClaimDittoMatchedReward","inputs":[{"name":"vault","type":"uint256","indexed":true,"internalType":"uint256"},{"name":"user","type":"address","indexed":true,"internalType":"address"}],"anonymous":false},{"type":"event","name":"DistributeYield","inputs":[{"name":"vault","type":"uint256","indexed":true,"internalType":"uint256"},{"name":"user","type":"address","indexed":true,"internalType":"address"},{"name":"yieldAmount","type":"uint256","indexed":false,"internalType":"uint256"},{"name":"dittoYieldShares","type":"uint256","indexed":false,"internalType":"uint256"}],"anonymous":false},{"type":"event","name":"UpdateYield","inputs":[{"name":"vault","type":"uint256","indexed":true,"internalType":"uint256"}],"anonymous":false},{"type":"error","name":"DifferentVaults","inputs":[]},{"type":"error","name":"InvalidAmount","inputs":[]},{"type":"error","name":"InvalidAsset","inputs":[]},{"type":"error","name":"NoDittoReward","inputs":[]},{"type":"error","name":"NoShares","inputs":[]},{"type":"error","name":"NoYield","inputs":[]},{"type":"error","name":"NotDiamond","inputs":[]},{"type":"error","name":"PRBMath_MulDiv18_Overflow","inputs":[{"name":"x","type":"uint256","internalType":"uint256"},{"name":"y","type":"uint256","internalType":"uint256"}]},{"type":"error","name":"PRBMath_MulDiv_Overflow","inputs":[{"name":"x","type":"uint256","internalType":"uint256"},{"name":"y","type":"uint256","internalType":"uint256"},{"name":"denominator","type":"uint256","internalType":"uint256"}]},{"type":"error","name":"ReentrantCall","inputs":[]}],"bytecode":{"object":"0x60c060405234801562000010575f80fd5b506040516200272c3803806200272c833981810160405281019062000036919062000117565b8173ffffffffffffffffffffffffffffffffffffffff1660808173ffffffffffffffffffffffffffffffffffffffff16815250508060a0818152505050506200015c565b5f80fd5b5f73ffffffffffffffffffffffffffffffffffffffff82169050919050565b5f620000a9826200007e565b9050919050565b620000bb816200009d565b8114620000c6575f80fd5b50565b5f81519050620000d981620000b0565b92915050565b5f819050919050565b620000f381620000df565b8114620000fe575f80fd5b50565b5f815190506200011181620000e8565b92915050565b5f806040838503121562000130576200012f6200007a565b5b5f6200013f85828601620000c9565b9250506020620001528582860162000101565b9150509250929050565b60805160a0516125ae6200017e5f395f6110f801525f61067401526125ae5ff3fe608060405234801561000f575f80fd5b5060043610610054575f3560e01c80629d26aa146100585780632e9a1de114610074578063539baa731461009057806393d7a51e146100ac578063ce3d77f7146100c8575b5f80fd5b610072600480360381019061006d9190611f51565b6100e4565b005b61008e60048036038101906100899190611f51565b610182565b005b6100aa60048036038101906100a59190611fdd565b610248565b005b6100c660048036038101906100c19190611f51565b610511565b005b6100e260048036038101906100dd9190611f51565b61071d565b005b3073ffffffffffffffffffffffffffffffffffffffff163373ffffffffffffffffffffffffffffffffffffffff1614610149576040517fd04b63aa00000000000000000000000000000000000000000000000000000000815260040160405180910390fd5b61015281610bd6565b807f9ab6b10346b6b8a9fabe0f99391f506eaa7d013773daabad99706638118ecdfc60405160405180910390a250565b600260ff165f600201601c9054906101000a900460ff1660ff16036101d3576040517f37ed32e800000000000000000000000000000000000000000000000000000000815260040160405180910390fd5b60025f600201601c6101000a81548160ff021916908360ff1602179055506101fa81610bd6565b807f9ab6b10346b6b8a9fabe0f99391f506eaa7d013773daabad99706638118ecdfc60405160405180910390a260015f600201601c6101000a81548160ff021916908360ff16021790555050565b600260ff165f600201601c9054906101000a900460ff1660ff1603610299576040517f37ed32e800000000000000000000000000000000000000000000000000000000815260040160405180910390fd5b60025f600201601c6101000a81548160ff021916908360ff1602179055505f8282905090505f806008015f85855f8181106102d7576102d6612028565b5b90506020020160208101906102ec91906120af565b73ffffffffffffffffffffffffffffffffffffffff1673ffffffffffffffffffffffffffffffffffffffff1681526020019081526020015f205f01601f9054906101000a900460ff1660ff1690505f8061036c86865f81811061035257610351612028565b5b905060200201602081019061036791906120af565b610fbb565b915091505f600190505b8481101561048e57835f6008015f89898581811061039757610396612028565b5b90506020020160208101906103ac91906120af565b73ffffffffffffffffffffffffffffffffffffffff1673ffffffffffffffffffffffffffffffffffffffff1681526020019081526020015f205f01601f9054906101000a900460ff1660ff161461042f576040517fb910808a00000000000000000000000000000000000000000000000000000000815260040160405180910390fd5b5f8061046189898581811061044757610446612028565b5b905060200201602081019061045c91906120af565b610fbb565b915091508185610471919061211d565b9450808461047f919061215b565b93508260010192505050610376565b5061049a83838361160c565b3373ffffffffffffffffffffffffffffffffffffffff16837f0b610b2b11de71b9aaaf36911e0b529cd822aa5f73a5c3d567d998b11240a77884846040516104e39291906121d6565b60405180910390a35050505060015f600201601c6101000a81548160ff021916908360ff1602179055505050565b600260ff165f600201601c9054906101000a900460ff1660ff1603610562576040517f37ed32e800000000000000000000000000000000000000000000000000000000815260040160405180910390fd5b60025f600201601c6101000a81548160ff021916908360ff1602179055505f806007015f8381526020019081526020015f205f3373ffffffffffffffffffffffffffffffffffffffff1673ffffffffffffffffffffffffffffffffffffffff1681526020019081526020015f2090505f815f0160169054906101000a900469ffffffffffffffffffff1669ffffffffffffffffffff16905060018111610634576040517fe3642b9f00000000000000000000000000000000000000000000000000000000815260040160405180910390fd5b60018161064191906121fd565b90506001825f0160166101000a81548169ffffffffffffffffffff021916908369ffffffffffffffffffff1602179055507f000000000000000000000000000000000000000000000000000000000000000073ffffffffffffffffffffffffffffffffffffffff166340c10f1933836040518363ffffffff1660e01b81526004016106cd92919061223f565b5f604051808303815f87803b1580156106e4575f80fd5b505af11580156106f6573d5f803e3d5ffd5b50505050505060015f600201601c6101000a81548160ff021916908360ff16021790555050565b600260ff165f600201601c9054906101000a900460ff1660ff160361076e576040517f37ed32e800000000000000000000000000000000000000000000000000000000815260040160405180910390fd5b60025f600201601c6101000a81548160ff021916908360ff1602179055505f806005015f8381526020019081526020015f2090505f806007015f8481526020019081526020015f205f3373ffffffffffffffffffffffffffffffffffffffff1673ffffffffffffffffffffffffffffffffffffffff1681526020019081526020015f2090505f815f01600b9054906101000a90046affffffffffffffffffffff1690506001816affffffffffffffffffffff1611610858576040517fb317087b00000000000000000000000000000000000000000000000000000000815260040160405180910390fd5b6001816108659190612266565b90505f62015180610874611833565b61087e91906122e0565b63ffffffff1690505f84600201601e9054906101000a900461ffff1661ffff16826108a991906121fd565b90505f6108d56108b888611849565b62015180846108c79190612310565b6118a590919063ffffffff16565b8660020160109054906101000a90046bffffffffffffffffffffffff166bffffffffffffffffffffffff1661090a919061215b565b90505f866002015f9054906101000a90046fffffffffffffffffffffffffffffffff166fffffffffffffffffffffffffffffffff1690505f6109748261096685896affffffffffffffffffffff166118b890919063ffffffff16565b6118d890919063ffffffff16565b90505f84111561099e578488600201601e6101000a81548161ffff021916908361ffff1602179055505b856affffffffffffffffffffff16886002015f8282829054906101000a90046fffffffffffffffffffffffffffffffff166109d9919061236c565b92506101000a8154816fffffffffffffffffffffffffffffffff02191690836fffffffffffffffffffffffffffffffff1602179055506bffffffffffffffffffffffff80168184610a2a91906121fd565b1115610a62576040517f2c5211c600000000000000000000000000000000000000000000000000000000815260040160405180910390fd5b8083610a6e91906121fd565b8860020160106101000a8154816bffffffffffffffffffffffff02191690836bffffffffffffffffffffffff1602179055506001875f01600b6101000a8154816affffffffffffffffffffff02191690836affffffffffffffffffffff16021790555069ffffffffffffffffffff8016811115610b17576040517f2c5211c600000000000000000000000000000000000000000000000000000000815260040160405180910390fd5b80875f0160168282829054906101000a900469ffffffffffffffffffff16610b3f91906123c4565b92506101000a81548169ffffffffffffffffffff021916908369ffffffffffffffffffff1602179055503373ffffffffffffffffffffffffffffffffffffffff16897fbc0cb505b8ff606c33d3baf9f61b5bdc270fee0dfefe0a0efd55452109056ca760405160405180910390a3505050505050505060015f600201601c6101000a81548160ff021916908360ff16021790555050565b5f610bdf6118f4565b90505f816005015f8481526020019081526020015f2090505f826007015f8581526020019081526020015f205f3073ffffffffffffffffffffffffffffffffffffffff1673ffffffffffffffffffffffffffffffffffffffff1681526020019081526020015f2090505f610c52856118f8565b90505f835f01600b9054906101000a90046affffffffffffffffffffff1690505f845f015f9054906101000a90046affffffffffffffffffffff1690505f845f015f9054906101000a90046affffffffffffffffffffff169050826affffffffffffffffffffff16846affffffffffffffffffffff1611610cd95750505050505050610fb8565b5f8385610ce69190612266565b90505f836affffffffffffffffffffff1603610d8d5780865f015f8282829054906101000a90046affffffffffffffffffffff16610d24919061211d565b92506101000a8154816affffffffffffffffffffff02191690836affffffffffffffffffffff16021790555084875f01600b6101000a8154816affffffffffffffffffffff02191690836affffffffffffffffffffff1602179055505050505050505050610fb8565b5f610dda856affffffffffffffffffffff16610dcc856affffffffffffffffffffff16856affffffffffffffffffffff166118b890919063ffffffff16565b6119f490919063ffffffff16565b90508082610de89190612266565b91505f610e13610df78c611a5c565b846affffffffffffffffffffff16611ae890919063ffffffff16565b90508083610e219190612266565b92505f610e51866affffffffffffffffffffff16856affffffffffffffffffffff16611b5490919063ffffffff16565b90505f8169ffffffffffffffffffff1603610e76575050505050505050505050610fb8565b8183610e82919061211d565b895f015f8282829054906101000a90046affffffffffffffffffffff16610ea9919061211d565b92506101000a8154816affffffffffffffffffffff02191690836affffffffffffffffffffff160217905550878a5f01600b6101000a8154816affffffffffffffffffffff02191690836affffffffffffffffffffff160217905550808a5f0160168282829054906101000a900469ffffffffffffffffffff16610f2d91906123c4565b92506101000a81548169ffffffffffffffffffff021916908369ffffffffffffffffffff160217905550838a6001015f8282829054906101000a90046affffffffffffffffffffff16610f80919061211d565b92506101000a8154816affffffffffffffffffffff02191690836affffffffffffffffffffff16021790555050505050505050505050505b50565b5f80825f806008015f8373ffffffffffffffffffffffffffffffffffffffff1673ffffffffffffffffffffffffffffffffffffffff1681526020019081526020015f205f01601f9054906101000a900460ff1660ff1603611048576040517fc891add200000000000000000000000000000000000000000000000000000000815260040160405180910390fd5b5f806008015f8673ffffffffffffffffffffffffffffffffffffffff1673ffffffffffffffffffffffffffffffffffffffff1681526020019081526020015f205f01601f9054906101000a900460ff1660ff1690505f806005015f8381526020019081526020015f205f0160169054906101000a900469ffffffffffffffffffff1690505f6110d5611833565b63ffffffff1690505f6110e788611bc8565b69ffffffffffffffffffff1690505f7f000000000000000000000000000000000000000000000000000000000000000090505f80600d015f8b73ffffffffffffffffffffffffffffffffffffffff1673ffffffffffffffffffffffffffffffffffffffff1681526020019081526020015f205f3373ffffffffffffffffffffffffffffffffffffffff1673ffffffffffffffffffffffffffffffffffffffff1681526020019081526020015f205f600160ff1660ff1681526020019081526020015f2060010160039054906101000a900460ff1690505b600115611600575f80600d015f8c73ffffffffffffffffffffffffffffffffffffffff1673ffffffffffffffffffffffffffffffffffffffff1681526020019081526020015f205f3373ffffffffffffffffffffffffffffffffffffffff1673ffffffffffffffffffffffffffffffffffffffff1681526020019081526020015f205f8360ff1660ff1681526020019081526020015f2090505f603c82600101600c9054906101000a900463ffffffff1663ffffffff168761128091906121fd565b11905060028081111561129657611295612401565b5b826001015f9054906101000a900460ff1660028111156112b9576112b8612401565b5b141580156112c45750805b156115b9575f611333835f0160169054906101000a900469ffffffffffffffffffff16896112f2919061242e565b69ffffffffffffffffffff16845f015f9054906101000a90046affffffffffffffffffffff166affffffffffffffffffffff16611ae890919063ffffffff16565b9050808c611341919061211d565b9b5087835f0160166101000a81548169ffffffffffffffffffff021916908369ffffffffffffffffffff1602179055505f61154d8785604051806101400160405290815f82015f9054906101000a90046affffffffffffffffffffff166affffffffffffffffffffff166affffffffffffffffffffff1681526020015f8201600b9054906101000a90046affffffffffffffffffffff166affffffffffffffffffffff166affffffffffffffffffffff1681526020015f820160169054906101000a900469ffffffffffffffffffff1669ffffffffffffffffffff1669ffffffffffffffffffff168152602001600182015f9054906101000a900460ff16600281111561145157611450612401565b5b600281111561146357611462612401565b5b81526020016001820160019054906101000a900460ff1660ff1660ff1681526020016001820160029054906101000a900460ff1660ff1660ff1681526020016001820160039054906101000a900460ff1660ff1660ff1681526020016001820160049054906101000a900467ffffffffffffffff1667ffffffffffffffff1667ffffffffffffffff16815260200160018201600c9054906101000a900463ffffffff1663ffffffff1663ffffffff1681526020016001820160109054906101000a900464ffffffffff1664ffffffffff1664ffffffffff1681525050611c4b90919063ffffffff16565b905085811161157657816affffffffffffffffffffff168c61156f919061215b565b9b506115b6565b6115a88161159a88856affffffffffffffffffffff166118b890919063ffffffff16565b6118d890919063ffffffff16565b8c6115b3919061215b565b9b505b50505b600160ff168260010160039054906101000a900460ff1660ff1611156115f2578160010160039054906101000a900460ff1692506115f9565b5050611600565b50506111be565b50505050505050915091565b5f806005015f8581526020019081526020015f2090505f806007015f8681526020019081526020015f205f3373ffffffffffffffffffffffffffffffffffffffff1673ffffffffffffffffffffffffffffffffffffffff1681526020019081526020015f2090506001846affffffffffffffffffffff16116116ba576040517fbbd783bd00000000000000000000000000000000000000000000000000000000815260040160405180910390fd5b83815f015f8282829054906101000a90046affffffffffffffffffffff166116e2919061211d565b92506101000a8154816affffffffffffffffffffff02191690836affffffffffffffffffffff1602179055505f611717611833565b63ffffffff1690505f61173b61172c88611c9a565b836118a590919063ffffffff16565b90505f846001015f9054906101000a90046affffffffffffffffffffff166affffffffffffffffffffff1690505f61178e82611780858a6118a590919063ffffffff16565b6118d890919063ffffffff16565b905069ffffffffffffffffffff80168111156117d6576040517f2c5211c600000000000000000000000000000000000000000000000000000000815260040160405180910390fd5b80855f0160168282829054906101000a900469ffffffffffffffffffff166117fe91906123c4565b92506101000a81548169ffffffffffffffffffff021916908369ffffffffffffffffffff160217905550505050505050505050565b5f6362f6fc654261184491906121fd565b905090565b5f806118536118f4565b90506064670de0b6b3a7640000826005015f8681526020019081526020015f20600201601c9054906101000a900461ffff1661ffff166118939190612310565b61189d919061246b565b915050919050565b5f6118b08383611cf6565b905092915050565b5f6118d0836affffffffffffffffffffff1683611cf6565b905092915050565b5f6118ec83670de0b6b3a764000084611ddb565b905092915050565b5f90565b5f806119026118f4565b90505f816006015f8581526020019081526020015f2090505f818054905090505f5b818110156119eb5782818154811061193f5761193e612028565b5b905f5260205f20015f9054906101000a900473ffffffffffffffffffffffffffffffffffffffff1673ffffffffffffffffffffffffffffffffffffffff16631e70f1956040518163ffffffff1660e01b8152600401602060405180830381865afa1580156119af573d5f803e3d5ffd5b505050506040513d601f19601f820116820180604052508101906119d391906124af565b856119de919061215b565b9450806001019050611924565b50505050919050565b5f80611a0984670de0b6b3a764000085611ddb565b90506affffffffffffffffffffff8016811115611a52576040517f2c5211c600000000000000000000000000000000000000000000000000000000815260040160405180910390fd5b8091505092915050565b5f80611a666118f4565b9050612710670de0b6b3a7640000826005015f8681526020019081526020015f20600101600f9054906101000a900461ffff16836005015f8781526020019081526020015f20600101600b9054906101000a900461ffff16611ac891906124e7565b61ffff16611ad69190612310565b611ae0919061246b565b915050919050565b5f80611b01846affffffffffffffffffffff1684611cf6565b90506affffffffffffffffffffff8016811115611b4a576040517f2c5211c600000000000000000000000000000000000000000000000000000000815260040160405180910390fd5b8091505092915050565b5f80611b76846affffffffffffffffffffff16670de0b6b3a764000085611ddb565b905069ffffffffffffffffffff8016811115611bbe576040517f2c5211c600000000000000000000000000000000000000000000000000000000815260040160405180910390fd5b8091505092915050565b5f80611bd26118f4565b905080600a015f8473ffffffffffffffffffffffffffffffffffffffff1673ffffffffffffffffffffffffffffffffffffffff1681526020019081526020015f205f600160ff1661ffff1681526020019081526020015f205f015f9054906101000a90046affffffffffffffffffffff16915050919050565b5f611c92611c738385602001516affffffffffffffffffffff166118b890919063ffffffff16565b845f01516affffffffffffffffffffff16611eed90919063ffffffff16565b905092915050565b5f80611ca46118f4565b90506064670de0b6b3a7640000826005015f8681526020019081526020015f20600101600d9054906101000a900461ffff1661ffff16611ce49190612310565b611cee919061246b565b915050919050565b5f805f80198486098486029250828110838203039150505f8103611d3657670de0b6b3a76400008281611d2c57611d2b6122b3565b5b0492505050611dd5565b670de0b6b3a76400008110611d845784846040517f5173648d000000000000000000000000000000000000000000000000000000008152600401611d7b92919061251c565b60405180910390fd5b5f670de0b6b3a764000085870990507faccb18165bd6fe31ae1cf318dc5b51eee0e1ba569b88cd74c1773b91fac10669600162040000805f0304018483118403026204000083860304170293505050505b92915050565b5f805f80198587098587029250828110838203039150505f8103611e1357838281611e0957611e086122b3565b5b0492505050611ee6565b838110611e5b578585856040517f63a05778000000000000000000000000000000000000000000000000000000008152600401611e5293929190612543565b60405180910390fd5b5f8486880990508281118203915080830392505f6001861901861690505f81870496508185049450600182835f0304019050808402851794505f60028860030218905080880260020381029050808802600203810290508088026002038102905080880260020381029050808802600203810290508088026002038102905080860296505050505050505b9392505050565b5f611f0e836affffffffffffffffffffff16670de0b6b3a764000084611ddb565b905092915050565b5f80fd5b5f80fd5b5f819050919050565b611f3081611f1e565b8114611f3a575f80fd5b50565b5f81359050611f4b81611f27565b92915050565b5f60208284031215611f6657611f65611f16565b5b5f611f7384828501611f3d565b91505092915050565b5f80fd5b5f80fd5b5f80fd5b5f8083601f840112611f9d57611f9c611f7c565b5b8235905067ffffffffffffffff811115611fba57611fb9611f80565b5b602083019150836020820283011115611fd657611fd5611f84565b5b9250929050565b5f8060208385031215611ff357611ff2611f16565b5b5f83013567ffffffffffffffff8111156120105761200f611f1a565b5b61201c85828601611f88565b92509250509250929050565b7f4e487b71000000000000000000000000000000000000000000000000000000005f52603260045260245ffd5b5f73ffffffffffffffffffffffffffffffffffffffff82169050919050565b5f61207e82612055565b9050919050565b61208e81612074565b8114612098575f80fd5b50565b5f813590506120a981612085565b92915050565b5f602082840312156120c4576120c3611f16565b5b5f6120d18482850161209b565b91505092915050565b5f6affffffffffffffffffffff82169050919050565b7f4e487b71000000000000000000000000000000000000000000000000000000005f52601160045260245ffd5b5f612127826120da565b9150612132836120da565b925082820190506affffffffffffffffffffff811115612155576121546120f0565b5b92915050565b5f61216582611f1e565b915061217083611f1e565b9250828201905080821115612188576121876120f0565b5b92915050565b5f819050919050565b5f6121b16121ac6121a7846120da565b61218e565b611f1e565b9050919050565b6121c181612197565b82525050565b6121d081611f1e565b82525050565b5f6040820190506121e95f8301856121b8565b6121f660208301846121c7565b9392505050565b5f61220782611f1e565b915061221283611f1e565b925082820390508181111561222a576122296120f0565b5b92915050565b61223981612074565b82525050565b5f6040820190506122525f830185612230565b61225f60208301846121c7565b9392505050565b5f612270826120da565b915061227b836120da565b925082820390506affffffffffffffffffffff81111561229e5761229d6120f0565b5b92915050565b5f63ffffffff82169050919050565b7f4e487b71000000000000000000000000000000000000000000000000000000005f52601260045260245ffd5b5f6122ea826122a4565b91506122f5836122a4565b925082612305576123046122b3565b5b828204905092915050565b5f61231a82611f1e565b915061232583611f1e565b925082820261233381611f1e565b9150828204841483151761234a576123496120f0565b5b5092915050565b5f6fffffffffffffffffffffffffffffffff82169050919050565b5f61237682612351565b915061238183612351565b925082820390506fffffffffffffffffffffffffffffffff8111156123a9576123a86120f0565b5b92915050565b5f69ffffffffffffffffffff82169050919050565b5f6123ce826123af565b91506123d9836123af565b9250828201905069ffffffffffffffffffff8111156123fb576123fa6120f0565b5b92915050565b7f4e487b71000000000000000000000000000000000000000000000000000000005f52602160045260245ffd5b5f612438826123af565b9150612443836123af565b9250828203905069ffffffffffffffffffff811115612465576124646120f0565b5b92915050565b5f61247582611f1e565b915061248083611f1e565b9250826124905761248f6122b3565b5b828204905092915050565b5f815190506124a981611f27565b92915050565b5f602082840312156124c4576124c3611f16565b5b5f6124d18482850161249b565b91505092915050565b5f61ffff82169050919050565b5f6124f1826124da565b91506124fc836124da565b9250828201905061ffff811115612516576125156120f0565b5b92915050565b5f60408201905061252f5f8301856121c7565b61253c60208301846121c7565b9392505050565b5f6060820190506125565f8301866121c7565b61256360208301856121c7565b61257060408301846121c7565b94935050505056fea2646970667358221220059c369cd5184e59b9397a9a78e22a0735b92f8d612c3ffeb7a77b03ef5d672864736f6c63430008150033","linkReferences":{}},"methodIdentifiers":{"_updateYieldDiamond(uint256)":"009d26aa","claimDittoMatchedReward(uint256)":"ce3d77f7","distributeYield(address[])":"539baa73","updateYield(uint256)":"2e9a1de1","withdrawDittoReward(uint256)":"93d7a51e"},"id":25}