{"abi":[{"type":"constructor","inputs":[],"stateMutability":"nonpayable"},{"type":"function","name":"allowance","inputs":[{"name":"owner","type":"address","internalType":"address"},{"name":"spender","type":"address","internalType":"address"}],"outputs":[{"name":"","type":"uint256","internalType":"uint256"}],"stateMutability":"view"},{"type":"function","name":"approve","inputs":[{"name":"spender","type":"address","internalType":"address"},{"name":"amount","type":"uint256","internalType":"uint256"}],"outputs":[{"name":"","type":"bool","internalType":"bool"}],"stateMutability":"nonpayable"},{"type":"function","name":"balanceOf","inputs":[{"name":"account","type":"address","internalType":"address"}],"outputs":[{"name":"","type":"uint256","internalType":"uint256"}],"stateMutability":"view"},{"type":"function","name":"burn","inputs":[{"name":"_rethAmount","type":"uint256","internalType":"uint256"}],"outputs":[],"stateMutability":"nonpayable"},{"type":"function","name":"decimals","inputs":[],"outputs":[{"name":"","type":"uint8","internalType":"uint8"}],"stateMutability":"view"},{"type":"function","name":"decreaseAllowance","inputs":[{"name":"spender","type":"address","internalType":"address"},{"name":"subtractedValue","type":"uint256","internalType":"uint256"}],"outputs":[{"name":"","type":"bool","internalType":"bool"}],"stateMutability":"nonpayable"},{"type":"function","name":"deposit","inputs":[],"outputs":[],"stateMutability":"payable"},{"type":"function","name":"getEthValue","inputs":[{"name":"_rethAmount","type":"uint256","internalType":"uint256"}],"outputs":[{"name":"","type":"uint256","internalType":"uint256"}],"stateMutability":"view"},{"type":"function","name":"getExchangeRate","inputs":[],"outputs":[{"name":"","type":"uint256","internalType":"uint256"}],"stateMutability":"view"},{"type":"function","name":"getRethValue","inputs":[{"name":"_ethAmount","type":"uint256","internalType":"uint256"}],"outputs":[{"name":"","type":"uint256","internalType":"uint256"}],"stateMutability":"view"},{"type":"function","name":"increaseAllowance","inputs":[{"name":"spender","type":"address","internalType":"address"},{"name":"addedValue","type":"uint256","internalType":"uint256"}],"outputs":[{"name":"","type":"bool","internalType":"bool"}],"stateMutability":"nonpayable"},{"type":"function","name":"name","inputs":[],"outputs":[{"name":"","type":"string","internalType":"string"}],"stateMutability":"view"},{"type":"function","name":"submitBalances","inputs":[{"name":"_ethSupply","type":"uint256","internalType":"uint256"},{"name":"_rethSupply","type":"uint256","internalType":"uint256"}],"outputs":[],"stateMutability":"nonpayable"},{"type":"function","name":"symbol","inputs":[],"outputs":[{"name":"","type":"string","internalType":"string"}],"stateMutability":"view"},{"type":"function","name":"totalSupply","inputs":[],"outputs":[{"name":"","type":"uint256","internalType":"uint256"}],"stateMutability":"view"},{"type":"function","name":"transfer","inputs":[{"name":"to","type":"address","internalType":"address"},{"name":"amount","type":"uint256","internalType":"uint256"}],"outputs":[{"name":"","type":"bool","internalType":"bool"}],"stateMutability":"nonpayable"},{"type":"function","name":"transferFrom","inputs":[{"name":"from","type":"address","internalType":"address"},{"name":"to","type":"address","internalType":"address"},{"name":"amount","type":"uint256","internalType":"uint256"}],"outputs":[{"name":"","type":"bool","internalType":"bool"}],"stateMutability":"nonpayable"},{"type":"event","name":"Approval","inputs":[{"name":"owner","type":"address","indexed":true,"internalType":"address"},{"name":"spender","type":"address","indexed":true,"internalType":"address"},{"name":"value","type":"uint256","indexed":false,"internalType":"uint256"}],"anonymous":false},{"type":"event","name":"Transfer","inputs":[{"name":"from","type":"address","indexed":true,"internalType":"address"},{"name":"to","type":"address","indexed":true,"internalType":"address"},{"name":"value","type":"uint256","indexed":false,"internalType":"uint256"}],"anonymous":false}],"bytecode":{"object":"0x6080604052670de0b6b3a7640000600555670de0b6b3a764000060065534801562000028575f80fd5b506040518060400160405280600f81526020017f526f636b657420506f6f6c2045544800000000000000000000000000000000008152506040518060400160405280600481526020017f72455448000000000000000000000000000000000000000000000000000000008152508160039081620000a6919062000325565b508060049081620000b8919062000325565b50505062000409565b5f81519050919050565b7f4e487b71000000000000000000000000000000000000000000000000000000005f52604160045260245ffd5b7f4e487b71000000000000000000000000000000000000000000000000000000005f52602260045260245ffd5b5f60028204905060018216806200013d57607f821691505b602082108103620001535762000152620000f8565b5b50919050565b5f819050815f5260205f209050919050565b5f6020601f8301049050919050565b5f82821b905092915050565b5f60088302620001b77fffffffffffffffffffffffffffffffffffffffffffffffffffffffffffffffff826200017a565b620001c386836200017a565b95508019841693508086168417925050509392505050565b5f819050919050565b5f819050919050565b5f6200020d620002076200020184620001db565b620001e4565b620001db565b9050919050565b5f819050919050565b6200022883620001ed565b62000240620002378262000214565b84845462000186565b825550505050565b5f90565b6200025662000248565b620002638184846200021d565b505050565b5b818110156200028a576200027e5f826200024c565b60018101905062000269565b5050565b601f821115620002d957620002a38162000159565b620002ae846200016b565b81016020851015620002be578190505b620002d6620002cd856200016b565b83018262000268565b50505b505050565b5f82821c905092915050565b5f620002fb5f1984600802620002de565b1980831691505092915050565b5f620003158383620002ea565b9150826002028217905092915050565b6200033082620000c1565b67ffffffffffffffff8111156200034c576200034b620000cb565b5b62000358825462000125565b620003658282856200028e565b5f60209050601f8311600181146200039b575f841562000386578287015190505b62000392858262000308565b86555062000401565b601f198416620003ab8662000159565b5f5b82811015620003d457848901518255600182019150602085019450602081019050620003ad565b86831015620003f45784890151620003f0601f891682620002ea565b8355505b6001600288020188555050505b505050505050565b611cd280620004175f395ff3fe6080604052600436106100fd575f3560e01c806370a0823111610094578063a9059cbb11610063578063a9059cbb14610375578063d0e30db0146103b1578063dd62ed3e146103bb578063e6aa216c146103f7578063ee174ae614610421576100fd565b806370a08231146102975780638b32fa23146102d357806395d89b411461030f578063a457c2d714610339576100fd565b8063313ce567116100d0578063313ce567146101cd57806339509351146101f757806342966c68146102335780634346f03e1461025b576100fd565b806306fdde0314610101578063095ea7b31461012b57806318160ddd1461016757806323b872dd14610191575b5f80fd5b34801561010c575f80fd5b50610115610449565b60405161012291906111c1565b60405180910390f35b348015610136575f80fd5b50610151600480360381019061014c9190611272565b6104d9565b60405161015e91906112ca565b60405180910390f35b348015610172575f80fd5b5061017b6104fb565b60405161018891906112f2565b60405180910390f35b34801561019c575f80fd5b506101b760048036038101906101b2919061130b565b610504565b6040516101c491906112ca565b60405180910390f35b3480156101d8575f80fd5b506101e1610532565b6040516101ee9190611376565b60405180910390f35b348015610202575f80fd5b5061021d60048036038101906102189190611272565b61053a565b60405161022a91906112ca565b60405180910390f35b34801561023e575f80fd5b506102596004803603810190610254919061138f565b610570565b005b348015610266575f80fd5b50610281600480360381019061027c919061138f565b6106a3565b60405161028e91906112f2565b60405180910390f35b3480156102a2575f80fd5b506102bd60048036038101906102b891906113ba565b6106c6565b6040516102ca91906112f2565b60405180910390f35b3480156102de575f80fd5b506102f960048036038101906102f4919061138f565b61070b565b60405161030691906112f2565b60405180910390f35b34801561031a575f80fd5b5061032361072e565b60405161033091906111c1565b60405180910390f35b348015610344575f80fd5b5061035f600480360381019061035a9190611272565b6107be565b60405161036c91906112ca565b60405180910390f35b348015610380575f80fd5b5061039b60048036038101906103969190611272565b610833565b6040516103a891906112ca565b60405180910390f35b6103b9610855565b005b3480156103c6575f80fd5b506103e160048036038101906103dc91906113e5565b6108b0565b6040516103ee91906112f2565b60405180910390f35b348015610402575f80fd5b5061040b610932565b60405161041891906112f2565b60405180910390f35b34801561042c575f80fd5b5061044760048036038101906104429190611423565b610949565b005b6060600380546104589061148e565b80601f01602080910402602001604051908101604052809291908181526020018280546104849061148e565b80156104cf5780601f106104a6576101008083540402835291602001916104cf565b820191905f5260205f20905b8154815290600101906020018083116104b257829003601f168201915b5050505050905090565b5f806104e361095b565b90506104f0818585610962565b600191505092915050565b5f600254905090565b5f8061050e61095b565b905061051b858285610b25565b610526858585610bb0565b60019150509392505050565b5f6012905090565b5f8061054461095b565b905061056581858561055685896108b0565b61056091906114eb565b610962565b600191505092915050565b5f81116105b2576040517f08c379a00000000000000000000000000000000000000000000000000000000081526004016105a990611568565b60405180910390fd5b806105bc336106c6565b10156105fd576040517f08c379a00000000000000000000000000000000000000000000000000000000081526004016105f4906115d0565b60405180910390fd5b5f6106078261070b565b90505f47905081811015610650576040517f08c379a000000000000000000000000000000000000000000000000000000000815260040161064790611638565b60405180910390fd5b61065a3384610e1c565b3373ffffffffffffffffffffffffffffffffffffffff166108fc8390811502906040515f60405180830381858888f1935050505015801561069d573d5f803e3d5ffd5b50505050565b5f600554600654836106b59190611656565b6106bf91906116c4565b9050919050565b5f805f8373ffffffffffffffffffffffffffffffffffffffff1673ffffffffffffffffffffffffffffffffffffffff1681526020019081526020015f20549050919050565b5f6006546005548361071d9190611656565b61072791906116c4565b9050919050565b60606004805461073d9061148e565b80601f01602080910402602001604051908101604052809291908181526020018280546107699061148e565b80156107b45780601f1061078b576101008083540402835291602001916107b4565b820191905f5260205f20905b81548152906001019060200180831161079757829003601f168201915b5050505050905090565b5f806107c861095b565b90505f6107d582866108b0565b90508381101561081a576040517f08c379a000000000000000000000000000000000000000000000000000000000815260040161081190611764565b60405180910390fd5b6108278286868403610962565b60019250505092915050565b5f8061083d61095b565b905061084a818585610bb0565b600191505092915050565b5f61085f346106a3565b90505f81116108a3576040517f08c379a000000000000000000000000000000000000000000000000000000000815260040161089a906117cc565b60405180910390fd5b6108ad3382610fdf565b50565b5f60015f8473ffffffffffffffffffffffffffffffffffffffff1673ffffffffffffffffffffffffffffffffffffffff1681526020019081526020015f205f8373ffffffffffffffffffffffffffffffffffffffff1673ffffffffffffffffffffffffffffffffffffffff1681526020019081526020015f2054905092915050565b5f610944670de0b6b3a764000061070b565b905090565b81600581905550806006819055505050565b5f33905090565b5f73ffffffffffffffffffffffffffffffffffffffff168373ffffffffffffffffffffffffffffffffffffffff16036109d0576040517f08c379a00000000000000000000000000000000000000000000000000000000081526004016109c79061185a565b60405180910390fd5b5f73ffffffffffffffffffffffffffffffffffffffff168273ffffffffffffffffffffffffffffffffffffffff1603610a3e576040517f08c379a0000000000000000000000000000000000000000000000000000000008152600401610a35906118e8565b60405180910390fd5b8060015f8573ffffffffffffffffffffffffffffffffffffffff1673ffffffffffffffffffffffffffffffffffffffff1681526020019081526020015f205f8473ffffffffffffffffffffffffffffffffffffffff1673ffffffffffffffffffffffffffffffffffffffff1681526020019081526020015f20819055508173ffffffffffffffffffffffffffffffffffffffff168373ffffffffffffffffffffffffffffffffffffffff167f8c5be1e5ebec7d5bd14f71427d1e84f3dd0314c0f7b2291e5b200ac8c7c3b92583604051610b1891906112f2565b60405180910390a3505050565b5f610b3084846108b0565b90507fffffffffffffffffffffffffffffffffffffffffffffffffffffffffffffffff8114610baa5781811015610b9c576040517f08c379a0000000000000000000000000000000000000000000000000000000008152600401610b9390611950565b60405180910390fd5b610ba98484848403610962565b5b50505050565b5f73ffffffffffffffffffffffffffffffffffffffff168373ffffffffffffffffffffffffffffffffffffffff1603610c1e576040517f08c379a0000000000000000000000000000000000000000000000000000000008152600401610c15906119de565b60405180910390fd5b5f73ffffffffffffffffffffffffffffffffffffffff168273ffffffffffffffffffffffffffffffffffffffff1603610c8c576040517f08c379a0000000000000000000000000000000000000000000000000000000008152600401610c8390611a6c565b60405180910390fd5b610c9783838361112d565b5f805f8573ffffffffffffffffffffffffffffffffffffffff1673ffffffffffffffffffffffffffffffffffffffff1681526020019081526020015f2054905081811015610d1a576040517f08c379a0000000000000000000000000000000000000000000000000000000008152600401610d1190611afa565b60405180910390fd5b8181035f808673ffffffffffffffffffffffffffffffffffffffff1673ffffffffffffffffffffffffffffffffffffffff1681526020019081526020015f2081905550815f808573ffffffffffffffffffffffffffffffffffffffff1673ffffffffffffffffffffffffffffffffffffffff1681526020019081526020015f205f82825401925050819055508273ffffffffffffffffffffffffffffffffffffffff168473ffffffffffffffffffffffffffffffffffffffff167fddf252ad1be2c89b69c2b068fc378daa952ba7f163c4a11628f55a4df523b3ef84604051610e0391906112f2565b60405180910390a3610e16848484611132565b50505050565b5f73ffffffffffffffffffffffffffffffffffffffff168273ffffffffffffffffffffffffffffffffffffffff1603610e8a576040517f08c379a0000000000000000000000000000000000000000000000000000000008152600401610e8190611b88565b60405180910390fd5b610e95825f8361112d565b5f805f8473ffffffffffffffffffffffffffffffffffffffff1673ffffffffffffffffffffffffffffffffffffffff1681526020019081526020015f2054905081811015610f18576040517f08c379a0000000000000000000000000000000000000000000000000000000008152600401610f0f90611c16565b60405180910390fd5b8181035f808573ffffffffffffffffffffffffffffffffffffffff1673ffffffffffffffffffffffffffffffffffffffff1681526020019081526020015f20819055508160025f82825403925050819055505f73ffffffffffffffffffffffffffffffffffffffff168373ffffffffffffffffffffffffffffffffffffffff167fddf252ad1be2c89b69c2b068fc378daa952ba7f163c4a11628f55a4df523b3ef84604051610fc791906112f2565b60405180910390a3610fda835f84611132565b505050565b5f73ffffffffffffffffffffffffffffffffffffffff168273ffffffffffffffffffffffffffffffffffffffff160361104d576040517f08c379a000000000000000000000000000000000000000000000000000000000815260040161104490611c7e565b60405180910390fd5b6110585f838361112d565b8060025f82825461106991906114eb565b92505081905550805f808473ffffffffffffffffffffffffffffffffffffffff1673ffffffffffffffffffffffffffffffffffffffff1681526020019081526020015f205f82825401925050819055508173ffffffffffffffffffffffffffffffffffffffff165f73ffffffffffffffffffffffffffffffffffffffff167fddf252ad1be2c89b69c2b068fc378daa952ba7f163c4a11628f55a4df523b3ef8360405161111691906112f2565b60405180910390a36111295f8383611132565b5050565b505050565b505050565b5f81519050919050565b5f82825260208201905092915050565b5f5b8381101561116e578082015181840152602081019050611153565b5f8484015250505050565b5f601f19601f8301169050919050565b5f61119382611137565b61119d8185611141565b93506111ad818560208601611151565b6111b681611179565b840191505092915050565b5f6020820190508181035f8301526111d98184611189565b905092915050565b5f80fd5b5f73ffffffffffffffffffffffffffffffffffffffff82169050919050565b5f61120e826111e5565b9050919050565b61121e81611204565b8114611228575f80fd5b50565b5f8135905061123981611215565b92915050565b5f819050919050565b6112518161123f565b811461125b575f80fd5b50565b5f8135905061126c81611248565b92915050565b5f8060408385031215611288576112876111e1565b5b5f6112958582860161122b565b92505060206112a68582860161125e565b9150509250929050565b5f8115159050919050565b6112c4816112b0565b82525050565b5f6020820190506112dd5f8301846112bb565b92915050565b6112ec8161123f565b82525050565b5f6020820190506113055f8301846112e3565b92915050565b5f805f60608486031215611322576113216111e1565b5b5f61132f8682870161122b565b93505060206113408682870161122b565b92505060406113518682870161125e565b9150509250925092565b5f60ff82169050919050565b6113708161135b565b82525050565b5f6020820190506113895f830184611367565b92915050565b5f602082840312156113a4576113a36111e1565b5b5f6113b18482850161125e565b91505092915050565b5f602082840312156113cf576113ce6111e1565b5b5f6113dc8482850161122b565b91505092915050565b5f80604083850312156113fb576113fa6111e1565b5b5f6114088582860161122b565b92505060206114198582860161122b565b9150509250929050565b5f8060408385031215611439576114386111e1565b5b5f6114468582860161125e565b92505060206114578582860161125e565b9150509250929050565b7f4e487b71000000000000000000000000000000000000000000000000000000005f52602260045260245ffd5b5f60028204905060018216806114a557607f821691505b6020821081036114b8576114b7611461565b5b50919050565b7f4e487b71000000000000000000000000000000000000000000000000000000005f52601160045260245ffd5b5f6114f58261123f565b91506115008361123f565b9250828201905080821115611518576115176114be565b5b92915050565b7f496e76616c696420746f6b656e206275726e20616d6f756e74000000000000005f82015250565b5f611552601983611141565b915061155d8261151e565b602082019050919050565b5f6020820190508181035f83015261157f81611546565b9050919050565b7f496e73756666696369656e7420724554482062616c616e6365000000000000005f82015250565b5f6115ba601983611141565b91506115c582611586565b602082019050919050565b5f6020820190508181035f8301526115e7816115ae565b9050919050565b7f496e73756666696369656e742045544820666f722073776170000000000000005f82015250565b5f611622601983611141565b915061162d826115ee565b602082019050919050565b5f6020820190508181035f83015261164f81611616565b9050919050565b5f6116608261123f565b915061166b8361123f565b92508282026116798161123f565b915082820484148315176116905761168f6114be565b5b5092915050565b7f4e487b71000000000000000000000000000000000000000000000000000000005f52601260045260245ffd5b5f6116ce8261123f565b91506116d98361123f565b9250826116e9576116e8611697565b5b828204905092915050565b7f45524332303a2064656372656173656420616c6c6f77616e63652062656c6f775f8201527f207a65726f000000000000000000000000000000000000000000000000000000602082015250565b5f61174e602583611141565b9150611759826116f4565b604082019050919050565b5f6020820190508181035f83015261177b81611742565b9050919050565b7f496e76616c696420746f6b656e206d696e7420616d6f756e74000000000000005f82015250565b5f6117b6601983611141565b91506117c182611782565b602082019050919050565b5f6020820190508181035f8301526117e3816117aa565b9050919050565b7f45524332303a20617070726f76652066726f6d20746865207a65726f206164645f8201527f7265737300000000000000000000000000000000000000000000000000000000602082015250565b5f611844602483611141565b915061184f826117ea565b604082019050919050565b5f6020820190508181035f83015261187181611838565b9050919050565b7f45524332303a20617070726f766520746f20746865207a65726f2061646472655f8201527f7373000000000000000000000000000000000000000000000000000000000000602082015250565b5f6118d2602283611141565b91506118dd82611878565b604082019050919050565b5f6020820190508181035f8301526118ff816118c6565b9050919050565b7f45524332303a20696e73756666696369656e7420616c6c6f77616e63650000005f82015250565b5f61193a601d83611141565b915061194582611906565b602082019050919050565b5f6020820190508181035f8301526119678161192e565b9050919050565b7f45524332303a207472616e736665722066726f6d20746865207a65726f2061645f8201527f6472657373000000000000000000000000000000000000000000000000000000602082015250565b5f6119c8602583611141565b91506119d38261196e565b604082019050919050565b5f6020820190508181035f8301526119f5816119bc565b9050919050565b7f45524332303a207472616e7366657220746f20746865207a65726f20616464725f8201527f6573730000000000000000000000000000000000000000000000000000000000602082015250565b5f611a56602383611141565b9150611a61826119fc565b604082019050919050565b5f6020820190508181035f830152611a8381611a4a565b9050919050565b7f45524332303a207472616e7366657220616d6f756e74206578636565647320625f8201527f616c616e63650000000000000000000000000000000000000000000000000000602082015250565b5f611ae4602683611141565b9150611aef82611a8a565b604082019050919050565b5f6020820190508181035f830152611b1181611ad8565b9050919050565b7f45524332303a206275726e2066726f6d20746865207a65726f206164647265735f8201527f7300000000000000000000000000000000000000000000000000000000000000602082015250565b5f611b72602183611141565b9150611b7d82611b18565b604082019050919050565b5f6020820190508181035f830152611b9f81611b66565b9050919050565b7f45524332303a206275726e20616d6f756e7420657863656564732062616c616e5f8201527f6365000000000000000000000000000000000000000000000000000000000000602082015250565b5f611c00602283611141565b9150611c0b82611ba6565b604082019050919050565b5f6020820190508181035f830152611c2d81611bf4565b9050919050565b7f45524332303a206d696e7420746f20746865207a65726f2061646472657373005f82015250565b5f611c68601f83611141565b9150611c7382611c34565b602082019050919050565b5f6020820190508181035f830152611c9581611c5c565b905091905056fea26469706673582212207d8dc52b08710f02bd773a5a28e9f30afa85347e517e7c843c0c3c74f9f3f1e964736f6c63430008150033","linkReferences":{}},"methodIdentifiers":{"allowance(address,address)":"dd62ed3e","approve(address,uint256)":"095ea7b3","balanceOf(address)":"70a08231","burn(uint256)":"42966c68","decimals()":"313ce567","decreaseAllowance(address,uint256)":"a457c2d7","deposit()":"d0e30db0","getEthValue(uint256)":"8b32fa23","getExchangeRate()":"e6aa216c","getRethValue(uint256)":"4346f03e","increaseAllowance(address,uint256)":"39509351","name()":"06fdde03","submitBalances(uint256,uint256)":"ee174ae6","symbol()":"95d89b41","totalSupply()":"18160ddd","transfer(address,uint256)":"a9059cbb","transferFrom(address,address,uint256)":"23b872dd"},"id":57}