{"abi":[{"type":"function","name":"zeroOutLastRedemption","inputs":[],"outputs":[],"stateMutability":"nonpayable"}],"bytecode":{"object":"0x608060405234801561000f575f80fd5b506102518061001d5f395ff3fe608060405234801561000f575f80fd5b5060043610610029575f3560e01c80631d0bfe371461002d575b5f80fd5b610035610037565b005b61003f6100b6565b5f806008015f73d177000a2bc4f4d2246f0527ad74fd4140e029fd73ffffffffffffffffffffffffffffffffffffffff1673ffffffffffffffffffffffffffffffffffffffff1681526020019081526020015f2060010160146101000a81548163ffffffff021916908363ffffffff160217905550565b6100be610151565b60030160029054906101000a900473ffffffffffffffffffffffffffffffffffffffff1673ffffffffffffffffffffffffffffffffffffffff163373ffffffffffffffffffffffffffffffffffffffff161461014f576040517f08c379a0000000000000000000000000000000000000000000000000000000008152600401610146906101fd565b60405180910390fd5b565b5f807fc8fcad8db84d3cc18b4c41d551ea0ee66dd599cde068d998e57d5e09332c131c90508091505090565b5f82825260208201905092915050565b7f4c69624469616d6f6e643a204d75737420626520636f6e7472616374206f776e5f8201527f6572000000000000000000000000000000000000000000000000000000000000602082015250565b5f6101e760228361017d565b91506101f28261018d565b604082019050919050565b5f6020820190508181035f830152610214816101db565b905091905056fea2646970667358221220c0ec507206f941e42081d7f146e20a487dbc1ef794a829a43ba8b0810119309064736f6c63430008150033","linkReferences":{}},"methodIdentifiers":{"zeroOutLastRedemption()":"1d0bfe37"},"id":22}