{"abi":[{"type":"constructor","inputs":[{"name":"asset","type":"address","internalType":"address"}],"stateMutability":"nonpayable"},{"type":"function","name":"currentInactiveAsks","inputs":[{"name":"asset","type":"address","internalType":"address"}],"outputs":[{"name":"","type":"tuple[]","internalType":"struct STypes.Order[]","components":[{"name":"ercAmount","type":"uint88","internalType":"uint88"},{"name":"price","type":"uint80","internalType":"uint80"},{"name":"prevId","type":"uint16","internalType":"uint16"},{"name":"id","type":"uint16","internalType":"uint16"},{"name":"nextId","type":"uint16","internalType":"uint16"},{"name":"orderType","type":"uint8","internalType":"enum O"},{"name":"creationTime","type":"uint32","internalType":"uint32"},{"name":"addr","type":"address","internalType":"address"},{"name":"prevOrderType","type":"uint8","internalType":"enum O"},{"name":"shortOrderCR","type":"uint16","internalType":"uint16"},{"name":"shortRecordId","type":"uint8","internalType":"uint8"},{"name":"filler","type":"uint64","internalType":"uint64"}]}],"stateMutability":"view"},{"type":"function","name":"currentInactiveBids","inputs":[{"name":"asset","type":"address","internalType":"address"}],"outputs":[{"name":"","type":"tuple[]","internalType":"struct STypes.Order[]","components":[{"name":"ercAmount","type":"uint88","internalType":"uint88"},{"name":"price","type":"uint80","internalType":"uint80"},{"name":"prevId","type":"uint16","internalType":"uint16"},{"name":"id","type":"uint16","internalType":"uint16"},{"name":"nextId","type":"uint16","internalType":"uint16"},{"name":"orderType","type":"uint8","internalType":"enum O"},{"name":"creationTime","type":"uint32","internalType":"uint32"},{"name":"addr","type":"address","internalType":"address"},{"name":"prevOrderType","type":"uint8","internalType":"enum O"},{"name":"shortOrderCR","type":"uint16","internalType":"uint16"},{"name":"shortRecordId","type":"uint8","internalType":"uint8"},{"name":"filler","type":"uint64","internalType":"uint64"}]}],"stateMutability":"view"},{"type":"function","name":"deleteBridge","inputs":[{"name":"bridge","type":"address","internalType":"address"}],"outputs":[],"stateMutability":"nonpayable"},{"type":"function","name":"dittoMatchedRate","inputs":[{"name":"vault","type":"uint256","internalType":"uint256"}],"outputs":[{"name":"","type":"uint256","internalType":"uint256"}],"stateMutability":"view"},{"type":"function","name":"dittoShorterRate","inputs":[{"name":"vault","type":"uint256","internalType":"uint256"}],"outputs":[{"name":"","type":"uint256","internalType":"uint256"}],"stateMutability":"view"},{"type":"function","name":"getAskKey","inputs":[{"name":"asset","type":"address","internalType":"address"},{"name":"id","type":"uint16","internalType":"uint16"}],"outputs":[{"name":"prevId","type":"uint16","internalType":"uint16"},{"name":"nextId","type":"uint16","internalType":"uint16"}],"stateMutability":"view"},{"type":"function","name":"getAskOrder","inputs":[{"name":"asset","type":"address","internalType":"address"},{"name":"id","type":"uint16","internalType":"uint16"}],"outputs":[{"name":"ask","type":"tuple","internalType":"struct STypes.Order","components":[{"name":"ercAmount","type":"uint88","internalType":"uint88"},{"name":"price","type":"uint80","internalType":"uint80"},{"name":"prevId","type":"uint16","internalType":"uint16"},{"name":"id","type":"uint16","internalType":"uint16"},{"name":"nextId","type":"uint16","internalType":"uint16"},{"name":"orderType","type":"uint8","internalType":"enum O"},{"name":"creationTime","type":"uint32","internalType":"uint32"},{"name":"addr","type":"address","internalType":"address"},{"name":"prevOrderType","type":"uint8","internalType":"enum O"},{"name":"shortOrderCR","type":"uint16","internalType":"uint16"},{"name":"shortRecordId","type":"uint8","internalType":"uint8"},{"name":"filler","type":"uint64","internalType":"uint64"}]}],"stateMutability":"view"},{"type":"function","name":"getAssetNormalizedStruct","inputs":[{"name":"asset","type":"address","internalType":"address"}],"outputs":[{"name":"","type":"tuple","internalType":"struct TestTypes.AssetNormalizedStruct","components":[{"name":"frozen","type":"uint8","internalType":"enum F"},{"name":"orderId","type":"uint16","internalType":"uint16"},{"name":"initialCR","type":"uint256","internalType":"uint256"},{"name":"liquidationCR","type":"uint256","internalType":"uint256"},{"name":"forcedBidPriceBuffer","type":"uint256","internalType":"uint256"},{"name":"penaltyCR","type":"uint256","internalType":"uint256"},{"name":"tappFeePct","type":"uint256","internalType":"uint256"},{"name":"callerFeePct","type":"uint256","internalType":"uint256"},{"name":"startingShortId","type":"uint16","internalType":"uint16"},{"name":"minBidEth","type":"uint256","internalType":"uint256"},{"name":"minAskEth","type":"uint256","internalType":"uint256"},{"name":"minShortErc","type":"uint256","internalType":"uint256"},{"name":"recoveryCR","type":"uint256","internalType":"uint256"},{"name":"assetId","type":"uint8","internalType":"uint8"}]}],"stateMutability":"view"},{"type":"function","name":"getAssets","inputs":[],"outputs":[{"name":"","type":"address[]","internalType":"address[]"}],"stateMutability":"view"},{"type":"function","name":"getAssetsMapping","inputs":[{"name":"assetId","type":"uint256","internalType":"uint256"}],"outputs":[{"name":"","type":"address","internalType":"address"}],"stateMutability":"view"},{"type":"function","name":"getBidKey","inputs":[{"name":"asset","type":"address","internalType":"address"},{"name":"id","type":"uint16","internalType":"uint16"}],"outputs":[{"name":"prevId","type":"uint16","internalType":"uint16"},{"name":"nextId","type":"uint16","internalType":"uint16"}],"stateMutability":"view"},{"type":"function","name":"getBidOrder","inputs":[{"name":"asset","type":"address","internalType":"address"},{"name":"id","type":"uint16","internalType":"uint16"}],"outputs":[{"name":"bid","type":"tuple","internalType":"struct STypes.Order","components":[{"name":"ercAmount","type":"uint88","internalType":"uint88"},{"name":"price","type":"uint80","internalType":"uint80"},{"name":"prevId","type":"uint16","internalType":"uint16"},{"name":"id","type":"uint16","internalType":"uint16"},{"name":"nextId","type":"uint16","internalType":"uint16"},{"name":"orderType","type":"uint8","internalType":"enum O"},{"name":"creationTime","type":"uint32","internalType":"uint32"},{"name":"addr","type":"address","internalType":"address"},{"name":"prevOrderType","type":"uint8","internalType":"enum O"},{"name":"shortOrderCR","type":"uint16","internalType":"uint16"},{"name":"shortRecordId","type":"uint8","internalType":"uint8"},{"name":"filler","type":"uint64","internalType":"uint64"}]}],"stateMutability":"view"},{"type":"function","name":"getBridgeNormalizedStruct","inputs":[{"name":"bridge","type":"address","internalType":"address"}],"outputs":[{"name":"","type":"tuple","internalType":"struct TestTypes.BridgeNormalizedStruct","components":[{"name":"withdrawalFee","type":"uint256","internalType":"uint256"}]}],"stateMutability":"view"},{"type":"function","name":"getNFT","inputs":[{"name":"tokenId","type":"uint256","internalType":"uint256"}],"outputs":[{"name":"nft","type":"tuple","internalType":"struct STypes.NFT","components":[{"name":"owner","type":"address","internalType":"address"},{"name":"assetId","type":"uint8","internalType":"uint8"},{"name":"shortRecordId","type":"uint8","internalType":"uint8"},{"name":"shortOrderId","type":"uint16","internalType":"uint16"}]}],"stateMutability":"view"},{"type":"function","name":"getNFTName","inputs":[],"outputs":[{"name":"","type":"string","internalType":"string"}],"stateMutability":"view"},{"type":"function","name":"getNFTSymbol","inputs":[],"outputs":[{"name":"","type":"string","internalType":"string"}],"stateMutability":"view"},{"type":"function","name":"getOraclePriceT","inputs":[{"name":"asset","type":"address","internalType":"address"}],"outputs":[{"name":"oraclePrice","type":"uint80","internalType":"uint80"}],"stateMutability":"view"},{"type":"function","name":"getOracleTimeT","inputs":[{"name":"asset","type":"address","internalType":"address"}],"outputs":[{"name":"oracleTime","type":"uint256","internalType":"uint256"}],"stateMutability":"view"},{"type":"function","name":"getReentrantStatus","inputs":[],"outputs":[{"name":"","type":"uint256","internalType":"uint256"}],"stateMutability":"view"},{"type":"function","name":"getShortOrder","inputs":[{"name":"asset","type":"address","internalType":"address"},{"name":"id","type":"uint16","internalType":"uint16"}],"outputs":[{"name":"short","type":"tuple","internalType":"struct STypes.Order","components":[{"name":"ercAmount","type":"uint88","internalType":"uint88"},{"name":"price","type":"uint80","internalType":"uint80"},{"name":"prevId","type":"uint16","internalType":"uint16"},{"name":"id","type":"uint16","internalType":"uint16"},{"name":"nextId","type":"uint16","internalType":"uint16"},{"name":"orderType","type":"uint8","internalType":"enum O"},{"name":"creationTime","type":"uint32","internalType":"uint32"},{"name":"addr","type":"address","internalType":"address"},{"name":"prevOrderType","type":"uint8","internalType":"enum O"},{"name":"shortOrderCR","type":"uint16","internalType":"uint16"},{"name":"shortRecordId","type":"uint8","internalType":"uint8"},{"name":"filler","type":"uint64","internalType":"uint64"}]}],"stateMutability":"view"},{"type":"function","name":"getTokenId","inputs":[],"outputs":[{"name":"tokenId","type":"uint40","internalType":"uint40"}],"stateMutability":"view"},{"type":"function","name":"getUserOrders","inputs":[{"name":"asset","type":"address","internalType":"address"},{"name":"addr","type":"address","internalType":"address"},{"name":"orderType","type":"uint8","internalType":"enum O"}],"outputs":[{"name":"orders","type":"tuple[]","internalType":"struct STypes.Order[]","components":[{"name":"ercAmount","type":"uint88","internalType":"uint88"},{"name":"price","type":"uint80","internalType":"uint80"},{"name":"prevId","type":"uint16","internalType":"uint16"},{"name":"id","type":"uint16","internalType":"uint16"},{"name":"nextId","type":"uint16","internalType":"uint16"},{"name":"orderType","type":"uint8","internalType":"enum O"},{"name":"creationTime","type":"uint32","internalType":"uint32"},{"name":"addr","type":"address","internalType":"address"},{"name":"prevOrderType","type":"uint8","internalType":"enum O"},{"name":"shortOrderCR","type":"uint16","internalType":"uint16"},{"name":"shortRecordId","type":"uint8","internalType":"uint8"},{"name":"filler","type":"uint64","internalType":"uint64"}]}],"stateMutability":"view"},{"type":"function","name":"getWithdrawalFeePct","inputs":[{"name":"bridgePointer","type":"uint256","internalType":"uint256"},{"name":"rethBridge","type":"address","internalType":"address"},{"name":"stethBridge","type":"address","internalType":"address"}],"outputs":[{"name":"","type":"uint256","internalType":"uint256"}],"stateMutability":"view"},{"type":"function","name":"nonZeroVaultSlot0","inputs":[{"name":"vault","type":"uint256","internalType":"uint256"}],"outputs":[],"stateMutability":"nonpayable"},{"type":"function","name":"setAssetOracle","inputs":[{"name":"asset","type":"address","internalType":"address"},{"name":"oracle","type":"address","internalType":"address"}],"outputs":[],"stateMutability":"nonpayable"},{"type":"function","name":"setBaseOracle","inputs":[{"name":"_oracle","type":"address","internalType":"address"}],"outputs":[],"stateMutability":"nonpayable"},{"type":"function","name":"setBaseRate","inputs":[{"name":"asset","type":"address","internalType":"address"},{"name":"baseRate","type":"uint64","internalType":"uint64"}],"outputs":[],"stateMutability":"nonpayable"},{"type":"function","name":"setBridgeCredit","inputs":[{"name":"addr","type":"address","internalType":"address"},{"name":"bridgeCreditReth","type":"uint88","internalType":"uint88"},{"name":"bridgeCreditSteth","type":"uint88","internalType":"uint88"}],"outputs":[],"stateMutability":"nonpayable"},{"type":"function","name":"setDethYieldRate","inputs":[{"name":"vault","type":"uint256","internalType":"uint256"},{"name":"value","type":"uint256","internalType":"uint256"}],"outputs":[],"stateMutability":"nonpayable"},{"type":"function","name":"setErcDebt","inputs":[{"name":"asset","type":"address","internalType":"address"},{"name":"shorter","type":"address","internalType":"address"},{"name":"id","type":"uint8","internalType":"uint8"},{"name":"value","type":"uint88","internalType":"uint88"}],"outputs":[],"stateMutability":"nonpayable"},{"type":"function","name":"setErcDebtRate","inputs":[{"name":"asset","type":"address","internalType":"address"},{"name":"value","type":"uint64","internalType":"uint64"}],"outputs":[],"stateMutability":"nonpayable"},{"type":"function","name":"setEthEscrowed","inputs":[{"name":"addr","type":"address","internalType":"address"},{"name":"eth","type":"uint88","internalType":"uint88"}],"outputs":[],"stateMutability":"nonpayable"},{"type":"function","name":"setFrozenT","inputs":[{"name":"asset","type":"address","internalType":"address"},{"name":"value","type":"uint8","internalType":"enum F"}],"outputs":[],"stateMutability":"nonpayable"},{"type":"function","name":"setLastRedemptionTime","inputs":[{"name":"asset","type":"address","internalType":"address"},{"name":"lastRedemptionTime","type":"uint32","internalType":"uint32"}],"outputs":[],"stateMutability":"nonpayable"},{"type":"function","name":"setLiquidationCRT","inputs":[{"name":"asset","type":"address","internalType":"address"},{"name":"value","type":"uint16","internalType":"uint16"}],"outputs":[],"stateMutability":"nonpayable"},{"type":"function","name":"setMinShortErcT","inputs":[{"name":"asset","type":"address","internalType":"address"},{"name":"value","type":"uint16","internalType":"uint16"}],"outputs":[],"stateMutability":"nonpayable"},{"type":"function","name":"setOracleTimeAndPrice","inputs":[{"name":"asset","type":"address","internalType":"address"},{"name":"price","type":"uint256","internalType":"uint256"}],"outputs":[],"stateMutability":"nonpayable"},{"type":"function","name":"setOrderIdT","inputs":[{"name":"asset","type":"address","internalType":"address"},{"name":"value","type":"uint16","internalType":"uint16"}],"outputs":[],"stateMutability":"nonpayable"},{"type":"function","name":"setReentrantStatus","inputs":[{"name":"reentrantStatus","type":"uint8","internalType":"uint8"}],"outputs":[],"stateMutability":"nonpayable"},{"type":"function","name":"setStartingShortId","inputs":[{"name":"asset","type":"address","internalType":"address"},{"name":"id","type":"uint16","internalType":"uint16"}],"outputs":[],"stateMutability":"nonpayable"},{"type":"function","name":"setTokenId","inputs":[{"name":"tokenId","type":"uint40","internalType":"uint40"}],"outputs":[],"stateMutability":"nonpayable"},{"type":"function","name":"setforcedBidPriceBufferT","inputs":[{"name":"asset","type":"address","internalType":"address"},{"name":"value","type":"uint8","internalType":"uint8"}],"outputs":[],"stateMutability":"nonpayable"},{"type":"function","name":"updateStartingShortId","inputs":[{"name":"asset","type":"address","internalType":"address"},{"name":"shortHintArray","type":"uint16[]","internalType":"uint16[]"}],"outputs":[],"stateMutability":"nonpayable"},{"type":"error","name":"BadShortHint","inputs":[]},{"type":"error","name":"InsufficientEthInLiquidityPool","inputs":[]},{"type":"error","name":"InvalidAsset","inputs":[]},{"type":"error","name":"InvalidBridge","inputs":[]},{"type":"error","name":"InvalidPrice","inputs":[]},{"type":"error","name":"InvalidTWAPSecondsAgo","inputs":[]},{"type":"error","name":"InvalidTwapPrice","inputs":[]},{"type":"error","name":"PRBMath_MulDiv18_Overflow","inputs":[{"name":"x","type":"uint256","internalType":"uint256"},{"name":"y","type":"uint256","internalType":"uint256"}]},{"type":"error","name":"PRBMath_MulDiv_Overflow","inputs":[{"name":"x","type":"uint256","internalType":"uint256"},{"name":"y","type":"uint256","internalType":"uint256"},{"name":"denominator","type":"uint256","internalType":"uint256"}]},{"type":"error","name":"T","inputs":[]}],"bytecode":{"object":"0x60a060405234801562000010575f80fd5b506040516200740f3803806200740f8339818101604052810190620000369190620000d6565b8073ffffffffffffffffffffffffffffffffffffffff1660808173ffffffffffffffffffffffffffffffffffffffff16815250505062000106565b5f80fd5b5f73ffffffffffffffffffffffffffffffffffffffff82169050919050565b5f620000a08262000075565b9050919050565b620000b28162000094565b8114620000bd575f80fd5b50565b5f81519050620000d081620000a7565b92915050565b5f60208284031215620000ee57620000ed62000071565b5b5f620000fd84828501620000c0565b91505092915050565b6080516172f36200011c5f395f50506172f35ff3fe608060405234801561000f575f80fd5b5060043610610267575f3560e01c806362adfe7a1161014f5780638e329870116100c1578063be10d8aa11610085578063be10d8aa14610785578063c465aa5c146107b6578063e2e8fecf146107e7578063e65daa4e14610817578063e8cb09f314610847578063f26bbd621461086357610267565b80638e329870146106cf5780639ca5d6a0146106ed5780639d4b79cd14610709578063b78f955e14610739578063bb31675a1461076957610267565b8063760e506011610113578063760e5060146106135780638188c0591461062f578063837445911461064b57806383c09f841461067b57806386ecec85146106975780638b7b8bbe146106b357610267565b806362adfe7a1461055d578063634ea89b1461057957806367e4ac2c146105955780636cd4d7a8146105b357806370f26c86146105e357610267565b80632ea83e11116101e857806341c971be116101ac57806341c971be1461047757806341f368eb146104935780634e0050e8146104c35780634edcbb32146104df57806350273b2d1461050f578063576f7ea71461052d57610267565b80632ea83e11146103c3578063348342cc146103f3578063350c888f1461040f578063397645451461042b5780633ee85cd11461045b57610267565b80631173facc1161022f5780631173facc1461030f5780631205924b1461032b5780632406dbdc1461035b5780632a39dcbf1461038b5780632a68a5fb146103a757610267565b8063010a38f51461026b57806306c9c6a714610289578063098725b4146102a75780630a8662f2146102c35780630de5e53a146102f3575b5f80fd5b61027361087f565b604051610280919061592e565b60405180910390f35b61029161089b565b60405161029e91906159d1565b60405180910390f35b6102c160048036038101906102bc9190615a7f565b61092d565b005b6102dd60048036038101906102d89190615abd565b61099a565b6040516102ea9190615dc7565b60405180910390f35b61030d60048036038101906103089190615e1a565b610e48565b005b61032960048036038101906103249190615e58565b610e8c565b005b61034560048036038101906103409190615e96565b610ea2565b6040516103529190615ed0565b60405180910390f35b61037560048036038101906103709190615abd565b610ef2565b6040516103829190615ed0565b60405180910390f35b6103a560048036038101906103a09190615abd565b610f03565b005b6103c160048036038101906103bc9190615f13565b6111aa565b005b6103dd60048036038101906103d89190615e96565b61122b565b6040516103ea9190615ed0565b60405180910390f35b61040d60048036038101906104089190615f7b565b61127b565b005b61042960048036038101906104249190615fb9565b6112e8565b005b61044560048036038101906104409190615e96565b6113ea565b6040516104529190616018565b60405180910390f35b6104756004803603810190610470919061605b565b611425565b005b610491600480360381019061048c9190615e96565b611486565b005b6104ad60048036038101906104a8919061605b565b6114ee565b6040516104ba919061618d565b60405180910390f35b6104dd60048036038101906104d891906161d1565b61178b565b005b6104f960048036038101906104f4919061605b565b61184f565b604051610506919061618d565b60405180910390f35b610517611aec565b6040516105249190615ed0565b60405180910390f35b61054760048036038101906105429190615e96565b611b07565b6040516105549190616288565b60405180910390f35b610577600480360381019061057291906162a1565b611bdf565b005b610593600480360381019061058e9190615f7b565b611c6b565b005b61059d611cd8565b6040516105aa9190616387565b60405180910390f35b6105cd60048036038101906105c89190615abd565b611d65565b6040516105da91906163d0565b60405180910390f35b6105fd60048036038101906105f89190615abd565b611d8b565b60405161060a91906163f8565b60405180910390f35b61062d60048036038101906106289190616411565b611d9c565b005b6106496004803603810190610644919061605b565b611dfb565b005b6106656004803603810190610660919061605b565b611e5c565b604051610672919061618d565b60405180910390f35b610695600480360381019061069091906164b0565b6120f9565b005b6106b160048036038101906106ac919061605b565b612148565b005b6106cd60048036038101906106c8919061605b565b6121a8565b005b6106d7612208565b6040516106e491906159d1565b60405180910390f35b61070760048036038101906107029190616537565b61229a565b005b610723600480360381019061071e9190616585565b6122c2565b6040516107309190615dc7565b60405180910390f35b610753600480360381019061074e91906165d5565b612538565b6040516107609190615ed0565b60405180910390f35b610783600480360381019061077e9190615abd565b61254d565b005b61079f600480360381019061079a919061605b565b612592565b6040516107ad929190616634565b60405180910390f35b6107d060048036038101906107cb919061605b565b61266d565b6040516107de929190616634565b60405180910390f35b61080160048036038101906107fc9190615abd565b612748565b60405161080e91906167bf565b60405180910390f35b610831600480360381019061082c9190615abd565b61295d565b60405161083e9190615dc7565b60405180910390f35b610861600480360381019061085c9190616803565b612e0b565b005b61087d60048036038101906108789190616841565b612e70565b005b5f8060020160179054906101000a900464ffffffffff16905090565b60605f60150180546108ac90616899565b80601f01602080910402602001604051908101604052809291908181526020018280546108d890616899565b80156109235780601f106108fa57610100808354040283529160200191610923565b820191905f5260205f20905b81548152906001019060200180831161090657829003601f168201915b5050505050905090565b805f6008015f8473ffffffffffffffffffffffffffffffffffffffff1673ffffffffffffffffffffffffffffffffffffffff1681526020019081526020015f205f01601e6101000a81548160ff0219169083600181111561099157610990615b76565b5b02179055505050565b60605f80600a015f8473ffffffffffffffffffffffffffffffffffffffff1673ffffffffffffffffffffffffffffffffffffffff1681526020019081526020015f205f600160ff1661ffff1681526020019081526020015f205f0160159054906101000a900461ffff1690505f5b600160ff168261ffff1614610a93578080610a22906168f6565b9150505f600a015f8573ffffffffffffffffffffffffffffffffffffffff1673ffffffffffffffffffffffffffffffffffffffff1681526020019081526020015f205f8361ffff1661ffff1681526020019081526020015f205f0160159054906101000a900461ffff169150610a08565b5f8167ffffffffffffffff811115610aae57610aad61693d565b5b604051908082528060200260200182016040528015610ae757816020015b610ad4615770565b815260200190600190039081610acc5790505b5090505f600a015f8673ffffffffffffffffffffffffffffffffffffffff1673ffffffffffffffffffffffffffffffffffffffff1681526020019081526020015f205f600160ff1661ffff1681526020019081526020015f205f0160159054906101000a900461ffff1692505f5b82811015610e3c575f600a015f8773ffffffffffffffffffffffffffffffffffffffff1673ffffffffffffffffffffffffffffffffffffffff1681526020019081526020015f205f8561ffff1661ffff1681526020019081526020015f20604051806101800160405290815f82015f9054906101000a90046affffffffffffffffffffff166affffffffffffffffffffff166affffffffffffffffffffff1681526020015f8201600b9054906101000a900469ffffffffffffffffffff1669ffffffffffffffffffff1669ffffffffffffffffffff1681526020015f820160159054906101000a900461ffff1661ffff1661ffff1681526020015f820160179054906101000a900461ffff1661ffff1661ffff1681526020015f820160199054906101000a900461ffff1661ffff1661ffff1681526020015f8201601b9054906101000a900460ff166007811115610cb057610caf615b76565b5b6007811115610cc257610cc1615b76565b5b81526020015f8201601c9054906101000a900463ffffffff1663ffffffff1663ffffffff168152602001600182015f9054906101000a900473ffffffffffffffffffffffffffffffffffffffff1673ffffffffffffffffffffffffffffffffffffffff1673ffffffffffffffffffffffffffffffffffffffff1681526020016001820160149054906101000a900460ff166007811115610d6557610d64615b76565b5b6007811115610d7757610d76615b76565b5b81526020016001820160159054906101000a900461ffff1661ffff1661ffff1681526020016001820160179054906101000a900460ff1660ff1660ff1681526020016001820160189054906101000a900467ffffffffffffffff1667ffffffffffffffff1667ffffffffffffffff1681525050828281518110610dfd57610dfc61696a565b5b6020026020010181905250818181518110610e1b57610e1a61696a565b5b60200260200101516040015193508080610e34906168f6565b915050610b55565b50809350505050919050565b805f6005015f8481526020019081526020015f205f0160166101000a81548169ffffffffffffffffffff021916908369ffffffffffffffffffff1602179055505050565b610e9e8282610e99612e90565b612ea6565b5050565b5f6064670de0b6b3a76400005f6005015f8581526020019081526020015f20600101600d9054906101000a900461ffff1661ffff16610ee19190616997565b610eeb9190616a05565b9050919050565b5f610efc82612fbe565b9050919050565b610f0b613041565b5f806004015f8373ffffffffffffffffffffffffffffffffffffffff1673ffffffffffffffffffffffffffffffffffffffff1681526020019081526020015f205f015f9054906101000a900460ff1660ff1690505f8103610f98576040517f5b43e1a700000000000000000000000000000000000000000000000000000000815260040160405180910390fd5b5f806006015f8381526020019081526020015f2090505f818054905090505f5b8181101561113b578473ffffffffffffffffffffffffffffffffffffffff16838281548110610fea57610fe961696a565b5b905f5260205f20015f9054906101000a900473ffffffffffffffffffffffffffffffffffffffff1673ffffffffffffffffffffffffffffffffffffffff16036111285760018261103a9190616a35565b81146110e0578260018361104e9190616a35565b8154811061105f5761105e61696a565b5b905f5260205f20015f9054906101000a900473ffffffffffffffffffffffffffffffffffffffff1683828154811061109a5761109961696a565b5b905f5260205f20015f6101000a81548173ffffffffffffffffffffffffffffffffffffffff021916908373ffffffffffffffffffffffffffffffffffffffff1602179055505b828054806110f1576110f0616a68565b5b600190038181905f5260205f20015f6101000a81549073ffffffffffffffffffffffffffffffffffffffff0219169055905561113b565b8080611133906168f6565b915050610fb8565b505f6004015f8573ffffffffffffffffffffffffffffffffffffffff1673ffffffffffffffffffffffffffffffffffffffff1681526020019081526020015f205f8082015f6101000a81549060ff02191690555f820160016101000a81549061ffff0219169055505050505050565b805f6007015f600181526020019081526020015f205f8473ffffffffffffffffffffffffffffffffffffffff1673ffffffffffffffffffffffffffffffffffffffff1681526020019081526020015f205f015f6101000a8154816affffffffffffffffffffff02191690836affffffffffffffffffffff1602179055505050565b5f6064670de0b6b3a76400005f6005015f8581526020019081526020015f20600201601c9054906101000a900461ffff1661ffff1661126a9190616997565b6112749190616a05565b9050919050565b805f6008015f8473ffffffffffffffffffffffffffffffffffffffff1673ffffffffffffffffffffffffffffffffffffffff1681526020019081526020015f2060010160096101000a81548167ffffffffffffffff021916908367ffffffffffffffff1602179055505050565b815f6007015f600181526020019081526020015f205f8573ffffffffffffffffffffffffffffffffffffffff1673ffffffffffffffffffffffffffffffffffffffff1681526020019081526020015f206001015f6101000a8154816affffffffffffffffffffff02191690836affffffffffffffffffffff160217905550805f6007015f600181526020019081526020015f205f8573ffffffffffffffffffffffffffffffffffffffff1673ffffffffffffffffffffffffffffffffffffffff1681526020019081526020015f20600101600b6101000a8154816affffffffffffffffffffff02191690836affffffffffffffffffffff160217905550505050565b5f806013015f8381526020019081526020015f205f9054906101000a900473ffffffffffffffffffffffffffffffffffffffff169050919050565b805f6008015f8473ffffffffffffffffffffffffffffffffffffffff1673ffffffffffffffffffffffffffffffffffffffff1681526020019081526020015f2060010160116101000a81548161ffff021916908361ffff1602179055505050565b60015f6005015f8381526020019081526020015f205f0160168282829054906101000a900469ffffffffffffffffffff166114c19190616a95565b92506101000a81548169ffffffffffffffffffff021916908369ffffffffffffffffffff16021790555050565b6114f6615770565b5f600c015f8473ffffffffffffffffffffffffffffffffffffffff1673ffffffffffffffffffffffffffffffffffffffff1681526020019081526020015f205f8361ffff1661ffff1681526020019081526020015f20604051806101800160405290815f82015f9054906101000a90046affffffffffffffffffffff166affffffffffffffffffffff166affffffffffffffffffffff1681526020015f8201600b9054906101000a900469ffffffffffffffffffff1669ffffffffffffffffffff1669ffffffffffffffffffff1681526020015f820160159054906101000a900461ffff1661ffff1661ffff1681526020015f820160179054906101000a900461ffff1661ffff1661ffff1681526020015f820160199054906101000a900461ffff1661ffff1661ffff1681526020015f8201601b9054906101000a900460ff16600781111561164957611648615b76565b5b600781111561165b5761165a615b76565b5b81526020015f8201601c9054906101000a900463ffffffff1663ffffffff1663ffffffff168152602001600182015f9054906101000a900473ffffffffffffffffffffffffffffffffffffffff1673ffffffffffffffffffffffffffffffffffffffff1673ffffffffffffffffffffffffffffffffffffffff1681526020016001820160149054906101000a900460ff1660078111156116fe576116fd615b76565b5b60078111156117105761170f615b76565b5b81526020016001820160159054906101000a900461ffff1661ffff1661ffff1681526020016001820160179054906101000a900460ff1660ff1660ff1681526020016001820160189054906101000a900467ffffffffffffffff1667ffffffffffffffff1667ffffffffffffffff1681525050905092915050565b805f600d015f8673ffffffffffffffffffffffffffffffffffffffff1673ffffffffffffffffffffffffffffffffffffffff1681526020019081526020015f205f8573ffffffffffffffffffffffffffffffffffffffff1673ffffffffffffffffffffffffffffffffffffffff1681526020019081526020015f205f8460ff1660ff1681526020019081526020015f205f01600b6101000a8154816affffffffffffffffffffff02191690836affffffffffffffffffffff16021790555050505050565b611857615770565b5f600b015f8473ffffffffffffffffffffffffffffffffffffffff1673ffffffffffffffffffffffffffffffffffffffff1681526020019081526020015f205f8361ffff1661ffff1681526020019081526020015f20604051806101800160405290815f82015f9054906101000a90046affffffffffffffffffffff166affffffffffffffffffffff166affffffffffffffffffffff1681526020015f8201600b9054906101000a900469ffffffffffffffffffff1669ffffffffffffffffffff1669ffffffffffffffffffff1681526020015f820160159054906101000a900461ffff1661ffff1661ffff1681526020015f820160179054906101000a900461ffff1661ffff1661ffff1681526020015f820160199054906101000a900461ffff1661ffff1661ffff1681526020015f8201601b9054906101000a900460ff1660078111156119aa576119a9615b76565b5b60078111156119bc576119bb615b76565b5b81526020015f8201601c9054906101000a900463ffffffff1663ffffffff1663ffffffff168152602001600182015f9054906101000a900473ffffffffffffffffffffffffffffffffffffffff1673ffffffffffffffffffffffffffffffffffffffff1673ffffffffffffffffffffffffffffffffffffffff1681526020016001820160149054906101000a900460ff166007811115611a5f57611a5e615b76565b5b6007811115611a7157611a70615b76565b5b81526020016001820160159054906101000a900461ffff1661ffff1661ffff1681526020016001820160179054906101000a900460ff1660ff1660ff1681526020016001820160189054906101000a900467ffffffffffffffff1667ffffffffffffffff1667ffffffffffffffff1681525050905092915050565b5f80600201601c9054906101000a900460ff1660ff16905090565b611b0f61583b565b5f600f015f8381526020019081526020015f206040518060800160405290815f82015f9054906101000a900473ffffffffffffffffffffffffffffffffffffffff1673ffffffffffffffffffffffffffffffffffffffff1673ffffffffffffffffffffffffffffffffffffffff1681526020015f820160149054906101000a900460ff1660ff1660ff1681526020015f820160159054906101000a900460ff1660ff1660ff1681526020015f820160169054906101000a900461ffff1661ffff1661ffff16815250509050919050565b611be7613041565b805f6008015f8473ffffffffffffffffffffffffffffffffffffffff1673ffffffffffffffffffffffffffffffffffffffff1681526020019081526020015f206002015f6101000a81548173ffffffffffffffffffffffffffffffffffffffff021916908373ffffffffffffffffffffffffffffffffffffffff1602179055505050565b805f6008015f8473ffffffffffffffffffffffffffffffffffffffff1673ffffffffffffffffffffffffffffffffffffffff1681526020019081526020015f2060010160186101000a81548167ffffffffffffffff021916908367ffffffffffffffff1602179055505050565b60605f601201805480602002602001604051908101604052809291908181526020018280548015611d5b57602002820191905f5260205f20905b815f9054906101000a900473ffffffffffffffffffffffffffffffffffffffff1673ffffffffffffffffffffffffffffffffffffffff1681526020019060010190808311611d12575b5050505050905090565b611d6d61587f565b6040518060200160405280611d81846130dc565b8152509050919050565b5f611d9582613164565b9050919050565b805f6008015f8473ffffffffffffffffffffffffffffffffffffffff1673ffffffffffffffffffffffffffffffffffffffff1681526020019081526020015f2060010160076101000a81548160ff021916908360ff1602179055505050565b805f6008015f8473ffffffffffffffffffffffffffffffffffffffff1673ffffffffffffffffffffffffffffffffffffffff1681526020019081526020015f2060010160026101000a81548161ffff021916908361ffff1602179055505050565b611e64615770565b5f600a015f8473ffffffffffffffffffffffffffffffffffffffff1673ffffffffffffffffffffffffffffffffffffffff1681526020019081526020015f205f8361ffff1661ffff1681526020019081526020015f20604051806101800160405290815f82015f9054906101000a90046affffffffffffffffffffff166affffffffffffffffffffff166affffffffffffffffffffff1681526020015f8201600b9054906101000a900469ffffffffffffffffffff1669ffffffffffffffffffff1669ffffffffffffffffffff1681526020015f820160159054906101000a900461ffff1661ffff1661ffff1681526020015f820160179054906101000a900461ffff1661ffff1661ffff1681526020015f820160199054906101000a900461ffff1661ffff1661ffff1681526020015f8201601b9054906101000a900460ff166007811115611fb757611fb6615b76565b5b6007811115611fc957611fc8615b76565b5b81526020015f8201601c9054906101000a900463ffffffff1663ffffffff1663ffffffff168152602001600182015f9054906101000a900473ffffffffffffffffffffffffffffffffffffffff1673ffffffffffffffffffffffffffffffffffffffff1673ffffffffffffffffffffffffffffffffffffffff1681526020016001820160149054906101000a900460ff16600781111561206c5761206b615b76565b5b600781111561207e5761207d615b76565b5b81526020016001820160159054906101000a900461ffff1661ffff1661ffff1681526020016001820160179054906101000a900460ff1660ff1660ff1681526020016001820160189054906101000a900467ffffffffffffffff1667ffffffffffffffff1667ffffffffffffffff1681525050905092915050565b612143838383808060200260200160405190810160405280939291908181526020018383602002808284375f81840152601f19601f820116905080830192505050505050506131e7565b505050565b805f6008015f8473ffffffffffffffffffffffffffffffffffffffff1673ffffffffffffffffffffffffffffffffffffffff1681526020019081526020015f205f0160186101000a81548161ffff021916908361ffff1602179055505050565b805f6008015f8473ffffffffffffffffffffffffffffffffffffffff1673ffffffffffffffffffffffffffffffffffffffff1681526020019081526020015f205f01601a6101000a81548161ffff021916908361ffff1602179055505050565b60605f601401805461221990616899565b80601f016020809104026020016040519081016040528092919081815260200182805461224590616899565b80156122905780601f1061226757610100808354040283529160200191612290565b820191905f5260205f20905b81548152906001019060200180831161227357829003601f168201915b5050505050905090565b805f60020160176101000a81548164ffffffffff021916908364ffffffffff16021790555050565b606080600160078111156122d9576122d8615b76565b5b8360078111156122ec576122eb615b76565b5b0361230e57612307855f600a0161322490919063ffffffff16565b905061239e565b6002600781111561232257612321615b76565b5b83600781111561233557612334615b76565b5b0361235757612350855f600b0161322490919063ffffffff16565b905061239d565b6005600781111561236b5761236a615b76565b5b83600781111561237e5761237d615b76565b5b0361239c57612399855f600c0161322490919063ffffffff16565b90505b5b5b5f805b825181101561241d578573ffffffffffffffffffffffffffffffffffffffff168382815181106123d4576123d361696a565b5b602002602001015160e0015173ffffffffffffffffffffffffffffffffffffffff160361240a578180612406906168f6565b9250505b8080612415906168f6565b9150506123a1565b508067ffffffffffffffff8111156124385761243761693d565b5b60405190808252806020026020018201604052801561247157816020015b61245e615770565b8152602001906001900390816124565790505b5092505f90505f5b825181101561252e578573ffffffffffffffffffffffffffffffffffffffff168382815181106124ac576124ab61696a565b5b602002602001015160e0015173ffffffffffffffffffffffffffffffffffffffff160361251b578281815181106124e6576124e561696a565b5b60200260200101518483815181106125015761250061696a565b5b60200260200101819052508180612517906168f6565b9250505b8080612526906168f6565b915050612479565b5050509392505050565b5f61254484848461370c565b90509392505050565b805f6002015f6101000a81548173ffffffffffffffffffffffffffffffffffffffff021916908373ffffffffffffffffffffffffffffffffffffffff16021790555050565b5f805f600b015f8573ffffffffffffffffffffffffffffffffffffffff1673ffffffffffffffffffffffffffffffffffffffff1681526020019081526020015f205f8461ffff1661ffff1681526020019081526020015f205f0160159054906101000a900461ffff165f600b015f8673ffffffffffffffffffffffffffffffffffffffff1673ffffffffffffffffffffffffffffffffffffffff1681526020019081526020015f205f8561ffff1661ffff1681526020019081526020015f205f0160199054906101000a900461ffff16915091509250929050565b5f805f600a015f8573ffffffffffffffffffffffffffffffffffffffff1673ffffffffffffffffffffffffffffffffffffffff1681526020019081526020015f205f8461ffff1661ffff1681526020019081526020015f205f0160159054906101000a900461ffff165f600a015f8673ffffffffffffffffffffffffffffffffffffffff1673ffffffffffffffffffffffffffffffffffffffff1681526020019081526020015f205f8561ffff1661ffff1681526020019081526020015f205f0160199054906101000a900461ffff16915091509250929050565b612750615891565b604051806101c001604052805f6008015f8573ffffffffffffffffffffffffffffffffffffffff1673ffffffffffffffffffffffffffffffffffffffff1681526020019081526020015f205f01601e9054906101000a900460ff1660018111156127bd576127bc615b76565b5b81526020015f6008015f8573ffffffffffffffffffffffffffffffffffffffff1673ffffffffffffffffffffffffffffffffffffffff1681526020019081526020015f205f01601a9054906101000a900461ffff1661ffff16815260200161282484613981565b815260200161283284613a08565b815260200161284084613a90565b815260200161284e84613b16565b815260200161285c84613b9c565b815260200161286a84613c23565b81526020015f6008015f8573ffffffffffffffffffffffffffffffffffffffff1673ffffffffffffffffffffffffffffffffffffffff1681526020019081526020015f205f0160189054906101000a900461ffff1661ffff1681526020016128d184613caa565b81526020016128df84613d2f565b81526020016128ed84613db5565b81526020016128fb84613e31565b81526020015f6008015f8573ffffffffffffffffffffffffffffffffffffffff1673ffffffffffffffffffffffffffffffffffffffff1681526020019081526020015f2060010160089054906101000a900460ff1660ff168152509050919050565b60605f80600b015f8473ffffffffffffffffffffffffffffffffffffffff1673ffffffffffffffffffffffffffffffffffffffff1681526020019081526020015f205f600160ff1661ffff1681526020019081526020015f205f0160159054906101000a900461ffff1690505f5b600160ff168261ffff1614612a565780806129e5906168f6565b9150505f600b015f8573ffffffffffffffffffffffffffffffffffffffff1673ffffffffffffffffffffffffffffffffffffffff1681526020019081526020015f205f8361ffff1661ffff1681526020019081526020015f205f0160159054906101000a900461ffff1691506129cb565b5f8167ffffffffffffffff811115612a7157612a7061693d565b5b604051908082528060200260200182016040528015612aaa57816020015b612a97615770565b815260200190600190039081612a8f5790505b5090505f600b015f8673ffffffffffffffffffffffffffffffffffffffff1673ffffffffffffffffffffffffffffffffffffffff1681526020019081526020015f205f600160ff1661ffff1681526020019081526020015f205f0160159054906101000a900461ffff1692505f5b82811015612dff575f600b015f8773ffffffffffffffffffffffffffffffffffffffff1673ffffffffffffffffffffffffffffffffffffffff1681526020019081526020015f205f8561ffff1661ffff1681526020019081526020015f20604051806101800160405290815f82015f9054906101000a90046affffffffffffffffffffff166affffffffffffffffffffff166affffffffffffffffffffff1681526020015f8201600b9054906101000a900469ffffffffffffffffffff1669ffffffffffffffffffff1669ffffffffffffffffffff1681526020015f820160159054906101000a900461ffff1661ffff1661ffff1681526020015f820160179054906101000a900461ffff1661ffff1661ffff1681526020015f820160199054906101000a900461ffff1661ffff1661ffff1681526020015f8201601b9054906101000a900460ff166007811115612c7357612c72615b76565b5b6007811115612c8557612c84615b76565b5b81526020015f8201601c9054906101000a900463ffffffff1663ffffffff1663ffffffff168152602001600182015f9054906101000a900473ffffffffffffffffffffffffffffffffffffffff1673ffffffffffffffffffffffffffffffffffffffff1673ffffffffffffffffffffffffffffffffffffffff1681526020016001820160149054906101000a900460ff166007811115612d2857612d27615b76565b5b6007811115612d3a57612d39615b76565b5b81526020016001820160159054906101000a900461ffff1661ffff1661ffff1681526020016001820160179054906101000a900460ff1660ff1660ff1681526020016001820160189054906101000a900467ffffffffffffffff1667ffffffffffffffff1667ffffffffffffffff1681525050828281518110612dc057612dbf61696a565b5b6020026020010181905250818181518110612dde57612ddd61696a565b5b60200260200101516040015193508080612df7906168f6565b915050612b18565b50809350505050919050565b805f6008015f8473ffffffffffffffffffffffffffffffffffffffff1673ffffffffffffffffffffffffffffffffffffffff1681526020019081526020015f2060010160146101000a81548163ffffffff021916908363ffffffff1602179055505050565b805f600201601c6101000a81548160ff021916908360ff16021790555050565b5f6362f6fc6542612ea19190616a35565b905090565b5f612eaf613eb7565b90508269ffffffffffffffffffff1681600a015f8673ffffffffffffffffffffffffffffffffffffffff1673ffffffffffffffffffffffffffffffffffffffff1681526020019081526020015f205f600160ff1661ffff1681526020019081526020015f205f015f6101000a8154816affffffffffffffffffffff02191690836affffffffffffffffffffff1602179055508181600a015f8673ffffffffffffffffffffffffffffffffffffffff1673ffffffffffffffffffffffffffffffffffffffff1681526020019081526020015f205f600160ff1661ffff1681526020019081526020015f205f01601c6101000a81548163ffffffff021916908363ffffffff16021790555050505050565b5f80612fc8613eb7565b905080600a015f8473ffffffffffffffffffffffffffffffffffffffff1673ffffffffffffffffffffffffffffffffffffffff1681526020019081526020015f205f600160ff1661ffff1681526020019081526020015f205f01601c9054906101000a900463ffffffff1663ffffffff16915050919050565b613049613ebb565b60030160029054906101000a900473ffffffffffffffffffffffffffffffffffffffff1673ffffffffffffffffffffffffffffffffffffffff163373ffffffffffffffffffffffffffffffffffffffff16146130da576040517f08c379a00000000000000000000000000000000000000000000000000000000081526004016130d190616b42565b60405180910390fd5b565b5f806130e6613eb7565b9050612710670de0b6b3a7640000826004015f8673ffffffffffffffffffffffffffffffffffffffff1673ffffffffffffffffffffffffffffffffffffffff1681526020019081526020015f205f0160019054906101000a900461ffff1661ffff166131529190616997565b61315c9190616a05565b915050919050565b5f8061316e613eb7565b905080600a015f8473ffffffffffffffffffffffffffffffffffffffff1673ffffffffffffffffffffffffffffffffffffffff1681526020019081526020015f205f600160ff1661ffff1681526020019081526020015f205f015f9054906101000a90046affffffffffffffffffffff16915050919050565b5f6131f183612fbe565b6131f9612e90565b63ffffffff166132099190616a35565b9050610384811061321f5761321e8383613ee7565b5b505050565b60605f835f8473ffffffffffffffffffffffffffffffffffffffff1673ffffffffffffffffffffffffffffffffffffffff1681526020019081526020015f205f600160ff1661ffff1681526020019081526020015f205f0160199054906101000a900461ffff1690505f5b600160ff168261ffff16146133175780806132a9906168f6565b915050845f8573ffffffffffffffffffffffffffffffffffffffff1673ffffffffffffffffffffffffffffffffffffffff1681526020019081526020015f205f8361ffff1661ffff1681526020019081526020015f205f0160199054906101000a900461ffff16915061328f565b5f8167ffffffffffffffff8111156133325761333161693d565b5b60405190808252806020026020018201604052801561336b57816020015b613358615770565b8152602001906001900390816133505790505b509050855f8673ffffffffffffffffffffffffffffffffffffffff1673ffffffffffffffffffffffffffffffffffffffff1681526020019081526020015f205f600160ff1661ffff1681526020019081526020015f205f0160199054906101000a900461ffff1692505f5b828110156136ff57865f8773ffffffffffffffffffffffffffffffffffffffff1673ffffffffffffffffffffffffffffffffffffffff1681526020019081526020015f205f8561ffff1661ffff1681526020019081526020015f20604051806101800160405290815f82015f9054906101000a90046affffffffffffffffffffff166affffffffffffffffffffff166affffffffffffffffffffff1681526020015f8201600b9054906101000a900469ffffffffffffffffffff1669ffffffffffffffffffff1669ffffffffffffffffffff1681526020015f820160159054906101000a900461ffff1661ffff1661ffff1681526020015f820160179054906101000a900461ffff1661ffff1661ffff1681526020015f820160199054906101000a900461ffff1661ffff1661ffff1681526020015f8201601b9054906101000a900460ff16600781111561352e5761352d615b76565b5b60078111156135405761353f615b76565b5b81526020015f8201601c9054906101000a900463ffffffff1663ffffffff1663ffffffff168152602001600182015f9054906101000a900473ffffffffffffffffffffffffffffffffffffffff1673ffffffffffffffffffffffffffffffffffffffff1673ffffffffffffffffffffffffffffffffffffffff1681526020016001820160149054906101000a900460ff1660078111156135e3576135e2615b76565b5b60078111156135f5576135f4615b76565b5b81526020016001820160159054906101000a900461ffff1661ffff1661ffff1681526020016001820160179054906101000a900460ff1660ff1660ff1681526020016001820160189054906101000a900467ffffffffffffffff1667ffffffffffffffff1667ffffffffffffffff168152505082828151811061367b5761367a61696a565b5b6020026020010181905250865f8773ffffffffffffffffffffffffffffffffffffffff1673ffffffffffffffffffffffffffffffffffffffff1681526020019081526020015f205f8561ffff1661ffff1681526020019081526020015f205f0160199054906101000a900461ffff16935080806136f7906168f6565b9150506133d6565b5080935050505092915050565b5f808390505f8390505f613769670de0b6b3a764000061070873553e9c493678d8606d6a5ba284643db2110df82373ae78736cd615f374d3085123a210448e74fc639373c02aaa39b223fe8d0a0e5c4f27ead9083c756cc26143bc565b90505f8373ffffffffffffffffffffffffffffffffffffffff16638a9f6a266040518163ffffffff1660e01b8152600401602060405180830381865afa1580156137b5573d5f803e3d5ffd5b505050506040513d601f19601f820116820180604052508101906137d99190616b74565b90505f6137ef82846145cd90919063ffffffff16565b90505f613845670de0b6b3a764000061070873109830a1aaad605bbf02a9dfa7b0b92ec2fb7daa737f39c581f595b53c5cb19bd0b3f8da6c935e2ca073c02aaa39b223fe8d0a0e5c4f27ead9083c756cc26143bc565b90505f8573ffffffffffffffffffffffffffffffffffffffff16638a9f6a266040518163ffffffff1660e01b8152600401602060405180830381865afa158015613891573d5f803e3d5ffd5b505050506040513d601f19601f820116820180604052508101906138b59190616b74565b90505f6138cb82846145cd90919063ffffffff16565b905080841115613916575f8c0361391157670de0b6b3a76400006138f882866145cd90919063ffffffff16565b6139029190616a35565b9850505050505050505061397a565b613971565b838111156139605760018c0361395b57670de0b6b3a764000061394285836145cd90919063ffffffff16565b61394c9190616a35565b9850505050505050505061397a565b613970565b5f9850505050505050505061397a565b5b50505050505050505b9392505050565b5f8061398b613eb7565b90506064670de0b6b3a7640000826008015f8673ffffffffffffffffffffffffffffffffffffffff1673ffffffffffffffffffffffffffffffffffffffff1681526020019081526020015f205f01601c9054906101000a900461ffff1661ffff166139f69190616997565b613a009190616a05565b915050919050565b5f80613a12613eb7565b90506064670de0b6b3a7640000826008015f8673ffffffffffffffffffffffffffffffffffffffff1673ffffffffffffffffffffffffffffffffffffffff1681526020019081526020015f2060010160119054906101000a900461ffff1661ffff16613a7e9190616997565b613a889190616a05565b915050919050565b5f80613a9a613eb7565b90506064670de0b6b3a7640000826008015f8673ffffffffffffffffffffffffffffffffffffffff1673ffffffffffffffffffffffffffffffffffffffff1681526020019081526020015f2060010160079054906101000a900460ff1660ff16613b049190616997565b613b0e9190616a05565b915050919050565b5f80613b20613eb7565b90506064670de0b6b3a7640000826008015f8673ffffffffffffffffffffffffffffffffffffffff1673ffffffffffffffffffffffffffffffffffffffff1681526020019081526020015f2060010160049054906101000a900460ff1660ff16613b8a9190616997565b613b949190616a05565b915050919050565b5f80613ba6613eb7565b90506103e8670de0b6b3a7640000826008015f8673ffffffffffffffffffffffffffffffffffffffff1673ffffffffffffffffffffffffffffffffffffffff1681526020019081526020015f2060010160059054906101000a900460ff1660ff16613c119190616997565b613c1b9190616a05565b915050919050565b5f80613c2d613eb7565b90506103e8670de0b6b3a7640000826008015f8673ffffffffffffffffffffffffffffffffffffffff1673ffffffffffffffffffffffffffffffffffffffff1681526020019081526020015f2060010160069054906101000a900460ff1660ff16613c989190616997565b613ca29190616a05565b915050919050565b5f80613cb4613eb7565b90506064670de0b6b3a7640000826008015f8673ffffffffffffffffffffffffffffffffffffffff1673ffffffffffffffffffffffffffffffffffffffff1681526020019081526020015f206001015f9054906101000a900460ff1660ff16613d1d9190616997565b613d279190616a05565b915050919050565b5f80613d39613eb7565b90506064670de0b6b3a7640000826008015f8673ffffffffffffffffffffffffffffffffffffffff1673ffffffffffffffffffffffffffffffffffffffff1681526020019081526020015f2060010160019054906101000a900460ff1660ff16613da39190616997565b613dad9190616a05565b915050919050565b5f80613dbf613eb7565b9050670de0b6b3a7640000816008015f8573ffffffffffffffffffffffffffffffffffffffff1673ffffffffffffffffffffffffffffffffffffffff1681526020019081526020015f2060010160029054906101000a900461ffff1661ffff16613e299190616997565b915050919050565b5f80613e3b613eb7565b90506064670de0b6b3a7640000826008015f8673ffffffffffffffffffffffffffffffffffffffff1673ffffffffffffffffffffffffffffffffffffffff1681526020019081526020015f2060010160139054906101000a900460ff1660ff16613ea59190616997565b613eaf9190616a05565b915050919050565b5f90565b5f807fc8fcad8db84d3cc18b4c41d551ea0ee66dd599cde068d998e57d5e09332c131c90508091505090565b5f613ef0613eb7565b90505f613efc846145e9565b90505f613f1e8573ffffffffffffffffffffffffffffffffffffffff16613164565b69ffffffffffffffffffff169050613f5e82613f38612e90565b8773ffffffffffffffffffffffffffffffffffffffff16612ea69092919063ffffffff16565b808203613f6d575050506143b8565b5f836008015f8773ffffffffffffffffffffffffffffffffffffffff1673ffffffffffffffffffffffffffffffffffffffff1681526020019081526020015f2090505f600160ff1685600c015f8973ffffffffffffffffffffffffffffffffffffffff1673ffffffffffffffffffffffffffffffffffffffff1681526020019081526020015f205f600160ff1661ffff1681526020019081526020015f205f0160199054906101000a900461ffff1661ffff16149050801561405057600160ff16825f0160186101000a81548161ffff021916908361ffff1602179055506143b2565b5f805f90505b875181101561437f578781815181106140725761407161696a565b5b602002602001015191508060010190505f87600c015f8b73ffffffffffffffffffffffffffffffffffffffff1673ffffffffffffffffffffffffffffffffffffffff1681526020019081526020015f205f8461ffff1661ffff1681526020019081526020015f2090505f815f01601b9054906101000a900460ff1690506006600781111561410357614102615b76565b5b81600781111561411657614115615b76565b5b148061414557506007808111156141305761412f615b76565b5b81600781111561414357614142615b76565b5b145b8061417357505f600781111561415e5761415d615b76565b5b81600781111561417157614170615b76565b5b145b1561417f57505061437a565b505f815f01600b9054906101000a900469ffffffffffffffffffff1690505f825f0160159054906101000a900461ffff1690505f8a600c015f8e73ffffffffffffffffffffffffffffffffffffffff1673ffffffffffffffffffffffffffffffffffffffff1681526020019081526020015f205f8361ffff1661ffff1681526020019081526020015f205f01600b9054906101000a900469ffffffffffffffffffff1690505f614240670df27a2cdf4480008c6149f390919063ffffffff16565b8469ffffffffffffffffffff161115801561426757508a8269ffffffffffffffffffff1610155b90505f8b8569ffffffffffffffffffff161015801561429157508b8369ffffffffffffffffffff16105b90505f8c8669ffffffffffffffffffff161080156142c75750600160ff16875f0160199054906101000a900461ffff1661ffff16145b9050811561430057888b5f0160186101000a81548161ffff021916908361ffff16021790555050505050505050505050505050506143b8565b821561433757848b5f0160186101000a81548161ffff021916908361ffff16021790555050505050505050505050505050506143b8565b801561437257600160ff168b5f0160186101000a81548161ffff021916908361ffff16021790555050505050505050505050505050506143b8565b505050505050505b614056565b506040517f053c10c300000000000000000000000000000000000000000000000000000000815260040160405180910390fd5b50505050505b5050565b5f808563ffffffff16116143fc576040517fe290d66f00000000000000000000000000000000000000000000000000000000815260040160405180910390fd5b5f600267ffffffffffffffff8111156144185761441761693d565b5b6040519080825280602002602001820160405280156144465781602001602082028036833780820191505090505b50905085815f8151811061445d5761445c61696a565b5b602002602001019063ffffffff16908163ffffffff16815250505f8160018151811061448c5761448b61696a565b5b602002602001019063ffffffff16908163ffffffff16815250505f8573ffffffffffffffffffffffffffffffffffffffff1663883bdbfd836040518263ffffffff1660e01b81526004016144e09190616c47565b5f60405180830381865afa1580156144fa573d5f803e3d5ffd5b505050506040513d5f823e3d601f19601f820116820180604052508101906145229190616e92565b5090505f815f815181106145395761453861696a565b5b6020026020010151826001815181106145555761455461696a565b5b60200260200101516145679190616f08565b90505f8860030b826145799190616f66565b90505f8260060b12801561459e57505f8960030b836145989190616fce565b60060b14155b156145b25780806145ae9061700a565b9150505b6145be818b8989614a06565b94505050505095945050505050565b5f6145e183670de0b6b3a764000084614c0f565b905092915050565b5f806145f3613eb7565b90505f816002015f9054906101000a900473ffffffffffffffffffffffffffffffffffffffff1690505f61462685613164565b69ffffffffffffffffffff1690505f836008015f8773ffffffffffffffffffffffffffffffffffffffff1673ffffffffffffffffffffffffffffffffffffffff1681526020019081526020015f206002015f9054906101000a900473ffffffffffffffffffffffffffffffffffffffff1690505f73ffffffffffffffffffffffffffffffffffffffff168173ffffffffffffffffffffffffffffffffffffffff16036146fe576040517fc891add200000000000000000000000000000000000000000000000000000000815260040160405180910390fd5b8273ffffffffffffffffffffffffffffffffffffffff1663feaf968c6040518163ffffffff1660e01b815260040160a060405180830381865afa92505050801561476657506040513d601f19601f8201168201806040525081019061476391906170ae565b60015b6148c3578273ffffffffffffffffffffffffffffffffffffffff168173ffffffffffffffffffffffffffffffffffffffff16036147b0576147a5614d21565b9450505050506149ee565b5f805f8373ffffffffffffffffffffffffffffffffffffffff1663feaf968c6040518163ffffffff1660e01b815260040160a060405180830381865afa1580156147fc573d5f803e3d5ffd5b505050506040513d601f19601f8201168201806040525081019061482091906170ae565b50935050925092505f8369ffffffffffffffffffff16148061484157505f82145b8061484b57504281115b15614881576040517ebfc92100000000000000000000000000000000000000000000000000000000815260040160405180910390fd5b5f61488a614d21565b90505f6148b0826402540be400866148a29190617125565b6149f390919063ffffffff16565b90508099505050505050505050506149ee565b8773ffffffffffffffffffffffffffffffffffffffff168673ffffffffffffffffffffffffffffffffffffffff1603614941575f808513614904575f61491e565b61491d6402540be400866149189190617125565b614f03565b5b905061492d8887878685614f2b565b9050809a50505050505050505050506149ee565b5f805f8873ffffffffffffffffffffffffffffffffffffffff1663feaf968c6040518163ffffffff1660e01b815260040160a060405180830381865afa15801561498d573d5f803e3d5ffd5b505050506040513d601f19601f820116820180604052508101906149b191906170ae565b50935050925092505f6149cd88846145cd90919063ffffffff16565b90506149dd848a858b868b6151df565b809d50505050505050505050505050505b919050565b5f6149fe8383615285565b905092915050565b5f80614a118661536a565b90506fffffffffffffffffffffffffffffffff80168173ffffffffffffffffffffffffffffffffffffffff1611614b2a575f8173ffffffffffffffffffffffffffffffffffffffff168273ffffffffffffffffffffffffffffffffffffffff16614a7b9190616997565b90508373ffffffffffffffffffffffffffffffffffffffff168573ffffffffffffffffffffffffffffffffffffffff1610614aeb57614ae67801000000000000000000000000000000000000000000000000876fffffffffffffffffffffffffffffffff168361575b565b614b22565b614b2181876fffffffffffffffffffffffffffffffff16780100000000000000000000000000000000000000000000000061575b565b5b925050614c06565b5f614b6b8273ffffffffffffffffffffffffffffffffffffffff168373ffffffffffffffffffffffffffffffffffffffff166801000000000000000061575b565b90508373ffffffffffffffffffffffffffffffffffffffff168573ffffffffffffffffffffffffffffffffffffffff1610614bd357614bce700100000000000000000000000000000000876fffffffffffffffffffffffffffffffff168361575b565b614c02565b614c0181876fffffffffffffffffffffffffffffffff1670010000000000000000000000000000000061575b565b5b9250505b50949350505050565b5f805f80198587098587029250828110838203039150505f8103614c4757838281614c3d57614c3c6169d8565b5b0492505050614d1a565b838110614c8f578585856040517f63a05778000000000000000000000000000000000000000000000000000000008152600401614c869392919061719b565b60405180910390fd5b5f8486880990508281118203915080830392505f6001861901861690505f81870496508185049450600182835f0304019050808402851794505f60028860030218905080880260020381029050808802600203810290508088026002038102905080880260020381029050808802600203810290508088026002038102905080860296505050505050505b9392505050565b5f803073ffffffffffffffffffffffffffffffffffffffff16630b545214670de0b6b3a76400006107086040518363ffffffff1660e01b8152600401614d6892919061723c565b602060405180830381865afa158015614d83573d5f803e3d5ffd5b505050506040513d601f19601f82011682018060405250810190614da79190616b74565b90505f8103614de2576040517fca91730a00000000000000000000000000000000000000000000000000000000815260040160405180910390fd5b5f73c02aaa39b223fe8d0a0e5c4f27ead9083c756cc290505f8173ffffffffffffffffffffffffffffffffffffffff166370a082317388e6a0c2ddd26feeb64f039a2c41296fcb3f56406040518263ffffffff1660e01b8152600401614e489190616018565b602060405180830381865afa158015614e63573d5f803e3d5ffd5b505050506040513d601f19601f82011682018060405250810190614e879190616b74565b905068056bc75e2d63100000811015614ecc576040517f05f4eec200000000000000000000000000000000000000000000000000000000815260040160405180910390fd5b5f620f4240670de0b6b3a7640000614ee49190616a05565b84614eef9190616997565b9050614efa81614f03565b94505050505090565b5f816ec097ce7bc90715b34b9f100000000081614f2357614f226169d8565b5b049050919050565b5f805f8669ffffffffffffffffffff161480614f4657505f84145b80614f5057504284115b80614f5b57505f8513155b80614f72575083611c20614f6f9190617263565b42115b90505f878411614f8d578388614f889190616a35565b614f9a565b8784614f999190616a35565b5b90505f8089118015614fc557506706f05b59d3b20000614fc38a846145cd90919063ffffffff16565b115b90508215614fdf57614fd5614d21565b93505050506151d6565b80156151cf573073ffffffffffffffffffffffffffffffffffffffff16630b545214670de0b6b3a76400006107086040518363ffffffff1660e01b815260040161502a92919061723c565b602060405180830381865afa92505050801561506457506040513d601f19601f820116820180604052508101906150619190616b74565b60015b615073578493505050506151d6565b5f810361508657859450505050506151d6565b5f620f4240670de0b6b3a764000061509e9190616a05565b826150a99190616997565b90505f6150b582614f03565b90505f8c82116150d057818d6150cb9190616a35565b6150dd565b8c826150dc9190616a35565b5b90508086116150f557889750505050505050506151d6565b5f73c02aaa39b223fe8d0a0e5c4f27ead9083c756cc290505f8173ffffffffffffffffffffffffffffffffffffffff166370a082317388e6a0c2ddd26feeb64f039a2c41296fcb3f56406040518263ffffffff1660e01b815260040161515b9190616018565b602060405180830381865afa158015615176573d5f803e3d5ffd5b505050506040513d601f19601f8201168201806040525081019061519a9190616b74565b905068056bc75e2d631000008110156151be578a99505050505050505050506151d6565b8399505050505050505050506151d6565b8493505050505b95945050505050565b5f808769ffffffffffffffffffff1614806151f957505f83145b8061520357504283115b8061520e57505f8513155b8061522457505f8669ffffffffffffffffffff16145b8061522e57505f82145b8061523857504282115b8061524357505f8413155b9050801561527c576040517ebfc92100000000000000000000000000000000000000000000000000000000815260040160405180910390fd5b50505050505050565b5f805f80198486098486029250828110838203039150505f81036152c557670de0b6b3a764000082816152bb576152ba6169d8565b5b0492505050615364565b670de0b6b3a764000081106153135784846040517f5173648d00000000000000000000000000000000000000000000000000000000815260040161530a929190617296565b60405180910390fd5b5f670de0b6b3a764000085870990507faccb18165bd6fe31ae1cf318dc5b51eee0e1ba569b88cd74c1773b91fac10669600162040000805f0304018483118403026204000083860304170293505050505b92915050565b5f805f8360020b1261537f578260020b615386565b8260020b5f035b90507ffffffffffffffffffffffffffffffffffffffffffffffffffffffffffff276185f0360020b8111156153e7576040517f2bc80f3a00000000000000000000000000000000000000000000000000000000815260040160405180910390fd5b5f8060018316036154095770010000000000000000000000000000000061541b565b6ffffcb933bd6fad37aa2d162d1a5940015b70ffffffffffffffffffffffffffffffffff1690505f60028316146154545760806ffff97272373d413259a46990580e213a8202901c90505b5f60048316146154785760806ffff2e50f5f656932ef12357cf3c7fdcc8202901c90505b5f600883161461549c5760806fffe5caca7e10e4e61c3624eaa0941cd08202901c90505b5f60108316146154c05760806fffcb9843d60f6159c9db58835c9266448202901c90505b5f60208316146154e45760806fff973b41fa98c081472e6896dfb254c08202901c90505b5f60408316146155085760806fff2ea16466c96a3843ec78b326b528618202901c90505b5f608083161461552c5760806ffe5dee046a99a2a811c461f1969c30538202901c90505b5f6101008316146155515760806ffcbe86c7900a88aedcffc83b479aa3a48202901c90505b5f6102008316146155765760806ff987a7253ac413176f2b074cf7815e548202901c90505b5f61040083161461559b5760806ff3392b0822b70005940c7a398e4b70f38202901c90505b5f6108008316146155c05760806fe7159475a2c29b7443b29c7fa6e889d98202901c90505b5f6110008316146155e55760806fd097f3bdfd2022b8845ad8f792aa58258202901c90505b5f61200083161461560a5760806fa9f746462d870fdf8a65dc1f90e061e58202901c90505b5f61400083161461562f5760806f70d869a156d2a1b890bb3df62baf32f78202901c90505b5f6180008316146156545760806f31be135f97d08fd981231505542fcfa68202901c90505b5f6201000083161461567a5760806f09aa508b5b7a84e1c677de54f3e99bc98202901c90505b5f6202000083161461569f5760806e5d6af8dedb81196699c329225ee6048202901c90505b5f620400008316146156c35760806d2216e584f5fa1ea926041bedfe988202901c90505b5f620800008316146156e55760806b048a170391f7dc42444e8fa28202901c90505b5f8460020b131561572457807fffffffffffffffffffffffffffffffffffffffffffffffffffffffffffffffff816157205761571f6169d8565b5b0490505b5f640100000000828161573a576157396169d8565b5b0614615747576001615749565b5f5b60ff16602082901c0192505050919050565b5f615767848484614c0f565b90509392505050565b6040518061018001604052805f6affffffffffffffffffffff1681526020015f69ffffffffffffffffffff1681526020015f61ffff1681526020015f61ffff1681526020015f61ffff1681526020015f60078111156157d2576157d1615b76565b5b81526020015f63ffffffff1681526020015f73ffffffffffffffffffffffffffffffffffffffff1681526020015f600781111561581257615811615b76565b5b81526020015f61ffff1681526020015f60ff1681526020015f67ffffffffffffffff1681525090565b60405180608001604052805f73ffffffffffffffffffffffffffffffffffffffff1681526020015f60ff1681526020015f60ff1681526020015f61ffff1681525090565b60405180602001604052805f81525090565b604051806101c001604052805f60018111156158b0576158af615b76565b5b81526020015f61ffff1681526020015f81526020015f81526020015f81526020015f81526020015f81526020015f81526020015f61ffff1681526020015f81526020015f81526020015f81526020015f81526020015f60ff1681525090565b5f64ffffffffff82169050919050565b6159288161590f565b82525050565b5f6020820190506159415f83018461591f565b92915050565b5f81519050919050565b5f82825260208201905092915050565b5f5b8381101561597e578082015181840152602081019050615963565b5f8484015250505050565b5f601f19601f8301169050919050565b5f6159a382615947565b6159ad8185615951565b93506159bd818560208601615961565b6159c681615989565b840191505092915050565b5f6020820190508181035f8301526159e98184615999565b905092915050565b5f604051905090565b5f80fd5b5f80fd5b5f73ffffffffffffffffffffffffffffffffffffffff82169050919050565b5f615a2b82615a02565b9050919050565b615a3b81615a21565b8114615a45575f80fd5b50565b5f81359050615a5681615a32565b92915050565b60028110615a68575f80fd5b50565b5f81359050615a7981615a5c565b92915050565b5f8060408385031215615a9557615a946159fa565b5b5f615aa285828601615a48565b9250506020615ab385828601615a6b565b9150509250929050565b5f60208284031215615ad257615ad16159fa565b5b5f615adf84828501615a48565b91505092915050565b5f81519050919050565b5f82825260208201905092915050565b5f819050602082019050919050565b5f6affffffffffffffffffffff82169050919050565b615b3081615b11565b82525050565b5f69ffffffffffffffffffff82169050919050565b615b5481615b36565b82525050565b5f61ffff82169050919050565b615b7081615b5a565b82525050565b7f4e487b71000000000000000000000000000000000000000000000000000000005f52602160045260245ffd5b60088110615bb457615bb3615b76565b5b50565b5f819050615bc482615ba3565b919050565b5f615bd382615bb7565b9050919050565b615be381615bc9565b82525050565b5f63ffffffff82169050919050565b615c0181615be9565b82525050565b615c1081615a21565b82525050565b5f60ff82169050919050565b615c2b81615c16565b82525050565b5f67ffffffffffffffff82169050919050565b615c4d81615c31565b82525050565b61018082015f820151615c685f850182615b27565b506020820151615c7b6020850182615b4b565b506040820151615c8e6040850182615b67565b506060820151615ca16060850182615b67565b506080820151615cb46080850182615b67565b5060a0820151615cc760a0850182615bda565b5060c0820151615cda60c0850182615bf8565b5060e0820151615ced60e0850182615c07565b50610100820151615d02610100850182615bda565b50610120820151615d17610120850182615b67565b50610140820151615d2c610140850182615c22565b50610160820151615d41610160850182615c44565b50505050565b5f615d528383615c53565b6101808301905092915050565b5f602082019050919050565b5f615d7582615ae8565b615d7f8185615af2565b9350615d8a83615b02565b805f5b83811015615dba578151615da18882615d47565b9750615dac83615d5f565b925050600181019050615d8d565b5085935050505092915050565b5f6020820190508181035f830152615ddf8184615d6b565b905092915050565b5f819050919050565b615df981615de7565b8114615e03575f80fd5b50565b5f81359050615e1481615df0565b92915050565b5f8060408385031215615e3057615e2f6159fa565b5b5f615e3d85828601615e06565b9250506020615e4e85828601615e06565b9150509250929050565b5f8060408385031215615e6e57615e6d6159fa565b5b5f615e7b85828601615a48565b9250506020615e8c85828601615e06565b9150509250929050565b5f60208284031215615eab57615eaa6159fa565b5b5f615eb884828501615e06565b91505092915050565b615eca81615de7565b82525050565b5f602082019050615ee35f830184615ec1565b92915050565b615ef281615b11565b8114615efc575f80fd5b50565b5f81359050615f0d81615ee9565b92915050565b5f8060408385031215615f2957615f286159fa565b5b5f615f3685828601615a48565b9250506020615f4785828601615eff565b9150509250929050565b615f5a81615c31565b8114615f64575f80fd5b50565b5f81359050615f7581615f51565b92915050565b5f8060408385031215615f9157615f906159fa565b5b5f615f9e85828601615a48565b9250506020615faf85828601615f67565b9150509250929050565b5f805f60608486031215615fd057615fcf6159fa565b5b5f615fdd86828701615a48565b9350506020615fee86828701615eff565b9250506040615fff86828701615eff565b9150509250925092565b61601281615a21565b82525050565b5f60208201905061602b5f830184616009565b92915050565b61603a81615b5a565b8114616044575f80fd5b50565b5f8135905061605581616031565b92915050565b5f8060408385031215616071576160706159fa565b5b5f61607e85828601615a48565b925050602061608f85828601616047565b9150509250929050565b61018082015f8201516160ae5f850182615b27565b5060208201516160c16020850182615b4b565b5060408201516160d46040850182615b67565b5060608201516160e76060850182615b67565b5060808201516160fa6080850182615b67565b5060a082015161610d60a0850182615bda565b5060c082015161612060c0850182615bf8565b5060e082015161613360e0850182615c07565b50610100820151616148610100850182615bda565b5061012082015161615d610120850182615b67565b50610140820151616172610140850182615c22565b50610160820151616187610160850182615c44565b50505050565b5f610180820190506161a15f830184616099565b92915050565b6161b081615c16565b81146161ba575f80fd5b50565b5f813590506161cb816161a7565b92915050565b5f805f80608085870312156161e9576161e86159fa565b5b5f6161f687828801615a48565b945050602061620787828801615a48565b9350506040616218878288016161bd565b925050606061622987828801615eff565b91505092959194509250565b608082015f8201516162495f850182615c07565b50602082015161625c6020850182615c22565b50604082015161626f6040850182615c22565b5060608201516162826060850182615b67565b50505050565b5f60808201905061629b5f830184616235565b92915050565b5f80604083850312156162b7576162b66159fa565b5b5f6162c485828601615a48565b92505060206162d585828601615a48565b9150509250929050565b5f81519050919050565b5f82825260208201905092915050565b5f819050602082019050919050565b5f6163138383615c07565b60208301905092915050565b5f602082019050919050565b5f616335826162df565b61633f81856162e9565b935061634a836162f9565b805f5b8381101561637a5781516163618882616308565b975061636c8361631f565b92505060018101905061634d565b5085935050505092915050565b5f6020820190508181035f83015261639f818461632b565b905092915050565b6163b081615de7565b82525050565b602082015f8201516163ca5f8501826163a7565b50505050565b5f6020820190506163e35f8301846163b6565b92915050565b6163f281615b36565b82525050565b5f60208201905061640b5f8301846163e9565b92915050565b5f8060408385031215616427576164266159fa565b5b5f61643485828601615a48565b9250506020616445858286016161bd565b9150509250929050565b5f80fd5b5f80fd5b5f80fd5b5f8083601f8401126164705761646f61644f565b5b8235905067ffffffffffffffff81111561648d5761648c616453565b5b6020830191508360208202830111156164a9576164a8616457565b5b9250929050565b5f805f604084860312156164c7576164c66159fa565b5b5f6164d486828701615a48565b935050602084013567ffffffffffffffff8111156164f5576164f46159fe565b5b6165018682870161645b565b92509250509250925092565b6165168161590f565b8114616520575f80fd5b50565b5f813590506165318161650d565b92915050565b5f6020828403121561654c5761654b6159fa565b5b5f61655984828501616523565b91505092915050565b6008811061656e575f80fd5b50565b5f8135905061657f81616562565b92915050565b5f805f6060848603121561659c5761659b6159fa565b5b5f6165a986828701615a48565b93505060206165ba86828701615a48565b92505060406165cb86828701616571565b9150509250925092565b5f805f606084860312156165ec576165eb6159fa565b5b5f6165f986828701615e06565b935050602061660a86828701615a48565b925050604061661b86828701615a48565b9150509250925092565b61662e81615b5a565b82525050565b5f6040820190506166475f830185616625565b6166546020830184616625565b9392505050565b6002811061666c5761666b615b76565b5b50565b5f81905061667c8261665b565b919050565b5f61668b8261666f565b9050919050565b61669b81616681565b82525050565b6101c082015f8201516166b65f850182616692565b5060208201516166c96020850182615b67565b5060408201516166dc60408501826163a7565b5060608201516166ef60608501826163a7565b50608082015161670260808501826163a7565b5060a082015161671560a08501826163a7565b5060c082015161672860c08501826163a7565b5060e082015161673b60e08501826163a7565b50610100820151616750610100850182615b67565b506101208201516167656101208501826163a7565b5061014082015161677a6101408501826163a7565b5061016082015161678f6101608501826163a7565b506101808201516167a46101808501826163a7565b506101a08201516167b96101a0850182615c22565b50505050565b5f6101c0820190506167d35f8301846166a1565b92915050565b6167e281615be9565b81146167ec575f80fd5b50565b5f813590506167fd816167d9565b92915050565b5f8060408385031215616819576168186159fa565b5b5f61682685828601615a48565b9250506020616837858286016167ef565b9150509250929050565b5f60208284031215616856576168556159fa565b5b5f616863848285016161bd565b91505092915050565b7f4e487b71000000000000000000000000000000000000000000000000000000005f52602260045260245ffd5b5f60028204905060018216806168b057607f821691505b6020821081036168c3576168c261686c565b5b50919050565b7f4e487b71000000000000000000000000000000000000000000000000000000005f52601160045260245ffd5b5f61690082615de7565b91507fffffffffffffffffffffffffffffffffffffffffffffffffffffffffffffffff8203616932576169316168c9565b5b600182019050919050565b7f4e487b71000000000000000000000000000000000000000000000000000000005f52604160045260245ffd5b7f4e487b71000000000000000000000000000000000000000000000000000000005f52603260045260245ffd5b5f6169a182615de7565b91506169ac83615de7565b92508282026169ba81615de7565b915082820484148315176169d1576169d06168c9565b5b5092915050565b7f4e487b71000000000000000000000000000000000000000000000000000000005f52601260045260245ffd5b5f616a0f82615de7565b9150616a1a83615de7565b925082616a2a57616a296169d8565b5b828204905092915050565b5f616a3f82615de7565b9150616a4a83615de7565b9250828203905081811115616a6257616a616168c9565b5b92915050565b7f4e487b71000000000000000000000000000000000000000000000000000000005f52603160045260245ffd5b5f616a9f82615b36565b9150616aaa83615b36565b9250828201905069ffffffffffffffffffff811115616acc57616acb6168c9565b5b92915050565b7f4c69624469616d6f6e643a204d75737420626520636f6e7472616374206f776e5f8201527f6572000000000000000000000000000000000000000000000000000000000000602082015250565b5f616b2c602283615951565b9150616b3782616ad2565b604082019050919050565b5f6020820190508181035f830152616b5981616b20565b9050919050565b5f81519050616b6e81615df0565b92915050565b5f60208284031215616b8957616b886159fa565b5b5f616b9684828501616b60565b91505092915050565b5f81519050919050565b5f82825260208201905092915050565b5f819050602082019050919050565b5f616bd38383615bf8565b60208301905092915050565b5f602082019050919050565b5f616bf582616b9f565b616bff8185616ba9565b9350616c0a83616bb9565b805f5b83811015616c3a578151616c218882616bc8565b9750616c2c83616bdf565b925050600181019050616c0d565b5085935050505092915050565b5f6020820190508181035f830152616c5f8184616beb565b905092915050565b616c7082615989565b810181811067ffffffffffffffff82111715616c8f57616c8e61693d565b5b80604052505050565b5f616ca16159f1565b9050616cad8282616c67565b919050565b5f67ffffffffffffffff821115616ccc57616ccb61693d565b5b602082029050602081019050919050565b5f8160060b9050919050565b616cf281616cdd565b8114616cfc575f80fd5b50565b5f81519050616d0d81616ce9565b92915050565b5f616d25616d2084616cb2565b616c98565b90508083825260208201905060208402830185811115616d4857616d47616457565b5b835b81811015616d715780616d5d8882616cff565b845260208401935050602081019050616d4a565b5050509392505050565b5f82601f830112616d8f57616d8e61644f565b5b8151616d9f848260208601616d13565b91505092915050565b5f67ffffffffffffffff821115616dc257616dc161693d565b5b602082029050602081019050919050565b616ddc81615a02565b8114616de6575f80fd5b50565b5f81519050616df781616dd3565b92915050565b5f616e0f616e0a84616da8565b616c98565b90508083825260208201905060208402830185811115616e3257616e31616457565b5b835b81811015616e5b5780616e478882616de9565b845260208401935050602081019050616e34565b5050509392505050565b5f82601f830112616e7957616e7861644f565b5b8151616e89848260208601616dfd565b91505092915050565b5f8060408385031215616ea857616ea76159fa565b5b5f83015167ffffffffffffffff811115616ec557616ec46159fe565b5b616ed185828601616d7b565b925050602083015167ffffffffffffffff811115616ef257616ef16159fe565b5b616efe85828601616e65565b9150509250929050565b5f616f1282616cdd565b9150616f1d83616cdd565b92508282039050667fffffffffffff81137fffffffffffffffffffffffffffffffffffffffffffffffffff8000000000000082121715616f6057616f5f6168c9565b5b92915050565b5f616f7082616cdd565b9150616f7b83616cdd565b925082616f8b57616f8a6169d8565b5b60015f0383147fffffffffffffffffffffffffffffffffffffffffffffffffff8000000000000083141615616fc357616fc26168c9565b5b828205905092915050565b5f616fd882616cdd565b9150616fe383616cdd565b925082616ff357616ff26169d8565b5b828207905092915050565b5f8160020b9050919050565b5f61701482616ffe565b91507fffffffffffffffffffffffffffffffffffffffffffffffffffffffffff8000008203617046576170456168c9565b5b600182039050919050565b61705a81615b36565b8114617064575f80fd5b50565b5f8151905061707581617051565b92915050565b5f819050919050565b61708d8161707b565b8114617097575f80fd5b50565b5f815190506170a881617084565b92915050565b5f805f805f60a086880312156170c7576170c66159fa565b5b5f6170d488828901617067565b95505060206170e58882890161709a565b94505060406170f688828901616b60565b935050606061710788828901616b60565b925050608061711888828901617067565b9150509295509295909350565b5f61712f8261707b565b915061713a8361707b565b92508282026171488161707b565b91507f800000000000000000000000000000000000000000000000000000000000000084145f8412161561717f5761717e6168c9565b5b8282058414831517617194576171936168c9565b5b5092915050565b5f6060820190506171ae5f830186615ec1565b6171bb6020830185615ec1565b6171c86040830184615ec1565b949350505050565b5f6fffffffffffffffffffffffffffffffff82169050919050565b6171f4816171d0565b82525050565b5f819050919050565b5f819050919050565b5f61722661722161721c846171fa565b617203565b615be9565b9050919050565b6172368161720c565b82525050565b5f60408201905061724f5f8301856171eb565b61725c602083018461722d565b9392505050565b5f61726d82615de7565b915061727883615de7565b92508282019050808211156172905761728f6168c9565b5b92915050565b5f6040820190506172a95f830185615ec1565b6172b66020830184615ec1565b939250505056fea264697066735822122093ff04a88ca27bd3e5a8628467a263a770e217d63c0145af7e44cb66aace91a064736f6c63430008150033","linkReferences":{}},"methodIdentifiers":{"currentInactiveAsks(address)":"e65daa4e","currentInactiveBids(address)":"0a8662f2","deleteBridge(address)":"2a39dcbf","dittoMatchedRate(uint256)":"2ea83e11","dittoShorterRate(uint256)":"1205924b","getAskKey(address,uint16)":"be10d8aa","getAskOrder(address,uint16)":"4edcbb32","getAssetNormalizedStruct(address)":"e2e8fecf","getAssets()":"67e4ac2c","getAssetsMapping(uint256)":"39764545","getBidKey(address,uint16)":"c465aa5c","getBidOrder(address,uint16)":"83744591","getBridgeNormalizedStruct(address)":"6cd4d7a8","getNFT(uint256)":"576f7ea7","getNFTName()":"8e329870","getNFTSymbol()":"06c9c6a7","getOraclePriceT(address)":"70f26c86","getOracleTimeT(address)":"2406dbdc","getReentrantStatus()":"50273b2d","getShortOrder(address,uint16)":"41f368eb","getTokenId()":"010a38f5","getUserOrders(address,address,uint8)":"9d4b79cd","getWithdrawalFeePct(uint256,address,address)":"b78f955e","nonZeroVaultSlot0(uint256)":"41c971be","setAssetOracle(address,address)":"62adfe7a","setBaseOracle(address)":"bb31675a","setBaseRate(address,uint64)":"634ea89b","setBridgeCredit(address,uint88,uint88)":"350c888f","setDethYieldRate(uint256,uint256)":"0de5e53a","setErcDebt(address,address,uint8,uint88)":"4e0050e8","setErcDebtRate(address,uint64)":"348342cc","setEthEscrowed(address,uint88)":"2a68a5fb","setFrozenT(address,uint8)":"098725b4","setLastRedemptionTime(address,uint32)":"e8cb09f3","setLiquidationCRT(address,uint16)":"3ee85cd1","setMinShortErcT(address,uint16)":"8188c059","setOracleTimeAndPrice(address,uint256)":"1173facc","setOrderIdT(address,uint16)":"8b7b8bbe","setReentrantStatus(uint8)":"f26bbd62","setStartingShortId(address,uint16)":"86ecec85","setTokenId(uint40)":"9ca5d6a0","setforcedBidPriceBufferT(address,uint8)":"760e5060","updateStartingShortId(address,uint16[])":"83c09f84"},"id":21}